:020000040800F2
:1000000068060020ED010008C1440008D935000849
:10001000BD440008110A0008696F000800000000D4
:10002000000000000000000000000000D164000893
:10003000B90A000800000000C5440008D5640008A3
:10004000070200080702000807020008070200086C
:10005000070200080702000807020008070200085C
:10006000070200080702000807020008070200084C
:10007000070200080702000807020008070200083C
:1000800007020008000000007108000807020008CD
:10009000070200080702000807020008070200081C
:1000A000070200080702000807020008070200080C
:1000B000F5640008070200080702000807020008AC
:1000C00007020008070200080702000807020008EC
:1000D000070200085D6F0008070200080702000819
:1000E00007020008070200080702000807020008CC
:1000F00007020008070200080702000800000000CD
:1001000000000000070200080000000007020008CD
:1001100007020008000000000702000807020008AC
:10012000070200080702000807020008070200088B
:10013000070200080000000000000000070200089D
:10014000070200080702000800000000000000008D
:10015000000000000000000000000000000000009F
:10016000000000000000000000000000070200087E
:10017000070200080000000000000000000000006E
:10018000000000000702000800000000000000005E
:10019000000000000000000000000000000000005F
:1001A000000000000000000007020008070200082D
:1001B000070200080702000807020008000000000C
:1001C000000000000702000800000000000000001E
:1001D0000702000807020008DFF80CD000F030FB2F
:1001E00000480047A57000086806002006488047C0
:1001F00006480047FEE7FEE7FEE7FEE7FEE7FEE70C
:10020000FEE7FEE7FEE7FEE7D9640008D901000833
:100210002DE9F05F0546002092469B46884606463B
:10022000814640241BE0284641464746224600F0CE
:10023000B1F953465A46C01A914110D31146184697
:10024000224600F098F92D1A67EB01084F46224626
:100250000120002100F08FF917EB00094E41201E0C
:10026000A4F10104DFDC484631462A464346BDE896
:10027000F09F40EA01039B0703D009E008C9121F61
:1002800008C0042AFAD203E011F8013B00F8013B50
:10029000521EF9D27047D2B201E000F8012B491E7C
:1002A000FBD270470022F6E710B513460A46044613
:1002B0001946FFF7F0FF204610BD2DE9FE4F80469E
:1002C00081EA0300C00F0C46009021F0004123F0AA
:1002D0000045B8EB0200A94105D2404621469046B0
:1002E0001C460B46024623F00040104347D0270D22
:1002F000C7F30A00C3F30A510290401A0190402844
:100300006BDAC3F3130040F4801B0098924620B1CF
:100310000023D2EB030A63EB0B0B01985946C0F1A3
:100320004002504600F027F906460D465046594611
:10033000019A00F03FF910EB08006141002487EAC0
:10034000115284EAE7731A4340D0009A62B3019ACB
:10035000012A4FEA075215DC001B61EB02014FF046
:10036000004202EA0752CDE90042001C41F580112B
:1003700032462B4600F076F903B0BDE8F08F4046D8
:100380002146F9E7001B61EB0201001C41F58013D7
:1003900000185B412018A2F5001747EB030140EA63
:1003A000D570B6196D4111E06D084FEA360645EA81
:1003B000C0754FEA0752001B61EB0201001C41F5BA
:1003C000801149084FEA30000019514132462B464E
:1003D00003B0BDE8F04F00F036B9009801224000AC
:1003E0000023D0EB020263EBE073009821464FEA52
:1003F000E074B8EB000061EB0401E9E783F000432F
:100400005BE781F0004158E72DE9FE4F81EA0304E4
:1004100004F0004421F0004100944FF0000B23F061
:10042000004350EA01045ED052EA03045BD0C3F3F8
:100430000A54C1F30A552C44A4F2F3340194A0FBEE
:100440000254C1F3130141F48011C3F3130343F4C5
:10045000801301FB024400FB034E840A970A44EA1E
:10046000815447EA8357A4FB076802958D0A05FB70
:1004700007854FEA932C04FB0C542705029D4FEA95
:10048000065847EA1637B5EB08056EEB070C870EE2
:10049000920E47EA811742EA8312A7FB0201B6EBEC
:1004A0000B0164EB00042B0D43EA0C335E1844EBA4
:1004B0001C50DA465146E7FB0201C5F313044FEA2C
:1004C0000B3343EA14534FEA0432019C43EA060318
:1004D000A4F10C040294009CCDE900B400F0C2F831
:1004E00003B0BDE8F08F00200146F9E700F00042BC
:1004F00030F000400AD0C10D01F56071C0F3160064
:1005000042EA0151C20840071143704700200146EA
:10051000704701F0004330B421F0004150EA01027D
:1005200006D00A0DA2F56072C1F31301002A02DCA5
:1005300030BC00207047440F44EAC104C100E018F9
:1005400030BC00EBC25000F047B830B50B46014656
:1005500000202022012409E021FA02F59D4205D362
:1005600003FA02F5491B04FA02F52844151EA2F10C
:100570000102F1DC30BD202A04DB203A00FA02F14E
:10058000002070479140C2F1200320FA03F3194381
:1005900090407047202A04DB203A21FA02F0002123
:1005A000704721FA02F3D040C2F120029140084383
:1005B00019467047202A06DBCB17203A41FA02F091
:1005C00043EAE07306E041FA02F3D040C2F12002B0
:1005D00091400843194670470029A8BF7047401C46
:1005E000490008BF20F00100704710B4B0FA80FC49
:1005F00000FA0CF050EA010404BF10BC704749B186
:10060000CCF1200421FA04F411FA0CF118BF0121F5
:1006100021430843A3EB0C01CB1D4FEA00614FEAD5
:10062000102042BF002010BC704700EBC3501044A4
:100630000029A4BF10BC7047401C490008BF20F02F
:10064000010010BC704710B5141E73F1000408DAE5
:10065000401C41F1000192185B411A4301D120F086
:10066000010010BD2DE9F04D92469B4611B1B1FA43
:1006700081F202E0B0FA80F220329046FFF77BFF71
:1006800004460F4640EA0A0041EA0B0153465A4627
:10069000084313D0114653EA010019D0C8F14002B3
:1006A0005046FFF777FF05460E46504659464246EC
:1006B000FFF761FF084305D0012004E020463946DA
:1006C000BDE8F08D0020054346EAE0762C43374331
:1006D0000A986305E40AA0EB08000022FD0A44EA38
:1006E00047540A3002D500200146E9E701051019F8
:1006F0006941DDE9084500196941BDE8F04DA2E70F
:100700002DE9F04D81EA030404F0004B21F000458F
:1007100014464FF0000A23F0004150EA050220D0B1
:1007200054EA01021DD0C5F30A570246C5F313036C
:10073000C1F31300C1F30A5640F4801543F480134B
:10074000A7EB0608101BD64608F2FD3873EB050030
:1007500002D308F1010801E092185B41B8F1000FE3
:1007600003DA00200146BDE8F08D00204FF480112F
:10077000064684460EE0171B73EB050705D3121BD4
:1007800063EB050306434CEA010C49084FEA3000CD
:1007900092185B4150EA0107EDD152EA030012D0F2
:1007A00082EA040083EA0501084305D0101BAB412F
:1007B00006D20122002306E000224FF0004302E0AF
:1007C0006FF0010253101AEB06004CEB085110EBCE
:1007D0000A0041EB0B01BDE8F04DFFF734BFC1F358
:1007E0000A52C1F3130140F2FF3341F480119A42DF
:1007F00002DA00200146704740F233439A42A2F2E7
:10080000334202DC5242FFF7C5BEFFF7B4BE000020
:1008100030B5041E71F1000404DB4FF00044404287
:1008200064EB0101141E73F1000405DB1C464FF05C
:100830000043524263EB0403994208BF904230BD2B
:100840001CB509480090094801900546009C06E047
:10085000E06840F0010394E8070098471034AC4288
:10086000F6D3FFF7BDFC0000848D0008A48D0008BE
:1008700080B540F2B000C2F2000000F08FFC40F200
:100880001C10C2F20000BDE8804000F087BC0000F0
:1008900070B5044600688268836802F0040203F0C1
:1008A0000803D21800F0B280C26892016ED5627F50
:1008B000012A6BD1227F012A68D10168490661D4DF
:1008C0000121CAF24031026852065BD40268520626
:1008D00058D4026852065CBF02685FEA426251D493
:1008E000026852065CBF02685FEA42624AD402684C
:1008F00052065CBF02685FEA426243D40268520655
:100900005CBF02685FEA42623CD4026852065CBF88
:1009100002685FEA426235D4026852065CBF026830
:100920005FEA42622ED4026852065CBF02685FEA48
:10093000426227D4026852065CBF02685FEA4262E4
:1009400020D4026852065CBF02685FEA426219D492
:10095000026852065CBF02685FEA426212D4026813
:1009600052065CBF02685FEA42620BD4026852061C
:100970005CBF02685FEA426204D41B393BD0026864
:100980005206A0D540210160012105E0022903D1D2
:100990000221082612E000BF826852070AD5826849
:1009A000920707D482684FF6C073C7F6FF731A40E8
:1009B0001032826001294FF0040610D082681207BD
:1009C0000AD58268920707D482684FF6C073C7F6CB
:1009D000FF731A4020328260032908BF0C2601F001
:1009E000BFF805462068806830420FD001F0B8F8A3
:1009F000401B0628F6D3E06D40F01000E065206E45
:100A000040F001002066012070BD00BF002070BDD5
:100A1000FEE7000070B5AB214143490A01EB4101FB
:100A2000401AC0B230B1012808D1002401220125AA
:100A300007E000BF01240022012502E00025012279
:100A4000012440F60006C4F6000630464FF400616B
:100A500001F080F830464FF48051224601F07AF8D8
:100A600030464FF400512A4601F074F806F58064D0
:100A700020460421012201F06DF8204604210022C5
:100A8000BDE8704001F066B810B540F60044C4F609
:100A90000004A4F580604FF47F41012201F05AF870
:100AA00020460421012201F055F8204604210022AD
:100AB000BDE8104001F04EB8704700002DE9F0414C
:100AC0008AB040F22805C2F200052878AB214143E4
:100AD000490A01EB4101401AC0B2012828D0002880
:100AE00066D161480DF10C0C02905FA0071D8ECFFE
:100AF000007D02AC8CE80E008DF81C001820214609
:100B0000069702F0DDFFE868FFF7F0FC02460B46AF
:100B10005BA1204606F06CFB4820214602F0D0FF86
:100B20002869FFF7E3FC02460B465BA16DE000BFBE
:100B30003B480DF10C0C029039A0071D8ECF007DB3
:100B400002AC8CE80E008DF81C0018202146069798
:100B500002F0B6FF40F20008C2F20008D8E90050E7
:100B6000FFF7C4FC064628460F46FFF7BFFC41ECE2
:100B7000100B31A1204632463B468DED000B06F0AE
:100B800037FB4820214602F09BFFD8E90250FFF7CF
:100B9000ADFC064628460F46FFF7A8FC41EC100BBB
:100BA0002BA1204632463B468DED000B2EE000BFC8
:100BB00048F66C50C0F6000090E88E000669007D93
:100BC0000DF1080C02AC8CE88E008DF81C0018208A
:100BD0002146069602F074FF6868FFF787FC0B4613
:100BE00048F640510246C0F60001204606F000FBE0
:100BF0004820214602F064FFA868FFF777FC0B4607
:100C000048F656510246C0F60001204606F0F0FABA
:100C100002A9602002F054FF0AB0BDE8F08100BFD5
:100C20002020202020205354414E44415244202073
:100C300020202020000000002020202053523337A5
:100C40003A252E31662D252E3166202020200000E9
:100C500020202020535233383A252E31662D252E60
:100C60003166202020200000202020202020204746
:100C70004F4F44532020202020202020000000003F
:100C800020202020205233373A252E32665620204D
:100C90002020202000000000202020202052333877
:100CA0003A252E3266562020202020200000000009
:100CB000704700000000000070B540F21C1440F2C4
:100CC000B001C2F20004C2F20001262808BF0C469F
:100CD0004FF00C05204608BF102500F025FD2046EA
:100CE00000F058FA40F2280600EE100AC2F20006A0
:100CF000B8EE400A701980ED000A204600F0B6FDFB
:100D00007059FFF7F3FB9FED080B53EC102BFFF727
:100D10007BFB9FED070B53EC102BFFF775FBFFF7E9
:100D2000F8FB705170BD00BF6666666666660A4075
:100D3000000000000000303F7047000070470000D6
:100D400070470000704700007047000090F858207E
:100D5000012A04BF022070470268B2F1A04F09D0F7
:100D6000C16D41F02001C1650121002280F85820A9
:100D70000846704770B540F208324FF6006C4FF6E7
:100D80000055C5F20002CFF6FF7CCFF6FF7552F892
:100D90000C40535923435B071ED4D1F800E013687D
:100DA000BEF1000F23F460441CD04B6890F838600B
:100DB00043EA463323431360535952F80C603343DC
:100DC000DB071BD1136840F61F768968B3431943CC
:100DD00041EA0E0111E000BFC16D41F02001C16583
:100DE00001210CE01460515952F80C301943C90725
:100DF00004D1116840F61F73994311600021BDE8CA
:100E00007040002280F8582008467047F0B581B045
:100E10000022009290F85820012A03D102210846AE
:100E200001B0F0BD0123076880F85830BB685B074C
:100E300034D4D1E900351F26C5F3012407EB84041F
:100E4000226B05F01F05AE40C3F38463B243AB4091
:100E50001A432263BA68BB6802F0040203F0080375
:100E6000D21840F0BC800A6807F114030426C2F3CC
:100E70004064D1F808E006EAD25C53F82440C2F39B
:100E800004550722AA40BEF1004F24EA02040BD108
:100E900043F80C401A6842F000430DE0C16D41F088
:100EA0002001C16501216AE10EFA05F2224343F8EF
:100EB0000C201A6822F000437B61D1E90435FC68FC
:100EC000042B5FD13A6E3A6E0B68C2F3846293FAD8
:100ED000A3F6C3F3846C6FF3DF43B6FA86F5002BF9
:100EE0002C464FF6FF7E08BF6446A242C0F2070EB2
:100EF0000CD13A6E22F000423A660A6802EA0E030A
:100F0000C2F3846C92FAA2F2B2FA82F57A6E7A6E29
:100F1000002BC2F384622C4608BF6446A2420CD167
:100F20007A6E22F000427A660A6802EA0E03C2F381
:100F3000846C92FAA2F2B2FA82F5BA6EBA6E002B03
:100F4000C2F384622C4608BF6446A2420CD1BA6E3A
:100F500022F00042BA660A6802EA0E03C2F3846C09
:100F600092FAA2F2B2FA82F5FA6EFA6E002BC2F38E
:100F7000846208BF6546AA4231D1FA6E22F000426F
:100F8000FA662CE0062202EA940205FA02FC0E68D8
:100F900007F1600555F823404FF20002C0F2FF321E
:100FA00006F0F846224046EA0C06324342F0004280
:100FB00045F823200A698B6955F8226026F080766F
:100FC000334345F822300A690B7F55F82260012B24
:100FD00026F0007608BF06F1007645F82260BA6870
:100FE0000D68D20744D1CA68D7F8B0602B466FF3BA
:100FF000DF4326EA030C4FF6FF7602F01804C0F236
:101000000706E64000242E40C4F27F0446EA0C06A0
:10101000A242C7F8B0602BD195FAA5F2B2FA82F2DB
:10102000002B08BFC5F38462013202F01E0302F0F8
:101030001F0201260025964002EB4202CFF62065F2
:1010400005EB0255354345F000750A2B38BF46EADB
:101050000255C5F3406307EB83038A685E69C5F3F5
:1010600004550724AC40A643AA4032435A610D6898
:101070000021C8F208010D4200F0808040F2083CD7
:10108000C5F2000CDCF800400021CCF221318D4289
:1010900004F0E07E04D01021C9F2C0018D423FD19E
:1010A000B7F1A04F4FF0000108BF14F4000266D161
:1010B000DCF8001042F6635221F0E07141EA0E01C3
:1010C00041F40001CCF8001040F21C01C2F2000112
:1010D0000968C0F23E528909A1FB0212910901EB95
:1010E0004101890000910099002947D000990139F8
:1010F00000910099002941D000990139009100998F
:10110000E1B30099013900910099B9B3009901390F
:101110000091009900294FF00001E7D12FE000BFB6
:101120000021CCF252718D4210D10021B1EB1E6F23
:101130000CD1ACF502718F4220D0DCF8001021F008
:10114000E07141EA0E0141F0807115E0ACF50271E9
:101150008F424FF0000112D00022CCF6843295422B
:1011600008BF14F480020AD1DCF8001021F0E0710D
:1011700041EA0E0141F48001CCF800100021002268
:1011800080F85820084601B0F0BD0000704700000C
:10119000704700000068006C704700002DE9F047C0
:1011A000056840F20018C5F200082E68D5F804A0C2
:1011B000D8F808720446B0070FD51AF002000CD018
:1011C000E06DC00603D4E06D40F40060E0652046A9
:1011D000FFF7B2FD256802202860700707F01F099D
:1011E00002D51AF0040004D1300749D51AF00800DE
:1011F00046D0204650F85C2FD20603D4026842F451
:1012000000720260EA6812F4406F33D12A46454505
:1012100008BF4FF0A0421346B9F1090F08BF2B4693
:10122000B9F1050F08BF2B46B9F1000F08BF2B46D7
:10123000AA4208BF1346DA6892041BD42A68120730
:1012400018D5AA6852070BD46A6822F00C026A60AB
:10125000016821F4807101600168C90406D509E0C4
:10126000E06D40F01000E06504F16000016841F0BD
:10127000010101602046FFF789FF25680C202860E6
:10128000B00602D51AF0200004D1700654D51AF029
:10129000400051D0204650F85C2FD20603D402689B
:1012A00042F4005202602946EF6CEA68454508BFE7
:1012B0004FF0A0410B46B9F1070F08BF2B46B9F11B
:1012C000060F08BF2B46B9F1000F08BF2B46A942F5
:1012D00008BF0B46DB6817F4C07F07D0990125D4FF
:1012E00012F4406108BF13F400511FD12968490668
:1012F0001CD513F4001119D1A96809070CD4696829
:1013000021F060016960016821F480510160016889
:10131000C90507D50AE000BFE06D40F01000E065A8
:1013200004F16000016841F0010101602046FFF70F
:1013300005FD25686020286030060CD51AF0800075
:1013400009D0E06D40F48030E065204600F080F97F
:10135000256880202860F0050DD51AF480700AD029
:10136000E06D40F40030E0652046FFF7EBFC2568B7
:101370004FF480702860B0050DD51AF400700AD0C3
:10138000E06D40F48020E0652046FFF7DDFC256835
:101390004FF400702860F0061AD51AF0100017D02C
:1013A000E06B38B1B9F1000F2CD0D8F8080210F476
:1013B000604F0BD0E06D40F48060E065206E40F03F
:1013C000020020662046FFF7E3FE25681020286013
:1013D000700558BFBDE8F0871AF4806010D0E06D4A
:1013E0004FF4806140F48040E065206E40F00800DA
:1013F000206620462960BDE8F047FFF7A1BC00BF8A
:10140000BDE8F087E868C007D4D1DFE7B0B582B0A7
:101410000446002001904CB1E06D58B12168886805
:10142000800012D48868C00019D548E0012002B0BD
:10143000B0BD00BF204600F00DF90020206684F802
:101440005800216888688000ECD588684FF6C07223
:10145000C5F6FF72104088608868C0002FD44FF630
:10146000C0728868C5F6FF7202F18052104000F128
:101470008050886040F21C00C2F20000006842F612
:1014800063528009C0F23E52A0FB02029009019013
:101490000198A0B1019801380190019878B10198A4
:1014A00001380190019850B10198013801900198DC
:1014B00028B101980138019001980028EAD1886884
:1014C000C00009D4E06D40F01000E065206E40F0EF
:1014D00001002066012000E000208A68E36D02F030
:1014E000040203F01003D218E26D77D122F4817266
:1014F0000232E2658A68D2071AD140F2083C4FF600
:1015000000534FF60062C5F2000CCFF6FF73CFF622
:10151000FF725CF803305CF802201A43D20707D14F
:101520006268DCF8003023F47C131A43CCF8002006
:1015300094F81DE0E36BD4E902C243EA4E331A4348
:1015400094F8243042EA0C02012B42EA034207D10C
:10155000D4F828C00023CFF6FE7303EB4C431A43A4
:10156000E36A33B1D4F830C003F4787343EA0C0370
:101570001A43D1F80CC044F20703CFF6F07303EA24
:101580000C031A43CA600A69636B22F040621A4373
:101590000A618A688B6802F0040203F00803D2181B
:1015A00045D194F83820237F520042EA833CCB682F
:1015B00044F2020223EA020242EA0C02CA602269F1
:1015C0000B698AB143F480330B61D1F8C0C043F694
:1015D000FF732CEA03031A430EE000BF42F0100130
:1015E0000120E16502B0B0BD23F480320A61D1F878
:1015F000C02043F6FF739A43C1F8C02094F84030EE
:101600000A69012B10D140F2FD7322EA030CD4E9E0
:101610001132D4E913E543EA0C031A4342EA0E02FD
:101620002A4342F0010201E022F001020A616269EC
:101630000B6B012A23F00F0202D1236A013B1A43EC
:101640000A63E16D012262F30101E16502B0B0BD00
:101650007047000080B586B0006840F20011C5F206
:10166000000188424FF000010591CDE90311CDE959
:10167000011123D0B0F1A04F54D140F24001C2F289
:1016800000010A6841F24C00C4F20200531C0B60D6
:1016900042B9016841F400510160016801F4005150
:1016A00000910099016841F002010160006800F0BA
:1016B0000200009000984FF480501FE040F240017B
:1016C000C2F200010A6841F24C00C4F20200531C4D
:1016D0000B6042B9016841F400510160016801F4F6
:1016E000005100910099016841F002010160006819
:1016F00000F00200009000984FF400400190032099
:1017000002900020039040F20040C4F6000001A9BE
:1017100000F052F912200021002200F09FFA12205E
:1017200000F08AFA06B080BD2DE9F04140F20017C2
:10173000C5F200070446D7F80862006881684907C7
:1017400003D494F85810012902D10220BDE8F08199
:10175000012184F8581081684FF6C078C907C7F690
:10176000FF7831D1816808F17F0211420ED0E06D1F
:1017700040F01000E065206E40F00100206600207F
:1017800084F858000120BDE8F08100BF816801EABB
:10179000080141F00101816000F0E2F9054604E032
:1017A00000F0DEF9401B0228E1D820680168C90773
:1017B0000AD18168C907F3D1816801EA080141F0C3
:1017C00001018160ECE700BFE16D40F601739943D0
:1017D00006F01F0201F580760146B84208BF4FF0BF
:1017E000A0410B1AB3FA83F35B09E66500D11AB97D
:1017F000E76D27F48017E765E66D0027F6044FF0E4
:10180000000644BF266E26F0060626661C260660E5
:1018100084F8587043B9092A18D8012303FA02F250
:1018200040F221231A4211D0C168890104D5E16D2B
:10183000012262F30D31E165816801EA080141F09E
:10184000040181600020BDE8F08100BFE06D40F43C
:101850008010E065C868800104D5E06D012161F366
:101860000D30E0650020BDE8F0810000B0B5044611
:1018700090F85800012804BF0220B0BD0125204681
:10188000032184F85850FFF703F828B1002084F8AA
:1018900058002846B0BD00BF206881688268D20722
:1018A00026D011F0020123D1816801F00D01012938
:1018B00015D181684FF6C072C7F6FF721140023130
:1018C00081600321016000F04BF9054620688068C3
:1018D000C0070DD000F044F9401B0328F6D3E06D9B
:1018E000012540F01000E065204650F8601F06E03A
:1018F000204650F85C1F41F201129143002541F04F
:1019000001010160002084F858002846B0BD0000A5
:1019100090F82510022931D180B50168D0E910CEA8
:10192000826C0B6823F00E030B600B6823F001033D
:101930000B60116821F4807111600EF01F0201210B
:1019400001FA02F2CCF80420D0E913325A60426D59
:1019500032B1136823F480731360D0E91623536007
:1019600080F82510826B002180F824100AB190477E
:101970000021BDE880400846704700BF0421C163D4
:101980000121002280F8251080F8242008467047A5
:10199000B0B5044600F0E4F8054640F21000C2F28B
:1019A00000004068611C18BF044400BF00F0D8F874
:1019B000401BA042FAD3B0BD0A68002A08BF704796
:1019C0002DE9F04F82B041F2004500F1384786051D
:1019D000C4F60005062340F2004E46EA9724A842CA
:1019E00008BF0523C4F2010E052C38BF234600248E
:1019F0004FF0010B00260027009309E00A68013729
:101A000032FA07F306F1040604F1020400F09880AC
:101A10000BFA07F912EA0908F0D04A6842F01005FB
:101A2000122D13D16FF0030202EA57020244D2F8DA
:101A300020A006F01C030F25D1F810C09D402AEA13
:101A400005050CFA03F32B4313624A680368032568
:101A5000A5406FEA050AAB4302F00305A5402B43FE
:101A6000122A036012D80BFA02F313F0061F0DD0EE
:101A70008368CD6803EA0A03A5402B43836043686B
:101A8000150923EA0903BD402B434360C3688D68F1
:101A900003EA0A03A5402B43D200C360AED541F24E
:101AA0006003C4F202031A684FF6084942F00102CB
:101AB0001A601A68CFF6FF7902F001020192019ACA
:101AC00027F00302724452F809C006F00C050F23F8
:101AD000AB402CEA030C009B03FA05F545EA0C0326
:101AE00042F80930DEF800C04B684CEA0805DA031A
:101AF00058BF2CEA0805CEF80050DEF804C09A035F
:101B00004CEA080558BF2CEA0805CEF80450DEF868
:101B100008C0DA024CEA080558BF2CEA080540F272
:101B20000C4CCEF80850C4F2010CDCF800209B02EB
:101B300042EA080558BF22EA0805CCF800505DE7E4
:101B400002B0BDE8F04F70470069084018BF01209F
:101B5000704700001823002A08BF2823C15070478F
:101B600040F26420C2F200000068704740F21000AA
:101B700040F26421C2F20000C2F2000140680A682B
:101B8000104408607047000080B5032000F092F810
:101B9000002000F009F800281CBF012080BD00F0E3
:101BA00029F8002080BD000070B540F21006C2F296
:101BB00000067168E1B1044640F21C00C2F2000068
:101BC0004FF47A720068B2FBF1F1B0FBF1F000F073
:101BD000ADFE0F2C4FF0010508D838B94FF0FF309B
:101BE00021460022002500F039F83460284670BDF7
:101BF000012070BD82B041F25800C4F20200816839
:101C000041F001018160816801F0010101910199B8
:101C1000016841F080510160006800F08050009040
:101C2000009847F20800C4F20000016821F48041E6
:101C3000016002B070470000002848BF704700F004
:101C40001F01012202FA01F11C2202EAD0004EF229
:101C50000012CEF2000281507047000010B54EF61F
:101C60000C5CCEF2000CDCF80030C3F3022E8EF0D8
:101C70000704042C28BF0424BEF103034FF0FF3EE9
:101C80000EFA04F438BF0023A14399400EFA03F37F
:101C90009A43114300F00F0200F160430901043A36
:101CA00003F564436244002848BF02F10C03197035
:101CB00010BD00004EF60C51CEF200010A684FF63E
:101CC000FF031A4060F30A2242F0806040F0FD708A
:101CD00008607047B0F5007F42D0002840F0808057
:101CE00047F21400C4F2000050F8141CC26E01F454
:101CF000C06122F48072B1F5806FC2662ED150F8B7
:101D0000141C012262F34A2140F8141C40F21C0109
:101D1000C2F200010968322251434DF68362C4F2D7
:101D20001B32A1FB0212910C0268520511D54A1C0C
:101D30000FD0026852050CD559B10268520508D57A
:101D4000012906D00268520503D50229A1F1040138
:101D5000EAD10068400544BF032070470020704767
:101D600047F21400C4F2000050F8141CC26E01F4D3
:101D7000C06142F48072B1F5806FC266EED150F856
:101D8000141C012262F34A2140F8141C40F21C0189
:101D9000C2F200010968322251434DF68362C4F257
:101DA0001B32A1FB0212910C0268520511D54A1C8C
:101DB0000FD0026852050CD559B10268520508D5FA
:101DC000012906D00268520503D50229A1F10401B8
:101DD000EAD10068400544BF03207047BEE700BF5A
:101DE00047F21400C4F2000050F8141C022262F3FF
:101DF0004A2140F8141C0020704700002DE9F041F2
:101E000082B00446807841F288060007C4F20206D8
:101E100002D400202FE000BF56F8300C5FEAC00863
:101E20000BD456F8300C40F0805046F8300C56F881
:101E3000300C00F080500190019847F20007C4F286
:101E40000007386840F480703860FFF789FE054667
:101E50003868C00500F1D680FFF782FE401B0228DB
:101E6000F6D90320B8F1000F05D456F8301C21F044
:101E7000805146F8301C2168CA0713D18A0719D44B
:101E80004A071FD40A0725D48A062BD44A0631D420
:101E90000A0637D4CA053DD48A0543D44A0549D435
:101EA00057E000BF3268636822F003021A433260D1
:101EB0008A07E5D53268A36822F00C021A43326023
:101EC0004A07DFD53268E36822F030021A433260F5
:101ED0000A07D9D53268236922F0C0021A4332605A
:101EE0008A06D3D53268636922F440621A433260AD
:101EF0004A06CDD53268A36922F440521A433260B3
:101F00000A06C7D53268E36922F440421A433260B8
:101F1000CA05C1D53268236A22F440321A433260BE
:101F20008A05BBD53268636A22F440221A433260C4
:101F30004A050ED53268A36A22F440121A43B3F55B
:101F4000801F326005D156F87C2C42F4801246F88E
:101F50007C2C0A050ED53268E36A22F440021A434B
:101F6000B3F5800F326005D156F87C2C42F4801214
:101F700046F87C2CCA040ED53268236B22F04072DE
:101F80001A43B3F1807F326005D156F87C2C42F4BD
:101F9000801246F87C2C8A040ED53268636B22F0DE
:101FA00040621A43B3F1006F326005D156F87C2CC1
:101FB00042F4801246F87C2C4A040ED53268A36B9A
:101FC00022F040621A43B3F1006F326005D156F837
:101FD0007C2C42F4801246F87C2C09040ED5316822
:101FE000E26B21F040511143B2F1805F316005D1C5
:101FF00056F87C1C41F4803146F87C1C02B0BDE8E8
:10200000F08100BFB06810F4407010D0216C88429D
:102010000BD0B068B16820F4407041F48031B160F9
:10202000B16821F48031B160B060C0070CD1B068F4
:10203000216C20F440700843B0600020B8F1000F1C
:102040003FF519AF11E700BFFFF78AFD054641F2E2
:10205000883700BFB0688007E9D4FFF781FD401BD7
:10206000B842F7D9FDE600002DE9F047002865D019
:1020700042F2000AC4F2020A0446DAF800000D46F1
:1020800000F00F0088420CD2DAF8000020F00F00B8
:102090002843CAF80000DAF8000000F00F00A84258
:1020A0004CD1216841F20808C807C4F2020803D1E4
:1020B000880740F1D480B9E0606802283AD003284C
:1020C00040D158F8082C920138D5D8F80420D8F817
:1020D000043042F20046C3F3031302F00302D8F8BF
:1020E00004700133C0F2F406032A04BF43F2006611
:1020F000C0F26E16B6FBF3F2D8F80430C7F3062729
:102100007A43C3F34163022707EB4303B2FBF3F2C5
:102110004BF20043C0F2C4439A425DD9D8F8002084
:1021200012F0F00F4DD0890756D5A168002953D180
:1021300047E000BF58F8081C890307D40120BDE818
:10214000F08700BF58F8081C4905F7D5D8F80010EB
:1021500001F00C0104293FD0D8F8001001F00C0167
:10216000082939D0D8F8001001F00C010C2933D11E
:10217000D8F80410D8F8042042F20047C2F3031242
:1021800001F00301D8F804300132C0F2F40703294A
:1021900004BF43F20067C0F26E17B7FBF2F1D8F844
:1021A0000420C3F306235943C2F34162022303EB25
:1021B0004202B1FBF2F14BF20042C0F2C442914242
:1021C0000AD9D8F80010082262F307114FF001096C
:1021D000C8F8001002E000BF4FF00009D8F8001066
:1021E00021F003010843C8F80000FFF7B9FC0646D8
:1021F00041F28837D8F80000616800F00C00B0EBBD
:10220000810F07D0FFF7ACFC801BB842F2D9032046
:10221000BDE8F0872168880708D4B9F1000F1ED007
:10222000D8F8000020F0F00017E000BF480705D5FF
:10223000D8F8000040F4E060C8F80000080706D5B0
:10224000D8F80000072262F30D20C8F80000D8F883
:102250000000A26820F0F0001043C8F80000DAF88F
:10226000000000F00F00A8421BD9DAF8000020F0AF
:102270000F002843CAF80000FFF772FC064641F23F
:10228000883700BFDAF8000000F00F00A84207D03E
:10229000FFF766FC801BB842F4D90320BDE8F08745
:1022A0002168480707D5D8F80000E26820F4E0600C
:1022B0001043C8F80000080708D5D8F800002169C5
:1022C00020F4605040EAC100C8F80000D8F80000CF
:1022D00042F20041C0F2F40100F00C00042808466C
:1022E0002DD0D8F8000000F00C00082843F2006060
:1022F000C0F26E1023D0D8F8002002F00C020C2A95
:102300001CD1D8F80420D8F8043002F00302C3F33B
:102310000313D8F804700133032A08BF0146B1FB48
:10232000F3F0D8F80410C7F30627C1F34161022285
:10233000784302EB4101B0FBF1F000E00020D8F857
:10234000001047F63632C1F30311C0F60002515CAB
:1023500040F21C0201F01F0120FA01F140F21000CE
:10236000C2F200000068C2F200021160BDE8F0474E
:10237000FFF71ABC40F21C0041F20801C2F2000053
:10238000C4F202010068096847F64632C1F302212F
:10239000C0F60002515C01F01F01C8407047000008
:1023A00040F21C0041F20801C2F20000C4F2020136
:1023B0000068096847F64632C1F3C221C0F6000240
:1023C000515C01F01F01C8407047000041F20C0150
:1023D000C4F2020151F8040C42F20042C0F2F402CD
:1023E00000F00C000428104608BF704751F8040C98
:1023F00000F00C00082843F20060C0F26E1025D0F7
:1024000051F8043C03F00C030C2B1CBF0020704758
:1024100080B5D1F800C00B680CF0030CC3F3031EA9
:102420000B680EF1010EBCF1030F08BF02460968EC
:10243000B2FBFEF0C3F30623C1F34161022258430D
:1024400002EB4101B0FBF1F0BDE8804070470000B5
:10245000002804BF012070472DE9F04182B00446F6
:10246000007841F20006C007C4F202061ED12078AF
:1024700080073DD42078000764D42078400700F11D
:1024800087802078800600F1D980E069002800F07C
:10249000C581B16801F00C010C2940F0318101289F
:1024A00040F08481012002B0BDE8F081B06800F006
:1024B0000C01F068082961D0032281F00C0122EAA6
:1024C00000000844B0FA80F0400957D16068B0F5C8
:1024D000803F07D0B0F5A02F40F0E480306840F492
:1024E00080203060306840F480303060E5E000BF2C
:1024F000B068F16800F00C00042871D001F003010D
:1025000080F00C0081F002010844B0FA80F040092C
:1025100066D1E1683068002900F0E08040F4807006
:102520003060FFF71DFB05463068400500F1FE8076
:10253000FFF716FB401B0228F6D9032002B0BDE8C6
:10254000F08100BF6169D6F89400002900F0948002
:1025500040F00100C6F89400FFF702FB054600BFFB
:10256000D6F8940080073FF588AFFFF7F9FA401BD3
:102570000228F5D9032002B0BDE8F081306880035D
:102580007FF575AF606800287FF471AF3EE000BF53
:10259000B06D5FEAC00808D4B06D40F08050B065FF
:1025A000B06D00F080500190019847F20007C4F22E
:1025B00000073868C0052DD4386840F48070386052
:1025C000FFF7CEFA054600BF3868C00522D4FFF7F2
:1025D000C7FA401B0228F7D9032002B0BDE8F081FA
:1025E0003068400501D5E06880B17068216920F04D
:1025F000FE4040EA0160706040F21000C2F200004C
:102600000068FFF7D1FA00283FF434AF012002B090
:10261000BDE8F081A068012808D0052840F0A4801A
:10262000D6F8900040F00400C6F89000D6F890006C
:1026300040F00100C6F89000A4E000BFA169D6F800
:102640009800002900F07A8040F00100C6F8980058
:10265000FFF786FA054600BFD6F8980080073FF5D9
:1026600014AFFFF77DFA401B02284FF00300F3D9A7
:1026700002B0BDE8F08100BF20F00100C6F8940070
:10268000FFF76EFA054600BFD6F8940080077FF585
:10269000F4AEFFF765FA401B0228F5D9032002B01B
:1026A000BDE8F0813168002821F480313160316863
:1026B00021F48021316000F0CF80FFF751FA054608
:1026C000306880033FF5D3AEFFF74AFA401B642819
:1026D000F6D9032002B0BDE8F08100BF20F480707D
:1026E0003060FFF73DFA0546306840057FF5C2AE21
:1026F000FFF736FA401B02284FF00300F4D9B7E782
:102700003168022821F08071316040F08B80FFF742
:1027100027FA05463068800140F1CA80FFF720FAA9
:10272000401B02284FF00300F4D9A1E7706821692B
:1027300020F0FE4040EA016070609BE620F001005E
:10274000C6F89800FFF70CFA054600BFD6F89800C7
:1027500080077FF59AAEFFF703FA401B02284FF07F
:102760000300F3D984E700BFD6F89010002821F0C9
:102770000101C6F89010D6F8901021F00401C6F8B7
:10278000901079D0FFF7ECF9054641F2883700BF89
:10279000D6F89000800700F18180FFF7E1F9401B37
:1027A000B842F5D9032002B0BDE8F081F068216A93
:1027B00000F003028A427FF429AF626A6FF00F03D0
:1027C00000F0F00103EB021291427FF41FAFA16A07
:1027D00000F4FE42B2EB012F7FF418AFE16A00F083
:1027E0007842B2EBC16F7FF411AF226B0023CFF6BA
:1027F000E07303EA025200F4C001A2F50012914214
:102800007FF404AF616B4FF07E4202EA016100F099
:10281000C06001F17E4188427FF4F8AE002002B032
:10282000BDE8F081F0684FF6FF7120F00300F06022
:10283000F068CFF6EE610840F060FFF791F90446CA
:1028400030688001EAD5FFF78BF9001B02284FF0B2
:102850000300F5D90CE700BFFFF782F9054600BF7A
:10286000306880037FF503AEFFF77AF9401B6428D8
:102870004FF00300F4D9FBE6FFF772F9054641F289
:10288000883700BFD6F89000800707D5FFF768F9B2
:10289000401BB8424FF00300F4D9E9E6B8F1000F4D
:1028A0003FF5EFADB06D20F08050B065E9E500BFB9
:1028B000F06848F20C01C0F29F1104F1200700EA11
:1028C000010C8ECF6FF00F00D4E90C5400EB021016
:1028D0000022CFF6E07241EA0C0102EA05520843F9
:1028E000A2F500124FF07E4540EA032005EA046598
:1028F000104305F17E4540EAC7602843F060306828
:1029000040F080703060F06840F08070F060FFF759
:1029100027F90446306880013FF580AFFFF720F9C2
:10292000001B02284FF00300F4D9A1E6411E00204D
:10293000B0EB116F1CBF012070474EF21002CEF2B7
:10294000000251604EF62351CEF20001F0230B70CD
:1029500007219060116070477047000070470000C9
:10296000704700007047000070470000704700008B
:1029700090F83C20012A4FF002022ED010B580F8CA
:102980003D20026843F20043D2F804E0D2F808C0C8
:10299000C4F201039A4205D042F60043C4F2010397
:1029A0009A4204D14C682EF4700344EA030E4FF6A9
:1029B0008F73CFF6FF530C6803EA0E038968234335
:1029C0002CF080042143536091600121002280F8A3
:1029D0003D1080F83C20BDE81040104670470000D4
:1029E00070470000002804BF0120704710B504465E
:1029F00090F83D0028B9002084F83C00204600F003
:102A00000DF8022084F83D002068211D03F078FDB8
:102A1000012084F83D00002010BD00000068B0F1E6
:102A2000804F18BF704780B582B041F25800C4F2A1
:102A300002000168002241F00101016000680021EC
:102A400000F00100019001981C20FFF707F91C20FD
:102A500002B0BDE88040FFF7EFB800000068072231
:102A6000C168C0F2010241F00101C16081681140FA
:102A7000062902D0B1F5803F02D10020704700BF87
:102A8000016841F0010101600020704790F83C208E
:102A9000012A4FF0020200F0B78080B580F83D2097
:102AA000D0F800C08822DCF80830CFF6CE721A4089
:102AB000CCF808200B686F2B22DD2F22C0F2100209
:102AC000934247DCB3F1101F56DA702B00F0C08040
:102AD000B3F5005F40F09080D1E901E3C968DCF80C
:102AE000082043EA0E0322F47F4243EA0121114306
:102AF000CCF80810DCF8081041F480417AE000BFFF
:102B00002F2B33DD4F2B3BDC302B69D0402B73D187
:102B1000D1F804E0C968DCF82030DCF8202022F08D
:102B20000102CCF82020DCF8182022F0F00242EA62
:102B3000011123F00A0242EA0E02CCF81810CCF878
:102B40002020DCF808104FF68872CFF6CF721140C3
:102B500047314FE05F21C0F210018B4236DC30215B
:102B6000C0F210018B423BD0402135E0C3B3102BA3
:102B700036D0202B34D03FE032D020212CE000BFD3
:102B8000502B43D0602B37D1D1F804E0C968DCF872
:102B9000203023F01003CCF82030DCF81830DCF8BB
:102BA000202023F4704322F0A00243EA013142EADC
:102BB0000E12CCF81810CCF82020DCF808104FF6D4
:102BC0008872CFF6CF721140673113E06021C0F2F6
:102BD00010018B4204D07021C0F210018B420BD146
:102BE000DCF808104FF68872CFF6CF721140194307
:102BF00041F00701CCF808100121002280F83D10B7
:102C000080F83C20BDE8804010467047D1F804E0D1
:102C1000C968DCF82030DCF8202022F00102CCF872
:102C20002020DCF8182022F0F00242EA011123F003
:102C30000A0242EA0E02CCF81810CCF82020DCF888
:102C400008104FF68872CFF6CF7211405731D1E796
:102C5000D1E901E3C968DCF8082043EA0E0322F455
:102C60007F4243EA01211143CCF80810DCF8081038
:102C700041F07701BEE700007047000010B5016821
:102C800004460869800744BFC8685FEA807061D461
:102C90000869400744BFC8685FEA407066D40869A5
:102CA000000744BFC8685FEA00706DD40869C006B9
:102CB00044BFC8685FEAC06072D40869C0071CBF1F
:102CC000C8685FEAC07079D10869000644BFC86867
:102CD0005FEA00607AD40869C00544BFC8685FEA4B
:102CE000006000F17B800869400644BFC8685FEA65
:102CF000406000F17B800869800644BFC8685FEAD5
:102D0000806000F17B800869C00244BFC8685FEA48
:102D1000C02000F17B800869800244BFC8685FEA78
:102D2000802000F17B800869400244BFC8685FEAE8
:102D3000402000F17B800869000246BFC8685FEA56
:102D4000002010BD6FF4000220460A61BDE810406B
:102D5000FFF746BE6FF00200086101202077886906
:102D600080076BD02046FFF787FF6DE06FF004000F
:102D7000086102202077886910F4407F68D02046DF
:102D8000FFF77AFF6AE000BF6FF0080008610420D7
:102D90002077C869800765D02046FFF76DFF67E0A0
:102DA0006FF01000086108202077C86910F4407F98
:102DB00062D02046FFF760FF64E000BF6FF00100C3
:102DC0000861204600F066F821687DE76FF080001A
:102DD00008612046FFF7C2FD21687CE76FF4807030
:102DE00008612046FFF7B8FD21687CE76FF04000DE
:102DF0000861204600F0DCF821687CE76FF02000D5
:102E000008612046FFF7ACFD21687CE76FF4801075
:102E100008612046FFF7A8FD21687CE76FF40010E9
:102E200008612046FFF79EFD21687CE76FF4800073
:102E300008612046FFF79AFD21687CE7204600F0F4
:102E400025F8204600F024F82168002020771FE7AD
:102E5000204600F01BF8204600F01AF821680020F8
:102E600020771CE7204600F011F8204600F010F80B
:102E700021680020207719E7204600F007F8204657
:102E800000F006F821680020207716E77047000060
:102E9000704700000068B0F1804F18BF7047B0B5B0
:102EA00040F20044C4F6000420460121FEF74CFE27
:102EB00040F25425C2F20005287020460221FEF798
:102EC00043FEE87020460421FEF73EFEA8714FF055
:102ED00090400121FEF738FE69786872022907D018
:102EE00001290DD091B9297881B901210DE000BFE8
:102EF0002978012904BF0121A970002105E000BF44
:102F00002978B1FA81F1490949006970297959B1E3
:102F100001290DD0022911D1E978012904BF01212D
:102F20006971002109E000BFE97839B9012104E0A5
:102F3000E978B1FA81F1490949002971E97959B172
:102F400001290DD0022911D1A979012904BF01213C
:102F50002972002109E000BFA97939B9012104E0F3
:102F6000A979B1FA81F149094900E971A97A69B1F0
:102F700001290FD002290AD1012804BF0120E872DB
:102F80000020A872BDE8B040704700BF50B1BDE856
:102F9000B0407047B0FA80F040094000A872BDE828
:102FA000B04070470120A872BDE8B04070470000F3
:102FB0007047000090F87C10012904BF0220704780
:102FC0002421C0F8801002681168136823F00103FF
:102FD000136021F000530021416613602022C0F8E5
:102FE000802080F87C100846704700007047000081
:102FF00090F87C20012A04BF02207047B0B524223B
:10300000C0F880200268D0F864E0D2F800C01368ED
:10301000BEF1000F23F001031360936823F0606397
:1030200041EA0301916019D09368916848F6305ED7
:10303000490FC0F6000E48F638551EF80140C0F69C
:103040000005695CC3F34263E400B4FBF1F11EF8D0
:103050000340EB5CE500B5FBF3F301E00121012344
:10306000A0F86A102021A0F86830C2F800C0C0F8AB
:103070008010002180F87C10BDE8B0400846704701
:1030800090F87C20012A04BF02207047B0B52422AA
:10309000C0F880200268D0F864E0D2F800C013685D
:1030A000BEF1000F23F001031360936823F0604327
:1030B00041EA0301916019D09368916848F6305E47
:1030C000490FC0F6000E48F638551EF80140C0F60C
:1030D0000005695CC3F34263E400B4FBF1F11EF840
:1030E0000340EB5CE500B5FBF3F301E001210123B4
:1030F000A0F86A102021A0F86830C2F800C0C0F81B
:103100008010002180F87C10BDE8B0400846704770
:1031100070470000704700007047000070B50168FC
:103120000446CA690E688B6802F02F05202D09D16C
:1031300006F0200503F08050401910D0E16E002900
:103140004DD170BD5FEA027C09D00120C1F20000C0
:1031500003EA000E06F4907010EB0E0028D1D002A6
:103160000AD513F4800007D04FF4801220460A627B
:10317000BDE87040FFF7CEBF100605D506F0800011
:1031800003F40003C01827D150061BD516F04000E9
:1031900018D0086820F04000086020200021C4F802
:1031A000800020462167BDE8704000F013BA00BFE0
:1031B000D00718BF16F4807022D1900703F00105E4
:1031C0002AD432E010020FD516F080400CD02046F1
:1031D000BDE87040FFF79CBF216F0029B1D02046A9
:1031E000BDE87040084700BFD001AAD5B6F1FF3F47
:1031F000C8BF70BD2046BDE87040FFF7F7BE00BFF6
:1032000001200862D4F8880040F00100C4F888006A
:10321000900703F0010508D53DB102200862D4F8FB
:10322000880040F00400C4F88800500708D53DB17C
:1032300004200862D4F8880040F00200C4F8880036
:10324000BCF1000F0CD506F0200050EA0E0007D0AC
:1032500008200862D4F8880040F00800C4F888000C
:10326000D4F8880000283FF46CAF90060AD506F029
:10327000200003F08052801804D0E26E12B1204684
:1032800090472168D4F888008A6800F0080002F0AE
:103290004002801806D12046FFF73EFF0020C4F808
:1032A000880070BD08684FF6FE7220F490700860C8
:1032B0008868CEF6FF72104088602020C4F8840031
:1032C0000020E0668868400614D5886820F0400039
:1032D0008860A06F70B146F28971C0F60001816309
:1032E000FEF716FB00283FF42CAFA06F816BBDE802
:1032F000704008472046BDE87040FFF70DBF000052
:1033000010B5A8B10446D0F8800028B9002084F890
:103310007C00204600F026F82420C4F880002068B5
:10332000016821F001010160204603F03BFB08B178
:10333000012010BDA06A10B1204603F06BF921688E
:10334000486820F490404860886820F02A0088602F
:10335000086840F0010220460A60BDE8104003F012
:10336000CFB90000006843F60001C4F201018842B1
:1033700018BF704780B586B041F24C00C4F202001D
:10338000416941F480414161416901F48041019109
:103390000199016841F001010160006801A900F094
:1033A0000100019001984FF4C0600190022002904A
:1033B0000020CDE90300072005904FF09040FEF774
:1033C000FBFA252000210022FEF748FC2520FEF70D
:1033D00033FC06B0BDE8804070470000D0F8843070
:1033E000202B0BD100294FF0010318BF002A01D177
:1033F0001846704790F87C30012B01D102207047AD
:1034000010B58165A0F85C20A0F85E20D0F808E037
:10341000BEF1000F0AD0BEF1805F0BD0BEF5805F19
:103420000CD1036923B940F2FF130AE003693BB9E9
:10343000FF2306E003691BB13F2302E0002300E005
:103440007F23A0F860300023C0F888302223C0F822
:103450008430D0F800C0416E634653F8084FB1F194
:10346000005F44F001041C6003D1B0F86810914281
:1034700010D9BEF5805F01D10169A9B146F69D0161
:10348000C0F60001C166002180F87C104FF49070F6
:1034900063461FE0BEF5805F01D1016951B146F678
:1034A000F901C0F6000109E046F29971C0F6000189
:1034B000E8E700BF46F2F571C0F60001C1660021E1
:1034C00080F87C10DCF8000040F48070CCF800003C
:1034D0004FF080501968084318600023BDE8104081
:1034E00018467047006843F60001C4F201018842A3
:1034F00018BF704740F2760140F23C0CC2F2000166
:10350000C2F2000C08789CF8002040F24403C2F29A
:103510000003985440F2C810531CC2F2000001226C
:103520008CF80030FFF75ABFD0F88030202B0BD139
:1035300000294FF0010318BF002A01D11846704737
:1035400090F87C30012B03D102231846704700BF4E
:1035500001650021A0F85420A0F85620C0F888107A
:103560002121C0F88010426E8168B2F1005F09D15C
:10357000B1F5805F01D1016971B146F6F961C0F61C
:1035800000010DE0B1F5805F01D1016991B146F60E
:10359000BD61C0F6000111E046F65561C0F60001BC
:1035A00002680167002180F87C1002F108004FF4E6
:1035B000000109E046F61561C0F60001016700212F
:1035C00080F87C10006880210268114301600020AF
:1035D0007047000070470000FEE700000000000098
:1035E000B0B540F25424C2F20004A078012807D0FC
:1035F0006079012810D0207A01286ED0F5E000BF54
:1036000040F22800C2F20000017801310170002070
:10361000A07060790128EED140F22800C2F20000CB
:103620000078AB214143490A01EB4101401AC0B285
:10363000012845D000284AD140F23400C2F20000EF
:1036400090ED000A40F20400C2F2000090ED001A72
:1036500040F26225B4EE410AF1EE10FAC2F2000522
:1036600013DB40F20000C2F2000090ED001AB4EE4D
:10367000410AF1EE10FA08DC2878012101302870A7
:1036800040F26020C2F20000017000F023FD40F221
:10369000AC00C2F2000001782B780131CAB201708F
:1036A000B3FBF2F06421484300EE100A40F22C0014
:1036B000B8EEC00AC2F2000080ED000A07E000BFC9
:1036C00040F22000C2F200000178013101700020B8
:1036D0006071207A012840F0888040F22800C2F210
:1036E00000000078AB214143490A01EB4101401A37
:1036F000C0B2012844D0002875D140F23800C2F28F
:10370000000090ED000A40F20C00C2F2000090EDC3
:10371000001A40F26325B4EE410AF1EE10FAC2F24B
:10372000000513DB40F20800C2F2000090ED001A21
:10373000B4EE410AF1EE10FA08DC287801210130DC
:10374000287040F26120C2F20000017000F0C2FC5B
:1037500040F2AD00C2F2000001782B780131CAB20C
:103760000170B3FBF2F06421484300EE100A40F20E
:103770003000B8EEC00AC2F2000080ED000A32E06C
:1037800040F22000C2F200000078800720D140F211
:103790000005C2F2000595ED000AB0EE081AB4EE7D
:1037A000410AF1EE10FA03D19FED230A0EE000BFAB
:1037B00010EE100AFCF79AFE9FED1D0B53EC102B38
:1037C000FCF77BFDFCF7A5FE00EE100A85ED000A74
:1037D00040F23000C2F200000021016040F22C00F3
:1037E000C2F20000016000202072E07A012818BFB8
:1037F000B0BD40F22800C2F20000007845F25651F8
:10380000C5F25551A0FB011202EB4201C943084425
:1038100001280AD840F23000C2F200000021016005
:1038200040F22C00C2F2000001600020E072B0BD46
:103830009A9999999999C93FCDCC0C4040F2184179
:10384000C4F600010A6942F400720A610A6942F48E
:1038500080720A610A6842F020020A602022C1F8E0
:10386000FC230A6942F020020A6100BF00BF00BFCA
:103870000A6842F020020A600A6842F480720A6014
:103880000022C1F8FC230B6943F020030B6100BF49
:1038900000BF00BF0B6843F020030B600B6843F4CC
:1038A00080730B600B6943F400730B610B6943F485
:1038B00080730B610B6843F020030B602123C1F878
:1038C000FC330B6943F020030B6100BF00BF00BF56
:1038D0000B6843F020030B600B6843F480730B60AC
:1038E000C1F8FC230A6942F020020A6100BF00BF50
:1038F00000BF0A6842F020020A600A6842F480723F
:103900000A600A6942F400720A610A6942F480722C
:103910000A610A6842F020020A602222C1F8FC23F0
:103920000A6942F020020A6100BF00BF00BF0A68B6
:1039300042F020020A600A6842F480720A6000BF06
:1039400000BF00BF0A6842F400720A604FF496326A
:103950000B69053A43F400730B610B6843F4807301
:103960000B600B6843F020030B60C1F8FC030B698C
:1039700043F020030B6100BF00BF00BF0B6843F0A2
:1039800020030B600B6843F480730B6000BF00BF23
:1039900000BF0B6843F400730B600B6943F40073C2
:1039A0000B610B6843F480730B600B6843F02003DA
:1039B0000B60C1F8FC030B6943F020030B6100BFEF
:1039C00000BF00BF0B6843F020030B600B6843F49B
:1039D00080730B6000BF00BF00BF0B6843F400732F
:1039E0000B600B6943F400730B610B6843F4807345
:1039F0000B600B6843F020030B60C1F8FC030B69FC
:103A000043F020030B6100BF00BF00BF0B6843F011
:103A100020030B600B6843F480730B6000BF00BF92
:103A200000BF0B6843F400730B600B6943F4007331
:103A30000B610B6843F480730B600B6843F0200349
:103A40000B60C1F8FC030B6943F020030B6100BF5E
:103A500000BF00BF0B6843F020030B600B6843F40A
:103A600080730B6000BF00BF00BF0B6843F400739E
:103A70000B600B6943F400730B610B6843F48073B4
:103A80000B600B6843F020030B60C1F8FC030B696B
:103A900043F020030B6100BF00BF00BF0B6843F081
:103AA00020030B600B6843F480730B6000BF00BF02
:103AB00000BF0B6843F400730B607FF449AF70479D
:103AC0000A78002A08BF70472DE9F04147F64E38C2
:103AD00004464D1C002740F23F16C0F6000800BF08
:103AE000A2F12000C1B2490051FA80F008EB0012A7
:103AF000B1B2204600F00AF8EA5D22B1103E132F61
:103B000007F10107ECD3BDE8F04170472DE9F0471C
:103B100040F21843C4F600031F694FF0200C47F42D
:103B200000771F611F694FF0210E47F480771F61F6
:103B30001F6840F2180947F020071F60C3F8FCC354
:103B40001F6940F2AA0A47F020071F6100BF00BFAB
:103B500000BF1F684FF0220847F020071F601F6852
:103B6000C2F2000947F480771F60C3F8FC031F69A5
:103B7000C2F2000A47F020071F6100BF00BF00BF6C
:103B80001F6847F020071F601F6847F480771F6099
:103B90001F6947F400771F611F6947F480771F6131
:103BA0001F6847F020071F60C3F8FCE31C6944F05E
:103BB00020041C6100BF00BF00BF1C6844F020044B
:103BC0001C601C6844F480741C60C3F8FC131C69FE
:103BD00044F020041C6100BF00BF00BF1C6844F01B
:103BE00020041C601C6844F480741C60002400BF26
:103BF0001D6945F400751D611D6945F480751D61E1
:103C00001D6845F020051D60C3F8FC831D6945F063
:103C100020051D6100BF00BF00BF1D6845F02005E5
:103C20001D601D6845F480751D6000BF00BF00BFAA
:103C30001D6845F400751D60002500BF32F8146052
:103C4000EE40F607564608BF4E4636881F6947F4D1
:103C500000771F611F6847F480771F601F6847F077
:103C600020071F60C3F8FC631E696F1C46F0200626
:103C70001E6100BF00BF00BF1E6846F020061E6028
:103C80001E6846F480761E6000BF00BF00BF1E683D
:103C900046F400761E6032F81460FE40F607564681
:103CA00008BF4E4636881F6947F400771F611F68BA
:103CB00047F480771F601F6847F020071F60C3F834
:103CC000FC631E69AF1C46F020061E6100BF00BFEA
:103CD00000BF1E6846F020061E601E6846F480760F
:103CE0001E6000BF00BF00BF1E6846F400761E6065
:103CF00032F81460FE40F607564608BF4E46368836
:103D00001F6947F400771F611F6847F480771F60C1
:103D10001F6847F020071F60C3F8FC631E69EF1C93
:103D200046F020061E6100BF00BF00BF1E680435BC
:103D300046F020061E601E6846F480761E6000BFB6
:103D400000BF00BF1E6846F400761E6032F81460A3
:103D5000FE40F607564608BF4E4636881F69102DAE
:103D600047F400771F611F6847F480771F601F6862
:103D700047F020071F60C3F8FC631E6946F0200669
:103D80001E6100BF00BF00BF1E6846F020061E6017
:103D90001E6846F480761E6000BF00BF00BF1E682C
:103DA00046F400761E607FF449AF1D69013045F48A
:103DB00000751D611D69013445F480751D611D6824
:103DC000182C45F020051D60C3F8FCC31D6945F0A3
:103DD00020051D6100BF00BF00BF1D6845F0200524
:103DE0001D601D6845F480751D60C5B2C3F8FC53A5
:103DF0001D6945F020051D6100BF00BF00BF1D68A3
:103E000045F020051D601D6845F480751D601D6925
:103E100045F400751D611D6945F480751D611D68BF
:103E200045F020051D60C3F8FCE31D6945F0200541
:103E30001D6100BF00BF00BF1D6845F020051D606B
:103E40001D6845F480751D60C3F8FC131D6945F0BD
:103E500020051D6100BF00BF00BF1D6845F02005A3
:103E60001D601D6845F480751D6008BFBDE8F087C2
:103E7000BEE600002DE9F04F8BB0002641F24C0069
:103E80000596C4F20200016840F2184541F00401B1
:103E900001600168C4F6000501F00401069106996D
:103EA000016801AC41F001010160016840F61409AC
:103EB00001F00101069106990168C4F6000941F07C
:103EC000020101600068214600F002000690069899
:103ED0004FF44870019001200290A5F118000127CD
:103EE000CDE90366FDF768FD4FF48070CDE9010769
:103EF0004FF090402146CDE90366FDF75DFD4FF69A
:103F0000FF7005F57A7406904FF0030806A9204665
:103F10000A964FF6FF7B0797CDE90868FDF74CFD41
:103F20004FF6004ACFF6FF7A55F80A0006A940F48A
:103F3000807045F80A0028684FF6FF7740F4087053
:103F40002860286940F400702861286940F4807076
:103F50002861286840F020002860C9F800602869BE
:103F600040F02000286100BF00BF00BF286840F07B
:103F700020002860286840F48070286020460A9657
:103F8000CDF818B0CDF82480CDE90766FDF714FD13
:103F90004FF6104BCFF6FF7B55F80B0007A940F406
:103FA000807045F80B0000BF00BF00BFD5F8F89344
:103FB00055F80A0040F4807045F80A00012081E8B5
:103FC000410106A920460A960697FDF7F5FC2868E8
:103FD00048F2302140F40070286040F2AE00C2F296
:103FE0000000A0F800900088884203D100F06CFA2D
:103FF00002E000BF00F0DCFF2869002640F40070FA
:10400000286128694FF6FF7840F48070286128689D
:104010004FF0030940F02000286040F61400C4F679
:1040200000000660286906A940F02000286100BF52
:1040300000BF00BF286840F020002860286840F4D6
:104040008070286020460A96CDE90686CDE9086989
:10405000FDF7B2FC55F80B0007A940F4807045F855
:104060000B0000BF00BF00BFD5F8F87355F80A0079
:1040700040F4807045F80A00012081E8410206A959
:1040800020460A96CDF81880FDF796FC286840F483
:104090000070286040F2AE00C2F2000007800BB052
:1040A000BDE8F08F81B0ADF80200BDF8020040F22B
:1040B0001801C2F20001088001B0704781B0ADF86C
:1040C0000200BDF8020040F2AA01C2F2000108801D
:1040D00001B07047F0B581B040F26026C2F2000630
:1040E000307840F60044C4F600040128A4F5806549
:1040F0002BD128464FF4807100220027FDF72AFDBE
:10410000204604210122FDF725FD0120FDF740FC9A
:10411000204604210022FDF71DFD4FF47A70FDF7C3
:1041200037FC28464FF480710122FDF713FD20462D
:1041300004210122FDF70EFD0120FDF729FC204698
:1041400004210022FDF706FD377040F26126C2F21D
:104150000006307801282BD128464FF40071002248
:104160000027FDF7F7FC204604210122FDF7F2FCB1
:104170000120FDF70DFC204604210022FDF7EAFC9A
:104180004FF47A70FDF704FC28464FF400710122C9
:10419000FDF7E0FC204604210122FDF7DBFC0120B5
:1041A000FDF7F6FB204604210022FDF7D3FC377013
:1041B00001B0F0BD10B58CB040F2B0000024C2F2E6
:1041C00000004FF0A0410422C0E900140121CDE914
:1041D0000A44CDE90744CDE90544CDE90344CDE9DE
:1041E0000144C0E90244C0E904448261848301625D
:1041F00080F82440C0E90B4480F83840C46380F85C
:104200004040FDF703F9002818BFFCF751FD40F2CC
:10421000B000C2F2000009A90994FCF797FD00283C
:1042200018BFFCF745FD40F60000C2F63060019073
:1042300006207F2102900020049104210390CDE903
:10424000051040F2B000C2F2000001A9FCF7DEFD4B
:10425000002818BFFCF72CFD0CB010BDB0B588B01D
:1042600040F21C1040F200110024C2F20000C5F21E
:1042700000010425C0E900140121CDE90644C0E98C
:104280000244C0E9044485618483016280F82440CB
:10429000C0E90B4480F83840C46380F84040FDF723
:1042A000B5F8002818BFFCF703FD48F20000C3F67C
:1042B000F06000900620CDE901047F20CDE90305E0
:1042C00040F21C10C2F2000069460594FCF79EFD06
:1042D000002818BFFCF7ECFC08B0B0BD2DE9F04396
:1042E00087B04FF0000941F24C00CDF81890C4F2AD
:1042F0000200016840F6000541F004010160016818
:10430000C4F6000501F00401019101990168002241
:1043100041F02001016001684FF47F4601F0200167
:1043200001910199016841F001010160016801F00A
:10433000010101910199016841F0020101600168E8
:1043400001F0020101910199016841F00801016049
:1043500000684FF47F4100F0080001900198284662
:10436000FDF7F8FB05F580642046042100224FF09C
:104370000408FDF7EFFB029602AE012728463146FE
:10438000CDE90379CDF81490FDF716FB4FF090407E
:104390003146CDE902790497FDF70EFB0720CDE900
:1043A0000209A5F5806031460497FDF705FB20461C
:1043B0003146CDE90287CDE90499FDF7FDFA07B052
:1043C000BDE8F08380B588B040F288100021C2F2C9
:1043D00000004FF080424F2342F20F7C0791CDE95D
:1043E00005110291C0E90023C0E9021C016181614D
:1043F000FEF7F8FA002818BFFCF75AFC4FF480507B
:10440000049040F28810C2F2000004A9FEF73EFBBF
:10441000002818BFFCF74CFC00200190039040F2EC
:104420008810C2F2000001A9FEF7A2FA002818BF06
:10443000FCF73EFC08B080BD80B540F2C81043F6E2
:104440000001C2F20000C4F2010100234FF00C0C85
:104450004FF4165280E80E00C0E90333C0E905C3EB
:10446000C0E90733C0E90933FEF74AFF002818BF47
:10447000FCF71EFC40F2C810C2F200000021FEF75B
:10448000FFFD002818BFFCF713FC40F2C810C2F271
:1044900000000021FEF7ACFD002818BFFCF708FC67
:1044A00040F2C810C2F20000FEF784FD002808BFE9
:1044B00080BDBDE88040FCF7FBBB0000FEE70000CC
:1044C000704700007047000040F21840C4F600003A
:1044D0000169002241F40071016101694FF0030C90
:1044E00041F480710161016841F020010160C0F870
:1044F000FC23016941F02001016100BF00BF00BF42
:10450000016841F020010160016841F4807101609F
:104510000121C0F8FC13036943F02003036100BFCD
:1045200000BF00BF036843F020030360036843F447
:1045300080730360036943F400730361036943F408
:1045400080730361036843F020030360C0F8FC1329
:10455000036943F02003036100BF00BF00BF03688D
:1045600043F020030360036843F480730360C0F8E2
:10457000FC23026942F02002026100BF00BF00BFBD
:10458000026842F020020260026842F48072026017
:10459000026942F400720261026942F480720261AF
:1045A000026842F0200202601022C0F8FC23026977
:1045B00042F02002026100BF00BF00BF026842F06B
:1045C00020020260026842F48072026041F290723E
:1045D000C0F8FC23026942F02002026100BF00BF64
:1045E00000BF026842F020020260026842F480725A
:1045F0000260026942F400720261026942F4807250
:104600000261026842F0200202606022C0F8FC23CE
:10461000026942F02002026100BF00BF00BF0268D1
:1046200042F020020260026842F4807202604FF49D
:104630001C52C0F8FC23026942F02002026100BF54
:1046400000BF00BF026842F020020260026842F42C
:1046500080720260026942F400720261026942F4EF
:1046600080720261026842F0200202606122C0F89A
:10467000FC23026942F02002026100BF00BF00BFBC
:10468000026842F020020260026842F48072026016
:10469000C0F8FC13016941F02001016100BF00BFB7
:1046A00000BF016841F020010160016841F48071A0
:1046B0000160016941F400710161016941F4807197
:1046C0000161016841F0200101604621C0F8FC133E
:1046D000016941F02001016100BF00BF00BF016816
:1046E00041F020010160016841F480710160022104
:1046F000C0F8FC13026942F02002026100BF00BF53
:1047000000BF026842F020020260026842F4807238
:104710000260026942F400720261026942F480722E
:104720000261026842F0200202601322C0F8FC23FA
:10473000026942F02002026100BF00BF00BF0268B0
:1047400042F020020260026842F48072026048F285
:104750001002C0F8FC23026942F02002026100BF8F
:1047600000BF00BF026842F020020260026842F40B
:1047700080720260026942F400720261026942F4CE
:1047800080720261026842F0200202601222C0F8C8
:10479000FC23026942F02002026100BF00BF00BF9B
:1047A000026842F020020260026842F480720260F5
:1047B00048F2FE02C0F8FC23026942F020020261C6
:1047C00000BF00BF00BF026842F020020260026822
:1047D00042F480720260026942F40072026102696E
:1047E00042F480720261026842F020020260C0F866
:1047F000FC13016941F02001016100BF00BF00BF4F
:10480000016841F020010160016841F4807101609C
:104810004FF4A061C0F8FC13016941F0200101616F
:1048200000BF00BF00BF016841F0200101600168C6
:1048300041F480710160016941F400710161016915
:1048400041F480710161016841F020010160C0F80C
:10485000FCC3026942F02002026100BF00BF00BF3A
:10486000026842F020020260026842F48072026034
:1048700041F23002C0F8FC23026942F020020261DA
:1048800000BF00BF00BF026842F020020260026861
:1048900042F480720260026942F4007202610269AD
:1048A00042F480720261026842F02002026030220B
:1048B000C0F8FC23026942F02002026100BF00BF81
:1048C00000BF026842F020020260026842F4807277
:1048D000026040F20332C0F8FC23036943F0200376
:1048E000036100BF00BF00BF036843F02003036003
:1048F000036843F480730360036943F40073036146
:10490000036943F480730361036843F02003036089
:104910003123C0F8FC33036943F02003036100BF77
:1049200000BF00BF036843F020030360036843F443
:1049300080730360C0F8FC23036943F02003036124
:1049400000BF00BF00BF036843F02003036003689B
:1049500043F480730360036943F4007303610369E4
:1049600043F480730361036843F020030360322340
:10497000C0F8FC33036943F02003036100BF00BFAC
:1049800000BF036843F020030360036843F48073AF
:104990000360C0F8FC23036943F02003036100BFF8
:1049A00000BF00BF036843F020030360036843F4C3
:1049B00080730360036943F400730361036943F484
:1049C00080730361036843F0200303603323C0F85E
:1049D000FC33036943F02003036100BF00BF00BF45
:1049E000036843F020030360036843F480730360AB
:1049F0004FF44073C0F8FC33016941F020010161BC
:104A000000BF00BF00BF016841F0200101600168E4
:104A100041F480710160016941F400710161016933
:104A200041F480710161016841F02001016034218D
:104A3000C0F8FC13016941F02001016100BF00BF13
:104A400000BF016841F020010160016841F48071FC
:104A50000160C0F8FCC3016941F02001016100BFA1
:104A600000BF00BF016841F020010160016841F40E
:104A700080710160016941F400710161016941F4D3
:104A800080710161016841F0200101603521C0F8A9
:104A9000FC13016941F02001016100BF00BF00BFAC
:104AA000016841F020010160016841F480710160FA
:104AB000C0F8FC23016941F02001016100BF00BF83
:104AC00000BF016841F020010160016841F480717C
:104AD0000160016941F400710161016941F4807173
:104AE0000161016841F0200101603621C0F8FC132A
:104AF000016941F02001016100BF00BF00BF0168F2
:104B000041F020010160016841F4807101601421CD
:104B1000C0F8FC13016941F02001016100BF00BF32
:104B200000BF016841F020010160016841F480711B
:104B30000160016941F400710161016941F4807112
:104B40000161016841F0200101603721C0F8FC13C8
:104B5000016941F02001016100BF00BF00BF016891
:104B600041F020010160016841F480710160C0F8EA
:104B7000FC23016941F02001016100BF00BF00BFBB
:104B8000016841F020010160016841F48071016019
:104B9000016941F400710161016941F480710161B1
:104BA000016841F0200101603821C0F8FC1301695F
:104BB00041F02001016100BF00BF00BF016841F06A
:104BC00020010160016841F480710160C0F8FC239C
:104BD000016941F02001016100BF00BF00BF016811
:104BE00041F020010160016841F4807101600169B8
:104BF00041F400710161016941F480710161016852
:104C000041F0200101603921C0F8FC13016941F035
:104C10002001016100BF00BF00BF016841F0200119
:104C20000160016841F480710160C0F8FC230169F2
:104C300041F02001016100BF00BF00BF016841F0E9
:104C400020010160016841F480710160016941F453
:104C500000710161016941F480710161016841F0F5
:104C6000200101603A21C0F8FC13016941F02001E4
:104C7000016100BF00BF00BF016841F02001016079
:104C8000016841F480710160C0F8FC33016941F0B2
:104C90002001016100BF00BF00BF016841F0200199
:104CA0000160016841F480710160016941F40071A3
:104CB0000161016941F480710161016841F02001E5
:104CC00001603B21C0F8FC13016941F02001016142
:104CD00000BF00BF00BF016841F020010160016812
:104CE00041F480710160C0F8FCC3016941F020010A
:104CF000016100BF00BF00BF016841F020010160F9
:104D0000016841F480710160016941F40071016141
:104D1000016941F480710161016841F02001016085
:104D20003C21C0F8FC13016941F02001016100BF82
:104D300000BF00BF016841F020010160016841F43B
:104D400080710160C0F8FC23016941F0200101611C
:104D500000BF00BF00BF016841F020010160016891
:104D600041F480710160016941F4007101610169E0
:104D700041F480710161016841F0200101603D2131
:104D8000C0F8FC13016941F02001016100BF00BFC0
:104D900000BF016841F020010160016841F48071A9
:104DA00001604FF4A051C0F8FC13016941F02001EB
:104DB000016100BF00BF00BF016841F02001016038
:104DC000016841F480710160016941F40071016181
:104DD000016941F480710161016841F020010160C5
:104DE0009221C0F8FC13016941F02001016100BF6C
:104DF00000BF00BF016841F020010160016841F47B
:104E0000807101604FF40071C0F8FC13016941F03A
:104E10002001016100BF00BF00BF016841F0200117
:104E20000160016841F480710160016941F4007121
:104E30000161016941F480710161016841F0200163
:104E400001609321C0F8FC13016941F02001016168
:104E500000BF00BF00BF016841F020010160016890
:104E600041F480710160C0F8FC23016941F0200128
:104E7000016100BF00BF00BF016841F02001016077
:104E8000016841F480710160016941F400710161C0
:104E9000016941F480710161016841F02001016004
:104EA0009021C0F8FC13016941F02001016100BFAD
:104EB00000BF00BF016841F020010160016841F4BA
:104EC0008071016040F60D01C0F8FC13016941F0EA
:104ED0002001016100BF00BF00BF016841F0200157
:104EE0000160016841F480710160016941F4007161
:104EF0000161016941F480710161016841F02001A3
:104F00000160C0F8FCC3016941F02001016100BFEC
:104F100000BF00BF016841F020010160016841F459
:104F20008071016041F21801C0F8FC13016941F081
:104F30002001016100BF00BF00BF016841F02001F6
:104F40000160016841F480710160016941F4007100
:104F50000161016941F480710161016841F0200142
:104F600001600721C0F8FC13016941F020010161D3
:104F700000BF00BF00BF016841F02001016001686F
:104F800041F48071016040F27311C0F8FC130169B3
:104F900041F02001016100BF00BF00BF016841F086
:104FA00020010160016841F48071016070470000D8
:104FB0002DE9F04F81B040F21844C4F60004206996
:104FC0004FF0120940F4007020612069002540F480
:104FD000807020612068112640F020002060E320CE
:104FE000C4F8FC0320694FF0130B40F0200020614F
:104FF00000BF00BF00BF2068102740F020002060E5
:1050000020684FF0070840F48070206043F20800E9
:10501000C4F8FC03206940F02000206100BF00BFFD
:1050200000BF206840F020002060206840F48070BD
:105030002060206940F400702061206940F4807095
:105040002061206840F020002060E720C4F8FC03C5
:10505000206940F02000206100BF00BF00BF206831
:1050600040F020002060206840F480702060C4F888
:10507000FC93206940F02000206100BF00BF00BF0A
:10508000206840F020002060206840F4807020609C
:10509000206940F400702061206940F48070206134
:1050A000206840F020002060EF20C4F8FC03206955
:1050B00040F02000206100BF00BF00BF206840F02A
:1050C00020002060206840F48070206041F2312090
:1050D000C4F8FC03206940F02000206100BF00BF3D
:1050E00000BF206840F020002060206840F48070FD
:1050F0002060206940F400702061206940F48070D5
:105100002061206840F0200020600120C4F8FC03EA
:10511000206940F02000206100BF00BF00BF206870
:1051200040F020002060206840F480702060C4F8C7
:10513000FC53206940F02000206100BF00BF00BF89
:10514000206840F020002060206840F480702060DB
:10515000206940F400702061206940F48070206173
:10516000206840F0200020600220C4F8FC03206981
:1051700040F02000206100BF00BF00BF206840F069
:1051800020002060206840F4807020604FF4E060D0
:10519000C4F8FC03206940F02000206100BF00BF7C
:1051A00000BF206840F020002060206840F480703C
:1051B0002060206940F400702061206940F4807014
:1051C0002061206840F0200020600320C4F8FC0328
:1051D000206940F02000206100BF00BF00BF2068B0
:1051E00040F020002060206840F48070206041F290
:1051F0003000C4F8FC03206940F02000206100BFAB
:1052000000BF00BF206840F020002060206840F40C
:1052100080702060206940F400702061206940F4B3
:1052200080702061206840F0200020600420C4F8D5
:10523000FC03206940F02000206100BF00BF00BFD8
:10524000206840F020002060206840F480702060DA
:10525000C4F8FC53206940F02000206100BF00BF6B
:1052600000BF206840F020002060206840F480707B
:105270002060206940F400702061206940F4807053
:105280002061206840F0200020600820C4F8FC0362
:10529000206940F02000206100BF00BF00BF2068EF
:1052A00040F020002060206840F48070206040F2D0
:1052B0000720C4F8FC03206940F02000206100BFF3
:1052C00000BF00BF206840F020002060206840F44C
:1052D00080702060206940F400702061206940F4F3
:1052E00080702061206840F0200020600920C4F810
:1052F000FC03206940F02000206100BF00BF00BF18
:10530000206840F020002060206840F48070206019
:10531000C4F8FC53206940F02000206100BF00BFAA
:1053200000BF206840F020002060206840F48070BA
:105330002060206940F400702061206940F4807092
:105340002061206840F0200020600A20C4F8FC039F
:10535000206940F02000206100BF00BF00BF20682E
:1053600040F020002060206840F480702060C4F885
:10537000FC53206940F02000206100BF00BF00BF47
:10538000206840F020002060206840F48070206099
:10539000206940F400702061206940F48070206131
:1053A000206840F0200020600C20C4F8FC03206935
:1053B00040F02000206100BF00BF00BF206840F027
:1053C00020002060206840F480702060C4F8FC5306
:1053D000206940F02000206100BF00BF00BF2068AE
:1053E00040F020002060206840F480702060206938
:1053F00040F400702061206940F4807020612068D2
:1054000040F0200020600D20C4F8FC03206940F02B
:105410002000206100BF00BF00BF206840F02000D6
:105420002060206840F480702060C4F8FC5320693C
:1054300040F02000206100BF00BF00BF206840F0A6
:1054400020002060206840F480702060206940F4D3
:1054500000702061206940F480702061206840F075
:10546000200020600F20C4F8FC03206940F02000D9
:10547000206100BF00BF00BF206840F02000206016
:10548000206840F480702060C4F8FC53206940F02C
:105490002000206100BF00BF00BF206840F0200056
:1054A0002060206840F480702060206940F4007023
:1054B0002061206940F480702061206840F0200065
:1054C00020601020C4F8FC03206940F02000206117
:1054D00000BF00BF00BF206840F0200020602068AF
:1054E00040F480702060C4F8FC53206940F0200034
:1054F000206100BF00BF00BF206840F02000206096
:10550000206840F480702060206940F400702061C1
:10551000206940F480702061206840F02000206005
:10552000C4F8FC63206940F02000206100BF00BF88
:1055300000BF206840F020002060206840F48070A8
:1055400020600720C4F8FC03206940F0200020619F
:1055500000BF00BF00BF206840F02000206020682E
:1055600040F480702060206940F400702061206960
:1055700040F480702061206840F020002060C4F872
:10558000FC93206940F02000206100BF00BF00BFF5
:10559000206840F020002060206840F48070206087
:1055A000C4F8FC53206940F02000206100BF00BF18
:1055B00000BF206840F020002060206840F4807028
:1055C0002060206940F400702061206940F4807000
:1055D0002061206840F020002060C4F8FCB32069FE
:1055E00040F02000206100BF00BF00BF206840F0F5
:1055F00020002060206840F480702060C4F8FC53D4
:10560000206940F02000206100BF00BF00BF20687B
:1056100040F020002060206840F480702060C820A6
:10562000FCF7B6F920694FF0320A40F400702061AF
:10563000206940F480702061206840F020002060E4
:10564000C4F8FC732069102740F02000206100BFDF
:1056500000BF00BF206840F020002060206840F4B8
:105660008070206041F29060C4F8FC03206940F033
:105670002000206100BF00BF00BF206840F0200074
:105680002060206840F480702060206940F4007041
:105690002061206940F480702061206840F0200083
:1056A0002060C4F8FC63206940F02000206100BF46
:1056B00000BF00BF206840F020002060206840F458
:1056C0008070206040F22720C4F8FC03206940F07D
:1056D0002000206100BF00BF00BF206840F0200014
:1056E0002060206840F4807020603220FCF750F980
:1056F000206940F400702061206940F480702061CE
:10570000206840F020002060C4F8FC93206940F03D
:105710002000206100BF00BF00BF206840F02000D3
:105720002060206840F4807020601D20C4F8FC03D5
:10573000206940F02000206100BF00BF00BF20684A
:1057400040F020002060206840F48070206032200B
:10575000FCF71EF9206940F400702061206940F4D4
:1057600080702061206840F020002060C4F8FCB305
:10577000206940F02000206100BF00BF00BF20680A
:1057800040F020002060206840F4807020604FF4DA
:105790000060C4F8FC03206940F02000206100BFD5
:1057A00000BF00BF206840F020002060206840F467
:1057B00080702060206940F400702061206940F40E
:1057C00080702061206840F0200020602920C4F80B
:1057D000FC03206940F02000206100BF00BF00BF33
:1057E000206840F020002060206840F48070206035
:1057F0001420C4F8FC03206940F02000206100BFA1
:1058000000BF00BF206840F020002060206840F406
:1058100080702060206940F400702061206940F4AD
:1058200080702061206840F0200020602B20C4F8A8
:10583000FC03206940F02000206100BF00BF00BFD2
:10584000206840F020002060206840F480702060D4
:105850000B20C4F8FC03206940F02000206100BF49
:1058600000BF00BF206840F020002060206840F4A6
:10587000807020603220FCF78BF82069032140F40F
:10588000007020612069072240F480702061206848
:1058900040F0200020602020C4F8FC03206940F084
:1058A0002000206100BF00BF00BF206840F0200042
:1058B0002060206840F480702060C4F8FC532069A8
:1058C00040F02000206100BF00BF00BF206840F012
:1058D00020002060206840F480702060206940F43F
:1058E00000702061206940F480702061206840F0E1
:1058F000200020602120C4F8FC03206940F0200033
:10590000206100BF00BF00BF206840F02000206081
:10591000206840F480702060C4F8FC53206940F097
:105920002000206100BF00BF00BF206840F02000C1
:105930002060206840F480702060206940F400708E
:105940002061206940F480702061206840F02000D0
:1059500020603020C4F8FC03206940F02000206162
:1059600000BF00BF00BF206840F02000206020681A
:1059700040F480702060C4F8FC83206940F020006F
:10598000206100BF00BF00BF206840F02000206001
:10599000206840F480702060206940F4007020612D
:1059A000206940F480702061206840F02000206071
:1059B0003120C4F8FC03206940F02000206100BFC2
:1059C00000BF00BF206840F020002060206840F445
:1059D0008070206040F20770C4F8FC03206940F03A
:1059E0002000206100BF00BF00BF206840F0200001
:1059F0002060206840F480702060206940F40070CE
:105A00002061206940F480702061206840F020000F
:105A10002060C4F8FCA3206940F02000206100BF92
:105A200000BF00BF206840F020002060206840F4E4
:105A3000807020600620C4F8FC03206940F020003C
:105A4000206100BF00BF00BF206840F02000206040
:105A5000206840F480702060206940F4007020616C
:105A6000206940F480702061206840F020002060B0
:105A70003520C4F8FC03206940F02000206100BFFD
:105A800000BF00BF206840F020002060206840F484
:105A90008070206040F20470C4F8FC03206940F07C
:105AA0002000206100BF00BF00BF206840F0200040
:105AB0002060206840F480702060206940F400700D
:105AC0002061206940F480702061206840F020004F
:105AD00020603620C4F8FC03206940F020002061DB
