:020000040800F2
:1000000078040020ED010008FD170008F51700082E
:10001000F9170008A10200082918000800000000D4
:1000200000000000000000000000000005180008AB
:10003000A5020008000000000118000809180008C7
:10004000070200080702000807020008070200086C
:10005000070200080702000807020008070200085C
:10006000070200080702000807020008070200084C
:10007000070200080702000807020008070200083C
:10008000070200080000000007020008070200083D
:10009000070200080702000807020008070200081C
:1000A000070200080702000807020008070200080C
:1000B00007020008070200080702000807020008FC
:1000C00007020008070200080702000807020008EC
:1000D00007020008070200080702000807020008DC
:1000E00007020008070200080702000807020008CC
:1000F00007020008070200080702000800000000CD
:1001000000000000070200080000000007020008CD
:1001100007020008000000000702000807020008AC
:10012000070200080702000807020008070200088B
:10013000070200080000000000000000070200089D
:10014000070200080702000800000000000000008D
:10015000000000000000000000000000000000009F
:10016000000000000000000000000000070200087E
:10017000070200080000000000000000000000006E
:10018000000000000702000800000000000000005E
:10019000000000000000000000000000000000005F
:1001A000000000000000000007020008070200082D
:1001B000070200080702000807020008000000000C
:1001C000000000000702000800000000000000001E
:1001D0000702000807020008DFF80CD000F048F81A
:1001E000004800472D180008780400200648804782
:1001F00006480047FEE7FEE7FEE7FEE7FEE7FEE70C
:10020000FEE7FEE7FEE7FEE70D180008D90100084B
:10021000D2B201E000F8012B491EFBD27047002248
:10022000F6E710B513460A4604461946FFF7F0FFF5
:10023000204610BD421C10F8011B0029FBD1801A7A
:10024000704730B50B46014600202022012409E00A
:1002500021FA02F59D4205D303FA02F5491B04FA7F
:1002600002F52844151EA2F10102F1DC30BD0000A8
:100270001CB509480090094801900546009C06E01D
:10028000E06840F0010394E8070098471034AC425E
:10029000F6D3FFF7A5FF00005C1D00087C1D0008D9
:1002A000FEE7000070470000B0B5044600F0F0F82B
:1002B000054640F20000C2F200004068611C18BF11
:1002C000044400BF00F0E4F8401BA042FAD3B0BDE4
:1002D0000A68002A08BF70472DE9F04F82B000F18C
:1002E0003847860546EA972741F20046C4F60006DD
:1002F0000623B04208BF0523052F38BF3B46002424
:100300004FF0010900260027009309E00A68013731
:1003100032FA07F306F1020604F1040400F0B48097
:1003200009FA07FB12EA0B08F0D0D1F804C0BCF1BF
:10033000120F00F2A38009FA0CF212F0061F00F06F
:100340009D8082680323D1F80CA003FA06FE22EAFE
:100350000E020AFA06F52A43826045684FEA1C132A
:1003600025EA0B05BB404FEA47096FEA0E0E2B4307
:100370004360C3688D6803EA0E0305FA09F52B4351
:100380004CF01005122DC36015D16FF0030202EA84
:100390005703034404F01C020F25D3F820C005FACC
:1003A00002FA0D692CEA0A0C05FA02F242EA0C0282
:1003B0001A62D1F804C002680CF0030302EA0E02CC
:1003C00003FA09F31A435FEACC034FF00109026014
:1003D0009CD541F26003C4F202031A6840F2004E59
:1003E00042F001021A601A68C4F2010E02F0010222
:1003F0000192019A27F003024FF6084A7244CFF6A1
:10040000FF7A52F80AC004F00C050F23AB402CEA27
:10041000030C009B03FA05F545EA0C0342F80A3089
:10042000DEF800C04B684CEA0805DA0358BF2CEA36
:100430000805CEF80050DEF804C09A034CEA08051F
:1004400058BF2CEA0805CEF80450DEF808C0DA02DE
:100450004CEA080558BF2CEA080540F20C4CCEF8CF
:100460000850C4F2010CDCF800209B0242EA0805A7
:1004700058BF22EA0805CCF8005047E70322B240F3
:100480006FEA020EB14674E702B0BDE8F04F704764
:1004900040F27000C2F200000068704740F20000B5
:1004A00040F27001C2F20000C2F2000140680A6826
:1004B000104408607047000080B5032000F080F809
:1004C000002000F009F800281CBF012080BD00F0CA
:1004D00029F8002080BD000070B540F20006C2F28D
:1004E00000067168E1B1044640F20800C2F2000063
:1004F0004FF47A720068B2FBF1F1B0FBF1F000F05A
:100500009BFE0F2C4FF0010508D838B94FF0FF3093
:1005100021460022002500F027F83460284670BDEF
:10052000012070BD82B041F25800C4F2020081681F
:1005300041F001018160816801F00101019101999F
:10054000016841F080510160006800F08050009027
:10055000009847F20800C4F20000016841F48041AD
:10056000016002B07047000010B54EF60C5CCEF290
:10057000000CDCF80030C3F3022E8EF00704042CCC
:1005800028BF0424BEF103034FF0FF3E0EFA04F42B
:1005900038BF0023A14399400EFA03F39A43114355
:1005A00000F00F0200F160430901043A03F56443CF
:1005B0006244002848BF02F10C03197010BD00000E
:1005C0004EF60C51CEF200010A684FF6FF031A40B6
:1005D00060F30A2242F0806040F0FD7008607047CE
:1005E000B0F5007F42D0002840F0808047F2140030
:1005F000C4F2000050F8141CC26E01F4C06122F471
:100600008072B1F5806FC2662ED150F8141C0122A1
:1006100062F34A2140F8141C40F20801C2F20001C2
:100620000968322251434DF68362C4F21B32A1FBAA
:100630000212910C0268520511D54A1C0FD00268B3
:1006400052050CD559B10268520508D5012906D0CA
:100650000268520503D50229A1F10401EAD100681C
:10066000400544BF032070470020704747F2140044
:10067000C4F2000050F8141CC26E01F4C06142F4D0
:100680008072B1F5806FC266EED150F8141C012261
:1006900062F34A2140F8141C40F20801C2F2000142
:1006A0000968322251434DF68362C4F21B32A1FB2A
:1006B0000212910C0268520511D54A1C0FD0026833
:1006C00052050CD559B10268520508D5012906D04A
:1006D0000268520503D50229A1F10401EAD100689C
:1006E000400544BF03207047BEE700BF47F2140037
:1006F000C4F2000050F8141C022262F34A2140F8B0
:10070000141C0020704700002DE9F04182B004461F
:10071000807841F288060007C4F2020602D4002065
:100720002FE000BF56F8300C5FEAC0080BD456F833
:10073000300C40F0805046F8300C56F8300C00F089
:1007400080500190019847F20007C4F20007386812
:1007500040F480703860FFF79BFE05463868C0059E
:1007600000F1D680FFF794FE401B0228F6D9032043
:10077000B8F1000F05D456F8301C21F0805146F82E
:10078000301C2168CA0713D18A0719D44A071FD41D
:100790000A0725D48A062BD44A0631D40A0637D450
:1007A000CA053DD48A0543D44A0549D457E000BF61
:1007B0003268636822F003021A4332608A07E5D583
:1007C0003268A36822F00C021A4332604A07DFD570
:1007D0003268E36822F030021A4332600A07D9D542
:1007E0003268236922F0C0021A4332608A06D3D5E8
:1007F0003268636922F440621A4332604A06CDD5FA
:100800003268A36922F440521A4332600A06C7D5FF
:100810003268E36922F440421A433260CA05C1D506
:100820003268236A22F440321A4332608A05BBD50B
:100830003268636A22F440221A4332604A050ED5B8
:100840003268A36A22F440121A43B3F5801F326063
:1008500005D156F87C2C42F4801246F87C2C0A050F
:100860000ED53268E36A22F440021A43B3F5800FD2
:10087000326005D156F87C2C42F4801246F87C2C6C
:10088000CA040ED53268236B22F040721A43B3F1CA
:10089000807F326005D156F87C2C42F4801246F8F5
:1008A0007C2C8A040ED53268636B22F040621A43B6
:1008B000B3F1006F326005D156F87C2C42F48012FF
:1008C00046F87C2C4A040ED53268A36B22F04062B5
:1008D0001A43B3F1006F326005D156F87C2C42F414
:1008E000801246F87C2C09040ED53168E26B21F0A9
:1008F00040511143B2F1805F316005D156F87C1C44
:1009000041F4803146F87C1C02B0BDE8F08100BFA4
:10091000B06810F4407010D0216C88420BD0B068E1
:10092000B16820F4407041F48031B160B16821F4C5
:100930008031B160B060C0070CD1B068216C20F488
:1009400040700843B0600020B8F1000F3FF519AFC8
:1009500011E700BFFFF79CFD054641F2883700BF55
:10096000B0688007E9D4FFF793FD401BB842F7D980
:10097000FDE600002DE9F047002865D042F2000AAC
:10098000C4F2020A0446DAF800000D4600F00F0037
:1009900088420CD2DAF8000020F00F002843CAF891
:1009A0000000DAF8000000F00F00A8424CD12168E6
:1009B00041F20808C807C4F2020803D1880740F1D1
:1009C000D480B9E0606802283AD0032840D158F8B2
:1009D000082C920138D5D8F80420D8F8043042F217
:1009E0000046C3F3031302F00302D8F80470013386
:1009F000C0F2F406032A04BF43F20066C0F26E168A
:100A0000B6FBF3F2D8F80430C7F306277A43C3F3F2
:100A10004163022707EB4303B2FBF3F24BF20043BF
:100A2000C0F2C4439A425DD9D8F8002012F0F00F0A
:100A30004DD0890756D5A168002953D147E000BFA2
:100A400058F8081C890307D40120BDE8F08700BFCF
:100A500058F8081C4905F7D5D8F8001001F00C012A
:100A600004293FD0D8F8001001F00C01082939D032
:100A7000D8F8001001F00C010C2933D1D8F804107B
:100A8000D8F8042042F20047C2F3031201F0030138
:100A9000D8F804300132C0F2F407032904BF43F24E
:100AA0000067C0F26E17B7FBF2F1D8F80420C3F369
:100AB00006235943C2F34162022303EB4202B1FB16
:100AC000F2F14BF20042C0F2C44291420AD9D8F886
:100AD0000010082262F307114FF00109C8F8001056
:100AE00002E000BF4FF00009D8F8001021F0030128
:100AF0000843C8F80000FFF7CBFC064641F28837F0
:100B0000D8F80000616800F00C00B0EB810F07D04E
:100B1000FFF7BEFC801BB842F2D90320BDE8F08786
:100B20002168880708D4B9F1000F1ED0D8F800005A
:100B300020F0F00017E000BF480705D5D8F8000006
:100B400040F4E060C8F80000080706D5D8F80000B7
:100B5000072262F30D20C8F80000D8F80000A26850
:100B600020F0F0001043C8F80000DAF8000000F0B0
:100B70000F00A8421BD9DAF8000020F00F0028432C
:100B8000CAF80000FFF784FC064641F2883700BF30
:100B9000DAF8000000F00F00A84207D0FFF778FC59
:100BA000801BB842F4D90320BDE8F08721684807CC
:100BB00007D5D8F80000E26820F4E0601043C8F8D8
:100BC0000000080708D5D8F80000216920F460501B
:100BD00040EAC100C8F80000D8F8000042F2004125
:100BE000C0F2F40100F00C00042808462DD0D8F81B
:100BF000000000F00C00082843F20060C0F26E1004
:100C000023D0D8F8002002F00C020C2A1CD1D8F80E
:100C10000420D8F8043002F00302C3F30313D8F819
:100C200004700133032A08BF0146B1FBF3F0D8F882
:100C30000410C7F30627C1F341610222784302EB97
:100C40004101B0FBF1F000E00020D8F8001041F6BF
:100C50003252C1F30311C0F60002515C40F20802A7
:100C600001F01F0120FA01F140F20000C2F2000081
:100C70000068C2F200021160BDE8F047FFF72CBC2B
:100C800040F2080041F20801C2F20000C4F2020181
:100C90000068096841F64252C1F30221C0F6000221
:100CA000515C01F01F01C8407047000040F208008D
:100CB00041F20801C2F20000C4F2020100680968B2
:100CC00041F64252C1F3C221C0F60002515C01F06C
:100CD0001F01C8407047000041F20C01C4F202013C
:100CE00051F8040C42F20042C0F2F40200F00C0091
:100CF0000428104608BF704751F8040C00F00C009F
:100D0000082843F20060C0F26E1025D051F8043C70
:100D100003F00C030C2B1CBF0020704780B5D1F8EA
:100D200000C00B680CF0030CC3F3031E0B680EF13C
:100D3000010EBCF1030F08BF02460968B2FBFEF0CA
:100D4000C3F30623C1F341610222584302EB410180
:100D5000B0FBF1F0BDE8804070470000002804BF00
:100D6000012070472DE9F04182B00446007841F23D
:100D70000006C007C4F202061ED1207880073DD4C9
:100D80002078000764D42078400700F1878020781D
:100D9000800600F1D980E069002800F0C581B168C3
:100DA00001F00C010C2940F03181012840F08481D0
:100DB000012002B0BDE8F081B06800F00C01F068DD
:100DC000082961D0032281F00C0122EA00000844C6
:100DD000B0FA80F0400957D16068B0F5803F07D085
:100DE000B0F5A02F40F0E480306840F480203060FF
:100DF000306840F480303060E5E000BFB068F168F2
:100E000000F00C00042871D001F0030180F00C0008
:100E100081F002010844B0FA80F0400966D1E1682F
:100E20003068002900F0E08040F480703060FFF707
:100E30002FFB05463068400500F1FE80FFF728FBD8
:100E4000401B0228F6D9032002B0BDE8F08100BFA4
:100E50006169D6F89400002900F0948040F0010008
:100E6000C6F89400FFF714FB054600BFD6F89400BF
:100E700080073FF588AFFFF70BFB401B0228F5D931
:100E8000032002B0BDE8F081306880037FF575AFC4
:100E9000606800287FF471AF3EE000BFB06D5FEA8C
:100EA000C00808D4B06D40F08050B065B06D00F05F
:100EB00080500190019847F20007C4F2000738689B
:100EC000C0052DD4386840F480703860FFF7E0FA30
:100ED000054600BF3868C00522D4FFF7D9FA401B89
:100EE0000228F7D9032002B0BDE8F0813068400540
:100EF00001D5E06880B17068216920F0FE4040EAC9
:100F00000160706040F20000C2F200000068FFF76C
:100F1000E3FA00283FF434AF012002B0BDE8F081CD
:100F2000A068012808D0052840F0A480D6F89000D9
:100F300040F00400C6F89000D6F8900040F00100A0
:100F4000C6F89000A4E000BFA169D6F89800002977
:100F500000F07A8040F00100C6F89800FFF798FA98
:100F6000054600BFD6F8980080073FF514AFFFF79D
:100F70008FFA401B02284FF00300F3D902B0BDE8FE
:100F8000F08100BF20F00100C6F89400FFF780FA5E
:100F9000054600BFD6F8940080077FF5F4AEFFF752
:100FA00077FA401B0228F5D9032002B0BDE8F08192
:100FB0003168002821F480313160316821F48021CA
:100FC000316000F0CF80FFF763FA05463068800398
:100FD0003FF5D3AEFFF75CFA401B6428F6D9032037
:100FE00002B0BDE8F08100BF20F480703060FFF7F0
:100FF0004FFA0546306840057FF5C2AEFFF748FA64
:10100000401B02284FF00300F4D9B7E731680228EB
:1010100021F08071316040F08B80FFF739FA05468E
:101020003068800140F1CA80FFF732FA401B022885
:101030004FF00300F4D9A1E77068216920F0FE4069
:1010400040EA016070609BE620F00100C6F898005D
:10105000FFF71EFA054600BFD6F8980080077FF517
:101060009AAEFFF715FA401B02284FF00300F3D9A0
:1010700084E700BFD6F89010002821F00101C6F8DF
:101080009010D6F8901021F00401C6F8901079D095
:10109000FFF7FEF9054641F2883700BFD6F8900009
:1010A000800700F18180FFF7F3F9401BB842F5D9C2
:1010B000032002B0BDE8F081F068216A00F003026D
:1010C0008A427FF429AF626A6FF00F0300F0F001EB
:1010D00003EB021291427FF41FAFA16A00F4FE42BB
:1010E000B2EB012F7FF418AFE16A00F07842B2EB67
:1010F000C16F7FF411AF226B0023CFF6E07303EAD8
:10110000025200F4C001A2F5001291427FF404AF34
:10111000616B4FF07E4202EA016100F0C06001F1B4
:101120007E4188427FF4F8AE002002B0BDE8F08135
:10113000F0684FF6FF7120F00300F060F068CFF622
:10114000EE610840F060FFF7A3F9044630688001C3
:10115000EAD5FFF79DF9001B02284FF00300F5D9EF
:101160000CE700BFFFF794F9054600BF3068800325
:101170007FF503AEFFF78CF9401B64284FF00300A6
:10118000F4D9FBE6FFF784F9054641F2883700BF42
:10119000D6F89000800707D5FFF77AF9401BB842D0
:1011A0004FF00300F4D9E9E6B8F1000F3FF5EFADD9
:1011B000B06D20F08050B065E9E500BFF06848F2FE
:1011C0000C01C0F29F1104F1200700EA010C8ECF40
:1011D0006FF00F00D4E90C5400EB02100022CFF6A0
:1011E000E07241EA0C0102EA05520843A2F500123E
:1011F0004FF07E4540EA032005EA0465104305F1FF
:101200007E4540EAC7602843F060306840F0807057
:101210003060F06840F08070F060FFF739F9044604
:10122000306880013FF580AFFFF732F9001B0228DC
:101230004FF00300F4D9A1E6411E0020B0EB116F7E
:101240001CBF012070474EF21002CEF20002516026
:101250004EF62351CEF20001F0230B70072190606F
:101260001160704790F8581001294FF0020111D019
:1012700080F8591002681168136823F001031360A5
:1012800021F00053002141641360012280F85920AD
:1012900080F858100846704790F85820012A4FF0FF
:1012A00002023CD070B580F859200268D0F844C0E2
:1012B000D2F800E01368BCF1000F23F001031360C3
:1012C00093684FF0010C23F0606341EA03019160E1
:1012D00018D091689368C1F34264590F41F64A539C
:1012E000C0F6000341F652565D5CC0F600061B5D79
:1012F000715C345DED00DB00B5FBF1F1B3FBF4F3A1
:1013000002E000BF0121012381874387C2F800E08A
:10131000002280F859C080F85820BDE8704010467F
:101320007047000090F85820012A4FF002023CD08C
:1013300070B580F859200268D0F844C0D2F800E0B7
:101340001368BCF1000F23F00103136093684FF0A2
:10135000010C23F0604341EA0301916018D09168C9
:101360009368C1F34264590F41F64A53C0F6000333
:1013700041F652565D5CC0F600061B5D715C345D43
:10138000ED00DB00B5FBF1F1B3FBF4F302E000BFCD
:101390000121012381874387C2F800E0002280F801
:1013A00059C080F85820BDE87040104670470000D2
:1013B000002804BF0120704770B5064690F8590018
:1013C00028B9002086F85800304600F00FF90220B6
:1013D00086F859003168D6E902EC33690D6846F6A3
:1013E000F31025F001050D6075690A68CCF6FF70F1
:1013F00010404EEA03022A43104340F400400860C4
:10140000306AD6E906234D68104343F60974184341
:10141000A54340EA0C00284340F400604860CA6AD3
:10142000706A44F2004322F00F02C4F20003024348
:101430009942CA621ED044F60002C4F200029142F0
:1014400024D043F60002C4F20102914240F0BC8075
:1014500041F28801C4F20201096801F00301DFE8EA
:1014600001F0032D3B4500BFFFF720FC716A0B29FB
:101470001DD228E041F28801C4F202010968C1F3DB
:101480008101DFE801F00F1B293300BF41F2880121
:10149000C4F202010968C1F30111DFE801F0030F92
:1014A0001D2700BFFFF7ECFB716A0B290BD34FF030
:1014B000010108BF4FF480710BE000BFFFF70CFC87
:1014C000716A0B29F3D241F6F042C0F6000252F8DD
:1014D0002110B0FBF1F11EE00B2811D241F6F041D2
:1014E000C0F6000151F820000FE000BF0B2817D212
:1014F00041F61C51C0F6000131F8100015E000BFA4
:101500004FF0010008BF4FF4807042F20041C0F27A
:10151000F401B1FBF0F17068490042080CE000BF33
:101520004FF0010008BF4FF480704FF40041B1FB51
:10153000F0F170684A0041081144B1FBF0F04FF639
:10154000F071A0F110028A423ED20140C0F3420085
:1015500032680844D0604FF00110C6F83A0000200D
:10156000C6E91200516821F480415160916821F070
:101570002A019160116841F001011160F065FEF7E8
:1015800087FF316805460A68120711D408684007CA
:101590000CD5C869400209D4FEF77AFF401BB0F5AC
:1015A0007A7F1BD83068C0694002F5D5002016E06C
:1015B000C8698002EAD4FEF76BFF401BB0F57A7F62
:1015C0000CD83168F4E700BF4FF00110C6F83A00BC
:1015D0000020C6E91200012070BD00BF03200121D8
:1015E00086F85910002186F8581070BD006843F63F
:1015F0000001C4F20101884218BF704780B586B06F
:1016000041F24C00C4F20200416941F48041416161
:10161000416901F4804101910199016841F00101A2
:101620000160006801A900F00100019001984FF4E9
:10163000E0600190022002900020CDE90300072025
:1016400005904FF09040FEF743FE06B0BDE88040A5
:10165000704700002DE9F041044690F85900012838
:101660000ED10D4600294FF0010000F0C080164653
:10167000002A08BFBDE8F08194F85800012803D182
:101680000220BDE8F08100BF012084F8580000204E
:10169000E0651220984684F85900FEF7F9FEA68509
:1016A000E685A1680646B1F5805F02D12069002871
:1016B00060D02F460025E08D00285FD018F1010092
:1016C00034D0B8F1000F07D1206826E0FEF7E0FE25
:1016D000801B404500F284802068C1690906F5D569
:1016E00017B117F8011B04E035F8021B00276FF350
:1016F0005F218162E18D0139E185E18D0029ECD125
:1017000034E000BF35F8021B00276FF35F218162D0
:10171000E18D0139E185E18D41B3C16909065DD5EE
:10172000002FEFD017F8011BF1E700BF206802E09F
:10173000C169090609D4C169090606D4C169090647
:101740005CBFC1695FEA0161F2D51FB117F8011BE7
:1017500005E000BF35F8021B00276FF35F218162AF
:10176000E18D0139E185E18D0029E4D1C1694906A6
:1017700008D51AE00027E08D00289FD12068C169B4
:10178000490612D4B8F1000F28D018F101011FD179
:10179000C169490609D4C16949065CBFC1695FEAEC
:1017A000416102D4C1694906F2D540210162082194
:1017B0000162816941F008018161816941F0100194
:1017C000816100200DE000BF2068C1694906ECD4AA
:1017D000FEF75EFE801B4045F6D901E0FEF758FE9D
:1017E0000320012184F85910002184F85810BDE825
:1017F000F0810000FEE70000FEE7000070470000F7
:101800007047000070470000FEF748BE4EF6885053
:10181000CEF20000016841F4700101604FF00061F8
:1018200040F8801C70470000FEE70000A4B0FEF7FF
:1018300043FE6D46002405F108003C21CDE91B4420
:10184000CDE91944CDE91744FEF7E9FC4FF40070E7
:10185000FEF7C6FE4FF480711991402102201A91C3
:1018600014211690CDE91D001F90CDE92010CDE97F
:10187000220016A8FFF772FA0F2011900320CDE97D
:10188000120411A80321CDE91444FFF773F80120D5
:10189000CDE900042846FEF737FF41F24C00C4F2C0
:1018A0000200016840F2100841F020010160016867
:1018B000C2F2000801F0200100910099016808229D
:1018C00041F00101016000684FF4165100F0010081
:1018D0000090009843F60000C4F2010088E813006D
:1018E0004046C8F84040C8E90344C8E90524C8E9AF
:1018F0000744C8F82440FFF75BFD40460021FFF78E
:1019000011FD40460021FFF7C7FC4046FFF7AAFC47
:101910000DA742F2107600BF28463946224600F055
:101920001DF82846FEF786FC82B24046294632233F
:10193000FFF790FE4FF4FA70FEF7B6FC601C841BB4
:1019400018BF0446E8E700BF253034643A48656CA8
:101950006C6F2C776F726C642E0D0A000FB4084BFD
:1019600010B504A902AA039800F01CF8044602A9C5
:10197000002000F0B8F9204610BC5DF814FB000010
:10198000E71C000802E008C8121F08C1002AFAD1AB
:1019900070477047002001E001C1121F002AFBD1EF
:1019A000704700002DE9FF4F8BB0884605460026A2
:1019B00006E025280BD0DDE90D1290476D1C761C42
:1019C00028780028F5D10FB03046BDE8F08F00240C
:1019D000A146A2460122AE4900E0044315F8013FAA
:1019E000203B02FA03F00842F7D128782A2810D0C9
:1019F0006FF02F022878A0F13001092915D809EBE2
:101A0000890102EB410144F0020400EB01096D1C65
:101A1000F0E758F8041B5FEA010903D544F40054C9
:101A2000C9F1000944F002046D1C28782E2817D152
:101A300015F8010F44F004042A280ED06FF02F028D
:101A40002878A0F1300109290AD80AEB8A0102EBB3
:101A5000410100EB010A6D1CF2E758F804AB6D1C64
:101A600028786C280FD006DC4C2817D068280DD0B9
:101A70006A2814D104E0742810D07A280FD10DE020
:101A800044F400140AE044F4801401E044F44014E7
:101A90006978814202D104F580146D1C6D1C287890
:101AA000692865D006DC00288DD0632827D06428FB
:101AB00006D15DE06E2808D073282AD0752877D02B
:101AC000DDE90D129047761CE0E0C4F302500228D5
:101AD00009D003280DD0D8F8001004280DD00E60CE
:101AE00008F10408D2E0D8F80010F217C1E900624A
:101AF000F6E7D8F800100E80F2E70E70F0E718F85D
:101B0000041B8DF8001000208DF80100EB46012029
:101B100003E058F804BB4FF0FF3061074FF00007B7
:101B200001D40AE07F1C57450DDA8742FADB1BF827
:101B300007100029F6D106E07F1C8742FCDB1BF86A
:101B400007100029F8D1DDE90D23A9EB0700814634
:101B5000214600F0B1F83044C61904E0DDE90D1269
:101B60001BF8010B90477F1EF8D22146484688E0BB
:101B700058F8040BC4F302514FF00A0B032900D1AB
:101B800000B2042900D140B2002802DA40422D21DF
:101B900002E0210505D52B218DF82410012104E058
:101BA00006E0E10710D02021F6E708AF089113E026
:101BB00058F8040BC4F302514FF00A0B032900D16B
:101BC00080B2042900D1C0B20021EEE75946FEF7E9
:101BD00038FB303107F8011D0028F7D1ADEB0700C5
:101BE00000F1200B600702D524F4803401E04FF0AF
:101BF000010ADA4502DDAAEB0B0000E00020824674
:101C000000EB0B0108980144A9EB01000A90E003E6
:101C100006D4DDE90D2321460A9800F04DF806446C
:101C20004FF0000908E009A911F80900DDE90D12DB
:101C3000904709F10109761C08998945F3DBE00317
:101C40000CD5DDE90D2321460A9800F035F806444D
:101C500004E0DDE90D1230209047761CBAF1000156
:101C6000AAF1010AF5DC05E0DDE90D1217F8010B18
:101C70009047761CBBF10001ABF1010BF4DC0A9834
:101C80002146DDE90D2300F005F806446D1C97E6BA
:101C9000092801002DE9F041044600251E4617469B
:101CA000880404D405E039462020B0476D1C641E2A
:101CB000F9D52846BDE8F0812DE9F041044600251C
:101CC0001E469046C80301D5302700E0202788042F
:101CD00004D505E041463846B0476D1C641EF9D571
:101CE0002846BDE8F0810A68531C0B6010707047ED
:101CF00001000000020000000400000006000000D7
:101D0000080000000A0000000C00000010000000A5
:101D100020000000400000008000000001000200E0
:101D20000400060008000A000C001000200040001B
:101D3000800000000000000000000102030406070C
:101D4000080900000000010203040101010307016A
:101D5000000008040204080101010000801D0008C1
:101D6000000000201000000084190008901D0008E9
:101D70001000002068040000941900080000000012
:101D800010000000010000000024F400000000002A
:04000005080001D915
:00000001FF
