:020000040800F2
:10000000E8050020ED0100082137000899290008C3
:100010001D37000831030008D5610008000000000A
:100020000000000000000000000000003157000840
:100030009503000800000000253700083557000828
:10004000070200080702000807020008070200086C
:10005000070200080702000807020008070200085C
:10006000070200080702000807020008070200084C
:10007000070200080702000807020008070200083C
:10008000070200080000000007020008070200083D
:10009000070200080702000807020008070200081C
:1000A000070200080702000807020008070200080C
:1000B00007020008555700086157000807020008AA
:1000C00007020008070200080702000807020008EC
:1000D00007020008C96100080702000807020008BB
:1000E00007020008070200080702000807020008CC
:1000F00007020008070200080702000800000000CD
:1001000000000000070200080000000007020008CD
:1001100007020008000000000702000807020008AC
:10012000070200080702000807020008070200088B
:10013000070200080000000000000000070200089D
:10014000070200080702000800000000000000008D
:10015000000000000000000000000000000000009F
:10016000000000000000000000000000070200087E
:10017000070200080000000000000000000000006E
:10018000000000000702000800000000000000005E
:10019000000000000000000000000000000000005F
:1001A000000000000000000007020008070200082D
:1001B000070200080702000807020008000000000C
:1001C000000000000702000800000000000000001E
:1001D0000702000807020008DFF80CD000F090F8D2
:1001E00000480047D9610008E8050020064880471C
:1001F00006480047FEE7FEE7FEE7FEE7FEE7FEE70C
:10020000FEE7FEE7FEE7FEE739570008D9010008E0
:100210002DE9F05F0546002092469B46884606463B
:10022000814640241BE0284641464746224600F0CE
:1002300057F853465A46C01A914110D311461846F2
:10024000224600F03EF82D1A67EB01084F46224681
:100250000120002100F035F817EB00094E41201E67
:10026000A4F10104DFDC484631462A464346BDE896
:10027000F09FD2B201E000F8012B491EFBD270477B
:100280000022F6E710B513460A4604461946FFF762
:10029000F0FF204610BD30B50B460146002020225D
:1002A000012409E021FA02F59D4205D303FA02F583
:1002B000491B04FA02F52844151EA2F10102F1DCE3
:1002C00030BD202A04DB203A00FA02F100207047FA
:1002D0009140C2F1200320FA03F319439040704784
:1002E000202A04DB203A21FA02F00021704721FA8B
:1002F00002F3D040C2F120029140084319467047F2
:100300001CB509480090094801900546009C06E08C
:10031000E06840F0010394E8070098471034AC42CD
:10032000F6D3FFF75DFF0000FC7700081C7800089B
:10033000FEE7000010B540F60044C4F60004024693
:10034000A4F580604FF47F4100F0CCFA20460421F0
:10035000012200F0C7FA204604210022BDE8104027
:1003600000F0C0BA10B540F60044C4F60004A4F58D
:1003700080630A460102184600F0B4FA20460421C0
:10038000012200F0AFFA204604210022BDE810400F
:1003900000F0A8BA7047000010B546A140F2C4149E
:1003A000D1E90123D1E9030EC2F20004C4E902300D
:1003B000087DDFF800C1207518202146C4E900C27D
:1003C000C4F810E002F0ECFC40F21000C2F20000B1
:1003D00090F90020501C07D040F2C410C2F2000077
:1003E0003AA105F0CFFF0EE03EA1D1E90123D1E90A
:1003F000030EDFF8F0C0C4E90230087DC4E900C292
:10040000C4F810E0207540F2C414C2F20004482081
:10041000214602F0C5FC40F21100C2F2000090F942
:100420000020501C08D040F2C410C2F2000033A1DA
:1004300005F0A8FF0FE000BF36A1D1E90123D1E903
:10044000030EDFF8D0C0C4E90230087DC4E900C261
:10045000C4F810E0207540F2C414C2F20004602019
:10046000214602F09DFC40F21200C2F2000090F919
:100470000020501C08D040F2C410C2F200002BA192
:1004800005F080FF0CE000BF47F2CC70C0F6000022
:1004900090E80E50007D84E80E10C4F810E020753E
:1004A00040F2C411C2F200017820BDE8104002F011
:1004B00077BC00BF20202020202020505344202043
:1004C00020202020202020200000000020202020AC
:1004D00042313A2564202020202020202020202086
:1004E000202000002020202042313A4020202020DF
:1004F000202020202020202000000000202020207C
:1005000042323A2564202020202020202020202054
:10051000202000002020202042323A4020202020AD
:10052000202020202020202000000000202020204B
:1005300042333A2564202020202020202020202023
:1005400020200000002808BFFFF726BF10B547F2A3
:10055000E470C0F6000090E80E5040F2C414007D34
:10056000C2F2000484E80E10207518202146C4F859
:1005700010E002F015FC40F21800C2F20000028800
:1005800047F27871C0F60001204605F0FBFE4820D6
:10059000214602F005FC40F21600C2F2000002788B
:1005A00047F29071C0F60001204605F0EBFE602096
:1005B000214602F0F5FB47F2B470C0F6000090E867
:1005C0000E50007D84E80E00C4F80CC02075782021
:1005D0002146C4F810E0BDE8104002F0E1BB000085
:1005E000B0B540F2B410C2F20000007801281DD16D
:1005F00040F2600040F60044C2F200000021C4F660
:1006000000040180A4F580604FF47F41012200F0D6
:1006100069F920460421012200F064F920460421F2
:10062000002200F05FF9012000212BE0A0BB40F286
:100630006400C2F200000078032838BFB0BD40F269
:100640006000C2F20000002140F2C11540F60044F3
:100650000180C2F200050120C4F600042870A4F550
:1006600080604FF47F41012200F03CF920460421D4
:10067000012200F037F920460421002200F032F96F
:1006800029780220FFF76EFE40F2A800C2F20000B7
:10069000BDE8B04001F0DCB8B0BD0000704700001C
:1006A00090F82510022931D180B50168D0E910CE2B
:1006B000826C0B6823F00E030B600B6823F00103C0
:1006C0000B60116821F4807111600EF01F0201218E
:1006D00001FA02F2CCF80420D0E913325A60426DDC
:1006E00032B1136823F480731360D0E9162353608A
:1006F00080F82510826B002180F824100AB1904701
:100700000021BDE880400846704700BF0421C16356
:100710000121002280F8251080F824200846704727
:10072000B0B5044600F0E4F8054640F20000C2F21D
:1007300000004068611C18BF044400BF00F0D8F8F6
:10074000401BA042FAD3B0BD0A68002A08BF704718
:100750002DE9F04F82B041F2004500F1384786059F
:10076000C4F60005062340F2004E46EA9724A8424C
:1007700008BF0523C4F2010E052C38BF2346002410
:100780004FF0010B00260027009309E00A680137AB
:1007900032FA07F306F1040604F1020400F098802F
:1007A0000BFA07F912EA0908F0D04A6842F010057E
:1007B000122D13D16FF0030202EA57020244D2F85D
:1007C00020A006F01C030F25D1F810C09D402AEA96
:1007D00005050CFA03F32B4313624A6803680325EB
:1007E000A5406FEA050AAB4302F00305A5402B4381
:1007F000122A036012D80BFA02F313F0061F0DD071
:100800008368CD6803EA0A03A5402B4383604368ED
:10081000150923EA0903BD402B434360C3688D6873
:1008200003EA0A03A5402B43D200C360AED541F2D0
:100830006003C4F202031A684FF6084942F001024D
:100840001A601A68CFF6FF7902F001020192019A4C
:1008500027F00302724452F809C006F00C050F237A
:10086000AB402CEA030C009B03FA05F545EA0C03A8
:1008700042F80930DEF800C04B684CEA0805DA039C
:1008800058BF2CEA0805CEF80050DEF804C09A03E1
:100890004CEA080558BF2CEA0805CEF80450DEF8EB
:1008A00008C0DA024CEA080558BF2CEA080540F2F5
:1008B0000C4CCEF80850C4F2010CDCF800209B026E
:1008C00042EA080558BF22EA0805CCF800505DE767
:1008D00002B0BDE8F04F70470069084018BF012022
:1008E000704700001823002A08BF2823C150704712
:1008F00040F2E410C2F200000068704740F20000CD
:1009000040F2E411C2F20000C2F2000140680A683D
:10091000104408607047000080B5032000F092F892
:10092000002000F009F800281CBF012080BD00F065
:1009300029F8002080BD000070B540F20006C2F228
:1009400000067168E1B1044640F20C00C2F20000FA
:100950004FF47A720068B2FBF1F1B0FBF1F000F0F5
:10096000ADFE0F2C4FF0010508D838B94FF0FF301D
:1009700021460022002500F039F83460284670BD79
:10098000012070BD82B041F25800C4F202008168BB
:1009900041F001018160816801F00101019101993B
:1009A000016841F080510160006800F080500090C3
:1009B000009847F20800C4F20000016821F4804169
:1009C000016002B070470000002848BF704700F087
:1009D0001F01012202FA01F11C2202EAD0004EF2AC
:1009E0000012CEF2000281507047000010B54EF6A2
:1009F0000C5CCEF2000CDCF80030C3F3022E8EF05B
:100A00000704042C28BF0424BEF103034FF0FF3E6B
:100A10000EFA04F438BF0023A14399400EFA03F301
:100A20009A43114300F00F0200F160430901043AB8
:100A300003F564436244002848BF02F10C031970B7
:100A400010BD00004EF60C51CEF200010A684FF6C0
:100A5000FF031A4060F30A2242F0806040F0FD700C
:100A600008607047B0F5007F42D0002840F08080D9
:100A700047F21400C4F2000050F8141CC26E01F4D6
:100A8000C06122F48072B1F5806FC2662ED150F839
:100A9000141C012262F34A2140F8141C40F20C019C
:100AA000C2F200010968322251434DF68362C4F25A
:100AB0001B32A1FB0212910C0268520511D54A1C8F
:100AC0000FD0026852050CD559B10268520508D5FD
:100AD000012906D00268520503D50229A1F10401BB
:100AE000EAD10068400544BF0320704700207047EA
:100AF00047F21400C4F2000050F8141CC26E01F456
:100B0000C06142F48072B1F5806FC266EED150F8D8
:100B1000141C012262F34A2140F8141C40F20C011B
:100B2000C2F200010968322251434DF68362C4F2D9
:100B30001B32A1FB0212910C0268520511D54A1C0E
:100B40000FD0026852050CD559B10268520508D57C
:100B5000012906D00268520503D50229A1F104013A
:100B6000EAD10068400544BF03207047BEE700BFDC
:100B700047F21400C4F2000050F8141C022262F381
:100B80004A2140F8141C0020704700002DE9F04174
:100B900082B00446807841F288060007C4F202065B
:100BA00002D400202FE000BF56F8300C5FEAC008E6
:100BB0000BD456F8300C40F0805046F8300C56F804
:100BC000300C00F080500190019847F20007C4F209
:100BD0000007386840F480703860FFF789FE0546EA
:100BE0003868C00500F1D680FFF782FE401B02285E
:100BF000F6D90320B8F1000F05D456F8301C21F0C7
:100C0000805146F8301C2168CA0713D18A0719D4CD
:100C10004A071FD40A0725D48A062BD44A0631D4A2
:100C20000A0637D4CA053DD48A0543D44A0549D4B7
:100C300057E000BF3268636822F003021A43326053
:100C40008A07E5D53268A36822F00C021A433260A5
:100C50004A07DFD53268E36822F030021A43326077
:100C60000A07D9D53268236922F0C0021A433260DC
:100C70008A06D3D53268636922F440621A4332602F
:100C80004A06CDD53268A36922F440521A43326035
:100C90000A06C7D53268E36922F440421A4332603B
:100CA000CA05C1D53268236A22F440321A43326041
:100CB0008A05BBD53268636A22F440221A43326047
:100CC0004A050ED53268A36A22F440121A43B3F5DE
:100CD000801F326005D156F87C2C42F4801246F811
:100CE0007C2C0A050ED53268E36A22F440021A43CE
:100CF000B3F5800F326005D156F87C2C42F4801297
:100D000046F87C2CCA040ED53268236B22F0407260
:100D10001A43B3F1807F326005D156F87C2C42F43F
:100D2000801246F87C2C8A040ED53268636B22F060
:100D300040621A43B3F1006F326005D156F87C2C43
:100D400042F4801246F87C2C4A040ED53268A36B1C
:100D500022F040621A43B3F1006F326005D156F8B9
:100D60007C2C42F4801246F87C2C09040ED53168A4
:100D7000E26B21F040511143B2F1805F316005D147
:100D800056F87C1C41F4803146F87C1C02B0BDE86A
:100D9000F08100BFB06810F4407010D0216C884220
:100DA0000BD0B068B16820F4407041F48031B1607C
:100DB000B16821F48031B160B060C0070CD1B06877
:100DC000216C20F440700843B0600020B8F1000F9F
:100DD0003FF519AF11E700BFFFF78AFD054641F265
:100DE000883700BFB0688007E9D4FFF781FD401B5A
:100DF000B842F7D9FDE600002DE9F047002865D09C
:100E000042F2000AC4F2020A0446DAF800000D4673
:100E100000F00F0088420CD2DAF8000020F00F003A
:100E20002843CAF80000DAF8000000F00F00A842DA
:100E30004CD1216841F20808C807C4F2020803D166
:100E4000880740F1D480B9E0606802283AD00328CE
:100E500040D158F8082C920138D5D8F80420D8F899
:100E6000043042F20046C3F3031302F00302D8F841
:100E700004700133C0F2F406032A04BF43F2006693
:100E8000C0F26E16B6FBF3F2D8F80430C7F30627AB
:100E90007A43C3F34163022707EB4303B2FBF3F248
:100EA0004BF20043C0F2C4439A425DD9D8F8002007
:100EB00012F0F00F4DD0890756D5A168002953D103
:100EC00047E000BF58F8081C890307D40120BDE89B
:100ED000F08700BF58F8081C4905F7D5D8F800106E
:100EE00001F00C0104293FD0D8F8001001F00C01EA
:100EF000082939D0D8F8001001F00C010C2933D1A1
:100F0000D8F80410D8F8042042F20047C2F30312C4
:100F100001F00301D8F804300132C0F2F4070329CC
:100F200004BF43F20067C0F26E17B7FBF2F1D8F8C6
:100F30000420C3F306235943C2F34162022303EBA7
:100F40004202B1FBF2F14BF20042C0F2C4429142C4
:100F50000AD9D8F80010082262F307114FF00109EE
:100F6000C8F8001002E000BF4FF00009D8F80010E8
:100F700021F003010843C8F80000FFF7B9FC06465A
:100F800041F28837D8F80000616800F00C00B0EB3F
:100F9000810F07D0FFF7ACFC801BB842F2D90320C9
:100FA000BDE8F0872168880708D4B9F1000F1ED08A
:100FB000D8F8000020F0F00017E000BF480705D582
:100FC000D8F8000040F4E060C8F80000080706D533
:100FD000D8F80000072262F30D20C8F80000D8F806
:100FE0000000A26820F0F0001043C8F80000DAF812
:100FF000000000F00F00A8421BD9DAF8000020F032
:101000000F002843CAF80000FFF772FC064641F2C1
:10101000883700BFDAF8000000F00F00A84207D0C0
:10102000FFF766FC801BB842F4D90320BDE8F087C7
:101030002168480707D5D8F80000E26820F4E0608E
:101040001043C8F80000080708D5D8F80000216947
:1010500020F4605040EAC100C8F80000D8F8000051
:1010600042F20041C0F2F40100F00C0004280846EE
:101070002DD0D8F8000000F00C00082843F20060E2
:10108000C0F26E1023D0D8F8002002F00C020C2A17
:101090001CD1D8F80420D8F8043002F00302C3F3BE
:1010A0000313D8F804700133032A08BF0146B1FBCB
:1010B000F3F0D8F80410C7F30627C1F34161022208
:1010C000784302EB4101B0FBF1F000E00020D8F8DA
:1010D000001046F26E52C1F30311C0F60002515CDB
:1010E00040F20C0201F01F0120FA01F140F2000071
:1010F000C2F200000068C2F200021160BDE8F047D1
:10110000FFF71ABC40F20C0041F20801C2F20000E5
:10111000C4F202010068096846F27E52C1F302215E
:10112000C0F60002515C01F01F01C840704700008A
:1011300040F20C0041F20801C2F20000C4F20201C8
:101140000068096846F27E52C1F3C221C0F600026F
:10115000515C01F01F01C8407047000041F20C01D2
:10116000C4F2020151F8040C42F20042C0F2F4024F
:1011700000F00C000428104608BF704751F8040C1A
:1011800000F00C00082843F20060C0F26E1025D079
:1011900051F8043C03F00C030C2B1CBF00207047DB
:1011A00080B5D1F800C00B680CF0030CC3F3031E2C
:1011B0000B680EF1010EBCF1030F08BF024609686F
:1011C000B2FBFEF0C3F30623C1F341610222584390
:1011D00002EB4101B0FBF1F0BDE880407047000038
:1011E000002804BF012070472DE9F04182B0044679
:1011F000007841F20006C007C4F202061ED1207832
:1012000080073DD42078000764D42078400700F19F
:1012100087802078800600F1D980E069002800F0FE
:10122000C581B16801F00C010C2940F03181012821
:1012300040F08481012002B0BDE8F081B06800F088
:101240000C01F068082961D0032281F00C0122EA28
:1012500000000844B0FA80F0400957D16068B0F54A
:10126000803F07D0B0F5A02F40F0E480306840F414
:1012700080203060306840F480303060E5E000BFAE
:10128000B068F16800F00C00042871D001F003018F
:1012900080F00C0081F002010844B0FA80F04009AF
:1012A00066D1E1683068002900F0E08040F4807089
:1012B0003060FFF71DFB05463068400500F1FE80F9
:1012C000FFF716FB401B0228F6D9032002B0BDE849
:1012D000F08100BF6169D6F89400002900F0948085
:1012E00040F00100C6F89400FFF702FB054600BF7E
:1012F000D6F8940080073FF588AFFFF7F9FA401B56
:101300000228F5D9032002B0BDE8F08130688003DF
:101310007FF575AF606800287FF471AF3EE000BFD5
:10132000B06D5FEAC00808D4B06D40F08050B06581
:10133000B06D00F080500190019847F20007C4F2B0
:1013400000073868C0052DD4386840F480703860D4
:10135000FFF7CEFA054600BF3868C00522D4FFF774
:10136000C7FA401B0228F7D9032002B0BDE8F0817C
:101370003068400501D5E06880B17068216920F0CF
:10138000FE4040EA0160706040F20000C2F20000DE
:101390000068FFF7D1FA00283FF434AF012002B013
:1013A000BDE8F081A068012808D0052840F0A4809D
:1013B000D6F8900040F00400C6F89000D6F89000EF
:1013C00040F00100C6F89000A4E000BFA169D6F883
:1013D0009800002900F07A8040F00100C6F89800DB
:1013E000FFF786FA054600BFD6F8980080073FF55C
:1013F00014AFFFF77DFA401B02284FF00300F3D92A
:1014000002B0BDE8F08100BF20F00100C6F89400F2
:10141000FFF76EFA054600BFD6F8940080077FF507
:10142000F4AEFFF765FA401B0228F5D9032002B09D
:10143000BDE8F0813168002821F4803131603168E5
:1014400021F48021316000F0CF80FFF751FA05468A
:10145000306880033FF5D3AEFFF74AFA401B64289B
:10146000F6D9032002B0BDE8F08100BF20F48070FF
:101470003060FFF73DFA0546306840057FF5C2AEA3
:10148000FFF736FA401B02284FF00300F4D9B7E704
:101490003168022821F08071316040F08B80FFF7C5
:1014A00027FA05463068800140F1CA80FFF720FA2C
:1014B000401B02284FF00300F4D9A1E770682169AE
:1014C00020F0FE4040EA016070609BE620F00100E1
:1014D000C6F89800FFF70CFA054600BFD6F898004A
:1014E00080077FF59AAEFFF703FA401B02284FF002
:1014F0000300F3D984E700BFD6F89010002821F04C
:101500000101C6F89010D6F8901021F00401C6F839
:10151000901079D0FFF7ECF9054641F2883700BF0B
:10152000D6F89000800700F18180FFF7E1F9401BB9
:10153000B842F5D9032002B0BDE8F081F068216A15
:1015400000F003028A427FF429AF626A6FF00F0352
:1015500000F0F00103EB021291427FF41FAFA16A89
:1015600000F4FE42B2EB012F7FF418AFE16A00F005
:101570007842B2EBC16F7FF411AF226B0023CFF63C
:10158000E07303EA025200F4C001A2F50012914296
:101590007FF404AF616B4FF07E4202EA016100F01C
:1015A000C06001F17E4188427FF4F8AE002002B0B5
:1015B000BDE8F081F0684FF6FF7120F00300F060A5
:1015C000F068CFF6EE610840F060FFF791F904464D
:1015D00030688001EAD5FFF78BF9001B02284FF035
:1015E0000300F5D90CE700BFFFF782F9054600BFFD
:1015F000306880037FF503AEFFF77AF9401B64285B
:101600004FF00300F4D9FBE6FFF772F9054641F20B
:10161000883700BFD6F89000800707D5FFF768F934
:10162000401BB8424FF00300F4D9E9E6B8F1000FCF
:101630003FF5EFADB06D20F08050B065E9E500BF3B
:10164000F06848F20C01C0F29F1104F1200700EA93
:10165000010C8ECF6FF00F00D4E90C5400EB021098
:101660000022CFF6E07241EA0C0102EA055208437B
:10167000A2F500124FF07E4540EA032005EA04651A
:10168000104305F17E4540EAC7602843F0603068AA
:1016900040F080703060F06840F08070F060FFF7DC
:1016A00027F90446306880013FF580AFFFF720F945
:1016B000001B02284FF00300F4D9A1E6411E0020D0
:1016C000B0EB116F1CBF012070474EF21002CEF23A
:1016D000000251604EF62351CEF20001F0230B7050
:1016E000072190601160704770470000704700004C
:1016F000704700007047000070470000704700000E
:1017000090F83C20012A4FF002022ED010B580F84C
:101710003D20026843F20043D2F804E0D2F808C04A
:10172000C4F201039A4205D042F60043C4F2010319
:101730009A4204D14C682EF4700344EA030E4FF62B
:101740008F73CFF6FF530C6803EA0E0389682343B7
:101750002CF080042143536091600121002280F825
:101760003D1080F83C20BDE8104010467047000056
:1017700070470000002804BF0120704710B50446E0
:1017800090F83D0028B9002084F83C00204600F085
:101790000DF8022084F83D002068211D03F0E6FFCB
:1017A000012084F83D00002010BD000080B584B009
:1017B000006840F60001C4F20001884218D040F2EF
:1017C0000041C4F2000188422AD0B0F1804F0CD110
:1017D00041F25800C4F20200016841F001010160C9
:1017E000006800F001000390039804B080BD00BFC2
:1017F00041F25800C4F202000168002241F00401E5
:1018000001600068002100F00400019001981E2092
:10181000FFF7ECF81E2004B0BDE88040FFF7D4B815
:1018200041F25800C4F202000168002241F00201B6
:1018300001600068002100F00200029002981D2063
:10184000FFF7D4F81D2004B0BDE88040FFF7BCB816
:1018500000680722C168C0F2010241F00101C160C5
:1018600081681140062902D0B1F5803F02D10020E5
:10187000704700BF016841F001010160002070471E
:101880000146022081F83D00086841F21113026A06
:101890001A4205D00122002081F83D20704700BF88
:1018A000026A44F244431A42F4D1026822F001026F
:1018B00002600122002081F83D20704790F83C2012
:1018C000012A4FF0020200F0B78080B580F83D2079
:1018D000D0F800C08822DCF80830CFF6CE721A406B
:1018E000CCF808200B686F2B22DD2F22C0F21002EB
:1018F000934247DCB3F1101F56DA702B00F0C08022
:10190000B3F5005F40F09080D1E901E3C968DCF8ED
:10191000082043EA0E0322F47F4243EA01211143E7
:10192000CCF80810DCF8081041F480417AE000BFE0
:101930002F2B33DD4F2B3BDC302B69D0402B73D169
:10194000D1F804E0C968DCF82030DCF8202022F06F
:101950000102CCF82020DCF8182022F0F00242EA44
:10196000011123F00A0242EA0E02CCF81810CCF85A
:101970002020DCF808104FF68872CFF6CF721140A5
:1019800047314FE05F21C0F210018B4236DC30213D
:10199000C0F210018B423BD0402135E0C3B3102B85
:1019A00036D0202B34D03FE032D020212CE000BFB5
:1019B000502B43D0602B37D1D1F804E0C968DCF854
:1019C000203023F01003CCF82030DCF81830DCF89D
:1019D000202023F4704322F0A00243EA013142EABE
:1019E0000E12CCF81810CCF82020DCF808104FF6B6
:1019F0008872CFF6CF721140673113E06021C0F2D8
:101A000010018B4204D07021C0F210018B420BD127
:101A1000DCF808104FF68872CFF6CF7211401943E8
:101A200041F00701CCF808100121002280F83D1098
:101A300080F83C20BDE8804010467047D1F804E0B3
:101A4000C968DCF82030DCF8202022F00102CCF854
:101A50002020DCF8182022F0F00242EA011123F0E5
:101A60000A0242EA0E02CCF81810CCF82020DCF86A
:101A700008104FF68872CFF6CF7211405731D1E778
:101A8000D1E901E3C968DCF8082043EA0E0322F437
:101A90007F4243EA01211143CCF80810DCF808101A
:101AA00041F07701BEE700007047000010B5016803
:101AB00004460869800744BFC8685FEA807061D443
:101AC0000869400744BFC8685FEA407066D4086987
:101AD000000744BFC8685FEA00706DD40869C0069B
:101AE00044BFC8685FEAC06072D40869C0071CBF01
:101AF000C8685FEAC07079D10869000644BFC86849
:101B00005FEA00607AD40869C00544BFC8685FEA2C
:101B1000006000F17B800869400644BFC8685FEA46
:101B2000406000F17B800869800644BFC8685FEAB6
:101B3000806000F17B800869C00244BFC8685FEA2A
:101B4000C02000F17B800869800244BFC8685FEA5A
:101B5000802000F17B800869400244BFC8685FEACA
:101B6000402000F17B800869000246BFC8685FEA38
:101B7000002010BD6FF4000220460A61BDE810404D
:101B8000FFF7F6BD6FF00200086101202077886939
:101B900080076BD02046FFF787FF6DE06FF00400F1
:101BA000086102202077886910F4407F68D02046C1
:101BB000FFF77AFF6AE000BF6FF0080008610420B9
:101BC0002077C869800765D02046FFF76DFF67E082
:101BD0006FF01000086108202077C86910F4407F7A
:101BE00062D02046FFF760FF64E000BF6FF00100A5
:101BF0000861204600F0AAFA21687DE76FF08000B6
:101C000008612046FFF772FD21687CE76FF4807061
:101C100008612046FFF768FD21687CE76FF040000F
:101C20000861204600F0AAFB21687CE76FF02000E5
:101C300008612046FFF75CFD21687CE76FF48010A7
:101C400008612046FFF758FD21687CE76FF400101B
:101C500008612046FFF74EFD21687CE76FF48000A5
:101C600008612046FFF74AFD21687CE7204600F026
:101C700025F8204600F02EFA2168002020771FE783
:101C8000204600F01BF8204600F024FA21680020CE
:101C900020771CE7204600F011F8204600F01AFAE1
:101CA00021680020207719E7204600F007F8204639
:101CB00000F010FA21680020207716E77047000036
:101CC00090F83C30012B4FF0020300F0E2814FEA24
:101CD000B202052A80F83D3000F2D5812DE9F041AD
:101CE000DFE812F006005400A800FC0050018E014D
:101CF00003681A6AA3F1804622F001021A621D6A83
:101D00001A46A6F596369F05D3F804C052F818EF88
:101D100047EA96268F68D1F8008025F00205072E45
:101D200045EA07050AD80127B74017F0E50F1FBF9E
:101D3000CF6825F00C0527F004073D43072E0CD88B
:101D4000012707FA06F616F0E50F1FBFD1E9056770
:101D50002CF44074264346EA070C4FF68C74CFF6F9
:101D6000FE740EEA040747EA0807C3F804C09F613F
:101D70004F6809695F631D629F6947F008079F61AB
:101D80009F6927F004079F6178E100BF036843F271
:101D900000461A6AC4F2010622F010021A621D6A95
:101DA0001A46D3F804C052F8188FB3428E68D1F89F
:101DB00000E025F0200545EA061505D042F600466C
:101DC000C4F20106B34207D1CE686FF0400725F098
:101DD000C00507EA06163543A3F18046A6F59636F8
:101DE0009F0547EA9626072E0CD8012707FA06F624
:101DF00016F0E50F1FBFD1E905672CF440643743A7
:101E000044EA870C48F6FF44CFF6FF6404EA08046E
:101E100044EA0E27C3F804C09F614F6809699F63B5
:101E20001D629F6947F400679F619F6927F480677F
:101E30009F6122E1036843F200461A6AC4F2010678
:101E400022F480721A621D6A1A46D3F804C052F84E
:101E50001C8FB3428E68D1F800E025F4007545EA86
:101E6000062505D042F60046C4F20106B34207D16A
:101E7000CE6840F2FF47360225F44065BE43354345
:101E8000A3F18046A6F596369F0547EA9626072ECB
:101E90000CD8012707FA06F616F0E50F1FBFD1E9A7
:101EA00005672CF44054374344EA071C4FF68C7402
:101EB000CFF6FE7404EA080444EA0E07C3F804C02F
:101EC000DF614F680969DF631D62DF6947F008075A
:101ED000DF61DF6927F00407DF61CFE0036843F2C9
:101EE00000461A6AC4F2010622F480521A621D6A80
:101EF0001A46D3F804C052F81C8FB3428E68D1F84A
:101F000000E025F4005545EA063505D042F60046C6
:101F1000C4F20106B34207D1CE6844F6FF77360318
:101F200025F44045BE433543A3F18046A6F59636D9
:101F30009F0547EA9626072E0CD8012707FA06F6D2
:101F400016F0E50F1FBFD1E905672CF44044374375
:101F500044EA871C48F6FF44CFF6FF6404EA08040D
:101F600044EA0E27C3F804C0DF614F6809691F64A3
:101F70001D62DF6947F40067DF61DF6927F480676E
:101F8000DF617AE003681A6AA3F1804722F48032A5
:101F90001A621A46A7F596379C05D3F820805D682B
:101FA00052F850EFD1F800C08E6844EA9727072F07
:101FB00009D80124BC4014F0E50F1EBF4C6925F47C
:101FC000803545EA042528F4003444EA06444FF6F7
:101FD0008C76CFF6FE7603360EEA060747EA0C0744
:101FE0005D601F654F6809699F641C621F6D47F043
:101FF00008071F651F6D27F004071F653EE000BF3F
:1020000003681A6AA3F1804722F480121A621A4602
:10201000A7F596379C05D3F820805D6852F850EFFD
:10202000D1F800C08E6844EA9727072F09D8012409
:10203000BC4014F0E50F1EBF4C6925F4802545EA2D
:10204000842528F4001444EA065448F6FF46CFF6E7
:10205000FF6606F540760EEA060747EA0C275D6044
:102060001F654F680969DF641C621F6D47F40067D4
:102070001F651F6D27F480671F65090213681943E8
:102080001160BDE8F0410121002380F83D1080F887
:102090003C30184670470000002804BF01207047FC
:1020A00010B5044690F83D0028B9002084F83C00A3
:1020B000204600F00DF8022084F83D002068211D24
:1020C00003F054FB012084F83D00002010BD000007
:1020D0007047000070470000006801F01F024FF0D9
:1020E000010C036A0CFA02F293430362036A81054E
:1020F0001343A0F18042A2F5963241EA9222062AC9
:1021000003621BD80CFA02F111F0650F16D0416C76
:1021100041F40041416481680722C0F2010211408C
:10212000062902D0B1F5803F02D10020704700BFE0
:10213000016841F0010101600020704744F6000190
:10214000C4F201018842E6D1E1E70000F0B581B0B8
:1021500040F20044C4F600040546006804F17841EA
:1021600001F58061884205D004F17841884240F051
:10217000F5807BE020460121FEF7AEFB40F2B5166C
:10218000C2F20006307020460221FEF7A5FBF07077
:1021900020460421FEF7A0FBB0714FF090400121D2
:1021A000FEF79AFB71787072022907D001290DD0D1
:1021B00091B9317881B901210DE000BF3178012951
:1021C0000AD10121B170002105E000BF3178B1FAD8
:1021D00081F1490949007170317959B101290DD056
:1021E000022911D1F17801290ED10121717100214B
:1021F00009E000BFF17839B9012104E0F178B1FAC2
:1022000081F1490949003171F17959B101290DD0A4
:10221000022911D1B17901290ED101213172002198
:1022200009E000BFB17939B9012104E0B179B1FA0F
:1022300081F149094900F171B17A49B101290BD005
:10224000022908BF01280CD10120F072002007E00C
:1022500038B9012004E000BFB0FA80F04009400026
:10226000B072286804F17841884277D140F2600664
:1022700040F2B417C2F20006C2F200073188387883
:1022800040F60044C4F600040131012831803CD1FD
:1022900089B2322939D1A4F580604FF47F410122FF
:1022A000FEF720FB204604210122FEF71BFB2046FF
:1022B00004210022FEF716FB01200121FEF752F84F
:1022C00040F26800C2F200004F21416040F2E73165
:1022D000C16000684FF4FA71816340F21600C2F2E7
:1022E00000003221017040F2180040F2A805C2F24D
:1022F00000004FF47A71C2F2000501802846FFF712
:10230000A7FA2846FFF7BCFA387838BB40F26400D9
:10231000C2F200000078032820D33588A4F580603D
:102320004FF47F410122FEF7DDFA2046042101220D
:10233000FEF7D8FA204604210022FEF7D3FA322D08
:102340000ED102200121FEF70DF840F2A800C2F2E2
:10235000000001B0BDE8F040FFF792BA01B0F0BD57
:1023600040F2C112C2F20002107880F00101022096
:10237000117001B0BDE8F040FDF7F4BF70470000F8
:1023800090F87C10012904BF022070472421C0F876
:10239000801002681168136823F00103136021F0B4
:1023A00000530021416613602022C0F8802080F88D
:1023B0007C100846704700007047000090F87C20B1
:1023C000012A04BF02207047B0B52422C0F8802043
:1023D0000268D0F864E0D2F800C01368BEF1000FC4
:1023E00023F001031360936823F0606341EA030163
:1023F000916019D09368916847F2687E490FC0F6E2
:10240000000E47F270751EF80140C0F60005695CC9
:10241000C3F34263E400B4FBF1F11EF80340EB5C4C
:10242000E500B5FBF3F301E001210123A0F86A10F8
:102430002021A0F86830C2F800C0C0F88010002148
:1024400080F87C10BDE8B0400846704790F87C20CA
:10245000012A04BF02207047B0B52422C0F88020B2
:102460000268D0F864E0D2F800C01368BEF1000F33
:1024700023F001031360936823F0604341EA0301F2
:10248000916019D09368916847F2687E490FC0F651
:10249000000E47F270751EF80140C0F60005695C39
:1024A000C3F34263E400B4FBF1F11EF80340EB5CBC
:1024B000E500B5FBF3F301E001210123A0F86A1068
:1024C0002021A0F86830C2F800C0C0F880100021B8
:1024D00080F87C10BDE8B0400846704770470000A7
:1024E000704700007047000070B501680446CA6973
:1024F0000E688B6802F02F05202D09D106F020050B
:1025000003F08050401910D0E16E00294DD170BD0C
:102510005FEA027C09D00120C1F2000003EA000E4C
:1025200006F4907010EB0E0028D1D0020AD513F4F7
:10253000800007D04FF4801220460A62BDE8704048
:10254000FFF7CEBF100605D506F0800003F40003A8
:10255000C01827D150061BD516F0400018D00868C7
:1025600020F04000086020200021C4F880002046B0
:102570002167BDE8704000F00DBA00BFD00718BF5A
:1025800016F4807022D1900703F001052AD432E0BE
:1025900010020FD516F080400CD02046BDE87040E8
:1025A000FFF79CBF216F0029B1D02046BDE87040E5
:1025B000084700BFD001AAD5B6F1FF3FC8BF70BD24
:1025C0002046BDE87040FFF7F7BE00BF012008625B
:1025D000D4F8880040F00100C4F88800900703F0A8
:1025E000010508D53DB102200862D4F8880040F00A
:1025F0000400C4F88800500708D53DB104200862E3
:10260000D4F8880040F00200C4F88800BCF1000F44
:102610000CD506F0200050EA0E0007D00820086212
:10262000D4F8880040F00800C4F88800D4F8880086
:1026300000283FF46CAF90060AD506F0200003F0A6
:102640008052801804D0E26E12B120469047216873
:10265000D4F888008A6800F0080002F04002801870
:1026600006D12046FFF73EFF0020C4F8880070BD69
:1026700008684FF6FE7220F4907008608868CEF605
:10268000FF72104088602020C4F884000020E066BB
:102690008868400614D5886820F040008860A06FE4
:1026A00070B145F6F511C0F600018163FDF7F8FF42
:1026B00000283FF42CAFA06F816BBDE87040084745
:1026C0002046BDE87040FFF70DBF000010B5A8B16F
:1026D0000446D0F8800028B9002084F87C00204609
:1026E00000F026F82420C4F880002068016821F05A
:1026F00001010160204603F08BFA08B1012010BDF2
:10270000A06A10B1204603F0BBF82168486820F4A5
:1027100090404860886820F02A008860086840F08F
:10272000010220460A60BDE8104003F01FB9000016
:10273000006843F60001C4F20101884218BF7047E7
:1027400080B586B041F24C00C4F20200416941F408
:1027500080414161416901F4804101910199016821
:1027600041F001010160006801A900F00100019041
:1027700001984FF4C0600190022002900020CDE942
:102780000300072005904FF09040FDF7DDFF252066
:1027900000210022FEF72AF92520FEF715F906B0E0
:1027A000BDE8804070470000D0F88430202B0BD16A
:1027B00000294FF0010318BF002A01D118467047C5
:1027C00090F87C30012B01D10220704710B5816553
:1027D000A0F85C20A0F85E20D0F808E0BEF1000F61
:1027E0000AD0BEF1805F0BD0BEF5805F0CD10369CB
:1027F00023B940F2FF130AE003693BB9FF2306E067
:1028000003691BB13F2302E0002300E07F23A0F80F
:1028100060300023C0F888302223C0F88430D0F81C
:1028200000C0416E634653F8084FB1F1005F44F0B9
:1028300001041C6003D1B0F86810914210D9BEF5B4
:10284000805F01D10169A9B145F60931C0F60001E7
:10285000C166002180F87C104FF4907063461FE041
:10286000BEF5805F01D1016951B145F66531C0F611
:10287000000109E045F60521C0F60001E8E700BFC8
:1028800045F66121C0F60001C166002180F87C1088
:10289000DCF8000040F48070CCF800004FF080506D
:1028A0001968084318600023BDE8104018467047B7
:1028B000006843F60001C4F20101884218BF704766
:1028C00040F22001C2F200010878421C0A7001EBBC
:1028D000000C11F8013F40F22810C2F20000012262
:1028E0008CF80230FFF760BFD0F88030202B0BD17E
:1028F00000294FF0010318BF002A01D11846704784
:1029000090F87C30012B03D102231846704700BF9A
:1029100001650021A0F85420A0F85620C0F88810C6
:102920002121C0F88010426E8168B2F1005F09D1A8
:10293000B1F5805F01D1016971B146F26511C0F650
:1029400000010DE0B1F5805F01D1016991B146F25E
:102950002911C0F6000111E046F2C101C0F60001E4
:1029600002680167002180F87C1002F108004FF432
:10297000000109E046F28101C0F600010167002173
:1029800080F87C10006880210268114301600020FB
:102990007047000070470000FEE70000B0B540F24D
:1029A000B514C2F20004A078012800F09380607989
:1029B000012800F0A080207A01280CD140F21200FA
:1029C000C2F2000001780131CAB20A3A18BF0A46C1
:1029D000027000202072E07A012818BFB0BD40F2DA
:1029E000100040F21302C2F20000C2F2000290F99D
:1029F0000010127840F2110E40F2120C9142C2F215
:102A0000000EC2F2000C47D140F21502C2F20002E1
:102A10009EF90030127893423ED140F21403C2F284
:102A200000039CF900201B789A4235D140F2B41083
:102A3000C2F200000121017040F26400C2F2000005
:102A40000022027040F2C210C2F20000017040F297
:102A50006800C2F200002721416040F2E731C16006
:102A600000686421816340F21600C2F200000A216E
:102A7000017040F21800C2F200004FF4FA610180C8
:102A800040F2A800C2F20000FEF7E2FEFDF7A8FD4A
:102A90000020E072B0BD00BF40F2B41240F2640109
:102AA000C2F200020023C2F20001137040F2C2120F
:102AB0000D78C2F2000213706A1C0A70FF218CF8B4
:102AC00000108EF800100170FDF78AFD0020E07202
:102AD000B0BD00BF40F21000C2F200000178013129
:102AE000CAB20A3A18BF0A4602700020A070607984
:102AF00001287FF460AF40F21100C2F200000178BB
:102B00000131CAB20A3A18BF0A4602700020607149
:102B1000207A01283FF452AF5DE7000040F21841EF
:102B2000C4F600010A6942F400720A610A6942F4BB
:102B300080720A610A6842F020020A602022C1F80D
:102B4000FC230A6942F020020A6100BF00BF00BFF7
:102B50000A6842F020020A600A6842F480720A6041
:102B60000022C1F8FC230B6943F020030B6100BF76
:102B700000BF00BF0B6843F020030B600B6843F4F9
:102B800080730B600B6943F400730B610B6943F4B2
:102B900080730B610B6843F020030B602123C1F8A5
:102BA000FC330B6943F020030B6100BF00BF00BF83
:102BB0000B6843F020030B600B6843F480730B60D9
:102BC000C1F8FC230A6942F020020A6100BF00BF7D
:102BD00000BF0A6842F020020A600A6842F480726C
:102BE0000A600A6942F400720A610A6942F480725A
:102BF0000A610A6842F020020A602222C1F8FC231E
:102C00000A6942F020020A6100BF00BF00BF0A68E3
:102C100042F020020A600A6842F480720A6000BF33
:102C200000BF00BF0A6842F400720A604FF4963297
:102C30000B69053A43F400730B610B6843F480732E
:102C40000B600B6843F020030B60C1F8FC030B69B9
:102C500043F020030B6100BF00BF00BF0B6843F0CF
:102C600020030B600B6843F480730B6000BF00BF50
:102C700000BF0B6843F400730B600B6943F40073EF
:102C80000B610B6843F480730B600B6843F0200307
:102C90000B60C1F8FC030B6943F020030B6100BF1C
:102CA00000BF00BF0B6843F020030B600B6843F4C8
:102CB00080730B6000BF00BF00BF0B6843F400735C
:102CC0000B600B6943F400730B610B6843F4807372
:102CD0000B600B6843F020030B60C1F8FC030B6929
:102CE00043F020030B6100BF00BF00BF0B6843F03F
:102CF00020030B600B6843F480730B6000BF00BFC0
:102D000000BF0B6843F400730B600B6943F400735E
:102D10000B610B6843F480730B600B6843F0200376
:102D20000B60C1F8FC030B6943F020030B6100BF8B
:102D300000BF00BF0B6843F020030B600B6843F437
:102D400080730B6000BF00BF00BF0B6843F40073CB
:102D50000B600B6943F400730B610B6843F48073E1
:102D60000B600B6843F020030B60C1F8FC030B6998
:102D700043F020030B6100BF00BF00BF0B6843F0AE
:102D800020030B600B6843F480730B6000BF00BF2F
:102D900000BF0B6843F400730B607FF449AF7047CA
:102DA0000A78002A08BF70472DE9F04146F286589C
:102DB00004464D1C002740F23F16C0F6000800BF35
:102DC000A2F12000C1B2490051FA80F008EB0012D4
:102DD000B1B2204600F00AF8EA5D22B1103E132F8E
:102DE00007F10107ECD3BDE8F04170472DE9F0474A
:102DF00040F21843C4F600031F694FF0200C47F45B
:102E000000771F611F694FF0210E47F480771F6123
:102E10001F6840F2080947F020071F60C3F8FCC391
:102E20001F6940F25E0A47F020071F6100BF00BF24
:102E300000BF1F684FF0220847F020071F601F687F
:102E4000C2F2000947F480771F60C3F8FC031F69D2
:102E5000C2F2000A47F020071F6100BF00BF00BF99
:102E60001F6847F020071F601F6847F480771F60C6
:102E70001F6947F400771F611F6947F480771F615E
:102E80001F6847F020071F60C3F8FCE31C6944F08B
:102E900020041C6100BF00BF00BF1C6844F0200478
:102EA0001C601C6844F480741C60C3F8FC131C692B
:102EB00044F020041C6100BF00BF00BF1C6844F048
:102EC00020041C601C6844F480741C60002400BF53
:102ED0001D6945F400751D611D6945F480751D610E
:102EE0001D6845F020051D60C3F8FC831D6945F091
:102EF00020051D6100BF00BF00BF1D6845F0200513
:102F00001D601D6845F480751D6000BF00BF00BFD7
:102F10001D6845F400751D60002500BF32F814607F
:102F2000EE40F607564608BF4E4636881F6947F4FE
:102F300000771F611F6847F480771F601F6847F0A4
:102F400020071F60C3F8FC631E696F1C46F0200653
:102F50001E6100BF00BF00BF1E6846F020061E6055
:102F60001E6846F480761E6000BF00BF00BF1E686A
:102F700046F400761E6032F81460FE40F6075646AE
:102F800008BF4E4636881F6947F400771F611F68E7
:102F900047F480771F601F6847F020071F60C3F861
:102FA000FC631E69AF1C46F020061E6100BF00BF17
:102FB00000BF1E6846F020061E601E6846F480763C
:102FC0001E6000BF00BF00BF1E6846F400761E6092
:102FD00032F81460FE40F607564608BF4E46368863
:102FE0001F6947F400771F611F6847F480771F60EF
:102FF0001F6847F020071F60C3F8FC631E69EF1CC1
:1030000046F020061E6100BF00BF00BF1E680435E9
:1030100046F020061E601E6846F480761E6000BFE3
:1030200000BF00BF1E6846F400761E6032F81460D0
:10303000FE40F607564608BF4E4636881F69102DDB
:1030400047F400771F611F6847F480771F601F688F
:1030500047F020071F60C3F8FC631E6946F0200696
:103060001E6100BF00BF00BF1E6846F020061E6044
:103070001E6846F480761E6000BF00BF00BF1E6859
:1030800046F400761E607FF449AF1D69013045F4B7
:1030900000751D611D69013445F480751D611D6851
:1030A000182C45F020051D60C3F8FCC31D6945F0D0
:1030B00020051D6100BF00BF00BF1D6845F0200551
:1030C0001D601D6845F480751D60C5B2C3F8FC53D2
:1030D0001D6945F020051D6100BF00BF00BF1D68D0
:1030E00045F020051D601D6845F480751D601D6953
:1030F00045F400751D611D6945F480751D611D68ED
:1031000045F020051D60C3F8FCE31D6945F020056E
:103110001D6100BF00BF00BF1D6845F020051D6098
:103120001D6845F480751D60C3F8FC131D6945F0EA
:1031300020051D6100BF00BF00BF1D6845F02005D0
:103140001D601D6845F480751D6008BFBDE8F087EF
:10315000BEE600002DE9F04F8BB0002641F24C0096
:103160000596C4F20200016840F2184541F00401DE
:1031700001600168C4F6000501F00401069106999A
:10318000016801AC41F001010160016840F61409D9
:1031900001F00101069106990168C4F6000941F0A9
:1031A000020101600068214600F0020006900698C6
:1031B0004FF44870019001200290A5F118000127FA
:1031C000CDE90366FDF7C0FA4FF48070CDE9010741
:1031D0004FF090402146CDE90366FDF7B5FA4FF672
:1031E000FF7005F57A7406904FF0030806A9204693
:1031F0000A964FF6FF7B0797CDE90868FDF7A4FA1A
:103200004FF6004ACFF6FF7A55F80A0006A940F4B7
:10321000807045F80A0028684FF6FF7740F4087080
:103220002860286940F400702861286940F48070A3
:103230002861286840F020002860C9F800602869EB
:1032400040F02000286100BF00BF00BF286840F0A8
:1032500020002860286840F48070286020460A9684
:10326000CDF818B0CDF82480CDE90766FDF76CFAEB
:103270004FF6104BCFF6FF7B55F80B0007A940F433
:10328000807045F80B0000BF00BF00BFD5F8F89371
:1032900055F80A0040F4807045F80A00012081E8E2
:1032A000410106A920460A960697FDF74DFA2868BF
:1032B00048F2302140F40070286040F26200C2F20F
:1032C0000000A0F800900088884203D100F02CFA9A
:1032D00002E000BF00F09CFF2869002640F4007067
:1032E000286128694FF6FF7840F4807028612868CB
:1032F0004FF0030940F02000286040F61400C4F6A7
:1033000000000660286906A940F02000286100BF7F
:1033100000BF00BF286840F020002860286840F403
:103320008070286020460A96CDE90686CDE90869B6
:10333000FDF70AFA55F80B0007A940F4807045F82C
:103340000B0000BF00BF00BFD5F8F87355F80A00A6
:1033500040F4807045F80A00012081E8410206A986
:1033600020460A96CDF81880FDF7EEF9286840F45B
:103370000070286040F26200C2F2000007800BB0CB
:10338000BDE8F08F81B0ADF80200BDF8020040F258
:103390000801C2F20001088001B0704781B0ADF8A9
:1033A0000200BDF8020040F25E01C2F20001088096
:1033B00001B070472DE9F04387B04FF0000941F2AA
:1033C0004C00CDF81890C4F20200016840F60005E8
:1033D00041F0040101600168C4F6000501F0040138
:1033E000019101990168002241F02001016001680A
:1033F0004FF47F4601F0200101910199016841F0ED
:1034000001010160016801F0010101910199016868
:1034100041F002010160016801F00201019101998E
:10342000016841F00801016000684FF47F4100F03D
:103430000800019001982846FDF754FA05F58064CC
:103440002046042100224FF00408FDF74BFA0296B3
:1034500002AE012728463146CDE90379CDF8149014
:10346000FDF772F94FF090403146CDE902790497AB
:10347000FDF76AF90720CDE90209A5F5806031461C
:103480000497FDF761F920463146CDE90287CDE981
:103490000499FDF759F907B0BDE8F08310B594B071
:1034A00040F268000021C2F200004FF080424F233A
:1034B00040F2E7340E91CDE90C11CDE90911CDE9C7
:1034C0000711CDE90511CDE90311CDE90111C0E9DD
:1034D0000023C0E9021401618161FEF74BF9002865
:1034E00018BFFDF7DBF84FF480500B9040F26800F6
:1034F000C2F200000BA9FEF7E1F9002818BFFDF7A2
:10350000CDF840F26800C2F20000FEF7C5FD0028C9
:1035100018BFFDF7C3F840F268000024C2F20000B3
:1035200008A908940A94FEF7EBF8002818BFFDF7E5
:10353000B5F8602001904FF4FA70CDE902040594CB
:1035400040F26804C2F2000401A920460422FEF7FA
:10355000B7FB002818BFFDF7A1F82068B0F1804F35
:1035600002D014B010BD00BF41F24C00C4F2020002
:10357000016841F00101016000680FA900F001003D
:103580000F900F980220CDE90F000020CDE9110027
:10359000012013904FF09040FDF7D6F814B010BD05
:1035A00080B588B040F2A80040F200420021C2F28B
:1035B0000000C4F2000240F21F3342F20F7C079178
:1035C000CDE905110291C0E90023C0E9021C0161A7
:1035D0008161FEF7CFF8002818BFFDF75FF84FF4C0
:1035E0008050049040F2A800C2F2000004A9FEF747
:1035F00065F9002818BFFDF751F8002001900390ED
:1036000040F2A800C2F2000001A9FEF779F80028F4
:1036100018BFFDF743F808B080BD000080B588B042
:1036200040F2E80040F600020021C2F20000C4F2BD
:10363000000240F21F3342F20F7C0791CDE90511E1
:103640000291C0E90023C0E9021C01618161FEF71B
:1036500091F8002818BFFDF721F84FF4805004902E
:1036600040F2E800C2F2000004A9FEF727F90028A2
:1036700018BFFDF713F800200190039040F2E80016
:10368000C2F2000001A9FEF73BF8002818BFFDF7C1
:1036900005F808B080BD000080B540F2281043F660
:1036A0000001C2F20000C4F2010100234FF00C0C33
:1036B0004FF4165280E80E00C0E90333C0E905C399
:1036C000C0E90733C0E90933FFF700F8002818BF45
:1036D000FCF7E4FF40F22810C2F200000021FEF7E0
:1036E000B5FE002818BFFCF7D9FF40F22810C2F23F
:1036F00000000021FEF762FE002818BFFCF7CEFF95
:1037000040F22810C2F20000FEF73AFE002808BF7F
:1037100080BDBDE88040FCF7C1BF0000FEE70000AF
:10372000704700007047000040F21840C4F60000E7
:103730000169002241F40071016101694FF0030C3D
:1037400041F480710161016841F020010160C0F81D
:10375000FC23016941F02001016100BF00BF00BFEF
:10376000016841F020010160016841F4807101604D
:103770000121C0F8FC13036943F02003036100BF7B
:1037800000BF00BF036843F020030360036843F4F5
:1037900080730360036943F400730361036943F4B6
:1037A00080730361036843F020030360C0F8FC13D7
:1037B000036943F02003036100BF00BF00BF03683B
:1037C00043F020030360036843F480730360C0F890
:1037D000FC23026942F02002026100BF00BF00BF6B
:1037E000026842F020020260026842F480720260C5
:1037F000026942F400720261026942F4807202615D
:10380000026842F0200202601022C0F8FC23026924
:1038100042F02002026100BF00BF00BF026842F018
:1038200020020260026842F48072026041F29072EB
:10383000C0F8FC23026942F02002026100BF00BF11
:1038400000BF026842F020020260026842F4807207
:103850000260026942F400720261026942F48072FD
:103860000261026842F0200202606022C0F8FC237C
:10387000026942F02002026100BF00BF00BF02687F
:1038800042F020020260026842F4807202604FF44B
:103890001C52C0F8FC23026942F02002026100BF02
:1038A00000BF00BF026842F020020260026842F4DA
:1038B00080720260026942F400720261026942F49D
:1038C00080720261026842F0200202606122C0F848
:1038D000FC23026942F02002026100BF00BF00BF6A
:1038E000026842F020020260026842F480720260C4
:1038F000C0F8FC13016941F02001016100BF00BF65
:1039000000BF016841F020010160016841F480714D
:103910000160016941F400710161016941F4807144
:103920000161016841F0200101604621C0F8FC13EB
:10393000016941F02001016100BF00BF00BF0168C3
:1039400041F020010160016841F4807101600221B1
:10395000C0F8FC13026942F02002026100BF00BF00
:1039600000BF026842F020020260026842F48072E6
:103970000260026942F400720261026942F48072DC
:103980000261026842F0200202601322C0F8FC23A8
:10399000026942F02002026100BF00BF00BF02685E
:1039A00042F020020260026842F48072026048F233
:1039B0001002C0F8FC23026942F02002026100BF3D
:1039C00000BF00BF026842F020020260026842F4B9
:1039D00080720260026942F400720261026942F47C
:1039E00080720261026842F0200202601222C0F876
:1039F000FC23026942F02002026100BF00BF00BF49
:103A0000026842F020020260026842F480720260A2
:103A100048F2FE02C0F8FC23026942F02002026173
:103A200000BF00BF00BF026842F0200202600268CF
:103A300042F480720260026942F40072026102691B
:103A400042F480720261026842F020020260C0F813
:103A5000FC13016941F02001016100BF00BF00BFFC
:103A6000016841F020010160016841F4807101604A
:103A70004FF4A061C0F8FC13016941F0200101611D
:103A800000BF00BF00BF016841F020010160016874
:103A900041F480710160016941F4007101610169C3
:103AA00041F480710161016841F020010160C0F8BA
:103AB000FCC3026942F02002026100BF00BF00BFE8
:103AC000026842F020020260026842F480720260E2
:103AD00041F23002C0F8FC23026942F02002026188
:103AE00000BF00BF00BF026842F02002026002680F
:103AF00042F480720260026942F40072026102695B
:103B000042F480720261026842F0200202603022B8
:103B1000C0F8FC23026942F02002026100BF00BF2E
:103B200000BF026842F020020260026842F4807224
:103B3000026040F20332C0F8FC23036943F0200323
:103B4000036100BF00BF00BF036843F020030360B0
:103B5000036843F480730360036943F400730361F3
:103B6000036943F480730361036843F02003036037
:103B70003123C0F8FC33036943F02003036100BF25
:103B800000BF00BF036843F020030360036843F4F1
:103B900080730360C0F8FC23036943F020030361D2
:103BA00000BF00BF00BF036843F020030360036849
:103BB00043F480730360036943F400730361036992
:103BC00043F480730361036843F0200303603223EE
:103BD000C0F8FC33036943F02003036100BF00BF5A
:103BE00000BF036843F020030360036843F480735D
:103BF0000360C0F8FC23036943F02003036100BFA6
:103C000000BF00BF036843F020030360036843F470
:103C100080730360036943F400730361036943F431
:103C200080730361036843F0200303603323C0F80B
:103C3000FC33036943F02003036100BF00BF00BFF2
:103C4000036843F020030360036843F48073036058
:103C50004FF44073C0F8FC33016941F02001016169
:103C600000BF00BF00BF016841F020010160016892
:103C700041F480710160016941F4007101610169E1
:103C800041F480710161016841F02001016034213B
:103C9000C0F8FC13016941F02001016100BF00BFC1
:103CA00000BF016841F020010160016841F48071AA
:103CB0000160C0F8FCC3016941F02001016100BF4F
:103CC00000BF00BF016841F020010160016841F4BC
:103CD00080710160016941F400710161016941F481
:103CE00080710161016841F0200101603521C0F857
:103CF000FC13016941F02001016100BF00BF00BF5A
:103D0000016841F020010160016841F480710160A7
:103D1000C0F8FC23016941F02001016100BF00BF30
:103D200000BF016841F020010160016841F4807129
:103D30000160016941F400710161016941F4807120
:103D40000161016841F0200101603621C0F8FC13D7
:103D5000016941F02001016100BF00BF00BF01689F
:103D600041F020010160016841F48071016014217B
:103D7000C0F8FC13016941F02001016100BF00BFE0
:103D800000BF016841F020010160016841F48071C9
:103D90000160016941F400710161016941F48071C0
:103DA0000161016841F0200101603721C0F8FC1376
:103DB000016941F02001016100BF00BF00BF01683F
:103DC00041F020010160016841F480710160C0F898
:103DD000FC23016941F02001016100BF00BF00BF69
:103DE000016841F020010160016841F480710160C7
:103DF000016941F400710161016941F4807101615F
:103E0000016841F0200101603821C0F8FC1301690C
:103E100041F02001016100BF00BF00BF016841F017
:103E200020010160016841F480710160C0F8FC2349
:103E3000016941F02001016100BF00BF00BF0168BE
:103E400041F020010160016841F480710160016965
:103E500041F400710161016941F4807101610168FF
:103E600041F0200101603921C0F8FC13016941F0E3
:103E70002001016100BF00BF00BF016841F02001C7
:103E80000160016841F480710160C0F8FC230169A0
:103E900041F02001016100BF00BF00BF016841F097
:103EA00020010160016841F480710160016941F401
:103EB00000710161016941F480710161016841F0A3
:103EC000200101603A21C0F8FC13016941F0200192
:103ED000016100BF00BF00BF016841F02001016027
:103EE000016841F480710160C0F8FC33016941F060
:103EF0002001016100BF00BF00BF016841F0200147
:103F00000160016841F480710160016941F4007150
:103F10000161016941F480710161016841F0200192
:103F200001603B21C0F8FC13016941F020010161EF
:103F300000BF00BF00BF016841F0200101600168BF
:103F400041F480710160C0F8FCC3016941F02001B7
:103F5000016100BF00BF00BF016841F020010160A6
:103F6000016841F480710160016941F400710161EF
:103F7000016941F480710161016841F02001016033
:103F80003C21C0F8FC13016941F02001016100BF30
:103F900000BF00BF016841F020010160016841F4E9
:103FA00080710160C0F8FC23016941F020010161CA
:103FB00000BF00BF00BF016841F02001016001683F
:103FC00041F480710160016941F40071016101698E
:103FD00041F480710161016841F0200101603D21DF
:103FE000C0F8FC13016941F02001016100BF00BF6E
:103FF00000BF016841F020010160016841F4807157
:1040000001604FF4A051C0F8FC13016941F0200198
:10401000016100BF00BF00BF016841F020010160E5
:10402000016841F480710160016941F4007101612E
:10403000016941F480710161016841F02001016072
:104040009221C0F8FC13016941F02001016100BF19
:1040500000BF00BF016841F020010160016841F428
:10406000807101604FF40071C0F8FC13016941F0E8
:104070002001016100BF00BF00BF016841F02001C5
:104080000160016841F480710160016941F40071CF
:104090000161016941F480710161016841F0200111
:1040A00001609321C0F8FC13016941F02001016116
:1040B00000BF00BF00BF016841F02001016001683E
:1040C00041F480710160C0F8FC23016941F02001D6
:1040D000016100BF00BF00BF016841F02001016025
:1040E000016841F480710160016941F4007101616E
:1040F000016941F480710161016841F020010160B2
:104100009021C0F8FC13016941F02001016100BF5A
:1041100000BF00BF016841F020010160016841F467
:104120008071016040F60D01C0F8FC13016941F097
:104130002001016100BF00BF00BF016841F0200104
:104140000160016841F480710160016941F400710E
:104150000161016941F480710161016841F0200150
:104160000160C0F8FCC3016941F02001016100BF9A
:1041700000BF00BF016841F020010160016841F407
:104180008071016041F21801C0F8FC13016941F02F
:104190002001016100BF00BF00BF016841F02001A4
:1041A0000160016841F480710160016941F40071AE
:1041B0000161016941F480710161016841F02001F0
:1041C00001600721C0F8FC13016941F02001016181
:1041D00000BF00BF00BF016841F02001016001681D
:1041E00041F48071016040F27311C0F8FC13016961
:1041F00041F02001016100BF00BF00BF016841F034
:1042000020010160016841F4807101607047000085
:104210002DE9F04F81B040F21844C4F60004206943
:104220004FF0120940F4007020612069002540F42D
:10423000807020612068112640F020002060E3207B
:10424000C4F8FC0320694FF0130B40F020002061FC
:1042500000BF00BF00BF2068102740F02000206092
:1042600020684FF0070840F48070206043F2080097
:10427000C4F8FC03206940F02000206100BF00BFAB
:1042800000BF206840F020002060206840F480706B
:104290002060206940F400702061206940F4807043
:1042A0002061206840F020002060E720C4F8FC0373
:1042B000206940F02000206100BF00BF00BF2068DF
:1042C00040F020002060206840F480702060C4F836
:1042D000FC93206940F02000206100BF00BF00BFB8
:1042E000206840F020002060206840F4807020604A
:1042F000206940F400702061206940F480702061E2
:10430000206840F020002060EF20C4F8FC03206902
:1043100040F02000206100BF00BF00BF206840F0D7
:1043200020002060206840F48070206041F231203D
:10433000C4F8FC03206940F02000206100BF00BFEA
:1043400000BF206840F020002060206840F48070AA
:104350002060206940F400702061206940F4807082
:104360002061206840F0200020600120C4F8FC0398
:10437000206940F02000206100BF00BF00BF20681E
:1043800040F020002060206840F480702060C4F875
:10439000FC53206940F02000206100BF00BF00BF37
:1043A000206840F020002060206840F48070206089
:1043B000206940F400702061206940F48070206121
:1043C000206840F0200020600220C4F8FC0320692F
:1043D00040F02000206100BF00BF00BF206840F017
:1043E00020002060206840F4807020604FF4E0607E
:1043F000C4F8FC03206940F02000206100BF00BF2A
:1044000000BF206840F020002060206840F48070E9
:104410002060206940F400702061206940F48070C1
:104420002061206840F0200020600320C4F8FC03D5
:10443000206940F02000206100BF00BF00BF20685D
:1044400040F020002060206840F48070206041F23D
:104450003000C4F8FC03206940F02000206100BF58
:1044600000BF00BF206840F020002060206840F4BA
:1044700080702060206940F400702061206940F461
:1044800080702061206840F0200020600420C4F883
:10449000FC03206940F02000206100BF00BF00BF86
:1044A000206840F020002060206840F48070206088
:1044B000C4F8FC53206940F02000206100BF00BF19
:1044C00000BF206840F020002060206840F4807029
:1044D0002060206940F400702061206940F4807001
:1044E0002061206840F0200020600820C4F8FC0310
:1044F000206940F02000206100BF00BF00BF20689D
:1045000040F020002060206840F48070206040F27D
:104510000720C4F8FC03206940F02000206100BFA0
:1045200000BF00BF206840F020002060206840F4F9
:1045300080702060206940F400702061206940F4A0
:1045400080702061206840F0200020600920C4F8BD
:10455000FC03206940F02000206100BF00BF00BFC5
:10456000206840F020002060206840F480702060C7
:10457000C4F8FC53206940F02000206100BF00BF58
:1045800000BF206840F020002060206840F4807068
:104590002060206940F400702061206940F4807040
:1045A0002061206840F0200020600A20C4F8FC034D
:1045B000206940F02000206100BF00BF00BF2068DC
:1045C00040F020002060206840F480702060C4F833
:1045D000FC53206940F02000206100BF00BF00BFF5
:1045E000206840F020002060206840F48070206047
:1045F000206940F400702061206940F480702061DF
:10460000206840F0200020600C20C4F8FC032069E2
:1046100040F02000206100BF00BF00BF206840F0D4
:1046200020002060206840F480702060C4F8FC53B3
:10463000206940F02000206100BF00BF00BF20685B
:1046400040F020002060206840F4807020602069E5
:1046500040F400702061206940F48070206120687F
:1046600040F0200020600D20C4F8FC03206940F0D9
:104670002000206100BF00BF00BF206840F0200084
:104680002060206840F480702060C4F8FC532069EA
:1046900040F02000206100BF00BF00BF206840F054
:1046A00020002060206840F480702060206940F481
:1046B00000702061206940F480702061206840F023
:1046C000200020600F20C4F8FC03206940F0200087
:1046D000206100BF00BF00BF206840F020002060C4
:1046E000206840F480702060C4F8FC53206940F0DA
:1046F0002000206100BF00BF00BF206840F0200004
:104700002060206840F480702060206940F40070D0
:104710002061206940F480702061206840F0200012
:1047200020601020C4F8FC03206940F020002061C4
:1047300000BF00BF00BF206840F02000206020685C
:1047400040F480702060C4F8FC53206940F02000E1
:10475000206100BF00BF00BF206840F02000206043
:10476000206840F480702060206940F4007020616F
:10477000206940F480702061206840F020002060B3
:10478000C4F8FC63206940F02000206100BF00BF36
:1047900000BF206840F020002060206840F4807056
:1047A00020600720C4F8FC03206940F0200020614D
:1047B00000BF00BF00BF206840F0200020602068DC
:1047C00040F480702060206940F40070206120690E
:1047D00040F480702061206840F020002060C4F820
:1047E000FC93206940F02000206100BF00BF00BFA3
:1047F000206840F020002060206840F48070206035
:10480000C4F8FC53206940F02000206100BF00BFC5
:1048100000BF206840F020002060206840F48070D5
:104820002060206940F400702061206940F48070AD
:104830002061206840F020002060C4F8FCB32069AB
:1048400040F02000206100BF00BF00BF206840F0A2
:1048500020002060206840F480702060C4F8FC5381
:10486000206940F02000206100BF00BF00BF206829
:1048700040F020002060206840F480702060C82054
:10488000FBF74EFF20694FF0320A40F400702061C0
:10489000206940F480702061206840F02000206092
:1048A000C4F8FC732069102740F02000206100BF8D
:1048B00000BF00BF206840F020002060206840F466
:1048C0008070206041F29060C4F8FC03206940F0E1
:1048D0002000206100BF00BF00BF206840F0200022
:1048E0002060206840F480702060206940F40070EF
:1048F0002061206940F480702061206840F0200031
:104900002060C4F8FC63206940F02000206100BFF3
:1049100000BF00BF206840F020002060206840F405
:104920008070206040F22720C4F8FC03206940F02A
:104930002000206100BF00BF00BF206840F02000C1
:104940002060206840F4807020603220FBF7E8FE91
:10495000206940F400702061206940F4807020617B
:10496000206840F020002060C4F8FC93206940F0EB
:104970002000206100BF00BF00BF206840F0200081
:104980002060206840F4807020601D20C4F8FC0383
:10499000206940F02000206100BF00BF00BF2068F8
:1049A00040F020002060206840F4807020603220B9
:1049B000FBF7B6FE206940F400702061206940F4E6
:1049C00080702061206840F020002060C4F8FCB3B3
:1049D000206940F02000206100BF00BF00BF2068B8
:1049E00040F020002060206840F4807020604FF488
:1049F0000060C4F8FC03206940F02000206100BF83
:104A000000BF00BF206840F020002060206840F414
:104A100080702060206940F400702061206940F4BB
:104A200080702061206840F0200020602920C4F8B8
:104A3000FC03206940F02000206100BF00BF00BFE0
:104A4000206840F020002060206840F480702060E2
:104A50001420C4F8FC03206940F02000206100BF4E
:104A600000BF00BF206840F020002060206840F4B4
:104A700080702060206940F400702061206940F45B
:104A800080702061206840F0200020602B20C4F856
:104A9000FC03206940F02000206100BF00BF00BF80
:104AA000206840F020002060206840F48070206082
:104AB0000B20C4F8FC03206940F02000206100BFF7
:104AC00000BF00BF206840F020002060206840F454
:104AD000807020603220FBF723FE2069032140F420
:104AE000007020612069072240F4807020612068F6
:104AF00040F0200020602020C4F8FC03206940F032
:104B00002000206100BF00BF00BF206840F02000EF
:104B10002060206840F480702060C4F8FC53206955
:104B200040F02000206100BF00BF00BF206840F0BF
:104B300020002060206840F480702060206940F4EC
:104B400000702061206940F480702061206840F08E
:104B5000200020602120C4F8FC03206940F02000E0
:104B6000206100BF00BF00BF206840F0200020602F
:104B7000206840F480702060C4F8FC53206940F045
:104B80002000206100BF00BF00BF206840F020006F
:104B90002060206840F480702060206940F400703C
:104BA0002061206940F480702061206840F020007E
:104BB00020603020C4F8FC03206940F02000206110
:104BC00000BF00BF00BF206840F0200020602068C8
:104BD00040F480702060C4F8FC83206940F020001D
:104BE000206100BF00BF00BF206840F020002060AF
:104BF000206840F480702060206940F400702061DB
:104C0000206940F480702061206840F0200020601E
:104C10003120C4F8FC03206940F02000206100BF6F
:104C200000BF00BF206840F020002060206840F4F2
:104C30008070206040F20770C4F8FC03206940F0E7
:104C40002000206100BF00BF00BF206840F02000AE
:104C50002060206840F480702060206940F400707B
:104C60002061206940F480702061206840F02000BD
:104C70002060C4F8FCA3206940F02000206100BF40
:104C800000BF00BF206840F020002060206840F492
:104C9000807020600620C4F8FC03206940F02000EA
:104CA000206100BF00BF00BF206840F020002060EE
:104CB000206840F480702060206940F4007020611A
:104CC000206940F480702061206840F0200020605E
:104CD0003520C4F8FC03206940F02000206100BFAB
:104CE00000BF00BF206840F020002060206840F432
:104CF0008070206040F20470C4F8FC03206940F02A
:104D00002000206100BF00BF00BF206840F02000ED
:104D10002060206840F480702060206940F40070BA
:104D20002061206940F480702061206840F02000FC
:104D300020603620C4F8FC03206940F02000206188
:104D400000BF00BF00BF206840F020002060206846
:104D500040F48070206041F60470C4F8FC032069C0
:104D600040F02000206100BF00BF00BF206840F07D
:104D700020002060206840F480702060206940F4AA
:104D800000702061206940F480702061206840F04C
:104D9000200020603720C4F8FC03206940F0200088
:104DA000206100BF00BF00BF206840F020002060ED
:104DB000206840F4807020600420C4F8FC0320695F
:104DC00040F02000206100BF00BF00BF206840F01D
:104DD00020002060206840F480702060206940F44A
:104DE00000702061206940F480702061206840F0EC
:104DF000200020603820C4F8FC03206940F0200027
:104E0000206100BF00BF00BF206840F0200020608C
:104E1000206840F480702060C4F8FC53206940F0A2
:104E20002000206100BF00BF00BF206840F02000CC
:104E30002060206840F480702060206940F4007099
:104E40002061206940F480702061206840F02000DB
:104E500020603920C4F8FC03206940F02000206164
:104E600000BF00BF00BF206840F020002060206825
:104E700040F48070206040F20670C4F8FC032069A2
:104E800040F02000206100BF00BF00BF206840F05C
:104E900020002060206840F480702060206940F489
:104EA00000702061206940F480702061206840F02B
:104EB000200020603C20C4F8FC03206940F0200062
:104EC000206100BF00BF00BF206840F020002060CC
:104ED000206840F48070206040F20170C4F8FC0348
:104EE000206940F02000206100BF00BF00BF2068A3
:104EF00040F020002060206840F48070206020692D
:104F000040F400702061206940F4807020612068C6
:104F100040F0200020603D20C4F8FC03206940F0F0
:104F20002000206100BF00BF00BF206840F02000CB
:104F30002060206840F4807020600F20C4F8FC03DB
:104F4000206940F02000206100BF00BF00BF206842
:104F500040F020002060206840F4807020602069CC
:104F600040F400702061206940F480702061206866
:104F700040F0200020605020C4F8FC03206940F07D
:104F80002000206100BF00BF00BF206840F020006B
:104F90002060206840F480702060C4F8FC532069D1
:104FA00040F02000206100BF00BF00BF206840F03B
:104FB00020002060206840F480702060206940F468
:104FC00000702061206940F480702061206840F00A
:104FD000200020605120C4F8FC03206940F020002C
:104FE000206100BF00BF00BF206840F020002060AB
:104FF000206840F480702060EF20C4F8FC03206932
:1050000040F02000206100BF00BF00BF206840F0DA
:1050100020002060206840F480702060206940F407
:1050200000702061206940F480702061206840F0A9
:10503000200020605220C4F8FC03206940F02000CA
:10504000206100BF00BF00BF206840F0200020604A
:10505000206840F480702060C4F8FC53206940F060
:105060002000206100BF00BF00BF206840F020008A
:105070002060206840F480702060206940F4007057
:105080002061206940F480702061206840F0200099
:1050900020605320C4F8FC03206940F02000206108
:1050A00000BF00BF00BF206840F0200020602068E3
:1050B00040F48070206040F23F10C4F8FC03206987
:1050C00040F02000206100BF00BF00BF206840F01A
:1050D00020002060206840F480702060206940F447
:1050E00000702061206940F480702061206840F0E9
:1050F000200020606020C4F8FC03206940F02000FC
:10510000206100BF00BF00BF206840F02000206089
:10511000206840F4807020604FF41C50C4F8FC03F9
:10512000206940F02000206100BF00BF00BF206860
:1051300040F020002060206840F4807020602069EA
:1051400040F400702061206940F480702061206884
:1051500040F0200020606120C4F8FC03206940F08A
:105160002000206100BF00BF00BF206840F0200089
:105170002060206840F4807020600120C4F8FC03A7
:10518000206940F02000206100BF00BF00BF206800
:1051900040F020002060206840F48070206020698A
:1051A00040F400702061206940F480702061206824
:1051B00040F0200020606A20C4F8FC03206940F021
:1051C0002000206100BF00BF00BF206840F0200029
:1051D0002060206840F480702060C4F8FC5320698F
:1051E00040F02000206100BF00BF00BF206840F0F9
:1051F00020002060206840F480702060206940F426
:1052000000702061206940F480702061206840F0C7
:10521000200020608020C4F8FC03206940F02000BA
:10522000206100BF00BF00BF206840F02000206068
:10523000206840F480702060C4F8FC53206940F07E
:105240002000206100BF00BF00BF206840F02000A8
:105250002060206840F480702060206940F4007075
:105260002061206940F480702061206840F02000B7
:1052700020608120C4F8FC03206940F020002061F8
:1052800000BF00BF00BF206840F020002060206801
:1052900040F480702060C4F8FC53206940F0200086
:1052A000206100BF00BF00BF206840F020002060E8
:1052B000206840F480702060206940F40070206114
:1052C000206940F480702061206840F02000206058
:1052D0008220C4F8FC03206940F02000206100BF58
:1052E00000BF00BF206840F020002060206840F42C
:1052F00080702060C4F8FC53206940F020002061D9
:1053000000BF00BF00BF206840F020002060206880
:1053100040F480702060206940F4007020612069B2
:1053200040F480702061206840F0200020608320DD
:10533000C4F8FC03206940F02000206100BF00BFDA
:1053400000BF206840F020002060206840F480709A
:105350002060C4F8FC53206940F02000206100BFA9
:1053600000BF00BF206840F020002060206840F4AB
:1053700080702060206940F400702061206940F452
:1053800080702061206840F0200020608420C4F8F4
:10539000FC03206940F02000206100BF00BF00BF77
:1053A000206840F020002060206840F48070206079
:1053B000C4F8FC53206940F02000206100BF00BF0A
:1053C00000BF206840F020002060206840F480701A
:1053D0002060206940F400702061206940F48070F2
:1053E0002061206840F0200020608520C4F8FC0384
:1053F000206940F02000206100BF00BF00BF20688E
:1054000040F020002060206840F480702060C4F8E4
:10541000FC53206940F02000206100BF00BF00BFA6
:10542000206840F020002060206840F480702060F8
:10543000206940F400702061206940F48070206190
:10544000206840F0200020609020C4F8FC03206910
:1054500040F02000206100BF00BF00BF206840F086
:1054600020002060206840F480702060C4F8FC7345
:10547000206940F02000206100BF00BF00BF20680D
:1054800040F020002060206840F480702060206997
:1054900040F400702061206940F480702061206831
:1054A00040F0200020609220C4F8FC03206940F006
:1054B0002000206100BF00BF00BF206840F0200036
:1054C0002060206840F480702060C4F8FC5320699C
:1054D00040F02000206100BF00BF00BF206840F006
:1054E00020002060206840F480702060206940F433
:1054F00000702061206940F480702061206840F0D5
:10550000200020609320C4F8FC03206940F02000B4
:10551000206100BF00BF00BF206840F02000206075
:10552000206840F480702060C4F8FC13206940F0CB
:105530002000206100BF00BF00BF206840F02000B5
:105540002060206840F480702060206940F4007082
:105550002061206940F480702061206840F02000C4
:1055600020609520C4F8FC03206940F020002061F1
:1055700000BF00BF00BF206840F02000206020680E
:1055800040F4807020604FF48870C4F8FC032069F8
:1055900040F02000206100BF00BF00BF206840F045
:1055A00020002060206840F480702060206940F472
:1055B00000702061206940F480702061206840F014
:1055C000200020609720C4F8FC03206940F02000F0
:1055D000206100BF00BF00BF206840F020002060B5
:1055E000206840F480702060C4F8FC53206940F0CB
:1055F0002000206100BF00BF00BF206840F02000F5
:105600002060206840F480702060206940F40070C1
:105610002061206940F480702061206840F0200003
:1056200020609820C4F8FC03206940F0200020612D
:1056300000BF00BF00BF206840F02000206020684D
:1056400040F480702060C4F8FC53206940F02000D2
:10565000206100BF00BF00BF206840F02000206034
:10566000206840F480702060206940F40070206160
:10567000206940F480702061206840F020002060A4
:10568000C4F8FC13206940F02000206100BF00BF77
:1056900000BF206840F020002060206840F4807047
:1056A000206041F21800C4F8FC03206940F020009B
:1056B000206100BF00BF00BF206840F020002060D4
:1056C000206840F480702060206940F40070206100
:1056D000206940F480702061206840F02000206044
:1056E000C4F8FC23206940F02000206100BF00BF07
:1056F00000BF206840F020002060206840F48070E7
:10570000206040F27310C4F8FC03206940F02000D0
:10571000206100BF00BF00BF206840F02000206073
:10572000206840F48070206001B0BDE8F08F000078
:1057300070470000FBF7E2B84EF68850CEF200004A
:10574000016841F4700101604FF0006140F8801C75
:105750007047000040F2A800C2F20000FCF7A6B9B2
:1057600040F2E800C2F20000FCF7A0B940F2FF7C72
:105770000268C4F2000C604522DD40F60003C4F26A
:105780000003984225D043F20043C4F2010398423B
:105790001FD042F60043C4F20103984219D043F2ED
:1057A000FF33C4F2010398421DDC60452ADCB0F1EE
:1057B000804F3DD040F20043C4F2000336E000BF0A
:1057C000B0F1804F05D040F20043C4F2000398428C
:1057D000E5D14B6822F070021A4343F2FF33C4F262
:1057E00001039842E1DD44F2FF33C4F20103984221
:1057F00012DC43F20043C4F20103984218D044F291
:10580000000311E040F60003C4F2000398420FD0F9
:1058100042F6004308E000BF44F60003C4F201036F
:10582000984205D044F20043C4F20103984203D1E8
:10583000CB6822F440721A4380B54B6922F0800E87
:105840008A6843EA0E03D1F800C00360C262A0F187
:105850008042A2F59632830543EA9222072AC0F8D5
:1058600028C0BDE8804007D8012303FA02F212F0F5
:10587000E50F1CBF09690163012141617047000008
:10588000816ACA070ED18A0717D44A0720D40A07AB
:1058900029D4CA0632D48A063BD480B54A0644D4F9
:1058A00058E000BF0268D0F82CC0536823F40033DE
:1058B00043EA0C0353608A07E7D50268D0F830C08A
:1058C000536823F4803343EA0C0353604A07DED560
:1058D0000268D0F834C0536823F4802343EA0C03F1
:1058E00053600A07D5D50268D0F838C0536823F44E
:1058F000004343EA0C035360CA06CCD50268D0F8D3
:105900003CC0936823F4805343EA0C0393608A06F7
:10591000C3D50268D0F840C0936823F4005343EA2B
:105920000C03936080B54A0614D50268D0F844C0D1
:105930005368BCF5801F23F4801343EA0C035360C3
:1059400008D1D2F804C0D0F848E02CF4C00343EAF0
:105950000E035360090658BF80BD0168C06C4A68D9
:1059600022F400221043486080BD000070B5044658
:105970000020C4F88800FAF7BBFF216805460A68D2
:1059800012070DD5C86980020AD40026FAF7B0FFC5
:10599000401B2168B6EB506F18D1C8698002F5D55D
:1059A0000868400702D4002619E000BFC869002635
:1059B000400214D4FAF79CFF401B2168B6EB506FED
:1059C00004D1C8694002F5D5EDE700BF0868032699
:1059D00020F4D0700860886820F0010088602020E2
:1059E000C4F88000C4F884000021304684F87C109C
:1059F00070BD0000806A0021A0F85E10A0F856106B
:105A0000FCF770BDB0F860200168D0F88430222B1C
:105A100020D1D1F824C0836D02EA0C0223F8022BB6
:105A20008365B0F85E20013AA0F85E20B0F85E20F1
:105A3000002A18BF70470A6822F490720A608A68C8
:105A400022F001028A602021C0F884100021C16682
:105A5000FCF72EBF886940F008008861704700009D
:105A60002DE9F04381B00446B0F86050D0F88400CE
:105A700022282DD1B4F8686076B34FF6FE78CEF6C2
:105A8000FF784FF02009002703E000BF013E3004FB
:105A900022D02068A16D426A2A4021F8022BA1651C
:105AA000B4F85E100139A4F85E10B4F85E10002955
:105AB000ECD1016821F480710160816801EA08017C
:105AC00081602046C4F88490E766FCF7F1FEDDE7CC
:105AD00020680821183011E0B4F85E0088B1B4F8ED
