:020000040800F2
:10000000E8050020ED010008614700085D340008A4
:100010005D4700084D0800083D730008000000001F
:1000200000000000000000000000000071670008F0
:10003000E108000800000000654700087567000837
:10004000070200080702000807020008070200086C
:10005000070200080702000807020008070200085C
:10006000070200080702000807020008070200084C
:10007000070200080702000807020008070200083C
:10008000070200080000000007020008070200083D
:10009000070200080702000807020008070200081C
:1000A000070200080702000807020008070200080C
:1000B00007020008BD680008C968000807020008B8
:1000C00007020008070200080702000807020008EC
:1000D0000702000831730008070200080702000841
:1000E00007020008070200080702000807020008CC
:1000F00007020008070200080702000800000000CD
:1001000000000000070200080000000007020008CD
:1001100007020008000000000702000807020008AC
:10012000070200080702000807020008070200088B
:10013000070200080000000000000000070200089D
:10014000070200080702000800000000000000008D
:10015000000000000000000000000000000000009F
:10016000000000000000000000000000070200087E
:10017000070200080000000000000000000000006E
:10018000000000000702000800000000000000005E
:10019000000000000000000000000000000000005F
:1001A000000000000000000007020008070200082D
:1001B000070200080702000807020008000000000C
:1001C000000000000702000800000000000000001E
:1001D0000702000807020008DFF80CD000F01EFB41
:1001E0000048004741730008E805002006488047A2
:1001F00006480047FEE7FEE7FEE7FEE7FEE7FEE70C
:10020000FEE7FEE7FEE7FEE7A1680008D901000867
:100210002DE9F05F0546002092469B46884606463B
:10022000814640241BE0284641464746224600F0CE
:100230002DF953465A46C01A914110D3114618461B
:10024000224600F014F92D1A67EB01084F462246AA
:100250000120002100F00BF917EB00094E41201E90
:10026000A4F10104DFDC484631462A464346BDE896
:10027000F09FD2B201E000F8012B491EFBD270477B
:100280000022F6E710B513460A4604461946FFF762
:10029000F0FF204610BD2DE9FE4F804681EA0300A5
:1002A000C00F0C46009021F0004123F00045B8EB50
:1002B0000200A94105D24046214690461C460B4605
:1002C000024623F00040104347D0270DC7F30A0031
:1002D000C3F30A510290401A019040286BDAC3F32D
:1002E000130040F4801B0098924620B10023D2EB0B
:1002F000030A63EB0B0B01985946C0F140025046CC
:1003000000F0B5F806460D4650465946019A00F0F1
:10031000CDF810EB08006141002487EA115284EA0D
:10032000E7731A4340D0009A62B3019A012A4FEA58
:10033000075215DC001B61EB02014FF0004202EA9C
:100340000752CDE90042001C41F5801132462B4690
:1003500000F004F903B0BDE8F08F40462146F9E70C
:10036000001B61EB0201001C41F5801300185B418A
:100370002018A2F5001747EB030140EAD570B61923
:100380006D4111E06D084FEA360645EAC0754FEA47
:100390000752001B61EB0201001C41F58011490866
:1003A0004FEA30000019514132462B4603B0BDE8F8
:1003B000F04F00F0C4B80098012240000023D0EBB9
:1003C000020263EBE073009821464FEAE074B8EB59
:1003D000000061EB0401E9E783F000435BE781F093
:1003E000004158E700F0004230F000400AD0C10D53
:1003F00001F56071C0F3160042EA0151C2084007DE
:100400001143704700200146704701F0004330B4AB
:1004100021F0004150EA010206D00A0DA2F56072F7
:10042000C1F31301002A02DC30BC00207047440FE6
:1004300044EAC104C100E01830BC00EBC25000F037
:1004400047B830B50B46014600202022012409E0C0
:1004500021FA02F59D4205D303FA02F5491B04FA7D
:1004600002F52844151EA2F10102F1DC30BD202A5C
:1004700004DB203A00FA02F1002070479140C2F1FB
:10048000200320FA03F3194390407047202A04DB2D
:10049000203A21FA02F00021704721FA02F3D040FD
:1004A000C2F120029140084319467047202A06DB1A
:1004B000CB17203A41FA02F043EAE07306E041FA32
:1004C00002F3D040C2F12002914008431946704720
:1004D0000029A8BF7047401C490008BF20F0010058
:1004E000704710B4B0FA80FC00FA0CF050EA010436
:1004F00004BF10BC704749B1CCF1200421FA04F4C8
:1005000011FA0CF118BF012121430843A3EB0C01A0
:10051000CB1D4FEA00614FEA102042BF002010BC03
:10052000704700EBC35010440029A4BF10BC7047B3
:10053000401C490008BF20F0010010BC704710B5F6
:10054000141E73F1000408DA401C41F100019218F6
:100550005B411A4301D120F0010010BD2DE9F04D9F
:1005600092469B4611B1B1FA81F202E0B0FA80F2F4
:1005700020329046FFF77BFF04460F4640EA0A0010
:1005800041EA0B0153465A46084313D0114653EA39
:10059000010019D0C8F140025046FFF777FF054629
:1005A0000E46504659464246FFF761FF084305D0C4
:1005B000012004E020463946BDE8F08D00200543C7
:1005C00046EAE0762C4337430A986305E40AA0EB39
:1005D00008000022FD0A44EA47540A3002D50020F0
:1005E0000146E9E7010510196941DDE908450019EF
:1005F0006941BDE8F04DA2E72DE9FE4F81EA030411
:1006000004F0004421F0004100944FF0000B23F06F
:10061000004350EA01045ED052EA03045BD0C3F306
:100620000A54C1F30A552C44A4F2F3340194A0FBFC
:100630000254C1F3130141F48011C3F3130343F4D3
:10064000801301FB024400FB034E840A970A44EA2C
:10065000815447EA8357A4FB076802958D0A05FB7E
:1006600007854FEA932C04FB0C542705029D4FEAA3
:10067000065847EA1637B5EB08056EEB070C870EF0
:10068000920E47EA811742EA8312A7FB0201B6EBFA
:100690000B0164EB00042B0D43EA0C335E1844EBB2
:1006A0001C50DA465146E7FB0201C5F313044FEA3A
:1006B0000B3343EA14534FEA0432019C43EA060326
:1006C000A4F10C040294009CCDE900B4FFF746FFAE
:1006D00003B0BDE8F08F00200146F9E72DE9F04DA9
:1006E00081EA030404F0004B21F0004514464FF06A
:1006F000000A23F0004150EA050220D054EA01022A
:100700001DD0C5F30A570246C5F31303C1F3130006
:10071000C1F30A5640F4801543F48013A7EB060892
:10072000101BD64608F2FD3873EB050002D308F122
:10073000010801E092185B41B8F1000F03DA0020D4
:100740000146BDE8F08D00204FF480110646844636
:100750000EE0171B73EB050705D3121B63EB0503B4
:1007600006434CEA010C49084FEA300092185B41FD
:1007700050EA0107EDD152EA030012D082EA0400E8
:1007800083EA0501084305D0101BAB4106D20122C4
:10079000002306E000224FF0004302E06FF0010268
:1007A00053101AEB06004CEB085110EB0A0041EB1A
:1007B0000B01BDE8F04DFFF7C2BEC1F30A52C1F311
:1007C000130140F2FF3341F480119A4202DA002013
:1007D0000146704740F233439A42A2F2334202DCB0
:1007E0005242FFF753BEFFF742BE000030B5041E71
:1007F00071F1000404DB4FF00044404264EB01015E
:10080000141E73F1000405DB1C464FF000435242F6
:1008100063EB0403994208BF904230BD1CB5094800
:100820000090094801900546009C06E0E06840F011
:10083000010394E8070098471034AC42F6D3FFF761
:10084000CFFC0000548F0008748F0008FEE7000002
:1008500010B540F60044C4F60004A4F580630A46CF
:100860000102184600F046FD20460421012200F056
:1008700041FD204604210022BDE8104000F03ABDB1
:1008800010B540F60044C4F60004A4F580604FF4AF
:100890007F41012200F02EFD20460421012200F0BC
:1008A00029FD204604210022BDE8104000F022BDB1
:1008B00010B540F60044C4F60004A4F580604FF47F
:1008C0007F41012200F016FD20460421012200F0A4
:1008D00011FD204604210022BDE8104000F00ABDB1
:1008E0007047000010B540F2B610C2F20000007868
:1008F000AB214143490A01EB4101401AC0B240F229
:10090000B814C2F2000401282AD000285AD15BA1F1
:10091000D1E90123D1E9030EDFF860C1C4E9023057
:10092000087D214620751820C4E900C2C4F810E0F3
:1009300003F04EFA40F25800C2F20000027848F686
:100940002871C0F60001204606F03EFD48202146F1
:1009500003F03EFA40F25900C2F2000059E000BF35
:1009600034A1D1E90123D1E9030EDFF8C8C0C4E9FD
:100970000230087D214620751820C4E900C2C4F861
:1009800010E003F025FA40F2DC10C2F2000000682B
:10099000FFF728FD02460B462CA1204606F014FD69
:1009A0004820214603F014FA40F2E010C2F20000A1
:1009B0000068FFF717FD02460B462AA1204606F005
:1009C00003FD2EE033A1D1E90123D1E9030EDFF8C5
:1009D000C4C0C4E90230087D214620751820C4E94E
:1009E00000C2C4F810E003F0F3F940F2D110C2F2F3
:1009F0000000027848F62871C0F60001204606F093
:100A0000E3FC4820214603F0E3F940F2D210C2F2A1
:100A10000000027848F63E71C0F60001204606F05C
:100A2000D3FC40F2B811C2F200016020BDE81040D2
:100A300003F0CEB92020202020202020505249430E
:100A40004520202020202020000000002020202001
:100A500020583A252E3166202020202020202020DA
:100A6000200000002020202020593A252E31662029
:100A700020202020202020202000000020202020D6
:100A80002020202053484F502020202020202020AC
:100A9000000000002020202020202020524550204F
:100AA00020202020202020200000000040F2100004
:100AB000C2F200000078012818BF7047F0B581B07D
:100AC00040F60044C4F6000440F2D410C2F2000024
:100AD0000027A4F58065078028464FF47F41012256
:100AE000012600F007FC20460421012200F002FC50
:100AF00020460421002200F0FDFB28464FF48071BF
:100B0000002200F0F7FB20460421012200F0F2FB56
:100B100020460421002200F0EDFB40F25C00C2F20E
:100B2000000000684FF49671416340F2D11040F22A
:100B3000D211C2F20000C2F2000100780978084325
:100B400019D140F2B510C2F20000077028464FF4E8
:100B50000071002200F0CEFB20460421012200F0AB
:100B6000C9FB20460421002200F0C4FB40F2A8107B
:100B7000C2F20000067040F29C00C2F2000001B018
:100B8000BDE8F04001F0D2BBB0B582B00DF1050177
:100B9000A420032200F048F89DF80500442841D025
:100BA0009DF8060055283DD09DF80700662839D0ED
:100BB00001AC0A250020214601228DF8045000F0E6
:100BC000B7F90A2000F0B4FA01202146012200F012
:100BD000AFF90A2000F0ACFA02202146012200F011
:100BE000A7F90A2000F0A4FA03202146012200F010
:100BF0009FF90A2000F09CFA40F2D210C2F20000E5
:100C0000057040F2D110C2F20000057040F2E01011
:100C1000C2F200004FF07E51016040F2DC10C2F2DF
:100C20000000016002B0B0BDF0B581B040F22847CD
:100C3000C4F6000757F8103C064643F0800347F817
:100C4000103C57F8103C154643F0400347F8103C61
:100C50003B680C4643F080033B603B6843F0400335
:100C60003B603B6843F040033B6057F8103C43F067
:100C7000800347F8103C57F8103C43F0400347F816
:100C8000103C3B6843F040033B603B6843F080030B
:100C90003B6057F8103C43F0400347F8103C3B687A
:100CA00043F040033B6057F8103C43F0800347F8A3
:100CB000103C57F8103C43F0400347F8103C3B68A9
:100CC00043F040033B603B6843F080033B6057F8D0
:100CD000103C43F0400347F8103C3B6843F04003AE
:100CE0003B603B6843F080033B6057F8103C43F0A7
:100CF000400347F8103C3B6843F040033B603B68CF
:100D000043F080033B6057F8103C43F0400347F842
:100D1000103C3B6843F040033B603B6843F080037A
:100D20003B6057F8103C43F0400347F8103C3B68E9
:100D300043F040033B603B6843F08000386057F865
:100D4000100C40F0400047F8100C386840F04000AC
:100D5000386002F019FD304602F060FC02F014FD2C
:100D6000386840F040003860386840F080003860F3
:100D700057F8100C40F0400047F8100C57F8100CD2
:100D800040F0800047F8100C57F8100C40F080003D
:100D900047F8100C57F8100C40F0400047F8100CC2
:100DA000386840F080003860386840F040003860B3
:100DB000386840F04000386057F8100C40F0800070
:100DC00047F8100C57F8100C40F0400047F8100C92
:100DD000386840F040003860386840F08000386083
:100DE00057F8100C40F0400047F8100C386840F0FD
:100DF0004000386057F8100C40F0800047F8100CA5
:100E000057F8100C40F0400047F8100C386840F0DC
:100E100040003860386840F08000386057F8100CA7
:100E200040F0400047F8100C386840F0400038604F
:100E3000386840F08000386057F8100C40F04000EF
:100E400047F8100C386840F040003860386840F0CF
:100E50008000386057F8100C40F0400047F8100C44
:100E6000386840F040003860386840F080003860F2
:100E700057F8100C40F0400047F8100C386840F06C
:100E80004000386057F8100C40F0800047F8100C14
:100E900057F8100C40F0400047F8100C386840F04C
:100EA0004000386002F070FC65B3013D02F0ECFADE
:100EB0002906207016D0013C3868013D40F08000C2
:100EC000386057F8100C40F0400047F8100C3868B4
:100ED00040F04000386002F0D7FAA070280604F114
:100EE0000104E9D157F8100C40F0800047F8100CCD
:100EF00057F8100C40F0400047F8100C386840F0EC
:100F000040003860386840F040003860386840F091
:100F10008000386057F8100C40F0400047F8100C83
:100F200057F8100C40F0800047F8100C01B0F0BDED
:100F3000F0B581B040F22847C4F6000757F8103CDE
:100F4000064643F0800347F8103C57F8103C14461F
:100F500043F0400347F8103C3B680D4643F08003E4
:100F60003B603B6843F040033B603B6843F0400319
:100F70003B6057F8103C43F0800347F8103C57F8AB
:100F8000103C43F0400347F8103C3B6843F04003FB
:100F90003B603B6843F080033B6057F8103C43F0F4
:100FA000400347F8103C3B6843F040033B6057F870
:100FB000103C43F0800347F8103C57F8103C43F0D6
:100FC000400347F8103C3B6843F040033B603B68FC
:100FD00043F080033B6057F8103C43F0400347F870
:100FE000103C3B6843F040033B603B6843F08003A8
:100FF0003B6057F8103C43F0400347F8103C3B6817
:1010000043F040033B603B6843F080033B6057F88C
:10101000103C43F0400347F8103C3B6843F040036A
:101020003B603B6843F080033B6057F8103C43F063
:10103000400347F8103C3B6843F040033B603B688B
:1010400043F08000386057F8100C40F0400047F83B
:10105000100C386840F04000386002F095FB3046D4
:1010600002F0DCFA02F090FB4CB1013D15F8010FE3
:10107000013C02F0D3FA02F087FB2006F6D1386873
:1010800040F040003860386840F08000386057F821
:10109000100C40F0400047F8100C57F8100C40F0CE
:1010A000800047F8100C01B0F0BD00007047000050
:1010B00090F82510022931D180B50168D0E910CE11
:1010C000826C0B6823F00E030B600B6823F00103A6
:1010D0000B60116821F4807111600EF01F02012174
:1010E00001FA02F2CCF80420D0E913325A60426DC2
:1010F00032B1136823F480731360D0E91623536070
:1011000080F82510826B002180F824100AB19047E6
:101110000021BDE880400846704700BF0421C1633C
:101120000121002280F8251080F82420084670470D
:10113000B0B5044600F0E4F8054640F20000C2F203
:1011400000004068611C18BF044400BF00F0D8F8DC
:10115000401BA042FAD3B0BD0A68002A08BF7047FE
:101160002DE9F04F82B041F2004500F13847860585
:10117000C4F60005062340F2004E46EA9724A84232
:1011800008BF0523C4F2010E052C38BF23460024F6
:101190004FF0010B00260027009309E00A68013791
:1011A00032FA07F306F1040604F1020400F0988015
:1011B0000BFA07F912EA0908F0D04A6842F0100564
:1011C000122D13D16FF0030202EA57020244D2F843
:1011D00020A006F01C030F25D1F810C09D402AEA7C
:1011E00005050CFA03F32B4313624A6803680325D1
:1011F000A5406FEA050AAB4302F00305A5402B4367
:10120000122A036012D80BFA02F313F0061F0DD056
:101210008368CD6803EA0A03A5402B4383604368D3
:10122000150923EA0903BD402B434360C3688D6859
:1012300003EA0A03A5402B43D200C360AED541F2B6
:101240006003C4F202031A684FF6084942F0010233
:101250001A601A68CFF6FF7902F001020192019A32
:1012600027F00302724452F809C006F00C050F2360
:10127000AB402CEA030C009B03FA05F545EA0C038E
:1012800042F80930DEF800C04B684CEA0805DA0382
:1012900058BF2CEA0805CEF80050DEF804C09A03C7
:1012A0004CEA080558BF2CEA0805CEF80450DEF8D1
:1012B00008C0DA024CEA080558BF2CEA080540F2DB
:1012C0000C4CCEF80850C4F2010CDCF800209B0254
:1012D00042EA080558BF22EA0805CCF800505DE74D
:1012E00002B0BDE8F04F70470069084018BF012008
:1012F000704700001823002A08BF2823C1507047F8
:1013000040F2D810C2F200000068704740F20000BE
:1013100040F2D811C2F20000C2F2000140680A682F
:10132000104408607047000080B5032000F092F878
:10133000002000F009F800281CBF012080BD00F04B
:1013400029F8002080BD000070B540F20006C2F20E
:1013500000067168E1B1044640F20C00C2F20000E0
:101360004FF47A720068B2FBF1F1B0FBF1F000F0DB
:10137000ADFE0F2C4FF0010508D838B94FF0FF3003
:1013800021460022002500F039F83460284670BD5F
:10139000012070BD82B041F25800C4F202008168A1
:1013A00041F001018160816801F001010191019921
:1013B000016841F080510160006800F080500090A9
:1013C000009847F20800C4F20000016821F480414F
:1013D000016002B070470000002848BF704700F06D
:1013E0001F01012202FA01F11C2202EAD0004EF292
:1013F0000012CEF2000281507047000010B54EF688
:101400000C5CCEF2000CDCF80030C3F3022E8EF040
:101410000704042C28BF0424BEF103034FF0FF3E51
:101420000EFA04F438BF0023A14399400EFA03F3E7
:101430009A43114300F00F0200F160430901043A9E
:1014400003F564436244002848BF02F10C0319709D
:1014500010BD00004EF60C51CEF200010A684FF6A6
:10146000FF031A4060F30A2242F0806040F0FD70F2
:1014700008607047B0F5007F42D0002840F08080BF
:1014800047F21400C4F2000050F8141CC26E01F4BC
:10149000C06122F48072B1F5806FC2662ED150F81F
:1014A000141C012262F34A2140F8141C40F20C0182
:1014B000C2F200010968322251434DF68362C4F240
:1014C0001B32A1FB0212910C0268520511D54A1C75
:1014D0000FD0026852050CD559B10268520508D5E3
:1014E000012906D00268520503D50229A1F10401A1
:1014F000EAD10068400544BF0320704700207047D0
:1015000047F21400C4F2000050F8141CC26E01F43B
:10151000C06142F48072B1F5806FC266EED150F8BE
:10152000141C012262F34A2140F8141C40F20C0101
:10153000C2F200010968322251434DF68362C4F2BF
:101540001B32A1FB0212910C0268520511D54A1CF4
:101550000FD0026852050CD559B10268520508D562
:10156000012906D00268520503D50229A1F1040120
:10157000EAD10068400544BF03207047BEE700BFC2
:1015800047F21400C4F2000050F8141C022262F367
:101590004A2140F8141C0020704700002DE9F0415A
:1015A00082B00446807841F288060007C4F2020641
:1015B00002D400202FE000BF56F8300C5FEAC008CC
:1015C0000BD456F8300C40F0805046F8300C56F8EA
:1015D000300C00F080500190019847F20007C4F2EF
:1015E0000007386840F480703860FFF789FE0546D0
:1015F0003868C00500F1D680FFF782FE401B022844
:10160000F6D90320B8F1000F05D456F8301C21F0AC
:10161000805146F8301C2168CA0713D18A0719D4B3
:101620004A071FD40A0725D48A062BD44A0631D488
:101630000A0637D4CA053DD48A0543D44A0549D49D
:1016400057E000BF3268636822F003021A43326039
:101650008A07E5D53268A36822F00C021A4332608B
:101660004A07DFD53268E36822F030021A4332605D
:101670000A07D9D53268236922F0C0021A433260C2
:101680008A06D3D53268636922F440621A43326015
:101690004A06CDD53268A36922F440521A4332601B
:1016A0000A06C7D53268E36922F440421A43326021
:1016B000CA05C1D53268236A22F440321A43326027
:1016C0008A05BBD53268636A22F440221A4332602D
:1016D0004A050ED53268A36A22F440121A43B3F5C4
:1016E000801F326005D156F87C2C42F4801246F8F7
:1016F0007C2C0A050ED53268E36A22F440021A43B4
:10170000B3F5800F326005D156F87C2C42F480127C
:1017100046F87C2CCA040ED53268236B22F0407246
:101720001A43B3F1807F326005D156F87C2C42F425
:10173000801246F87C2C8A040ED53268636B22F046
:1017400040621A43B3F1006F326005D156F87C2C29
:1017500042F4801246F87C2C4A040ED53268A36B02
:1017600022F040621A43B3F1006F326005D156F89F
:101770007C2C42F4801246F87C2C09040ED531688A
:10178000E26B21F040511143B2F1805F316005D12D
:1017900056F87C1C41F4803146F87C1C02B0BDE850
:1017A000F08100BFB06810F4407010D0216C884206
:1017B0000BD0B068B16820F4407041F48031B16062
:1017C000B16821F48031B160B060C0070CD1B0685D
:1017D000216C20F440700843B0600020B8F1000F85
:1017E0003FF519AF11E700BFFFF78AFD054641F24B
:1017F000883700BFB0688007E9D4FFF781FD401B40
:10180000B842F7D9FDE600002DE9F047002865D081
:1018100042F2000AC4F2020A0446DAF800000D4659
:1018200000F00F0088420CD2DAF8000020F00F0020
:101830002843CAF80000DAF8000000F00F00A842C0
:101840004CD1216841F20808C807C4F2020803D14C
:10185000880740F1D480B9E0606802283AD00328B4
:1018600040D158F8082C920138D5D8F80420D8F87F
:10187000043042F20046C3F3031302F00302D8F827
:1018800004700133C0F2F406032A04BF43F2006679
:10189000C0F26E16B6FBF3F2D8F80430C7F3062791
:1018A0007A43C3F34163022707EB4303B2FBF3F22E
:1018B0004BF20043C0F2C4439A425DD9D8F80020ED
:1018C00012F0F00F4DD0890756D5A168002953D1E9
:1018D00047E000BF58F8081C890307D40120BDE881
:1018E000F08700BF58F8081C4905F7D5D8F8001054
:1018F00001F00C0104293FD0D8F8001001F00C01D0
:10190000082939D0D8F8001001F00C010C2933D186
:10191000D8F80410D8F8042042F20047C2F30312AA
:1019200001F00301D8F804300132C0F2F4070329B2
:1019300004BF43F20067C0F26E17B7FBF2F1D8F8AC
:101940000420C3F306235943C2F34162022303EB8D
:101950004202B1FBF2F14BF20042C0F2C4429142AA
:101960000AD9D8F80010082262F307114FF00109D4
:10197000C8F8001002E000BF4FF00009D8F80010CE
:1019800021F003010843C8F80000FFF7B9FC064640
:1019900041F28837D8F80000616800F00C00B0EB25
:1019A000810F07D0FFF7ACFC801BB842F2D90320AF
:1019B000BDE8F0872168880708D4B9F1000F1ED070
:1019C000D8F8000020F0F00017E000BF480705D568
:1019D000D8F8000040F4E060C8F80000080706D519
:1019E000D8F80000072262F30D20C8F80000D8F8EC
:1019F0000000A26820F0F0001043C8F80000DAF8F8
:101A0000000000F00F00A8421BD9DAF8000020F017
:101A10000F002843CAF80000FFF772FC064641F2A7
:101A2000883700BFDAF8000000F00F00A84207D0A6
:101A3000FFF766FC801BB842F4D90320BDE8F087AD
:101A40002168480707D5D8F80000E26820F4E06074
:101A50001043C8F80000080708D5D8F8000021692D
:101A600020F4605040EAC100C8F80000D8F8000037
:101A700042F20041C0F2F40100F00C0004280846D4
:101A80002DD0D8F8000000F00C00082843F20060C8
:101A9000C0F26E1023D0D8F8002002F00C020C2AFD
:101AA0001CD1D8F80420D8F8043002F00302C3F3A4
:101AB0000313D8F804700133032A08BF0146B1FBB1
:101AC000F3F0D8F80410C7F30627C1F341610222EE
:101AD000784302EB4101B0FBF1F000E00020D8F8C0
:101AE000001047F60E52C1F30311C0F60002515C1C
:101AF00040F20C0201F01F0120FA01F140F2000057
:101B0000C2F200000068C2F200021160BDE8F047B6
:101B1000FFF71ABC40F20C0041F20801C2F20000CB
:101B2000C4F202010068096847F61E52C1F302219F
:101B3000C0F60002515C01F01F01C8407047000070
:101B400040F20C0041F20801C2F20000C4F20201AE
:101B50000068096847F61E52C1F3C221C0F60002B0
:101B6000515C01F01F01C8407047000041F20C01B8
:101B7000C4F2020151F8040C42F20042C0F2F40235
:101B800000F00C000428104608BF704751F8040C00
:101B900000F00C00082843F20060C0F26E1025D05F
:101BA00051F8043C03F00C030C2B1CBF00207047C1
:101BB00080B5D1F800C00B680CF0030CC3F3031E12
:101BC0000B680EF1010EBCF1030F08BF0246096855
:101BD000B2FBFEF0C3F30623C1F341610222584376
:101BE00002EB4101B0FBF1F0BDE88040704700001E
:101BF000002804BF012070472DE9F04182B004465F
:101C0000007841F20006C007C4F202061ED1207817
:101C100080073DD42078000764D42078400700F185
:101C200087802078800600F1D980E069002800F0E4
:101C3000C581B16801F00C010C2940F03181012807
:101C400040F08481012002B0BDE8F081B06800F06E
:101C50000C01F068082961D0032281F00C0122EA0E
:101C600000000844B0FA80F0400957D16068B0F530
:101C7000803F07D0B0F5A02F40F0E480306840F4FA
:101C800080203060306840F480303060E5E000BF94
:101C9000B068F16800F00C00042871D001F0030175
:101CA00080F00C0081F002010844B0FA80F0400995
:101CB00066D1E1683068002900F0E08040F480706F
:101CC0003060FFF71DFB05463068400500F1FE80DF
:101CD000FFF716FB401B0228F6D9032002B0BDE82F
:101CE000F08100BF6169D6F89400002900F094806B
:101CF00040F00100C6F89400FFF702FB054600BF64
:101D0000D6F8940080073FF588AFFFF7F9FA401B3B
:101D10000228F5D9032002B0BDE8F08130688003C5
:101D20007FF575AF606800287FF471AF3EE000BFBB
:101D3000B06D5FEAC00808D4B06D40F08050B06567
:101D4000B06D00F080500190019847F20007C4F296
:101D500000073868C0052DD4386840F480703860BA
:101D6000FFF7CEFA054600BF3868C00522D4FFF75A
:101D7000C7FA401B0228F7D9032002B0BDE8F08162
:101D80003068400501D5E06880B17068216920F0B5
:101D9000FE4040EA0160706040F20000C2F20000C4
:101DA0000068FFF7D1FA00283FF434AF012002B0F9
:101DB000BDE8F081A068012808D0052840F0A48083
:101DC000D6F8900040F00400C6F89000D6F89000D5
:101DD00040F00100C6F89000A4E000BFA169D6F869
:101DE0009800002900F07A8040F00100C6F89800C1
:101DF000FFF786FA054600BFD6F8980080073FF542
:101E000014AFFFF77DFA401B02284FF00300F3D90F
:101E100002B0BDE8F08100BF20F00100C6F89400D8
:101E2000FFF76EFA054600BFD6F8940080077FF5ED
:101E3000F4AEFFF765FA401B0228F5D9032002B083
:101E4000BDE8F0813168002821F4803131603168CB
:101E500021F48021316000F0CF80FFF751FA054670
:101E6000306880033FF5D3AEFFF74AFA401B642881
:101E7000F6D9032002B0BDE8F08100BF20F48070E5
:101E80003060FFF73DFA0546306840057FF5C2AE89
:101E9000FFF736FA401B02284FF00300F4D9B7E7EA
:101EA0003168022821F08071316040F08B80FFF7AB
:101EB00027FA05463068800140F1CA80FFF720FA12
:101EC000401B02284FF00300F4D9A1E77068216994
:101ED00020F0FE4040EA016070609BE620F00100C7
:101EE000C6F89800FFF70CFA054600BFD6F8980030
:101EF00080077FF59AAEFFF703FA401B02284FF0E8
:101F00000300F3D984E700BFD6F89010002821F031
:101F10000101C6F89010D6F8901021F00401C6F81F
:101F2000901079D0FFF7ECF9054641F2883700BFF1
:101F3000D6F89000800700F18180FFF7E1F9401B9F
:101F4000B842F5D9032002B0BDE8F081F068216AFB
:101F500000F003028A427FF429AF626A6FF00F0338
:101F600000F0F00103EB021291427FF41FAFA16A6F
:101F700000F4FE42B2EB012F7FF418AFE16A00F0EB
:101F80007842B2EBC16F7FF411AF226B0023CFF622
:101F9000E07303EA025200F4C001A2F5001291427C
:101FA0007FF404AF616B4FF07E4202EA016100F002
:101FB000C06001F17E4188427FF4F8AE002002B09B
:101FC000BDE8F081F0684FF6FF7120F00300F0608B
:101FD000F068CFF6EE610840F060FFF791F9044633
:101FE00030688001EAD5FFF78BF9001B02284FF01B
:101FF0000300F5D90CE700BFFFF782F9054600BFE3
:10200000306880037FF503AEFFF77AF9401B642840
:102010004FF00300F4D9FBE6FFF772F9054641F2F1
:10202000883700BFD6F89000800707D5FFF768F91A
:10203000401BB8424FF00300F4D9E9E6B8F1000FB5
:102040003FF5EFADB06D20F08050B065E9E500BF21
:10205000F06848F20C01C0F29F1104F1200700EA79
:10206000010C8ECF6FF00F00D4E90C5400EB02107E
:102070000022CFF6E07241EA0C0102EA0552084361
:10208000A2F500124FF07E4540EA032005EA046500
:10209000104305F17E4540EAC7602843F060306890
:1020A00040F080703060F06840F08070F060FFF7C2
:1020B00027F90446306880013FF580AFFFF720F92B
:1020C000001B02284FF00300F4D9A1E6411E0020B6
:1020D000B0EB116F1CBF012070474EF21002CEF220
:1020E000000251604EF62351CEF20001F0230B7036
:1020F0000721906011607047704700007047000032
:102100007047000090F83C20012A04BF022070476D
:10211000F0B5D1E90232D1E900CE22F47C5223F4A9
:1021200070531A4348F2FF73CFF6F07303EA0E03BD
:1021300042EA030E0A692CF477234EEA030C22F4D8
:1021400076224B6942EA0C021A430B6B22F4742C80
:1021500023F470238A6943EA0C0343EA02430268CA
:1021600043F2004EC4F2010E42F6004C7245C4F236
:10217000010C01D0624503D1CC6923F08053234385
:10218000724501D0624517D101F12006002770CEBB
:10219000CFF6F04723F07C7307EA0656334324F06A
:1021A00000742343724543EA050301D0624503D11D
:1021B000C96A23F000530B430021536480F83C109C
:1021C000BDE8F040084670477047000070470000C7
:1021D0007047000090F83C20012A4FF002022ED0F8
:1021E00010B580F83D20026843F20043D2F804E0C5
:1021F000D2F808C0C4F201039A4205D042F6004367
:10220000C4F201039A4204D14C682EF4700344EAEC
:10221000030E4FF68F73CFF6FF530C6803EA0E03DD
:10222000896823432CF0800421435360916001218D
:10223000002280F83D1080F83C20BDE81040104698
:102240007047000070470000002804BF012070475D
:1022500010B5044690F83D0028B9002084F83C00F1
:10226000204600F00DF8022084F83D002068211D72
:1022700004F030FB012084F83D00002010BD000078
:1022800080B584B0006844F20041C4F20101884284
:1022900024D040F60001C4F2000188422ED040F262
:1022A0000041C4F20001884225D141F25800C4F235
:1022B00002000168002241F0020101600068002173
:1022C00000F00200039003981D20FFF797F81D20EF
:1022D00004B0BDE88040FFF77FB800BF41F258006E
:1022E000C4F20200816841F400318160806800F42A
:1022F00000300190019804B080BD00BF41F2580049
:10230000C4F202000168002241F00401016000688B
:10231000002100F00400029002981E20FFF76EF8E2
:102320001E2004B0BDE88040FFF756B800680722C1
:10233000C168C0F2010241F00101C1608168114031
:10234000062902D0B1F5803F02D10020704700BFBE
:10235000016841F001010160002070470146022040
:1023600081F83D00086841F21113026A1A4205D053
:102370000122002081F83D20704700BF026A44F22C
:1023800044431A42F4D1026822F0010202600122A1
:10239000002081F83D20704790F83C20012A4FF042
:1023A000020200F0B78080B580F83D20D0F800C070
:1023B0008822DCF80830CFF6CE721A40CCF808201C
:1023C0000B686F2B22DD2F22C0F21002934247DCF4
:1023D000B3F1101F56DA702B00F0C080B3F5005F28
:1023E00040F09080D1E901E3C968DCF8082043EAB5
:1023F0000E0322F47F4243EA01211143CCF8081076
:10240000DCF8081041F480417AE000BF2F2B33DD67
:102410004F2B3BDC302B69D0402B73D1D1F804E03B
:10242000C968DCF82030DCF8202022F00102CCF86A
:102430002020DCF8182022F0F00242EA011123F0FB
:102440000A0242EA0E02CCF81810CCF82020DCF880
:1024500008104FF68872CFF6CF72114047314FE027
:102460005F21C0F210018B4236DC3021C0F2100136
:102470008B423BD0402135E0C3B3102B36D0202B0C
:1024800034D03FE032D020212CE000BF502B43D08D
:10249000602B37D1D1F804E0C968DCF8203023F094
:1024A0001003CCF82030DCF81830DCF8202023F4BE
:1024B000704322F0A00243EA013142EA0E12CCF846
:1024C0001810CCF82020DCF808104FF68872CFF6F0
:1024D000CF721140673113E06021C0F210018B42CE
:1024E00004D07021C0F210018B420BD1DCF808102F
:1024F0004FF68872CFF6CF721140194341F00701B1
:10250000CCF808100121002280F83D1080F83C2012
:10251000BDE8804010467047D1F804E0C968DCF897
:102520002030DCF8202022F00102CCF82020DCF85A
:10253000182022F0F00242EA011123F00A0242EAD6
:102540000E02CCF81810CCF82020DCF808104FF65A
:102550008872CFF6CF7211405731D1E7D1E901E34C
:10256000C968DCF8082043EA0E0322F47F4243EAFC
:1025700001211143CCF80810DCF8081041F0770174
:10258000BEE700007047000010B501680446086906
:10259000800744BFC8685FEA807061D4086940075B
:1025A00044BFC8685FEA407066D40869000744BF4A
:1025B000C8685FEA00706DD40869C00644BFC86887
:1025C0005FEAC06072D40869C0071CBFC8685FEAD0
:1025D000C07079D10869000644BFC8685FEA00602E
:1025E0007AD40869C00544BFC8685FEA006000F19A
:1025F0007B800869400644BFC8685FEA406000F11C
:102600007B800869800644BFC8685FEA806000F18B
:102610007B800869C00244BFC8685FEAC02000F13F
:102620007B800869800244BFC8685FEA802000F1AF
:102630007B800869400244BFC8685FEA402000F11F
:102640007B800869000246BFC8685FEA002010BDB1
:102650006FF4000220460A61BDE81040FFF7F2BDAA
:102660006FF00200086101202077886980076BD035
:102670002046FFF787FF6DE06FF00400086102203D
:102680002077886910F4407F68D02046FFF77AFFF2
:102690006AE000BF6FF00800086104202077C86975
:1026A000800765D02046FFF76DFF67E06FF01000F0
:1026B000086108202077C86910F4407F62D0204666
:1026C000FFF760FF64E000BF6FF001000861204683
:1026D00000F0AAFA21687DE76FF0800008612046CB
:1026E000FFF70CFD21687CE76FF4807008612046DD
:1026F000FFF702FD21687CE76FF04000086120468B
:1027000000F098FB21687CE76FF02000086120460C
:10271000FFF7F6FC21687CE76FF480100861204623
:10272000FFF754FD21687CE76FF400100861204634
:10273000FFF74AFD21687CE76FF4800008612046BE
:10274000FFF746FD21687CE7204600F025F820468B
:1027500000F02EFA2168002020771FE7204600F0C5
:102760001BF8204600F024FA2168002020771CE79F
:10277000204600F011F8204600F01AFA21680020E7
:10278000207719E7204600F007F8204600F010FAFD
:1027900021680020207716E77047000090F83C3051
:1027A000012B4FF0020300F0E2814FEAB202052A4A
:1027B00080F83D3000F2D5812DE9F041DFE812F0DC
:1027C00006005400A800FC0050018E0103681A6A3C
:1027D000A3F1804622F001021A621D6A1A46A6F58C
:1027E00096369F05D3F804C052F818EF47EA9626AC
:1027F0008F68D1F8008025F00205072E45EA07050D
:102800000AD80127B74017F0E50F1FBFCF6825F0A2
:102810000C0527F004073D43072E0CD8012707FAC3
:1028200006F616F0E50F1FBFD1E905672CF44074DA
:10283000264346EA070C4FF68C74CFF6FE740EEA78
:10284000040747EA0807C3F804C09F614F68096995
:102850005F631D629F6947F008079F619F6927F0CA
:1028600004079F6178E100BF036843F200461A6ADB
:10287000C4F2010622F010021A621D6A1A46D3F849
:1028800004C052F8188FB3428E68D1F800E025F0EA
:10289000200545EA061505D042F60046C4F20106B9
:1028A000B34207D1CE686FF0400725F0C00507EAB4
:1028B00006163543A3F18046A6F596369F0547EAEE
:1028C0009626072E0CD8012707FA06F616F0E50F14
:1028D0001FBFD1E905672CF44064374344EA870CF5
:1028E00048F6FF44CFF6FF6404EA080444EA0E27E2
:1028F000C3F804C09F614F6809699F631D629F69A7
:1029000047F400679F619F6927F480679F6122E118
:10291000036843F200461A6AC4F2010622F4807288
:102920001A621D6A1A46D3F804C052F81C8FB342CB
:102930008E68D1F800E025F4007545EA062505D03B
:1029400042F60046C4F20106B34207D1CE6840F217
:10295000FF47360225F44065BE433543A3F1804668
:10296000A6F596369F0547EA9626072E0CD801272E
:1029700007FA06F616F0E50F1FBFD1E905672CF43C
:102980004054374344EA071C4FF68C74CFF6FE746C
:1029900004EA080444EA0E07C3F804C0DF614F6884
:1029A0000969DF631D62DF6947F00807DF61DF69DE
:1029B00027F00407DF61CFE0036843F200461A6A9C
:1029C000C4F2010622F480521A621D6A1A46D3F834
:1029D00004C052F81C8FB3428E68D1F800E025F491
:1029E000005545EA063505D042F60046C4F2010618
:1029F000B34207D1CE6844F6FF77360325F440454D
:102A0000BE433543A3F18046A6F596369F0547EAB7
:102A10009626072E0CD8012707FA06F616F0E50FC2
:102A20001FBFD1E905672CF44044374344EA871CB3
:102A300048F6FF44CFF6FF6404EA080444EA0E2790
:102A4000C3F804C0DF614F6809691F641D62DF6954
:102A500047F40067DF61DF6927F48067DF617AE0B0
:102A600003681A6AA3F1804722F480321A621A4678
:102A7000A7F596379C05D3F820805D6852F850EF93
:102A8000D1F800C08E6844EA9727072F09D801249F
:102A9000BC4014F0E50F1EBF4C6925F4803545EAB3
:102AA000042528F4003444EA06444FF68C76CFF629
:102AB000FE7603360EEA060747EA0C075D601F65DF
:102AC0004F6809699F641C621F6D47F008071F6506
:102AD0001F6D27F004071F653EE000BF03681A6AF8
:102AE000A3F1804722F480121A621A46A7F596379E
:102AF0009C05D3F820805D6852F850EFD1F800C0F3
:102B00008E6844EA9727072F09D80124BC4014F0A7
:102B1000E50F1EBF4C6925F4802545EA842528F47D
:102B2000001444EA065448F6FF46CFF6FF6606F561
:102B300040760EEA060747EA0C275D601F654F687E
:102B40000969DF641C621F6D47F400671F651F6D14
:102B500027F480671F650902136819431160BDE8F7
:102B6000F0410121002380F83D1080F83C301846E8
:102B700070470000002804BF0120704710B50446CC
:102B800090F83D0028B9002084F83C00204600F071
:102B90000DF8022084F83D002068211D03F09AFE04
:102BA000012084F83D00002010BD000070470000A7
:102BB00070470000006801F01F024FF0010C036A2B
:102BC0000CFA02F293430362036A81051343A0F1F6
:102BD0008042A2F5963241EA9222062A03621BD86D
:102BE0000CFA02F111F0650F16D0416C41F400416E
:102BF000416481680722C0F201021140062902D017
:102C0000B1F5803F02D10020704700BF016841F05C
:102C1000010101600020704744F60001C4F2010187
:102C20008842E6D1E1E7000070B540F20044C4F606
:102C300000040546006804F1784101F5806188428E
:102C400006D004F17841884200F0838070BD00BF57
:102C500020460121FEF748FB40F2A916C2F2000609
:102C6000307020460221FEF73FFBF0702046042121
:102C7000FEF73AFBB0714FF090400121FEF734FBB4
:102C800071787072022909D001291BD069B9317895
:102C900059B901217170317949B91CE031780129A4
:102CA00004BF4FF48071A6F80110317999B1012960
:102CB00016D002291AD1F178012904BF4FF480718E
:102CC000B18013E03178002914BF00210221717016
:102CD00031790029EBD1F17841B9012105E000BF3C
:102CE000F17800290CBF022100213171F17959B12D
:102CF00001290DD0022911D1B179012904BF4FF466
:102D00008071A6F8071009E0B17939B9012104E012
:102D1000B17900290CBF02210021F171B17A49B1CA
:102D200001290BD002290ED1012804BF4FF4807075
:102D3000708108E038B9012004E000BF00280CBF12
:102D400002200020B072286804F1784188427FF4A4
:102D50007DAF40F21004C2F2000440F2A8112078C6
:102D6000C2F200010978012808BF012914D0012806
:102D700008BF002932D0002808BF01294AD00843E3
:102D80007FF464AFFDF77CFD40F29C00C2F20000CE
:102D9000BDE87040FFF7E2BA40F2D415C2F2000578
:102DA000288801302880FDF76BFD40F2B510C2F293
:102DB0000000017881F0010101700220FDF748FD5B
:102DC000288832287FF442AFFDF75AFD0120012107
:102DD000FDF73EFD0020207070BD00BF40F2D41012
:102DE000C2F20000018801318AB2322A018018BF84
:102DF00070BDFDF745FD01200121FDF729FD0021F2
:102E000040F29C00C2F200002170BDE87040FFF764
:102E1000A5BA00BFFDF734FD40F2B512C2F20002C0
:102E2000107880F0010102201170BDE87040FDF7BC
:102E30000FBD00007047000090F87C10012904BF0E
:102E4000022070472421C0F88010026811681368BE
:102E500023F00103136021F0005300214166136049
:102E60002022C0F8802080F87C10084670470000BF
:102E70007047000090F87C20012A04BF02207047B0
:102E8000B0B52422C0F880200268D0F864E0D2F8FF
:102E900000C01368BEF1000F23F0010313609368B4
:102EA00023F0606341EA0301916019D0936891684F
:102EB00048F6087E490FC0F6000E48F610751EF859
:102EC0000140C0F60005695CC3F34263E400B4FB53
:102ED000F1F11EF80340EB5CE500B5FBF3F301E014
:102EE00001210123A0F86A102021A0F86830C2F85F
:102EF00000C0C0F88010002180F87C10BDE8B04010
:102F00000846704790F87C20012A04BF02207047D1
:102F1000B0B52422C0F880200268D0F864E0D2F86E
:102F200000C01368BEF1000F23F001031360936823
:102F300023F0604341EA0301916019D093689168DE
:102F400048F6087E490FC0F6000E48F610751EF8C8
:102F50000140C0F60005695CC3F34263E400B4FBC2
:102F6000F1F11EF80340EB5CE500B5FBF3F301E083
:102F700001210123A0F86A102021A0F86830C2F8CE
:102F800000C0C0F88010002180F87C10BDE8B0407F
:102F90000846704770470000704700007047000007
:102FA00070B501680446CA690E688B6802F02F0587
:102FB000202D09D106F0200503F08050401910D0D3
:102FC000E16E00294DD170BD5FEA027C09D001207D
:102FD000C1F2000003EA000E06F4907010EB0E0040
:102FE00028D1D0020AD513F4800007D04FF4801204
:102FF00020460A62BDE87040FFF7CEBF100605D537
:1030000006F0800003F40003C01827D150061BD53A
:1030100016F0400018D0086820F04000086020201A
:103020000021C4F8800020462167BDE8704000F010
:1030300013BA00BFD00718BF16F4807022D19007D2
:1030400003F001052AD432E010020FD516F08040BB
:103050000CD02046BDE87040FFF79CBF216F0029CF
:10306000B1D02046BDE87040084700BFD001AAD5C6
:10307000B6F1FF3FC8BF70BD2046BDE87040FFF706
:10308000F7BE00BF01200862D4F8880040F00100BC
:10309000C4F88800900703F0010508D53DB102206F
:1030A0000862D4F8880040F00400C4F88800500793
:1030B00008D53DB104200862D4F8880040F0020031
:1030C000C4F88800BCF1000F0CD506F0200050EACF
:1030D0000E0007D008200862D4F8880040F00800ED
:1030E000C4F88800D4F8880000283FF46CAF90063C
:1030F0000AD506F0200003F08052801804D0E26E5A
:1031000012B1204690472168D4F888008A6800F000
:10311000080002F04002801806D12046FFF73EFF6B
:103120000020C4F8880070BD08684FF6FE7220F4D5
:10313000907008608868CEF6FF721040886020208A
:10314000C4F884000020E0668868400614D58868CA
:1031500020F040008860A06F70B146F65D31C0F687
:1031600000018163FDF7A4FF00283FF42CAFA06F9E
:10317000816BBDE8704008472046BDE87040FFF70E
:103180000DBF000010B5A8B10446D0F8800028B9E2
:10319000002084F87C00204600F026F82420C4F8A3
:1031A00080002068016821F001010160204603F0E1
:1031B000E3FD08B1012010BDA06A10B1204603F064
:1031C00013FC2168486820F490404860886820F02B
:1031D0002A008860086840F0010220460A60BDE8C5
:1031E000104003F077BC0000006843F60001C4F211
:1031F0000101884218BF704780B586B041F24C008B
:10320000C4F20200416941F480414161416901F425
:10321000804101910199016841F00101016000685C
:1032200001A900F00100019001984FF4C0600190E5
:10323000022002900020CDE90300072005904FF006
:103240009040FDF789FF252000210022FEF7D6F8E7
:103250002520FEF7C1F806B0BDE8804070470000A9
:10326000D0F88430202B0BD100294FF0010318BF78
:10327000002A01D11846704790F87C30012B01D10B
:103280000220704710B58165A0F85C20A0F85E2090
:10329000D0F808E0BEF1000F0AD0BEF1805F0BD07D
:1032A000BEF5805F0CD1036923B940F2FF130AE039
:1032B00003693BB9FF2306E003691BB13F2302E02A
:1032C000002300E07F23A0F860300023C0F888309E
:1032D0002223C0F88430D0F800C0416E634653F812
:1032E000084FB1F1005F44F001041C6003D1B0F855
:1032F0006810914210D9BEF5805F01D10169A9B172
:1033000046F67141C0F60001C166002180F87C10CC
:103310004FF4907063461FE0BEF5805F01D10169F4
:1033200051B146F6CD41C0F6000109E046F66D31D7
:10333000C0F60001E8E700BF46F6C931C0F600015B
:10334000C166002180F87C10DCF8000040F4807039
:10335000CCF800004FF08050196808431860002333
:10336000BDE8104018467047006843F60001C4F2FB
:103370000101884218BF704740F2370140F2180C33
:10338000C2F20001C2F2000C08789CF8002040F262
:103390001903C2F20003985440F21C10531CC2F2ED
:1033A000000001228CF80030FFF75ABFD0F88030BF
:1033B000202B0BD100294FF0010318BF002A01D1A7
:1033C0001846704790F87C30012B03D10223184631
:1033D000704700BF01650021A0F85420A0F85620D6
:1033E000C0F888102121C0F88010426E8168B2F1C7
:1033F000005F09D1B1F5805F01D1016971B147F278
:10340000CD21C0F600010DE0B1F5805F01D1016969
:1034100091B147F29121C0F6000111E047F2292154
:10342000C0F6000102680167002180F87C1002F1FB
:1034300008004FF4000109E047F2E911C0F600016D
:103440000167002180F87C10006880210268114328
:10345000016000207047000070470000FEE7000098
:1034600080B586B000200590C02001900120CDE9F4
:1034700002000220049040F20040C4F6000001A9BE
:10348000FDF76AFE06B080BD2DE9F04385B040F23D
:103490002846C4F600060120A6F1280400254FF0B6
:1034A000800802904FF00209694620460495CDE954
:1034B0000085CDF80C90FDF74FFE3068802140F07C
:1034C0004000306056F8100C40F0400046F8100CF8
:1034D0002046FDF709FF3168013841F040013160B5
:1034E00056F8101CB0FA80F0470941F0400046F849
:1034F000100C20468021FDF7F7FE3168013841F0BD
:1035000040013160B0FA80F056F8101C400940EAE2
:10351000470741F0400046F8100C20468021FDF797
:10352000E3FE3168013841F040013160B0FA80F0CB
:1035300056F8101C4009BA0042EA400741F040002A
:1035400046F8100C20468021FDF7CEFE3168013888
:1035500041F040013160B0FA80F056F8101C40098B
:10356000074441F0400046F8100C20468021FDF74A
:10357000BBFE3168013841F040013160B0FA80F0A3
:1035800056F8101C4009BA0042EA400741F04000DA
:1035900046F8100C20468021FDF7A6FE3168013860
:1035A00041F040013160B0FA80F056F8101C40093B
:1035B000074441F0400046F8100C20468021FDF7FA
:1035C00093FE3168013841F040013160B0FA80F07B
:1035D00056F8101C4009BA0042EA400741F040008A
:1035E00046F8100C20468021FDF77EFE0138B0FA27
:1035F00080F031684009074441F0400030601120FC
:1036000001A981E82102694620460495CDF8008091
:10361000FDF7A2FDF8B205B0BDE8F08340F2284105
:10362000C4F600010A6843B2A1F1100C42F0400256
:10363000B3F1FF3F63460A60C4BF40F22843C4F6BB
:1036400000031A6842F080021A6051F8102C42F010
:10365000400241F8102C0A6842F040020A6042061B
:1036600062465CBF40F22842C4F60002136843F091
:103670008003136051F8102C42F0400241F8102CE6
:103680000A6842F040020A60820662465CBF40F26D
:103690002842C4F60002136843F08003136051F817
:1036A000102C42F0400241F8102C0A6842F040020F
:1036B0000A60C20662465CBF40F22842C4F60002BD
:1036C000136843F08003136051F8102C42F040025D
:1036D00041F8102C0A6842F040020A600207624674
:1036E0005CBF40F22842C4F60002136843F0800336
:1036F000136051F8102C42F0400241F8102C0A6877
:1037000042F040020A60420762465CBF40F2284233
:10371000C4F60002136843F08003136051F8102CC4
:1037200042F0400241F8102C0A6842F040020A6060
:10373000820762465CBF40F22842C4F6000213686A
:10374000C00743F08003136051F8102C42F0400290
:1037500041F8102C0A6842F040020A6004BF40F2AF
:10376000284CC4F6000CDCF8000040F08000CCF8D7
:10377000000051F8100C40F0400041F8100C0868AF
:1037800040F04000086070472DE9F04186B040F2FB
:103790000044C4F60004012000254FF08008039087
:1037A000022701A920460595CDE901850497FDF77B
:1037B000D3FCA069802140F04000A0612046FDF7C5
:1037C00093FD012834D120468021FDF78DFD01288D
:1037D0002ED120468021FDF787FD012828D12046E3
:1037E0008021FDF781FD012822D1204680218026FD
:1037F000FDF77AFD01281BD1002011210590CDE9AC
:1038000002100220049001A920460196FDF7A4FCB5
:10381000A06A012540F04000A062A06A40F080004C
:10382000A06254F8180F40F0400020600CE000BF88
:10383000112002A9A1C101A920460595CDF8048057
:10384000FDF78AFC28344026206840EA0601284615
:10385000216006B0BDE8F0812DE9F04F83B040F261
:10386000A914C2F20004A078012808D140F2B610D1
:10387000C2F200000178013101700020A07060796F
:1038800040F2D1190128C2F2000958D140F2B61015
:10389000C2F200000078AB214143490A01EB41012B
:1038A000401AC0B201280DD0E0B940F25800C2F26F
:1038B0000000017899F8002091421CBF013101708D
:1038C0003BE000BF40F2DC15C2F2000595ED000AB6
:1038D000BDEEC01A11EE100A02280BD1B7EE000A95
:1038E00016E000BF99F800004946013089F8000051
:1038F00000201CE010EE100AFCF774FD9FED8C0B0D
:1039000053EC102BFCF7C7FCFCF77FFD00EE100A10
:10391000B2EE041A85ED000A20EE010ABDEEC00ADF
:1039200010EE100A8DF80B000DF10B0102200122A0
:10393000FDF7FEFA0220FDF7FBFB00206071207A04
:1039400040F2D2150128C2F2000554D140F2B6105F
:10395000C2F200000078AB214143490A01EB41016A
:10396000401AC0B201280BD0D0B940F25900C2F2BF
:10397000000001782A7891421CBF0131017038E0C3
:1039800040F2E016C2F2000696ED000ABDEEC01A43
:1039900011EE100A022809D1B7EE000A14E000BFA8
:1039A000287829460130287001201CE010EE100A0A
:1039B000FCF718FD9FED5E0B53EC102BFCF76BFC36
:1039C000FCF723FD00EE100AB2EE041A86ED000AA1
:1039D00020EE010ABDEEC00A10EE100A8DF80A00B2
:1039E0000DF10A0103200122FDF7A2FA0220FDF7E2
:1039F0009FFB00202072E07A012840F0898040F28D
:103A0000B610C2F2000000784AF6AB21CAF6AA212D
:103A10004843B0F1553F7BD840F2580B40F2DC10E0
:103A200040F2590AC2F2000BC2F20000C2F2000AD0
:103A30009BF800709AF8006090ED001A40F2E010D8
:103A4000C2F2000000EE107A02EE106A90ED003A29
:103A5000B8EE400AB8EE422A23EE022A20EE010A0E
:103A600040F2100030EE020AC2F2000080ED010ABE
:103A700010EE100AFCF7B6FC40F2380841EC100BCF
:103A8000C2F200082CA140463A4633468DED000BA9
:103A900003F09AFC9BF8000099F800102A78081AA5
:103AA0009AF8001089F80000501A287000260020AB
:103AB000494601228AF800608BF800600127FDF773
:103AC00037FA0220FDF734FB012029460122FDF7D9
:103AD0002FFA0220FDF72CFB40F21C10C2F200006E
:103AE00041461E22FFF762FC40F21000C2F20000C5
:103AF0000770FCF7DBFF99F800002978E6720843AD
:103B000006D140F2A810C2F200000770FCF7CEFF09
:103B100099F800002978084305D040F2A810C2F2B5
:103B200000000021017003B0BDE8F08F00BF00BFAE
:103B30009A9999999999B93F583A25642C593A25F7
:103B4000642C5A3A252E31660D0A000040F21841C5
:103B5000C4F600010A6942F400720A610A6942F47B
:103B600080720A610A6842F020020A602022C1F8CD
:103B7000FC230A6942F020020A6100BF00BF00BFB7
:103B80000A6842F020020A600A6842F480720A6001
:103B90000022C1F8FC230B6943F020030B6100BF36
:103BA00000BF00BF0B6843F020030B600B6843F4B9
:103BB00080730B600B6943F400730B610B6943F472
:103BC00080730B610B6843F020030B602123C1F865
:103BD000FC330B6943F020030B6100BF00BF00BF43
:103BE0000B6843F020030B600B6843F480730B6099
:103BF000C1F8FC230A6942F020020A6100BF00BF3D
:103C000000BF0A6842F020020A600A6842F480722B
:103C10000A600A6942F400720A610A6942F4807219
:103C20000A610A6842F020020A602222C1F8FC23DD
:103C30000A6942F020020A6100BF00BF00BF0A68A3
:103C400042F020020A600A6842F480720A6000BFF3
:103C500000BF00BF0A6842F400720A604FF4963257
:103C60000B69053A43F400730B610B6843F48073EE
:103C70000B600B6843F020030B60C1F8FC030B6979
:103C800043F020030B6100BF00BF00BF0B6843F08F
:103C900020030B600B6843F480730B6000BF00BF10
:103CA00000BF0B6843F400730B600B6943F40073AF
:103CB0000B610B6843F480730B600B6843F02003C7
:103CC0000B60C1F8FC030B6943F020030B6100BFDC
:103CD00000BF00BF0B6843F020030B600B6843F488
:103CE00080730B6000BF00BF00BF0B6843F400731C
:103CF0000B600B6943F400730B610B6843F4807332
:103D00000B600B6843F020030B60C1F8FC030B69E8
:103D100043F020030B6100BF00BF00BF0B6843F0FE
:103D200020030B600B6843F480730B6000BF00BF7F
:103D300000BF0B6843F400730B600B6943F400731E
:103D40000B610B6843F480730B600B6843F0200336
:103D50000B60C1F8FC030B6943F020030B6100BF4B
:103D600000BF00BF0B6843F020030B600B6843F4F7
:103D700080730B6000BF00BF00BF0B6843F400738B
:103D80000B600B6943F400730B610B6843F48073A1
:103D90000B600B6843F020030B60C1F8FC030B6958
:103DA00043F020030B6100BF00BF00BF0B6843F06E
:103DB00020030B600B6843F480730B6000BF00BFEF
:103DC00000BF0B6843F400730B607FF449AF70478A
:103DD0000A78002A08BF70472DE9F04147F62658B7
:103DE00004464D1C002740F23F16C0F6000800BFF5
:103DF000A2F12000C1B2490051FA80F008EB001294
:103E0000B1B2204600F00AF8EA5D22B1103E132F4D
:103E100007F10107ECD3BDE8F04170472DE9F04709
:103E200040F21843C4F600031F694FF0200C47F41A
:103E300000771F611F694FF0210E47F480771F61E3
:103E40001F6840F2080947F020071F60C3F8FCC351
:103E50001F6940F2560A47F020071F6100BF00BFEC
:103E600000BF1F684FF0220847F020071F601F683F
:103E7000C2F2000947F480771F60C3F8FC031F6992
:103E8000C2F2000A47F020071F6100BF00BF00BF59
:103E90001F6847F020071F601F6847F480771F6086
:103EA0001F6947F400771F611F6947F480771F611E
:103EB0001F6847F020071F60C3F8FCE31C6944F04B
:103EC00020041C6100BF00BF00BF1C6844F0200438
:103ED0001C601C6844F480741C60C3F8FC131C69EB
:103EE00044F020041C6100BF00BF00BF1C6844F008
:103EF00020041C601C6844F480741C60002400BF13
:103F00001D6945F400751D611D6945F480751D61CD
:103F10001D6845F020051D60C3F8FC831D6945F050
:103F200020051D6100BF00BF00BF1D6845F02005D2
:103F30001D601D6845F480751D6000BF00BF00BF97
:103F40001D6845F400751D60002500BF32F814603F
:103F5000EE40F607564608BF4E4636881F6947F4BE
:103F600000771F611F6847F480771F601F6847F064
:103F700020071F60C3F8FC631E696F1C46F0200613
:103F80001E6100BF00BF00BF1E6846F020061E6015
:103F90001E6846F480761E6000BF00BF00BF1E682A
:103FA00046F400761E6032F81460FE40F60756466E
:103FB00008BF4E4636881F6947F400771F611F68A7
:103FC00047F480771F601F6847F020071F60C3F821
:103FD000FC631E69AF1C46F020061E6100BF00BFD7
:103FE00000BF1E6846F020061E601E6846F48076FC
:103FF0001E6000BF00BF00BF1E6846F400761E6052
:1040000032F81460FE40F607564608BF4E46368822
:104010001F6947F400771F611F6847F480771F60AE
:104020001F6847F020071F60C3F8FC631E69EF1C80
:1040300046F020061E6100BF00BF00BF1E680435A9
:1040400046F020061E601E6846F480761E6000BFA3
:1040500000BF00BF1E6846F400761E6032F8146090
:10406000FE40F607564608BF4E4636881F69102D9B
:1040700047F400771F611F6847F480771F601F684F
:1040800047F020071F60C3F8FC631E6946F0200656
:104090001E6100BF00BF00BF1E6846F020061E6004
:1040A0001E6846F480761E6000BF00BF00BF1E6819
:1040B00046F400761E607FF449AF1D69013045F477
:1040C00000751D611D69013445F480751D611D6811
:1040D000182C45F020051D60C3F8FCC31D6945F090
:1040E00020051D6100BF00BF00BF1D6845F0200511
:1040F0001D601D6845F480751D60C5B2C3F8FC5392
:104100001D6945F020051D6100BF00BF00BF1D688F
:1041100045F020051D601D6845F480751D601D6912
:1041200045F400751D611D6945F480751D611D68AC
:1041300045F020051D60C3F8FCE31D6945F020052E
:104140001D6100BF00BF00BF1D6845F020051D6058
:104150001D6845F480751D60C3F8FC131D6945F0AA
:1041600020051D6100BF00BF00BF1D6845F0200590
:104170001D601D6845F480751D6008BFBDE8F087AF
:10418000BEE600002DE9F04F8BB0002641F24C0056
:104190000596C4F20200016840F2184541F004019E
:1041A00001600168C4F6000501F00401069106995A
:1041B000016801AC41F001010160016840F6140999
:1041C00001F00101069106990168C4F6000941F069
:1041D000020101600068214600F002000690069886
:1041E0004FF44870019001200290A5F118000127BA
:1041F000CDE90366FCF7B0FF4FF48070CDE901070D
:104200004FF090402146CDE90366FCF7A5FF4FF63D
:10421000FF7005F57A7406904FF0030806A9204652
:104220000A964FF6FF7B0797CDE90868FCF794FFE5
:104230004FF6004ACFF6FF7A55F80A0006A940F477
:10424000807045F80A0028684FF6FF7740F4087040
:104250002860286940F400702861286940F4807063
:104260002861286840F020002860C9F800602869AB
:1042700040F02000286100BF00BF00BF286840F068
:1042800020002860286840F48070286020460A9644
:10429000CDF818B0CDF82480CDE90766FCF75CFFB7
:1042A0004FF6104BCFF6FF7B55F80B0007A940F4F3
:1042B000807045F80B0000BF00BF00BFD5F8F89331
:1042C00055F80A0040F4807045F80A00012081E8A2
:1042D000410106A920460A960697FCF73DFF28688B
:1042E00048F2302140F40070286040F25A00C2F2D7
:1042F0000000A0F800900088884203D100F034FA52
:1043000002E000BF00F0A4FF2869002640F400701E
:10431000286128694FF6FF7840F48070286128688A
:104320004FF0030940F02000286040F61400C4F666
:1043300000000660286906A940F02000286100BF3F
:1043400000BF00BF286840F020002860286840F4C3
:104350008070286020460A96CDE90686CDE9086976
:10436000FCF7FAFE55F80B0007A940F4807045F8F9
:104370000B0000BF00BF00BFD5F8F87355F80A0066
:1043800040F4807045F80A00012081E8410206A946
:1043900020460A96CDF81880FCF7DEFE286840F427
:1043A0000070286040F25A00C2F2000007800BB093
:1043B000BDE8F08F81B0ADF80200BDF8020040F218
:1043C0000801C2F20001088001B0704781B0ADF869
:1043D0000200BDF8020040F25601C2F2000108805E
:1043E00001B070472DE9F04F87B04FF0000B41F25C
:1043F0004C00CDF818B0C4F20200016840F2004849
:1044000041F0040101600168C4F6000801F00401F4
:1044100001910199016808F5806741F02001016070
:104420000168002201F020010191019901684FF417
:104430007F4441F001010160016801F00101019137
:104440000199016841F002010160016801F0020177
:1044500001910199016841F00801016000684FF481
:104460007F4100F00800019001983846FCF742FFB8
:1044700008F500652846042100224FF0040AFCF7E5
:1044800039FF4046C02100224FF0C009FCF732FF3F
:1044900002AE0294012438463146CDE9034BCDF8F3
:1044A00014B0FCF759FE4FF090403146CDE9024B75
:1044B0000494FCF751FE0720CDE9020B404631463B
:1044C0000494FCF749FE28463146CDE902A4CDE923
:1044D00004BBFCF741FE40463146CDE90294CDE9EC
:1044E00004BBFCF739FE07B0BDE8F08FB0B59AB059
:1044F00044F2004501A83421C4F20105FBF7C0FED7
:1045000040F25C00C2F200002721002240F2E733B3
:10451000C0E90051C0E90223C0E904228261FDF72D
:1045200093FE002818BFFCF7C1FD40F25C00C2F208
:104530000000FEF71FFB002818BFFCF7B7FD602046
:104540000E9032200F9040F25C000024C2F2000076
:104550000EA90022CDE91044CDE912441494FEF7CF
:104560001DF9002818BFFCF7A1FD4FF40050059479
:10457000CDE90344CDE90144CDE906040D9440F2B0
:104580005C04C2F2000401A92046FDF7BBFD00282F
:1045900018BFFCF78BFD2068A84201D01AB0B0BD4F
:1045A00041F24C00C4F20200016841F002010160D6
:1045B000006815A900F002001590159810201590BC
:1045C000022016900020CDE917000120199040F23A
:1045D0000040C4F60000FCF7BFFD1AB0B0BD0000FB
:1045E00080B588B040F29C0040F200420021C2F247
:1045F0000000C4F2000240F21F3342F20F7C079128
:10460000CDE905110291C0E90023C0E9021C016156
:104610008161FDF719FE002818BFFCF747FD4FF434
:104620008050049040F29C00C2F2000004A9FDF703
:10463000B3FE002818BFFCF739FD0020019003905D
:1046400040F29C00C2F2000001A9FDF7C3FD002862
:1046500018BFFCF72BFD08B080BD000080B588B006
:1046600040F2DC0040F600020021C2F20000C4F279
:10467000000240F21F3342F20F7C0791CDE9051191
:104680000291C0E90023C0E9021C01618161FDF7CC
:10469000DBFD002818BFFCF709FD4FF480500490A3
:1046A00040F2DC00C2F2000004A9FDF775FE00280C
:1046B00018BFFCF7FBFC00200190039040F2DC00E7
:1046C000C2F2000001A9FDF785FD002818BFFCF724
:1046D000EDFC08B080BD000080B540F21C1043F630
:1046E0000001C2F20000C4F2010100234FF00C0CE3
:1046F0004FF4165280E80E00C0E90333C0E905C349
:10470000C0E90733C0E90933FEF73CFD002818BFB4
:10471000FCF7CCFC40F21C10C2F200000021FEF7B6
:10472000F1FB002818BFFCF7C1FC40F21C10C2F2DC
:1047300000000021FEF79EFB002818BFFCF7B6FC26
:1047400040F21C10C2F20000FEF776FB002808BF02
:1047500080BDBDE88040FCF7A9BC0000FEE700007A
:10476000704700007047000040F21840C4F6000097
:104770000169002241F40071016101694FF0030CED
:1047800041F480710161016841F020010160C0F8CD
:10479000FC23016941F02001016100BF00BF00BF9F
:1047A000016841F020010160016841F480710160FD
:1047B0000121C0F8FC13036943F02003036100BF2B
:1047C00000BF00BF036843F020030360036843F4A5
:1047D00080730360036943F400730361036943F466
:1047E00080730361036843F020030360C0F8FC1387
:1047F000036943F02003036100BF00BF00BF0368EB
:1048000043F020030360036843F480730360C0F83F
:10481000FC23026942F02002026100BF00BF00BF1A
:10482000026842F020020260026842F48072026074
:10483000026942F400720261026942F4807202610C
:10484000026842F0200202601022C0F8FC230269D4
:1048500042F02002026100BF00BF00BF026842F0C8
:1048600020020260026842F48072026041F290729B
:10487000C0F8FC23026942F02002026100BF00BFC1
:1048800000BF026842F020020260026842F48072B7
:104890000260026942F400720261026942F48072AD
:1048A0000261026842F0200202606022C0F8FC232C
:1048B000026942F02002026100BF00BF00BF02682F
:1048C00042F020020260026842F4807202604FF4FB
:1048D0001C52C0F8FC23026942F02002026100BFB2
:1048E00000BF00BF026842F020020260026842F48A
:1048F00080720260026942F400720261026942F44D
:1049000080720261026842F0200202606122C0F8F7
:10491000FC23026942F02002026100BF00BF00BF19
:10492000026842F020020260026842F48072026073
:10493000C0F8FC13016941F02001016100BF00BF14
:1049400000BF016841F020010160016841F48071FD
:104950000160016941F400710161016941F48071F4
:104960000161016841F0200101604621C0F8FC139B
:10497000016941F02001016100BF00BF00BF016873
:1049800041F020010160016841F480710160022161
:10499000C0F8FC13026942F02002026100BF00BFB0
:1049A00000BF026842F020020260026842F4807296
:1049B0000260026942F400720261026942F480728C
:1049C0000261026842F0200202601322C0F8FC2358
:1049D000026942F02002026100BF00BF00BF02680E
:1049E00042F020020260026842F48072026048F2E3
:1049F0001002C0F8FC23026942F02002026100BFED
:104A000000BF00BF026842F020020260026842F468
:104A100080720260026942F400720261026942F42B
:104A200080720261026842F0200202601222C0F825
:104A3000FC23026942F02002026100BF00BF00BFF8
:104A4000026842F020020260026842F48072026052
:104A500048F2FE02C0F8FC23026942F02002026123
:104A600000BF00BF00BF026842F02002026002687F
:104A700042F480720260026942F4007202610269CB
:104A800042F480720261026842F020020260C0F8C3
:104A9000FC13016941F02001016100BF00BF00BFAC
:104AA000016841F020010160016841F480710160FA
:104AB0004FF4A061C0F8FC13016941F020010161CD
:104AC00000BF00BF00BF016841F020010160016824
:104AD00041F480710160016941F400710161016973
:104AE00041F480710161016841F020010160C0F86A
:104AF000FCC3026942F02002026100BF00BF00BF98
:104B0000026842F020020260026842F48072026091
:104B100041F23002C0F8FC23026942F02002026137
:104B200000BF00BF00BF026842F0200202600268BE
:104B300042F480720260026942F40072026102690A
:104B400042F480720261026842F020020260302268
:104B5000C0F8FC23026942F02002026100BF00BFDE
:104B600000BF026842F020020260026842F48072D4
:104B7000026040F20332C0F8FC23036943F02003D3
:104B8000036100BF00BF00BF036843F02003036060
:104B9000036843F480730360036943F400730361A3
:104BA000036943F480730361036843F020030360E7
:104BB0003123C0F8FC33036943F02003036100BFD5
:104BC00000BF00BF036843F020030360036843F4A1
:104BD00080730360C0F8FC23036943F02003036182
:104BE00000BF00BF00BF036843F0200303600368F9
:104BF00043F480730360036943F400730361036942
:104C000043F480730361036843F02003036032239D
:104C1000C0F8FC33036943F02003036100BF00BF09
:104C200000BF036843F020030360036843F480730C
:104C30000360C0F8FC23036943F02003036100BF55
:104C400000BF00BF036843F020030360036843F420
:104C500080730360036943F400730361036943F4E1
:104C600080730361036843F0200303603323C0F8BB
:104C7000FC33036943F02003036100BF00BF00BFA2
:104C8000036843F020030360036843F48073036008
:104C90004FF44073C0F8FC33016941F02001016119
:104CA00000BF00BF00BF016841F020010160016842
:104CB00041F480710160016941F400710161016991
:104CC00041F480710161016841F0200101603421EB
:104CD000C0F8FC13016941F02001016100BF00BF71
:104CE00000BF016841F020010160016841F480715A
:104CF0000160C0F8FCC3016941F02001016100BFFF
:104D000000BF00BF016841F020010160016841F46B
:104D100080710160016941F400710161016941F430
:104D200080710161016841F0200101603521C0F806
:104D3000FC13016941F02001016100BF00BF00BF09
:104D4000016841F020010160016841F48071016057
:104D5000C0F8FC23016941F02001016100BF00BFE0
:104D600000BF016841F020010160016841F48071D9
:104D70000160016941F400710161016941F48071D0
:104D80000161016841F0200101603621C0F8FC1387
:104D9000016941F02001016100BF00BF00BF01684F
:104DA00041F020010160016841F48071016014212B
:104DB000C0F8FC13016941F02001016100BF00BF90
:104DC00000BF016841F020010160016841F4807179
:104DD0000160016941F400710161016941F4807170
:104DE0000161016841F0200101603721C0F8FC1326
:104DF000016941F02001016100BF00BF00BF0168EF
:104E000041F020010160016841F480710160C0F847
:104E1000FC23016941F02001016100BF00BF00BF18
:104E2000016841F020010160016841F48071016076
:104E3000016941F400710161016941F4807101610E
:104E4000016841F0200101603821C0F8FC130169BC
:104E500041F02001016100BF00BF00BF016841F0C7
:104E600020010160016841F480710160C0F8FC23F9
:104E7000016941F02001016100BF00BF00BF01686E
:104E800041F020010160016841F480710160016915
:104E900041F400710161016941F4807101610168AF
:104EA00041F0200101603921C0F8FC13016941F093
:104EB0002001016100BF00BF00BF016841F0200177
:104EC0000160016841F480710160C0F8FC23016950
:104ED00041F02001016100BF00BF00BF016841F047
:104EE00020010160016841F480710160016941F4B1
:104EF00000710161016941F480710161016841F053
:104F0000200101603A21C0F8FC13016941F0200141
:104F1000016100BF00BF00BF016841F020010160D6
:104F2000016841F480710160C0F8FC33016941F00F
:104F30002001016100BF00BF00BF016841F02001F6
:104F40000160016841F480710160016941F4007100
:104F50000161016941F480710161016841F0200142
:104F600001603B21C0F8FC13016941F0200101619F
:104F700000BF00BF00BF016841F02001016001686F
:104F800041F480710160C0F8FCC3016941F0200167
:104F9000016100BF00BF00BF016841F02001016056
:104FA000016841F480710160016941F4007101619F
:104FB000016941F480710161016841F020010160E3
:104FC0003C21C0F8FC13016941F02001016100BFE0
:104FD00000BF00BF016841F020010160016841F499
:104FE00080710160C0F8FC23016941F0200101617A
:104FF00000BF00BF00BF016841F0200101600168EF
:1050000041F480710160016941F40071016101693D
:1050100041F480710161016841F0200101603D218E
:10502000C0F8FC13016941F02001016100BF00BF1D
:1050300000BF016841F020010160016841F4807106
:1050400001604FF4A051C0F8FC13016941F0200148
:10505000016100BF00BF00BF016841F02001016095
:10506000016841F480710160016941F400710161DE
:10507000016941F480710161016841F02001016022
:105080009221C0F8FC13016941F02001016100BFC9
:1050900000BF00BF016841F020010160016841F4D8
:1050A000807101604FF40071C0F8FC13016941F098
:1050B0002001016100BF00BF00BF016841F0200175
:1050C0000160016841F480710160016941F400717F
:1050D0000161016941F480710161016841F02001C1
:1050E00001609321C0F8FC13016941F020010161C6
:1050F00000BF00BF00BF016841F0200101600168EE
:1051000041F480710160C0F8FC23016941F0200185
:10511000016100BF00BF00BF016841F020010160D4
:10512000016841F480710160016941F4007101611D
:10513000016941F480710161016841F02001016061
:105140009021C0F8FC13016941F02001016100BF0A
:1051500000BF00BF016841F020010160016841F417
:105160008071016040F60D01C0F8FC13016941F047
:105170002001016100BF00BF00BF016841F02001B4
:105180000160016841F480710160016941F40071BE
:105190000161016941F480710161016841F0200100
:1051A0000160C0F8FCC3016941F02001016100BF4A
:1051B00000BF00BF016841F020010160016841F4B7
:1051C0008071016041F21801C0F8FC13016941F0DF
:1051D0002001016100BF00BF00BF016841F0200154
:1051E0000160016841F480710160016941F400715E
:1051F0000161016941F480710161016841F02001A0
:1052000001600721C0F8FC13016941F02001016130
:1052100000BF00BF00BF016841F0200101600168CC
:1052200041F48071016040F27311C0F8FC13016910
:1052300041F02001016100BF00BF00BF016841F0E3
:1052400020010160016841F4807101607047000035
:105250002DE9F04F81B040F21844C4F600042069F3
:105260004FF0120940F4007020612069002540F4DD
:10527000807020612068112640F020002060E3202B
:10528000C4F8FC0320694FF0130B40F020002061AC
:1052900000BF00BF00BF2068102740F02000206042
:1052A00020684FF0070840F48070206043F2080047
:1052B000C4F8FC03206940F02000206100BF00BF5B
:1052C00000BF206840F020002060206840F480701B
:1052D0002060206940F400702061206940F48070F3
:1052E0002061206840F020002060E720C4F8FC0323
:1052F000206940F02000206100BF00BF00BF20688F
:1053000040F020002060206840F480702060C4F8E5
:10531000FC93206940F02000206100BF00BF00BF67
:10532000206840F020002060206840F480702060F9
:10533000206940F400702061206940F48070206191
:10534000206840F020002060EF20C4F8FC032069B2
:1053500040F02000206100BF00BF00BF206840F087
:1053600020002060206840F48070206041F23120ED
:10537000C4F8FC03206940F02000206100BF00BF9A
:1053800000BF206840F020002060206840F480705A
:105390002060206940F400702061206940F4807032
:1053A0002061206840F0200020600120C4F8FC0348
:1053B000206940F02000206100BF00BF00BF2068CE
:1053C00040F020002060206840F480702060C4F825
:1053D000FC53206940F02000206100BF00BF00BFE7
:1053E000206840F020002060206840F48070206039
:1053F000206940F400702061206940F480702061D1
:10540000206840F0200020600220C4F8FC032069DE
:1054100040F02000206100BF00BF00BF206840F0C6
:1054200020002060206840F4807020604FF4E0602D
:10543000C4F8FC03206940F02000206100BF00BFD9
:1054400000BF206840F020002060206840F4807099
:105450002060206940F400702061206940F4807071
:105460002061206840F0200020600320C4F8FC0385
:10547000206940F02000206100BF00BF00BF20680D
:1054800040F020002060206840F48070206041F2ED
:105490003000C4F8FC03206940F02000206100BF08
:1054A00000BF00BF206840F020002060206840F46A
:1054B00080702060206940F400702061206940F411
:1054C00080702061206840F0200020600420C4F833
:1054D000FC03206940F02000206100BF00BF00BF36
:1054E000206840F020002060206840F48070206038
:1054F000C4F8FC53206940F02000206100BF00BFC9
:1055000000BF206840F020002060206840F48070D8
:105510002060206940F400702061206940F48070B0
:105520002061206840F0200020600820C4F8FC03BF
:10553000206940F02000206100BF00BF00BF20684C
:1055400040F020002060206840F48070206040F22D
:105550000720C4F8FC03206940F02000206100BF50
:1055600000BF00BF206840F020002060206840F4A9
:1055700080702060206940F400702061206940F450
:1055800080702061206840F0200020600920C4F86D
:10559000FC03206940F02000206100BF00BF00BF75
:1055A000206840F020002060206840F48070206077
:1055B000C4F8FC53206940F02000206100BF00BF08
:1055C00000BF206840F020002060206840F4807018
:1055D0002060206940F400702061206940F48070F0
:1055E0002061206840F0200020600A20C4F8FC03FD
:1055F000206940F02000206100BF00BF00BF20688C
:1056000040F020002060206840F480702060C4F8E2
:10561000FC53206940F02000206100BF00BF00BFA4
:10562000206840F020002060206840F480702060F6
:10563000206940F400702061206940F4807020618E
:10564000206840F0200020600C20C4F8FC03206992
:1056500040F02000206100BF00BF00BF206840F084
:1056600020002060206840F480702060C4F8FC5363
:10567000206940F02000206100BF00BF00BF20680B
:1056800040F020002060206840F480702060206995
:1056900040F400702061206940F48070206120682F
:1056A00040F0200020600D20C4F8FC03206940F089
:1056B0002000206100BF00BF00BF206840F0200034
:1056C0002060206840F480702060C4F8FC5320699A
:1056D00040F02000206100BF00BF00BF206840F004
:1056E00020002060206840F480702060206940F431
:1056F00000702061206940F480702061206840F0D3
:10570000200020600F20C4F8FC03206940F0200036
:10571000206100BF00BF00BF206840F02000206073
:10572000206840F480702060C4F8FC53206940F089
:105730002000206100BF00BF00BF206840F02000B3
:105740002060206840F480702060206940F4007080
:105750002061206940F480702061206840F02000C2
:1057600020601020C4F8FC03206940F02000206174
:1057700000BF00BF00BF206840F02000206020680C
:1057800040F480702060C4F8FC53206940F0200091
:10579000206100BF00BF00BF206840F020002060F3
:1057A000206840F480702060206940F4007020611F
:1057B000206940F480702061206840F02000206063
:1057C000C4F8FC63206940F02000206100BF00BFE6
:1057D00000BF206840F020002060206840F4807006
:1057E00020600720C4F8FC03206940F020002061FD
:1057F00000BF00BF00BF206840F02000206020688C
:1058000040F480702060206940F4007020612069BD
:1058100040F480702061206840F020002060C4F8CF
:10582000FC93206940F02000206100BF00BF00BF52
:10583000206840F020002060206840F480702060E4
:10584000C4F8FC53206940F02000206100BF00BF75
:1058500000BF206840F020002060206840F4807085
:105860002060206940F400702061206940F480705D
:105870002061206840F020002060C4F8FCB320695B
:1058800040F02000206100BF00BF00BF206840F052
:1058900020002060206840F480702060C4F8FC5331
:1058A000206940F02000206100BF00BF00BF2068D9
:1058B00040F020002060206840F480702060C82004
:1058C000FBF736FC20694FF0320A40F4007020618B
:1058D000206940F480702061206840F02000206042
:1058E000C4F8FC732069102740F02000206100BF3D
:1058F00000BF00BF206840F020002060206840F416
:105900008070206041F29060C4F8FC03206940F090
:105910002000206100BF00BF00BF206840F02000D1
:105920002060206840F480702060206940F400709E
:105930002061206940F480702061206840F02000E0
:105940002060C4F8FC63206940F02000206100BFA3
:1059500000BF00BF206840F020002060206840F4B5
:105960008070206040F22720C4F8FC03206940F0DA
:105970002000206100BF00BF00BF206840F0200071
:105980002060206840F4807020603220FBF7D0FB5C
:10599000206940F400702061206940F4807020612B
:1059A000206840F020002060C4F8FC93206940F09B
:1059B0002000206100BF00BF00BF206840F0200031
:1059C0002060206840F4807020601D20C4F8FC0333
:1059D000206940F02000206100BF00BF00BF2068A8
:1059E00040F020002060206840F480702060322069
:1059F000FBF79EFB206940F400702061206940F4B1
:105A000080702061206840F020002060C4F8FCB362
:105A1000206940F02000206100BF00BF00BF206867
:105A200040F020002060206840F4807020604FF437
:105A30000060C4F8FC03206940F02000206100BF32
:105A400000BF00BF206840F020002060206840F4C4
:105A500080702060206940F400702061206940F46B
:105A600080702061206840F0200020602920C4F868
:105A7000FC03206940F02000206100BF00BF00BF90
:105A8000206840F020002060206840F48070206092
:105A90001420C4F8FC03206940F02000206100BFFE
:105AA00000BF00BF206840F020002060206840F464
:105AB00080702060206940F400702061206940F40B
:105AC00080702061206840F0200020602B20C4F806
:105AD000FC03206940F02000206100BF00BF00BF30
