:020000040800F2
:10000000C8050020ED0100087142000865330008B2
:100010006D42000889080008DD6300080000000048
:1000200000000000000000000000000081620008E5
:100030007109000800000000754200088562000890
:10004000070200080702000807020008070200086C
:10005000070200080702000807020008070200085C
:10006000070200080702000807020008070200084C
:10007000070200080702000807020008070200083C
:10008000070200080000000007020008070200083D
:10009000070200080702000807020008070200081C
:1000A0000702000807020008A5620008070200080E
:1000B00007020008B1620008BD62000807020008DC
:1000C00007020008070200080702000807020008EC
:1000D00007020008070200080702000807020008DC
:1000E00007020008070200080702000807020008CC
:1000F00007020008070200080702000800000000CD
:1001000000000000070200080000000007020008CD
:1001100007020008000000000702000807020008AC
:10012000070200080702000807020008070200088B
:10013000070200080000000000000000070200089D
:10014000070200080702000800000000000000008D
:10015000000000000000000000000000000000009F
:10016000000000000000000000000000070200087E
:10017000070200080000000000000000000000006E
:10018000000000000702000800000000000000005E
:10019000000000000000000000000000000000005F
:1001A000000000000000000007020008070200082D
:1001B000070200080702000807020008000000000C
:1001C000000000000702000800000000000000001E
:1001D0000702000807020008DFF80CD000F03CFB23
:1001E00000480047E1630008C80500200648804732
:1001F00006480047FEE7FEE7FEE7FEE7FEE7FEE70C
:10020000FEE7FEE7FEE7FEE789620008D901000885
:10021000D2B201E000F8012B491EFBD27047002248
:10022000F6E710B513460A4604461946FFF7F0FFF5
:10023000204610BD2DE9FE4F804681EA0300C00F25
:100240000C46009021F0004123F00045B8EB02007D
:10025000A94105D24046214690461C460B4602461F
:1002600023F00040104347D0270DC7F30A00C3F323
:100270000A510290401A019040286BDAC3F3130030
:1002800040F4801B0098924620B10023D2EB030A71
:1002900063EB0B0B01985946C0F14002504600F049
:1002A000E5F906460D4650465946019A00F0FDF91B
:1002B00010EB08006141002487EA115284EAE773D9
:1002C0001A4340D0009A62B3019A012A4FEA0752BA
:1002D00015DC001B61EB02014FF0004202EA0752FD
:1002E000CDE90042001C41F5801132462B4600F05A
:1002F00034FA03B0BDE8F08F40462146F9E7001B11
:1003000061EB0201001C41F5801300185B412018CD
:10031000A2F5001747EB030140EAD570B6196D410D
:1003200011E06D084FEA360645EAC0754FEA0752FC
:10033000001B61EB0201001C41F5801149084FEAE6
:1003400030000019514132462B4603B0BDE8F04F52
:1003500000F0F4B90098012240000023D0EB020223
:1003600063EBE073009821464FEAE074B8EB0000BD
:1003700061EB0401E9E783F000435BE781F00041B2
:1003800058E72DE9FE4F81EA030404F0004421F010
:10039000004100944FF0000B23F0004350EA0104A9
:1003A0005ED052EA03045BD0C3F30A54C1F30A558A
:1003B0002C44A4F2F3340194A0FB0254C1F31301C2
:1003C00041F48011C3F3130343F4801301FB02448F
:1003D00000FB034E840A970A44EA815447EA835794
:1003E000A4FB076802958D0A05FB07854FEA932C4D
:1003F00004FB0C542705029D4FEA065847EA1637BE
:10040000B5EB08056EEB070C870E920E47EA8117D5
:1004100042EA8312A7FB0201B6EB0B0164EB000476
:100420002B0D43EA0C335E1844EB1C50DA46514660
:10043000E7FB0201C5F313044FEA0B3343EA1453FD
:100440004FEA0432019C43EA0603A4F10C0402942F
:10045000009CCDE900B400F080F903B0BDE8F08F56
:1004600000200146F9E72DE9F04D81EA030404F08C
:10047000004B21F0004514464FF0000A23F00041E4
:1004800050EA050220D054EA01021DD0C5F30A57F4
:100490000246C5F31303C1F31300C1F30A5640F437
:1004A000801543F48013A7EB0608101BD64608F20C
:1004B000FD3873EB050002D308F1010801E0921842
:1004C0005B41B8F1000F03DA00200146BDE8F08D72
:1004D00000204FF48011064684460EE0171B73EB94
:1004E000050705D3121B63EB050306434CEA010C19
:1004F00049084FEA300092185B4150EA0107EDD1FC
:1005000052EA030012D082EA040083EA050108439C
:1005100005D0101BAB4106D20122002306E00022C9
:100520004FF0004302E06FF0010253101AEB060097
:100530004CEB085110EB0A0041EB0B01BDE8F04D0C
:1005400000F0FCB80EB5C10F80EAE0700844CA079D
:10055000002140F233438DE80E000A460B4600F0BE
:10056000FCF803B000BD0EB540F23341029100210A
:10057000CDE900110A460B4600F0EFF803B000BDCC
:1005800000F0004230F000400AD0C10D01F560716A
:10059000C0F3160042EA0151C208400711437047F8
:1005A00000200146704701F0004330B421F00041C3
:1005B00050EA010206D00A0DA2F56072C1F31301E0
:1005C000002A02DC30BC00207047440F44EAC1041A
:1005D000C100E01830BC00EBC25000F078B830B574
:1005E0000B46014600202022012409E021FA02F5F1
:1005F0009D4205D303FA02F5491B04FA02F528448B
:10060000151EA2F10102F1DC30BD2DE9F05F0546B7
:10061000002092469B4688460646814640241BE0C1
:10062000284641464746224600F02FF853465A4690
:10063000C01A914110D311461846224600F016F810
:100640002D1A67EB01084F4622460120002100F0D9
:100650000DF817EB00094E41201EA4F10104DFDC68
:10066000484631462A464346BDE8F09F202A04DB2F
:10067000203A00FA02F1002070479140C2F12003B5
:1006800020FA03F3194390407047202A04DB203AF4
:1006900021FA02F00021704721FA02F3D040C2F1A2
:1006A00020029140084319467047202A06DBCB17E9
:1006B000203A41FA02F043EAE07306E041FA02F31D
:1006C000D040C2F1200291400843194670470029EA
:1006D000A8BF7047401C490008BF20F001007047C8
:1006E00010B4B0FA80FC00FA0CF050EA010404BF28
:1006F00010BC704749B1CCF1200421FA04F411FA7E
:100700000CF118BF012121430843A3EB0C01CB1DC1
:100710004FEA00614FEA102042BF002010BC704732
:1007200000EBC35010440029A4BF10BC7047401C0C
:10073000490008BF20F0010010BC704710B5141E1E
:1007400073F1000408DA401C41F1000192185B418A
:100750001A4301D120F0010010BD2DE9F04D924661
:100760009B4611B1B1FA81F202E0B0FA80F2203278
:100770009046FFF77BFF04460F4640EA0A0041EA35
:100780000B0153465A46084313D0114653EA010061
:1007900019D0C8F140025046FFF777FF05460E46D4
:1007A000504659464246FFF761FF084305D00120F5
:1007B00004E020463946BDE8F08D0020054346EAB6
:1007C000E0762C4337430A986305E40AA0EB08005F
:1007D0000022FD0A44EA47540A3002D500200146AF
:1007E000E9E7010510196941DDE90845001969418A
:1007F000BDE8F04DA2E7C1F30A52C1F3130140F284
:10080000FF3341F480119A4202DA0020014670471A
:1008100040F233439A42A2F2334202DC5242FFF7E3
:1008200034BFFFF723BF000030B5041E71F1000490
:1008300004DB4FF00044404264EB0101141E73F1ED
:10084000000405DB1C464FF00043524263EB0403F7
:10085000994208BF904230BD1CB509480090094834
:1008600001900546009C06E0E06840F0010394E832
:10087000070098471034AC42F6D3FFF7B1FC0000F4
:100880007080000890800008FEE7000040F2BA1077
:10089000C2F20000027840F21400C2F200000188A7
:1008A000012A05D1B1F57A6F2ED04FF69C7204E083
:1008B000B1F5FA5F08BF704764221144018088B225
:1008C00040F60011C0F23D0140F2E40CB1FBF0F043
:1008D000C2F2000CDCF80020431E40F21001D3628B
:1008E000C2F2000191ED000A9FED081ACCF80C301D
:1008F00080EE010A01EE100AB8EEC11A20EE010ADC
:10090000BCEEC00A82ED0E0A704700BF0000C8426C
:1009100010B540F60044C4F60004A4F580604FF41E
:100920007F41012200F0E8FE20460421012200F070
:10093000E3FE204604210022BDE8104000F0DCBEAA
:1009400010B540F60044C4F60004A4F580630A46DE
:100950000102184600F0D0FE20460421012200F0DA
:10096000CBFE204604210022BDE8104000F0C4BEAA
:1009700070470000F0B581B040F60044C4F60004B2
:10098000A4F5806528464FF47F410122012700F03D
:10099000B3FE20460421012200F0AEFE20460421D1
:1009A0000022002600F0A8FE40F2B910C2F20000BA
:1009B00000784AF6AB21CAF6AA214843B0F1553F68
:1009C00088BF012628464FF48071324600F094FE1D
:1009D00020460421012200F08FFE2046042100223F
:1009E00000F08AFE40F21400C2F200000088B0F568
:1009F0007A6F0AD0B0F5FA5F07D040F2B810C2F2B1
:100A00000000017881F001070770FAB228464FF420
:100A1000007100F071FE20460421012200F06CFEFE
:100A200020460421002200F067FE40F22800C2F2B6
:100A30000000027828464FF48061002A18BF012286
:100A400000F05AFE20460421012200F055FE204607
:100A50000421002201B0BDE8F04000F04DBE0000CE
:100A6000B0B588B040F2B910C2F200000078AB21F6
:100A70004143490A01EB4101401AC0B201285FD04D
:100A8000002840F09780C6480DF1040C0090C4A0E7
:100A9000051D2ECD007D8CE80E008DF814006946F2
:100AA0001820049502F0F2FE40F2BA10C2F20000E3
:100AB0000078002800F0CA80BF480DF1040C0090B7
:100AC000BDA0031D0ECB00698CE80E0004906946A2
:100AD000482002F0DBFE40F21600C2F2000000885F
:100AE0004000FFF72FFD9FED940B53EC102BFFF709
:100AF00048FC044640F21C00C2F2000000780D469B
:100B0000FFF731FD02460B4620462946FFF739FC28
:100B1000044640F21B00C2F2000000780D4664213A
:100B20004843FFF70FFD02460B4620462946FFF7D4
:100B30009AFCFFF738FD40F2BC11C2F20001C7E099
:100B40007F480DF1040C00907DA0051D2ECD007D89
:100B50006C468CE80E008DF8140018202146049590
:100B600002F094FE40F21C00C2F2000002787AA16A
:100B7000204605F0B9FC4820214602F087FE40F2ED
:100B80001B00C2F20000027879A1204605F0ACFCFF
:100B90006020214602F07AFE7B480DF1040C0090A3
:100BA00079A0051D2ECD808A8CE80E000495ADF845
:100BB000140045E048F25800C0F60000046990E8CF
:100BC0002E00007D04946C468DE82E008DF81400F4
:100BD0001820214602F05AFE40F2BB10C2F200007B
:100BE000027848F20001C0F60001204605F07CFCC6
:100BF0004820214602F04AFE40F22000C2F20000E6
:100C00000068FFF7BDFC0B4647F6CC710246C0F604
:100C10000001204605F068FC6020214602F036FE07
:100C200040F22400C2F200000068FFF7A9FC0B4666
:100C300047F6E6710246C0F60001204605F054FC76
:100C40007820694602F022FE08B0B0BD48F24400A8
:100C5000C0F6000090E82E0000698DE82E00049098
:100C60006946482002F012FE40F21800C2F200006D
:100C700000884000FFF766FC9FED2F0B53EC102B14
:100C8000FFF77FFB044640F21C00C2F20000007830
:100C90000D46FFF768FC02460B4620462946FFF743
:100CA00070FB044640F21B00C2F2000000780D46C3
:100CB00064214843FFF746FC02460B46204629467E
:100CC000FFF7D1FBFFF76FFC40F2C011C2F2000149
:100CD0000860FFF755FC0B4648F22D016C460246B2
:100CE000C0F60001204605F0FFFB7820214602F007
:100CF000CDFD40F21000C2F200000068FFF740FC9A
:100D00000B4648F215010246C0F60001204605F0E8
:100D1000EBFB6020214602F0B9FD40F21400C2F264
:100D20000000028829A1204605F0DEFBC0206946AC
:100D300002F0ACFD08B0B0BD1F85EB51B81E0940F4
:100D400020202020202020205041524120202020FF
:100D500020202020000000002020202020523D25BF
:100D6000642020202020202020202020200000009F
:100D700020202020204B3D256420202020202020E2
:100D800020202020200000002020202020202020C3
:100D900020202020202020202020202020000000B3
:100DA00020202020202020204441544120202020A9
:100DB000202020200000000020202020204D3D4841
:100DC0002020202020202020202020006672657115
:100DD0003D25642020000000704700000000000056
:100DE0002DE9F04F81B02DED028B82B040F216005C
:100DF000C2F2000000884000FFF7A4FB9FED3E0B0D
:100E000053EC102BCDE90023FFF7BBFA044640F268
:100E10001C00C2F2000000780D46FFF7A4FB8246DA
:100E20008B462046294652465B46FFF7AAFA9FEDBD
:100E3000340B54EC105B2A462346FFF714FB804624
:100E400040F21B00C2F2000000788946FFF78BFBDE
:100E500006460F464046494632463B46FFF703FBEF
:100E6000FFF7A1FB40F21802C2F2000240F2BC11EF
:100E70001288C2F2000108EE100A08605000FFF765
:100E800061FBDDE90023FFF77CFA52465B46FFF782
:100E900078FA2A462346FFF7E6FA32463B46FFF742
:100EA000E2FAFFF780FB40F22001C2F2000140F2BB
:100EB000C01291ED000AC2F200021060B4EE480ABE
:100EC00000EE100A40F22400F1EE10FAB8BF81EDF6
:100ED000008AC2F2000090ED001AB4EE401AF1EE62
:100EE00010FAB8BF80ED000A02B0BDEC028B01B071
:100EF000BDE8F08F00BF00BF1F85EB51B81E094051
:100F00000000000000005940F0B581B000220092BE
:100F100090F85820012A03D10221084601B0F0BD03
:100F20000123076880F85830BB685B0734D4D1E9E7
:100F300000351F26C5F3012407EB8404226B05F05E
:100F40001F05AE40C3F38463B243AB401A43226330
:100F5000BA68BB6802F0040203F00803D21840F03C
:100F6000BC800A6807F114030426C2F34064D1F878
:100F700008E006EAD25C53F82440C2F30455072285
:100F8000AA40BEF1004F24EA02040BD143F80C4002
:100F90001A6842F000430DE0C16D41F02001C165C7
:100FA00001216AE10EFA05F2224343F80C201A6887
:100FB00022F000437B61D1E90435FC68042B5FD14A
:100FC0003A6E3A6E0B68C2F3846293FAA3F6C3F3E7
:100FD000846C6FF3DF43B6FA86F5002B2C464FF690
:100FE000FF7E08BF6446A242C0F2070E0CD13A6EE3
:100FF00022F000423A660A6802EA0E03C2F3846CE9
:1010000092FAA2F2B2FA82F57A6E7A6E002BC2F3ED
:1010100084622C4608BF6446A2420CD17A6E22F04C
:1010200000427A660A6802EA0E03C2F3846C92FAFE
:10103000A2F2B2FA82F5BA6EBA6E002BC2F38462E3
:101040002C4608BF6446A2420CD1BA6E22F0004280
:10105000BA660A6802EA0E03C2F3846C92FAA2F23C
:10106000B2FA82F5FA6EFA6E002BC2F3846208BF00
:101070006546AA4231D1FA6E22F00042FA662CE0AF
:10108000062202EA940205FA02FC0E6807F16005E6
:1010900055F823404FF20002C0F2FF3206F0F84646
:1010A000224046EA0C06324342F0004245F8232033
:1010B0000A698B6955F8226026F08076334345F83B
:1010C00022300A690B7F55F82260012B26F000764A
:1010D00008BF06F1007645F82260BA680D68D207AD
:1010E00044D1CA68D7F8B0602B466FF3DF4326EAD5
:1010F000030C4FF6FF7602F01804C0F20706E64034
:1011000000242E40C4F27F0446EA0C06A242C7F82F
:10111000B0602BD195FAA5F2B2FA82F2002B08BF8B
:10112000C5F38462013202F01E0302F01F020126A1
:101130000025964002EB4202CFF6206505EB0255F2
:10114000354345F000750A2B38BF46EA0255C5F312
:10115000406307EB83038A685E69C5F3045507247F
:10116000AC40A643AA4032435A610D680021C8F240
:1011700008010D4200F0808040F2083CC5F2000CEE
:10118000DCF800400021CCF221318D4204F0E07EF9
:1011900004D01021C9F2C0018D423FD1B7F1A04F58
:1011A0004FF0000108BF14F4000266D1DCF8001013
:1011B00042F6635221F0E07141EA0E0141F4000170
:1011C000CCF8001040F20C01C2F200010968C0F234
:1011D0003E528909A1FB0212910901EB41018900EC
:1011E00000910099002947D0009901390091009998
:1011F000002941D00099013900910099E1B300998B
:10120000013900910099B9B3009901390091009911
:1012100000294FF00001E7D12FE000BF0021CCF200
:1012200052718D4210D10021B1EB1E6F0CD1ACF583
:1012300002718F4220D0DCF8001021F0E07141EA09
:101240000E0141F0807115E0ACF502718F424FF054
:10125000000112D00022CCF68432954208BF14F46B
:1012600080020AD1DCF8001021F0E07141EA0E01A1
:1012700041F48001CCF800100021002280F85820B1
:10128000084601B0F0BD0000B0B582B004460020B1
:1012900001904CB1E06D58B121688868800012D48B
:1012A0008868C00019D548E0012002B0B0BD00BF79
:1012B000204600F00BF90020206684F858002168D1
:1012C00088688000ECD588684FF6C072C5F6FF725A
:1012D000104088608868C0002FD44FF6C0728868BC
:1012E000C5F6FF7202F18052104000F18050886014
:1012F00040F20C00C2F20000006842F6635280091E
:10130000C0F23E52A0FB0202900901900198A0B1E8
:10131000019801380190019878B101980138019045
:10132000019850B1019801380190019828B10198B5
:101330000138019001980028EAD18868C00009D4DA
:10134000E06D40F01000E065206E40F00100206686
:10135000012000E000208A68E36D02F0040203F03F
:101360001003D218E26D77D122F481720232E26565
:101370008A68D2071AD140F2083C4FF600534FF664
:101380000062C5F2000CCFF6FF73CFF6FF725CF877
:1013900003305CF802201A43D20707D16268DCF8F8
:1013A000003023F47C131A43CCF8002094F81DE09D
:1013B000E36BD4E902C243EA4E331A4394F8243073
:1013C00042EA0C02012B42EA034207D1D4F828C0BA
:1013D0000023CFF6FE7303EB4C431A43E36A33B1A9
:1013E000D4F830C003F4787343EA0C031A43D1F8FD
:1013F0000CC044F20703CFF6F07303EA0C031A4360
:10140000CA600A69636B22F040621A430A618A6803
:101410008B6802F0040203F00803D21845D194F857
:101420003820237F520042EA833CCB6844F2020218
:1014300023EA020242EA0C02CA6022690B698AB1FD
:1014400043F480330B61D1F8C0C043F6FF732CEA3C
:1014500003031A430EE000BF42F010010120E165D2
:1014600002B0B0BD23F480320A61D1F8C02043F647
:10147000FF739A43C1F8C02094F840300A69012BE9
:1014800010D140F2FD7322EA030CD4E91132D4E901
:1014900013E543EA0C031A4342EA0E022A4342F0E0
:1014A000010201E022F001020A6162690B6B012A6C
:1014B00023F00F0202D1236A013B1A430A63E16D54
:1014C000012262F30101E16502B0B0BD80B586B0D2
:1014D000006840F20012C5F200020021904205911E
:1014E000049101D006B080BD41F24C00C4F202006C
:1014F000026842F400520260026802F40052009254
:10150000009A026842F002020260006800F00200E5
:10151000009000984FF4004001900320CDE90201B3
:1015200040F20040C4F6000001A900F017F806B030
:1015300080BD0000B0B5044600F0E4F8054640F276
:101540000000C2F200004068611C18BF044400BFE4
:1015500000F0D8F8401BA042FAD3B0BD0A68002AB8
:1015600008BF70472DE9F04F82B041F2004500F10D
:1015700038478605C4F60005062340F2004E46EAC9
:101580009724A84208BF0523C4F2010E052C38BFDA
:10159000234600244FF0010B00260027009309E0AA
:1015A0000A68013732FA07F306F1040604F102046F
:1015B00000F098800BFA07F912EA0908F0D04A689F
:1015C00042F01005122D13D16FF0030202EA570208
:1015D0000244D2F820A006F01C030F25D1F810C059
:1015E0009D402AEA05050CFA03F32B4313624A686F
:1015F00003680325A5406FEA050AAB4302F0030523
:10160000A5402B43122A036012D80BFA02F313F001
:10161000061F0DD08368CD6803EA0A03A5402B435B
:1016200083604368150923EA0903BD402B434360E7
:10163000C3688D6803EA0A03A5402B43D200C36048
:10164000AED541F26003C4F202031A684FF60849AE
:1016500042F001021A601A68CFF6FF7902F0010227
:101660000192019A27F00302724452F809C006F071
:101670000C050F23AB402CEA030C009B03FA05F585
:1016800045EA0C0342F80930DEF800C04B684CEA2A
:101690000805DA0358BF2CEA0805CEF80050DEF83A
:1016A00004C09A034CEA080558BF2CEA0805CEF896
:1016B0000450DEF808C0DA024CEA080558BF2CEAEC
:1016C000080540F20C4CCEF80850C4F2010CDCF8CE
:1016D00000209B0242EA080558BF22EA0805CCF820
:1016E00000505DE702B0BDE8F04F70470069084068
:1016F00018BF0120704700001823002A08BF2823C4
:10170000C150704740F2C410C2F200000068704738
:1017100040F2000040F2C411C2F20000C2F2000127
:1017200040680A68104408607047000080B50320D4
:1017300000F092F8002000F009F800281CBF0120FA
:1017400080BD00F029F8002080BD000070B540F297
:101750000006C2F200067168E1B1044640F20C00D6
:10176000C2F200004FF47A720068B2FBF1F1B0FBF4
:10177000F1F000F03FFE0F2C4FF0010508D838B90A
:101780004FF0FF3021460022002500F039F8346088
:10179000284670BD012070BD82B041F25800C4F2ED
:1017A0000200816841F001018160816801F001015E
:1017B00001910199016841F080510160006800F0D9
:1017C00080500090009847F20800C4F200000168C1
:1017D00021F48041016002B070470000002848BF3A
:1017E000704700F01F01012202FA01F11C2202EAF7
:1017F000D0004EF20012CEF200028150704700007D
:1018000010B54EF60C5CCEF2000CDCF80030C3F3E1
:10181000022E8EF00704042C28BF0424BEF103031B
:101820004FF0FF3E0EFA04F438BF0023A143994065
:101830000EFA03F39A43114300F00F0200F16043E4
:101840000901043A03F564436244002848BF02F1E9
:101850000C03197010BD00004EF60C51CEF20001C1
:101860000A684FF6FF031A4060F30A2242F08060D4
:1018700040F0FD7008607047B0F5007F42D000284E
:1018800040F0808047F21400C4F2000050F8141CAD
:10189000C26E01F4C06122F48072B1F5806FC2663D
:1018A0002ED150F8141C012262F34A2140F8141C76
:1018B00040F20C01C2F200010968322251434DF698
:1018C0008362C4F21B32A1FB0212910C0268520522
:1018D00011D54A1C0FD0026852050CD559B10268C7
:1018E000520508D5012906D00268520503D5022900
:1018F000A1F10401EAD10068400544BF032070470C
:101900000020704747F21400C4F2000050F8141C85
:10191000C26E01F4C06142F48072B1F5806FC2669C
:10192000EED150F8141C012262F34A2140F8141C35
:1019300040F20C01C2F200010968322251434DF617
:101940008362C4F21B32A1FB0212910C02685205A1
:1019500011D54A1C0FD0026852050CD559B1026846
:10196000520508D5012906D00268520503D502297F
:10197000A1F10401EAD10068400544BF032070478B
:10198000BEE700BF47F21400C4F2000050F8141C78
:10199000022262F34A2140F8141C00207047000024
:1019A0002DE9F04182B00446807841F288060007B4
:1019B000C4F2020602D400202FE000BF56F8300C1B
:1019C0005FEAC0080BD456F8300C40F0805046F85F
:1019D000300C56F8300C00F080500190019847F21E
:1019E0000007C4F20007386840F480703860FFF7E1
:1019F00089FE05463868C00500F1D680FFF782FEF3
:101A0000401B0228F6D90320B8F1000F05D456F880
:101A1000301C21F0805146F8301C2168CA0713D1D0
:101A20008A0719D44A071FD40A0725D48A062BD45B
:101A30004A0631D40A0637D4CA053DD48A0543D4B0
:101A40004A0549D457E000BF3268636822F00302B8
:101A50001A4332608A07E5D53268A36822F00C0287
:101A60001A4332604A07DFD53268E36822F0300259
:101A70001A4332600A07D9D53268236922F0C002BE
:101A80001A4332608A06D3D53268636922F4406211
:101A90001A4332604A06CDD53268A36922F4405217
:101AA0001A4332600A06C7D53268E36922F440421D
:101AB0001A433260CA05C1D53268236A22F4403223
:101AC0001A4332608A05BBD53268636A22F4402229
:101AD0001A4332604A050ED53268A36A22F44012D6
:101AE0001A43B3F5801F326005D156F87C2C42F4BE
:101AF000801246F87C2C0A050ED53268E36A22F47F
:101B000040021A43B3F5800F326005D156F87C2CA1
:101B100042F4801246F87C2CCA040ED53268236B3E
:101B200022F040721A43B3F1807F326005D156F83B
:101B30007C2C42F4801246F87C2C8A040ED5326844
:101B4000636B22F040621A43B3F1006F326005D13B
:101B500056F87C2C42F4801246F87C2C4A040ED5B0
:101B60003268A36B22F040621A43B3F1006F326017
:101B700005D156F87C2C42F4801246F87C2C0904DE
:101B80000ED53168E26B21F040511143B2F1805F14
:101B9000316005D156F87C1C41F4803146F87C1C3C
:101BA00002B0BDE8F08100BFB06810F4407010D002
:101BB000216C88420BD0B068B16820F4407041F4C9
:101BC0008031B160B16821F48031B160B060C0078C
:101BD0000CD1B068216C20F440700843B060002044
:101BE000B8F1000F3FF519AF11E700BFFFF78AFD0D
:101BF000054641F2883700BFB0688007E9D4FFF797
:101C000081FD401BB842F7D9FDE600002DE9F04701
:101C1000002865D042F2000AC4F2020A0446DAF84B
:101C200000000D4600F00F0088420CD2DAF80000E8
:101C300020F00F002843CAF80000DAF8000000F096
:101C40000F00A8424CD1216841F20808C807C4F22D
:101C5000020803D1880740F1D480B9E06068022807
:101C60003AD0032840D158F8082C920138D5D8F83A
:101C70000420D8F8043042F20046C3F3031302F004
:101C80000302D8F804700133C0F2F406032A04BF3B
:101C900043F20066C0F26E16B6FBF3F2D8F80430D9
:101CA000C7F306277A43C3F34163022707EB4303D5
:101CB000B2FBF3F24BF20043C0F2C4439A425DD947
:101CC000D8F8002012F0F00F4DD0890756D5A16842
:101CD000002953D147E000BF58F8081C890307D4F6
:101CE0000120BDE8F08700BF58F8081C4905F7D56A
:101CF000D8F8001001F00C0104293FD0D8F80010EA
:101D000001F00C01082939D0D8F8001001F00C01BD
:101D10000C2933D1D8F80410D8F8042042F2004737
:101D2000C2F3031201F00301D8F804300132C0F20B
:101D3000F407032904BF43F20067C0F26E17B7FB34
:101D4000F2F1D8F80420C3F306235943C2F34162E9
:101D5000022303EB4202B1FBF2F14BF20042C0F26C
:101D6000C44291420AD9D8F80010082262F3071140
:101D70004FF00109C8F8001002E000BF4FF0000961
:101D8000D8F8001021F003010843C8F80000FFF75D
:101D9000B9FC064641F28837D8F80000616800F0C7
:101DA0000C00B0EB810F07D0FFF7ACFC801BB842F2
:101DB000F2D90320BDE8F0872168880708D4B9F17B
:101DC000000F1ED0D8F8000020F0F00017E000BF90
:101DD000480705D5D8F8000040F4E060C8F80000D6
:101DE000080706D5D8F80000072262F30D20C8F8CE
:101DF0000000D8F80000A26820F0F0001043C8F8F6
:101E00000000DAF8000000F00F00A8421BD9DAF851
:101E1000000020F00F002843CAF80000FFF772FC12
:101E2000064641F2883700BFDAF8000000F00F00E4
:101E3000A84207D0FFF766FC801BB842F4D9032004
:101E4000BDE8F0872168480707D5D8F80000E268A8
:101E500020F4E0601043C8F80000080708D5D8F85F
:101E60000000216920F4605040EAC100C8F8000079
:101E7000D8F8000042F20041C0F2F40100F00C007A
:101E8000042808462DD0D8F8000000F00C000828DF
:101E900043F20060C0F26E1023D0D8F8002002F0A8
:101EA0000C020C2A1CD1D8F80420D8F8043002F017
:101EB0000302C3F30313D8F804700133032A08BFE5
:101EC0000146B1FBF3F0D8F80410C7F30627C1F3BD
:101ED00041610222784302EB4101B0FBF1F000E0E6
:101EE0000020D8F8001046F6EC52C1F30311C0F6FA
:101EF0000002515C40F20C0201F01F0120FA01F1D6
:101F000040F20000C2F200000068C2F2000211605C
:101F1000BDE8F047FFF71ABC002804BF0120704756
:101F20002DE9F04182B00446007841F20006C00776
:101F3000C4F202061ED1207880073DD42078000725
:101F400064D42078400700F187802078800600F173
:101F5000D980E069002800F0C581B16801F00C016A
:101F60000C2940F03181012840F08481012002B029
:101F7000BDE8F081B06800F00C01F068082961D07C
:101F8000032281F00C0122EA00000844B0FA80F03C
:101F9000400957D16068B0F5803F07D0B0F5A02F59
:101FA00040F0E480306840F480203060306840F4D5
:101FB00080303060E5E000BFB068F16800F00C00F0
:101FC000042871D001F0030180F00C0081F00201BF
:101FD0000844B0FA80F0400966D1E1683068002911
:101FE00000F0E08040F480703060FFF78BFB054626
:101FF0003068400500F1FE80FFF784FB401B02289B
:10200000F6D9032002B0BDE8F08100BF6169D6F8BF
:102010009400002900F0948040F00100C6F894007C
:10202000FFF770FB054600BFD6F8940080073FF528
:1020300088AFFFF767FB401B0228F5D9032002B0E9
:10204000BDE8F081306880037FF575AF60680028D7
:102050007FF471AF3EE000BFB06D5FEAC00808D406
:10206000B06D40F08050B065B06D00F080500190D0
:10207000019847F20007C4F200073868C0052DD464
:10208000386840F480703860FFF73CFB054600BFBD
:102090003868C00522D4FFF735FB401B0228F7D96A
:1020A000032002B0BDE8F0813068400501D5E0684A
:1020B00080B17068216920F0FE4040EA01607060E4
:1020C00040F20000C2F200000068FFF73FFB00286A
:1020D0003FF434AF012002B0BDE8F081A0680128D0
:1020E00008D0052840F0A480D6F8900040F0040005
:1020F000C6F89000D6F8900040F00100C6F89000B5
:10210000A4E000BFA169D6F89800002900F07A8009
:1021100040F00100C6F89800FFF7F4FA054600BF4A
:10212000D6F8980080073FF514AFFFF7EBFA401B95
:1021300002284FF00300F3D902B0BDE8F08100BFE0
:1021400020F00100C6F89400FFF7DCFA054600BF56
:10215000D6F8940080077FF5F4AEFFF7D3FA401B62
:102160000228F5D9032002B0BDE8F08131680028CB
:1021700021F480313160316821F48021316000F038
:10218000CF80FFF7BFFA0546306880033FF5D3AE36
:10219000FFF7B8FA401B6428F6D9032002B0BDE867
:1021A000F08100BF20F480703060FFF7ABFA054685
:1021B000306840057FF5C2AEFFF7A4FA401B022845
:1021C0004FF00300F4D9B7E73168022821F080719D
:1021D000316040F08B80FFF795FA0546306880014A
:1021E00040F1CA80FFF78EFA401B02284FF003002F
:1021F000F4D9A1E77068216920F0FE4040EA01604F
:1022000070609BE620F00100C6F89800FFF77AFAAC
:10221000054600BFD6F8980080077FF59AAEFFF715
:1022200071FA401B02284FF00300F3D984E700BF86
:10223000D6F89010002821F00101C6F89010D6F8C9
:10224000901021F00401C6F8901079D0FFF75AFAE7
:10225000054641F2883700BFD6F89000800700F1AC
:102260008180FFF74FFA401BB842F5D9032002B036
:10227000BDE8F081F068216A00F003028A427FF431
:1022800029AF626A6FF00F0300F0F00103EB021256
:1022900091427FF41FAFA16A00F4FE42B2EB012F1E
:1022A0007FF418AFE16A00F07842B2EBC16F7FF4BF
:1022B00011AF226B0023CFF6E07303EA025200F461
:1022C000C001A2F5001291427FF404AF616B4FF0A0
:1022D0007E4202EA016100F0C06001F17E41884265
:1022E0007FF4F8AE002002B0BDE8F081F0684FF650
:1022F000FF7120F00300F060F068CFF6EE61084057
:10230000F060FFF7FFF9044630688001EAD5FFF777
:10231000F9F9001B02284FF00300F5D90CE700BFC4
:10232000FFF7F0F9054600BF306880037FF503AE84
:10233000FFF7E8F9401B64284FF00300F4D9FBE6EF
:10234000FFF7E0F9054641F2883700BFD6F8900064
:10235000800707D5FFF7D6F9401BB8424FF00300BE
:10236000F4D9E9E6B8F1000F3FF5EFADB06D20F01C
:102370008050B065E9E500BFF06848F20C01C0F29A
:102380009F1104F1200700EA010C8ECF6FF00F00BF
:10239000D4E90C5400EB02100022CFF6E07241EABF
:1023A0000C0102EA05520843A2F500124FF07E45E7
:1023B00040EA032005EA0465104305F17E4540EA42
:1023C000C7602843F060306840F080703060F0688B
:1023D00040F08070F060FFF795F9044630688001A6
:1023E0003FF580AFFFF78EF9001B02284FF0030086
:1023F000F4D9A1E6411E0020B0EB116F1CBF0120F3
:1024000070474EF21002CEF2000251604EF6235198
:10241000CEF20001F0230B7007219060116070472D
:1024200070470000704700007047000070470000D0
:10243000704700007047000090F83C20012A4FF0E0
:1024400002022ED010B580F83D20026843F200430E
:10245000D2F804E0D2F808C0C4F201039A4205D0D1
:1024600042F60043C4F201039A4204D14C682EF4B0
:10247000700344EA030E4FF68F73CFF6FF530C68D8
:1024800003EA0E03896823432CF080042143536040
:1024900091600121002280F83D1080F83C20BDE8C9
:1024A000104010467047000070470000002804BF2D
:1024B0000120704710B5044690F83D0028B900206F
:1024C00084F83C00204600F00DF8022084F83D001E
:1024D0002068211D03F0F8FE012084F83D00002053
:1024E00010BD000080B586B0006840F2FF71C4F2F4
:1024F0000001884220DCB0F1804F5BD040F2004107
:10250000C4F20001884252D141F25800C4F20200E4
:102510000168002241F0020101600068002100F022
:102520000200019001981D20FFF76AF91D2006B0F6
:10253000BDE88040FFF752B940F60001C4F2000147
:10254000884247D044F60001C4F2010188422ED1EE
:1025500041F25800C4F20200816841F48021816098
:10256000816801F480210191019950F80C1C41F01F
:10257000010140F80C1C50F80C0C01A900F00100FE
:102580000190019880200190022002900020CDE966
:102590000300012005904FF09040FEF7DFFF1A2066
:1025A00000210022FFF72CF91A20FFF717F906B0D7
:1025B00080BD00BF41F25800C4F20200016841F042
:1025C00001010160006800F001000190019806B06F
:1025D00080BD00BF41F25800C4F202000168002231
:1025E00041F0040101600068002100F00400019046
:1025F00001981E20FFF704F91E2006B0BDE88040B8
:10260000FFF7ECB800680722C168C0F2010241F090
:102610000101C16081681140062902D0B1F5803FF7
:1026200002D10020704700BF016841F00101016044
:102630000020704790F83C20012A4FF0020200F081
:10264000B78080B580F83D20D0F800C08822DCF843
:102650000830CFF6CE721A40CCF808200B686F2BEA
:1026600022DD2F22C0F21002934247DCB3F1101F8B
:1026700056DA702B00F0C080B3F5005F40F0908018
:10268000D1E901E3C968DCF8082043EA0E0322F42B
:102690007F4243EA01211143CCF80810DCF808100E
:1026A00041F480417AE000BF2F2B33DD4F2B3BDC20
:1026B000302B69D0402B73D1D1F804E0C968DCF825
:1026C0002030DCF8202022F00102CCF82020DCF8B9
:1026D000182022F0F00242EA011123F00A0242EA35
:1026E0000E02CCF81810CCF82020DCF808104FF6B9
:1026F0008872CFF6CF72114047314FE05F21C0F2B0
:1027000010018B4236DC3021C0F210018B423BD0ED
:10271000402135E0C3B3102B36D0202B34D03FE01E
:1027200032D020212CE000BF502B43D0602B37D17A
:10273000D1F804E0C968DCF8203023F01003CCF8AD
:102740002030DCF81830DCF8202023F4704322F02D
:10275000A00243EA013142EA0E12CCF81810CCF87C
:102760002020DCF808104FF68872CFF6CF721140A7
:10277000673113E06021C0F210018B4204D0702158
:10278000C0F210018B420BD1DCF808104FF68872B2
:10279000CFF6CF721140194341F00701CCF8081071
:1027A0000121002280F83D1080F83C20BDE88040E7
:1027B00010467047D1F804E0C968DCF82030DCF836
:1027C000202022F00102CCF82020DCF8182022F092
:1027D000F00242EA011123F00A0242EA0E02CCF8AA
:1027E0001810CCF82020DCF808104FF68872CFF6CD
:1027F000CF7211405731D1E7D1E901E3C968DCF864
:10280000082043EA0E0322F47F4243EA01211143E8
:10281000CCF80810DCF8081041F07701BEE70000A2
:10282000006844F60001C4F20101884218BF7047F5
:1028300040F2A400C2F20000016800234A6A4B6221
:1028400040F2BA11C2F2000144F24023097892B278
:10285000C0F20F03B3FBF2F240F2160340F2180C81
:10286000C2F2000300294FF00001C2F2000C08BFC1
:1028700063461A8000F0E8B890F83C30012B4FF026
:10288000020300F0BD80F0B5082A80F83D3025D065
:10289000042A43D0002A5FD10368D1E900C5D1F8EA
:1028A0000CE01A6A42F6FF3722F001021A621A4659
:1028B00052F8186F1C6AC4F20107BB4272DCB3F114
:1028C000804F00F0818040F20047C4F20007BB4215
:1028D0007AD040F60007C4F2000773E00768D1E938
:1028E00000C5D1E902313A6A61F3071522F480721A
:1028F0003A623A4652F81C4F3E6A24F0F30445EA25
:10290000040126F420660CF00A0546EA052611604B
:102910003E62116821F00C01116066E00368D1E9A4
:1029200000E6D1E902C11A6A360222F010021A62E8
:102930001A4652F8184F4FF2FF071D6ABE4324F49F
:10294000734461F30F3646EA040125F0A0040EF04B
:102950000A0744EA07171CE00368D1E900E6D1E959
:1029600002C11A6A360222F480521A621A4652F8DA
:102970001C4F4FF2FF071D6ABE4324F4734461F3FA
:102980000F3646EA040125F420440EF00A0744EA13
:10299000073711601F6211684FEA0C2321F4406170
:1029A000116022E042F60047C4F20107BB420BD09F
:1029B00044F20007C4F20107BB4205D043F20047CE
:1029C000C4F20107BB421DD126F00306354324F0B3
:1029D0000A070CF00A066EF3071537449D611F6263
:1029E0009F6927F00C079F618B681168194311607C
:1029F0000121002380F83D1080F83C30BDE8F04014
:102A00001846704746F00105E1E70000002804BFC2
:102A10000120704710B5044690F83D0028B9002009
:102A200084F83C00204600F00DF8022084F83D00B8
:102A30002068211D03F048FC012084F83D0000209F
:102A400010BD0000704700004FEAB102032A09D808
:102A5000DFE802F0020A10160068C26842F00202C3
:102A600012E000BF006810E00068C26842F0040293
:102A70000AE000BF0068C26842F0080204E000BF3C
:102A80000068C26842F01002C26001F01F0101221A
:102A9000036A02FA01F123EA01020262026A1143A7
:102AA000016281680722C0F201021140062902D0AA
:102AB000B1F5803F02D10020704700BF016841F0AE
:102AC000010101600020704710B5016804460869E3
:102AD000800744BFC8685FEA807061D40869400716
:102AE00044BFC8685FEA407066D40869000744BF05
:102AF000C8685FEA00706DD40869C00644BFC86842
:102B00005FEAC06072D40869C0071CBFC8685FEA8A
:102B1000C07079D10869000644BFC8685FEA0060E8
:102B20007AD40869C00544BFC8685FEA006000F154
:102B30007B800869400644BFC8685FEA406000F1D6
:102B40007B800869800644BFC8685FEA806000F146
:102B50007B800869C00244BFC8685FEAC02000F1FA
:102B60007B800869800244BFC8685FEA802000F16A
:102B70007B800869400244BFC8685FEA402000F1DA
:102B80007B800869000246BFC8685FEA002010BD6C
:102B90006FF4000220460A61BDE81040FFF784BCD4
:102BA0006FF00200086101202077886980076BD0F0
:102BB0002046FFF735FE6DE06FF00400086102204B
:102BC0002077886910F4407F68D02046FFF728FE00
:102BD0006AE000BF6FF00800086104202077C86930
:102BE000800765D02046FFF71BFE67E06FF01000FE
:102BF000086108202077C86910F4407F62D0204621
:102C0000FFF70EFE64E000BF6FF001000861204690
:102C100000F0AAFA21687DE76FF080000861204685
:102C2000FFF700FC21687CE76FF4807008612046A4
:102C3000FFF7F6FB21687CE76FF040000861204653
:102C400000F08EFB21687CE76FF0200008612046D1
:102C5000FFF7EAFB21687CE76FF4801008612046EB
:102C6000FFF7E6FB21687CE76FF40010086120465F
:102C7000FFF7DCFB21687CE76FF4800008612046E9
:102C8000FFF7D8FB21687CE7204600F025F82046B6
:102C900000F02EFA2168002020771FE7204600F080
:102CA0001BF8204600F024FA2168002020771CE75A
:102CB000204600F011F8204600F01AFA21680020A2
:102CC000207719E7204600F007F8204600F010FAB8
:102CD00021680020207716E77047000090F83C300C
:102CE000012B4FF0020300F0E2814FEAB202052A05
:102CF00080F83D3000F2D5812DE9F041DFE812F097
:102D000006005400A800FC0050018E0103681A6AF6
:102D1000A3F1804622F001021A621D6A1A46A6F546
:102D200096369F05D3F804C052F818EF47EA962666
:102D30008F68D1F8008025F00205072E45EA0705C7
:102D40000AD80127B74017F0E50F1FBFCF6825F05D
:102D50000C0527F004073D43072E0CD8012707FA7E
:102D600006F616F0E50F1FBFD1E905672CF4407495
:102D7000264346EA070C4FF68C74CFF6FE740EEA33
:102D8000040747EA0807C3F804C09F614F68096950
:102D90005F631D629F6947F008079F619F6927F085
:102DA00004079F6178E100BF036843F200461A6A96
:102DB000C4F2010622F010021A621D6A1A46D3F804
:102DC00004C052F8188FB3428E68D1F800E025F0A5
:102DD000200545EA061505D042F60046C4F2010674
:102DE000B34207D1CE686FF0400725F0C00507EA6F
:102DF00006163543A3F18046A6F596369F0547EAA9
:102E00009626072E0CD8012707FA06F616F0E50FCE
:102E10001FBFD1E905672CF44064374344EA870CAF
:102E200048F6FF44CFF6FF6404EA080444EA0E279C
:102E3000C3F804C09F614F6809699F631D629F6961
:102E400047F400679F619F6927F480679F6122E1D3
:102E5000036843F200461A6AC4F2010622F4807243
:102E60001A621D6A1A46D3F804C052F81C8FB34286
:102E70008E68D1F800E025F4007545EA062505D0F6
:102E800042F60046C4F20106B34207D1CE6840F2D2
:102E9000FF47360225F44065BE433543A3F1804623
:102EA000A6F596369F0547EA9626072E0CD80127E9
:102EB00007FA06F616F0E50F1FBFD1E905672CF4F7
:102EC0004054374344EA071C4FF68C74CFF6FE7427
:102ED00004EA080444EA0E07C3F804C0DF614F683F
:102EE0000969DF631D62DF6947F00807DF61DF6999
:102EF00027F00407DF61CFE0036843F200461A6A57
:102F0000C4F2010622F480521A621D6A1A46D3F8EE
:102F100004C052F81C8FB3428E68D1F800E025F44B
:102F2000005545EA063505D042F60046C4F20106D2
:102F3000B34207D1CE6844F6FF77360325F4404507
:102F4000BE433543A3F18046A6F596369F0547EA72
:102F50009626072E0CD8012707FA06F616F0E50F7D
:102F60001FBFD1E905672CF44044374344EA871C6E
:102F700048F6FF44CFF6FF6404EA080444EA0E274B
:102F8000C3F804C0DF614F6809691F641D62DF690F
:102F900047F40067DF61DF6927F48067DF617AE06B
:102FA00003681A6AA3F1804722F480321A621A4633
:102FB000A7F596379C05D3F820805D6852F850EF4E
:102FC000D1F800C08E6844EA9727072F09D801245A
:102FD000BC4014F0E50F1EBF4C6925F4803545EA6E
:102FE000042528F4003444EA06444FF68C76CFF6E4
:102FF000FE7603360EEA060747EA0C075D601F659A
:103000004F6809699F641C621F6D47F008071F65C0
:103010001F6D27F004071F653EE000BF03681A6AB2
:10302000A3F1804722F480121A621A46A7F5963758
:103030009C05D3F820805D6852F850EFD1F800C0AD
:103040008E6844EA9727072F09D80124BC4014F062
:10305000E50F1EBF4C6925F4802545EA842528F438
:10306000001444EA065448F6FF46CFF6FF6606F51C
:1030700040760EEA060747EA0C275D601F654F6839
:103080000969DF641C621F6D47F400671F651F6DCF
:1030900027F480671F650902136819431160BDE8B2
:1030A000F0410121002380F83D1080F83C301846A3
:1030B00070470000002804BF0120704710B5044687
:1030C00090F83D0028B9002084F83C00204600F02C
:1030D0000DF8022084F83D002068211D03F0F4F86B
:1030E000012084F83D00002010BD00007047000062
:1030F00070470000006801F01F024FF0010C036AE6
:103100000CFA02F293430362036A81051343A0F1B0
:103110008042A2F5963241EA9222062A03621BD827
:103120000CFA02F111F0650F16D0416C41F4004128
:10313000416481680722C0F201021140062902D0D1
:10314000B1F5803F02D10020704700BF016841F017
:10315000010101600020704744F60001C4F2010142
:103160008842E6D1E1E7000070B540F20044054630
:10317000C4F60004006804F17841884240F0D2802F
:1031800020460121FEF7B2FA40F2A416C2F2000670
:10319000307020460221FEF7A9FA70712046042102
:1031A000FEF7A4FAB0724FF090400121FEF79EFAAC
:1031B0007178F07302290BD0012917D031BB317817
:1031C00021BB0121717000213171B17901BB47E050
:1031D0003178012912D131790022462972709CBFC1
:1031E0000121B170B17999B93AE000BF317879B372
:1031F00000217170B17959B932E000BF31790131E4
:10320000CAB2472A317124BF0121F170B17939B3B3
:1032100001290DD002292ED1717901290ED1717A9F
:1032200000224629B2719CBF0121F17123E000BF49
:103230007179D9B10021B1711DE000BF717A0131FE
:10324000CAB2472A717224BF0121317213E000BF54
:10325000327902217170511C3171B1790029D7D1B5
:10326000717941B90121B171002103E0727A022123
:10327000B171511C7172F17A71B1012912D0022918
:1032800025D1B17A012913D1B17B00224629F272EE
:103290009CBF012131731AE0B17AC1B90121F172E9
:1032A000002113E0B17A69B10021F1720FE000BF93
:1032B000B17B0131CAB2472AB17324BF01217173B6
:1032C00005E000BFB27B0221F172511CB173317C69
:1032D00071B1012912D0022923D1012812D1F07C29
:1032E0000021462831749CBF0120707419E000BF92
:1032F000B8B901203074002012E000BF60B1002096
:1033000030740EE0F07C0130C1B24729F07424BF64
:103310000120B07405E000BFF17C02203074481C2D
:10332000F074286804F1784101F58061884218BF83
:1033300070BD40F21A04C2F20004207878B940F25D
:103340003405C2F20005288801302880FDF79EFA76
:10335000FDF710FB2888322804BF0120207070BDC3
:1033600070470000FEE7000010B540F60044C4F6C8
:103370000004A4F580604FF47F410122FEF7BCF900
:10338000204604210122FEF7B7F92046042100223D
:10339000BDE81040FEF7B0B92DE9F04740F2A414A3
:1033A000C2F20004A07801280CD0E07901281DD0D9
:1033B000207B012800F0C280607C012800F0D880CA
:1033C000FCE000BF40F2B910C2F200000178013108
:1033D00001700020A07040F23200C2F20000012112
:1033E0000170FDF7C7FAE0790128E1D140F2B91A7E
:1033F000C2F2000A9AF800004AF6AB25CAF6AA25DE
:1034000000FB05F1B1F1553F75D840F21A09C2F23F
:10341000000999F8001000296DD040F2BA18C2F2E4
:10342000000840F2140798F80010C2F2000738882C
:10343000012905D1B0F57A6F2BD04FF69C7103E0CE
:10344000B0F5FA5F25D06421084440F600113880B9
:1034500080B2C0F23D01B1FBF0F040F2E401C2F2F3
:1034600000010A68431E40F21006D362C2F2000651
:1034700096ED000A9FED631ACB6080EE010A01EE23
:10348000100AB8EEC11A20EE010ABCEEC00A82EDA5
:103490000E0AFDF7E5FA388849F64041884202D025
:1034A000B0F5FA5F05D198F8000080F0010088F8C7
:1034B000000040F2BB10C2F200000178013101703F
:1034C000FDF758FA40F264100026C2F2000089F8B5
:1034D0000060FFF797F840F23400C2F20000068067
:1034E00040F2B810C2F20000067002200021FDF781
:1034F00027FA9AF80000684300F15530B0F1553FC3
:1035000016D240F23200C2F200000178012907D140
:1035100040F23301C2F2000100220A70027007E09B
:1035200040F23300C2F20000017881F00101017025
:103530000020E071207B01287FF43EAF40F2330091
:10354000C2F200000078002807BF40F21C00C2F25F
:10355000000040F21B00C2F2000001780A2914BFEB
:1035600001310121017000202073607C012825D1E8
:1035700040F2B910C2F2000000784AF6AB21CAF658
:10358000AA21484300F15530B0F1553F14D240F222
:103590003300C2F200000078002807BF40F21C0090
:1035A000C2F2000040F21B00C2F2000001780139B3
:1035B0000A0608BF0A21017000206074A07C01285F
:1035C00018BFBDE8F08740F2B910C2F200000078E1
:1035D0004AF6AB21CAF6AA214843B0F1553F03D9B8
:1035E00000206082BDE8F08740F22800C2F20000AF
:1035F000017881F001010170FDF7BCF900206082C3
:10360000BDE8F0870000C84240F21841C4F600014E
:103610000A6942F400720A610A6942F480720A611E
:103620000A6842F020020A602022C1F8FC230A69DD
:1036300042F020020A6100BF00BF00BF0A6842F0EA
:1036400020020A600A6842F480720A600022C1F80F
:10365000FC230B6943F020030B6100BF00BF00BFD8
:103660000B6843F020030B600B6843F480730B601E
:103670000B6943F400730B610B6943F480730B61B6
:103680000B6843F020030B602123C1F8FC330B6966
:1036900043F020030B6100BF00BF00BF0B6843F085
:1036A00020030B600B6843F480730B60C1F8FC23AC
:1036B0000A6942F020020A6100BF00BF00BF0A6829
:1036C00042F020020A600A6842F480720A600A69C5
:1036D00042F400720A610A6942F480720A610A685F
:1036E00042F020020A602222C1F8FC230A6942F05B
:1036F00020020A6100BF00BF00BF0A6842F020023A
:103700000A600A6842F480720A6000BF00BF00BF0E
:103710000A6842F400720A604FF496320B69053A67
:1037200043F400730B610B6843F480730B600B6808
:1037300043F020030B60C1F8FC030B6943F0200346
:103740000B6100BF00BF00BF0B6843F020030B609C
:103750000B6843F480730B6000BF00BF00BF0B68B1
:1037600043F400730B600B6943F400730B610B6847
:1037700043F480730B600B6843F020030B60C1F8C7
:10378000FC030B6943F020030B6100BF00BF00BFC7
:103790000B6843F020030B600B6843F480730B60ED
:1037A00000BF00BF00BF0B6843F400730B600B69E0
:1037B00043F400730B610B6843F480730B600B6878
:1037C00043F020030B60C1F8FC030B6943F02003B6
:1037D0000B6100BF00BF00BF0B6843F020030B600C
:1037E0000B6843F480730B6000BF00BF00BF0B6821
:1037F00043F400730B600B6943F400730B610B68B7
:1038000043F480730B600B6843F020030B60C1F836
:10381000FC030B6943F020030B6100BF00BF00BF36
:103820000B6843F020030B600B6843F480730B605C
:1038300000BF00BF00BF0B6843F400730B600B694F
:1038400043F400730B610B6843F480730B600B68E7
:1038500043F020030B60C1F8FC030B6943F0200325
:103860000B6100BF00BF00BF0B6843F020030B607B
:103870000B6843F480730B6000BF00BF00BF0B6890
:1038800043F400730B607FF449AF70470A78002A55
:1038900008BF70472DE9F04146F6FC5804464D1C20
:1038A000002740F23F16C0F6000800BFA2F120003A
:1038B000C1B2490051FA80F008EB0012B1B22046C3
:1038C00000F00AF8EA5D22B1103E132F07F101075C
:1038D000ECD3BDE8F04170472DE9F04740F21843C2
:1038E000C4F600031F694FF0200C47F400771F61F6
:1038F0001F694FF0210E47F480771F611F6840F267
:10390000080947F020071F60C3F8FCC31F6940F295
:10391000300A47F020071F6100BF00BF00BF1F68CB
:103920004FF0220847F020071F601F68C2F200090D
:1039300047F480771F60C3F8FC031F69C2F2000AD6
:1039400047F020071F6100BF00BF00BF1F6847F09E
:1039500020071F601F6847F480771F601F6947F4C6
:1039600000771F611F6947F480771F611F6847F068
:1039700020071F60C3F8FCE31C6944F020041C61AD
:1039800000BF00BF00BF1C6844F020041C601C681E
:1039900044F480741C60C3F8FC131C6944F02004D8
:1039A0001C6100BF00BF00BF1C6844F020041C6005
:1039B0001C6844F480741C60002400BF1D6945F439
:1039C00000751D611D6945F480751D611D6845F018
:1039D00020051D60C3F8FC831D6945F020051D61AD
:1039E00000BF00BF00BF1D6845F020051D601D68B9
:1039F00045F480751D6000BF00BF00BF1D6845F421
:103A000000751D60002500BF32F81460EE40F60717
:103A1000564608BF4E4636881F6947F400771F6137
:103A20001F6847F480771F601F6847F020071F60FA
:103A3000C3F8FC631E696F1C46F020061E6100BFC0
:103A400000BF00BF1E6846F020061E601E6846F4D8
:103A500080761E6000BF00BF00BF1E6846F400767F
:103A60001E6032F81460FE40F607564608BF4E4608
:103A700036881F6947F400771F611F6847F4807715
:103A80001F601F6847F020071F60C3F8FC631E69B2
:103A9000AF1C46F020061E6100BF00BF00BF1E68BD
:103AA00046F020061E601E6846F480761E6000BF49
:103AB00000BF00BF1E6846F400761E6032F8146036
:103AC000FE40F607564608BF4E4636881F6947F443
:103AD00000771F611F6847F480771F601F6847F0F9
:103AE00020071F60C3F8FC631E69EF1C46F0200628
:103AF0001E6100BF00BF00BF1E68043546F02006EF
:103B00001E601E6846F480761E6000BF00BF00BFC6
:103B10001E6846F400761E6032F81460FE40F60718
:103B2000564608BF4E4636881F69102D47F4007769
:103B30001F611F6847F480771F601F6847F02007E8
:103B40001F60C3F8FC631E6946F020061E6100BFBB
:103B500000BF00BF1E6846F020061E601E6846F4C7
:103B600080761E6000BF00BF00BF1E6846F400766E
:103B70001E607FF449AF1D69013045F400751D6179
:103B80001D69013445F480751D611D68182C45F0D0
:103B900020051D60C3F8FCC31D6945F020051D61AB
:103BA00000BF00BF00BF1D6845F020051D601D68F7
:103BB00045F480751D60C5B2C3F8FC531D6945F01E
:103BC00020051D6100BF00BF00BF1D6845F0200536
:103BD0001D601D6845F480751D601D6945F4007504
:103BE0001D611D6945F480751D611D6845F0200546
:103BF0001D60C3F8FCE31D6945F020051D6100BF91
:103C000000BF00BF1D6845F020051D601D6845F41C
:103C100080751D60C3F8FC131D6945F020051D610A
:103C200000BF00BF00BF1D6845F020051D601D6876
:103C300045F480751D6008BFBDE8F087BEE6000052
:103C40002DE9F04F8BB0002641F24C000596C4F2EE
:103C50000200016840F2184541F00401016001686A
:103C6000C4F6000501F0040106910699016801AC53
:103C700041F001010160016840F6140901F0010101
:103C8000069106990168C4F6000941F0020101603D
:103C90000068214600F00200069006984FF4487034
:103CA000019001200290A5F118000127CDE90366DB
:103CB000FDF754FC4FF48070CDE901074FF09040C0
:103CC0002146CDE90366FDF749FC4FF6FF7005F587
:103CD0007A7406904FF0030806A920460A964FF61C
:103CE000FF7B0797CDE90868FDF738FC4FF6004ADF
:103CF000CFF6FF7A55F80A0006A940F4807045F81F
:103D00000A0028684FF6FF7740F408702860286999
:103D100040F400702861286940F4807028612868A8
:103D200040F020002860C9F80060286940F02000B9
:103D3000286100BF00BF00BF286840F02000286055
:103D4000286840F48070286020460A96CDF818B0A4
:103D5000CDF82480CDE90766FDF700FC4FF6104B47
:103D6000CFF6FF7B55F80B0007A940F4807045F8AB
:103D70000B0000BF00BF00BFD5F8F89355F80A004C
:103D800040F4807045F80A00012081E8410106A94D
:103D900020460A960697FDF7E1FB286848F2302195
:103DA00040F40070286040F23600C2F20000A0F833
:103DB00000900088884203D100F05EFA02E000BF64
:103DC00000F0CEFF2869002640F4007028612869C1
:103DD0004FF6FF7840F48070286128684FF003099F
:103DE00040F02000286040F61400C4F60000066091
:103DF000286906A940F02000286100BF00BF00BF6D
:103E0000286840F020002860286840F4807028600E
:103E100020460A96CDE90686CDE90869FDF79EFBA6
:103E200055F80B0007A940F4807045F80B0000BF5F
:103E300000BF00BFD5F8F87355F80A0040F4807051
:103E400045F80A00012081E8410206A920460A96A9
:103E5000CDF81880FDF782FB286840F400702860D8
:103E600040F23600C2F2000007800BB0BDE8F08FD0
:103E700081B0ADF80200BDF8020040F20801C2F2C4
:103E80000001088001B0704781B0ADF80200BDF8B4
:103E9000020040F23001C2F20001088001B0704718
:103EA000B0B588B040F2380040F200110024C2F2F0
:103EB0000000C5F200010425C0E900140121CDE98C
:103EC0000644C0E90244C0E9044485618483016278
:103ED00080F82440C0E90B4480F83840C46380F87F
:103EE0004040FDF7D1F9002818BFFCF775FF48F2F4
:103EF0000000C3F6F06000900620CDE901047F20A9
:103F0000CDE9030540F23800C2F20000694605948D
:103F1000FCF7FAFF002818BFFCF75EFF08B0B0BD41
:103F20002DE9F04387B04FF0000841F24C00CDF886
:103F30001880C4F20200016840F6000541F0040157
:103F400001600168C4F6000501F0040101910199C6
:103F50000168012241F02001016001684FF47F46B1
:103F600001F02001019101990168012741F001014F
:103F70000160016801F0010101910199016841F0BE
:103F800002010160016801F00201019101990168DB
:103F900041F00801016000684FF47F4100F0080023
:103FA000019001982846FDF7A7FB05F5806420469F
:103FB000042100224FF00409FDF79EFB02A880E8CF
:103FC000C00102AE28463146CDF81480FDF7C6FA8E
:103FD0004FF090403146CDE902780497FDF7BEFAE4
:103FE0000720CDE90208A5F5806031460497FDF76A
:103FF000B5FA20463146CDE90297CDE90488FDF7B0
:10400000ADFA07B0BDE8F08380B584B040F2A400FB
:1040100044F60001C2F20000C4F2010100234F2265
:104020004FF6FF7C80E80E10C0E904338361FEF791
:104030003DFA002818BFFCF7CFFE40F2A400C2F200
:104040000000FEF7E3FC002818BFFCF7C5FE0020C7
:1040500001210090CDE90110039040F2A400C2F2CA
:10406000000069460022FEF707FC002818BFFCF795
:10407000B3FE04B080BD000010B594B040F2E4007F
:104080000021C2F200004FF08042132340F2E734D7
:104090000E91CDE90C11CDE90911CDE90711CDE95A
:1040A0000511CDE90311CDE90111C0E90023C0E9F3
:1040B000021401618161FEF7F9F9002818BFFCF7CD
:1040C0008BFE4FF480500B9040F2E400C2F20000EF
:1040D0000BA9FEF7AFFA002818BFFCF77DFE40F2EF
:1040E000E400C2F20000FEF7E5FF002818BFFCF76D
:1040F00073FE40F2E4000024C2F2000008A9089414
:104100000A94FEF799F9002818BFFCF765FE6020B5
:1041100001906420CDE90204059440F2E404C2F267
:10412000000401A920460422FEF7D8FD002818BF8C
:10413000FCF752FE2068B0F1804F01D014B010BDE2
:1041400041F24C00C4F20200016841F0010101603B
:1041500000680FA900F001000F900F980220CDE930
:104160000F000020CDE91100012013904FF0904086
:10417000FDF7F4F914B010BD80B588B040F22410FA
:1041800040F200420021C2F20000C4F200024F23BC
:1041900042F20F7C0791CDE905110291C0E900239D
:1041A000C0E9021C01618161FEF780F9002818BF97
:1041B000FCF712FE4FF48050049040F22410C2F23B
:1041C000000004A9FEF736FA002818BFFCF704FE29
:1041D00000200190039040F22410C2F2000001A9D7
:1041E000FEF72AF9002818BFFCF7F6FD08B080BDDD
:1041F00080B588B040F2641040F600020021C2F29F
:104200000000C4F2000240F21F3342F20F7C07911B
:10421000CDE905110291C0E90023C0E9021C01614A
:104220008161FEF743F9002818BFFCF7D5FD4FF474
:104230008050049040F26410C2F2000004A9FEF71E
:10424000F9F9002818BFFCF7C7FD00200190039082
:1042500040F26410C2F2000001A9FEF7EDF8002858
:1042600018BFFCF7B9FD08B080BD0000FEE70000F4
:10427000704700007047000040F21840C4F600008C
:104280000169002241F40071016101694FF0030CE2
:1042900041F480710161016841F020010160C0F8C2
:1042A000FC23016941F02001016100BF00BF00BF94
:1042B000016841F020010160016841F480710160F2
:1042C0000121C0F8FC13036943F02003036100BF20
:1042D00000BF00BF036843F020030360036843F49A
:1042E00080730360036943F400730361036943F45B
:1042F00080730361036843F020030360C0F8FC137C
:10430000036943F02003036100BF00BF00BF0368DF
:1043100043F020030360036843F480730360C0F834
:10432000FC23026942F02002026100BF00BF00BF0F
:10433000026842F020020260026842F48072026069
:10434000026942F400720261026942F48072026101
:10435000026842F0200202601022C0F8FC230269C9
:1043600042F02002026100BF00BF00BF026842F0BD
:1043700020020260026842F48072026041F2907290
:10438000C0F8FC23026942F02002026100BF00BFB6
:1043900000BF026842F020020260026842F48072AC
:1043A0000260026942F400720261026942F48072A2
:1043B0000261026842F0200202606022C0F8FC2321
:1043C000026942F02002026100BF00BF00BF026824
:1043D00042F020020260026842F4807202604FF4F0
:1043E0001C52C0F8FC23026942F02002026100BFA7
:1043F00000BF00BF026842F020020260026842F47F
:1044000080720260026942F400720261026942F441
:1044100080720261026842F0200202606122C0F8EC
:10442000FC23026942F02002026100BF00BF00BF0E
:10443000026842F020020260026842F48072026068
:10444000C0F8FC13016941F02001016100BF00BF09
:1044500000BF016841F020010160016841F48071F2
:104460000160016941F400710161016941F48071E9
:104470000161016841F0200101604621C0F8FC1390
:10448000016941F02001016100BF00BF00BF016868
:1044900041F020010160016841F480710160022156
:1044A000C0F8FC13026942F02002026100BF00BFA5
:1044B00000BF026842F020020260026842F480728B
:1044C0000260026942F400720261026942F4807281
:1044D0000261026842F0200202601322C0F8FC234D
:1044E000026942F02002026100BF00BF00BF026803
:1044F00042F020020260026842F48072026048F2D8
:104500001002C0F8FC23026942F02002026100BFE1
:1045100000BF00BF026842F020020260026842F45D
:1045200080720260026942F400720261026942F420
:1045300080720261026842F0200202601222C0F81A
:10454000FC23026942F02002026100BF00BF00BFED
:10455000026842F020020260026842F48072026047
:1045600048F2FE02C0F8FC23026942F02002026118
:1045700000BF00BF00BF026842F020020260026874
:1045800042F480720260026942F4007202610269C0
:1045900042F480720261026842F020020260C0F8B8
:1045A000FC13016941F02001016100BF00BF00BFA1
:1045B000016841F020010160016841F480710160EF
:1045C0004FF4A061C0F8FC13016941F020010161C2
:1045D00000BF00BF00BF016841F020010160016819
:1045E00041F480710160016941F400710161016968
:1045F00041F480710161016841F020010160C0F85F
:10460000FCC3026942F02002026100BF00BF00BF8C
:10461000026842F020020260026842F48072026086
:1046200041F23002C0F8FC23026942F0200202612C
:1046300000BF00BF00BF026842F0200202600268B3
:1046400042F480720260026942F4007202610269FF
:1046500042F480720261026842F02002026030225D
:10466000C0F8FC23026942F02002026100BF00BFD3
:1046700000BF026842F020020260026842F48072C9
:10468000026040F20332C0F8FC23036943F02003C8
:10469000036100BF00BF00BF036843F02003036055
:1046A000036843F480730360036943F40073036198
:1046B000036943F480730361036843F020030360DC
:1046C0003123C0F8FC33036943F02003036100BFCA
:1046D00000BF00BF036843F020030360036843F496
:1046E00080730360C0F8FC23036943F02003036177
:1046F00000BF00BF00BF036843F0200303600368EE
:1047000043F480730360036943F400730361036936
:1047100043F480730361036843F020030360322392
:10472000C0F8FC33036943F02003036100BF00BFFE
:1047300000BF036843F020030360036843F4807301
:104740000360C0F8FC23036943F02003036100BF4A
:1047500000BF00BF036843F020030360036843F415
:1047600080730360036943F400730361036943F4D6
:1047700080730361036843F0200303603323C0F8B0
:10478000FC33036943F02003036100BF00BF00BF97
:10479000036843F020030360036843F480730360FD
:1047A0004FF44073C0F8FC33016941F0200101610E
:1047B00000BF00BF00BF016841F020010160016837
:1047C00041F480710160016941F400710161016986
:1047D00041F480710161016841F0200101603421E0
:1047E000C0F8FC13016941F02001016100BF00BF66
:1047F00000BF016841F020010160016841F480714F
:104800000160C0F8FCC3016941F02001016100BFF3
:1048100000BF00BF016841F020010160016841F460
:1048200080710160016941F400710161016941F425
:1048300080710161016841F0200101603521C0F8FB
:10484000FC13016941F02001016100BF00BF00BFFE
:10485000016841F020010160016841F4807101604C
:10486000C0F8FC23016941F02001016100BF00BFD5
:1048700000BF016841F020010160016841F48071CE
:104880000160016941F400710161016941F48071C5
:104890000161016841F0200101603621C0F8FC137C
:1048A000016941F02001016100BF00BF00BF016844
:1048B00041F020010160016841F480710160142120
:1048C000C0F8FC13016941F02001016100BF00BF85
:1048D00000BF016841F020010160016841F480716E
:1048E0000160016941F400710161016941F4807165
:1048F0000161016841F0200101603721C0F8FC131B
:10490000016941F02001016100BF00BF00BF0168E3
:1049100041F020010160016841F480710160C0F83C
:10492000FC23016941F02001016100BF00BF00BF0D
:10493000016841F020010160016841F4807101606B
:10494000016941F400710161016941F48071016103
:10495000016841F0200101603821C0F8FC130169B1
:1049600041F02001016100BF00BF00BF016841F0BC
:1049700020010160016841F480710160C0F8FC23EE
:10498000016941F02001016100BF00BF00BF016863
:1049900041F020010160016841F48071016001690A
:1049A00041F400710161016941F4807101610168A4
:1049B00041F0200101603921C0F8FC13016941F088
:1049C0002001016100BF00BF00BF016841F020016C
:1049D0000160016841F480710160C0F8FC23016945
:1049E00041F02001016100BF00BF00BF016841F03C
:1049F00020010160016841F480710160016941F4A6
:104A000000710161016941F480710161016841F047
:104A1000200101603A21C0F8FC13016941F0200136
:104A2000016100BF00BF00BF016841F020010160CB
:104A3000016841F480710160C0F8FC33016941F004
:104A40002001016100BF00BF00BF016841F02001EB
:104A50000160016841F480710160016941F40071F5
:104A60000161016941F480710161016841F0200137
:104A700001603B21C0F8FC13016941F02001016194
:104A800000BF00BF00BF016841F020010160016864
:104A900041F480710160C0F8FCC3016941F020015C
:104AA000016100BF00BF00BF016841F0200101604B
:104AB000016841F480710160016941F40071016194
:104AC000016941F480710161016841F020010160D8
:104AD0003C21C0F8FC13016941F02001016100BFD5
:104AE00000BF00BF016841F020010160016841F48E
:104AF00080710160C0F8FC23016941F0200101616F
:104B000000BF00BF00BF016841F0200101600168E3
:104B100041F480710160016941F400710161016932
:104B200041F480710161016841F0200101603D2183
:104B3000C0F8FC13016941F02001016100BF00BF12
:104B400000BF016841F020010160016841F48071FB
:104B500001604FF4A051C0F8FC13016941F020013D
:104B6000016100BF00BF00BF016841F0200101608A
:104B7000016841F480710160016941F400710161D3
:104B8000016941F480710161016841F02001016017
:104B90009221C0F8FC13016941F02001016100BFBE
:104BA00000BF00BF016841F020010160016841F4CD
:104BB000807101604FF40071C0F8FC13016941F08D
:104BC0002001016100BF00BF00BF016841F020016A
:104BD0000160016841F480710160016941F4007174
:104BE0000161016941F480710161016841F02001B6
:104BF00001609321C0F8FC13016941F020010161BB
:104C000000BF00BF00BF016841F0200101600168E2
:104C100041F480710160C0F8FC23016941F020017A
:104C2000016100BF00BF00BF016841F020010160C9
:104C3000016841F480710160016941F40071016112
:104C4000016941F480710161016841F02001016056
:104C50009021C0F8FC13016941F02001016100BFFF
:104C600000BF00BF016841F020010160016841F40C
:104C70008071016040F60D01C0F8FC13016941F03C
:104C80002001016100BF00BF00BF016841F02001A9
:104C90000160016841F480710160016941F40071B3
:104CA0000161016941F480710161016841F02001F5
:104CB0000160C0F8FCC3016941F02001016100BF3F
:104CC00000BF00BF016841F020010160016841F4AC
:104CD0008071016041F21801C0F8FC13016941F0D4
:104CE0002001016100BF00BF00BF016841F0200149
:104CF0000160016841F480710160016941F4007153
:104D00000161016941F480710161016841F0200194
:104D100001600721C0F8FC13016941F02001016125
:104D200000BF00BF00BF016841F0200101600168C1
:104D300041F48071016040F27311C0F8FC13016905
:104D400041F02001016100BF00BF00BF016841F0D8
:104D500020010160016841F480710160704700002A
:104D60002DE9F04F81B040F21844C4F600042069E8
:104D70004FF0120940F4007020612069002540F4D2
:104D8000807020612068112640F020002060E32020
:104D9000C4F8FC0320694FF0130B40F020002061A1
:104DA00000BF00BF00BF2068102740F02000206037
:104DB00020684FF0070840F48070206043F208003C
:104DC000C4F8FC03206940F02000206100BF00BF50
:104DD00000BF206840F020002060206840F4807010
:104DE0002060206940F400702061206940F48070E8
:104DF0002061206840F020002060E720C4F8FC0318
:104E0000206940F02000206100BF00BF00BF206883
:104E100040F020002060206840F480702060C4F8DA
:104E2000FC93206940F02000206100BF00BF00BF5C
:104E3000206840F020002060206840F480702060EE
:104E4000206940F400702061206940F48070206186
:104E5000206840F020002060EF20C4F8FC032069A7
:104E600040F02000206100BF00BF00BF206840F07C
:104E700020002060206840F48070206041F23120E2
:104E8000C4F8FC03206940F02000206100BF00BF8F
:104E900000BF206840F020002060206840F480704F
:104EA0002060206940F400702061206940F4807027
:104EB0002061206840F0200020600120C4F8FC033D
:104EC000206940F02000206100BF00BF00BF2068C3
:104ED00040F020002060206840F480702060C4F81A
:104EE000FC53206940F02000206100BF00BF00BFDC
:104EF000206840F020002060206840F4807020602E
:104F0000206940F400702061206940F480702061C5
:104F1000206840F0200020600220C4F8FC032069D3
:104F200040F02000206100BF00BF00BF206840F0BB
:104F300020002060206840F4807020604FF4E06022
:104F4000C4F8FC03206940F02000206100BF00BFCE
:104F500000BF206840F020002060206840F480708E
:104F60002060206940F400702061206940F4807066
:104F70002061206840F0200020600320C4F8FC037A
:104F8000206940F02000206100BF00BF00BF206802
:104F900040F020002060206840F48070206041F2E2
:104FA0003000C4F8FC03206940F02000206100BFFD
:104FB00000BF00BF206840F020002060206840F45F
:104FC00080702060206940F400702061206940F406
:104FD00080702061206840F0200020600420C4F828
:104FE000FC03206940F02000206100BF00BF00BF2B
:104FF000206840F020002060206840F4807020602D
:10500000C4F8FC53206940F02000206100BF00BFBD
:1050100000BF206840F020002060206840F48070CD
:105020002060206940F400702061206940F48070A5
:105030002061206840F0200020600820C4F8FC03B4
:10504000206940F02000206100BF00BF00BF206841
:1050500040F020002060206840F48070206040F222
:105060000720C4F8FC03206940F02000206100BF45
:1050700000BF00BF206840F020002060206840F49E
:1050800080702060206940F400702061206940F445
:1050900080702061206840F0200020600920C4F862
:1050A000FC03206940F02000206100BF00BF00BF6A
:1050B000206840F020002060206840F4807020606C
:1050C000C4F8FC53206940F02000206100BF00BFFD
:1050D00000BF206840F020002060206840F480700D
:1050E0002060206940F400702061206940F48070E5
:1050F0002061206840F0200020600A20C4F8FC03F2
:10510000206940F02000206100BF00BF00BF206880
:1051100040F020002060206840F480702060C4F8D7
:10512000FC53206940F02000206100BF00BF00BF99
:10513000206840F020002060206840F480702060EB
:10514000206940F400702061206940F48070206183
:10515000206840F0200020600C20C4F8FC03206987
:1051600040F02000206100BF00BF00BF206840F079
:1051700020002060206840F480702060C4F8FC5358
:10518000206940F02000206100BF00BF00BF206800
:1051900040F020002060206840F48070206020698A
:1051A00040F400702061206940F480702061206824
:1051B00040F0200020600D20C4F8FC03206940F07E
:1051C0002000206100BF00BF00BF206840F0200029
:1051D0002060206840F480702060C4F8FC5320698F
:1051E00040F02000206100BF00BF00BF206840F0F9
:1051F00020002060206840F480702060206940F426
:1052000000702061206940F480702061206840F0C7
:10521000200020600F20C4F8FC03206940F020002B
:10522000206100BF00BF00BF206840F02000206068
:10523000206840F480702060C4F8FC53206940F07E
:105240002000206100BF00BF00BF206840F02000A8
:105250002060206840F480702060206940F4007075
:105260002061206940F480702061206840F02000B7
:1052700020601020C4F8FC03206940F02000206169
:1052800000BF00BF00BF206840F020002060206801
:1052900040F480702060C4F8FC53206940F0200086
:1052A000206100BF00BF00BF206840F020002060E8
:1052B000206840F480702060206940F40070206114
:1052C000206940F480702061206840F02000206058
:1052D000C4F8FC63206940F02000206100BF00BFDB
:1052E00000BF206840F020002060206840F48070FB
:1052F00020600720C4F8FC03206940F020002061F2
:1053000000BF00BF00BF206840F020002060206880
:1053100040F480702060206940F4007020612069B2
:1053200040F480702061206840F020002060C4F8C4
:10533000FC93206940F02000206100BF00BF00BF47
:10534000206840F020002060206840F480702060D9
:10535000C4F8FC53206940F02000206100BF00BF6A
:1053600000BF206840F020002060206840F480707A
:105370002060206940F400702061206940F4807052
:105380002061206840F020002060C4F8FCB3206950
:1053900040F02000206100BF00BF00BF206840F047
:1053A00020002060206840F480702060C4F8FC5326
:1053B000206940F02000206100BF00BF00BF2068CE
:1053C00040F020002060206840F480702060C820F9
:1053D000FCF7B0F820694FF0320A40F40070206109
:1053E000206940F480702061206840F02000206037
:1053F000C4F8FC732069102740F02000206100BF32
:1054000000BF00BF206840F020002060206840F40A
:105410008070206041F29060C4F8FC03206940F085
:105420002000206100BF00BF00BF206840F02000C6
:105430002060206840F480702060206940F4007093
:105440002061206940F480702061206840F02000D5
:105450002060C4F8FC63206940F02000206100BF98
:1054600000BF00BF206840F020002060206840F4AA
:105470008070206040F22720C4F8FC03206940F0CF
:105480002000206100BF00BF00BF206840F0200066
:105490002060206840F4807020603220FCF74AF8D9
:1054A000206940F400702061206940F48070206120
:1054B000206840F020002060C4F8FC93206940F090
:1054C0002000206100BF00BF00BF206840F0200026
:1054D0002060206840F4807020601D20C4F8FC0328
:1054E000206940F02000206100BF00BF00BF20689D
:1054F00040F020002060206840F48070206032205E
:10550000FCF718F8206940F400702061206940F42D
:1055100080702061206840F020002060C4F8FCB357
:10552000206940F02000206100BF00BF00BF20685C
:1055300040F020002060206840F4807020604FF42C
:105540000060C4F8FC03206940F02000206100BF27
:1055500000BF00BF206840F020002060206840F4B9
:1055600080702060206940F400702061206940F460
:1055700080702061206840F0200020602920C4F85D
:10558000FC03206940F02000206100BF00BF00BF85
:10559000206840F020002060206840F48070206087
:1055A0001420C4F8FC03206940F02000206100BFF3
:1055B00000BF00BF206840F020002060206840F459
:1055C00080702060206940F400702061206940F400
:1055D00080702061206840F0200020602B20C4F8FB
:1055E000FC03206940F02000206100BF00BF00BF25
:1055F000206840F020002060206840F48070206027
:105600000B20C4F8FC03206940F02000206100BF9B
:1056100000BF00BF206840F020002060206840F4F8
:10562000807020603220FBF785FF2069032140F461
:10563000007020612069072240F48070206120689A
:1056400040F0200020602020C4F8FC03206940F0D6
:105650002000206100BF00BF00BF206840F0200094
:105660002060206840F480702060C4F8FC532069FA
:1056700040F02000206100BF00BF00BF206840F064
:1056800020002060206840F480702060206940F491
:1056900000702061206940F480702061206840F033
:1056A000200020602120C4F8FC03206940F0200085
:1056B000206100BF00BF00BF206840F020002060D4
:1056C000206840F480702060C4F8FC53206940F0EA
:1056D0002000206100BF00BF00BF206840F0200014
:1056E0002060206840F480702060206940F40070E1
:1056F0002061206940F480702061206840F0200023
:1057000020603020C4F8FC03206940F020002061B4
:1057100000BF00BF00BF206840F02000206020686C
:1057200040F480702060C4F8FC83206940F02000C1
:10573000206100BF00BF00BF206840F02000206053
:10574000206840F480702060206940F4007020617F
:10575000206940F480702061206840F020002060C3
:105760003120C4F8FC03206940F02000206100BF14
:1057700000BF00BF206840F020002060206840F497
:105780008070206040F20770C4F8FC03206940F08C
:105790002000206100BF00BF00BF206840F0200053
:1057A0002060206840F480702060206940F4007020
:1057B0002061206940F480702061206840F0200062
:1057C0002060C4F8FCA3206940F02000206100BFE5
:1057D00000BF00BF206840F020002060206840F437
:1057E000807020600620C4F8FC03206940F020008F
:1057F000206100BF00BF00BF206840F02000206093
:10580000206840F480702060206940F400702061BE
:10581000206940F480702061206840F02000206002
:105820003520C4F8FC03206940F02000206100BF4F
:1058300000BF00BF206840F020002060206840F4D6
:105840008070206040F20470C4F8FC03206940F0CE
:105850002000206100BF00BF00BF206840F0200092
:105860002060206840F480702060206940F400705F
:105870002061206940F480702061206840F02000A1
:1058800020603620C4F8FC03206940F0200020612D
:1058900000BF00BF00BF206840F0200020602068EB
:1058A00040F48070206041F60470C4F8FC03206965
:1058B00040F02000206100BF00BF00BF206840F022
:1058C00020002060206840F480702060206940F44F
:1058D00000702061206940F480702061206840F0F1
:1058E000200020603720C4F8FC03206940F020002D
:1058F000206100BF00BF00BF206840F02000206092
:10590000206840F4807020600420C4F8FC03206903
:1059100040F02000206100BF00BF00BF206840F0C1
:1059200020002060206840F480702060206940F4EE
:1059300000702061206940F480702061206840F090
:10594000200020603820C4F8FC03206940F02000CB
:10595000206100BF00BF00BF206840F02000206031
:10596000206840F480702060C4F8FC53206940F047
:105970002000206100BF00BF00BF206840F0200071
:105980002060206840F480702060206940F400703E
:105990002061206940F480702061206840F0200080
:1059A00020603920C4F8FC03206940F02000206109
:1059B00000BF00BF00BF206840F0200020602068CA
:1059C00040F48070206040F20670C4F8FC03206947
:1059D00040F02000206100BF00BF00BF206840F001
:1059E00020002060206840F480702060206940F42E
:1059F00000702061206940F480702061206840F0D0
:105A0000200020603C20C4F8FC03206940F0200006
:105A1000206100BF00BF00BF206840F02000206070
:105A2000206840F48070206040F20170C4F8FC03EC
:105A3000206940F02000206100BF00BF00BF206847
:105A400040F020002060206840F4807020602069D1
:105A500040F400702061206940F48070206120686B
:105A600040F0200020603D20C4F8FC03206940F095
:105A70002000206100BF00BF00BF206840F0200070
:105A80002060206840F4807020600F20C4F8FC0380
:105A9000206940F02000206100BF00BF00BF2068E7
:105AA00040F020002060206840F480702060206971
:105AB00040F400702061206940F48070206120680B
:105AC00040F0200020605020C4F8FC03206940F022
:105AD0002000206100BF00BF00BF206840F0200010
