:020000040800F2
:1000000018040020ED0100080D150008210F00085C
:1000100009150008410200084135000800000000F1
:100020000000000000000000000000001D35000876
:1000300045020008000000001115000821350008E5
:10004000070200080702000807020008070200086C
:1000500007020008070200084902000851020008D0
:10006000070200080702000807020008070200084C
:10007000070200080702000807020008070200083C
:10008000070200080000000007020008070200083D
:10009000070200080702000807020008070200081C
:1000A000070200080702000807020008070200080C
:1000B00007020008070200080702000807020008FC
:1000C00007020008070200080702000807020008EC
:1000D00007020008070200080702000807020008DC
:1000E00007020008070200080702000807020008CC
:1000F00007020008070200080702000800000000CD
:1001000000000000070200080000000007020008CD
:1001100007020008000000000702000807020008AC
:10012000070200080702000807020008070200088B
:10013000070200080000000000000000070200089D
:10014000070200080702000800000000000000008D
:10015000000000000000000000000000000000009F
:10016000000000000000000000000000070200087E
:10017000070200080000000000000000000000006E
:10018000000000000702000800000000000000005E
:10019000000000000000000000000000000000005F
:1001A000000000000000000007020008070200082D
:1001B000070200080702000807020008000000000C
:1001C000000000000702000800000000000000001E
:1001D0000702000807020008DFF80CD000F018F84A
:1001E00000480047453500081804002006488047AD
:1001F00006480047FEE7FEE7FEE7FEE7FEE7FEE70C
:10020000FEE7FEE7FEE7FEE725350008D901000816
:100210001CB509480090094801900546009C06E07D
:10022000E06840F0010394E8070098471034AC42BE
:10023000F6D3FFF7D5FF0000E435000804360008C8
:10024000FEE7000070470000012000F02FB800001A
:10025000022000F02BB80000B0B5044600F008F909
:10026000054640F20000C2F200004068611C18BF61
:10027000044400BF00F0FCF8401BA042FAD3B0BD1C
:1002800001280BD0022818BF70474FF4807140F648
:100290000000C4F6000000F0DDB800BF4FF40041DC
:1002A00040F60000C4F6000000F0D4B840F214415B
:1002B000C4F201010A68024214BF08607047FFF7E8
:1002C000DFBF00000A68002A08BF70472DE9F04F21
:1002D00082B041F2004500F138478605C4F60005BA
:1002E000062340F2004E46EA9724A84208BF0523A1
:1002F000C4F2010E052C38BF234600244FF0010B39
:1003000000260027009309E00A68013732FA07F354
:1003100006F1040604F1020400F098800BFA07F9D4
:1003200012EA0908F0D04A6842F01005122D13D1E4
:100330006FF0030202EA57020244D2F820A006F04E
:100340001C030F25D1F810C09D402AEA05050CFAC0
:1003500003F32B4313624A6803680325A5406FEA41
:10036000050AAB4302F00305A5402B43122A0360A4
:1003700012D80BFA02F313F0061F0DD08368CD6874
:1003800003EA0A03A5402B4383604368150923EA67
:100390000903BD402B434360C3688D6803EA0A0329
:1003A000A5402B43D200C360AED541F26003C4F236
:1003B00002031A684FF6084942F001021A601A68EF
:1003C000CFF6FF7902F001020192019A27F00302B1
:1003D000724452F809C006F00C050F23AB402CEA1A
:1003E000030C009B03FA05F545EA0C0342F80930BB
:1003F000DEF800C04B684CEA0805DA0358BF2CEA67
:100400000805CEF80050DEF804C09A034CEA08054F
:1004100058BF2CEA0805CEF80450DEF808C0DA020E
:100420004CEA080558BF2CEA080540F20C4CCEF8FF
:100430000850C4F2010CDCF800209B0242EA0805D7
:1004400058BF22EA0805CCF800505DE702B0BDE8CD
:10045000F04F7047426928230A4208BF1823C15051
:10046000704700001823002A08BF2823C150704796
:1004700040F21400C2F200000068704740F2000031
:1004800040F21401C2F20000C2F2000140680A68A2
:10049000104408607047000080B5032000F092F817
:1004A000002000F009F800281CBF012080BD00F0EA
:1004B00029F8002080BD000070B540F20006C2F2AD
:1004C00000067168E1B1044640F20C00C2F200007F
:1004D0004FF47A720068B2FBF1F1B0FBF1F000F07A
:1004E00009FD0F2C4FF0010508D838B94FF0FF3047
:1004F00021460022002500F039F83460284670BDFE
:10050000012070BD82B041F25800C4F2020081683F
:1005100041F001018160816801F0010101910199BF
:10052000016841F080510160006800F08050009047
:10053000009847F20800C4F20000016821F48041ED
:10054000016002B070470000002848BF704700F00B
:100550001F01012202FA01F11C2202EAD0004EF230
:100560000012CEF2000281507047000010B54EF626
:100570000C5CCEF2000CDCF80030C3F3022E8EF0DF
:100580000704042C28BF0424BEF103034FF0FF3EF0
:100590000EFA04F438BF0023A14399400EFA03F386
:1005A0009A43114300F00F0200F160430901043A3D
:1005B00003F564436244002848BF02F10C0319703C
:1005C00010BD00004EF60C51CEF200010A684FF645
:1005D000FF031A4060F30A2242F0806040F0FD7091
:1005E00008607047B0F5007F42D0002840F080805E
:1005F00047F21400C4F2000050F8141CC26E01F45B
:10060000C06122F48072B1F5806FC2662ED150F8BD
:10061000141C012262F34A2140F8141C40F20C0120
:10062000C2F200010968322251434DF68362C4F2DE
:100630001B32A1FB0212910C0268520511D54A1C13
:100640000FD0026852050CD559B10268520508D581
:10065000012906D00268520503D50229A1F104013F
:10066000EAD10068400544BF03207047002070476E
:1006700047F21400C4F2000050F8141CC26E01F4DA
:10068000C06142F48072B1F5806FC266EED150F85D
:10069000141C012262F34A2140F8141C40F20C01A0
:1006A000C2F200010968322251434DF68362C4F25E
:1006B0001B32A1FB0212910C0268520511D54A1C93
:1006C0000FD0026852050CD559B10268520508D501
:1006D000012906D00268520503D50229A1F10401BF
:1006E000EAD10068400544BF03207047BEE700BF61
:1006F00047F21400C4F2000050F8141C022262F306
:100700004A2140F8141C0020704700002DE9F047F2
:10071000002865D042F2000AC4F2020A0446DAF860
:1007200000000D4600F00F0088420CD2DAF80000FD
:1007300020F00F002843CAF80000DAF8000000F0AB
:100740000F00A8424CD1216841F20808C807C4F242
:10075000020803D1880740F1D480B9E0606802281C
:100760003AD0032840D158F8082C920138D5D8F84F
:100770000420D8F8043042F20046C3F3031302F019
:100780000302D8F804700133C0F2F406032A04BF50
:1007900043F20066C0F26E16B6FBF3F2D8F80430EE
:1007A000C7F306277A43C3F34163022707EB4303EA
:1007B000B2FBF3F24BF20043C0F2C4439A425DD95C
:1007C000D8F8002012F0F00F4DD0890756D5A16857
:1007D000002953D147E000BF58F8081C890307D40B
:1007E0000120BDE8F08700BF58F8081C4905F7D57F
:1007F000D8F8001001F00C0104293FD0D8F80010FF
:1008000001F00C01082939D0D8F8001001F00C01D2
:100810000C2933D1D8F80410D8F8042042F200474C
:10082000C2F3031201F00301D8F804300132C0F220
:10083000F407032904BF43F20067C0F26E17B7FB49
:10084000F2F1D8F80420C3F306235943C2F34162FE
:10085000022303EB4202B1FBF2F14BF20042C0F281
:10086000C44291420AD9D8F80010082262F3071155
:100870004FF00109C8F8001002E000BF4FF0000976
:10088000D8F8001021F003010843C8F80000FFF772
:10089000EFFD064641F28837D8F80000616800F0A5
:1008A0000C00B0EB810F07D0FFF7E2FD801BB842D0
:1008B000F2D90320BDE8F0872168880708D4B9F190
:1008C000000F1ED0D8F8000020F0F00017E000BFA5
:1008D000480705D5D8F8000040F4E060C8F80000EB
:1008E000080706D5D8F80000072262F30D20C8F8E3
:1008F0000000D8F80000A26820F0F0001043C8F80B
:100900000000DAF8000000F00F00A8421BD9DAF866
:10091000000020F00F002843CAF80000FFF7A8FDF0
:10092000064641F2883700BFDAF8000000F00F00F9
:10093000A84207D0FFF79CFD801BB842F4D90320E2
:10094000BDE8F0872168480707D5D8F80000E268BD
:1009500020F4E0601043C8F80000080708D5D8F874
:100960000000216920F4605040EAC100C8F800008E
:10097000D8F8000042F20041C0F2F40100F00C008F
:10098000042808462DD0D8F8000000F00C000828F4
:1009900043F20060C0F26E1023D0D8F8002002F0BD
:1009A0000C020C2A1CD1D8F80420D8F8043002F02C
:1009B0000302C3F30313D8F804700133032A08BFFA
:1009C0000146B1FBF3F0D8F80410C7F30627C1F3D2
:1009D00041610222784302EB4101B0FBF1F000E0FB
:1009E0000020D8F8001043F2D452C1F30311C0F62E
:1009F0000002515C40F20C0201F01F0120FA01F1EB
:100A000040F20000C2F200000068C2F20002116071
:100A1000BDE8F047FFF750BD002804BF0120704734
:100A20002DE9F04182B00446007841F20006C0078B
:100A3000C4F202061ED1207880073DD4207800073A
:100A400064D42078400700F187802078800600F188
:100A5000D980E069002800F0C581B16801F00C017F
:100A60000C2940F03181012840F08481012002B03E
:100A7000BDE8F081B06800F00C01F068082961D091
:100A8000032281F00C0122EA00000844B0FA80F051
:100A9000400957D16068B0F5803F07D0B0F5A02F6E
:100AA00040F0E480306840F480203060306840F4EA
:100AB00080303060E5E000BFB068F16800F00C0005
:100AC000042871D001F0030180F00C0081F00201D4
:100AD0000844B0FA80F0400966D1E1683068002926
:100AE00000F0E08040F480703060FFF7C1FC054604
:100AF0003068400500F1FE80FFF7BAFC401B022879
:100B0000F6D9032002B0BDE8F08100BF6169D6F8D4
:100B10009400002900F0948040F00100C6F8940091
:100B2000FFF7A6FC054600BFD6F8940080073FF506
:100B300088AFFFF79DFC401B0228F5D9032002B0C7
:100B4000BDE8F081306880037FF575AF60680028EC
:100B50007FF471AF3EE000BFB06D5FEAC00808D41B
:100B6000B06D40F08050B065B06D00F080500190E5
:100B7000019847F20007C4F200073868C0052DD479
:100B8000386840F480703860FFF772FC054600BF9B
:100B90003868C00522D4FFF76BFC401B0228F7D948
:100BA000032002B0BDE8F0813068400501D5E0685F
:100BB00080B17068216920F0FE4040EA01607060F9
:100BC00040F20000C2F200000068FFF775FC002848
:100BD0003FF434AF012002B0BDE8F081A0680128E5
:100BE00008D0052840F0A480D6F8900040F004001A
:100BF000C6F89000D6F8900040F00100C6F89000CA
:100C0000A4E000BFA169D6F89800002900F07A801E
:100C100040F00100C6F89800FFF72AFC054600BF27
:100C2000D6F8980080073FF514AFFFF721FC401B72
:100C300002284FF00300F3D902B0BDE8F08100BFF5
:100C400020F00100C6F89400FFF712FC054600BF33
:100C5000D6F8940080077FF5F4AEFFF709FC401B3F
:100C60000228F5D9032002B0BDE8F08131680028E0
:100C700021F480313160316821F48021316000F04D
:100C8000CF80FFF7F5FB0546306880033FF5D3AE14
:100C9000FFF7EEFB401B6428F6D9032002B0BDE845
:100CA000F08100BF20F480703060FFF7E1FB054663
:100CB000306840057FF5C2AEFFF7DAFB401B022823
:100CC0004FF00300F4D9B7E73168022821F08071B2
:100CD000316040F08B80FFF7CBFB05463068800128
:100CE00040F1CA80FFF7C4FB401B02284FF003000D
:100CF000F4D9A1E77068216920F0FE4040EA016064
:100D000070609BE620F00100C6F89800FFF7B0FB8A
:100D1000054600BFD6F8980080077FF59AAEFFF72A
:100D2000A7FB401B02284FF00300F3D984E700BF64
:100D3000D6F89010002821F00101C6F89010D6F8DE
:100D4000901021F00401C6F8901079D0FFF790FBC5
:100D5000054641F2883700BFD6F89000800700F1C1
:100D60008180FFF785FB401BB842F5D9032002B014
:100D7000BDE8F081F068216A00F003028A427FF446
:100D800029AF626A6FF00F0300F0F00103EB02126B
:100D900091427FF41FAFA16A00F4FE42B2EB012F33
:100DA0007FF418AFE16A00F07842B2EBC16F7FF4D4
:100DB00011AF226B0023CFF6E07303EA025200F476
:100DC000C001A2F5001291427FF404AF616B4FF0B5
:100DD0007E4202EA016100F0C06001F17E4188427A
:100DE0007FF4F8AE002002B0BDE8F081F0684FF665
:100DF000FF7120F00300F060F068CFF6EE6108406C
:100E0000F060FFF735FB044630688001EAD5FFF754
:100E10002FFB001B02284FF00300F5D90CE700BFA1
:100E2000FFF726FB054600BF306880037FF503AE61
:100E3000FFF71EFB401B64284FF00300F4D9FBE6CC
:100E4000FFF716FB054641F2883700BFD6F8900041
:100E5000800707D5FFF70CFB401BB8424FF003009B
:100E6000F4D9E9E6B8F1000F3FF5EFADB06D20F031
:100E70008050B065E9E500BFF06848F20C01C0F2AF
:100E80009F1104F1200700EA010C8ECF6FF00F00D4
:100E9000D4E90C5400EB02100022CFF6E07241EAD4
:100EA0000C0102EA05520843A2F500124FF07E45FC
:100EB00040EA032005EA0465104305F17E4540EA57
:100EC000C7602843F060306840F080703060F068A0
:100ED00040F08070F060FFF7CBFA04463068800184
:100EE0003FF580AFFFF7C4FA001B02284FF0030064
:100EF000F4D9A1E6411E0020B0EB116F1CBF012008
:100F000070474EF21002CEF2000251604EF62351AD
:100F1000CEF20001F0230B70072190601160704742
:100F2000FEE7000040F21841C4F600010A6942F4ED
:100F300000720A610A6942F480720A610A6842F02A
:100F400020020A602022C1F8FC230A6942F0200234
:100F50000A6100BF00BF00BF0A6842F020020A60B9
:100F60000A6842F480720A600022C1F8FC230B690F
:100F700043F020030B6100BF00BF00BF0B6843F0CC
:100F800020030B600B6843F480730B600B6943F420
:100F900000730B610B6943F480730B610B6843F0C2
:100FA00020030B602123C1F8FC330B6943F02003BD
:100FB0000B6100BF00BF00BF0B6843F020030B6054
:100FC0000B6843F480730B60C1F8FC230A6942F09C
:100FD00020020A6100BF00BF00BF0A6842F0200281
:100FE0000A600A6842F480720A600A6942F4007278
:100FF0000A610A6942F480720A610A6842F02002BA
:101000000A602222C1F8FC230A6942F020020A6128
:1010100000BF00BF00BF0A6842F020020A600A68F1
:1010200042F480720A6000BF00BF00BF0A6842F449
:1010300000720A604FF496320B69053A43F400736C
:101040000B610B6843F480730B600B6843F0200363
:101050000B60C1F8FC030B6943F020030B6100BF78
:1010600000BF00BF0B6843F020030B600B6843F424
:1010700080730B6000BF00BF00BF0B6843F40073B8
:101080000B600B6943F400730B610B6843F48073CE
:101090000B600B6843F020030B60C1F8FC030B6985
:1010A00043F020030B6100BF00BF00BF0B6843F09B
:1010B00020030B600B6843F480730B6000BF00BF1C
:1010C00000BF0B6843F400730B600B6943F40073BB
:1010D0000B610B6843F480730B600B6843F02003D3
:1010E0000B60C1F8FC030B6943F020030B6100BFE8
:1010F00000BF00BF0B6843F020030B600B6843F494
:1011000080730B6000BF00BF00BF0B6843F4007327
:101110000B600B6943F400730B610B6843F480733D
:101120000B600B6843F020030B60C1F8FC030B69F4
:1011300043F020030B6100BF00BF00BF0B6843F00A
:1011400020030B600B6843F480730B6000BF00BF8B
:1011500000BF0B6843F400730B600B6943F400732A
:101160000B610B6843F480730B600B6843F0200342
:101170000B60C1F8FC030B6943F020030B6100BF57
:1011800000BF00BF0B6843F020030B600B6843F403
:1011900080730B6000BF00BF00BF0B6843F4007397
:1011A0000B607FF449AF70472DE9F04F8BB00026FC
:1011B00041F24C000596C4F20200016840F2184565
:1011C00041F0040101600168C4F6000501F004016A
:1011D00006910699016801AC41F0010101600168C6
:1011E00040F6140901F00101069106990168C4F660
:1011F000000941F0020101600068214600F0020090
:10120000069006984FF44870019001200290A5F1D5
:1012100018000127CDE90366FFF754F84FF48070FA
:10122000CDE901074FF090402146CDE90366FFF775
:1012300049F84FF6FF7005F57A7406904FF00308F1
:1012400006A920460A964FF6FF7B0797CDE9086866
:10125000FFF738F84FF6004ACFF6FF7A55F80A0044
:1012600006A940F4807045F80A0028684FF6FF7719
:1012700040F408702860286940F4007028612869EB
:1012800040F480702861286840F020002860C9F888
:101290000060286940F02000286100BF00BF00BF47
:1012A000286840F020002860286840F4807028609A
:1012B00020460A96CDF818B0CDF82480CDE907660F
:1012C000FFF700F84FF6104BCFF6FF7B55F80B00F9
:1012D00007A940F4807045F80B0000BF00BF00BFB5
:1012E000D5F8F89355F80A0040F4807045F80A00E4
:1012F000012081E8410106A920460A960697FEF7DB
:10130000E1FF286848F2302140F40070286040F284
:101310001200C2F20000A0F800900088884203D1B9
:1013200000F0F8F802E000BF00F068FE286900262F
:1013300040F40070286128694FF6FF7840F480700F
:10134000286128684FF0030940F02000286040F62B
:101350001400C4F600000660286906A940F02000C9
:10136000286100BF00BF00BF286840F0200028604F
:10137000286840F48070286020460A96CDE90686E9
:10138000CDE90869FEF79EFF55F80B0007A940F468
:10139000807045F80B0000BF00BF00BFD5F8F873A0
:1013A00055F80A0040F4807045F80A00012081E8F1
:1013B000410206A920460A96CDF81880FEF782FF62
:1013C000286840F40070286040F21200C2F2000069
:1013D00007800BB0BDE8F08F81B0ADF80200BDF81A
:1013E000020040F20801C2F20001088001B070471B
:1013F00081B0ADF80200BDF8020040F21001C2F267
:101400000001088001B070472DE9F04387B04FF02C
:10141000000841F24C00CDF81880C4F202000168C7
:1014200040F6000541F0040101600168C4F60005C2
:1014300001F00401019101990168012241F02001AC
:10144000016001684FF47F4601F02001019101998C
:101450000168012741F002010160016801F0020109
:1014600001910199016841F001010160016801F0F9
:10147000010101910199016841F0080101600068D2
:101480004FF47F4100F00800019001982846FEF7D4
:10149000E9FF05F580642046042100224FF004098D
:1014A000FEF7E0FF02A880E8C00102AE2846314600
:1014B000CDF81480FEF706FF032002900020C1F251
:1014C0002100CDE90307A5F580603146FEF7FAFE5D
:1014D00020463146CDE90297CDE90488FEF7F2FEB9
:1014E000062000210022FFF741F80620FFF72CF824
:1014F000072000210022FFF739F80720FFF724F822
:1015000007B0BDE8F0830000FEE700007047000070
:101510007047000040F21840C4F600000169002244
:1015200041F40071016101694FF0030C41F48071D5
:101530000161016841F020010160C0F8FC230169EC
:1015400041F02001016100BF00BF00BF016841F010
:1015500020010160016841F4807101600121C0F83F
:10156000FC13036943F02003036100BF00BF00BF09
:10157000036843F020030360036843F4807303604F
:10158000036943F400730361036943F480730361E7
:10159000036843F020030360C0F8FC13036943F0C1
:1015A0002003036100BF00BF00BF036843F02003B6
:1015B0000360036843F480730360C0F8FC2302698E
:1015C00042F02002026100BF00BF00BF026842F08B
:1015D00020020260026842F480720260026942F4F2
:1015E00000720261026942F480720261026842F094
:1015F000200202601022C0F8FC23026942F020029F
:10160000026100BF00BF00BF026842F0200202601A
:10161000026842F48072026041F29072C0F8FC23CA
:10162000026942F02002026100BF00BF00BF0268F1
:1016300042F020020260026842F480720260026995
:1016400042F400720261026942F48072026102682F
:1016500042F0200202606022C0F8FC23026942F0DE
:101660002002026100BF00BF00BF026842F02002FA
:101670000260026842F4807202604FF41C52C0F8AB
:10168000FC23026942F02002026100BF00BF00BFDC
:10169000026842F020020260026842F48072026036
:1016A000026942F400720261026942F480720261CE
:1016B000026842F0200202606122C0F8FC23026945
:1016C00042F02002026100BF00BF00BF026842F08A
:1016D00020020260026842F480720260C0F8FC13CB
:1016E000016941F02001016100BF00BF00BF016836
:1016F00041F020010160016841F4807101600169DD
:1017000041F400710161016941F480710161016876
:1017100041F0200101604621C0F8FC13016941F04D
:101720002001016100BF00BF00BF016841F020013E
:101730000160016841F4807101600221C0F8FC136E
:10174000026942F02002026100BF00BF00BF0268D0
:1017500042F020020260026842F480720260026974
:1017600042F400720261026942F48072026102680E
:1017700042F0200202601322C0F8FC23026942F00A
:101780002002026100BF00BF00BF026842F02002D9
:101790000260026842F48072026048F21002C0F8EF
:1017A000FC23026942F02002026100BF00BF00BFBB
:1017B000026842F020020260026842F48072026015
:1017C000026942F400720261026942F480720261AD
:1017D000026842F0200202601222C0F8FC23026973
:1017E00042F02002026100BF00BF00BF026842F069
:1017F00020020260026842F48072026048F2FE0237
:10180000C0F8FC23026942F02002026100BF00BF61
:1018100000BF026842F020020260026842F4807257
:101820000260026942F400720261026942F480724D
:101830000261026842F020020260C0F8FC130169F4
:1018400041F02001016100BF00BF00BF016841F00D
:1018500020010160016841F4807101604FF4A061D2
:10186000C0F8FC13016941F02001016100BF00BF15
:1018700000BF016841F020010160016841F48071FE
:101880000160016941F400710161016941F48071F5
:101890000161016841F020010160C0F8FCC30269E8
:1018A00042F02002026100BF00BF00BF026842F0A8
:1018B00020020260026842F48072026041F230024B
:1018C000C0F8FC23026942F02002026100BF00BFA1
:1018D00000BF026842F020020260026842F4807297
:1018E0000260026942F400720261026942F480728D
:1018F0000261026842F0200202603022C0F8FC233C
:10190000026942F02002026100BF00BF00BF02680E
:1019100042F020020260026842F48072026040F2EB
:101920000332C0F8FC23036943F02003036100BFC6
:1019300000BF00BF036843F020030360036843F463
:1019400080730360036943F400730361036943F424
:1019500080730361036843F0200303603123C0F800
:10196000FC33036943F02003036100BF00BF00BFE5
:10197000036843F020030360036843F4807303604B
:10198000C0F8FC23036943F02003036100BF00BFDC
:1019900000BF036843F020030360036843F48073CF
:1019A0000360036943F400730361036943F48073C4
:1019B0000361036843F0200303603223C0F8FC3363
:1019C000036943F02003036100BF00BF00BF036849
:1019D00043F020030360036843F480730360C0F89E
:1019E000FC23036943F02003036100BF00BF00BF75
:1019F000036843F020030360036843F480730360CB
:101A0000036943F400730361036943F48073036162
:101A1000036843F0200303603323C0F8FC330369F9
:101A200043F02003036100BF00BF00BF036843F021
:101A300020030360036843F4807303604FF4407332
:101A4000C0F8FC33016941F02001016100BF00BF13
:101A500000BF016841F020010160016841F480711C
:101A60000160016941F400710161016941F4807113
:101A70000161016841F0200101603421C0F8FC13CC
:101A8000016941F02001016100BF00BF00BF016892
:101A900041F020010160016841F480710160C0F8EB
:101AA000FCC3016941F02001016100BF00BF00BF1C
:101AB000016841F020010160016841F4807101601A
:101AC000016941F400710161016941F480710161B2
:101AD000016841F0200101603521C0F8FC13016963
:101AE00041F02001016100BF00BF00BF016841F06B
:101AF00020010160016841F480710160C0F8FC239D
:101B0000016941F02001016100BF00BF00BF016811
:101B100041F020010160016841F4807101600169B8
:101B200041F400710161016941F480710161016852
:101B300041F0200101603621C0F8FC13016941F039
:101B40002001016100BF00BF00BF016841F020011A
:101B50000160016841F4807101601421C0F8FC1338
:101B6000016941F02001016100BF00BF00BF0168B1
:101B700041F020010160016841F480710160016958
:101B800041F400710161016941F4807101610168F2
:101B900041F0200101603721C0F8FC13016941F0D8
:101BA0002001016100BF00BF00BF016841F02001BA
:101BB0000160016841F480710160C0F8FC23016993
:101BC00041F02001016100BF00BF00BF016841F08A
:101BD00020010160016841F480710160016941F4F4
:101BE00000710161016941F480710161016841F096
:101BF000200101603821C0F8FC13016941F0200187
:101C0000016100BF00BF00BF016841F02001016019
:101C1000016841F480710160C0F8FC23016941F062
:101C20002001016100BF00BF00BF016841F0200139
:101C30000160016841F480710160016941F4007143
:101C40000161016941F480710161016841F0200185
:101C500001603921C0F8FC13016941F020010161E4
:101C600000BF00BF00BF016841F0200101600168B2
:101C700041F480710160C0F8FC23016941F020014A
:101C8000016100BF00BF00BF016841F02001016099
:101C9000016841F480710160016941F400710161E2
:101CA000016941F480710161016841F02001016026
:101CB0003A21C0F8FC13016941F02001016100BF25
:101CC00000BF00BF016841F020010160016841F4DC
:101CD00080710160C0F8FC33016941F020010161AD
:101CE00000BF00BF00BF016841F020010160016832
:101CF00041F480710160016941F400710161016981
:101D000041F480710161016841F0200101603B21D3
:101D1000C0F8FC13016941F02001016100BF00BF60
:101D200000BF016841F020010160016841F4807149
:101D30000160C0F8FCC3016941F02001016100BFEE
:101D400000BF00BF016841F020010160016841F45B
:101D500080710160016941F400710161016941F420
:101D600080710161016841F0200101603C21C0F8EF
:101D7000FC13016941F02001016100BF00BF00BFF9
:101D8000016841F020010160016841F48071016047
:101D9000C0F8FC23016941F02001016100BF00BFD0
:101DA00000BF016841F020010160016841F48071C9
:101DB0000160016941F400710161016941F48071C0
:101DC0000161016841F0200101603D21C0F8FC1370
:101DD000016941F02001016100BF00BF00BF01683F
:101DE00041F020010160016841F4807101604FF40D
:101DF000A051C0F8FC13016941F02001016100BF4E
:101E000000BF00BF016841F020010160016841F49A
:101E100080710160016941F400710161016941F45F
:101E200080710161016841F0200101609221C0F8D8
:101E3000FC13016941F02001016100BF00BF00BF38
:101E4000016841F020010160016841F48071016086
:101E50004FF40071C0F8FC13016941F020010161E9
:101E600000BF00BF00BF016841F0200101600168B0
:101E700041F480710160016941F4007101610169FF
:101E800041F480710161016841F0200101609321FA
:101E9000C0F8FC13016941F02001016100BF00BFDF
:101EA00000BF016841F020010160016841F48071C8
:101EB0000160C0F8FC23016941F02001016100BF0D
:101EC00000BF00BF016841F020010160016841F4DA
:101ED00080710160016941F400710161016941F49F
:101EE00080710161016841F0200101609021C0F81A
:101EF000FC13016941F02001016100BF00BF00BF78
:101F0000016841F020010160016841F480710160C5
:101F100040F60D01C0F8FC13016941F02001016198
:101F200000BF00BF00BF016841F0200101600168EF
:101F300041F480710160016941F40071016101693E
:101F400041F480710161016841F020010160C0F835
:101F5000FCC3016941F02001016100BF00BF00BF67
:101F6000016841F020010160016841F48071016065
:101F700041F21801C0F8FC13016941F02001016130
:101F800000BF00BF00BF016841F02001016001688F
:101F900041F480710160016941F4007101610169DE
:101FA00041F480710161016841F020010160072165
:101FB000C0F8FC13016941F02001016100BF00BFBE
:101FC00000BF016841F020010160016841F48071A7
:101FD000016040F27311C0F8FC13016941F0200167
:101FE000016100BF00BF00BF016841F02001016036
:101FF000016841F480710160704700002DE9F04FE5
:1020000081B040F21844C4F6000420694FF0120970
:1020100040F4007020612069002540F48070206148
:102020002068112640F020002060E320C4F8FC0363
:1020300020694FF0130B40F02000206100BF00BF6B
:1020400000BF2068102740F02000206020684FF07B
:10205000070840F48070206043F20800C4F8FC03D5
:10206000206940F02000206100BF00BF00BF206851
:1020700040F020002060206840F4807020602069DB
:1020800040F400702061206940F480702061206875
:1020900040F020002060E720C4F8FC03206940F0F5
:1020A0002000206100BF00BF00BF206840F020007A
:1020B0002060206840F480702060C4F8FC932069A0
:1020C00040F02000206100BF00BF00BF206840F04A
:1020D00020002060206840F480702060206940F477
:1020E00000702061206940F480702061206840F019
:1020F00020002060EF20C4F8FC03206940F020009D
:10210000206100BF00BF00BF206840F020002060B9
:10211000206840F48070206041F23120C4F8FC0354
:10212000206940F02000206100BF00BF00BF206890
:1021300040F020002060206840F48070206020691A
:1021400040F400702061206940F4807020612068B4
:1021500040F0200020600120C4F8FC03206940F01A
:102160002000206100BF00BF00BF206840F02000B9
:102170002060206840F480702060C4F8FC5320691F
:1021800040F02000206100BF00BF00BF206840F089
:1021900020002060206840F480702060206940F4B6
:1021A00000702061206940F480702061206840F058
:1021B000200020600220C4F8FC03206940F02000C9
:1021C000206100BF00BF00BF206840F020002060F9
:1021D000206840F4807020604FF4E060C4F8FC0395
:1021E000206940F02000206100BF00BF00BF2068D0
:1021F00040F020002060206840F48070206020695A
:1022000040F400702061206940F4807020612068F3
:1022100040F0200020600320C4F8FC03206940F057
:102220002000206100BF00BF00BF206840F02000F8
:102230002060206840F48070206041F23000C4F8D3
:10224000FC03206940F02000206100BF00BF00BFF8
:10225000206840F020002060206840F480702060FA
:10226000206940F400702061206940F48070206192
:10227000206840F0200020600420C4F8FC0320699E
:1022800040F02000206100BF00BF00BF206840F088
:1022900020002060206840F480702060C4F8FC5367
:1022A000206940F02000206100BF00BF00BF20680F
:1022B00040F020002060206840F480702060206999
:1022C00040F400702061206940F480702061206833
:1022D00040F0200020600820C4F8FC03206940F092
:1022E0002000206100BF00BF00BF206840F0200038
:1022F0002060206840F48070206040F20720C4F81D
:10230000FC03206940F02000206100BF00BF00BF37
:10231000206840F020002060206840F48070206039
:10232000206940F400702061206940F480702061D1
:10233000206840F0200020600920C4F8FC032069D8
:1023400040F02000206100BF00BF00BF206840F0C7
:1023500020002060206840F480702060C4F8FC53A6
:10236000206940F02000206100BF00BF00BF20684E
:1023700040F020002060206840F4807020602069D8
:1023800040F400702061206940F480702061206872
:1023900040F0200020600A20C4F8FC03206940F0CF
:1023A0002000206100BF00BF00BF206840F0200077
:1023B0002060206840F480702060C4F8FC532069DD
:1023C00040F02000206100BF00BF00BF206840F047
:1023D00020002060206840F480702060206940F474
:1023E00000702061206940F480702061206840F016
:1023F000200020600C20C4F8FC03206940F020007D
:10240000206100BF00BF00BF206840F020002060B6
:10241000206840F480702060C4F8FC53206940F0CC
:102420002000206100BF00BF00BF206840F02000F6
:102430002060206840F480702060206940F40070C3
:102440002061206940F480702061206840F0200005
:1024500020600D20C4F8FC03206940F020002061BA
:1024600000BF00BF00BF206840F02000206020684F
:1024700040F480702060C4F8FC53206940F02000D4
:10248000206100BF00BF00BF206840F02000206036
:10249000206840F480702060206940F40070206162
:1024A000206940F480702061206840F020002060A6
:1024B0000F20C4F8FC03206940F02000206100BF19
:1024C00000BF00BF206840F020002060206840F47A
:1024D00080702060C4F8FC53206940F02000206127
:1024E00000BF00BF00BF206840F0200020602068CF
:1024F00040F480702060206940F400702061206901
:1025000040F480702061206840F02000206010209E
:10251000C4F8FC03206940F02000206100BF00BF28
:1025200000BF206840F020002060206840F48070E8
:102530002060C4F8FC53206940F02000206100BFF7
:1025400000BF00BF206840F020002060206840F4F9
:1025500080702060206940F400702061206940F4A0
:1025600080702061206840F020002060C4F8FC6387
:10257000206940F02000206100BF00BF00BF20683C
:1025800040F020002060206840F480702060072028
:10259000C4F8FC03206940F02000206100BF00BFA8
:1025A00000BF206840F020002060206840F4807068
:1025B0002060206940F400702061206940F4807040
:1025C0002061206840F020002060C4F8FC9320695E
:1025D00040F02000206100BF00BF00BF206840F035
:1025E00020002060206840F480702060C4F8FC5314
:1025F000206940F02000206100BF00BF00BF2068BC
:1026000040F020002060206840F480702060206945
:1026100040F400702061206940F4807020612068DF
:1026200040F020002060C4F8FCB3206940F0200096
:10263000206100BF00BF00BF206840F02000206084
:10264000206840F480702060C4F8FC53206940F09A
:102650002000206100BF00BF00BF206840F02000C4
:102660002060206840F480702060C820FDF7F4FDF1
:1026700020694FF0320A40F400702061206940F474
:1026800080702061206840F020002060C4F8FC7356
:102690002069102740F02000206100BF00BF00BF6C
:1026A000206840F020002060206840F480702060A6
:1026B00041F29060C4F8FC03206940F020002061E2
:1026C00000BF00BF00BF206840F0200020602068ED
:1026D00040F480702060206940F40070206120691F
:1026E00040F480702061206840F020002060C4F831
:1026F000FC63206940F02000206100BF00BF00BFE4
:10270000206840F020002060206840F48070206045
:1027100040F22720C4F8FC03206940F0200020612B
:1027200000BF00BF00BF206840F02000206020688C
:1027300040F4807020603220FDF78EFD206940F467
:1027400000702061206940F480702061206840F0B2
:1027500020002060C4F8FC93206940F02000206134
:1027600000BF00BF00BF206840F02000206020684C
:1027700040F4807020601D20C4F8FC03206940F004
:102780002000206100BF00BF00BF206840F0200093
:102790002060206840F4807020603220FDF75CFDEE
:1027A000206940F400702061206940F4807020614D
:1027B000206840F020002060C4F8FCB3206940F09D
:1027C0002000206100BF00BF00BF206840F0200053
:1027D0002060206840F4807020604FF40060C4F8EE
:1027E000FC03206940F02000206100BF00BF00BF53
:1027F000206840F020002060206840F48070206055
:10280000206940F400702061206940F480702061EC
:10281000206840F0200020602920C4F8FC032069D3
:1028200040F02000206100BF00BF00BF206840F0E2
:1028300020002060206840F4807020601420C4F8DC
:10284000FC03206940F02000206100BF00BF00BFF2
:10285000206840F020002060206840F480702060F4
:10286000206940F400702061206940F4807020618C
:10287000206840F0200020602B20C4F8FC03206971
:1028800040F02000206100BF00BF00BF206840F082
:1028900020002060206840F4807020600B20C4F885
:1028A000FC03206940F02000206100BF00BF00BF92
:1028B000206840F020002060206840F48070206094
:1028C0003220FDF7C9FC2069032140F4007020612B
:1028D0002069072240F480702061206840F02000C9
:1028E00020602020C4F8FC03206940F02000206113
:1028F00000BF00BF00BF206840F0200020602068BB
:1029000040F480702060C4F8FC53206940F020003F
:10291000206100BF00BF00BF206840F020002060A1
:10292000206840F480702060206940F400702061CD
:10293000206940F480702061206840F02000206011
:102940002120C4F8FC03206940F02000206100BF72
:1029500000BF00BF206840F020002060206840F4E5
:1029600080702060C4F8FC53206940F02000206192
:1029700000BF00BF00BF206840F02000206020683A
:1029800040F480702060206940F40070206120696C
:1029900040F480702061206840F0200020603020EA
:1029A000C4F8FC03206940F02000206100BF00BF94
:1029B00000BF206840F020002060206840F4807054
:1029C0002060C4F8FC83206940F02000206100BF33
:1029D00000BF00BF206840F020002060206840F465
:1029E00080702060206940F400702061206940F40C
:1029F00080702061206840F0200020603120C4F801
:102A0000FC03206940F02000206100BF00BF00BF30
:102A1000206840F020002060206840F48070206032
:102A200040F20770C4F8FC03206940F020002061E8
:102A300000BF00BF00BF206840F020002060206879
:102A400040F480702060206940F4007020612069AB
:102A500040F480702061206840F020002060C4F8BD
:102A6000FCA3206940F02000206100BF00BF00BF30
:102A7000206840F020002060206840F480702060D2
:102A80000620C4F8FC03206940F02000206100BF4C
:102A900000BF00BF206840F020002060206840F4A4
:102AA00080702060206940F400702061206940F44B
:102AB00080702061206840F0200020603520C4F83C
:102AC000FC03206940F02000206100BF00BF00BF70
:102AD000206840F020002060206840F48070206072
:102AE00040F20470C4F8FC03206940F0200020612B
:102AF00000BF00BF00BF206840F0200020602068B9
:102B000040F480702060206940F4007020612069EA
:102B100040F480702061206840F020002060362062
:102B2000C4F8FC03206940F02000206100BF00BF12
:102B300000BF206840F020002060206840F48070D2
:102B4000206041F60470C4F8FC03206940F02000C6
:102B5000206100BF00BF00BF206840F0200020605F
:102B6000206840F480702060206940F4007020618B
:102B7000206940F480702061206840F020002060CF
:102B80003720C4F8FC03206940F02000206100BF1A
:102B900000BF00BF206840F020002060206840F4A3
:102BA000807020600420C4F8FC03206940F02000FD
:102BB000206100BF00BF00BF206840F020002060FF
:102BC000206840F480702060206940F4007020612B
:102BD000206940F480702061206840F0200020606F
:102BE0003820C4F8FC03206940F02000206100BFB9
:102BF00000BF00BF206840F020002060206840F443
:102C000080702060C4F8FC53206940F020002061EF
:102C100000BF00BF00BF206840F020002060206897
:102C200040F480702060206940F4007020612069C9
:102C300040F480702061206840F02000206039203E
:102C4000C4F8FC03206940F02000206100BF00BFF1
:102C500000BF206840F020002060206840F48070B1
:102C6000206040F20670C4F8FC03206940F02000A8
:102C7000206100BF00BF00BF206840F0200020603E
:102C8000206840F480702060206940F4007020616A
:102C9000206940F480702061206840F020002060AE
:102CA0003C20C4F8FC03206940F02000206100BFF4
:102CB00000BF00BF206840F020002060206840F482
:102CC0008070206040F20170C4F8FC03206940F07D
:102CD0002000206100BF00BF00BF206840F020003E
:102CE0002060206840F480702060206940F400700B
:102CF0002061206940F480702061206840F020004D
:102D000020603D20C4F8FC03206940F020002061D1
:102D100000BF00BF00BF206840F020002060206896
:102D200040F4807020600F20C4F8FC03206940F05C
:102D30002000206100BF00BF00BF206840F02000DD
:102D40002060206840F480702060206940F40070AA
:102D50002061206940F480702061206840F02000EC
:102D600020605020C4F8FC03206940F0200020615E
:102D700000BF00BF00BF206840F020002060206836
:102D800040F480702060C4F8FC53206940F02000BB
:102D9000206100BF00BF00BF206840F0200020601D
:102DA000206840F480702060206940F40070206149
:102DB000206940F480702061206840F0200020608D
:102DC0005120C4F8FC03206940F02000206100BFBE
:102DD00000BF00BF206840F020002060206840F461
:102DE00080702060EF20C4F8FC03206940F02000D0
:102DF000206100BF00BF00BF206840F020002060BD
:102E0000206840F480702060206940F400702061E8
:102E1000206940F480702061206840F0200020602C
:102E20005220C4F8FC03206940F02000206100BF5C
:102E300000BF00BF206840F020002060206840F400
:102E400080702060C4F8FC53206940F020002061AD
:102E500000BF00BF00BF206840F020002060206855
:102E600040F480702060206940F400702061206987
:102E700040F480702061206840F0200020605320E2
:102E8000C4F8FC03206940F02000206100BF00BFAF
:102E900000BF206840F020002060206840F480706F
:102EA000206040F23F10C4F8FC03206940F020008D
:102EB000206100BF00BF00BF206840F020002060FC
:102EC000206840F480702060206940F40070206128
:102ED000206940F480702061206840F0200020606C
:102EE0006020C4F8FC03206940F02000206100BF8E
:102EF00000BF00BF206840F020002060206840F440
:102F0000807020604FF41C50C4F8FC03206940F02E
:102F10002000206100BF00BF00BF206840F02000FB
:102F20002060206840F480702060206940F40070C8
:102F30002061206940F480702061206840F020000A
:102F400020606120C4F8FC03206940F0200020616B
:102F500000BF00BF00BF206840F020002060206854
:102F600040F4807020600120C4F8FC03206940F028
:102F70002000206100BF00BF00BF206840F020009B
:102F80002060206840F480702060206940F4007068
:102F90002061206940F480702061206840F02000AA
:102FA00020606A20C4F8FC03206940F02000206102
:102FB00000BF00BF00BF206840F0200020602068F4
:102FC00040F480702060C4F8FC53206940F0200079
:102FD000206100BF00BF00BF206840F020002060DB
:102FE000206840F480702060206940F40070206107
:102FF000206940F480702061206840F0200020604B
:103000008020C4F8FC03206940F02000206100BF4C
:1030100000BF00BF206840F020002060206840F41E
:1030200080702060C4F8FC53206940F020002061CB
:1030300000BF00BF00BF206840F020002060206873
:1030400040F480702060206940F4007020612069A5
:1030500040F480702061206840F0200020608120D2
:10306000C4F8FC03206940F02000206100BF00BFCD
:1030700000BF206840F020002060206840F480708D
:103080002060C4F8FC53206940F02000206100BF9C
:1030900000BF00BF206840F020002060206840F49E
:1030A00080702060206940F400702061206940F445
:1030B00080702061206840F0200020608220C4F8E9
:1030C000FC03206940F02000206100BF00BF00BF6A
:1030D000206840F020002060206840F4807020606C
:1030E000C4F8FC53206940F02000206100BF00BFFD
:1030F00000BF206840F020002060206840F480700D
:103100002060206940F400702061206940F48070E4
:103110002061206840F0200020608320C4F8FC0378
:10312000206940F02000206100BF00BF00BF206880
:1031300040F020002060206840F480702060C4F8D7
:10314000FC53206940F02000206100BF00BF00BF99
:10315000206840F020002060206840F480702060EB
:10316000206940F400702061206940F48070206183
:10317000206840F0200020608420C4F8FC0320690F
:1031800040F02000206100BF00BF00BF206840F079
:1031900020002060206840F480702060C4F8FC5358
:1031A000206940F02000206100BF00BF00BF206800
:1031B00040F020002060206840F48070206020698A
:1031C00040F400702061206940F480702061206824
:1031D00040F0200020608520C4F8FC03206940F006
:1031E0002000206100BF00BF00BF206840F0200029
:1031F0002060206840F480702060C4F8FC5320698F
:1032000040F02000206100BF00BF00BF206840F0F8
:1032100020002060206840F480702060206940F425
:1032200000702061206940F480702061206840F0C7
:10323000200020609020C4F8FC03206940F02000AA
:10324000206100BF00BF00BF206840F02000206068
:10325000206840F480702060C4F8FC73206940F05E
:103260002000206100BF00BF00BF206840F02000A8
:103270002060206840F480702060206940F4007075
:103280002061206940F480702061206840F02000B7
:1032900020609220C4F8FC03206940F020002061E7
:1032A00000BF00BF00BF206840F020002060206801
:1032B00040F480702060C4F8FC53206940F0200086
:1032C000206100BF00BF00BF206840F020002060E8
:1032D000206840F480702060206940F40070206114
:1032E000206940F480702061206840F02000206058
:1032F0009320C4F8FC03206940F02000206100BF47
:1033000000BF00BF206840F020002060206840F42B
:1033100080702060C4F8FC13206940F02000206118
:1033200000BF00BF00BF206840F020002060206880
:1033300040F480702060206940F4007020612069B2
:1033400040F480702061206840F0200020609520CB
:10335000C4F8FC03206940F02000206100BF00BFDA
:1033600000BF206840F020002060206840F480709A
:1033700020604FF48870C4F8FC03206940F02000FE
:10338000206100BF00BF00BF206840F02000206027
:10339000206840F480702060206940F40070206153
:1033A000206940F480702061206840F02000206097
:1033B0009720C4F8FC03206940F02000206100BF82
:1033C00000BF00BF206840F020002060206840F46B
:1033D00080702060C4F8FC53206940F02000206118
:1033E00000BF00BF00BF206840F0200020602068C0
:1033F00040F480702060206940F4007020612069F2
:1034000040F480702061206840F020002060982007
:10341000C4F8FC03206940F02000206100BF00BF19
:1034200000BF206840F020002060206840F48070D9
:103430002060C4F8FC53206940F02000206100BFE8
:1034400000BF00BF206840F020002060206840F4EA
:1034500080702060206940F400702061206940F491
:1034600080702061206840F020002060C4F8FC13C8
:10347000206940F02000206100BF00BF00BF20682D
:1034800040F020002060206840F48070206041F20D
:103490001800C4F8FC03206940F02000206100BF40
:1034A00000BF00BF206840F020002060206840F48A
:1034B00080702060206940F400702061206940F431
:1034C00080702061206840F020002060C4F8FC2358
:1034D000206940F02000206100BF00BF00BF2068CD
:1034E00040F020002060206840F48070206040F2AE
:1034F0007310C4F8FC03206940F02000206100BF75
:1035000000BF00BF206840F020002060206840F429
:103510008070206001B0BDE8F08F000070470000AF
:10352000FCF7ACBF4EF68850CEF20000016841F4C3
:10353000700101604FF0006140F8801C704700008E
:10354000FEE7000094B0FCF7A7FF00244FF40070E2
:103550000C94CDE90A44CDE90844FDF743F8012075
:1035600006904FF480300790022012210D90032521
:10357000CDE91010CDE9120006A8CDE90E55FDF7F2
:103580004BFA0F20CDE9010501A80321CDE9034441
:103590000594FDF7BBF8FDF737FFFDF705FE0020AA
:1035A000FDF7C0FC0020FDF717FF4FF6FF70FDF799
:1035B0001FFF00BFFEE702E008C8121F08C1002A73
:1035C000FAD170477047002001E001C1121F002AA4
:1035D000FBD170470000000000000000010203045E
:1035E0000607080908360008000000201000000047
:1035F000B635000818360008100000200804000046
:10360000C6350008000000001000000001000000A6
:08361000FFFF00000024F4009C
:04000005080001D915
:00000001FF
