:020000040800F2
:1000000038060020ED010008B54E00082D3C000820
:10001000B14E0008250A0008957A0008000000008B
:10002000000000000000000000000000556F000804
:10003000890A000800000000B94E0008F56F0008AA
:10004000070200080702000807020008070200086C
:10005000070200080702000807020008070200085C
:10006000070200080702000807020008070200084C
:10007000070200080702000807020008070200083C
:10008000070200080000000007020008070200083D
:10009000070200080702000807020008070200081C
:1000A000070200080702000807020008070200080C
:1000B00015700008217000080702000807020008F8
:1000C00007020008070200080702000807020008EC
:1000D00007020008897A00080702000807020008E2
:1000E00007020008070200080702000807020008CC
:1000F00007020008070200080702000800000000CD
:1001000000000000070200080000000007020008CD
:1001100007020008000000000702000807020008AC
:10012000070200080702000807020008070200088B
:10013000070200080000000000000000070200089D
:10014000070200080702000800000000000000008D
:10015000000000000000000000000000000000009F
:10016000000000000000000000000000070200087E
:10017000070200080000000000000000000000006E
:10018000000000000702000800000000000000005E
:10019000000000000000000000000000000000005F
:1001A000000000000000000007020008070200082D
:1001B000070200080702000807020008000000000C
:1001C000000000000702000800000000000000001E
:1001D0000702000807020008DFF80CD000F038FB27
:1001E00000480047997A00083806002006488047F2
:1001F00006480047FEE7FEE7FEE7FEE7FEE7FEE70C
:10020000FEE7FEE7FEE7FEE7F96F0008D901000808
:100210002DE9F05F0546002092469B46884606463B
:10022000814640241BE0284641464746224600F0CE
:1002300093F953465A46C01A914110D311461846B5
:10024000224600F07AF92D1A67EB01084F46224644
:100250000120002100F071F917EB00094E41201E2A
:10026000A4F10104DFDC484631462A464346BDE896
:10027000F09FD2B201E000F8012B491EFBD270477B
:100280000022F6E710B513460A4604461946FFF762
:10029000F0FF204610BD2DE9FE4F81EA030404F073
:1002A000004421F0004100944FF0000B23F0004384
:1002B00050EA01045ED052EA03045BD0C3F30A544F
:1002C000C1F30A552C44A4F2F3340194A0FB025468
:1002D000C1F3130141F48011C3F3130343F48013FA
:1002E00001FB024400FB034E840A970A44EA81544E
:1002F00047EA8357A4FB076802958D0A05FB07852B
:100300004FEA932C04FB0C542705029D4FEA065834
:1003100047EA1637B5EB08056EEB070C870E920E11
:1003200047EA811742EA8312A7FB0201B6EB0B01F1
:1003300064EB00042B0D43EA0C335E1844EB1C50B5
:10034000DA465146E7FB0201C5F313044FEA0B33CB
:1003500043EA14534FEA0432019C43EA0603A4F132
:100360000C040294009CCDE900B400F04BF903B0FA
:10037000BDE8F08F00200146F9E72DE9F04D81EA54
:10038000030404F0004B21F0004514464FF0000A2E
:1003900023F0004150EA050220D054EA01021DD0AA
:1003A000C5F30A570246C5F31303C1F31300C1F3A3
:1003B0000A5640F4801543F48013A7EB0608101B7F
:1003C000D64608F2FD3873EB050002D308F10108A8
:1003D00001E092185B41B8F1000F03DA00200146FA
:1003E000BDE8F08D00204FF48011064684460EE0F3
:1003F000171B73EB050705D3121B63EB05030643BD
:100400004CEA010C49084FEA300092185B4150EA6F
:100410000107EDD152EA030012D082EA040083EA18
:100420000501084305D0101BAB4106D20122002371
:1004300006E000224FF0004302E06FF0010253108B
:100440001AEB06004CEB085110EB0A0041EB0B01D4
:10045000BDE8F04D00F0C7B830B5041E71F10004DE
:1004600004DB4FF00044404264EB0101141E73F1C1
:10047000000405DB1C464FF00043524263EB0403CB
:10048000101A8B4101D3012030BD002030BD0EB5C4
:10049000C10F80EAE0700844CA07002140F23343EC
:1004A0008DE80E000A460B4600F0ACF803B000BD24
:1004B00000F0004230F000400AD0C10D01F560713B
:1004C000C0F3160042EA0151C208400711437047C9
:1004D00000200146704701F0004330B421F0004194
:1004E00050EA010206D00A0DA2F56072C1F31301B1
:1004F000002A02DC30BC00207047440F44EAC104EB
:10050000C100E01830BC00EBC25000F035B830B587
:100510000B46014600202022012409E021FA02F5C1
:100520009D4205D303FA02F5491B04FA02F528445B
:10053000151EA2F10102F1DC30BD202A04DB203AB5
:1005400000FA02F1002070479140C2F1200320FA26
:1005500003F3194390407047202A04DB203A21FA24
:1005600002F00021704721FA02F3D040C2F12002CC
:1005700091400843194670470029A8BF7047401CA6
:10058000490008BF20F00100704710B4B0FA80FCA9
:1005900000FA0CF050EA010404BF10BC704749B1E6
:1005A000CCF1200421FA04F411FA0CF118BF012156
:1005B00021430843A3EB0C01CB1D4FEA00614FEA36
:1005C000102042BF002010BC704700EBC350104405
:1005D0000029A4BF10BC7047401C490008BF20F090
:1005E000010010BC704710B5141E73F1000408DA46
:1005F000401C41F1000192185B411A4301D120F0E7
:10060000010010BD2DE9F04D92469B4611B1B1FAA3
:1006100081F202E0B0FA80F220329046FFF78DFFBF
:1006200004460F4640EA0A0041EA0B0153465A4687
:10063000084313D0114653EA010019D0C8F1400213
:100640005046FFF789FF05460E465046594642463A
:10065000FFF773FF084305D0012004E02046394628
:10066000BDE8F08D0020054346EAE0762C43374391
:100670000A986305E40AA0EB08000022FD0A44EA98
:1006800047540A3002D500200146E9E70105101958
:100690006941DDE9084500196941BDE8F04DA2E76F
:1006A0002DE9FE4F804681EA0300C00F0C46009002
:1006B00021F0004123F00045B8EB0200A94105D22A
:1006C0004046214690461C460B46024623F0004019
:1006D000104347D0270DC7F30A00C3F30A51029015
:1006E000401A019040286BDAC3F3130040F4801BDA
:1006F0000098924620B10023D2EB030A63EB0B0B68
:1007000001985946C0F140025046FFF716FF0646D1
:100710000D4650465946019A00F0B2F810EB080019
:100720006141002487EA115284EAE7731A4340D0FA
:10073000009A62B3019A012A4FEA075215DC001BA6
:1007400061EB02014FF0004202EA0752CDE900429C
:10075000001C41F5801132462B46FFF753FF03B0D2
:10076000BDE8F08F40462146F9E7001B61EB02012E
:10077000001C41F5801300185B412018A2F50017FA
:1007800047EB030140EAD570B6196D4111E06D08E1
:100790004FEA360645EAC0754FEA0752001B61EB87
:1007A0000201001C41F5801149084FEA3000001990
:1007B000514132462B4603B0BDE8F04FFFF713BF5F
:1007C0000098012240000023D0EB020263EBE073AB
:1007D000009821464FEAE074B8EB000061EB040199
:1007E000E9E783F000435BE781F0004158E7C1F39C
:1007F0000A52C1F3130140F2FF3341F480119A42CF
:1008000002DA00200146704740F233439A42A2F2D6
:10081000334202DC5242FFF79FBEFFF78EBE00005C
:1008200030B5041E71F1000404DB4FF00044404277
:1008300064EB0101141E73F1000405DB1C464FF04C
:100840000043524263EB0403994208BF904230BD1B
:100850001CB509480090094801900546009C06E037
:10086000E06840F0010394E8070098471034AC4278
:10087000F6D3FFF7B5FC00002C9900084C9900084E
:10088000202A06DBCB17203A41FA02F043EAE07354
:1008900006E041FA02F3D040C2F120029140084341
:1008A0001946704770B5044600688268836802F094
:1008B000040203F00803D21800F0B280C26892016B
:1008C0006ED5627F012A6BD1227F012A68D101682F
:1008D000490661D40121CAF24031026852065BD454
:1008E0000268520658D4026852065CBF02685FEA8A
:1008F000426251D4026852065CBF02685FEA4262FB
:100900004AD4026852065CBF02685FEA426243D47E
:10091000026852065CBF02685FEA42623CD4026829
:1009200052065CBF02685FEA426235D40268520632
:100930005CBF02685FEA42622ED4026852065CBF66
:1009400002685FEA426227D4026852065CBF02680E
:100950005FEA426220D4026852065CBF02685FEA26
:10096000426219D4026852065CBF02685FEA4262C2
:1009700012D4026852065CBF02685FEA42620BD47E
:10098000026852065CBF02685FEA426204D41B3907
:100990003BD002685206A0D540210160012105E04C
:1009A000022903D10221082612E000BF8268520703
:1009B0000AD58268920707D482684FF6C073C7F6DB
:1009C000FF731A401032826001294FF0040610D0E4
:1009D000826812070AD58268920707D482684FF6A8
:1009E000C073C7F6FF731A4020328260032908BF24
:1009F0000C2601F01BF905462068806830420FD0B4
:100A000001F014F9401B0628F6D3E06D40F0100009
:100A1000E065206E40F001002066012070BD00BF3F
:100A2000002070BDFEE7000010B540F60044C4F69B
:100A30000004A4F580604FF47F41012201F0F0F83A
:100A400020460421012201F0EBF820460421002277
:100A5000BDE8104001F0E4B810B540F60044C4F61B
:100A60000004A4F580630A460102184601F0D8F894
:100A700020460421012201F0D3F82046042100225F
:100A8000BDE8104001F0CCB87047000040F22E20C5
:100A9000C2F200000078C00708BF00F0ADB8B0B5E2
:100AA0008AB0302003F0D2FC602003F0CFFC49F67E
:100AB0001410C0F6000090E81E100DF1080E8EE82C
:100AC0001E10818A807D02ADADF81C108DF81E00CD
:100AD0004820294603F02AFD40F27800C2F20000C7
:100AE000027840F22D20C2F20000037840F22F205D
:100AF000C2F20000047849F6E801C0F60001284679
:100B0000009407F049F97820294603F00FFD0AB058
:100B1000B0BD0000000000002DE9F04140F60044A7
:100B2000C4F60004A4F5806528464FF47F410122F5
:100B300001F076F820460421012201F071F82046E8
:100B4000042100224FF0000801F06AF840F234203E
:100B5000C2F200000068FFF7ABFC064640F21C2022
:100B6000C2F2000000680F46FFF7A2FC9FED200BC9
:100B700053EC102BFFF78FFB32463B46FFF76CFC24
:100B8000D8B940F22C20C2F2000080F8008028463C
:100B90004FF48071002201F043F820460421012225
:100BA00001F03EF820460421002201F039F840F21D
:100BB0005010C2F2000002F02BFA40F21000C2F214
:100BC000000000784FF40071B0FA80F04209284626
:100BD00001F026F820460421012201F021F82046E8
:100BE00004210022BDE8F04101F01AB800BF00BFA7
:100BF0006666666666660A40B0B58AB040F2342022
:100C0000C2F200000068FFF753FC02AC02460B463C
:100C10002CA1204607F0C0F83020214603F086FCC6
:100C200040F21C20C2F200000068FFF741FC0246BF
:100C30000B462AA1204607F0AFF84820214603F0D2
:100C400075FC40F21000C2F20000007870B1284834
:100C50000DF10C0C029026A0041D1ECC007D8CE82A
:100C60000E0006948DF81C000DE000BF26480DF123
:100C70000C0C029024A0041D1ECC808A8CE80E006F
:100C80000694ADF81C0002AD6020294603F04EFC2E
:100C900040F27800C2F20000027840F22D20C2F249
:100CA0000000037840F22F20C2F2000004781CA15B
:100CB0002846009407F070F87820294603F036FCA7
:100CC0000AB0B0BD2020202056313A252E3266567B
:100CD0002020202020202020000000002020202094
:100CE0006B3A252E31662020202020202020000075
:100CF000202020204C45443A4F4E20202020202008
:100D00002020202000000000202020204C45443AD4
:100D10004F464620202020202020202020000000B8
:100D200020202020543A25642D25642D2564202080
:100D30002020202020200000F0B581B040F228477C
:100D4000C4F6000757F8103C064643F0800347F806
:100D5000103C57F8103C154643F0400347F8103C50
:100D60003B680C4643F080033B603B6843F0400324
:100D70003B603B6843F040033B6057F8103C43F056
:100D8000800347F8103C57F8103C43F0400347F805
:100D9000103C3B6843F040033B603B6843F08003FA
:100DA0003B6057F8103C43F0400347F8103C3B6869
:100DB00043F040033B6057F8103C43F0800347F892
:100DC000103C57F8103C43F0400347F8103C3B6898
:100DD00043F040033B603B6843F080033B6057F8BF
:100DE000103C43F0400347F8103C3B6843F040039D
:100DF0003B603B6843F080033B6057F8103C43F096
:100E0000400347F8103C3B6843F040033B603B68BD
:100E100043F080033B6057F8103C43F0400347F831
:100E2000103C3B6843F040033B603B6843F0800369
:100E30003B6057F8103C43F0400347F8103C3B68D8
:100E400043F040033B603B6843F08000386057F854
:100E5000100C40F0400047F8100C386840F040009B
:100E6000386003F079F8304602F0C0FF03F074F800
:100E7000386840F040003860386840F080003860E2
:100E800057F8100C40F0400047F8100C57F8100CC1
:100E900040F0800047F8100C57F8100C40F080002C
:100EA00047F8100C57F8100C40F0400047F8100CB1
:100EB000386840F080003860386840F040003860A2
:100EC000386840F04000386057F8100C40F080005F
:100ED00047F8100C57F8100C40F0400047F8100C81
:100EE000386840F040003860386840F08000386072
:100EF00057F8100C40F0400047F8100C386840F0EC
:100F00004000386057F8100C40F0800047F8100C93
:100F100057F8100C40F0400047F8100C386840F0CB
:100F200040003860386840F08000386057F8100C96
:100F300040F0400047F8100C386840F0400038603E
:100F4000386840F08000386057F8100C40F04000DE
:100F500047F8100C386840F040003860386840F0BE
:100F60008000386057F8100C40F0400047F8100C33
:100F7000386840F040003860386840F080003860E1
:100F800057F8100C40F0400047F8100C386840F05B
:100F90004000386057F8100C40F0800047F8100C03
:100FA00057F8100C40F0400047F8100C386840F03B
:100FB0004000386002F0D0FF65B3013D02F04CFE06
:100FC0002906207016D0013C3868013D40F08000B1
:100FD000386057F8100C40F0400047F8100C3868A3
:100FE00040F04000386002F037FEA070280604F19F
:100FF0000104E9D157F8100C40F0800047F8100CBC
:1010000057F8100C40F0400047F8100C386840F0DA
:1010100040003860386840F040003860386840F080
:101020008000386057F8100C40F0400047F8100C72
:1010300057F8100C40F0800047F8100C01B0F0BDDC
:10104000F0B581B040F22847C4F6000757F8103CCD
:10105000064643F0800347F8103C57F8103C14460E
:1010600043F0400347F8103C3B680D4643F08003D3
:101070003B603B6843F040033B603B6843F0400308
:101080003B6057F8103C43F0800347F8103C57F89A
:10109000103C43F0400347F8103C3B6843F04003EA
:1010A0003B603B6843F080033B6057F8103C43F0E3
:1010B000400347F8103C3B6843F040033B6057F85F
:1010C000103C43F0800347F8103C57F8103C43F0C5
:1010D000400347F8103C3B6843F040033B603B68EB
:1010E00043F080033B6057F8103C43F0400347F85F
:1010F000103C3B6843F040033B603B6843F0800397
:101100003B6057F8103C43F0400347F8103C3B6805
:1011100043F040033B603B6843F080033B6057F87B
:10112000103C43F0400347F8103C3B6843F0400359
:101130003B603B6843F080033B6057F8103C43F052
:10114000400347F8103C3B6843F040033B603B687A
:1011500043F08000386057F8100C40F0400047F82A
:10116000100C386840F04000386002F0F5FE304660
:1011700002F03CFE02F0F0FE4CB1013D15F8010F0B
:10118000013C02F033FE02F0E7FE2006F6D138689B
:1011900040F040003860386840F08000386057F810
:1011A000100C40F0400047F8100C57F8100C40F0BD
:1011B000800047F8100C01B0F0BD0000704700003F
:1011C000F0B581B00022009290F85820012A03D196
:1011D0000221084601B0F0BD0123076880F85830AD
:1011E000BB685B0734D4D1E900351F26C5F3012461
:1011F00007EB8404226B05F01F05AE40C3F3846344
:10120000B243AB401A432263BA68BB6802F00402DF
:1012100003F00803D21840F0BC800A6807F11403F9
:101220000426C2F34064D1F808E006EAD25C53F821
:101230002440C2F304550722AA40BEF1004F24EA1D
:1012400002040BD143F80C401A6842F000430DE051
:10125000C16D41F02001C16501216AE10EFA05F27C
:10126000224343F80C201A6822F000437B61D1E945
:101270000435FC68042B5FD13A6E3A6E0B68C2F3FA
:10128000846293FAA3F6C3F3846C6FF3DF43B6FA78
:1012900086F5002B2C464FF6FF7E08BF6446A2421F
:1012A000C0F2070E0CD13A6E22F000423A660A688C
:1012B00002EA0E03C2F3846C92FAA2F2B2FA82F549
:1012C0007A6E7A6E002BC2F384622C4608BF6446A5
:1012D000A2420CD17A6E22F000427A660A6802EAD3
:1012E0000E03C2F3846C92FAA2F2B2FA82F5BA6EDD
:1012F000BA6E002BC2F384622C4608BF6446A24239
:101300000CD1BA6E22F00042BA660A6802EA0E03F5
:10131000C2F3846C92FAA2F2B2FA82F5FA6EFA6E15
:10132000002BC2F3846208BF6546AA4231D1FA6E2F
:1013300022F00042FA662CE0062202EA940205FA44
:1013400002FC0E6807F1600555F823404FF20002D9
:10135000C0F2FF3206F0F846224046EA0C0632435D
:1013600042F0004245F823200A698B6955F8226053
:1013700026F08076334345F822300A690B7F55F812
:101380002260012B26F0007608BF06F1007645F8B2
:101390002260BA680D68D20744D1CA68D7F8B06035
:1013A0002B466FF3DF4326EA030C4FF6FF7602F07D
:1013B0001804C0F20706E64000242E40C4F27F0461
:1013C00046EA0C06A242C7F8B0602BD195FAA5F206
:1013D000B2FA82F2002B08BFC5F38462013202F038
:1013E0001E0302F01F0201260025964002EB420276
:1013F000CFF6206505EB0255354345F000750A2B05
:1014000038BF46EA0255C5F3406307EB83038A6899
:101410005E69C5F304550724AC40A643AA40324395
:101420005A610D680021C8F208010D4200F0808069
:1014300040F2083CC5F2000CDCF800400021CCF280
:1014400021318D4204F0E07E04D01021C9F2C001A8
:101450008D423FD1B7F1A04F4FF0000108BF14F407
:10146000000266D1DCF8001042F6635221F0E07110
:1014700041EA0E0141F40001CCF8001040F20C01E9
:10148000C2F200010968C0F23E528909A1FB0212B2
:10149000910901EB4101890000910099002947D091
:1014A0000099013900910099002941D00099013932
:1014B00000910099E1B30099013900910099B9B305
:1014C000009901390091009900294FF00001E7D1FE
:1014D0002FE000BF0021CCF252718D4210D10021CB
:1014E000B1EB1E6F0CD1ACF502718F4220D0DCF84D
:1014F000001021F0E07141EA0E0141F0807115E029
:10150000ACF502718F424FF0000112D00022CCF6F0
:101510008432954208BF14F480020AD1DCF800102E
:1015200021F0E07141EA0E0141F48001CCF8001095
:101530000021002280F85820084601B0F0BD0000CC
:101540000068006C70470000B0B582B0044600200F
:1015500001904CB1E06D58B121688868800012D4C8
:101560008868C00019D548E0012002B0B0BD00BFB6
:10157000204600F00BF90020206684F8580021680E
:1015800088688000ECD588684FF6C072C5F6FF7297
:10159000104088608868C0002FD44FF6C0728868F9
:1015A000C5F6FF7202F18052104000F18050886051
:1015B00040F20C00C2F20000006842F6635280095B
:1015C000C0F23E52A0FB0202900901900198A0B126
:1015D000019801380190019878B101980138019083
:1015E000019850B1019801380190019828B10198F3
:1015F0000138019001980028EAD18868C00009D418
:10160000E06D40F01000E065206E40F001002066C3
:10161000012000E000208A68E36D02F0040203F07C
:101620001003D218E26D77D122F481720232E265A2
:101630008A68D2071AD140F2083C4FF600534FF6A1
:101640000062C5F2000CCFF6FF73CFF6FF725CF8B4
:1016500003305CF802201A43D20707D16268DCF835
:10166000003023F47C131A43CCF8002094F81DE0DA
:10167000E36BD4E902C243EA4E331A4394F82430B0
:1016800042EA0C02012B42EA034207D1D4F828C0F7
:101690000023CFF6FE7303EB4C431A43E36A33B1E6
:1016A000D4F830C003F4787343EA0C031A43D1F83A
:1016B0000CC044F20703CFF6F07303EA0C031A439D
:1016C000CA600A69636B22F040621A430A618A6841
:1016D0008B6802F0040203F00803D21845D194F895
:1016E0003820237F520042EA833CCB6844F2020256
:1016F00023EA020242EA0C02CA6022690B698AB13B
:1017000043F480330B61D1F8C0C043F6FF732CEA79
:1017100003031A430EE000BF42F010010120E1650F
:1017200002B0B0BD23F480320A61D1F8C02043F684
:10173000FF739A43C1F8C02094F840300A69012B26
:1017400010D140F2FD7322EA030CD4E91132D4E93E
:1017500013E543EA0C031A4342EA0E022A4342F01D
:10176000010201E022F001020A6162690B6B012AA9
:1017700023F00F0202D1236A013B1A430A63E16D91
:10178000012262F30101E16502B0B0BD80B586B00F
:10179000006840F20012C5F200020021904205915B
:1017A000049101D006B080BD41F24C00C4F20200A9
:1017B000026842F400520260026802F40052009291
:1017C000009A026842F002020260006800F0020023
:1017D000009000984FF4004001900320CDE90201F1
:1017E00040F20040C4F6000001A900F04BF906B039
:1017F00080BD00002DE9F04140F20017C5F200075E
:101800000446D7F8086200688168490703D494F851
:101810005810012902D10220BDE8F081012184F88D
:10182000581081684FF6C078C907C7F6FF7831D1E4
:10183000816808F17F0211420ED0E06D40F0100087
:10184000E065206E40F001002066002084F858001A
:101850000120BDE8F08100BF816801EA080141F084
:101860000101816000F0E2F9054604E000F0DEF9D4
:10187000401B0228E1D820680168C9070AD18168A5
:10188000C907F3D1816801EA080141F001018160D3
:10189000ECE700BFE16D40F60173994306F01F02CB
:1018A00001F580760146B84208BF4FF0A0410B1AFF
:1018B000B3FA83F35B09E66500D11AB9E76D27F443
:1018C0008017E765E66D0027F6044FF0000644BF79
:1018D000266E26F0060626661C26066084F85870DA
:1018E00043B9092A18D8012303FA02F240F221234E
:1018F0001A4211D0C168890104D5E16D012262F359
:101900000D31E165816801EA080141F0040181605F
:101910000020BDE8F08100BFE06D40F48010E0657C
:10192000C868800104D5E06D012161F30D30E065E8
:101930000020BDE8F0810000B0B5044690F85800E2
:10194000012804BF0220B0BD01252046032184F8F0
:101950005850FEF7A7FF28B1002084F85800284609
:10196000B0BD00BF206881688268D20726D011F020
:10197000020123D1816801F00D01012915D181688F
:101980004FF6C072C7F6FF72114002318160032129
:10199000016000F04BF9054620688068C0070DD053
:1019A00000F044F9401B0328F6D3E06D012540F018
:1019B0001000E065204650F8601F06E0204650F811
:1019C0005C1F41F201129143002541F001010160C9
:1019D000002084F858002846B0BD000090F825107B
:1019E000022931D180B50168D0E910CE826C0B6834
:1019F00023F00E030B600B6823F001030B601168EA
:101A000021F4807111600EF01F02012101FA02F22F
:101A1000CCF80420D0E913325A60426D32B1136819
:101A200023F480731360D0E91623536080F82510E7
:101A3000826B002180F824100AB190470021BDE894
:101A400080400846704700BF0421C1630121002285
:101A500080F8251080F8242008467047B0B5044669
:101A600000F0E4F8054640F20000C2F200004068D1
:101A7000611C18BF044400BF00F0D8F8401BA0420E
:101A8000FAD3B0BD0A68002A08BF70472DE9F04FAD
:101A900082B041F2004500F138478605C4F60005E2
:101AA000062340F2004E46EA9724A84208BF0523C9
:101AB000C4F2010E052C38BF234600244FF0010B61
:101AC00000260027009309E00A68013732FA07F37D
:101AD00006F1040604F1020400F098800BFA07F9FD
:101AE00012EA0908F0D04A6842F01005122D13D10D
:101AF0006FF0030202EA57020244D2F820A006F077
:101B00001C030F25D1F810C09D402AEA05050CFAE8
:101B100003F32B4313624A6803680325A5406FEA69
:101B2000050AAB4302F00305A5402B43122A0360CC
:101B300012D80BFA02F313F0061F0DD08368CD689C
:101B400003EA0A03A5402B4383604368150923EA8F
:101B50000903BD402B434360C3688D6803EA0A0351
:101B6000A5402B43D200C360AED541F26003C4F25E
:101B700002031A684FF6084942F001021A601A6817
:101B8000CFF6FF7902F001020192019A27F00302D9
:101B9000724452F809C006F00C050F23AB402CEA42
:101BA000030C009B03FA05F545EA0C0342F80930E3
:101BB000DEF800C04B684CEA0805DA0358BF2CEA8F
:101BC0000805CEF80050DEF804C09A034CEA080578
:101BD00058BF2CEA0805CEF80450DEF808C0DA0237
:101BE0004CEA080558BF2CEA080540F20C4CCEF828
:101BF0000850C4F2010CDCF800209B0242EA080500
:101C000058BF22EA0805CCF800505DE702B0BDE8F5
:101C1000F04F70470069084018BF0120704700006E
:101C20001823002A08BF2823C150704740F23020F3
:101C3000C2F200000068704740F2000040F230211C
:101C4000C2F20000C2F2000140680A681044086055
:101C50007047000080B5032000F092F8002000F0EB
:101C600009F800281CBF012080BD00F029F80020E1
:101C700080BD000070B540F20006C2F20006716837
:101C8000E1B1044640F20C00C2F200004FF47A7257
:101C90000068B2FBF1F1B0FBF1F001F009F90F2C93
:101CA0004FF0010508D838B94FF0FF302146002227
:101CB000002500F039F83460284670BD012070BD61
:101CC00082B041F25800C4F20200816841F0010183
:101CD0008160816801F0010101910199016841F081
:101CE00080510160006800F080500090009847F239
:101CF0000800C4F20000016821F48041016002B0D4
:101D000070470000002848BF704700F01F01012203
:101D100002FA01F11C2202EAD0004EF20012CEF2C9
:101D2000000281507047000010B54EF60C5CCEF2F8
:101D3000000CDCF80030C3F3022E8EF00704042CF4
:101D400028BF0424BEF103034FF0FF3E0EFA04F453
:101D500038BF0023A14399400EFA03F39A4311437D
:101D600000F00F0200F160430901043A03F56443F7
:101D70006244002848BF02F10C03197010BD000036
:101D80004EF60C51CEF200010A684FF6FF031A40DE
:101D900060F30A2242F0806040F0FD7008607047F6
:101DA000B0F5007F42D0002840F0808047F2140058
:101DB000C4F2000050F8141CC26E01F4C06122F499
:101DC0008072B1F5806FC2662ED150F8141C0122CA
:101DD00062F34A2140F8141C40F20C01C2F20001E7
:101DE0000968322251434DF68362C4F21B32A1FBD3
:101DF0000212910C0268520511D54A1C0FD00268DC
:101E000052050CD559B10268520508D5012906D0F2
:101E10000268520503D50229A1F10401EAD1006844
:101E2000400544BF032070470020704747F214006C
:101E3000C4F2000050F8141CC26E01F4C06142F4F8
:101E40008072B1F5806FC266EED150F8141C012289
:101E500062F34A2140F8141C40F20C01C2F2000166
:101E60000968322251434DF68362C4F21B32A1FB52
:101E70000212910C0268520511D54A1C0FD002685B
:101E800052050CD559B10268520508D5012906D072
:101E90000268520503D50229A1F10401EAD10068C4
:101EA000400544BF03207047BEE700BF47F214005F
:101EB000C4F2000050F8141C022262F34A2140F8D8
:101EC000141C0020704700002DE9F04182B0044648
:101ED000807841F288060007C4F2020602D400208E
:101EE0002FE000BF56F8300C5FEAC0080BD456F85C
:101EF000300C40F0805046F8300C56F8300C00F0B2
:101F000080500190019847F20007C4F2000738683A
:101F100040F480703860FFF789FE05463868C005D8
:101F200000F1D680FFF782FE401B0228F6D903207D
:101F3000B8F1000F05D456F8301C21F0805146F856
:101F4000301C2168CA0713D18A0719D44A071FD445
:101F50000A0725D48A062BD44A0631D40A0637D478
:101F6000CA053DD48A0543D44A0549D457E000BF89
:101F70003268636822F003021A4332608A07E5D5AB
:101F80003268A36822F00C021A4332604A07DFD598
:101F90003268E36822F030021A4332600A07D9D56A
:101FA0003268236922F0C0021A4332608A06D3D510
:101FB0003268636922F440621A4332604A06CDD522
:101FC0003268A36922F440521A4332600A06C7D528
:101FD0003268E36922F440421A433260CA05C1D52F
:101FE0003268236A22F440321A4332608A05BBD534
:101FF0003268636A22F440221A4332604A050ED5E1
:102000003268A36A22F440121A43B3F5801F32608B
:1020100005D156F87C2C42F4801246F87C2C0A0537
:102020000ED53268E36A22F440021A43B3F5800FFA
:10203000326005D156F87C2C42F4801246F87C2C94
:10204000CA040ED53268236B22F040721A43B3F1F2
:10205000807F326005D156F87C2C42F4801246F81D
:102060007C2C8A040ED53268636B22F040621A43DE
:10207000B3F1006F326005D156F87C2C42F4801227
:1020800046F87C2C4A040ED53268A36B22F04062DD
:102090001A43B3F1006F326005D156F87C2C42F43C
:1020A000801246F87C2C09040ED53168E26B21F0D1
:1020B00040511143B2F1805F316005D156F87C1C6C
:1020C00041F4803146F87C1C02B0BDE8F08100BFCD
:1020D000B06810F4407010D0216C88420BD0B0680A
:1020E000B16820F4407041F48031B160B16821F4EE
:1020F0008031B160B060C0070CD1B068216C20F4B1
:1021000040700843B0600020B8F1000F3FF519AFF0
:1021100011E700BFFFF78AFD054641F2883700BF8F
:10212000B0688007E9D4FFF781FD401BB842F7D9BA
:10213000FDE600002DE9F047002865D042F2000AD4
:10214000C4F2020A0446DAF800000D4600F00F005F
:1021500088420CD2DAF8000020F00F002843CAF8B9
:102160000000DAF8000000F00F00A8424CD121680E
:1021700041F20808C807C4F2020803D1880740F1F9
:10218000D480B9E0606802283AD0032840D158F8DA
:10219000082C920138D5D8F80420D8F8043042F23F
:1021A0000046C3F3031302F00302D8F804700133AE
:1021B000C0F2F406032A04BF43F20066C0F26E16B2
:1021C000B6FBF3F2D8F80430C7F306277A43C3F31B
:1021D0004163022707EB4303B2FBF3F24BF20043E8
:1021E000C0F2C4439A425DD9D8F8002012F0F00F33
:1021F0004DD0890756D5A168002953D147E000BFCB
:1022000058F8081C890307D40120BDE8F08700BFF7
:1022100058F8081C4905F7D5D8F8001001F00C0152
:1022200004293FD0D8F8001001F00C01082939D05A
:10223000D8F8001001F00C010C2933D1D8F80410A3
:10224000D8F8042042F20047C2F3031201F0030160
:10225000D8F804300132C0F2F407032904BF43F276
:102260000067C0F26E17B7FBF2F1D8F80420C3F391
:1022700006235943C2F34162022303EB4202B1FB3E
:10228000F2F14BF20042C0F2C44291420AD9D8F8AE
:102290000010082262F307114FF00109C8F800107E
:1022A00002E000BF4FF00009D8F8001021F0030150
:1022B0000843C8F80000FFF7B9FC064641F288372A
:1022C000D8F80000616800F00C00B0EB810F07D077
:1022D000FFF7ACFC801BB842F2D90320BDE8F087C1
:1022E0002168880708D4B9F1000F1ED0D8F8000083
:1022F00020F0F00017E000BF480705D5D8F800002F
:1023000040F4E060C8F80000080706D5D8F80000DF
:10231000072262F30D20C8F80000D8F80000A26878
:1023200020F0F0001043C8F80000DAF8000000F0D8
:102330000F00A8421BD9DAF8000020F00F00284354
:10234000CAF80000FFF772FC064641F2883700BF6A
:10235000DAF8000000F00F00A84207D0FFF766FC93
:10236000801BB842F4D90320BDE8F08721684807F4
:1023700007D5D8F80000E26820F4E0601043C8F800
:102380000000080708D5D8F80000216920F4605043
:1023900040EAC100C8F80000D8F8000042F200414D
:1023A000C0F2F40100F00C00042808462DD0D8F843
:1023B000000000F00C00082843F20060C0F26E102C
:1023C00023D0D8F8002002F00C020C2A1CD1D8F837
:1023D0000420D8F8043002F00302C3F30313D8F842
:1023E00004700133032A08BF0146B1FBF3F0D8F8AB
:1023F0000410C7F30627C1F341610222784302EBC0
:102400004101B0FBF1F000E00020D8F8001048F2E4
:10241000DE62C1F30311C0F60002515C40F20C020F
:1024200001F01F0120FA01F140F20000C2F20000A9
:102430000068C2F200021160BDE8F047FFF71ABC65
:1024400040F20C0041F20801C2F20000C4F20201A5
:102450000068096848F2EE62C1F30221C0F600028A
:10246000515C01F01F01C8407047000040F20C00B1
:1024700041F20801C2F20000C4F2020100680968DA
:1024800048F2EE62C1F3C221C0F60002515C01F0D5
:102490001F01C8407047000041F20C01C4F2020164
:1024A00051F8040C42F20042C0F2F40200F00C00B9
:1024B0000428104608BF704751F8040C00F00C00C7
:1024C000082843F20060C0F26E1025D051F8043C99
:1024D00003F00C030C2B1CBF0020704780B5D1F813
:1024E00000C00B680CF0030CC3F3031E0B680EF165
:1024F000010EBCF1030F08BF02460968B2FBFEF0F3
:10250000C3F30623C1F341610222584302EB4101A8
:10251000B0FBF1F0BDE8804070470000002804BF28
:10252000012070472DE9F04182B00446007841F265
:102530000006C007C4F202061ED1207880073DD4F1
:102540002078000764D42078400700F18780207845
:10255000800600F1D980E069002800F0C581B168EB
:1025600001F00C010C2940F03181012840F08481F8
:10257000012002B0BDE8F081B06800F00C01F06805
:10258000082961D0032281F00C0122EA00000844EE
:10259000B0FA80F0400957D16068B0F5803F07D0AD
:1025A000B0F5A02F40F0E480306840F48020306027
:1025B000306840F480303060E5E000BFB068F1681A
:1025C00000F00C00042871D001F0030180F00C0031
:1025D00081F002010844B0FA80F0400966D1E16858
:1025E0003068002900F0E08040F480703060FFF730
:1025F0001DFB05463068400500F1FE80FFF716FB25
:10260000401B0228F6D9032002B0BDE8F08100BFCC
:102610006169D6F89400002900F0948040F0010030
:10262000C6F89400FFF702FB054600BFD6F89400F9
:1026300080073FF588AFFFF7F9FA401B0228F5D96C
:10264000032002B0BDE8F081306880037FF575AFEC
:10265000606800287FF471AF3EE000BFB06D5FEAB4
:10266000C00808D4B06D40F08050B065B06D00F087
:1026700080500190019847F20007C4F200073868C3
:10268000C0052DD4386840F480703860FFF7CEFA6A
:10269000054600BF3868C00522D4FFF7C7FA401BC3
:1026A0000228F7D9032002B0BDE8F0813068400568
:1026B00001D5E06880B17068216920F0FE4040EAF1
:1026C0000160706040F20000C2F200000068FFF795
:1026D000D1FA00283FF434AF012002B0BDE8F08108
:1026E000A068012808D0052840F0A480D6F8900002
:1026F00040F00400C6F89000D6F8900040F00100C9
:10270000C6F89000A4E000BFA169D6F8980000299F
:1027100000F07A8040F00100C6F89800FFF786FAD2
:10272000054600BFD6F8980080073FF514AFFFF7C5
:102730007DFA401B02284FF00300F3D902B0BDE838
:10274000F08100BF20F00100C6F89400FFF76EFA98
:10275000054600BFD6F8940080077FF5F4AEFFF77A
:1027600065FA401B0228F5D9032002B0BDE8F081CC
:102770003168002821F480313160316821F48021F2
:10278000316000F0CF80FFF751FA054630688003D2
:102790003FF5D3AEFFF74AFA401B6428F6D9032071
:1027A00002B0BDE8F08100BF20F480703060FFF718
:1027B0003DFA0546306840057FF5C2AEFFF736FAB0
:1027C000401B02284FF00300F4D9B7E73168022814
:1027D00021F08071316040F08B80FFF727FA0546C9
:1027E0003068800140F1CA80FFF720FA401B0228C0
:1027F0004FF00300F4D9A1E77068216920F0FE4092
:1028000040EA016070609BE620F00100C6F8980085
:10281000FFF70CFA054600BFD6F8980080077FF551
:102820009AAEFFF703FA401B02284FF00300F3D9DA
:1028300084E700BFD6F89010002821F00101C6F807
:102840009010D6F8901021F00401C6F8901079D0BD
:10285000FFF7ECF9054641F2883700BFD6F8900043
:10286000800700F18180FFF7E1F9401BB842F5D9FC
:10287000032002B0BDE8F081F068216A00F0030295
:102880008A427FF429AF626A6FF00F0300F0F00113
:1028900003EB021291427FF41FAFA16A00F4FE42E3
:1028A000B2EB012F7FF418AFE16A00F07842B2EB8F
:1028B000C16F7FF411AF226B0023CFF6E07303EA00
:1028C000025200F4C001A2F5001291427FF404AF5D
:1028D000616B4FF07E4202EA016100F0C06001F1DD
:1028E0007E4188427FF4F8AE002002B0BDE8F0815E
:1028F000F0684FF6FF7120F00300F060F068CFF64B
:10290000EE610840F060FFF791F9044630688001FD
:10291000EAD5FFF78BF9001B02284FF00300F5D929
:102920000CE700BFFFF782F9054600BF306880035F
:102930007FF503AEFFF77AF9401B64284FF00300E0
:10294000F4D9FBE6FFF772F9054641F2883700BF7C
:10295000D6F89000800707D5FFF768F9401BB8420A
:102960004FF00300F4D9E9E6B8F1000F3FF5EFAD01
:10297000B06D20F08050B065E9E500BFF06848F226
:102980000C01C0F29F1104F1200700EA010C8ECF68
:102990006FF00F00D4E90C5400EB02100022CFF6C8
:1029A000E07241EA0C0102EA05520843A2F5001266
:1029B0004FF07E4540EA032005EA0465104305F127
:1029C0007E4540EAC7602843F060306840F0807080
:1029D0003060F06840F08070F060FFF727F904463F
:1029E000306880013FF580AFFFF720F9001B022817
:1029F0004FF00300F4D9A1E610B542F60400C4F28A
:102A0000000000684FEA1043C0F3042E00F03F0CB2
:102A1000C0F34234CB7081F801E081F802C00C7041
:102A200012B1002010BD00BFDCB2240904EB840405
:102A300003F00F0303EB4403020ACB704FEA1E13AB
:102A400043EA830302F00F0202EB43024A704FEAAB
:102A50001C1242EA820200F00F0000EB4200887074
:102A6000002010BD10B542F60000C4F200008368DB
:102A70004B6003696FF3DF338B600068C0F305437D
:102A8000C0F3062E00F07F0CC0F380540B7081F869
:102A900001E081F802C0CC7012B1002010BD00BF6F
:102AA000020C1B0943EA830302F00F0202EB43020C
:102AB000040A0A704FEA1E1202EB820204F00F03AE
:102AC00003EB42024A704FEA1C1202EB820200F052
:102AD0000F0000EB42008870002010BD002804BFEA
:102AE0000120704770B5044690F8250028B90020F1
:102AF00084F82400204600F057F842F60C06022025
:102B0000C4F2000684F82500CA20B0615320B061E9
:102B10003068400613D4306840F080003060FFF722
:102B200085F8316849060AD4054600BFFFF77EF8EC
:102B3000401BB0F57A7F2FD830684006F6D5F06894
:102B40004FF6BF71CFF68F310840F060231D226928
:102B50000BCB1043A269F56810432843F06043EAA9
:102B600001407060204604F0ADF918B1FF21B16159
:102B700070BD00BFF068D4E9071220F060406369BF
:102B8000104308431843F060FF20B061012084F82F
:102B90002500002070BD00BF032084F825003168A7
:102BA000FF21B16170BD0000006842F60001C4F26F
:102BB0000001884218BF704741F29000C4F2020041
:102BC000016841F400410160704700002DE9F043C5
:102BD00081B0044690F8240001284FF0020000F074
:102BE0009280012384F8243084F8250042B148788B
:102BF000CA7891F80290000240EA024845E000BF1E
:102C000048784FF0CD0CC20642BF00F0EF000A300A
:102C10004870CA7891F80290A2F10A07FEB206FB4A
:102C20000CF6F50AD3B205EB8505A7EB45070125A0
:102C3000092BA0F10A0305EBD62688BF47EA061246
:102C4000DFB207FB0CF7FE0A06EB8606A3EB460392
:102C500005EBD727092888BF43EA0710C0B2D2B2D4
:102C6000000240EA0248A9F10A02D3B203FB0CF3C6
:102C7000DF0A5FFA89F007EB8707A2EB470205EB53
:102C8000D323092888BF42EA031942F60C07C4F28D
:102C90000007CA200E78B8615320B8613868400632
:102CA00013D4386840F080003860FEF7BFFF396801
:102CB00049060AD4054600BFFEF7B8FF401BB0F531
:102CC0007A7F17D838684006F6D55FFA89F040EA6F
:102CD0000800710320F0C000084347F8080C2046A4
:102CE00004F0F0F8FF21B96150B9012084F8250003
:102CF000002005E0032084F825003968FF21B96130
:102D0000002184F8241001B0BDE8F0832DE9F047DC
:102D1000044690F8240001284FF0020008BFBDE8E7
:102D2000F087884642F60C050121C4F2000584F8BC
:102D3000241084F82500CA20A8615320A8612868BF
:102D40001646400614D4286840F080002860FEF73C
:102D50006DFF296849060BD4074600BFFEF766FFE2
:102D6000C01BB0F57A7F00F2978028684006F5D541
:102D7000E8683EB140060DD44FF0000988F8039092
:102D80000CE000BF400613D44FF0000988F8039010
:102D900012E000BF98F803004FEA805998F801202C
:102DA00098F8000098F80210120242EA004348E046
:102DB00098F803004FEA805998F800304FF0CD0C96
:102DC000A3F10A02D6B206FB0CF698F80170F00ADD
:102DD0004FF0010A5FFA83FE00EB80000AEBD62673
:102DE00098F80210A2EB4000BEF1090F88BF40EA3C
:102DF0000613A7F10A06F2B202FB0CF2D00A5FFA40
:102E000083FEFBB200EB80000AEBD222A6EB40006F
:102E1000092B88BF40EA0217A1F10A02F8B2D7B223
:102E200007FB0CF70002FE0A40EA0E43C8B206EBAD
:102E30008606A2EB46020AEBD727092888BF42EA9A
:102E40000711C8B2184347F67F7140EA0900C0F283
:102E50007F01084045F80C0CE86820F48020E86009
:102E6000D8E90301EA6808431043E860204604F00B
:102E700029F8FF21A96128B1002184F82410BDE8B8
:102E8000F08700BF012084F825000020002184F88D
:102E90002410BDE8F08700BF032084F825002968CE
:102EA000FF21A961002184F82410BDE8F08700000B
:102EB000411E0020B0EB116F1CBF012070474EF285
:102EC0001002CEF2000251604EF62351CEF2000104
:102ED000F0230B700721906011607047704700006D
:102EE0007047000070470000704700007047000006
:102EF0007047000090F83C20012A4FF002022ED0CB
:102F000010B580F83D20026843F20043D2F804E097
:102F1000D2F808C0C4F201039A4205D042F6004339
:102F2000C4F201039A4204D14C682EF4700344EABF
:102F3000030E4FF68F73CFF6FF530C6803EA0E03B0
:102F4000896823432CF08004214353609160012160
:102F5000002280F83D1080F83C20BDE8104010466B
:102F60007047000070470000002804BF0120704730
:102F700010B5044690F83D0028B9002084F83C00C4
:102F8000204600F00DF8022084F83D002068211D45
:102F900004F04CF8012084F83D00002010BD000032
:102FA00010B582B0006840F20041C4F200018842CE
:102FB00012D0B0F1804F29D141F25800C4F2020082
:102FC00001681C2441F001010160006800F001006B
:102FD000019001980EE000BF41F25800C4F20200D7
:102FE00001681D2441F002010160006800F0020048
:102FF00000900098204600210022FEF795FE204612
:1030000002B0BDE81040FEF77DBE00BF02B010BDAB
:1030100000680722C168C0F2010241F00101C160ED
:1030200081681140062902D0B1F5803F02D100200D
:10303000704700BF016841F0010101600020704746
:103040000146022081F83D00086841F21113026A2E
:103050001A4205D00122002081F83D20704700BFB0
:10306000026A44F244431A42F4D1026822F0010297
:1030700002600122002081F83D20704790F83C203A
:10308000012A4FF0020200F0B78080B580F83D20A1
:10309000D0F800C08822DCF80830CFF6CE721A4093
:1030A000CCF808200B686F2B22DD2F22C0F2100213
:1030B000934247DCB3F1101F56DA702B00F0C0804A
:1030C000B3F5005F40F09080D1E901E3C968DCF816
:1030D000082043EA0E0322F47F4243EA0121114310
:1030E000CCF80810DCF8081041F480417AE000BF09
:1030F0002F2B33DD4F2B3BDC302B69D0402B73D192
:10310000D1F804E0C968DCF82030DCF8202022F097
:103110000102CCF82020DCF8182022F0F00242EA6C
:10312000011123F00A0242EA0E02CCF81810CCF882
:103130002020DCF808104FF68872CFF6CF721140CD
:1031400047314FE05F21C0F210018B4236DC302165
:10315000C0F210018B423BD0402135E0C3B3102BAD
:1031600036D0202B34D03FE032D020212CE000BFDD
:10317000502B43D0602B37D1D1F804E0C968DCF87C
:10318000203023F01003CCF82030DCF81830DCF8C5
:10319000202023F4704322F0A00243EA013142EAE6
:1031A0000E12CCF81810CCF82020DCF808104FF6DE
:1031B0008872CFF6CF721140673113E06021C0F200
:1031C00010018B4204D07021C0F210018B420BD150
:1031D000DCF808104FF68872CFF6CF721140194311
:1031E00041F00701CCF808100121002280F83D10C1
:1031F00080F83C20BDE8804010467047D1F804E0DC
:10320000C968DCF82030DCF8202022F00102CCF87C
:103210002020DCF8182022F0F00242EA011123F00D
:103220000A0242EA0E02CCF81810CCF82020DCF892
:1032300008104FF68872CFF6CF7211405731D1E7A0
:10324000D1E901E3C968DCF8082043EA0E0322F45F
:103250007F4243EA01211143CCF80810DCF8081042
:1032600041F07701BEE700007047000010B501682B
:1032700004460869800744BFC8685FEA807061D46B
:103280000869400744BFC8685FEA407066D40869AF
:10329000000744BFC8685FEA00706DD40869C006C3
:1032A00044BFC8685FEAC06072D40869C0071CBF29
:1032B000C8685FEAC07079D10869000644BFC86871
:1032C0005FEA00607AD40869C00544BFC8685FEA55
:1032D000006000F17B800869400644BFC8685FEA6F
:1032E000406000F17B800869800644BFC8685FEADF
:1032F000806000F17B800869C00244BFC8685FEA53
:10330000C02000F17B800869800244BFC8685FEA82
:10331000802000F17B800869400244BFC8685FEAF2
:10332000402000F17B800869000246BFC8685FEA60
:10333000002010BD6FF4000220460A61BDE8104075
:10334000FFF710BE6FF00200086101202077886946
:1033500080076BD02046FFF787FF6DE06FF0040019
:10336000086102202077886910F4407F68D02046E9
:10337000FFF77AFF6AE000BF6FF0080008610420E1
:103380002077C869800765D02046FFF76DFF67E0AA
:103390006FF01000086108202077C86910F4407FA2
:1033A00062D02046FFF760FF64E000BF6FF00100CD
:1033B0000861204600F068F821687DE76FF0800022
:1033C00008612046FFF78CFD21687CE76FF4807070
:1033D00008612046FFF782FD21687CE76FF040001E
:1033E0000861204600F014F921687CE76FF02000A6
:1033F00008612046FFF776FD21687CE76FF48010B6
:1034000008612046FFF772FD21687CE76FF4001029
:1034100008612046FFF768FD21687CE76FF48000B3
:1034200008612046FFF764FD21687CE7204600F034
:1034300025F8204600F024F82168002020771FE7B7
:10344000204600F01BF8204600F01AF82168002002
:1034500020771CE7204600F011F8204600F010F815
:1034600021680020207719E7204600F007F8204661
:1034700000F006F821680020207716E7704700006A
:10348000704700000000000070B50546006840F27B
:103490000044B0F1804FC4F6000477D120460121EA
:1034A000FEF7B8FB40F22026C2F20006307020463C
:1034B0000221FEF7AFFBF07020460421FEF7AAFBC5
:1034C000B0714FF090400121FEF7A4FB717870724B
:1034D000022907D001290DD091B9317881B9012194
:1034E0000DE000BF317801290AD10121B17000211E
:1034F00005E000BF3178B1FA81F1490949007170E6
:10350000317959B101290DD0022911D1F178012960
:103510000ED101217171002109E000BFF17839B9A4
:10352000012104E0F178B1FA81F1490949003171D2
:10353000F17959B101290DD0022911D1B1790129AF
:103540000ED101213172002109E000BFB17939B9F2
:10355000012104E0B179B1FA81F149094900F17121
:10356000B17A49B101290BD0022908BF01280CD139
:103570000120F072002007E038B9012004E000BF0C
:10358000B0FA80F040094000B072286804F1784138
:10359000884218BF70BD40F23420C2F200000068BB
:1035A000FCF786FF044640F21C20C2F200000068CF
:1035B0000D46FCF77DFF9FED140B53EC102BFCF731
:1035C0006AFE22462B46FCF747FF78B940F22C24CE
:1035D000C2F20004207880F00100207000F024FD89
:1035E00021780120BDE87040FDF736BA01200121A5
:1035F000FDF732FA40F25010C2F20000BDE8704010
:10360000FFF71EBD00BF00BF6666666666660A40BD
:103610007047000090F87C10012904BF0220704719
:103620002421C0F8801002681168136823F0010398
:10363000136021F000530021416613602022C0F87E
:10364000802080F87C10084670470000704700001A
:1036500090F87C20012A04BF02207047B0B52422D4
:10366000C0F880200268D0F864E0D2F800C0136887
:10367000BEF1000F23F001031360936823F0606331
:1036800041EA0301916019D09368916849F6D80E18
:10369000490FC0F6000E49F6E0051EF80140C0F6DD
:1036A0000005695CC3F34263E400B4FBF1F11EF86A
:1036B0000340EB5CE500B5FBF3F301E001210123DE
:1036C000A0F86A102021A0F86830C2F800C0C0F845
:1036D0008010002180F87C10BDE8B040084670479B
:1036E00090F87C20012A04BF02207047B0B5242244
:1036F000C0F880200268D0F864E0D2F800C01368F7
:10370000BEF1000F23F001031360936823F06043C0
:1037100041EA0301916019D09368916849F6D80E87
:10372000490FC0F6000E49F6E0051EF80140C0F64C
:103730000005695CC3F34263E400B4FBF1F11EF8D9
:103740000340EB5CE500B5FBF3F301E0012101234D
:10375000A0F86A102021A0F86830C2F800C0C0F8B4
:103760008010002180F87C10BDE8B040084670470A
:1037700070470000704700007047000070B5016896
:103780000446CA690E688B6802F02F05202D09D106
:1037900006F0200503F08050401910D0E16E00299A
:1037A0004DD170BD5FEA027C09D00120C1F200005A
:1037B00003EA000E06F4907010EB0E0028D1D00240
:1037C0000AD513F4800007D04FF4801220460A6215
:1037D000BDE87040FFF7CEBF100605D506F08000AB
:1037E00003F40003C01827D150061BD516F0400083
:1037F00018D0086820F04000086020200021C4F89C
:10380000800020462167BDE8704000F00DBA00BF7F
:10381000D00718BF16F4807022D1900703F001057D
:103820002AD432E010020FD516F080400CD020468A
:10383000BDE87040FFF79CBF216F0029B1D0204642
:10384000BDE87040084700BFD001AAD5B6F1FF3FE0
:10385000C8BF70BD2046BDE87040FFF7F7BE00BF8F
:1038600001200862D4F8880040F00100C4F8880004
:10387000900703F0010508D53DB102200862D4F895
:10388000880040F00400C4F88800500708D53DB116
:1038900004200862D4F8880040F00200C4F88800D0
:1038A000BCF1000F0CD506F0200050EA0E0007D046
:1038B00008200862D4F8880040F00800C4F88800A6
:1038C000D4F8880000283FF46CAF90060AD506F0C3
:1038D000200003F08052801804D0E26E12B120461E
:1038E00090472168D4F888008A6800F0080002F048
:1038F0004002801806D12046FFF73EFF0020C4F8A2
:10390000880070BD08684FF6FE7220F49070086061
:103910008868CEF6FF72104088602020C4F88400CA
:103920000020E0668868400614D5886820F04000D2
:103930008860A06F70B147F2B521C0F600018163C5
:10394000FEF74CF800283FF42CAFA06F816BBDE868
:10395000704008472046BDE87040FFF70DBF0000EB
:1039600010B5A8B10446D0F8800028B9002084F82A
:103970007C00204600F026F82420C4F8800020684F
:10398000016821F001010160204603F0A1FD08B1AA
:10399000012010BDA06A10B1204603F0D1FB2168C0
:1039A000486820F490404860886820F02A008860C9
:1039B000086840F0010220460A60BDE8104003F0AC
:1039C00035BC0000006843F60001C4F201018842E2
:1039D00018BF704780B586B041F24C00C4F20200B7
:1039E000416941F480414161416901F480410191A3
:1039F0000199016841F001010160006801A900F02E
:103A00000100019001984FF4C060019002200290E3
:103A10000020CDE90300072005904FF09040FEF70D
:103A200031F8252000210022FEF77EF92520FEF73F
:103A300069F906B0BDE8804070470000D0F88430D6
:103A4000202B0BD100294FF0010318BF002A01D110
:103A50001846704790F87C30012B01D10220704746
:103A600010B58165A0F85C20A0F85E20D0F808E0D1
:103A7000BEF1000F0AD0BEF1805F0BD0BEF5805FB3
:103A80000CD1036923B940F2FF130AE003693BB983
:103A9000FF2306E003691BB13F2302E0002300E09F
:103AA0007F23A0F860300023C0F888302223C0F8BC
:103AB0008430D0F800C0416E634653F8084FB1F12E
:103AC000005F44F001041C6003D1B0F8681091421B
:103AD00010D9BEF5805F01D10169A9B147F2C931A2
:103AE000C0F60001C166002180F87C104FF4907090
:103AF00063461FE0BEF5805F01D1016951B147F215
:103B00002541C0F6000109E047F2C521C0F60001D9
:103B1000E8E700BF47F22131C0F60001C16600218D
:103B200080F87C10DCF8000040F48070CCF80000D5
:103B30004FF080501968084318600023BDE810401A
:103B400018467047006843F60001C4F2010188423C
:103B500018BF704740F21801C2F200014878421CB9
:103B60004A7001EB000C11F8023F40F29010C2F2D3
:103B7000000001228CF81C30FFF760BFD0F88030C5
:103B8000202B0BD100294FF0010318BF002A01D1CF
:103B90001846704790F87C30012B03D10223184659
:103BA000704700BF01650021A0F85420A0F85620FE
:103BB000C0F888102121C0F88010426E8168B2F1EF
:103BC000005F09D1B1F5805F01D1016971B147F69C
:103BD0002521C0F600010DE0B1F5805F01D101693A
:103BE00091B147F6E911C0F6000111E047F68111E5
:103BF000C0F6000102680167002180F87C1002F124
:103C000008004FF4000109E047F64111C0F6000139
:103C10000167002180F87C10006880210268114350
:103C2000016000207047000070470000FEE70000C0
:103C300080B586B000200590C02001900120CDE91C
:103C400002000220049040F20040C4F6000001A9E6
:103C5000FDF718FF06B080BD2DE9F04385B040F2B6
:103C60002846C4F600060120A6F1280400254FF0DE
:103C7000800802904FF00209694620460495CDE97C
:103C80000085CDF80C90FDF7FDFE3068802140F0F6
:103C90004000306056F8100C40F0400046F8100C20
:103CA0002046FDF7B7FF3168013841F0400131602F
:103CB00056F8101CB0FA80F0470941F0400046F871
:103CC000100C20468021FDF7A5FF3168013841F036
:103CD00040013160B0FA80F056F8101C400940EA0B
:103CE000470741F0400046F8100C20468021FDF7C0
:103CF00091FF3168013841F040013160B0FA80F045
:103D000056F8101C4009BA0042EA400741F0400052
:103D100046F8100C20468021FDF77CFF3168013801
:103D200041F040013160B0FA80F056F8101C4009B3
:103D3000074441F0400046F8100C20468021FDF772
:103D400069FF3168013841F040013160B0FA80F01C
:103D500056F8101C4009BA0042EA400741F0400002
:103D600046F8100C20468021FDF754FF31680138D9
:103D700041F040013160B0FA80F056F8101C400963
:103D8000074441F0400046F8100C20468021FDF722
:103D900041FF3168013841F040013160B0FA80F0F4
:103DA00056F8101C4009BA0042EA400741F04000B2
:103DB00046F8100C20468021FDF72CFF0138B0FAA0
:103DC00080F031684009074441F040003060112024
:103DD00001A981E82102694620460495CDF80080BA
:103DE000FDF750FEF8B205B0BDE8F08340F228417F
:103DF000C4F600010A6843B2A1F1100C42F040027F
:103E0000B3F1FF3F63460A60C4BF40F22843C4F6E3
:103E100000031A6842F080021A6051F8102C42F038
:103E2000400241F8102C0A6842F040020A60420643
:103E300062465CBF40F22842C4F60002136843F0B9
:103E40008003136051F8102C42F0400241F8102C0E
:103E50000A6842F040020A60820662465CBF40F295
:103E60002842C4F60002136843F08003136051F83F
:103E7000102C42F0400241F8102C0A6842F0400237
:103E80000A60C20662465CBF40F22842C4F60002E5
:103E9000136843F08003136051F8102C42F0400285
:103EA00041F8102C0A6842F040020A60020762469C
:103EB0005CBF40F22842C4F60002136843F080035E
:103EC000136051F8102C42F0400241F8102C0A689F
:103ED00042F040020A60420762465CBF40F228425C
:103EE000C4F60002136843F08003136051F8102CED
:103EF00042F0400241F8102C0A6842F040020A6089
:103F0000820762465CBF40F22842C4F60002136892
:103F1000C00743F08003136051F8102C42F04002B8
:103F200041F8102C0A6842F040020A6004BF40F2D7
:103F3000284CC4F6000CDCF8000040F08000CCF8FF
:103F4000000051F8100C40F0400041F8100C0868D7
:103F500040F04000086070472DE9F04186B040F223
:103F60000044C4F60004012000254FF080080390AF
:103F7000022701A920460595CDE901850497FDF7A3
:103F800081FDA069802140F04000A0612046FDF73E
:103F900041FE012834D120468021FDF73BFE012857
:103FA0002ED120468021FDF735FE012828D120465C
:103FB0008021FDF72FFE012822D120468021802676
:103FC000FDF728FE01281BD1002011210590CDE925
:103FD00002100220049001A920460196FDF752FD2F
:103FE000A06A012540F04000A062A06A40F0800075
:103FF000A06254F8180F40F0400020600CE000BFB1
:10400000112002A9A1C101A920460595CDF804807F
:10401000FDF738FD28344026206840EA060128468E
:10402000216006B0BDE8F08110B540F60044C4F64A
:104030000004A4F580604FF47F410122FDF7F0FDFC
:10404000204604210122FDF7EBFD20460421002239
:10405000BDE81040FDF7E4BD2DE9F04F85B040F21A
:104060002027C2F20007B878012806D140F21000DC
:10407000C2F2000000210170B970787940F22E2858
:104080000128C2F2000806D198F80000013088F833
:10409000000000207871387A012840F27400C2F2E2
:1040A000000007D0F97A01290CD005B0BDE8F04F27
:1040B000FCF732BD01780131017000213972F97AC3
:1040C0000129F2D10078AB214143490A01EB4101BA
:1040D000401AC0B240F2780A40F22F2940F22D2B4C
:1040E0000128C2F2000AC2F20009C2F2000B09D094
:1040F00090B99AF80000172814BF013000208AF800
:10410000000011E09BF800003B2814BF01300020A4
:104110008BF8000008E000BF99F800003B2814BFAE
:104120000130002089F800009AF8000040F21804DD
:10413000C2F2000404F8080F9BF8000099F8001080
:10414000607040F2E800A170C2F200002146002237
:10415000FEF7DCFD40F23420C2F200000068FCF7FC
:10416000A7F9054640F21C20C2F2000000680E4686
:10417000FCF79EF941EC100B9AF800009BF8001038
:1041800002AB99F8002007C3343449F6FF01C0F6AA
:10419000000120462A4633468DED000B03F0FCFD5E
:1041A00040F29010C2F2000021461E22FFF7E6FC0A
:1041B00098F80000013088F800000020F87205B07F
:1041C000BDE8F04FFCF7A8BC40F21841C4F600016E
:1041D0000A6942F400720A610A6942F480720A6153
:1041E0000A6842F020020A602022C1F8FC230A6912
:1041F00042F020020A6100BF00BF00BF0A6842F01F
:1042000020020A600A6842F480720A600022C1F843
:10421000FC230B6943F020030B6100BF00BF00BF0C
:104220000B6843F020030B600B6843F480730B6052
:104230000B6943F400730B610B6943F480730B61EA
:104240000B6843F020030B602123C1F8FC330B699A
:1042500043F020030B6100BF00BF00BF0B6843F0B9
:1042600020030B600B6843F480730B60C1F8FC23E0
:104270000A6942F020020A6100BF00BF00BF0A685D
:1042800042F020020A600A6842F480720A600A69F9
:1042900042F400720A610A6942F480720A610A6893
:1042A00042F020020A602222C1F8FC230A6942F08F
:1042B00020020A6100BF00BF00BF0A6842F020026E
:1042C0000A600A6842F480720A6000BF00BF00BF43
:1042D0000A6842F400720A604FF496320B69053A9C
:1042E00043F400730B610B6843F480730B600B683D
:1042F00043F020030B60C1F8FC030B6943F020037B
:104300000B6100BF00BF00BF0B6843F020030B60D0
:104310000B6843F480730B6000BF00BF00BF0B68E5
:1043200043F400730B600B6943F400730B610B687B
:1043300043F480730B600B6843F020030B60C1F8FB
:10434000FC030B6943F020030B6100BF00BF00BFFB
:104350000B6843F020030B600B6843F480730B6021
:1043600000BF00BF00BF0B6843F400730B600B6914
:1043700043F400730B610B6843F480730B600B68AC
:1043800043F020030B60C1F8FC030B6943F02003EA
:104390000B6100BF00BF00BF0B6843F020030B6040
:1043A0000B6843F480730B6000BF00BF00BF0B6855
:1043B00043F400730B600B6943F400730B610B68EB
:1043C00043F480730B600B6843F020030B60C1F86B
:1043D000FC030B6943F020030B6100BF00BF00BF6B
:1043E0000B6843F020030B600B6843F480730B6091
:1043F00000BF00BF00BF0B6843F400730B600B6984
:1044000043F400730B610B6843F480730B600B681B
:1044100043F020030B60C1F8FC030B6943F0200359
:104420000B6100BF00BF00BF0B6843F020030B60AF
:104430000B6843F480730B6000BF00BF00BF0B68C4
:1044400043F400730B607FF449AF7047B0B548F296
:10445000F665C0F6000540F23F112A46044600F01A
:104460008BF8204640F22F112A4600F085F82046AE
:1044700040F21F112A4600F07FF8204640F20F114B
:104480002A4600F079F82046FF212A4600F074F809
:104490002046EF212A4600F06FF82046DF212A4609
:1044A00000F06AF82046CF212A4600F065F8204641
:1044B000BF212A4600F060F82046AF212A4600F0CE
:1044C0005BF820469F212A4600F056F820468F21AF
:1044D0002A4600F051F820467F212A4600F04CF889
:1044E00020466F212A4600F047F820465F212A46E1
:1044F00000F042F820464F212A4600F03DF82046C1
:104500003F212A4600F038F820462F212A4600F0A5
:1045100033F820461F212A4600F02EF820460F21AE
:104520002A46BDE8B04000F027B800000A78002A0B
:1045300008BF70472DE9F04148F2F66804464D1C6B
:10454000002740F23F16C0F6000800BFA2F120008D
:10455000C1B2490051FA80F008EB0012B1B2204616
:1045600000F00AF8EA5D22B1103E132F07F10107AF
:10457000ECD3BDE8F04170472DE9F04740F2184315
:10458000C4F600031F694FF0200C47F400771F6149
:104590001F694FF0210E47F480771F611F6840F2BA
:1045A000080947F020071F60C3F8FCC31F6940F2E9
:1045B000720A47F020071F6100BF00BF00BF1F68DD
:1045C0004FF0220847F020071F601F68C2F2000961
:1045D00047F480771F60C3F8FC031F69C2F2000A2A
:1045E00047F020071F6100BF00BF00BF1F6847F0F2
:1045F00020071F601F6847F480771F601F6947F41A
:1046000000771F611F6947F480771F611F6847F0BB
:1046100020071F60C3F8FCE31C6944F020041C6100
:1046200000BF00BF00BF1C6844F020041C601C6871
:1046300044F480741C60C3F8FC131C6944F020042B
:104640001C6100BF00BF00BF1C6844F020041C6058
:104650001C6844F480741C60002400BF1D6945F48C
:1046600000751D611D6945F480751D611D6845F06B
:1046700020051D60C3F8FC831D6945F020051D6100
:1046800000BF00BF00BF1D6845F020051D601D680C
:1046900045F480751D6000BF00BF00BF1D6845F474
:1046A00000751D60002500BF32F81460EE40F6076B
:1046B000564608BF4E4636881F6947F400771F618B
:1046C0001F6847F480771F601F6847F020071F604E
:1046D000C3F8FC631E696F1C46F020061E6100BF14
:1046E00000BF00BF1E6846F020061E601E6846F42C
:1046F00080761E6000BF00BF00BF1E6846F40076D3
:104700001E6032F81460FE40F607564608BF4E465B
:1047100036881F6947F400771F611F6847F4807768
:104720001F601F6847F020071F60C3F8FC631E6905
:10473000AF1C46F020061E6100BF00BF00BF1E6810
:1047400046F020061E601E6846F480761E6000BF9C
:1047500000BF00BF1E6846F400761E6032F8146089
:10476000FE40F607564608BF4E4636881F6947F496
:1047700000771F611F6847F480771F601F6847F04C
:1047800020071F60C3F8FC631E69EF1C46F020067B
:104790001E6100BF00BF00BF1E68043546F0200642
:1047A0001E601E6846F480761E6000BF00BF00BF1A
:1047B0001E6846F400761E6032F81460FE40F6076C
:1047C000564608BF4E4636881F69102D47F40077BD
:1047D0001F611F6847F480771F601F6847F020073C
:1047E0001F60C3F8FC631E6946F020061E6100BF0F
:1047F00000BF00BF1E6846F020061E601E6846F41B
:1048000080761E6000BF00BF00BF1E6846F40076C1
:104810001E607FF449AF1D69013045F400751D61CC
:104820001D69013445F480751D611D68182C45F023
:1048300020051D60C3F8FCC31D6945F020051D61FE
:1048400000BF00BF00BF1D6845F020051D601D684A
:1048500045F480751D60C5B2C3F8FC531D6945F071
:1048600020051D6100BF00BF00BF1D6845F0200589
:104870001D601D6845F480751D601D6945F4007557
:104880001D611D6945F480751D611D6845F0200599
:104890001D60C3F8FCE31D6945F020051D6100BFE4
:1048A00000BF00BF1D6845F020051D601D6845F470
:1048B00080751D60C3F8FC131D6945F020051D615E
:1048C00000BF00BF00BF1D6845F020051D601D68CA
:1048D00045F480751D6008BFBDE8F087BEE60000A6
:1048E0002DE9F04F8BB0002641F24C000596C4F242
:1048F0000200016840F2184541F0040101600168BE
:10490000C4F6000501F0040106910699016801ACA6
:1049100041F001010160016840F6140901F0010154
:10492000069106990168C4F6000941F00201016090
:104930000068214600F00200069006984FF4487087
:10494000019001200290A5F118000127CDE903662E
:10495000FDF798F84FF48070CDE901074FF09040D3
:104960002146CDE90366FDF78DF84FF6FF7005F59A
:104970007A7406904FF0030806A920460A964FF66F
:10498000FF7B0797CDE90868FDF77CF84FF6004AF2
:10499000CFF6FF7A55F80A0006A940F4807045F872
:1049A0000A0028684FF6FF7740F4087028602869ED
:1049B00040F400702861286940F4807028612868FC
:1049C00040F020002860C9F80060286940F020000D
:1049D000286100BF00BF00BF286840F020002860A9
:1049E000286840F48070286020460A96CDF818B0F8
:1049F000CDF82480CDE90766FDF744F84FF6104B5B
:104A0000CFF6FF7B55F80B0007A940F4807045F8FE
:104A10000B0000BF00BF00BFD5F8F89355F80A009F
:104A200040F4807045F80A00012081E8410106A9A0
:104A300020460A960697FDF725F8286848F23021A7
:104A400040F40070286040F27600C2F20000A0F846
:104A500000900088884203D100F030FA02E000BFE5
:104A600000F0A0FF2869002640F400702861286942
:104A70004FF6FF7840F48070286128684FF00309F2
:104A800040F02000286040F61400C4F600000660E4
:104A9000286906A940F02000286100BF00BF00BFC0
:104AA000286840F020002860286840F48070286062
:104AB00020460A96CDE90686CDE90869FCF7E2FFB3
:104AC00055F80B0007A940F4807045F80B0000BFB3
:104AD00000BF00BFD5F8F87355F80A0040F48070A5
:104AE00045F80A00012081E8410206A920460A96FD
:104AF000CDF81880FCF7C6FF286840F400702860E5
:104B000040F27600C2F2000007800BB0BDE8F08FE3
:104B100081B0ADF80200BDF8020040F20801C2F217
:104B20000001088001B0704781B0ADF80200BDF807
:104B3000020040F27201C2F20001088001B0704729
:104B4000B0B588B040F27C0040F200110024C2F2FF
:104B50000000C5F200010425C0E900140121CDE9DF
:104B60000644C0E90244C0E90444856184830162CB
:104B700080F82440C0E90B4480F83840C46380F8D2
:104B80004040FCF7E1FC002818BFFCF717FB48F297
:104B90000000C3F6F06000900620CDE901047F20FC
:104BA000CDE9030540F27C00C2F20000694605949D
:104BB000FCF706FB002818BFFCF700FB08B0B0BDEF
:104BC0002DE9F04387B04FF0000841F24C00CDF8DA
:104BD0001880C4F20200016840F6000541F00401AB
:104BE00001600168C4F6000501F00401019101991A
:104BF0000168012241F02001016001684FF47F4605
:104C000001F02001019101990168012741F00101A2
:104C10000160016801F0010101910199016841F011
:104C200002010160016801F002010191019901682E
:104C300041F00801016000684FF47F4100F0080076
:104C4000019001982846FCF7EBFF05F580642046AB
:104C5000042100224FF00409FCF7E2FF02A880E8DB
:104C6000C00102AE28463146CDF81480FCF70AFF99
:104C70004FF090403146CDE902780497FCF702FFEF
:104C80000720CDE90208A5F5806031460497FCF7BE
:104C9000F9FE20463146CDE90297CDE90488FCF7BC
:104CA000F1FE07B0BDE8F08310B586B040F2E80031
:104CB00042F600010024C2F20000C4F200017D228D
:104CC0004FF0804CC0E9001400F10801CDE9024426
:104CD000CDE9004441F270731CC1C0E90544C0E94C
:104CE00007C4FDF7FBFE002818BFFCF767FA40F287
:104CF000E800C2F2000001A90122ADF804408DF8DD
:104D000006400294CDE90444FEF700F8002818BFDD
:104D1000FCF754FA40F20110C0F20100009040F29A
:104D2000E800C2F2000069460122FDF74FFF0028AB
:104D300018BFFCF743FA06B010BD000080B588B07C
:104D400040F210100021C2F200004FF080424F23C9
:104D500042F20F7C0791CDE905110291C0E90023D1
:104D6000C0E9021C01618161FEF7FEF8002818BF4E
:104D7000FCF724FA4FF48050049040F21010C2F275
:104D8000000004A9FEF77AF9002818BFFCF716FA0C
:104D900000200190039040F21010C2F2000001A91F
:104DA000FEF7A8F8002818BFFCF708FA08B080BD85
:104DB00080B588B040F2501040F200420021C2F2AB
:104DC0000000C4F2000241F63F7340F2CF7C07912D
:104DD000CDE905110291C0E90023C0E9021C01617F
:104DE0008161FEF7C1F8002818BFFCF7E7F94FF41E
:104DF0008050049040F25010C2F2000004A9FEF767
:104E00003DF9002818BFFCF7D9F900200190039064
:104E100040F25010C2F2000001A9FEF76BF8002822
:104E200018BFFCF7CBF908B080BD000080B540F298
:104E3000901043F60001C2F20000C4F20101002309
:104E40004FF00C0C4FF4165280E80E00C0E903330B
:104E5000C0E905C3C0E90733C0E90933FEF780FDA7
:104E6000002818BFFCF7AAF940F29010C2F2000027
:104E70000021FEF735FC002818BFFCF79FF940F22F
:104E80009010C2F200000021FEF7E2FB002818BFDC
:104E9000FCF794F940F29010C2F20000FEF7BAFB62
:104EA000002808BF80BDBDE88040FCF787B900003E
:104EB000FEE70000704700007047000040F2184015
:104EC000C4F600000169002241F40071016101692A
:104ED0004FF0030C41F480710161016841F0200141
:104EE0000160C0F8FC23016941F02001016100BFAD
:104EF00000BF00BF016841F020010160016841F47A
:104F0000807101600121C0F8FC13036943F02003A4
:104F1000036100BF00BF00BF036843F020030360CC
:104F2000036843F480730360036943F4007303610F
:104F3000036943F480730361036843F02003036053
:104F4000C0F8FC13036943F02003036100BF00BFF6
:104F500000BF036843F020030360036843F48073D9
:104F60000360C0F8FC23026942F02002026100BF26
:104F700000BF00BF026842F020020260026842F4F3
:104F800080720260026942F400720261026942F4B6
:104F900080720261026842F0200202601022C0F8B2
:104FA000FC23026942F02002026100BF00BF00BF83
:104FB000026842F020020260026842F480720260DD
:104FC00041F29072C0F8FC23026942F020020261B3
:104FD00000BF00BF00BF026842F02002026002680A
:104FE00042F480720260026942F400720261026956
:104FF00042F480720261026842F020020260602284
:10500000C0F8FC23026942F02002026100BF00BF29
:1050100000BF026842F020020260026842F480721F
:1050200002604FF41C52C0F8FC23026942F02002D7
:10503000026100BF00BF00BF026842F020020260B0
:10504000026842F480720260026942F400720261F6
:10505000026942F480720261026842F0200202603A
:105060006122C0F8FC23026942F02002026100BF05
:1050700000BF00BF026842F020020260026842F4F2
:1050800080720260C0F8FC13016941F020010161E7
:1050900000BF00BF00BF016841F02001016001684E
:1050A00041F480710160016941F40071016101699D
:1050B00041F480710161016841F0200101604621E5
:1050C000C0F8FC13016941F02001016100BF00BF7D
:1050D00000BF016841F020010160016841F4807166
:1050E00001600221C0F8FC13026942F02002026153
:1050F00000BF00BF00BF026842F0200202600268E9
:1051000042F480720260026942F400720261026934
:1051100042F480720261026842F0200202601322AF
:10512000C0F8FC23026942F02002026100BF00BF08
:1051300000BF026842F020020260026842F48072FE
:10514000026048F21002C0F8FC23026942F020021B
:10515000026100BF00BF00BF026842F0200202608F
:10516000026842F480720260026942F400720261D5
:10517000026942F480720261026842F02002026019
:105180001222C0F8FC23026942F02002026100BF33
:1051900000BF00BF026842F020020260026842F4D1
:1051A0008072026048F2FE02C0F8FC23026942F0FD
:1051B0002002026100BF00BF00BF026842F020026F
:1051C0000260026842F480720260026942F4007276
:1051D0000261026942F480720261026842F02002B8
:1051E0000260C0F8FC13016941F02001016100BFB9
:1051F00000BF00BF016841F020010160016841F477
:10520000807101604FF4A061C0F8FC13016941F0A6
:105210002001016100BF00BF00BF016841F0200113
:105220000160016841F480710160016941F400711D
:105230000161016941F480710161016841F020015F
:105240000160C0F8FCC3026942F02002026100BFA5
:1052500000BF00BF026842F020020260026842F410
:105260008072026041F23002C0F8FC23026942F011
:105270002002026100BF00BF00BF026842F02002AE
:105280000260026842F480720260026942F40072B5
:105290000261026942F480720261026842F02002F7
:1052A00002603022C0F8FC23026942F02002026151
:1052B00000BF00BF00BF026842F020020260026827
:1052C00042F48072026040F20332C0F8FC230369AA
:1052D00043F02003036100BF00BF00BF036843F039
:1052E00020030360036843F480730360036943F49D
:1052F00000730361036943F480730361036843F03F
:10530000200303603123C0F8FC33036943F020031A
:10531000036100BF00BF00BF036843F020030360C8
:10532000036843F480730360C0F8FC23036943F00F
:105330002003036100BF00BF00BF036843F02003E8
:105340000360036843F480730360036943F40073EC
:105350000361036943F480730361036843F020032E
:1053600003603223C0F8FC33036943F02003036178
:1053700000BF00BF00BF036843F020030360036861
:1053800043F480730360C0F8FC23036943F02003F7
:10539000036100BF00BF00BF036843F02003036048
:1053A000036843F480730360036943F4007303618B
:1053B000036943F480730361036843F020030360CF
:1053C0003323C0F8FC33036943F02003036100BFBB
:1053D00000BF00BF036843F020030360036843F489
:1053E000807303604FF44073C0F8FC33016941F0EF
:1053F0002001016100BF00BF00BF016841F0200132
:105400000160016841F480710160016941F400713B
:105410000161016941F480710161016841F020017D
:1054200001603421C0F8FC13016941F020010161E1
:1054300000BF00BF00BF016841F0200101600168AA
:1054400041F480710160C0F8FCC3016941F02001A2
:10545000016100BF00BF00BF016841F02001016091
:10546000016841F480710160016941F400710161DA
:10547000016941F480710161016841F0200101601E
:105480003521C0F8FC13016941F02001016100BF22
:1054900000BF00BF016841F020010160016841F4D4
:1054A00080710160C0F8FC23016941F020010161B5
:1054B00000BF00BF00BF016841F02001016001682A
:1054C00041F480710160016941F400710161016979
:1054D00041F480710161016841F0200101603621D1
:1054E000C0F8FC13016941F02001016100BF00BF59
:1054F00000BF016841F020010160016841F4807142
:1055000001601421C0F8FC13016941F02001016120
:1055100000BF00BF00BF016841F0200101600168C9
:1055200041F480710160016941F400710161016918
:1055300041F480710161016841F02001016037216F
:10554000C0F8FC13016941F02001016100BF00BFF8
:1055500000BF016841F020010160016841F48071E1
:105560000160C0F8FC23016941F02001016100BF26
:1055700000BF00BF016841F020010160016841F4F3
:1055800080710160016941F400710161016941F4B8
:1055900080710161016841F0200101603821C0F88B
:1055A000FC13016941F02001016100BF00BF00BF91
:1055B000016841F020010160016841F480710160DF
:1055C000C0F8FC23016941F02001016100BF00BF68
:1055D00000BF016841F020010160016841F4807161
:1055E0000160016941F400710161016941F4807158
:1055F0000161016841F0200101603921C0F8FC130C
:10560000016941F02001016100BF00BF00BF0168D6
:1056100041F020010160016841F480710160C0F82F
:10562000FC23016941F02001016100BF00BF00BF00
:10563000016841F020010160016841F4807101605E
:10564000016941F400710161016941F480710161F6
:10565000016841F0200101603A21C0F8FC130169A2
:1056600041F02001016100BF00BF00BF016841F0AF
:1056700020010160016841F480710160C0F8FC33D1
:10568000016941F02001016100BF00BF00BF016856
:1056900041F020010160016841F4807101600169FD
:1056A00041F400710161016941F480710161016897
:1056B00041F0200101603B21C0F8FC13016941F079
:1056C0002001016100BF00BF00BF016841F020015F
:1056D0000160016841F480710160C0F8FCC3016998
:1056E00041F02001016100BF00BF00BF016841F02F
:1056F00020010160016841F480710160016941F499
:1057000000710161016941F480710161016841F03A
:10571000200101603C21C0F8FC13016941F0200127
:10572000016100BF00BF00BF016841F020010160BE
:10573000016841F480710160C0F8FC23016941F007
:105740002001016100BF00BF00BF016841F02001DE
:105750000160016841F480710160016941F40071E8
:105760000161016941F480710161016841F020012A
:1057700001603D21C0F8FC13016941F02001016185
:1057800000BF00BF00BF016841F020010160016857
:1057900041F4807101604FF4A051C0F8FC1301691D
:1057A00041F02001016100BF00BF00BF016841F06E
:1057B00020010160016841F480710160016941F4D8
:1057C00000710161016941F480710161016841F07A
:1057D000200101609221C0F8FC13016941F0200111
:1057E000016100BF00BF00BF016841F020010160FE
:1057F000016841F4807101604FF40071C0F8FC133E
:10580000016941F02001016100BF00BF00BF0168D4
:1058100041F020010160016841F48071016001697B
:1058200041F400710161016941F480710161016815
:1058300041F0200101609321C0F8FC13016941F09F
:105840002001016100BF00BF00BF016841F02001DD
:105850000160016841F480710160C0F8FC230169B6
:1058600041F02001016100BF00BF00BF016841F0AD
:1058700020010160016841F480710160016941F417
:1058800000710161016941F480710161016841F0B9
:10589000200101609021C0F8FC13016941F0200152
:1058A000016100BF00BF00BF016841F0200101603D
:1058B000016841F48071016040F60D01C0F8FC13ED
:1058C000016941F02001016100BF00BF00BF016814
:1058D00041F020010160016841F4807101600169BB
:1058E00041F400710161016941F480710161016855
:1058F00041F020010160C0F8FCC3016941F02001C2
:10590000016100BF00BF00BF016841F020010160DC
:10591000016841F48071016041F21801C0F8FC1384
:10592000016941F02001016100BF00BF00BF0168B3
:1059300041F020010160016841F48071016001695A
:1059400041F400710161016941F4807101610168F4
:1059500041F0200101600721C0F8FC13016941F00A
:105960002001016100BF00BF00BF016841F02001BC
:105970000160016841F48071016040F27311C0F868
:10598000FC13016941F02001016100BF00BF00BFAD
:10599000016841F020010160016841F480710160FB
:1059A000704700002DE9F04F81B040F21844C4F672
:1059B000000420694FF0120940F400702061206952
:1059C000002540F4807020612068112640F02000FE
:1059D0002060E320C4F8FC0320694FF0130B40F073
:1059E0002000206100BF00BF00BF2068102740F0EA
:1059F0002000206020684FF0070840F4807020608D
:105A000043F20800C4F8FC03206940F02000206144
:105A100000BF00BF00BF206840F020002060206869
:105A200040F480702060206940F40070206120699B
:105A300040F480702061206840F020002060E72062
:105A4000C4F8FC03206940F02000206100BF00BFC3
:105A500000BF206840F020002060206840F4807083
:105A60002060C4F8FC93206940F02000206100BF52
:105A700000BF00BF206840F020002060206840F494
:105A800080702060206940F400702061206940F43B
:105A900080702061206840F020002060EF20C4F872
:105AA000FC03206940F02000206100BF00BF00BF60
:105AB000206840F020002060206840F48070206062
:105AC00041F23120C4F8FC03206940F0200020613D
:105AD00000BF00BF00BF206840F0200020602068A9
