:020000040800F2
:1000000020070020ED010008BD450008013200086E
:10001000B945000841030008296D000800000000F0
:10002000000000000000000000000000CD65000896
:100030004503000800000000C1450008D165000824
:10004000070200080702000807020008070200086C
:10005000070200080702000807020008070200085C
:10006000070200080702000807020008070200084C
:10007000070200080702000807020008070200083C
:10008000070200080000000007020008070200083D
:10009000070200080702000807020008070200081C
:1000A000070200080702000807020008070200080C
:1000B000F1650008FD6500080966000807020008F0
:1000C00007020008070200080702000807020008EC
:1000D000070200081D6D000807020008070200085B
:1000E00007020008070200080702000807020008CC
:1000F00007020008070200080702000800000000CD
:1001000000000000070200080000000007020008CD
:1001100007020008000000000702000807020008AC
:10012000070200080702000807020008070200088B
:10013000070200080000000000000000070200089D
:10014000070200080702000800000000000000008D
:10015000000000000000000000000000000000009F
:10016000000000000000000000000000070200087E
:10017000070200080000000000000000000000006E
:10018000000000000702000800000000000000005E
:10019000000000000000000000000000000000005F
:1001A000000000000000000007020008070200082D
:1001B000070200080702000807020008000000000C
:1001C000000000000702000800000000000000001E
:1001D0000702000807020008DFF80CD000F098F8CA
:1001E0000048004759710008200700200648804752
:1001F00006480047FEE7FEE7FEE7FEE7FEE7FEE70C
:10020000FEE7FEE7FEE7FEE7D5650008D901000836
:100210002DE9F05F0546002092469B46884606463B
:10022000814640241BE0284641464746224600F0CE
:100230005EF853465A46C01A914110D311461846EB
:10024000224600F045F82D1A67EB01084F4622467A
:100250000120002100F03CF817EB00094E41201E60
:10026000A4F10104DFDC484631462A464346BDE896
:10027000F09FD2B201E000F8012B491EFBD270477B
:100280000022F6E710B513460A4604461946FFF762
:10029000F0FF204610BD421C10F8011B0029FBD1C5
:1002A000801A704730B50B460146002020220124F9
:1002B00009E021FA02F59D4205D303FA02F5491B34
:1002C00004FA02F52844151EA2F10102F1DC30BD4A
:1002D000202A04DB203A00FA02F100207047914006
:1002E000C2F1200320FA03F3194390407047202AFB
:1002F00004DB203A21FA02F00021704721FA02F3D0
:10030000D040C2F1200291400843194670470000D6
:100310001CB509480090094801900546009C06E07C
:10032000E06840F0010394E8070098471034AC42BD
:10033000F6D3FFF755FF0000E487000804880008A3
:10034000FEE70000704700007047000090F858205A
:10035000012A04BF022070470268B2F1A04F09D001
:10036000C16D41F02001C1650121002280F85820B3
:100370000846704770B540F208324FF6006C4FF6F1
:100380000055C5F20002CFF6FF7CCFF6FF7552F89C
:100390000C40535923435B071ED4D1F800E0136887
:1003A000BEF1000F23F460441CD04B6890F8386015
:1003B00043EA463323431360535952F80C603343E6
:1003C000DB071BD1136840F61F768968B3431943D6
:1003D00041EA0E0111E000BFC16D41F02001C1658D
:1003E00001210CE01460515952F80C301943C9072F
:1003F00004D1116840F61F73994311600021BDE8D4
:100400007040002280F8582008467047F0B581B04F
:100410000022009290F85820012A03D102210846B8
:1004200001B0F0BD0123076880F85830BB685B0756
:1004300034D4D1E900351F26C5F3012407EB840429
:10044000226B05F01F05AE40C3F38463B243AB409B
:100450001A432263BA68BB6802F0040203F008037F
:10046000D21840F0BC800A6807F114030426C2F3D6
:100470004064D1F808E006EAD25C53F82440C2F3A5
:1004800004550722AA40BEF1004F24EA02040BD112
:1004900043F80C401A6842F000430DE0C16D41F092
:1004A0002001C16501216AE10EFA05F2224343F8F9
:1004B0000C201A6822F000437B61D1E90435FC6806
:1004C000042B5FD13A6E3A6E0B68C2F3846293FAE2
:1004D000A3F6C3F3846C6FF3DF43B6FA86F5002B03
:1004E0002C464FF6FF7E08BF6446A242C0F2070EBC
:1004F0000CD13A6E22F000423A660A6802EA0E0314
:10050000C2F3846C92FAA2F2B2FA82F57A6E7A6E33
:10051000002BC2F384622C4608BF6446A2420CD171
:100520007A6E22F000427A660A6802EA0E03C2F38B
:10053000846C92FAA2F2B2FA82F5BA6EBA6E002B0D
:10054000C2F384622C4608BF6446A2420CD1BA6E44
:1005500022F00042BA660A6802EA0E03C2F3846C13
:1005600092FAA2F2B2FA82F5FA6EFA6E002BC2F398
:10057000846208BF6546AA4231D1FA6E22F0004279
:10058000FA662CE0062202EA940205FA02FC0E68E2
:1005900007F1600555F823404FF20002C0F2FF3228
:1005A00006F0F846224046EA0C06324342F000428A
:1005B00045F823200A698B6955F8226026F0807679
:1005C000334345F822300A690B7F55F82260012B2E
:1005D00026F0007608BF06F1007645F82260BA687A
:1005E0000D68D20744D1CA68D7F8B0602B466FF3C4
:1005F000DF4326EA030C4FF6FF7602F01804C0F240
:100600000706E64000242E40C4F27F0446EA0C06AA
:10061000A242C7F8B0602BD195FAA5F2B2FA82F2E5
:10062000002B08BFC5F38462013202F01E0302F002
:100630001F0201260025964002EB4202CFF62065FC
:1006400005EB0255354345F000750A2B38BF46EAE5
:100650000255C5F3406307EB83038A685E69C5F3FF
:1006600004550724AC40A643AA4032435A610D68A2
:100670000021C8F208010D4200F0808040F2083CE1
:10068000C5F2000CDCF800400021CCF221318D4293
:1006900004F0E07E04D01021C9F2C0018D423FD1A8
:1006A000B7F1A04F4FF0000108BF14F4000266D16B
:1006B000DCF8001042F6635221F0E07141EA0E01CD
:1006C00041F40001CCF8001040F20C01C2F200012C
:1006D0000968C0F23E528909A1FB0212910901EB9F
:1006E0004101890000910099002947D00099013902
:1006F00000910099002941D0009901390091009999
:10070000E1B30099013900910099B9B30099013919
:100710000091009900294FF00001E7D12FE000BFC0
:100720000021CCF252718D4210D10021B1EB1E6F2D
:100730000CD1ACF502718F4220D0DCF8001021F012
:10074000E07141EA0E0141F0807115E0ACF50271F3
:100750008F424FF0000112D00022CCF68432954235
:1007600008BF14F480020AD1DCF8001021F0E07117
:1007700041EA0E0141F48001CCF800100021002272
:1007800080F85820084601B0F0BD0000B0B582B036
:100790000446002001904CB1E06D58B12168886892
:1007A000800012D48868C00019D548E0012002B04A
:1007B000B0BD00BF204600F00BF90020206684F891
:1007C0005800216888688000ECD588684FF6C072B0
:1007D000C5F6FF72104088608868C0002FD44FF6BD
:1007E000C0728868C5F6FF7202F18052104000F1B5
:1007F0008050886040F20C00C2F20000006842F6AF
:1008000063528009C0F23E52A0FB0202900901909F
:100810000198A0B1019801380190019878B1019830
:1008200001380190019850B1019801380190019868
:1008300028B101980138019001980028EAD1886810
:10084000C00009D4E06D40F01000E065206E40F07B
:1008500001002066012000E000208A68E36D02F0BC
:10086000040203F01003D218E26D77D122F48172F2
:100870000232E2658A68D2071AD140F2083C4FF68C
:1008800000534FF60062C5F2000CCFF6FF73CFF6AF
:10089000FF725CF803305CF802201A43D20707D1DC
:1008A0006268DCF8003023F47C131A43CCF8002093
:1008B00094F81DE0E36BD4E902C243EA4E331A43D5
:1008C00094F8243042EA0C02012B42EA034207D199
:1008D000D4F828C00023CFF6FE7303EB4C431A4331
:1008E000E36A33B1D4F830C003F4787343EA0C03FD
:1008F0001A43D1F80CC044F20703CFF6F07303EAB1
:100900000C031A43CA600A69636B22F040621A43FF
:100910000A618A688B6802F0040203F00803D218A7
:1009200045D194F83820237F520042EA833CCB68BB
:1009300044F2020223EA020242EA0C02CA6022697D
:100940000B698AB143F480330B61D1F8C0C043F620
:10095000FF732CEA03031A430EE000BF42F01001BC
:100960000120E16502B0B0BD23F480320A61D1F804
:10097000C02043F6FF739A43C1F8C02094F840307A
:100980000A69012B10D140F2FD7322EA030CD4E96D
:100990001132D4E913E543EA0C031A4342EA0E028A
:1009A0002A4342F0010201E022F001020A61626979
:1009B0000B6B012A23F00F0202D1236A013B1A4379
:1009C0000A63E16D012262F30101E16502B0B0BD8D
:1009D00080B586B0006840F20011C5F2000188427F
:1009E0004FF000010591CDE90311CDE9011123D0AC
:1009F000B0F1A04F4CD140F23001C2F200010A68C0
:100A000041F24C00C4F20200531C0B6042B9016871
:100A100041F400510160016801F400510091009916
:100A2000016841F002010160006800F002000090DE
:100A300000984FF480501FE040F23001C2F20001F4
:100A40000A6841F24C00C4F20200531C0B6042B928
:100A5000016841F400510160016801F40051009106
:100A60000099016841F002010160006800F0020095
:100A7000009000984FF40040019003200290002065
:100A8000039040F20040C4F6000001A900F056F8BF
:100A900006B080BD90F82510022931D180B50168DB
:100AA000D0E910CE826C0B6823F00E030B600B684C
:100AB00023F001030B60116821F4807111600EF0C6
:100AC0001F02012101FA02F2CCF80420D0E913320E
:100AD0005A60426D32B1136823F480731360D0E919
:100AE0001623536080F82510826B002180F82410B3
:100AF0000AB190470021BDE880400846704700BF1A
:100B00000421C1630121002280F8251080F82420EF
:100B100008467047B0B5044600F0E4F8054640F2D8
:100B20000000C2F200004068611C18BF044400BF0E
:100B300000F0D8F8401BA042FAD3B0BD0A68002AE2
:100B400008BF70472DE9F04F82B041F2004500F137
:100B500038478605C4F60005062340F2004E46EAF3
:100B60009724A84208BF0523C4F2010E052C38BF04
:100B7000234600244FF0010B00260027009309E0D4
:100B80000A68013732FA07F306F1040604F1020499
:100B900000F098800BFA07F912EA0908F0D04A68C9
:100BA00042F01005122D13D16FF0030202EA570232
:100BB0000244D2F820A006F01C030F25D1F810C083
:100BC0009D402AEA05050CFA03F32B4313624A6899
:100BD00003680325A5406FEA050AAB4302F003054D
:100BE000A5402B43122A036012D80BFA02F313F02C
:100BF000061F0DD08368CD6803EA0A03A5402B4386
:100C000083604368150923EA0903BD402B43436011
:100C1000C3688D6803EA0A03A5402B43D200C36072
:100C2000AED541F26003C4F202031A684FF60849D8
:100C300042F001021A601A68CFF6FF7902F0010251
:100C40000192019A27F00302724452F809C006F09B
:100C50000C050F23AB402CEA030C009B03FA05F5AF
:100C600045EA0C0342F80930DEF800C04B684CEA54
:100C70000805DA0358BF2CEA0805CEF80050DEF864
:100C800004C09A034CEA080558BF2CEA0805CEF8C0
:100C90000450DEF808C0DA024CEA080558BF2CEA16
:100CA000080540F20C4CCEF80850C4F2010CDCF8F8
:100CB00000209B0242EA080558BF22EA0805CCF84A
:100CC00000505DE702B0BDE8F04F70470069084092
:100CD00018BF0120704700001823002A08BF2823EE
:100CE000C150704740F21C30C2F2000000687047EB
:100CF00040F2000040F21C31C2F20000C2F20001DA
:100D000040680A68104408607047000080B50320FE
:100D100000F092F8002000F009F800281CBF012024
:100D200080BD00F029F8002080BD000070B540F2C1
:100D30000006C2F200067168E1B1044640F20C0000
:100D4000C2F200004FF47A720068B2FBF1F1B0FB1E
:100D5000F1F000F0ADFE0F2C4FF0010508D838B9C6
:100D60004FF0FF3021460022002500F039F83460B2
:100D7000284670BD012070BD82B041F25800C4F217
:100D80000200816841F001018160816801F0010188
:100D900001910199016841F080510160006800F003
:100DA00080500090009847F20800C4F200000168EB
:100DB00021F48041016002B070470000002848BF64
:100DC000704700F01F01012202FA01F11C2202EA21
:100DD000D0004EF20012CEF20002815070470000A7
:100DE00010B54EF60C5CCEF2000CDCF80030C3F30C
:100DF000022E8EF00704042C28BF0424BEF1030346
:100E00004FF0FF3E0EFA04F438BF0023A14399408F
:100E10000EFA03F39A43114300F00F0200F160430E
:100E20000901043A03F564436244002848BF02F113
:100E30000C03197010BD00004EF60C51CEF20001EB
:100E40000A684FF6FF031A4060F30A2242F08060FE
:100E500040F0FD7008607047B0F5007F42D0002878
:100E600040F0808047F21400C4F2000050F8141CD7
:100E7000C26E01F4C06122F48072B1F5806FC26667
:100E80002ED150F8141C012262F34A2140F8141CA0
:100E900040F20C01C2F200010968322251434DF6C2
:100EA0008362C4F21B32A1FB0212910C026852054C
:100EB00011D54A1C0FD0026852050CD559B10268F1
:100EC000520508D5012906D00268520503D502292A
:100ED000A1F10401EAD10068400544BF0320704736
:100EE0000020704747F21400C4F2000050F8141CB0
:100EF000C26E01F4C06142F48072B1F5806FC266C7
:100F0000EED150F8141C012262F34A2140F8141C5F
:100F100040F20C01C2F200010968322251434DF641
:100F20008362C4F21B32A1FB0212910C02685205CB
:100F300011D54A1C0FD0026852050CD559B1026870
:100F4000520508D5012906D00268520503D50229A9
:100F5000A1F10401EAD10068400544BF03207047B5
:100F6000BEE700BF47F21400C4F2000050F8141CA2
:100F7000022262F34A2140F8141C0020704700004E
:100F80002DE9F04182B00446807841F288060007DE
:100F9000C4F2020602D400202FE000BF56F8300C45
:100FA0005FEAC0080BD456F8300C40F0805046F889
:100FB000300C56F8300C00F080500190019847F248
:100FC0000007C4F20007386840F480703860FFF70B
:100FD00089FE05463868C00500F1D680FFF782FE1D
:100FE000401B0228F6D90320B8F1000F05D456F8AB
:100FF000301C21F0805146F8301C2168CA0713D1FB
:101000008A0719D44A071FD40A0725D48A062BD485
:101010004A0631D40A0637D4CA053DD48A0543D4DA
:101020004A0549D457E000BF3268636822F00302E2
:101030001A4332608A07E5D53268A36822F00C02B1
:101040001A4332604A07DFD53268E36822F0300283
:101050001A4332600A07D9D53268236922F0C002E8
:101060001A4332608A06D3D53268636922F440623B
:101070001A4332604A06CDD53268A36922F4405241
:101080001A4332600A06C7D53268E36922F4404247
:101090001A433260CA05C1D53268236A22F440324D
:1010A0001A4332608A05BBD53268636A22F4402253
:1010B0001A4332604A050ED53268A36A22F4401200
:1010C0001A43B3F5801F326005D156F87C2C42F4E8
:1010D000801246F87C2C0A050ED53268E36A22F4A9
:1010E00040021A43B3F5800F326005D156F87C2CCC
:1010F00042F4801246F87C2CCA040ED53268236B69
:1011000022F040721A43B3F1807F326005D156F865
:101110007C2C42F4801246F87C2C8A040ED532686E
:10112000636B22F040621A43B3F1006F326005D165
:1011300056F87C2C42F4801246F87C2C4A040ED5DA
:101140003268A36B22F040621A43B3F1006F326041
:1011500005D156F87C2C42F4801246F87C2C090408
:101160000ED53168E26B21F040511143B2F1805F3E
:10117000316005D156F87C1C41F4803146F87C1C66
:1011800002B0BDE8F08100BFB06810F4407010D02C
:10119000216C88420BD0B068B16820F4407041F4F3
:1011A0008031B160B16821F48031B160B060C007B6
:1011B0000CD1B068216C20F440700843B06000206E
:1011C000B8F1000F3FF519AF11E700BFFFF78AFD37
:1011D000054641F2883700BFB0688007E9D4FFF7C1
:1011E00081FD401BB842F7D9FDE600002DE9F0472C
:1011F000002865D042F2000AC4F2020A0446DAF876
:1012000000000D4600F00F0088420CD2DAF8000012
:1012100020F00F002843CAF80000DAF8000000F0C0
:101220000F00A8424CD1216841F20808C807C4F257
:10123000020803D1880740F1D480B9E06068022831
:101240003AD0032840D158F8082C920138D5D8F864
:101250000420D8F8043042F20046C3F3031302F02E
:101260000302D8F804700133C0F2F406032A04BF65
:1012700043F20066C0F26E16B6FBF3F2D8F8043003
:10128000C7F306277A43C3F34163022707EB4303FF
:10129000B2FBF3F24BF20043C0F2C4439A425DD971
:1012A000D8F8002012F0F00F4DD0890756D5A1686C
:1012B000002953D147E000BF58F8081C890307D420
:1012C0000120BDE8F08700BF58F8081C4905F7D594
:1012D000D8F8001001F00C0104293FD0D8F8001014
:1012E00001F00C01082939D0D8F8001001F00C01E8
:1012F0000C2933D1D8F80410D8F8042042F2004762
:10130000C2F3031201F00301D8F804300132C0F235
:10131000F407032904BF43F20067C0F26E17B7FB5E
:10132000F2F1D8F80420C3F306235943C2F3416213
:10133000022303EB4202B1FBF2F14BF20042C0F296
:10134000C44291420AD9D8F80010082262F307116A
:101350004FF00109C8F8001002E000BF4FF000098B
:10136000D8F8001021F003010843C8F80000FFF787
:10137000B9FC064641F28837D8F80000616800F0F1
:101380000C00B0EB810F07D0FFF7ACFC801BB8421C
:10139000F2D90320BDE8F0872168880708D4B9F1A5
:1013A000000F1ED0D8F8000020F0F00017E000BFBA
:1013B000480705D5D8F8000040F4E060C8F8000000
:1013C000080706D5D8F80000072262F30D20C8F8F8
:1013D0000000D8F80000A26820F0F0001043C8F820
:1013E0000000DAF8000000F00F00A8421BD9DAF87C
:1013F000000020F00F002843CAF80000FFF772FC3D
:10140000064641F2883700BFDAF8000000F00F000E
:10141000A84207D0FFF766FC801BB842F4D903202E
:10142000BDE8F0872168480707D5D8F80000E268D2
:1014300020F4E0601043C8F80000080708D5D8F889
:101440000000216920F4605040EAC100C8F80000A3
:10145000D8F8000042F20041C0F2F40100F00C00A4
:10146000042808462DD0D8F8000000F00C00082809
:1014700043F20060C0F26E1023D0D8F8002002F0D2
:101480000C020C2A1CD1D8F80420D8F8043002F041
:101490000302C3F30313D8F804700133032A08BF0F
:1014A0000146B1FBF3F0D8F80410C7F30627C1F3E7
:1014B00041610222784302EB4101B0FBF1F000E010
:1014C0000020D8F8001047F2DA52C1F30311C0F639
:1014D0000002515C40F20C0201F01F0120FA01F100
:1014E00040F20000C2F200000068C2F20002116087
:1014F000BDE8F047FFF71ABC40F20C0041F20801CA
:10150000C2F20000C4F202010068096847F2EA5220
:10151000C1F30221C0F60002515C01F01F01C84076
:101520007047000040F20C0041F20801C2F20000D6
:10153000C4F202010068096847F2EA52C1F3C2210D
:10154000C0F60002515C01F01F01C8407047000066
:1015500041F20C01C4F2020151F8040C42F20042C3
:10156000C0F2F40200F00C000428104608BF7047D7
:1015700051F8040C00F00C00082843F20060C0F29F
:101580006E1025D051F8043C03F00C030C2B1CBF4B
:101590000020704780B5D1F800C00B680CF0030C38
:1015A000C3F3031E0B680EF1010EBCF1030F08BF5D
:1015B00002460968B2FBFEF0C3F30623C1F34161A2
:1015C0000222584302EB4101B0FBF1F0BDE880403C
:1015D00070470000002804BF012070472DE9F0414A
:1015E00082B00446007841F20006C007C4F2020649
:1015F0001ED1207880073DD42078000764D420785D
:10160000400700F187802078800600F1D980E069EA
:10161000002800F0C581B16801F00C010C2940F0F0
:101620003181012840F08481012002B0BDE8F081C1
:10163000B06800F00C01F068082961D0032281F045
:101640000C0122EA00000844B0FA80F0400957D1AA
:101650006068B0F5803F07D0B0F5A02F40F0E4807F
:10166000306840F480203060306840F48030306072
:10167000E5E000BFB068F16800F00C00042871D00C
:1016800001F0030180F00C0081F002010844B0FA7F
:1016900080F0400966D1E1683068002900F0E08000
:1016A00040F480703060FFF71DFB05463068400550
:1016B00000F1FE80FFF716FB401B0228F6D903203D
:1016C00002B0BDE8F08100BF6169D6F8940000293E
:1016D00000F0948040F00100C6F89400FFF702FB90
:1016E000054600BFD6F8940080073FF588AFFFF7A6
:1016F000F9FA401B0228F5D9032002B0BDE8F081B9
:10170000306880037FF575AF606800287FF471AFA3
:101710003EE000BFB06D5FEAC00808D4B06D40F095
:101720008050B065B06D00F080500190019847F294
:101730000007C4F200073868C0052DD4386840F4AB
:1017400080703860FFF7CEFA054600BF3868C005E4
:1017500022D4FFF7C7FA401B0228F7D9032002B0B2
:10176000BDE8F0813068400501D5E06880B170685F
:10177000216920F0FE4040EA0160706040F2000004
:10178000C2F200000068FFF7D1FA00283FF434AF3E
:10179000012002B0BDE8F081A068012808D005282A
:1017A00040F0A480D6F8900040F00400C6F8900005
:1017B000D6F8900040F00100C6F89000A4E000BF09
:1017C000A169D6F89800002900F07A8040F0010065
:1017D000C6F89800FFF786FA054600BFD6F89800CD
:1017E00080073FF514AFFFF77DFA401B02284FF04A
:1017F0000300F3D902B0BDE8F08100BF20F0010082
:10180000C6F89400FFF76EFA054600BFD6F89400BC
:1018100080077FF5F4AEFFF765FA401B0228F5D983
:10182000032002B0BDE8F0813168002821F4803146
:101830003160316821F48021316000F0CF80FFF702
:1018400051FA0546306880033FF5D3AEFFF74AFAF8
:10185000401B6428F6D9032002B0BDE8F08100BF28
:1018600020F480703060FFF73DFA0546306840058F
:101870007FF5C2AEFFF736FA401B02284FF0030097
:10188000F4D9B7E73168022821F08071316040F067
:101890008B80FFF727FA05463068800140F1CA8047
:1018A000FFF720FA401B02284FF00300F4D9A1E70C
:1018B0007068216920F0FE4040EA016070609BE69C
:1018C00020F00100C6F89800FFF70CFA054600BFAB
:1018D000D6F8980080077FF59AAEFFF703FA401B11
:1018E00002284FF00300F3D984E700BFD6F8901028
:1018F000002821F00101C6F89010D6F8901021F0D0
:101900000401C6F8901079D0FFF7ECF9054641F2D2
:10191000883700BFD6F89000800700F18180FFF77C
:10192000E1F9401BB842F5D9032002B0BDE8F081CF
:10193000F068216A00F003028A427FF429AF626AEC
:101940006FF00F0300F0F00103EB021291427FF4FD
:101950001FAFA16A00F4FE42B2EB012F7FF418AF73
:10196000E16A00F07842B2EBC16F7FF411AF226BF5
:101970000023CFF6E07303EA025200F4C001A2F59F
:10198000001291427FF404AF616B4FF07E4202EA95
:10199000016100F0C06001F17E4188427FF4F8AE41
:1019A000002002B0BDE8F081F0684FF6FF7120F032
:1019B0000300F060F068CFF6EE610840F060FFF7DA
:1019C00091F9044630688001EAD5FFF78BF9001BD6
:1019D00002284FF00300F5D90CE700BFFFF782F9AA
:1019E000054600BF306880037FF503AEFFF77AF944
:1019F000401B64284FF00300F4D9FBE6FFF772F9AF
:101A0000054641F2883700BFD6F89000800707D519
:101A1000FFF768F9401BB8424FF00300F4D9E9E63C
:101A2000B8F1000F3FF5EFADB06D20F08050B0651C
:101A3000E9E500BFF06848F20C01C0F29F1104F123
:101A4000200700EA010C8ECF6FF00F00D4E90C5490
:101A500000EB02100022CFF6E07241EA0C0102EA2C
:101A600005520843A2F500124FF07E4540EA0320DC
:101A700005EA0465104305F17E4540EAC760284346
:101A8000F060306840F080703060F06840F0807046
:101A9000F060FFF727F90446306880013FF580AF1A
:101AA000FFF720F9001B02284FF00300F4D9A1E64C
:101AB000411E0020B0EB116F1CBF012070474EF299
:101AC0001002CEF2000251604EF62351CEF2000118
:101AD000F0230B7007219060116070477047000081
:101AE000704700007047000090F83C20012A04BFB6
:101AF00002207047F0B5D1E90232D1E900CE22F4DC
:101B00007C5223F470531A4348F2FF73CFF6F073FC
:101B100003EA0E0342EA030E0A692CF477234EEA25
:101B2000030C22F476224B6942EA0C021A430B6B37
:101B300022F4742C23F470238A6943EA0C0343EAE9
:101B40000243026843F2004EC4F2010E42F6004C1A
:101B50007245C4F2010C01D0624503D1CC6923F077
:101B600080532343724501D0624517D101F120060D
:101B7000002770CECFF6F04723F07C7307EA0656B5
:101B8000334324F000742343724543EA050301D034
:101B9000624503D1C96A23F000530B43002153640B
:101BA00080F83C10BDE8F0400846704770470000E0
:101BB000704700007047000090F83C20012A4FF069
:101BC00002022ED010B580F83D20026843F2004397
:101BD000D2F804E0D2F808C0C4F201039A4205D05A
:101BE00042F60043C4F201039A4204D14C682EF439
:101BF000700344EA030E4FF68F73CFF6FF530C6861
:101C000003EA0E03896823432CF0800421435360C8
:101C100091600121002280F83D1080F83C20BDE851
:101C2000104010467047000070470000002804BFB5
:101C30000120704710B5044690F83D0028B90020F7
:101C400084F83C00204600F00DF8022084F83D00A6
:101C50002068211D04F0DEFC012084F83D000020F6
:101C600010BD000080B586B0006840F2FF71C4F27C
:101C7000000188424FF000010591CDE90311CDE943
:101C800001111DDD40F60001C4F20001884253D06D
:101C900044F20041C4F20101884265D044F60001DB
:101CA000C4F2010188426CD141F25800C4F2020032
:101CB000816841F480218160806800F480205EE0CA
:101CC000B0F1804F60D040F20041C4F20001884280
:101CD00057D141F25800C4F20200016841F00201FC
:101CE0000160016801F002010091009950F80C1C9C
:101CF00041F0020140F80C1C50F80C0C002100F0DF
:101D0000020000900098102001900220029005909F
:101D100040F20040CDE90311C4F6000001A9FEF72E
:101D20000DFF1D2000210022FFF75AF81D20FFF7AC
:101D300045F806B080BD00BF41F25800C4F2020071
:101D40000168002241F0040101600068002100F0F8
:101D50000400009000981E20FFF742F81E2006B0F5
:101D6000BDE88040FFF72AB841F25800C4F20200F3
:101D7000816841F400318160806800F40030009097
:101D8000009806B080BD00BF41F25800C4F20200C6
:101D9000016841F001010160016801F00101009159
:101DA000009950F80C1C41F0010140F80C1C50F84F
:101DB0000C0C01A900F00100009000984FF40040C5
:101DC0000190022002900020CDE90300012005903F
:101DD0004FF09040FEF7B2FE1C2000210022FEF7DB
:101DE000FFFF1C20FEF7EAFF06B080BD0068072257
:101DF000C168C0F2010241F00101C1608168114077
:101E0000062902D0B1F5803F02D10020704700BF03
:101E1000016841F0010101600020704790F83C200A
:101E2000012A4FF0020200F0B78080B580F83D2013
:101E3000D0F800C08822DCF80830CFF6CE721A4005
:101E4000CCF808200B686F2B22DD2F22C0F2100285
:101E5000934247DCB3F1101F56DA702B00F0C080BC
:101E6000B3F5005F40F09080D1E901E3C968DCF888
:101E7000082043EA0E0322F47F4243EA0121114382
:101E8000CCF80810DCF8081041F480417AE000BF7B
:101E90002F2B33DD4F2B3BDC302B69D0402B73D104
:101EA000D1F804E0C968DCF82030DCF8202022F00A
:101EB0000102CCF82020DCF8182022F0F00242EADF
:101EC000011123F00A0242EA0E02CCF81810CCF8F5
:101ED0002020DCF808104FF68872CFF6CF72114040
:101EE00047314FE05F21C0F210018B4236DC3021D8
:101EF000C0F210018B423BD0402135E0C3B3102B20
:101F000036D0202B34D03FE032D020212CE000BF4F
:101F1000502B43D0602B37D1D1F804E0C968DCF8EE
:101F2000203023F01003CCF82030DCF81830DCF837
:101F3000202023F4704322F0A00243EA013142EA58
:101F40000E12CCF81810CCF82020DCF808104FF650
:101F50008872CFF6CF721140673113E06021C0F272
:101F600010018B4204D07021C0F210018B420BD1C2
:101F7000DCF808104FF68872CFF6CF721140194383
:101F800041F00701CCF808100121002280F83D1033
:101F900080F83C20BDE8804010467047D1F804E04E
:101FA000C968DCF82030DCF8202022F00102CCF8EF
:101FB0002020DCF8182022F0F00242EA011123F080
:101FC0000A0242EA0E02CCF81810CCF82020DCF805
:101FD00008104FF68872CFF6CF7211405731D1E713
:101FE000D1E901E3C968DCF8082043EA0E0322F4D2
:101FF0007F4243EA01211143CCF80810DCF80810B5
:1020000041F07701BEE7000070B504460068B0F10A
:10201000804F26D120460021002500F0DBFD40F254
:102020001006C2F2000630602046002100F0D2FD0A
:102030002168B0604D62316844F24022C0F20F0264
:10204000B0FBF1F0B2FBF1F264214843B0612046ED
:102050000021326100F01CF92046042100F018F93B
:10206000206840F20041C4F20001884218BF70BDF0
:1020700020460021002500F0ADFD40F21006C2F21E
:10208000000670602046042100F0A4FD2168F06085
:102090004D62716844F24022C0F20F02B0FBF1F0D1
:1020A000B2FBF1F264214843F061204600217261E5
:1020B00000F0EEF820460421BDE8704000F0E8B8DA
:1020C00090F83C30012B4FF0020300F0BD80F0B5DA
:1020D000082A80F83D3025D0042A43D0002A5FD159
:1020E0000368D1E900C5D1F80CE01A6A42F6FF375F
:1020F00022F001021A621A4652F8186F1C6AC4F2E2
:102100000107BB4272DCB3F1804F00F0818040F2E6
:102110000047C4F20007BB427AD040F60007C4F281
:10212000000773E00768D1E900C5D1E902313A6AD6
:1021300061F3071522F480723A623A4652F81C4F56
:102140003E6A24F0F30445EA040126F420660CF00C
:102150000A0546EA052611603E62116821F00C016D
:10216000116066E00368D1E900E6D1E902C11A6AAC
:10217000360222F010021A621A4652F8184F4FF235
:10218000FF071D6ABE4324F4734461F30F3646EA29
:10219000040125F0A0040EF00A0744EA07171CE02A
:1021A0000368D1E900E6D1E902C11A6A360222F4D5
:1021B00080521A621A4652F81C4F4FF2FF071D6AEE
:1021C000BE4324F4734461F30F3646EA040125F458
:1021D00020440EF00A0744EA073711601F621168B5
:1021E0004FEA0C2321F44061116022E042F60047DF
:1021F000C4F20107BB420BD044F20007C4F201074E
:10220000BB4205D043F20047C4F20107BB421DD1D7
:1022100026F00306354324F00A070CF00A066EF395
:10222000071537449D611F629F6927F00C079F6166
:102230008B681168194311600121002380F83D105B
:1022400080F83C30BDE8F0401846704746F0010584
:10225000E1E70000002804BF0120704710B50446E4
:1022600090F83D0028B9002084F83C00204600F09A
:102270000DF8022084F83D002068211D04F0CAF901
:10228000012084F83D00002010BD000070470000D0
:10229000006801F01F010122036A02FA01F123EA3A
:1022A00001020262026A1143016281680722C0F2E0
:1022B00001021140062902D0B1F5803F02D1002071
:1022C000704700BF016841F00101016000207047C4
:1022D0004FEAB102032A09D8DFE802F0020A101619
:1022E0000068C26842F0020212E000BF006810E01D
:1022F0000068C26842F004020AE000BF0068C268D9
:1023000042F0080204E000BF0068C26842F0100218
:10231000C26001F01F010122036A02FA01F123EAFF
:1023200001020262026A1143016281680722C0F25F
:1023300001021140062902D0B1F5803F02D10020F0
:10234000704700BF016841F0010101600020704743
:1023500010B5016804460869800744BFC8685FEA91
:10236000807061D40869400744BFC8685FEA407064
:1023700066D40869000744BFC8685FEA00706DD47E
:102380000869C00644BFC8685FEAC06072D40869C3
:10239000C0071CBFC8685FEAC07079D10869000631
:1023A00044BFC8685FEA00607AD40869C00544BFCA
:1023B000C8685FEA006000F17B800869400644BF9E
:1023C000C8685FEA406000F17B800869800644BF0E
:1023D000C8685FEA806000F17B800869C00244BF82
:1023E000C8685FEAC02000F17B800869800244BFB2
:1023F000C8685FEA802000F17B800869400244BF22
:10240000C8685FEA402000F17B800869000246BF8F
:10241000C8685FEA002010BD6FF4000220460A6120
:10242000BDE81040FFF700BC6FF00200086101201A
:102430002077886980076BD02046FFF7E5FD6DE0C7
:102440006FF00400086102202077886910F4407F53
:1024500068D02046FFF7D8FD6AE000BF6FF00800A3
:10246000086104202077C869800765D02046FFF7FF
:10247000CBFD67E06FF01000086108202077C86985
:1024800010F4407F62D02046FFF7BEFD64E000BF3D
:102490006FF001000861204600F0AAFA21687DE78C
:1024A0006FF0800008612046FFF71AFB21687CE787
:1024B0006FF4807008612046FFF710FB21687CE70D
:1024C0006FF040000861204600F09EFB21687CE729
:1024D0006FF0200008612046FFF704FB21687CE7CD
:1024E0006FF4801008612046FFF762FB21687CE7EB
:1024F0006FF4001008612046FFF758FB21687CE765
:102500006FF4800008612046FFF754FB21687CE7E8
:10251000204600F025F8204600F02EFA2168002021
:1025200020771FE7204600F01BF8204600F024FA31
:102530002168002020771CE7204600F011F8204693
:1025400000F01AFA21680020207719E7204600F0F1
:1025500007F8204600F010FA21680020207716E7DF
:102560007047000090F83C30012B4FF0020300F060
:10257000E2814FEAB202052A80F83D3000F2D581AF
:102580002DE9F041DFE812F006005400A800FC003D
:1025900050018E0103681A6AA3F1804622F00102FD
:1025A0001A621D6A1A46A6F596369F05D3F804C02E
:1025B00052F818EF47EA96268F68D1F8008025F088
:1025C0000205072E45EA07050AD80127B74017F08C
:1025D000E50F1FBFCF6825F00C0527F004073D432A
:1025E000072E0CD8012707FA06F616F0E50F1FBFD5
:1025F000D1E905672CF44074264346EA070C4FF6F0
:102600008C74CFF6FE740EEA040747EA0807C3F895
:1026100004C09F614F6809695F631D629F6947F04D
:1026200008079F619F6927F004079F6178E100BF59
:10263000036843F200461A6AC4F2010622F010024F
:102640001A621D6A1A46D3F804C052F8188FB342B2
:102650008E68D1F800E025F0200545EA061505D082
:1026600042F60046C4F20106B34207D1CE686FF0CD
:10267000400725F0C00507EA06163543A3F180465A
:10268000A6F596369F0547EA9626072E0CD8012711
:1026900007FA06F616F0E50F1FBFD1E905672CF41F
:1026A0004064374344EA870C48F6FF44CFF6FF64A2
:1026B00004EA080444EA0E27C3F804C09F614F6887
:1026C00009699F631D629F6947F400679F619F6965
:1026D00027F480679F6122E1036843F200461A6A8B
:1026E000C4F2010622F480721A621D6A1A46D3F8F7
:1026F00004C052F81C8FB3428E68D1F800E025F474
:10270000007545EA062505D042F60046C4F20106EA
:10271000B34207D1CE6840F2FF47360225F4406548
:10272000BE433543A3F18046A6F596369F0547EA9A
:102730009626072E0CD8012707FA06F616F0E50FA5
:102740001FBFD1E905672CF44054374344EA071C06
:102750004FF68C74CFF6FE7404EA080444EA0E07C0
:10276000C3F804C0DF614F680969DF631D62DF6978
:1027700047F00807DF61DF6927F00407DF61CFE07A
:10278000036843F200461A6AC4F2010622F480523A
:102790001A621D6A1A46D3F804C052F81C8FB3425D
:1027A0008E68D1F800E025F4005545EA063505D0DD
:1027B00042F60046C4F20106B34207D1CE6844F6A1
:1027C000FF77360325F44045BE433543A3F18046E9
:1027D000A6F596369F0547EA9626072E0CD80127C0
:1027E00007FA06F616F0E50F1FBFD1E905672CF4CE
:1027F0004044374344EA871C48F6FF44CFF6FF6461
:1028000004EA080444EA0E27C3F804C0DF614F68F5
:1028100009691F641D62DF6947F40067DF61DF69D2
:1028200027F48067DF617AE003681A6AA3F18047C2
:1028300022F480321A621A46A7F596379C05D3F81F
:1028400020805D6852F850EFD1F800C08E6844EAED
:102850009727072F09D80124BC4014F0E50F1EBFAD
:102860004C6925F4803545EA042528F4003444EA0F
:1028700006444FF68C76CFF6FE7603360EEA060750
:1028800047EA0C075D601F654F6809699F641C6219
:102890001F6D47F008071F651F6D27F004071F65B0
:1028A0003EE000BF03681A6AA3F1804722F4801259
:1028B0001A621A46A7F596379C05D3F820805D6802
:1028C00052F850EFD1F800C08E6844EA9727072FDE
:1028D00009D80124BC4014F0E50F1EBF4C6925F453
:1028E000802545EA842528F4001444EA065448F675
:1028F000FF46CFF6FF6606F540760EEA060747EA82
:102900000C275D601F654F680969DF641C621F6DDD
:1029100047F400671F651F6D27F480671F65090274
:10292000136819431160BDE8F0410121002380F8CC
:102930003D1080F83C30184670470000002804BF66
:102940000120704710B5044690F83D0028B90020DA
:1029500084F83C00204600F00DF8022084F83D0089
:102960002068211D03F056FE012084F83D00002060
:1029700010BD00007047000070470000006801F0C3
:102980001F024FF0010C036A0CFA02F29343036238
:10299000036A81051343A0F18042A2F5963241EA11
:1029A0009222062A03621BD80CFA02F111F0650F7D
:1029B00016D0416C41F40041416481680722C0F2A5
:1029C00001021140062902D0B1F5803F02D100205A
:1029D000704700BF016841F00101016000207047AD
:1029E00044F60001C4F201018842E6D1E1E70000AB
:1029F000006840F60001C4F20001884218BF704729
:102A0000B0B540F20044C4F6000420460121FEF7B0
:102A10005DF940F2DC25002818BF0120C2F2000554
:102A2000687020460221FEF751F9002818BF0120E6
:102A3000687420460421FEF749F9002818BF0120D8
:102A400085F821004FF090400121FEF73FF9014643
:102A5000002818BF012185F83110297800220229A9
:102A60006A72AA7006D0012910D0E1B96978D1B98B
:102A7000012117E06A78696862B133294FF00101DA
:102A800031BFA97069720021696001E0697829B1DC
:102A9000002107E00131696005E000BF696801318C
:102AA000696002212970297C00226A76AA7469B1C2
:102AB00001290FD002291DD16A7C696992B132299E
:102AC00014D9012169760021696111E0697C89B915
:102AD00001210EE0697C59B96969013169610221FE
:102AE00007E000BF0131696104E000BF0121A97462
:102AF0000021297495F82010002285F8292085F8F6
:102B0000222079B1012913D0022923D195F821205F
:102B1000696AAAB1322917D9012185F82910002143
:102B2000696214E095F82110A1B9012110E000BFFD
:102B300095F8211059B9696A01316962022107E0EB
:102B40000131696206E000BF012185F822100021F1
:102B500085F8201095F83010002285F8392085F886
:102B60003220A9B1012917D0022912D1696BD8B13D
:102B70000120322991BF85F8320085F83900002004
:102B80006863002085F83000BDE8B040704700BFA2
:102B900080B1BDE8B040704790B1002085F83000AA
:102BA000BDE8B040704700BF481C6863BDE8B04056
:102BB000704700BF012085F83000BDE8B040704785
:102BC000686B01306863022085F83000BDE8B040D2
:102BD000704700004FEAB101032984BF002070470D
:102BE000DFE801F0020E060A006834300068704722
:102BF00000683C30006870470068403000687047EB
:102C000000683830006870477047000090F87C100A
:102C1000012904BF022070472421C0F880100268F7
:102C20001168136823F00103136021F000530021A1
:102C3000416613602022C0F8802080F87C1008468E
:102C4000704700007047000090F87C20012A04BF04
:102C500002207047B0B52422C0F880200268D0F866
:102C600064E0D2F800C01368BEF1000F23F0010346
:102C70001360936823F0606341EA0301916019D007
:102C80009368916848F2D47E490FC0F6000E48F26E
:102C9000DC751EF80140C0F60005695CC3F34263B1
:102CA000E400B4FBF1F11EF80340EB5CE500B5FB7A
:102CB000F3F301E001210123A0F86A102021A0F81C
:102CC0006830C2F800C0C0F88010002180F87C1085
:102CD000BDE8B0400846704790F87C20012A04BF48
:102CE00002207047B0B52422C0F880200268D0F8D6
:102CF00064E0D2F800C01368BEF1000F23F00103B6
:102D00001360936823F0604341EA0301916019D096
:102D10009368916848F2D47E490FC0F6000E48F2DD
:102D2000DC751EF80140C0F60005695CC3F3426320
:102D3000E400B4FBF1F11EF80340EB5CE500B5FBE9
:102D4000F3F301E001210123A0F86A102021A0F88B
:102D50006830C2F800C0C0F88010002180F87C10F4
:102D6000BDE8B0400846704770470000704700005B
:102D70007047000070B501680446CA690E688B6828
:102D800002F02F05202D09D106F0200503F0805018
:102D9000401910D0E16E00294DD170BD5FEA027C70
:102DA00009D00120C1F2000003EA000E06F4907081
:102DB00010EB0E0028D1D0020AD513F4800007D002
:102DC0004FF4801220460A62BDE87040FFF7CEBF84
:102DD000100605D506F0800003F40003C01827D1C3
:102DE00050061BD516F0400018D0086820F04000AF
:102DF000086020200021C4F8800020462167BDE83B
:102E0000704000F0FBB900BFD00718BF16F4807007
:102E100022D1900703F001052AD432E010020FD529
:102E200016F080400CD02046BDE87040FFF79CBFF4
:102E3000216F0029B1D02046BDE87040084700BF8F
:102E4000D001AAD5B6F1FF3FC8BF70BD2046BDE88E
:102E50007040FFF7F7BE00BF01200862D4F8880079
:102E600040F00100C4F88800900703F0010508D580
:102E70003DB102200862D4F8880040F00400C4F894
:102E80008800500708D53DB104200862D4F88800B6
:102E900040F00200C4F88800BCF1000F0CD506F029
:102EA000200050EA0E0007D008200862D4F88800FD
:102EB00040F00800C4F88800D4F8880000283FF4E7
:102EC0006CAF90060AD506F0200003F080528018FF
:102ED00004D0E26E12B1204690472168D4F88800F1
:102EE0008A6800F0080002F04002801806D12046EF
:102EF000FFF73EFF0020C4F8880070BD08684FF659
:102F0000FE7220F4907008608868CEF6FF72104060
:102F100088602020C4F884000020E06688684006AD
:102F200014D5886820F040008860A06F70B146F624
:102F30009D01C0F600018163FDF7ACFD00283FF460
:102F40002CAFA06F816BBDE8704008472046BDE8FC
:102F50007040FFF70DBF000010B5A8B10446D0F8CF
:102F6000800028B9002084F87C00204600F026F874
:102F70002420C4F880002068016821F0010101606C
:102F8000204603F093FC08B1012010BDA06A10B1E7
:102F9000204603F0C9FB2168486820F4904048604F
:102FA000886820F02A008860086840F00102204606
:102FB0000A60BDE8104003F02DBC0000006843F635
:102FC0000001C4F20101884218BF704780B586B085
:102FD00041F24C00C4F20200416941F48041416178
:102FE000416901F4804101910199016841F00101B9
:102FF0000160006801A900F00100019001984FF400
:10300000C0600190022002900020CDE9030007205B
:1030100005904FF09040FDF791FD25200021002202
:10302000FDF7DEFE2520FDF7C9FE06B0BDE88040B5
:10303000704700002DE9F04381B08146044659F8FD
:10304000800F20280DD10D4600294FF0010000F01F
:10305000D2801646002A00F0CE8094F87C00012829
:1030600004D1022001B0BDE8F08300BF012084F844
:103070007C000020C4F8880021209846C4F8800015
:10308000FDF730FEA4F85460A4F85660A168064627
:10309000B1F5805F02D12069002869D02F46002554
:1030A000B4F85600002869D018F1010038D0B8F102
:1030B000000F07D1216828E0FDF714FE801B404572
:1030C00000F284802168C8690006F5D517B117F8A9
:1030D000010B04E035F8020B00276FF35F208862D4
:1030E000B4F856000138A4F85600B4F85600002889
:1030F000E9D138E017F8010B8862B4F856000138BE
:10310000A4F85600B4F8560068B3C86900065BD549
:10311000002FEFD135F8020B00276FF35F20EBE7AC
:10312000216802E0C869000609D4C869000606D40F
:10313000C86900065CBFC8695FEA0060F2D51FB1CC
:1031400017F8010B05E000BF35F8020B00276FF3FD
:103150005F208862B4F856000138A4F85600B4F82D
:1031600056000028E1D1C86940062BD40AE000BF10
:103170000027B4F8560000287FF496AF2168C8698C
:1031800040061FD4B8F1000F1ED018F1010013D172
:10319000C869400616D4C869400613D4C8694006F9
:1031A00010D4C86940064FF00000F1D51DE000BF03
:1031B0002068C069400605D4FDF794FD801B40459A
:1031C000F6D903E0002010E0FDF78CFD206804F143
:1031D0008409016821F4D0710160816821F0010146
:1031E00081602020C4F8800003202021C9F800104D
:1031F000002184F87C1001B0BDE8F0837047000026
:10320000FEE700002DE9F04385B040F22846C4F601
:1032100000060120A6F1280400254FF08008029046
:103220004FF00209694620460495CDE90085CDF8A6
:103230000C90FDF783FC3068802140F04000306046
:1032400056F8100C40F0400046F8100C2046FDF7F0
:103250003DFD3168013841F04001316056F8101CE5
:10326000B0FA80F0470941F0400046F8100C2046C3
:103270008021FDF72BFD3168013841F040013160BC
:10328000B0FA80F056F8101C400940EA470741F0B8
:10329000400046F8100C20468021FDF717FD3168EC
:1032A000013841F040013160B0FA80F056F8101C4E
:1032B0004009BA0042EA400741F0400046F8100CCD
:1032C00020468021FDF702FD3168013841F04001C0
:1032D0003160B0FA80F056F8101C4009074441F004
:1032E000400046F8100C20468021FDF7EFFC3168C5
:1032F000013841F040013160B0FA80F056F8101CFE
:103300004009BA0042EA400741F0400046F8100C7C
:1033100020468021FDF7DAFC3168013841F0400198
:103320003160B0FA80F056F8101C4009074441F0B3
:10333000400046F8100C20468021FDF7C7FC31689C
:10334000013841F040013160B0FA80F056F8101CAD
:103350004009BA0042EA400741F0400046F8100C2C
:1033600020468021FDF7B2FC0138B0FA80F03168C8
:103370004009074441F040003060112001A981E874
:103380002102694620460495CDF80080FDF7D6FB62
:10339000F8B205B0BDE8F08340F22841C4F6000160
:1033A0000A6843B2A1F1100C42F04002B3F1FF3FB2
:1033B00063460A60C4BF40F22843C4F600031A689B
:1033C00042F080021A6051F8102C42F0400241F89D
:1033D000102C0A6842F040020A60420662465CBF56
:1033E00040F22842C4F60002136843F080031360E1
:1033F00051F8102C42F0400241F8102C0A6842F0BB
:1034000040020A60820662465CBF40F22842C4F66F
:103410000002136843F08003136051F8102C42F04F
:10342000400241F8102C0A6842F040020A60C206CD
:1034300062465CBF40F22842C4F60002136843F0C3
:103440008003136051F8102C42F0400241F8102C18
:103450000A6842F040020A60020762465CBF40F21E
:103460002842C4F60002136843F08003136051F849
:10347000102C42F0400241F8102C0A6842F0400241
:103480000A60420762465CBF40F22842C4F600026E
:10349000136843F08003136051F8102C42F040028F
:1034A00041F8102C0A6842F040020A608207624626
:1034B0005CBF40F22842C4F600021368C00743F024
:1034C0008003136051F8102C42F0400241F8102C98
:1034D0000A6842F040020A6004BF40F2284CC4F679
:1034E000000CDCF8000040F08000CCF8000051F83F
:1034F000100C40F0400041F8100C086840F040000B
:10350000086070472DE9F04186B040F20044C4F6EF
:103510000004012000254FF080080390022701A934
:1035200020460595CDE901850497FDF707FBA069C5
:10353000802140F04000A0612046FDF7C7FB012834
:1035400034D120468021FDF7C1FB01282ED1204631
:103550008021FDF7BBFB012828D120468021FDF703
:10356000B5FB012822D1204680218026FDF7AEFB45
:1035700001281BD1002011210590CDE90210022065
:10358000049001A920460196FDF7D8FAA06A01250A
:1035900040F04000A062A06A40F08000A06254F8B1
:1035A000180F40F0400020600CE000BF112002A97D
:1035B000A1C101A920460595CDF80480FDF7BEFA0A
:1035C00028344026206840EA06012846216006B0DB
:1035D000BDE8F08140F21841C4F600010A6942F4E6
:1035E00000720A610A6942F480720A610A6842F054
:1035F00020020A602022C1F8FC230A6942F020025E
:103600000A6100BF00BF00BF0A6842F020020A60E2
:103610000A6842F480720A600022C1F8FC230B6938
:1036200043F020030B6100BF00BF00BF0B6843F0F5
:1036300020030B600B6843F480730B600B6943F449
:1036400000730B610B6943F480730B610B6843F0EB
:1036500020030B602123C1F8FC330B6943F02003E6
:103660000B6100BF00BF00BF0B6843F020030B607D
:103670000B6843F480730B60C1F8FC230A6942F0C5
:1036800020020A6100BF00BF00BF0A6842F02002AA
:103690000A600A6842F480720A600A6942F40072A1
:1036A0000A610A6942F480720A610A6842F02002E3
:1036B0000A602222C1F8FC230A6942F020020A6152
:1036C00000BF00BF00BF0A6842F020020A600A681B
:1036D00042F480720A6000BF00BF00BF0A6842F473
:1036E00000720A604FF496320B69053A43F4007396
:1036F0000B610B6843F480730B600B6843F020038D
:103700000B60C1F8FC030B6943F020030B6100BFA1
:1037100000BF00BF0B6843F020030B600B6843F44D
:1037200080730B6000BF00BF00BF0B6843F40073E1
:103730000B600B6943F400730B610B6843F48073F7
:103740000B600B6843F020030B60C1F8FC030B69AE
:1037500043F020030B6100BF00BF00BF0B6843F0C4
:1037600020030B600B6843F480730B6000BF00BF45
:1037700000BF0B6843F400730B600B6943F40073E4
:103780000B610B6843F480730B600B6843F02003FC
:103790000B60C1F8FC030B6943F020030B6100BF11
:1037A00000BF00BF0B6843F020030B600B6843F4BD
:1037B00080730B6000BF00BF00BF0B6843F4007351
:1037C0000B600B6943F400730B610B6843F4807367
:1037D0000B600B6843F020030B60C1F8FC030B691E
:1037E00043F020030B6100BF00BF00BF0B6843F034
:1037F00020030B600B6843F480730B6000BF00BFB5
:1038000000BF0B6843F400730B600B6943F4007353
:103810000B610B6843F480730B600B6843F020036B
:103820000B60C1F8FC030B6943F020030B6100BF80
:1038300000BF00BF0B6843F020030B600B6843F42C
:1038400080730B6000BF00BF00BF0B6843F40073C0
:103850000B607FF449AF70470A78002A08BF7047B1
:103860002DE9F04147F2F25804464D1C002740F282
:103870003F16C0F6000800BFA2F12000C1B2490007
:1038800051FA80F008EB0012B1B2204600F00AF8BD
:10389000EA5D22B1103E132F07F10107ECD3BDE81A
:1038A000F04170472DE9F04740F21843C4F6000399
:1038B0001F694FF0200C47F400771F611F694FF01C
:1038C000210E47F480771F611F6840F2080947F016
:1038D00020071F60C3F8FCC31F6940F2340A47F099
:1038E00020071F6100BF00BF00BF1F684FF0220804
:1038F00047F020071F601F68C2F2000947F4807775
:103900001F60C3F8FC031F69C2F2000A47F02007DA
:103910001F6100BF00BF00BF1F6847F020071F6086
:103920001F6847F480771F601F6947F400771F61A5
:103930001F6947F480771F611F6847F020071F60E9
:10394000C3F8FCE31C6944F020041C6100BF00BF05
:1039500000BF1C6844F020041C601C6844F48074A0
:103960001C60C3F8FC131C6944F020041C6100BFF8
:1039700000BF00BF1C6844F020041C601C6844F4B5
:1039800080741C60002400BF1D6945F400751D6132
:103990001D6945F480751D611D6845F020051D6099
:1039A000C3F8FC831D6945F020051D6100BF00BF01
:1039B00000BF1D6845F020051D601D6845F4807539
:1039C0001D6000BF00BF00BF1D6845F400751D608D
:1039D000002500BF32F81460EE40F607564608BFD7
:1039E0004E4636881F6947F400771F611F6847F409
:1039F00080771F601F6847F020071F60C3F8FC63D3
:103A00001E696F1C46F020061E6100BF00BF00BF8C
:103A10001E6846F020061E601E6846F480761E6012
:103A200000BF00BF00BF1E6846F400761E6032F87B
:103A30001460FE40F607564608BF4E4636881F699A
:103A400047F400771F611F6847F480771F601F6885
:103A500047F020071F60C3F8FC631E69AF1C46F0E7
:103A600020061E6100BF00BF00BF1E6846F0200692
:103A70001E601E6846F480761E6000BF00BF00BF57
:103A80001E6846F400761E6032F81460FE40F607A9
:103A9000564608BF4E4636881F6947F400771F61B7
:103AA0001F6847F480771F601F6847F020071F607A
:103AB000C3F8FC631E69EF1C46F020061E6100BFC0
:103AC00000BF00BF1E68043546F020061E601E6859
:103AD00046F480761E6000BF00BF00BF1E6846F43B
:103AE00000761E6032F81460FE40F607564608BFA6
:103AF0004E4636881F69102D47F400771F611F68F6
:103B000047F480771F601F6847F020071F60C3F8E5
:103B1000FC631E6946F020061E6100BF00BF00BFA7
:103B20001E6846F020061E601E6846F480761E6001
:103B300000BF00BF00BF1E6846F400761E607FF421
:103B400049AF1D69013045F400751D611D690134DF
:103B500045F480751D611D68182C45F020051D6019
:103B6000C3F8FCC31D6945F020051D6100BF00BFFF
:103B700000BF1D6845F020051D601D6845F4807577
:103B80001D60C5B2C3F8FC531D6945F020051D61D9
:103B900000BF00BF00BF1D6845F020051D601D6807
:103BA00045F480751D601D6945F400751D611D6932
:103BB00045F480751D611D6845F020051D60C3F842
:103BC000FCE31D6945F020051D6100BF00BF00BF7B
:103BD0001D6845F020051D601D6845F480751D6059
:103BE000C3F8FC131D6945F020051D6100BF00BF2F
:103BF00000BF1D6845F020051D601D6845F48075F7
:103C00001D6008BFBDE8F087BEE600002DE9F04F5B
:103C10008BB0002641F24C000596C4F20200016808
:103C200040F2184541F0040101600168C4F6000546
:103C300001F0040106910699016801AC41F001010F
:103C40000160016840F6140901F00101069106992E
:103C50000168C4F6000941F00201016000682146D4
:103C600000F00200069006984FF448700190012081
:103C70000290A5F118000127CDE90366FCF75EFF6D
:103C80004FF48070CDE901074FF090402146CDE917
:103C90000366FCF753FF4FF6FF7005F57A74069044
:103CA0004FF0030806A920460A964FF6FF7B0797B8
:103CB000CDE90868FCF742FF4FF6004ACFF6FF7ADD
:103CC00055F80A0006A940F4807045F80A002868F3
:103CD0004FF6FF7740F408702860286940F40070C0
:103CE0002861286940F480702861286840F020002D
:103CF0002860C9F80060286940F02000286100BFF2
:103D000000BF00BF286840F020002860286840F409
:103D10008070286020460A96CDF818B0CDF824802F
:103D2000CDE90766FCF70AFF4FF6104BCFF6FF7B95
:103D300055F80B0007A940F4807045F80B0000BF50
:103D400000BF00BFD5F8F89355F80A0040F4807022
:103D500045F80A00012081E8410106A920460A969B
:103D60000697FCF7EBFE286848F2302140F400701B
:103D7000286040F23600C2F20000A0F800900088EF
:103D8000884203D100F01EFC02E000BF01F08EF972
:103D90002869002640F40070286128694FF6FF78F2
:103DA00040F48070286128684FF0030940F020003B
:103DB000286040F61400C4F600000660286906A9D1
:103DC00040F02000286100BF00BF00BF286840F01D
:103DD00020002860286840F48070286020460A96F9
:103DE000CDE90686CDE90869FCF7A8FE55F80B0079
:103DF00007A940F4807045F80B0000BF00BF00BF6A
:103E0000D5F8F87355F80A0040F4807045F80A00B8
:103E1000012081E8410206A920460A96CDF81880C3
:103E2000FCF78CFE286840F40070286040F23600F1
:103E3000C2F2000007800BB0BDE8F08F81B0ADF892
:103E40000200BDF8020040F20801C2F20001088041
:103E500001B0704781B0ADF80200BDF8020040F239
:103E60003401C2F20001088001B07047B0B540F6DD
:103E70000005C4F60005044628464FF6FF710122EE
:103E8000FCF72AFF210228460022FCF725FF05F552
:103E90008064204604210122FCF71EFF20460421F5
:103EA0000022BDE8B040FCF717BF000010B58CB091
:103EB00040F238000024C2F200004FF0A04104227A
:103EC000C0E900140121CDE90A44CDE90744CDE958
:103ED0000544CDE90344CDE90144C0E90244C0E909
:103EE000044482618483016280F82440C0E90B4469
:103EF00080F83840C46380F84040FCF747FC002855
:103F000018BFFCF721FA40F23800C2F2000009A9FC
:103F10000994FCF71BFA002818BFFCF715FA40F6C5
:103F20000000C2F63060019006207F210290002040
:103F3000049104210390CDE9051040F23800C2F24B
:103F4000000001A9FCF762FA002818BFFCF7FCF991
:103F50000CB010BDB0B588B040F2A40040F2001122
:103F60000024C2F20000C5F200010425C0E90014DB
:103F70000121CDE90644C0E90244C0E90444856159
:103F80008483016280F82440C0E90B4480F8384003
:103F9000C46380F84040FCF7F9FB002818BFFCF729
:103FA000D3F948F20000C3F6F06000900620CDE996
:103FB00001047F20CDE9030540F2A400C2F2000015
:103FC00069460594FCF722FA002818BFFCF7BCF9F3
:103FD00008B0B0BD2DE9F04F87B04FF0000941F2B5
:103FE0004C00CDF81890C4F20200016840F200487D
:103FF00041F0040101600168C4F6000801F0040109
:1040000001910199016808F5806741F02001016084
:104010000168012201F020010191019901684FF42A
:104020007F4641F0010101600168012401F00101B6
:1040300001910199016841F002010160016801F0FC
:10404000020101910199016841F0080101600068D5
:104050004FF47F4100F00800019001983846FCF7CA
:104060003BFE08F500652846042100224FF0040BB2
:10407000FCF732FE4046C02100224FF0C00AFCF798
:104080002BFECDE9026402AE38463146CDE90499F3
:10409000FCF754FD4FF090403146CDE902490494BD
:1040A000FCF74CFD0720CDE9020940463146049457
:1040B000FCF744FD28463146CDE902B4CDE9049928
:1040C000FCF73CFD40463146CDE902A4CDE9049918
:1040D000FCF734FD07B0BDE8F08F0000B0B59AB032
:1040E00001A83421FCF7CCF840F2101044F200454E
:1040F000C2F20000C4F2010541F63F7100226323C1
:10410000C0E90051C0E90223C0E904228261FDF741
:104110008DFD002818BFFCF717F940F21010C2F20D
:104120000000FEF70BFC002818BFFCF70DF960201B
:104130000E9014200F9040F210100024C2F20000E4
:104140000EA90022CDE91044CDE912441494FEF7E3
:1041500009FA002818BFFCF7F7F84FF4005005944F
:10416000CDE90344CDE90144CDE906040D9440F2C4
:104170001014C2F2000401A92046FDF7B5FC002886
:1041800018BFFCF7E1F8206844F60001C4F2010111
:10419000884211D0A8422AD141F24C00C4F2020058
:1041A000016841F001010160006800F00100159014
:1041B000159840200EE000BF41F24C00C4F202000E
:1041C000016841F001010160006800F001001590F4
:1041D000159880201590022016900020CDE9170038
:1041E0000120199015A94FF09040FCF7A7FC1AB0D8
:1041F000B0BD0000B0B59AB001A83421FCF740F87A
:1042000040F2501044F60005C2F20000C4F201056D
:1042100040F69F7100226323C0E90051C0E90223E8
:10422000C0E904228261FDF701FD002818BFFCF7F8
:104230008BF840F25010C2F20000FEF77FFB00281E
:1042400018BFFCF781F860200E9028200F9040F2F4
:1042500050100024C2F200000EA90022CDE9104443
:10426000CDE912441494FEF77DF9002818BFFCF73D
:104270006BF84FF400500594CDE90344CDE90144B7
:10428000CDE906040D9440F25014C2F2000401A9D5
:104290002046FDF729FC002818BFFCF755F82068D8
:1042A000A84215D044F20041C4F2010188422AD14B
:1042B00041F24C00C4F20200016841F001010160CA
:1042C000006800F001001590159840200EE000BF36
:1042D00041F24C00C4F20200016841F001010160AA
:1042E000006800F0010015901598802015900220BC
:1042F00016900020CDE917000120199015A94FF064
:104300009040FCF71BFC1AB0B0BD000010B58CB09B
:1043100040F290100021C2F200004FF080424F2383
:104320004FF6FF740B91CDE909110791CDE9051105
:10433000CDE90311CDE90111C0E90023C0E9021460
:1043400001618161FDF772FC002818BFFBF7FCFFDB
:104350004FF48050089040F29010C2F2000008A97B
:10436000FDF75CFD002818BFFBF7EEFF40F2901050
:10437000C2F20000FDF76EFF002818BFFBF7E4FF54
:1043800040F290100024C2F2000005A905940794A1
:10439000FDF712FC002818BFFBF7D6FF0120CDE97E
:1043A000020440F29010C2F2000001A90022019420
:1043B0000494FDF785FE002818BFFBF7C5FF022017
:1043C000CDE9010040F29010C2F2000001A90422E0
:1043D000FDF776FE002818BFFBF7B6FF0CB010BD46
:1043E00010B58CB040F2D01040F200420021C2F271
:1043F0000000C4F200024F2342F20F740B91CDE98A
:1044000009110791CDE90511CDE90311CDE901119C
:10441000C0E90023C0E9021401618161FDF706FCD7
:10442000002818BFFBF790FF4FF48050089040F22F
:10443000D010C2F2000008A9FDF7F0FC002818BF58
:10444000FBF782FF40F2D010C2F20000FDF702FF3E
:10445000002818BFFBF778FF40F2D0100024C2F20A
:10446000000005A905940794FDF7A6FB002818BFD6
:10447000FBF76AFF0120CDE9020440F2D010C2F23E
:10448000000001A9002201940494FDF719FE002800
:1044900018BFFBF759FF0220CDE9010040F2D01010
:1044A000C2F2000001A90422FDF70AFE002818BF8D
:1044B000FBF74AFF0CB010BD80B588B040F2102069
:1044C00040F600020021C2F20000C4F200024F23B5
:1044D00042F20F7C0791CDE905110291C0E900235A
:1044E000C0E9021C01618161FDF7A0FB002818BF33
:1044F000FBF72AFF4FF48050049040F21020C2F2E4
:10450000000004A9FDF78AFC002818BFFBF71CFF78
:1045100000200190039040F21020C2F2000001A997
:10452000FDF74AFB002818BFFBF70EFF08B080BD5F
:1045300080B540F2502043F6000CC2F20000C4F2F5
:10454000010C4FF416524FF0805300214FF00C0E27
:10455000C0E900C2C0E90231C0E9041EC0E9061189
:10456000C0E908118162FEF7F7FC002818BFFBF7CD
:10457000EBFE40F25020C2F200000021FEF7ACFB3F
:10458000002818BFFBF7E0FE40F25020C2F2000006
:104590000021FEF759FB002818BFFBF7D5FE40F2BB
:1045A0005020C2F20000FEF731FB002808BF80BD9A
:1045B000BDE88040FBF7C8BEFEE700007047000082
:1045C0007047000040F21840C4F600000169002264
:1045D00041F40071016101694FF0030C41F48071F5
:1045E0000161016841F020010160C0F8FC2301690C
:1045F00041F02001016100BF00BF00BF016841F030
:1046000020010160016841F4807101600121C0F85E
:10461000FC13036943F02003036100BF00BF00BF28
:10462000036843F020030360036843F4807303606E
:10463000036943F400730361036943F48073036106
:10464000036843F020030360C0F8FC13036943F0E0
:104650002003036100BF00BF00BF036843F02003D5
:104660000360036843F480730360C0F8FC230269AD
:1046700042F02002026100BF00BF00BF026842F0AA
:1046800020020260026842F480720260026942F411
:1046900000720261026942F480720261026842F0B3
:1046A000200202601022C0F8FC23026942F02002BE
:1046B000026100BF00BF00BF026842F0200202603A
:1046C000026842F48072026041F29072C0F8FC23EA
:1046D000026942F02002026100BF00BF00BF026811
:1046E00042F020020260026842F4807202600269B5
:1046F00042F400720261026942F48072026102684F
:1047000042F0200202606022C0F8FC23026942F0FD
:104710002002026100BF00BF00BF026842F0200219
:104720000260026842F4807202604FF41C52C0F8CA
:10473000FC23026942F02002026100BF00BF00BFFB
:10474000026842F020020260026842F48072026055
:10475000026942F400720261026942F480720261ED
:10476000026842F0200202606122C0F8FC23026964
:1047700042F02002026100BF00BF00BF026842F0A9
:1047800020020260026842F480720260C0F8FC13EA
:10479000016941F02001016100BF00BF00BF016855
:1047A00041F020010160016841F4807101600169FC
:1047B00041F400710161016941F480710161016896
:1047C00041F0200101604621C0F8FC13016941F06D
:1047D0002001016100BF00BF00BF016841F020015E
:1047E0000160016841F4807101600221C0F8FC138E
:1047F000026942F02002026100BF00BF00BF0268F0
:1048000042F020020260026842F480720260026993
:1048100042F400720261026942F48072026102682D
:1048200042F0200202601322C0F8FC23026942F029
:104830002002026100BF00BF00BF026842F02002F8
:104840000260026842F48072026048F21002C0F80E
:10485000FC23026942F02002026100BF00BF00BFDA
:10486000026842F020020260026842F48072026034
:10487000026942F400720261026942F480720261CC
:10488000026842F0200202601222C0F8FC23026992
:1048900042F02002026100BF00BF00BF026842F088
:1048A00020020260026842F48072026048F2FE0256
:1048B000C0F8FC23026942F02002026100BF00BF81
:1048C00000BF026842F020020260026842F4807277
:1048D0000260026942F400720261026942F480726D
:1048E0000261026842F020020260C0F8FC13016914
:1048F00041F02001016100BF00BF00BF016841F02D
:1049000020010160016841F4807101604FF4A061F1
:10491000C0F8FC13016941F02001016100BF00BF34
:1049200000BF016841F020010160016841F480711D
:104930000160016941F400710161016941F4807114
:104940000161016841F020010160C0F8FCC3026907
:1049500042F02002026100BF00BF00BF026842F0C7
:1049600020020260026842F48072026041F230026A
:10497000C0F8FC23026942F02002026100BF00BFC0
:1049800000BF026842F020020260026842F48072B6
:104990000260026942F400720261026942F48072AC
:1049A0000261026842F0200202603022C0F8FC235B
:1049B000026942F02002026100BF00BF00BF02682E
:1049C00042F020020260026842F48072026040F20B
:1049D0000332C0F8FC23036943F02003036100BFE6
:1049E00000BF00BF036843F020030360036843F483
:1049F00080730360036943F400730361036943F444
:104A000080730361036843F0200303603123C0F81F
:104A1000FC33036943F02003036100BF00BF00BF04
:104A2000036843F020030360036843F4807303606A
:104A3000C0F8FC23036943F02003036100BF00BFFB
:104A400000BF036843F020030360036843F48073EE
:104A50000360036943F400730361036943F48073E3
:104A60000361036843F0200303603223C0F8FC3382
:104A7000036943F02003036100BF00BF00BF036868
:104A800043F020030360036843F480730360C0F8BD
:104A9000FC23036943F02003036100BF00BF00BF94
:104AA000036843F020030360036843F480730360EA
:104AB000036943F400730361036943F48073036182
:104AC000036843F0200303603323C0F8FC33036919
:104AD00043F02003036100BF00BF00BF036843F041
:104AE00020030360036843F4807303604FF4407352
:104AF000C0F8FC33016941F02001016100BF00BF33
:104B000000BF016841F020010160016841F480713B
:104B10000160016941F400710161016941F4807132
:104B20000161016841F0200101603421C0F8FC13EB
:104B3000016941F02001016100BF00BF00BF0168B1
:104B400041F020010160016841F480710160C0F80A
:104B5000FCC3016941F02001016100BF00BF00BF3B
:104B6000016841F020010160016841F48071016039
:104B7000016941F400710161016941F480710161D1
:104B8000016841F0200101603521C0F8FC13016982
:104B900041F02001016100BF00BF00BF016841F08A
:104BA00020010160016841F480710160C0F8FC23BC
:104BB000016941F02001016100BF00BF00BF016831
:104BC00041F020010160016841F4807101600169D8
:104BD00041F400710161016941F480710161016872
:104BE00041F0200101603621C0F8FC13016941F059
:104BF0002001016100BF00BF00BF016841F020013A
:104C00000160016841F4807101601421C0F8FC1357
:104C1000016941F02001016100BF00BF00BF0168D0
:104C200041F020010160016841F480710160016977
:104C300041F400710161016941F480710161016811
:104C400041F0200101603721C0F8FC13016941F0F7
:104C50002001016100BF00BF00BF016841F02001D9
:104C60000160016841F480710160C0F8FC230169B2
:104C700041F02001016100BF00BF00BF016841F0A9
:104C800020010160016841F480710160016941F413
:104C900000710161016941F480710161016841F0B5
:104CA000200101603821C0F8FC13016941F02001A6
:104CB000016100BF00BF00BF016841F02001016039
:104CC000016841F480710160C0F8FC23016941F082
:104CD0002001016100BF00BF00BF016841F0200159
:104CE0000160016841F480710160016941F4007163
:104CF0000161016941F480710161016841F02001A5
:104D000001603921C0F8FC13016941F02001016103
:104D100000BF00BF00BF016841F0200101600168D1
:104D200041F480710160C0F8FC23016941F0200169
:104D3000016100BF00BF00BF016841F020010160B8
:104D4000016841F480710160016941F40071016101
:104D5000016941F480710161016841F02001016045
:104D60003A21C0F8FC13016941F02001016100BF44
:104D700000BF00BF016841F020010160016841F4FB
:104D800080710160C0F8FC33016941F020010161CC
:104D900000BF00BF00BF016841F020010160016851
:104DA00041F480710160016941F4007101610169A0
:104DB00041F480710161016841F0200101603B21F3
:104DC000C0F8FC13016941F02001016100BF00BF80
:104DD00000BF016841F020010160016841F4807169
:104DE0000160C0F8FCC3016941F02001016100BF0E
:104DF00000BF00BF016841F020010160016841F47B
:104E000080710160016941F400710161016941F43F
:104E100080710161016841F0200101603C21C0F80E
:104E2000FC13016941F02001016100BF00BF00BF18
:104E3000016841F020010160016841F48071016066
:104E4000C0F8FC23016941F02001016100BF00BFEF
:104E500000BF016841F020010160016841F48071E8
:104E60000160016941F400710161016941F48071DF
:104E70000161016841F0200101603D21C0F8FC138F
:104E8000016941F02001016100BF00BF00BF01685E
:104E900041F020010160016841F4807101604FF42C
:104EA000A051C0F8FC13016941F02001016100BF6D
:104EB00000BF00BF016841F020010160016841F4BA
:104EC00080710160016941F400710161016941F47F
:104ED00080710161016841F0200101609221C0F8F8
:104EE000FC13016941F02001016100BF00BF00BF58
:104EF000016841F020010160016841F480710160A6
:104F00004FF40071C0F8FC13016941F02001016108
:104F100000BF00BF00BF016841F0200101600168CF
:104F200041F480710160016941F40071016101691E
:104F300041F480710161016841F020010160932119
:104F4000C0F8FC13016941F02001016100BF00BFFE
:104F500000BF016841F020010160016841F48071E7
:104F60000160C0F8FC23016941F02001016100BF2C
:104F700000BF00BF016841F020010160016841F4F9
:104F800080710160016941F400710161016941F4BE
:104F900080710161016841F0200101609021C0F839
:104FA000FC13016941F02001016100BF00BF00BF97
:104FB000016841F020010160016841F480710160E5
:104FC00040F60D01C0F8FC13016941F020010161B8
:104FD00000BF00BF00BF016841F02001016001680F
:104FE00041F480710160016941F40071016101695E
:104FF00041F480710161016841F020010160C0F855
:10500000FCC3016941F02001016100BF00BF00BF86
:10501000016841F020010160016841F48071016084
:1050200041F21801C0F8FC13016941F0200101614F
:1050300000BF00BF00BF016841F0200101600168AE
:1050400041F480710160016941F4007101610169FD
:1050500041F480710161016841F020010160072184
:10506000C0F8FC13016941F02001016100BF00BFDD
:1050700000BF016841F020010160016841F48071C6
:10508000016040F27311C0F8FC13016941F0200186
:10509000016100BF00BF00BF016841F02001016055
:1050A000016841F480710160704700002DE9F04F04
:1050B00081B040F21844C4F6000420694FF0120990
:1050C00040F4007020612069002540F48070206168
:1050D0002068112640F020002060E320C4F8FC0383
:1050E00020694FF0130B40F02000206100BF00BF8B
:1050F00000BF2068102740F02000206020684FF09B
:10510000070840F48070206043F20800C4F8FC03F4
:10511000206940F02000206100BF00BF00BF206870
:1051200040F020002060206840F4807020602069FA
:1051300040F400702061206940F480702061206894
:1051400040F020002060E720C4F8FC03206940F014
:105150002000206100BF00BF00BF206840F0200099
:105160002060206840F480702060C4F8FC932069BF
:1051700040F02000206100BF00BF00BF206840F069
:1051800020002060206840F480702060206940F496
:1051900000702061206940F480702061206840F038
:1051A00020002060EF20C4F8FC03206940F02000BC
:1051B000206100BF00BF00BF206840F020002060D9
:1051C000206840F48070206041F23120C4F8FC0374
:1051D000206940F02000206100BF00BF00BF2068B0
:1051E00040F020002060206840F48070206020693A
:1051F00040F400702061206940F4807020612068D4
:1052000040F0200020600120C4F8FC03206940F039
:105210002000206100BF00BF00BF206840F02000D8
:105220002060206840F480702060C4F8FC5320693E
:1052300040F02000206100BF00BF00BF206840F0A8
:1052400020002060206840F480702060206940F4D5
:1052500000702061206940F480702061206840F077
:10526000200020600220C4F8FC03206940F02000E8
:10527000206100BF00BF00BF206840F02000206018
:10528000206840F4807020604FF4E060C4F8FC03B4
:10529000206940F02000206100BF00BF00BF2068EF
:1052A00040F020002060206840F480702060206979
:1052B00040F400702061206940F480702061206813
:1052C00040F0200020600320C4F8FC03206940F077
:1052D0002000206100BF00BF00BF206840F0200018
:1052E0002060206840F48070206041F23000C4F8F3
:1052F000FC03206940F02000206100BF00BF00BF18
:10530000206840F020002060206840F48070206019
:10531000206940F400702061206940F480702061B1
:10532000206840F0200020600420C4F8FC032069BD
:1053300040F02000206100BF00BF00BF206840F0A7
:1053400020002060206840F480702060C4F8FC5386
:10535000206940F02000206100BF00BF00BF20682E
:1053600040F020002060206840F4807020602069B8
:1053700040F400702061206940F480702061206852
:1053800040F0200020600820C4F8FC03206940F0B1
:105390002000206100BF00BF00BF206840F0200057
:1053A0002060206840F48070206040F20720C4F83C
:1053B000FC03206940F02000206100BF00BF00BF57
:1053C000206840F020002060206840F48070206059
:1053D000206940F400702061206940F480702061F1
:1053E000206840F0200020600920C4F8FC032069F8
:1053F00040F02000206100BF00BF00BF206840F0E7
:1054000020002060206840F480702060C4F8FC53C5
:10541000206940F02000206100BF00BF00BF20686D
:1054200040F020002060206840F4807020602069F7
:1054300040F400702061206940F480702061206891
:1054400040F0200020600A20C4F8FC03206940F0EE
:105450002000206100BF00BF00BF206840F0200096
:105460002060206840F480702060C4F8FC532069FC
:1054700040F02000206100BF00BF00BF206840F066
:1054800020002060206840F480702060206940F493
:1054900000702061206940F480702061206840F035
:1054A000200020600C20C4F8FC03206940F020009C
:1054B000206100BF00BF00BF206840F020002060D6
:1054C000206840F480702060C4F8FC53206940F0EC
:1054D0002000206100BF00BF00BF206840F0200016
:1054E0002060206840F480702060206940F40070E3
:1054F0002061206940F480702061206840F0200025
:1055000020600D20C4F8FC03206940F020002061D9
:1055100000BF00BF00BF206840F02000206020686E
:1055200040F480702060C4F8FC53206940F02000F3
:10553000206100BF00BF00BF206840F02000206055
:10554000206840F480702060206940F40070206181
:10555000206940F480702061206840F020002060C5
:105560000F20C4F8FC03206940F02000206100BF38
:1055700000BF00BF206840F020002060206840F499
:1055800080702060C4F8FC53206940F02000206146
:1055900000BF00BF00BF206840F0200020602068EE
:1055A00040F480702060206940F400702061206920
:1055B00040F480702061206840F0200020601020BE
:1055C000C4F8FC03206940F02000206100BF00BF48
:1055D00000BF206840F020002060206840F4807008
:1055E0002060C4F8FC53206940F02000206100BF17
:1055F00000BF00BF206840F020002060206840F419
:1056000080702060206940F400702061206940F4BF
:1056100080702061206840F020002060C4F8FC63A6
:10562000206940F02000206100BF00BF00BF20685B
:1056300040F020002060206840F480702060072047
:10564000C4F8FC03206940F02000206100BF00BFC7
:1056500000BF206840F020002060206840F4807087
:105660002060206940F400702061206940F480705F
:105670002061206840F020002060C4F8FC9320697D
:1056800040F02000206100BF00BF00BF206840F054
:1056900020002060206840F480702060C4F8FC5333
:1056A000206940F02000206100BF00BF00BF2068DB
:1056B00040F020002060206840F480702060206965
:1056C00040F400702061206940F4807020612068FF
:1056D00040F020002060C4F8FCB3206940F02000B6
:1056E000206100BF00BF00BF206840F020002060A4
:1056F000206840F480702060C4F8FC53206940F0BA
:105700002000206100BF00BF00BF206840F02000E3
:105710002060206840F480702060C820FBF7FAF910
:1057200020694FF0320A40F400702061206940F493
:1057300080702061206840F020002060C4F8FC7375
:105740002069102740F02000206100BF00BF00BF8B
:10575000206840F020002060206840F480702060C5
:1057600041F29060C4F8FC03206940F02000206101
:1057700000BF00BF00BF206840F02000206020680C
:1057800040F480702060206940F40070206120693E
:1057900040F480702061206840F020002060C4F850
:1057A000FC63206940F02000206100BF00BF00BF03
:1057B000206840F020002060206840F48070206065
:1057C00040F22720C4F8FC03206940F0200020614B
:1057D00000BF00BF00BF206840F0200020602068AC
:1057E00040F4807020603220FBF794F9206940F487
:1057F00000702061206940F480702061206840F0D2
:1058000020002060C4F8FC93206940F02000206153
:1058100000BF00BF00BF206840F02000206020686B
:1058200040F4807020601D20C4F8FC03206940F023
:105830002000206100BF00BF00BF206840F02000B2
:105840002060206840F4807020603220FBF762F90D
:10585000206940F400702061206940F4807020616C
:10586000206840F020002060C4F8FCB3206940F0BC
:105870002000206100BF00BF00BF206840F0200072
:105880002060206840F4807020604FF40060C4F80D
:10589000FC03206940F02000206100BF00BF00BF72
:1058A000206840F020002060206840F48070206074
:1058B000206940F400702061206940F4807020610C
:1058C000206840F0200020602920C4F8FC032069F3
:1058D00040F02000206100BF00BF00BF206840F002
:1058E00020002060206840F4807020601420C4F8FC
:1058F000FC03206940F02000206100BF00BF00BF12
:10590000206840F020002060206840F48070206013
:10591000206940F400702061206940F480702061AB
:10592000206840F0200020602B20C4F8FC03206990
:1059300040F02000206100BF00BF00BF206840F0A1
:1059400020002060206840F4807020600B20C4F8A4
:10595000FC03206940F02000206100BF00BF00BFB1
:10596000206840F020002060206840F480702060B3
:105970003220FBF7CFF82069032140F4007020614A
:105980002069072240F480702061206840F02000E8
:1059900020602020C4F8FC03206940F02000206132
:1059A00000BF00BF00BF206840F0200020602068DA
:1059B00040F480702060C4F8FC53206940F020005F
:1059C000206100BF00BF00BF206840F020002060C1
:1059D000206840F480702060206940F400702061ED
:1059E000206940F480702061206840F02000206031
:1059F0002120C4F8FC03206940F02000206100BF92
:105A000000BF00BF206840F020002060206840F404
:105A100080702060C4F8FC53206940F020002061B1
:105A200000BF00BF00BF206840F020002060206859
:105A300040F480702060206940F40070206120698B
:105A400040F480702061206840F020002060302009
:105A5000C4F8FC03206940F02000206100BF00BFB3
:105A600000BF206840F020002060206840F4807073
:105A70002060C4F8FC83206940F02000206100BF52
:105A800000BF00BF206840F020002060206840F484
:105A900080702060206940F400702061206940F42B
:105AA00080702061206840F0200020603120C4F820
:105AB000FC03206940F02000206100BF00BF00BF50
:105AC000206840F020002060206840F48070206052
:105AD00040F20770C4F8FC03206940F02000206108
