:020000040800F2
:1000000040050020ED010008C5230008312100084B
:10001000C123000839030008292D00080000000052
:10002000000000000000000000000000CD230008D8
:100030003D03000800000000C9230008D123000888
:10004000070200080702000807020008070200086C
:100050000702000807020008410300080702000821
:100060004903000807020008070200080702000809
:10007000070200080702000807020008070200083C
:10008000070200080000000007020008070200083D
:10009000070200080702000807020008070200081C
:1000A000070200080702000807020008070200080C
:1000B000F1230008FD2300080702000807020008DA
:1000C00007020008070200080702000807020008EC
:1000D000070200081D2D000807020008070200089B
:1000E00007020008070200080702000807020008CC
:1000F00007020008070200080702000800000000CD
:1001000000000000070200080000000007020008CD
:1001100007020008000000000702000807020008AC
:10012000070200080702000807020008070200088B
:10013000070200080000000000000000070200089D
:10014000070200080702000800000000000000008D
:10015000000000000000000000000000000000009F
:10016000000000000000000000000000070200087E
:10017000070200080000000000000000000000006E
:10018000000000000702000800000000000000005E
:10019000000000000000000000000000000000005F
:1001A000000000000000000007020008070200082D
:1001B000070200080702000807020008000000000C
:1001C000000000000702000800000000000000001E
:1001D0000702000807020008DFF80CD000F094F8CE
:1001E000004800472D2D00084005002006488047A4
:1001F00006480047FEE7FEE7FEE7FEE7FEE7FEE70C
:10020000FEE7FEE7FEE7FEE7D5230008D901000878
:100210002DE9F05F0546002092469B46884606463B
:10022000814640241BE0284641464746224600F0CE
:100230005AF853465A46C01A914110D311461846EF
:10024000224600F041F82D1A67EB01084F4622467E
:100250000120002100F038F817EB00094E41201E64
:10026000A4F10104DFDC484631462A464346BDE896
:10027000F09F40EA01039B0703D009E008C9121F61
:1002800008C0042AFAD203E011F8013B00F8013B50
:10029000521EF9D27047D2B201E000F8012B491E7C
:1002A000FBD270470022F6E710B513460A46044613
:1002B0001946FFF7F0FF204610BD421C10F8011B45
:1002C0000029FBD1801A7047202A04DB203A00FA6B
:1002D00002F1002070479140C2F1200320FA03F39D
:1002E000194390407047202A04DB203A21FA02F09B
:1002F0000021704721FA02F3D040C2F12002914060
:1003000008431946704700001CB509480090094889
:1003100001900546009C06E0E06840F0010394E887
:10032000070098471034AC42F6D3FFF759FF00009E
:10033000F82E0008182F0008FEE7000070470000A4
:10034000012000F061B80000042000F05DB800005A
:100350007047000090F82510022931D180B501685E
:10036000D0E910CE826C0B6823F00E030B600B6893
:1003700023F001030B60116821F4807111600EF00D
:100380001F02012101FA02F2CCF80420D0E9133255
:100390005A60426D32B1136823F480731360D0E960
:1003A0001623536080F82510826B002180F82410FA
:1003B0000AB190470021BDE880400846704700BF61
:1003C0000421C1630121002280F8251080F8242037
:1003D00008467047012818BF704710B540F6004422
:1003E000C4F60004A4F580604FF4004100F0E0F88A
:1003F00020460421012200F0E3F8204604210022D7
:10040000BDE8104000F0DCB840F21441C4F2010134
:100410000A68024214BF08607047FFF7DBBF0000A4
:100420000A68002A08BF70472DE9F04F82B041F2F8
:10043000004500F138478605C4F60005062340F262
:10044000004E46EA9724A84208BF0523C4F2010ED5
:10045000052C38BF234600244FF0010B002600274F
:10046000009309E00A68013732FA07F306F104063F
:1004700004F1020400F098800BFA07F912EA090867
:10048000F0D04A6842F01005122D13D16FF003022C
:1004900002EA57020244D2F820A006F01C030F25FE
:1004A000D1F810C09D402AEA05050CFA03F32B434E
:1004B00013624A6803680325A5406FEA050AAB4347
:1004C00002F00305A5402B43122A036012D80BFA51
:1004D00002F313F0061F0DD08368CD6803EA0A0308
:1004E000A5402B4383604368150923EA0903BD40F7
:1004F0002B434360C3688D6803EA0A03A5402B437E
:10050000D200C360AED541F26003C4F202031A68A0
:100510004FF6084942F001021A601A68CFF6FF79D7
:1005200002F001020192019A27F00302724452F88C
:1005300009C006F00C050F23AB402CEA030C009B0E
:1005400003FA05F545EA0C0342F80930DEF800C06D
:100550004B684CEA0805DA0358BF2CEA0805CEF8C8
:100560000050DEF804C09A034CEA080558BF2CEA94
:100570000805CEF80450DEF808C0DA024CEA080597
:1005800058BF2CEA080540F20C4CCEF80850C4F2D3
:10059000010CDCF800209B0242EA080558BF22EA61
:1005A0000805CCF800505DE702B0BDE8F04F704799
:1005B000426928230A4208BF1823C150704700002F
:1005C0001823002A08BF2823C150704740F23C106E
:1005D000C2F200000068704740F2000040F23C1197
:1005E000C2F20000C2F2000140680A6810440860CC
:1005F0007047000080B5032000F092F8002000F062
:1006000009F800281CBF012080BD00F029F8002057
:1006100080BD000070B540F20006C2F200067168AD
:10062000E1B1044640F20800C2F200004FF47A72D1
:100630000068B2FBF1F1B0FBF1F000F0ADFE0F2C61
:100640004FF0010508D838B94FF0FF30214600229D
:10065000002500F039F83460284670BD012070BDD7
:1006600082B041F25800C4F20200816841F00101F9
:100670008160816801F0010101910199016841F0F7
:1006800080510160006800F080500090009847F2AF
:100690000800C4F20000016821F48041016002B04A
:1006A00070470000002848BF704700F01F0101227A
:1006B00002FA01F11C2202EAD0004EF20012CEF240
:1006C000000281507047000010B54EF60C5CCEF26F
:1006D000000CDCF80030C3F3022E8EF00704042C6B
:1006E00028BF0424BEF103034FF0FF3E0EFA04F4CA
:1006F00038BF0023A14399400EFA03F39A431143F4
:1007000000F00F0200F160430901043A03F564436D
:100710006244002848BF02F10C03197010BD0000AC
:100720004EF60C51CEF200010A684FF6FF031A4054
:1007300060F30A2242F0806040F0FD70086070476C
:10074000B0F5007F42D0002840F0808047F21400CE
:10075000C4F2000050F8141CC26E01F4C06122F40F
:100760008072B1F5806FC2662ED150F8141C012240
:1007700062F34A2140F8141C40F20801C2F2000161
:100780000968322251434DF68362C4F21B32A1FB49
:100790000212910C0268520511D54A1C0FD0026852
:1007A00052050CD559B10268520508D5012906D069
:1007B0000268520503D50229A1F10401EAD10068BB
:1007C000400544BF032070470020704747F21400E3
:1007D000C4F2000050F8141CC26E01F4C06142F46F
:1007E0008072B1F5806FC266EED150F8141C012200
:1007F00062F34A2140F8141C40F20801C2F20001E1
:100800000968322251434DF68362C4F21B32A1FBC8
:100810000212910C0268520511D54A1C0FD00268D1
:1008200052050CD559B10268520508D5012906D0E8
:100830000268520503D50229A1F10401EAD100683A
:10084000400544BF03207047BEE700BF47F21400D5
:10085000C4F2000050F8141C022262F34A2140F84E
:10086000141C0020704700002DE9F04182B00446BE
:10087000807841F288060007C4F2020602D4002004
:100880002FE000BF56F8300C5FEAC0080BD456F8D2
:10089000300C40F0805046F8300C56F8300C00F028
:1008A00080500190019847F20007C4F200073868B1
:1008B00040F480703860FFF789FE05463868C0054F
:1008C00000F1D680FFF782FE401B0228F6D90320F4
:1008D000B8F1000F05D456F8301C21F0805146F8CD
:1008E000301C2168CA0713D18A0719D44A071FD4BC
:1008F0000A0725D48A062BD44A0631D40A0637D4EF
:10090000CA053DD48A0543D44A0549D457E000BFFF
:100910003268636822F003021A4332608A07E5D521
:100920003268A36822F00C021A4332604A07DFD50E
:100930003268E36822F030021A4332600A07D9D5E0
:100940003268236922F0C0021A4332608A06D3D586
:100950003268636922F440621A4332604A06CDD598
:100960003268A36922F440521A4332600A06C7D59E
:100970003268E36922F440421A433260CA05C1D5A5
:100980003268236A22F440321A4332608A05BBD5AA
:100990003268636A22F440221A4332604A050ED557
:1009A0003268A36A22F440121A43B3F5801F326002
:1009B00005D156F87C2C42F4801246F87C2C0A05AE
:1009C0000ED53268E36A22F440021A43B3F5800F71
:1009D000326005D156F87C2C42F4801246F87C2C0B
:1009E000CA040ED53268236B22F040721A43B3F169
:1009F000807F326005D156F87C2C42F4801246F894
:100A00007C2C8A040ED53268636B22F040621A4354
:100A1000B3F1006F326005D156F87C2C42F480129D
:100A200046F87C2C4A040ED53268A36B22F0406253
:100A30001A43B3F1006F326005D156F87C2C42F4B2
:100A4000801246F87C2C09040ED53168E26B21F047
:100A500040511143B2F1805F316005D156F87C1CE2
:100A600041F4803146F87C1C02B0BDE8F08100BF43
:100A7000B06810F4407010D0216C88420BD0B06880
:100A8000B16820F4407041F48031B160B16821F464
:100A90008031B160B060C0070CD1B068216C20F427
:100AA00040700843B0600020B8F1000F3FF519AF67
:100AB00011E700BFFFF78AFD054641F2883700BF06
:100AC000B0688007E9D4FFF781FD401BB842F7D931
:100AD000FDE600002DE9F047002865D042F2000A4B
:100AE000C4F2020A0446DAF800000D4600F00F00D6
:100AF00088420CD2DAF8000020F00F002843CAF830
:100B00000000DAF8000000F00F00A8424CD1216884
:100B100041F20808C807C4F2020803D1880740F16F
:100B2000D480B9E0606802283AD0032840D158F850
:100B3000082C920138D5D8F80420D8F8043042F2B5
:100B40000046C3F3031302F00302D8F80470013324
:100B5000C0F2F406032A04BF43F20066C0F26E1628
:100B6000B6FBF3F2D8F80430C7F306277A43C3F391
:100B70004163022707EB4303B2FBF3F24BF200435E
:100B8000C0F2C4439A425DD9D8F8002012F0F00FA9
:100B90004DD0890756D5A168002953D147E000BF41
:100BA00058F8081C890307D40120BDE8F08700BF6E
:100BB00058F8081C4905F7D5D8F8001001F00C01C9
:100BC00004293FD0D8F8001001F00C01082939D0D1
:100BD000D8F8001001F00C010C2933D1D8F804101A
:100BE000D8F8042042F20047C2F3031201F00301D7
:100BF000D8F804300132C0F2F407032904BF43F2ED
:100C00000067C0F26E17B7FBF2F1D8F80420C3F307
:100C100006235943C2F34162022303EB4202B1FBB4
:100C2000F2F14BF20042C0F2C44291420AD9D8F824
:100C30000010082262F307114FF00109C8F80010F4
:100C400002E000BF4FF00009D8F8001021F00301C6
:100C50000843C8F80000FFF7B9FC064641F28837A0
:100C6000D8F80000616800F00C00B0EB810F07D0ED
:100C7000FFF7ACFC801BB842F2D90320BDE8F08737
:100C80002168880708D4B9F1000F1ED0D8F80000F9
:100C900020F0F00017E000BF480705D5D8F80000A5
:100CA00040F4E060C8F80000080706D5D8F8000056
:100CB000072262F30D20C8F80000D8F80000A268EF
:100CC00020F0F0001043C8F80000DAF8000000F04F
:100CD0000F00A8421BD9DAF8000020F00F002843CB
:100CE000CAF80000FFF772FC064641F2883700BFE1
:100CF000DAF8000000F00F00A84207D0FFF766FC0A
:100D0000801BB842F4D90320BDE8F087216848076A
:100D100007D5D8F80000E26820F4E0601043C8F876
:100D20000000080708D5D8F80000216920F46050B9
:100D300040EAC100C8F80000D8F8000042F20041C3
:100D4000C0F2F40100F00C00042808462DD0D8F8B9
:100D5000000000F00C00082843F20060C0F26E10A2
:100D600023D0D8F8002002F00C020C2A1CD1D8F8AD
:100D70000420D8F8043002F00302C3F30313D8F8B8
:100D800004700133032A08BF0146B1FBF3F0D8F821
:100D90000410C7F30627C1F341610222784302EB36
:100DA0004101B0FBF1F000E00020D8F8001042F65D
:100DB000BE62C1F30311C0F60002515C40F20802AA
:100DC00001F01F0120FA01F140F20000C2F2000020
:100DD0000068C2F200021160BDE8F047FFF71ABCDC
:100DE00040F2080041F20801C2F20000C4F2020120
:100DF0000068096842F6CE62C1F30221C0F6000223
:100E0000515C01F01F01C8407047000040F208002B
:100E100041F20801C2F20000C4F202010068096850
:100E200042F6CE62C1F3C221C0F60002515C01F06D
:100E30001F01C8407047000041F20C01C4F20201DA
:100E400051F8040C42F20042C0F2F40200F00C002F
:100E50000428104608BF704751F8040C00F00C003D
:100E6000082843F20060C0F26E1025D051F8043C0F
:100E700003F00C030C2B1CBF0020704780B5D1F889
:100E800000C00B680CF0030CC3F3031E0B680EF1DB
:100E9000010EBCF1030F08BF02460968B2FBFEF069
:100EA000C3F30623C1F341610222584302EB41011F
:100EB000B0FBF1F0BDE8804070470000002804BF9F
:100EC000012070472DE9F04182B00446007841F2DC
:100ED0000006C007C4F202061ED1207880073DD468
:100EE0002078000764D42078400700F187802078BC
:100EF000800600F1D980E069002800F0C581B16862
:100F000001F00C010C2940F03181012840F084816E
:100F1000012002B0BDE8F081B06800F00C01F0687B
:100F2000082961D0032281F00C0122EA0000084464
:100F3000B0FA80F0400957D16068B0F5803F07D023
:100F4000B0F5A02F40F0E480306840F4802030609D
:100F5000306840F480303060E5E000BFB068F16890
:100F600000F00C00042871D001F0030180F00C00A7
:100F700081F002010844B0FA80F0400966D1E168CE
:100F80003068002900F0E08040F480703060FFF7A6
:100F90001DFB05463068400500F1FE80FFF716FB9B
:100FA000401B0228F6D9032002B0BDE8F08100BF43
:100FB0006169D6F89400002900F0948040F00100A7
:100FC000C6F89400FFF702FB054600BFD6F8940070
:100FD00080073FF588AFFFF7F9FA401B0228F5D9E3
:100FE000032002B0BDE8F081306880037FF575AF63
:100FF000606800287FF471AF3EE000BFB06D5FEA2B
:10100000C00808D4B06D40F08050B065B06D00F0FD
:1010100080500190019847F20007C4F20007386839
:10102000C0052DD4386840F480703860FFF7CEFAE0
:10103000054600BF3868C00522D4FFF7C7FA401B39
:101040000228F7D9032002B0BDE8F08130684005DE
:1010500001D5E06880B17068216920F0FE4040EA67
:101060000160706040F20000C2F200000068FFF70B
:10107000D1FA00283FF434AF012002B0BDE8F0817E
:10108000A068012808D0052840F0A480D6F8900078
:1010900040F00400C6F89000D6F8900040F001003F
:1010A000C6F89000A4E000BFA169D6F89800002916
:1010B00000F07A8040F00100C6F89800FFF786FA49
:1010C000054600BFD6F8980080073FF514AFFFF73C
:1010D0007DFA401B02284FF00300F3D902B0BDE8AF
:1010E000F08100BF20F00100C6F89400FFF76EFA0F
:1010F000054600BFD6F8940080077FF5F4AEFFF7F1
:1011000065FA401B0228F5D9032002B0BDE8F08142
:101110003168002821F480313160316821F4802168
:10112000316000F0CF80FFF751FA05463068800348
:101130003FF5D3AEFFF74AFA401B6428F6D90320E7
:1011400002B0BDE8F08100BF20F480703060FFF78E
:101150003DFA0546306840057FF5C2AEFFF736FA26
:10116000401B02284FF00300F4D9B7E7316802288A
:1011700021F08071316040F08B80FFF727FA05463F
:101180003068800140F1CA80FFF720FA401B022836
:101190004FF00300F4D9A1E77068216920F0FE4008
:1011A00040EA016070609BE620F00100C6F89800FC
:1011B000FFF70CFA054600BFD6F8980080077FF5C8
:1011C0009AAEFFF703FA401B02284FF00300F3D951
:1011D00084E700BFD6F89010002821F00101C6F87E
:1011E0009010D6F8901021F00401C6F8901079D034
:1011F000FFF7ECF9054641F2883700BFD6F89000BA
:10120000800700F18180FFF7E1F9401BB842F5D972
:10121000032002B0BDE8F081F068216A00F003020B
:101220008A427FF429AF626A6FF00F0300F0F00189
:1012300003EB021291427FF41FAFA16A00F4FE4259
:10124000B2EB012F7FF418AFE16A00F07842B2EB05
:10125000C16F7FF411AF226B0023CFF6E07303EA76
:10126000025200F4C001A2F5001291427FF404AFD3
:10127000616B4FF07E4202EA016100F0C06001F153
:101280007E4188427FF4F8AE002002B0BDE8F081D4
:10129000F0684FF6FF7120F00300F060F068CFF6C1
:1012A000EE610840F060FFF791F904463068800174
:1012B000EAD5FFF78BF9001B02284FF00300F5D9A0
:1012C0000CE700BFFFF782F9054600BF30688003D6
:1012D0007FF503AEFFF77AF9401B64284FF0030057
:1012E000F4D9FBE6FFF772F9054641F2883700BFF3
:1012F000D6F89000800707D5FFF768F9401BB84281
:101300004FF00300F4D9E9E6B8F1000F3FF5EFAD77
:10131000B06D20F08050B065E9E500BFF06848F29C
:101320000C01C0F29F1104F1200700EA010C8ECFDE
:101330006FF00F00D4E90C5400EB02100022CFF63E
:10134000E07241EA0C0102EA05520843A2F50012DC
:101350004FF07E4540EA032005EA0465104305F19D
:101360007E4540EAC7602843F060306840F08070F6
:101370003060F06840F08070F060FFF727F90446B5
:10138000306880013FF580AFFFF720F9001B02288D
:101390004FF00300F4D9A1E6411E0020B0EB116F1D
:1013A0001CBF012070474EF21002CEF200025160C5
:1013B0004EF62351CEF20001F0230B70072190600E
:1013C00011607047704700007047000070470000D0
:1013D00070470000704700007047000090F83C2004
:1013E000012A4FF002022ED010B580F83D2002688D
:1013F00043F20043D2F804E0D2F808C0C4F201037B
:101400009A4205D042F60043C4F201039A4204D145
:101410004C682EF4700344EA030E4FF68F73CFF638
:10142000FF530C6803EA0E03896823432CF0800401
:101430002143536091600121002280F83D1080F823
:101440003C20BDE810401046704700007047000087
:10145000002804BF0120704710B5044690F83D00F5
:1014600028B9002084F83C00204600F00DF8022046
:1014700084F83D002068211D00F0C6FF012084F89B
:101480003D00002010BD000010B582B0006840F2A1
:101490000041C4F20001884212D0B0F1804F29D13E
:1014A00041F25800C4F2020001681C2441F001011D
:1014B0000160006800F00100019001980EE000BF9B
:1014C00041F25800C4F2020001681D2441F00201FB
:1014D0000160006800F002000090009820460021A2
:1014E0000022FFF7F1F8204602B0BDE81040FFF7F8
:1014F000D9B800BF02B010BD00680722C168C0F2B1
:10150000010241F00101C16081681140062902D049
:10151000B1F5803F02D10020704700BF016841F063
:10152000010101600020704790F83C20012A4FF033
:10153000020200F0B78080B580F83D20D0F800C0EE
:101540008822DCF80830CFF6CE721A40CCF808209A
:101550000B686F2B22DD2F22C0F21002934247DC72
:10156000B3F1101F56DA702B00F0C080B3F5005FA6
:1015700040F09080D1E901E3C968DCF8082043EA33
:101580000E0322F47F4243EA01211143CCF80810F4
:10159000DCF8081041F480417AE000BF2F2B33DDE6
:1015A0004F2B3BDC302B69D0402B73D1D1F804E0BA
:1015B000C968DCF82030DCF8202022F00102CCF8E9
:1015C0002020DCF8182022F0F00242EA011123F07A
:1015D0000A0242EA0E02CCF81810CCF82020DCF8FF
:1015E00008104FF68872CFF6CF72114047314FE0A6
:1015F0005F21C0F210018B4236DC3021C0F21001B5
:101600008B423BD0402135E0C3B3102B36D0202B8A
:1016100034D03FE032D020212CE000BF502B43D00B
:10162000602B37D1D1F804E0C968DCF8203023F012
:101630001003CCF82030DCF81830DCF8202023F43C
:10164000704322F0A00243EA013142EA0E12CCF8C4
:101650001810CCF82020DCF808104FF68872CFF66E
:10166000CF721140673113E06021C0F210018B424C
:1016700004D07021C0F210018B420BD1DCF80810AD
:101680004FF68872CFF6CF721140194341F007012F
:10169000CCF808100121002280F83D1080F83C2091
:1016A000BDE8804010467047D1F804E0C968DCF816
:1016B0002030DCF8202022F00102CCF82020DCF8D9
:1016C000182022F0F00242EA011123F00A0242EA55
:1016D0000E02CCF81810CCF82020DCF808104FF6D9
:1016E0008872CFF6CF7211405731D1E7D1E901E3CB
:1016F000C968DCF8082043EA0E0322F47F4243EA7B
:1017000001211143CCF80810DCF8081041F07701F2
:10171000BEE700007047000010B501680446086984
:10172000800744BFC8685FEA807061D408694007D9
:1017300044BFC8685FEA407066D40869000744BFC8
:10174000C8685FEA00706DD40869C00644BFC86805
:101750005FEAC06072D40869C0071CBFC8685FEA4E
:10176000C07079D10869000644BFC8685FEA0060AC
:101770007AD40869C00544BFC8685FEA006000F118
:101780007B800869400644BFC8685FEA406000F19A
:101790007B800869800644BFC8685FEA806000F10A
:1017A0007B800869C00244BFC8685FEAC02000F1BE
:1017B0007B800869800244BFC8685FEA802000F12E
:1017C0007B800869400244BFC8685FEA402000F19E
:1017D0007B800869000246BFC8685FEA002010BD30
:1017E0006FF4000220460A61BDE81040FFF72EBEEC
:1017F0006FF00200086101202077886980076BD0B4
:101800002046FFF787FF6DE06FF0040008610220BB
:101810002077886910F4407F68D02046FFF77AFF70
:101820006AE000BF6FF00800086104202077C869F3
:10183000800765D02046FFF76DFF67E06FF010006E
:10184000086108202077C86910F4407F62D02046E4
:10185000FFF760FF64E000BF6FF001000861204601
:1018600000F066F821687DE76FF08000086120468F
:10187000FFF7AAFD21687CE76FF4807008612046BD
:10188000FFF7A0FD21687CE76FF04000086120466B
:1018900000F050F821687CE76FF0200008612046D6
:1018A000FFF794FD21687CE76FF480100861204603
:1018B000FFF790FD21687CE76FF400100861204677
:1018C000FFF786FD21687CE76FF480000861204601
:1018D000FFF782FD21687CE7204600F025F82046CE
:1018E00000F024F82168002020771FE7204600F050
:1018F0001BF8204600F01AF82168002020771CE72A
:10190000204600F011F8204600F010F82168002071
:10191000207719E7204600F007F8204600F006F887
:1019200021680020207716E770470000704700000C
:10193000704700007047000090F87C10012904BF38
:10194000022070472421C0F88010026811681368D3
:1019500023F00103136021F000530021416613605E
:101960002022C0F8802080F87C10084670470000D4
:101970007047000090F87C20012A04BF02207047C5
:10198000B0B52422C0F880200268D0F864E0D2F814
:1019900000C01368BEF1000F23F0010313609368C9
:1019A00023F0606341EA0301916019D09368916864
:1019B00042F6E86E490FC0F6000E42F6F0651EF8DA
:1019C0000140C0F60005695CC3F34263E400B4FB68
:1019D000F1F11EF80340EB5CE500B5FBF3F301E029
:1019E00001210123A0F86A102021A0F86830C2F874
:1019F00000C0C0F88010002180F87C10BDE8B04025
:101A00000846704790F87C20012A04BF02207047E6
:101A1000B0B52422C0F880200268D0F864E0D2F883
:101A200000C01368BEF1000F23F001031360936838
:101A300023F0604341EA0301916019D093689168F3
:101A400042F6E86E490FC0F6000E42F6F0651EF849
:101A50000140C0F60005695CC3F34263E400B4FBD7
:101A6000F1F11EF80340EB5CE500B5FBF3F301E098
:101A700001210123A0F86A102021A0F86830C2F8E3
:101A800000C0C0F88010002180F87C10BDE8B04094
:101A9000084670477047000070470000704700001C
:101AA00070B501680446CA690E688B6802F02F059C
:101AB000202D09D106F0200503F08050401910D0E8
:101AC000E16E00294DD170BD5FEA027C09D0012092
:101AD000C1F2000003EA000E06F4907010EB0E0055
:101AE00028D1D0020AD513F4800007D04FF4801219
:101AF00020460A62BDE87040FFF7CEBF100605D54C
:101B000006F0800003F40003C01827D150061BD54F
:101B100016F0400018D0086820F04000086020202F
:101B20000021C4F8800020462167BDE8704000F025
:101B3000FDBA00BFD00718BF16F4807022D19007FD
:101B400003F001052AD432E010020FD516F08040D0
:101B50000CD02046BDE87040FFF79CBF216F0029E4
:101B6000B1D02046BDE87040084700BFD001AAD5DB
:101B7000B6F1FF3FC8BF70BD2046BDE87040FFF71B
:101B8000F7BE00BF01200862D4F8880040F00100D1
:101B9000C4F88800900703F0010508D53DB1022084
:101BA0000862D4F8880040F00400C4F888005007A8
:101BB00008D53DB104200862D4F8880040F0020046
:101BC000C4F88800BCF1000F0CD506F0200050EAE4
:101BD0000E0007D008200862D4F8880040F0080002
:101BE000C4F88800D4F8880000283FF46CAF900651
:101BF0000AD506F0200003F08052801804D0E26E6F
:101C000012B1204690472168D4F888008A6800F015
:101C1000080002F04002801806D12046FFF73EFF80
:101C20000020C4F8880070BD08684FF6FE7220F4EA
:101C3000907008608868CEF6FF721040886020209F
:101C4000C4F884000020E0668868400614D58868DF
:101C500020F040008860A06F70B142F29161C0F640
:101C600000018163FEF776FB00283FF42CAFA06FE4
:101C7000816BBDE8704008472046BDE87040FFF723
:101C80000DBF000010B5A8B10446D0F8800028B9F7
:101C9000002084F87C00204600F026F82420C4F8B8
:101CA00080002068016821F001010160204600F0F9
:101CB000FDFD08B1012010BDA06A10B1204600F062
:101CC0002DFC2168486820F490404860886820F026
:101CD0002A008860086840F0010220460A60BDE8DA
:101CE000104000F091BC0000006843F60001C4F20F
:101CF0000101884218BF704780B586B041F24C00A0
:101D0000C4F20200416941F480414161416901F43A
:101D1000804101910199016841F001010160006871
:101D200001A900F00100019001984FF4C0600190FA
:101D3000022002900020CDE90300072005904FF01B
:101D40009040FEF76DFB252000210022FEF7BCFC31
:101D50002520FEF7A7FC06B0BDE8804070470000D4
:101D6000D0F88430202B0BD100294FF0010318BF8D
:101D7000002A01D11846704790F87C30012B01D120
:101D80000220704710B58165A0F85C20A0F85E20A5
:101D9000D0F808E0BEF1000F0AD0BEF1805F0BD092
:101DA000BEF5805F0CD1036923B940F2FF130AE04E
:101DB00003693BB9FF2306E003691BB13F2302E03F
:101DC000002300E07F23A0F860300023C0F88830B3
:101DD0002223C0F88430D0F800C0416E634653F827
:101DE000084FB1F1005F44F001041C6003D1B0F86A
:101DF0006810914210D9BEF5805F01D10169A9B187
:101E000042F2A571C0F60001C166002180F87C1085
:101E10004FF4907063461FE0BEF5805F01D1016909
:101E200051B142F60101C0F6000109E042F2A161A0
:101E3000C0F60001E8E700BF42F2FD61C0F6000114
:101E4000C166002180F87C10DCF8000040F480704E
:101E5000CCF800004FF08050196808431860002348
:101E6000BDE81040184670472DE9F041006843F680
:101E70000001C4F20101884202D0BDE8F08100BF38
:101E800040F21004C2F20004207840F60008A228B4
:101E9000C4F600081ED0A12818BFBDE8F081404656
:101EA0004FF400410022FEF78BFB40F64E50C0F28B
:101EB0000A00C4F8090044F62070C4F25050C4F877
:101EC000050044F24C50C3F24410C4F801004FF432
:101ED00000561BE040464FF4005100220025FEF75B
:101EE0006FFB44F25350C0F60D20C4F8090044F2D1
:101EF0002030C4F64C70C4F8050044F24C50C3F2D4
:101F000044104FF400466573C4F801004046314662
:101F10000022FEF755FB651C2846FEF7CEF940F27D
:101F2000B007C2F2000782B23846294642F2107367
:101F300000F018F8404631460122FEF741FB08F553
:101F40008065284604210122FEF73AFB2846042139
:101F50000022FEF735FB384621460122BDE8F0415C
:101F6000FFF7FEBE2DE9F04381B08146044659F8E3
:101F7000800F20280DD10D4600294FF0010000F000
:101F8000D2801646002A00F0CE8094F87C0001280A
:101F900004D1022001B0BDE8F08300BF012084F825
:101FA0007C000020C4F8880021209846C4F88000F6
:101FB000FEF70CFBA4F85460A4F85660A16806462E
:101FC000B1F5805F02D12069002869D02F46002535
:101FD000B4F85600002869D018F1010038D0B8F1E3
:101FE000000F07D1216828E0FEF7F0FA801B40457A
:101FF00000F284802168C8690006F5D517B117F88A
:10200000010B04E035F8020B00276FF35F208862B4
:10201000B4F856000138A4F85600B4F85600002869
:10202000E9D138E017F8010B8862B4F8560001389E
:10203000A4F85600B4F8560068B3C86900065BD52A
:10204000002FEFD135F8020B00276FF35F20EBE78D
:10205000216802E0C869000609D4C869000606D4F0
:10206000C86900065CBFC8695FEA0060F2D51FB1AD
:1020700017F8010B05E000BF35F8020B00276FF3DE
:102080005F208862B4F856000138A4F85600B4F80E
:1020900056000028E1D1C86940062BD40AE000BFF1
:1020A0000027B4F8560000287FF496AF2168C8696D
:1020B00040061FD4B8F1000F1ED018F1010013D153
:1020C000C869400616D4C869400613D4C8694006DA
:1020D00010D4C86940064FF00000F1D51DE000BFE4
:1020E0002068C069400605D4FEF770FA801B4045A1
:1020F000F6D903E0002010E0FEF768FA206804F14A
:102100008409016821F4D0710160816821F0010126
:1021100081602020C4F8800003202021C9F800102D
:10212000002184F87C1001B0BDE8F0837047000006
:10213000FEE700002DE9F04786B04FF0000841F2BD
:102140004C00CDF81480C4F20200016840F2004453
:1021500041F0040101600168C4F6000401F00401CB
:1021600000910099016804F5806741F02001016049
:102170000168012201F020010091009901684FF4EB
:10218000204641F00201016001684FF0010901F0B1
:10219000020100910099016841F0010101600168AC
:1021A00001F0010100910099016841F0080101600E
:1021B00000684FF4204100F0080000900098384675
:1021C000FEF7FEF904F500652846042100224FF0D1
:1021D000040AFEF7F5F9CDE9016901AE384631464A
:1021E000CDE90388FEF71CF90027C1F2110720464C
:1021F0003146CDF80490CDE90278FEF711F907F5E4
:102200008010CDE9020820463146CDF804A0FEF743
:1022100007F928463146CDE901A9CDE90388FEF743
:10222000FFF8062000210022FEF74EFA0620FEF7F6
:1022300039FA082000210022FEF746FA0820FEF7AE
:1022400031FA06B0BDE8F08780B588B040F23000C2
:102250000021C2F200004FF0804241F63F7340F28D
:10226000CF7C0791CDE905110291C0E90023C0E9B7
:10227000021C01618161FFF7EBF8002818BFFEF72F
:1022800067F84FF48050049040F23000C2F2000032
:1022900004A9FFF749F9002818BFFEF759F80020F4
:1022A0000190039040F23000C2F2000001A9FFF754
:1022B00095F8002818BFFEF74BF808B080BD000065
:1022C00080B588B040F2700040F200420021C2F2B6
:1022D0000000C4F2000249F63F4340F2CF7C079170
:1022E000CDE905110291C0E90023C0E9021C01619A
:1022F0008161FFF7ADF8002818BFFEF729F84FF409
:102300008050049040F27000C2F2000004A9FFF770
:102310000BF9002818BFFEF71BF80020019003906E
:1023200040F27000C2F2000001A9FFF757F8002840
:1023300018BFFEF70DF808B080BD000080B540F270
:10234000B00043F60001C2F20000C4F20101002314
:102350004FF00C0C4FF4165280E80E00C0E9033326
:10236000C0E905C3C0E90733C0E90933FFF78AFCB8
:10237000002818BFFDF7ECFF40F2B000C2F20000E9
:102380000021FFF73FFB002818BFFDF7E1FF40F2F7
:10239000B000C2F200000021FFF7ECFA002818BFDD
:1023A000FDF7D6FF40F2B000C2F20000FFF7C4FA1A
:1023B000002808BF80BDBDE88040FDF7C9BF000010
:1023C000FEE7000070470000704700007047000003
:1023D000FEF702B94EF68850CEF20000016841F4D3
:1023E000700101604FF0006140F8801C70470000F0
:1023F00040F23000C2F20000FFF78EB940F27000E8
:10240000C2F20000FFF788B940F2FF7C0268C4F214
:10241000000C604522DD40F60003C4F20003984240
:1024200025D043F20043C4F2010398421FD042F684
:102430000043C4F20103984219D043F2FF33C4F2BF
:10244000010398421DDC60452ADCB0F1804F3DD08D
:1024500040F20043C4F2000336E000BFB0F1804F09
:1024600005D040F20043C4F200039842E5D14B6826
:1024700022F070021A4343F2FF33C4F20103984280
:10248000E1DD44F2FF33C4F20103984212DC43F26F
:102490000043C4F20103984218D044F2000311E053
:1024A00040F60003C4F2000398420FD042F6004306
:1024B00008E000BF44F60003C4F20103984205D0CF
:1024C00044F20043C4F20103984203D1CB6822F4E2
:1024D00040721A4380B54B6922F0800E8A6843EA45
:1024E0000E03D1F800C00360C262A0F18042A2F5E1
:1024F0009632830543EA9222072AC0F828C0BDE835
:10250000804007D8012303FA02F212F0E50F1CBF46
:10251000096901630121416170470000816ACA07AE
:102520000ED18A0717D44A0720D40A0729D4CA062D
:1025300032D48A063BD480B54A0644D458E000BF62
:102540000268D0F82CC0536823F4003343EA0C032C
:1025500053608A07E7D50268D0F830C0536823F487
:10256000803343EA0C0353604A07DED50268D0F893
:1025700034C0536823F4802343EA0C0353600A07F2
:10258000D5D50268D0F838C0536823F4004343EA35
:102590000C035360CA06CCD50268D0F83CC09368DF
:1025A00023F4805343EA0C0393608A06C3D5026880
:1025B000D0F840C0936823F4005343EA0C039360BF
:1025C00080B54A0614D50268D0F844C05368BCF5FB
:1025D000801F23F4801343EA0C03536008D1D2F820
:1025E00004C0D0F848E02CF4C00343EA0E03536063
:1025F000090658BF80BD0168C06C4A6822F40022F9
:102600001043486080BD000070B504460020C4F847
:102610008800FDF7DBFF216805460A6812070DD523
:10262000C86980020AD40026FDF7D0FF401B21684C
:10263000B6EB506F18D1C8698002F5D5086840071D
:1026400002D4002619E000BFC8690026400214D455
:10265000FDF7BCFF401B2168B6EB506F04D1C86981
:102660004002F5D5EDE700BF0868032620F4D070DE
:102670000860886820F0010088602020C4F880008D
:10268000C4F884000021304684F87C1070BD00003E
:10269000806A0021A0F85E10A0F85610FFF7FEB97E
:1026A000B0F860200168D0F88430222B20D1D1F816
:1026B00024C0836D02EA0C0223F8022B8365B0F874
:1026C0005E20013AA0F85E20B0F85E20002A18BF14
:1026D00070470A6822F490720A608A6822F0010248
:1026E0008A602021C0F884100021C166FFF7BCBBBE
:1026F000886940F008008861704700002DE9F043C8
:1027000081B00446B0F86050D0F8840022282DD162
:10271000B4F8686076B34FF6FE78CEF6FF784FF0E7
:102720002009002703E000BF013E300422D02068CA
:10273000A16D426A2A4021F8022BA165B4F85E100F
:102740000139A4F85E10B4F85E100029ECD10168DC
:1027500021F480710160816801EA080181602046EE
:10276000C4F88490E766FFF77FFBDDE72068082167
:10277000183011E0B4F85E0088B1B4F868108842EF
:102780000DD22068816821F08051816042F2A16100
:10279000C0F60001E166202102681143016001B02A
:1027A000BDE8F083B0F860100268D0F88430222BC6
:1027B00020D1526A836D11401970816D013181659C
:1027C000B0F85E100139A0F85E10B0F85E10002974
:1027D00018BF704701680A6822F490720A608A681C
:1027E00022F001028A602021C0F884100021C16615
:1027F000FFF73ABB906940F0080090617047000015
:102800002DE9F04381B00446B0F86050D0F8840060
:1028100022282FD1B4F8686086B34FF6FE78CEF642
:10282000FF784FF02009002703E000BF013E30048D
:1028300024D02068A16D406A28400870A06D013046
:10284000A065B4F85E000138A4F85E00B4F85E003C
:102850000028EBD12068016821F480710160816853
:1028600001EA080181602046C4F88490E766FFF71A
:10287000FBFADBE720680821183011E0B4F85E00AD
:1028800088B1B4F8681088420DD22068816821F0C0
:102890008051816042F2A571C0F60001E1662021FD
:1028A00002681143016001B0BDE8F08370B50646CF
:1028B000D6E90213D6E90425006811432943D6F866
:1028C0001CE0756E026846F6F314CCF6FF742240E5
:1028D0002943114341EA0E01016041684FF2FF456F
:1028E00021F440511943416048F20003B169C4F238
:1028F000000398421CBF326A11438268C1F2FF157F
:102900002A4011438160C16AD6F824C021F00F012A
:1029100041EA0C01C16244F6FF31C4F20001884271
:102920004FF0100516DD44F60041C4F20001884264
:1029300024D098422AD043F60001C4F20101884213
:102940003AD141F28801C4F202010D680FF2BC31A4
:102950002EE000BF44F20041C4F2000188421DD0C5
:1029600044F60001C4F20001884225D141F28801F9
:10297000C4F2020109680D0916E000BF41F28801A6
:10298000C4F2020109688D090EE000BF41F288011E
:10299000C4F2020109688D0A06E000BF41F2880115
:1029A000C4F2020109688D0842F6D861C0F6000140
:1029B00005F0030251F82250984221D0BEF5004F95
:1029C00040D1082D4FF0010000F29981DFE815F0A9
:1029D0000A008000880097019400970197019701F1
:1029E000A20000BFFEF7FCF9716A0B2980F08A8013
:1029F00042F67C62C0F6000252F8211087E000BF68
:102A0000082D4FF0010000F27A81DFE815F009008F
:102A10007801390078014500780178017801570084
:102A2000FEF7DEF9D6F824C0BCF10B0F3BD34FF014
:102A3000010108BF4FF48071B0FBF1F3002B40F0AF
:102A4000AE800CE1082D4FF0010000F25881DFE864
:102A500015F009006D00730056017F005601560104
:102A600056018D00FEF7BCF9716A0B2976D242F649
:102A70007C62C0F6000252F82110B0FBF1F0E4E0F5
:102A8000BCF10B0F80F07C8042F67C60C0F6000049
:102A900050F82C0077E000BFFEF7CEF9D6F824C03E
:102AA000BCF10B0FC3D242F67C61C0F6000151F8B5
:102AB0002C10B0FBF1F3002B71D1D0E0BCF10B0F67
:102AC00066D242F6A860C0F6000030F81C0062E052
:102AD000FEF79CF9716A0B29FFF48AAF12E000BF80
:102AE000BCF10B0F80F07E8042F67C60C0F60000E7
:102AF00050F82C0079E000BFFEF79EF9716A0B29AF
:102B0000FFF476AF4FF0010108BF4FF48071B0FBC6
:102B1000F1F170E0BCF10B0F80F0728042F6A8601A
:102B2000C0F6000030F81C006DE000BFFEF76EF943
:102B3000716A0B299BD311E0BCF10B0F80F07680FA
:102B400042F67C60C0F6000050F82C0071E000BF37
:102B5000FEF772F9716A0B29FFF489AF4FF001019A
:102B600008BF4FF48071B0FBF1F06EE0BCF10B0FC9
:102B700064D242F6A860C0F6000030F81C0060E0A5
:102B800008BF4FF4807042F20041C0F2F40104E04B
:102B900008BF4FF480704FF40041B1FBF0F372684E
:102BA00002EB420083424FF00100C0F0A880110305
:102BB0008B4200F2A480082D00F2A180DFE805F02E
:102BC000069F529F5C9F9F9F6C0000BFFEF708F915
:102BD000716A0B2955D34FF0010108BF4FF4807182
:102BE00055E000BF08BF4FF4807042F20041C0F2D0
:102BF000F401B1FBF0F17068490042080AE000BF3F
:102C000008BF4FF480704FF40041B1FBF0F17068E1
:102C10004A0041081144B1FBF0F04FF6F071014059
:102C20006CD0C0F34200084317E000BF08BF4FF468
:102C3000807042F20041C0F2F40104E008BF4FF49A
:102C400080704FF40041B1FBF0F0716800EB51006F
:102C5000B0FBF1F080B2102850D33168C86000207A
:102C60004DE000BFBCF10B0F20D242F67C60C0F6F5
:102C7000000050F82C001CE0FEF7DEF8716A0B290A
:102C8000A9D242F67C62C0F6000252F82110B0FBD5
:102C9000F1F07268010E13E0BCF10B0F1AD242F68C
:102CA000A860C0F6000030F81C0016E008BF4FF422
:102CB000807042F20041C0F2F401B1FBF0F000215B
:102CC000000210EB520041F100010023FDF7A0FAD1
:102CD0000CE000BF08BF4FF480704FF40041B1FB1F
:102CE000F0F0000200EB5200B0FBF2F04FF60052A1
:102CF000A0F54071C0F20F029142AED301204FF017
:102D000001110022C6E91A12326770BD01000000ED
:102D100004000000020000000800000040F2B000C3
:102D2000C2F20000FEF7BCBEFEE70000A4B0FDF753
:102D300061FC6C46002504F108003C211C95CDE99E
:102D40001A55CDE91855FDF7ADFA4FF40070FDF7AF
:102D5000F7FC4FF4803017900220142101261D90BB
:102D60000327CDE92010CDE9220016A81696CDE95B
:102D70001E77FEF7A3F80F20CDE9110711A8032154
:102D8000CDE913551595FDF7A5FE2046CDE9006563
:102D9000FDF76AFDFFF7CEF9FFF756FAFFF790FA55
:102DA000FFF7CCFA40F23000C2F20000FEF7A4FBBD
:102DB00040F27000C2F20000FEF79EFB40F60004F5
:102DC000C4F6000420464FF400410122FDF7F8FB51
:102DD00020464FF400510122FDF7F2FB04F5806517
:102DE000284604210122FDF7EBFB2846042100229E
:102DF000FDF7E6FB40F21005C2F200056F1C12A1C0
:102E000038461122FDF735FA20464FF400410122E1
:102E1000FDF7D6FB3846FDF750FA40F2B006C2F295
:102E2000000682B23046394642F21073FFF79AF834
:102E300020464FF400410022FDF7C2FB30462946F0
:102E40000122FEF78DFFF9E768656C6C6F20776FE4
:102E5000726C642021210D0A0000000002E008C805
:102E6000121F08C1002AFAD170477047002001E004
:102E700001C1121F002AFBD17047000001000000B1
:102E8000020000000400000006000000080000002E
:102E90000A0000000C0000001000000020000000EC
:102EA0004000000080000000010002000400060055
:102EB00008000A000C001000200040008000000004
:102EC00000000000000001020304060708090000DA
:102ED00000000102030400000000000004000000E4
:102EE00002000000080000000101010307010000CA
:102EF0000804020408010101182F00080000002046
:102F0000100000005C2E0008282F00081000002090
:102F1000300500006C2E00081000000001000000C9
:082F20000024F4000000000091
:04000005080001D915
:00000001FF
