:020000040800F2
:10000000C0040020ED01000851270008DD1C000895
:100010004D27000811040008854700080000000073
:100020000000000000000000000000006147000820
:100030001504000800000000552700086547000867
:10004000070200080702000807020008070200086C
:10005000070200080702000807020008070200085C
:10006000070200080702000807020008070200084C
:10007000070200080702000807020008070200083C
:10008000070200080000000007020008070200083D
:10009000070200080702000807020008070200081C
:1000A000070200080702000807020008070200080C
:1000B00007020008070200080702000807020008FC
:1000C00007020008070200080702000807020008EC
:1000D00007020008070200080702000807020008DC
:1000E00007020008070200080702000807020008CC
:1000F00007020008070200080702000800000000CD
:1001000000000000070200080000000007020008CD
:1001100007020008000000000702000807020008AC
:10012000070200080702000807020008070200088B
:10013000070200080000000000000000070200089D
:10014000070200080702000800000000000000008D
:10015000000000000000000000000000000000009F
:10016000000000000000000000000000070200087E
:10017000070200080000000000000000000000006E
:10018000000000000702000800000000000000005E
:10019000000000000000000000000000000000005F
:1001A000000000000000000007020008070200082D
:1001B000070200080702000807020008000000000C
:1001C000000000000702000800000000000000001E
:1001D0000702000807020008DFF80CD000F040F822
:1001E0000048004789470008C004002006488047AF
:1001F00006480047FEE7FEE7FEE7FEE7FEE7FEE70C
:10020000FEE7FEE7FEE7FEE769470008D9010008C0
:10021000D2B201E000F8012B491EFBD27047002248
:10022000F6E710B513460A4604461946FFF7F0FFF5
:10023000204610BD30B50B46014600202022012487
:1002400009E021FA02F59D4205D303FA02F5491BA4
:1002500004FA02F52844151EA2F10102F1DC30BDBA
:100260001CB509480090094801900546009C06E02D
:10027000E06840F0010394E8070098471034AC426E
:10028000F6D3FFF7ADFF0000545D0008745D000871
:1002900070B5044600688268836802F0040203F0C7
:1002A0000803D21800F0B280C26892016ED5627F56
:1002B000012A6BD1227F012A68D10168490661D4E5
:1002C0000121CAF24031026852065BD4026852062C
:1002D00058D4026852065CBF02685FEA426251D499
:1002E000026852065CBF02685FEA42624AD4026852
:1002F00052065CBF02685FEA426243D4026852065B
:100300005CBF02685FEA42623CD4026852065CBF8E
:1003100002685FEA426235D4026852065CBF026836
:100320005FEA42622ED4026852065CBF02685FEA4E
:10033000426227D4026852065CBF02685FEA4262EA
:1003400020D4026852065CBF02685FEA426219D498
:10035000026852065CBF02685FEA426212D4026819
:1003600052065CBF02685FEA42620BD40268520622
:100370005CBF02685FEA426204D41B393BD002686A
:100380005206A0D540210160012105E0022903D1D8
:100390000221082612E000BF826852070AD582684F
:1003A000920707D482684FF6C073C7F6FF731A40EE
:1003B0001032826001294FF0040610D082681207C3
:1003C0000AD58268920707D482684FF6C073C7F6D1
:1003D000FF731A4020328260032908BF0C2600F008
:1003E00001FE05462068806830420FD000F0FAFD1B
:1003F000401B0628F6D3E06D40F01000E065206E4B
:1004000040F001002066012070BD00BF002070BDDB
:10041000FEE70000704700007047000090F8582089
:10042000012A04BF022070470268B2F1A04F09D030
:10043000C16D41F02001C1650121002280F85820E2
:100440000846704770B540F208324FF6006C4FF620
:100450000055C5F20002CFF6FF7CCFF6FF7552F8CB
:100460000C40535923435B071ED4D1F800E01368B6
:10047000BEF1000F23F460441CD04B6890F8386044
:1004800043EA463323431360535952F80C60334315
:10049000DB071BD1136840F61F768968B343194305
:1004A00041EA0E0111E000BFC16D41F02001C165BC
:1004B00001210CE01460515952F80C301943C9075E
:1004C00004D1116840F61F73994311600021BDE803
:1004D0007040002280F8582008467047F0B581B07F
:1004E0000022009290F85820012A03D102210846E8
:1004F00001B0F0BD0123076880F85830BB685B0786
:1005000034D4D1E900351F26C5F3012407EB840458
:10051000226B05F01F05AE40C3F38463B243AB40CA
:100520001A432263BA68BB6802F0040203F00803AE
:10053000D21840F0BC800A6807F114030426C2F305
:100540004064D1F808E006EAD25C53F82440C2F3D4
:1005500004550722AA40BEF1004F24EA02040BD141
:1005600043F80C401A6842F000430DE0C16D41F0C1
:100570002001C16501216AE10EFA05F2224343F828
:100580000C201A6822F000437B61D1E90435FC6835
:10059000042B5FD13A6E3A6E0B68C2F3846293FA11
:1005A000A3F6C3F3846C6FF3DF43B6FA86F5002B32
:1005B0002C464FF6FF7E08BF6446A242C0F2070EEB
:1005C0000CD13A6E22F000423A660A6802EA0E0343
:1005D000C2F3846C92FAA2F2B2FA82F57A6E7A6E63
:1005E000002BC2F384622C4608BF6446A2420CD1A1
:1005F0007A6E22F000427A660A6802EA0E03C2F3BB
:10060000846C92FAA2F2B2FA82F5BA6EBA6E002B3C
:10061000C2F384622C4608BF6446A2420CD1BA6E73
:1006200022F00042BA660A6802EA0E03C2F3846C42
:1006300092FAA2F2B2FA82F5FA6EFA6E002BC2F3C7
:10064000846208BF6546AA4231D1FA6E22F00042A8
:10065000FA662CE0062202EA940205FA02FC0E6811
:1006600007F1600555F823404FF20002C0F2FF3257
:1006700006F0F846224046EA0C06324342F00042B9
:1006800045F823200A698B6955F8226026F08076A8
:10069000334345F822300A690B7F55F82260012B5D
:1006A00026F0007608BF06F1007645F82260BA68A9
:1006B0000D68D20744D1CA68D7F8B0602B466FF3F3
:1006C000DF4326EA030C4FF6FF7602F01804C0F26F
:1006D0000706E64000242E40C4F27F0446EA0C06DA
:1006E000A242C7F8B0602BD195FAA5F2B2FA82F215
:1006F000002B08BFC5F38462013202F01E0302F032
:100700001F0201260025964002EB4202CFF620652B
:1007100005EB0255354345F000750A2B38BF46EA14
:100720000255C5F3406307EB83038A685E69C5F32E
:1007300004550724AC40A643AA4032435A610D68D1
:100740000021C8F208010D4200F0808040F2083C10
:10075000C5F2000CDCF800400021CCF221318D42C2
:1007600004F0E07E04D01021C9F2C0018D423FD1D7
:10077000B7F1A04F4FF0000108BF14F4000266D19A
:10078000DCF8001042F6635221F0E07141EA0E01FC
:1007900041F40001CCF8001040F20C01C2F200015B
:1007A0000968C0F23E528909A1FB0212910901EBCE
:1007B0004101890000910099002947D00099013931
:1007C00000910099002941D00099013900910099C8
:1007D000E1B30099013900910099B9B30099013949
:1007E0000091009900294FF00001E7D12FE000BFF0
:1007F0000021CCF252718D4210D10021B1EB1E6F5D
:100800000CD1ACF502718F4220D0DCF8001021F041
:10081000E07141EA0E0141F0807115E0ACF5027122
:100820008F424FF0000112D00022CCF68432954264
:1008300008BF14F480020AD1DCF8001021F0E07146
:1008400041EA0E0141F48001CCF8001000210022A1
:1008500080F85820084601B0F0BD00000068006C28
:1008600070470000B0B582B00446002001904CB142
:10087000E06D58B121688868800012D48868C00093
:1008800019D548E0012002B0B0BD00BF204600F0FD
:100890000BF90020206684F85800216888688000E1
:1008A000ECD588684FF6C072C5F6FF7210408860BC
:1008B0008868C0002FD44FF6C0728868C5F6FF72F2
:1008C00002F18052104000F18050886040F20C002C
:1008D000C2F20000006842F663528009C0F23E5244
:1008E000A0FB0202900901900198A0B10198013883
:1008F0000190019878B1019801380190019850B1A8
:10090000019801380190019828B1019801380190AF
:1009100001980028EAD18868C00009D4E06D40F051
:100920001000E065206E40F001002066012000E02C
:1009300000208A68E36D02F0040203F01003D2186D
:10094000E26D77D122F481720232E2658A68D207C1
:100950001AD140F2083C4FF600534FF60062C5F240
:10096000000CCFF6FF73CFF6FF725CF803305CF833
:1009700002201A43D20707D16268DCF8003023F462
:100980007C131A43CCF8002094F81DE0E36BD4E903
:1009900002C243EA4E331A4394F8243042EA0C026E
:1009A000012B42EA034207D1D4F828C00023CFF636
:1009B000FE7303EB4C431A43E36A33B1D4F830C0FF
:1009C00003F4787343EA0C031A43D1F80CC044F2E1
:1009D0000703CFF6F07303EA0C031A43CA600A69EF
:1009E000636B22F040621A430A618A688B6802F0E6
:1009F000040203F00803D21845D194F83820237F6D
:100A0000520042EA833CCB6844F2020223EA02022B
:100A100042EA0C02CA6022690B698AB143F480334E
:100A20000B61D1F8C0C043F6FF732CEA03031A43ED
:100A30000EE000BF42F010010120E16502B0B0BD40
:100A400023F480320A61D1F8C02043F6FF739A4341
:100A5000C1F8C02094F840300A69012B10D140F24F
:100A6000FD7322EA030CD4E91132D4E913E543EA19
:100A70000C031A4342EA0E022A4342F0010201E04B
:100A800022F001020A6162690B6B012A23F00F0256
:100A900002D1236A013B1A430A63E16D012262F32A
:100AA0000101E16502B0B0BD80B586B000680021EB
:100AB000B0F1A04F0591049102D006B080BD00BFF7
:100AC00041F24C00C4F20200026842F4005202609B
:100AD000026802F400520092009A026842F0010299
:100AE0000260006800F00100009000980120019071
:100AF0000320CDE9020101A94FF0904000F0A4F9D4
:100B000006B080BD2DE9F04740F208390446C5F231
:100B10000009D9F80000D4F818800D46B8F1080F84
:100B200000F01F0A02D108270FE000BFBAF1090F39
:100B30006AD8012000FA0AF040F22121084263D06D
:100B40002068C068C00764D1042700F04BFA216810
:100B50000A683A423CD0E06D40F40070E065C86835
:100B600010F4406F0FD1607F68B9086800070AD59C
:100B7000E06D20F48070E065E06DC00403D4E06DAA
:100B800040F00100E065A9F502708142084608BF07
:100B90004FF0A0400246BAF1090F08BF0A46BAF169
:100BA000050F08BF0A46BAF1000F08BF0A4688427F
:100BB00008BF0246D068B8F1080F01D1082002E052
:100BC000400401D40C2008600020BDE8F08700BF7D
:100BD00035B30646681C0DD108683842BBD1086899
:100BE0003842B8D108683842B5D108683842F3D0E5
:100BF000B1E700BF00F0F6F9801BA84212D82168C7
:100C000008683842F6D0A6E7D9F8000010F4604F23
:100C10009AD0E06D40F02000E0650120BDE8F0874B
:100C200000F0E0F9E06D40F00400E065002084F899
:100C300058000320BDE8F0872DE9F04140F200178D
:100C4000C5F200070446D7F80862006881684907C2
:100C500003D494F85810012902D10220BDE8F08194
:100C6000012184F8581081684FF6C078C907C7F68B
:100C7000FF7831D1816808F17F0211420ED0E06D1A
:100C800040F01000E065206E40F00100206600207A
:100C900084F858000120BDE8F08100BF816801EAB6
:100CA000080141F00101816000F09CF9054604E073
:100CB00000F098F9401B0228E1D820680168C907B4
:100CC0000AD18168C907F3D1816801EA080141F0BE
:100CD00001018160ECE700BFE16D40F601739943CB
:100CE00006F01F0201F580760146B84208BF4FF0BA
:100CF000A0410B1AB3FA83F35B09E66500D11AB978
:100D0000E76D27F48017E765E66D0027F6044FF0DE
:100D1000000644BF266E26F0060626661C260660E0
:100D200084F8587043B9092A18D8012303FA02F24B
:100D300040F221231A4211D0C168890104D5E16D26
:100D4000012262F30D31E165816801EA080141F099
:100D5000040181600020BDE8F08100BFE06D40F437
:100D60008010E065C868800104D5E06D012161F361
:100D70000D30E0650020BDE8F0810000B0B504460C
:100D800090F85800012804BF0220B0BD012520467C
:100D9000032184F85850FFF77BFA28B1002084F82B
:100DA00058002846B0BD00BF206881688268D2071D
:100DB00026D011F0020123D1816801F00D01012933
:100DC00015D181684FF6C072C7F6FF72114002312B
:100DD00081600321016000F005F905462068806804
:100DE000C0070DD000F0FEF8401B0328F6D3E06DDD
:100DF000012540F01000E065204650F8601F06E035
:100E0000204650F85C1F41F201129143002541F049
:100E100001010160002084F858002846B0BD0000A0
:100E2000B0B5044600F0DEF8054640F20000C2F21C
:100E300000004068611C18BF044400BF00F0D2F8F5
:100E4000401BA042FAD3B0BD0A68002A08BF704711
:100E50002DE9F04F82B041F2004500F13847860598
:100E6000C4F60005062340F2004E46EA9724A84245
:100E700008BF0523C4F2010E052C38BF2346002409
:100E80004FF0010B00260027009309E00A680137A4
:100E900032FA07F306F1040604F1020400F0988028
:100EA0000BFA07F912EA0908F0D04A6842F0100577
:100EB000122D13D16FF0030202EA57020244D2F856
:100EC00020A006F01C030F25D1F810C09D402AEA8F
:100ED00005050CFA03F32B4313624A6803680325E4
:100EE000A5406FEA050AAB4302F00305A5402B437A
:100EF000122A036012D80BFA02F313F0061F0DD06A
:100F00008368CD6803EA0A03A5402B4383604368E6
:100F1000150923EA0903BD402B434360C3688D686C
:100F200003EA0A03A5402B43D200C360AED541F2C9
:100F30006003C4F202031A684FF6084942F0010246
:100F40001A601A68CFF6FF7902F001020192019A45
:100F500027F00302724452F809C006F00C050F2373
:100F6000AB402CEA030C009B03FA05F545EA0C03A1
:100F700042F80930DEF800C04B684CEA0805DA0395
:100F800058BF2CEA0805CEF80050DEF804C09A03DA
:100F90004CEA080558BF2CEA0805CEF80450DEF8E4
:100FA00008C0DA024CEA080558BF2CEA080540F2EE
:100FB0000C4CCEF80850C4F2010CDCF800209B0267
:100FC00042EA080558BF22EA0805CCF800505DE760
:100FD00002B0BDE8F04F70471823002A08BF28234D
:100FE000C150704740F2BC00C2F200000068704778
:100FF00040F2000040F2BC01C2F20000C2F2000167
:1010000040680A68104408607047000080B50320FB
:1010100000F080F8002000F009F800281CBF012033
:1010200080BD00F029F8002080BD000070B540F2BE
:101030000006C2F200067168E1B1044640F20C00FD
:10104000C2F200004FF47A720068B2FBF1F1B0FB1B
:10105000F1F000F02DFE0F2C4FF0010508D838B943
:101060004FF0FF3021460022002500F027F83460C1
:10107000284670BD012070BD82B041F25800C4F214
:101080000200816841F001018160816801F0010185
:1010900001910199016841F080510160006800F000
:1010A00080500090009847F20800C4F200000168E8
:1010B00021F48041016002B07047000010B54EF687
:1010C0000C5CCEF2000CDCF80030C3F3022E8EF084
:1010D0000704042C28BF0424BEF103034FF0FF3E95
:1010E0000EFA04F438BF0023A14399400EFA03F32B
:1010F0009A43114300F00F0200F160430901043AE2
:1011000003F564436244002848BF02F10C031970E0
:1011100010BD00004EF60C51CEF200010A684FF6E9
:10112000FF031A4060F30A2242F0806040F0FD7035
:1011300008607047B0F5007F42D0002840F0808002
:1011400047F21400C4F2000050F8141CC26E01F4FF
:10115000C06122F48072B1F5806FC2662ED150F862
:10116000141C012262F34A2140F8141C40F20C01C5
:10117000C2F200010968322251434DF68362C4F283
:101180001B32A1FB0212910C0268520511D54A1CB8
:101190000FD0026852050CD559B10268520508D526
:1011A000012906D00268520503D50229A1F10401E4
:1011B000EAD10068400544BF032070470020704713
:1011C00047F21400C4F2000050F8141CC26E01F47F
:1011D000C06142F48072B1F5806FC266EED150F802
:1011E000141C012262F34A2140F8141C40F20C0145
:1011F000C2F200010968322251434DF68362C4F203
:101200001B32A1FB0212910C0268520511D54A1C37
:101210000FD0026852050CD559B10268520508D5A5
:10122000012906D00268520503D50229A1F1040163
:10123000EAD10068400544BF03207047BEE700BF05
:1012400047F21400C4F2000050F8141C022262F3AA
:101250004A2140F8141C0020704700002DE9F0419D
:1012600082B00446807841F288060007C4F2020684
:1012700002D400202FE000BF56F8300C5FEAC0080F
:101280000BD456F8300C40F0805046F8300C56F82D
:10129000300C00F080500190019847F20007C4F232
:1012A0000007386840F480703860FFF79BFE054601
:1012B0003868C00500F1D680FFF794FE401B022875
:1012C000F6D90320B8F1000F05D456F8301C21F0F0
:1012D000805146F8301C2168CA0713D18A0719D4F7
:1012E0004A071FD40A0725D48A062BD44A0631D4CC
:1012F0000A0637D4CA053DD48A0543D44A0549D4E1
:1013000057E000BF3268636822F003021A4332607C
:101310008A07E5D53268A36822F00C021A433260CE
:101320004A07DFD53268E36822F030021A433260A0
:101330000A07D9D53268236922F0C0021A43326005
:101340008A06D3D53268636922F440621A43326058
:101350004A06CDD53268A36922F440521A4332605E
:101360000A06C7D53268E36922F440421A43326064
:10137000CA05C1D53268236A22F440321A4332606A
:101380008A05BBD53268636A22F440221A43326070
:101390004A050ED53268A36A22F440121A43B3F507
:1013A000801F326005D156F87C2C42F4801246F83A
:1013B0007C2C0A050ED53268E36A22F440021A43F7
:1013C000B3F5800F326005D156F87C2C42F48012C0
:1013D00046F87C2CCA040ED53268236B22F040728A
:1013E0001A43B3F1807F326005D156F87C2C42F469
:1013F000801246F87C2C8A040ED53268636B22F08A
:1014000040621A43B3F1006F326005D156F87C2C6C
:1014100042F4801246F87C2C4A040ED53268A36B45
:1014200022F040621A43B3F1006F326005D156F8E2
:101430007C2C42F4801246F87C2C09040ED53168CD
:10144000E26B21F040511143B2F1805F316005D170
:1014500056F87C1C41F4803146F87C1C02B0BDE893
:10146000F08100BFB06810F4407010D0216C884249
:101470000BD0B068B16820F4407041F48031B160A5
:10148000B16821F48031B160B060C0070CD1B068A0
:10149000216C20F440700843B0600020B8F1000FC8
:1014A0003FF519AF11E700BFFFF79CFD054641F27C
:1014B000883700BFB0688007E9D4FFF793FD401B71
:1014C000B842F7D9FDE600002DE9F047002865D0C5
:1014D00042F2000AC4F2020A0446DAF800000D469D
:1014E00000F00F0088420CD2DAF8000020F00F0064
:1014F0002843CAF80000DAF8000000F00F00A84204
:101500004CD1216841F20808C807C4F2020803D18F
:10151000880740F1D480B9E0606802283AD00328F7
:1015200040D158F8082C920138D5D8F80420D8F8C2
:10153000043042F20046C3F3031302F00302D8F86A
:1015400004700133C0F2F406032A04BF43F20066BC
:10155000C0F26E16B6FBF3F2D8F80430C7F30627D4
:101560007A43C3F34163022707EB4303B2FBF3F271
:101570004BF20043C0F2C4439A425DD9D8F8002030
:1015800012F0F00F4DD0890756D5A168002953D12C
:1015900047E000BF58F8081C890307D40120BDE8C4
:1015A000F08700BF58F8081C4905F7D5D8F8001097
:1015B00001F00C0104293FD0D8F8001001F00C0113
:1015C000082939D0D8F8001001F00C010C2933D1CA
:1015D000D8F80410D8F8042042F20047C2F30312EE
:1015E00001F00301D8F804300132C0F2F4070329F6
:1015F00004BF43F20067C0F26E17B7FBF2F1D8F8F0
:101600000420C3F306235943C2F34162022303EBD0
:101610004202B1FBF2F14BF20042C0F2C4429142ED
:101620000AD9D8F80010082262F307114FF0010917
:10163000C8F8001002E000BF4FF00009D8F8001011
:1016400021F003010843C8F80000FFF7CBFC064671
:1016500041F28837D8F80000616800F00C00B0EB68
:10166000810F07D0FFF7BEFC801BB842F2D90320E0
:10167000BDE8F0872168880708D4B9F1000F1ED0B3
:10168000D8F8000020F0F00017E000BF480705D5AB
:10169000D8F8000040F4E060C8F80000080706D55C
:1016A000D8F80000072262F30D20C8F80000D8F82F
:1016B0000000A26820F0F0001043C8F80000DAF83B
:1016C000000000F00F00A8421BD9DAF8000020F05B
:1016D0000F002843CAF80000FFF784FC064641F2D9
:1016E000883700BFDAF8000000F00F00A84207D0EA
:1016F000FFF778FC801BB842F4D90320BDE8F087DF
:101700002168480707D5D8F80000E26820F4E060B7
:101710001043C8F80000080708D5D8F80000216970
:1017200020F4605040EAC100C8F80000D8F800007A
:1017300042F20041C0F2F40100F00C000428084617
:101740002DD0D8F8000000F00C00082843F200600B
:10175000C0F26E1023D0D8F8002002F00C020C2A40
:101760001CD1D8F80420D8F8043002F00302C3F3E7
:101770000313D8F804700133032A08BF0146B1FBF4
:10178000F3F0D8F80410C7F30627C1F34161022231
:10179000784302EB4101B0FBF1F000E00020D8F803
:1017A000001044F65A32C1F30311C0F60002515C36
:1017B00040F20C0201F01F0120FA01F140F200009A
:1017C000C2F200000068C2F200021160BDE8F047FA
:1017D000FFF72CBC002804BF012070472DE9F04121
:1017E00082B00446007841F20006C007C4F2020647
:1017F0001ED1207880073DD42078000764D420785B
:10180000400700F187802078800600F1D980E069E8
:10181000002800F0C581B16801F00C010C2940F0EE
:101820003181012840F08481012002B0BDE8F081BF
:10183000B06800F00C01F068082961D0032281F043
:101840000C0122EA00000844B0FA80F0400957D1A8
:101850006068B0F5803F07D0B0F5A02F40F0E4807D
:10186000306840F480203060306840F48030306070
:10187000E5E000BFB068F16800F00C00042871D00A
:1018800001F0030180F00C0081F002010844B0FA7D
:1018900080F0400966D1E1683068002900F0E080FE
:1018A00040F480703060FFF79DFB054630684005CE
:1018B00000F1FE80FFF796FB401B0228F6D90320BB
:1018C00002B0BDE8F08100BF6169D6F8940000293C
:1018D00000F0948040F00100C6F89400FFF782FB0E
:1018E000054600BFD6F8940080073FF588AFFFF7A4
:1018F00079FB401B0228F5D9032002B0BDE8F08136
:10190000306880037FF575AF606800287FF471AFA1
:101910003EE000BFB06D5FEAC00808D4B06D40F093
:101920008050B065B06D00F080500190019847F292
:101930000007C4F200073868C0052DD4386840F4A9
:1019400080703860FFF74EFB054600BF3868C00561
:1019500022D4FFF747FB401B0228F7D9032002B02F
:10196000BDE8F0813068400501D5E06880B170685D
:10197000216920F0FE4040EA0160706040F2000002
:10198000C2F200000068FFF751FB00283FF434AFBB
:10199000012002B0BDE8F081A068012808D0052828
:1019A00040F0A480D6F8900040F00400C6F8900003
:1019B000D6F8900040F00100C6F89000A4E000BF07
:1019C000A169D6F89800002900F07A8040F0010063
:1019D000C6F89800FFF706FB054600BFD6F898004A
:1019E00080073FF514AFFFF7FDFA401B02284FF0C8
:1019F0000300F3D902B0BDE8F08100BF20F0010080
:101A0000C6F89400FFF7EEFA054600BFD6F894003A
:101A100080077FF5F4AEFFF7E5FA401B0228F5D901
:101A2000032002B0BDE8F0813168002821F4803144
:101A30003160316821F48021316000F0CF80FFF700
:101A4000D1FA0546306880033FF5D3AEFFF7CAFAF6
:101A5000401B6428F6D9032002B0BDE8F08100BF26
:101A600020F480703060FFF7BDFA0546306840050D
:101A70007FF5C2AEFFF7B6FA401B02284FF0030015
:101A8000F4D9B7E73168022821F08071316040F065
:101A90008B80FFF7A7FA05463068800140F1CA80C5
:101AA000FFF7A0FA401B02284FF00300F4D9A1E78A
:101AB0007068216920F0FE4040EA016070609BE69A
:101AC00020F00100C6F89800FFF78CFA054600BF29
:101AD000D6F8980080077FF59AAEFFF783FA401B8F
:101AE00002284FF00300F3D984E700BFD6F8901026
:101AF000002821F00101C6F89010D6F8901021F0CE
:101B00000401C6F8901079D0FFF76CFA054641F24F
:101B1000883700BFD6F89000800700F18180FFF77A
:101B200061FA401BB842F5D9032002B0BDE8F0814C
:101B3000F068216A00F003028A427FF429AF626AEA
:101B40006FF00F0300F0F00103EB021291427FF4FB
:101B50001FAFA16A00F4FE42B2EB012F7FF418AF71
:101B6000E16A00F07842B2EBC16F7FF411AF226BF3
:101B70000023CFF6E07303EA025200F4C001A2F59D
:101B8000001291427FF404AF616B4FF07E4202EA93
:101B9000016100F0C06001F17E4188427FF4F8AE3F
:101BA000002002B0BDE8F081F0684FF6FF7120F030
:101BB0000300F060F068CFF6EE610840F060FFF7D8
:101BC00011FA044630688001EAD5FFF70BFA001BD2
:101BD00002284FF00300F5D90CE700BFFFF702FA27
:101BE000054600BF306880037FF503AEFFF7FAF9C2
:101BF000401B64284FF00300F4D9FBE6FFF7F2F92D
:101C0000054641F2883700BFD6F89000800707D517
:101C1000FFF7E8F9401BB8424FF00300F4D9E9E6BA
:101C2000B8F1000F3FF5EFADB06D20F08050B0651A
:101C3000E9E500BFF06848F20C01C0F29F1104F121
:101C4000200700EA010C8ECF6FF00F00D4E90C548E
:101C500000EB02100022CFF6E07241EA0C0102EA2A
:101C600005520843A2F500124FF07E4540EA0320DA
:101C700005EA0465104305F17E4540EAC760284344
:101C8000F060306840F080703060F06840F0807044
:101C9000F060FFF7A7F90446306880013FF580AF98
:101CA000FFF7A0F9001B02284FF00300F4D9A1E6CA
:101CB000411E0020B0EB116F1CBF012070474EF297
:101CC0001002CEF2000251604EF62351CEF2000116
:101CD000F0230B700721906011607047FEE7000051
:101CE00040F21841C4F600010A6942F400720A6128
:101CF0000A6942F480720A610A6842F020020A60AE
:101D00002022C1F8FC230A6942F020020A6100BFC8
:101D100000BF00BF0A6842F020020A600A6842F46D
:101D200080720A600022C1F8FC230B6943F0200393
:101D30000B6100BF00BF00BF0B6843F020030B60C6
:101D40000B6843F480730B600B6943F400730B6101
:101D50000B6943F480730B610B6843F020030B6045
:101D60002123C1F8FC330B6943F020030B6100BF52
:101D700000BF00BF0B6843F020030B600B6843F407
:101D800080730B60C1F8FC230A6942F020020A61EB
:101D900000BF00BF00BF0A6842F020020A600A6864
:101DA00042F480720A600A6942F400720A610A69A8
:101DB00042F480720A610A6842F020020A6022221C
:101DC000C1F8FC230A6942F020020A6100BF00BF8B
:101DD00000BF0A6842F020020A600A6842F480727A
:101DE0000A6000BF00BF00BF0A6842F400720A60C8
:101DF0004FF496320B69053A43F400730B610B689C
:101E000043F480730B600B6843F020030B60C1F850
:101E1000FC030B6943F020030B6100BF00BF00BF50
:101E20000B6843F020030B600B6843F480730B6076
:101E300000BF00BF00BF0B6843F400730B600B6969
:101E400043F400730B610B6843F480730B600B6801
:101E500043F020030B60C1F8FC030B6943F020033F
:101E60000B6100BF00BF00BF0B6843F020030B6095
:101E70000B6843F480730B6000BF00BF00BF0B68AA
:101E800043F400730B600B6943F400730B610B6840
:101E900043F480730B600B6843F020030B60C1F8C0
:101EA000FC030B6943F020030B6100BF00BF00BFC0
:101EB0000B6843F020030B600B6843F480730B60E6
:101EC00000BF00BF00BF0B6843F400730B600B69D9
:101ED00043F400730B610B6843F480730B600B6871
:101EE00043F020030B60C1F8FC030B6943F02003AF
:101EF0000B6100BF00BF00BF0B6843F020030B6005
:101F00000B6843F480730B6000BF00BF00BF0B6819
:101F100043F400730B600B6943F400730B610B68AF
:101F200043F480730B600B6843F020030B60C1F82F
:101F3000FC030B6943F020030B6100BF00BF00BF2F
:101F40000B6843F020030B600B6843F480730B6055
:101F500000BF00BF00BF0B6843F400730B607FF449
:101F600049AF70470A78002A08BF70472DE9F04151
:101F700044F66A3804464D1C002740F23F16C0F66E
:101F8000000800BFA2F12000C1B2490051FA80F060
:101F900008EB0012B1B2204600F00AF8EA5D22B167
:101FA000103E132F07F10107ECD3BDE8F041704755
:101FB0002DE9F04740F21843C4F600031F694FF0C3
:101FC000200C47F400771F611F694FF0210E47F482
:101FD00080771F611F6840F2080947F020071F60E3
:101FE000C3F8FCC31F6940F24A0A47F020071F618B
:101FF00000BF00BF00BF1F684FF0220847F0200756
:102000001F601F68C2F2000947F480771F60C3F8A1
:10201000FC031F69C2F2000A47F020071F6100BFDE
:1020200000BF00BF1F6847F020071F601F6847F40C
:1020300080771F601F6947F400771F611F6947F4AD
:1020400080771F611F6847F020071F60C3F8FCE31B
:102050001C6944F020041C6100BF00BF00BF1C6865
:1020600044F020041C601C6844F480741C60C3F8B5
:10207000FC131C6944F020041C6100BF00BF00BFBA
:102080001C6844F020041C601C6844F480741C60CC
:10209000002400BF1D6945F400751D611D6945F4EC
:1020A00080751D611D6845F020051D60C3F8FC8327
:1020B0001D6945F020051D6100BF00BF00BF1D6800
:1020C00045F020051D601D6845F480751D6000BF4A
:1020D00000BF00BF1D6845F400751D60002500BFEE
:1020E00032F81460EE40F607564608BF4E46368872
:1020F0001F6947F400771F611F6847F480771F60EE
:102100001F6847F020071F60C3F8FC631E696F1C3F
:1021100046F020061E6100BF00BF00BF1E6846F0EB
:1021200020061E601E6846F480761E6000BF00BF59
:1021300000BF1E6846F400761E6032F81460FE4050
:10214000F607564608BF4E4636881F6947F40077A3
:102150001F611F6847F480771F601F6847F02007E2
:102160001F60C3F8FC631E69AF1C46F020061E61A9
:1021700000BF00BF00BF1E6846F020061E601E683C
:1021800046F480761E6000BF00BF00BF1E6846F4A4
:1021900000761E6032F81460FE40F607564608BF0F
:1021A0004E4636881F6947F400771F611F6847F461
:1021B00080771F601F6847F020071F60C3F8FC632B
:1021C0001E69EF1C46F020061E6100BF00BF00BF65
:1021D0001E68043546F020061E601E6846F48076B0
:1021E0001E6000BF00BF00BF1E6846F400761E6080
:1021F00032F81460FE40F607564608BF4E46368851
:102200001F69102D47F400771F611F6847F480771E
:102210001F601F6847F020071F60C3F8FC631E693A
:1022200046F020061E6100BF00BF00BF1E6846F0DA
:1022300020061E601E6846F480761E6000BF00BF48
:1022400000BF1E6846F400761E607FF449AF1D692A
:10225000013045F400751D611D69013445F4807538
:102260001D611D68182C45F020051D60C3F8FCC3D6
:102270001D6945F020051D6100BF00BF00BF1D683E
:1022800045F020051D601D6845F480751D60C5B2D0
:10229000C3F8FC531D6945F020051D6100BF00BF58
:1022A00000BF1D6845F020051D601D6845F4807560
:1022B0001D601D6945F400751D611D6945F480753B
:1022C0001D611D6845F020051D60C3F8FCE31D6914
:1022D00045F020051D6100BF00BF00BF1D6845F02F
:1022E00020051D601D6845F480751D60C3F8FC1352
:1022F0001D6945F020051D6100BF00BF00BF1D68BE
:1023000045F020051D601D6845F480751D6008BFFF
:10231000BDE8F087BEE600002DE9F04F8BB0002647
:1023200041F24C000596C4F20200016840F21845E3
:1023300041F0040101600168C4F6000501F00401E8
:1023400006910699016801AC41F001010160016844
:1023500040F6140901F00101069106990168C4F6DE
:10236000000941F0020101600068214600F002000E
:10237000069006984FF44870019001200290A5F154
:1023800018000127CDE90366FEF75EFD4FF480706B
:10239000CDE901074FF090402146CDE90366FEF7F5
:1023A00053FD4FF6FF7005F57A7406904FF0030861
:1023B00006A920460A964FF6FF7B0797CDE90868E5
:1023C000FEF742FD4FF6004ACFF6FF7A55F80A00B5
:1023D00006A940F4807045F80A0028684FF6FF7798
:1023E00040F408702860286940F40070286128696A
:1023F00040F480702861286840F020002860C9F807
:102400000060286940F02000286100BF00BF00BFC5
:10241000286840F020002860286840F48070286018
:1024200020460A96CDF818B0CDF82480CDE907668D
:10243000FEF70AFD4FF6104BCFF6FF7B55F80B0069
:1024400007A940F4807045F80B0000BF00BF00BF33
:10245000D5F8F89355F80A0040F4807045F80A0062
:10246000012081E8410106A920460A960697FEF759
:10247000EBFC286848F2302140F40070286040F2FC
:102480004C00C2F20000A0F800900088884203D1FE
:1024900000F062F902E000BF00F0D2FE28690026D9
:1024A00040F40070286128694FF6FF7840F480708E
:1024B000286128684FF0030940F02000286040F6AA
:1024C0001400C4F600000660286906A940F0200048
:1024D000286100BF00BF00BF286840F020002860CE
:1024E000286840F48070286020460A96CDE9068668
:1024F000CDE90869FEF7A8FC55F80B0007A940F4E0
:10250000807045F80B0000BF00BF00BFD5F8F8731E
:1025100055F80A0040F4807045F80A00012081E86F
:10252000410206A920460A96CDF81880FEF78CFCD9
:10253000286840F40070286040F24C00C2F20000AD
:1025400007800BB0BDE8F08F81B0ADF80200BDF898
:10255000020040F20801C2F20001088001B0704799
:1025600081B0ADF80200BDF8020040F24A01C2F2AB
:102570000001088001B07047B0B540F60005C4F610
:10258000000505F58064204604210122FEF724FDA4
:1025900028464FF6FF710122FEF71EFD28464FF434
:1025A00080710022FEF718FDC820FEF739FC28468E
:1025B0004FF400710022FEF70FFDC820FEF730FC3B
:1025C00028464FF480710122FEF706FDC820FEF771
:1025D00027FC28464FF400710122FEF7FDFCC820BD
:1025E000FEF71EFC204604210022BDE8B040FEF7A5
:1025F000F3BC000010B58CB040F250000024C2F2D1
:1026000000004FF0A0410422C0E900140121CDE9EF
:102610000A44CDE90744CDE90544CDE90344CDE9B9
:102620000144C0E90244C0E9044482618483016238
:1026300080F82440C0E90B4480F83840C46380F837
:102640004040FEF70FF9002818BFFDF7E5FE40F205
:102650005000C2F2000009A90994FDF7DFFE00282E
:1026600018BFFDF7D9FE0220C0F2304001900620CD
:102670007F2102900020049104210390CDE90510F0
:1026800040F25000C2F2000001A9FDF727FF002828
:1026900018BFFDF7C1FE0CB010BD00002DE9F043DE
:1026A00087B0002741F24C000697C4F2020001688F
:1026B00040F6000441F0200101600168C4F6000406
:1026C00001F02001019101990168012241F001010D
:1026D000016001684FF4407601F001010191019918
:1026E00001684FF0010841F004010160016801F048
:1026F000040101910199016841F00801016000683D
:102700004FF4407100F00800019001982046FEF758
:1027100063FC04F580652846042100224FF004097B
:10272000FEF75AFCCDE9026802AE20463146CDE9FB
:102730000477FEF789FB28463146CDE90298CDE9BA
:102740000477FEF781FB07B0BDE8F083FEE70000E9
:10275000704700007047000040F21840C4F60000C7
:102760000169002241F40071016101694FF0030C1D
:1027700041F480710161016841F020010160C0F8FD
:10278000FC23016941F02001016100BF00BF00BFCF
:10279000016841F020010160016841F4807101602D
:1027A0000121C0F8FC13036943F02003036100BF5B
:1027B00000BF00BF036843F020030360036843F4D5
:1027C00080730360036943F400730361036943F496
:1027D00080730361036843F020030360C0F8FC13B7
:1027E000036943F02003036100BF00BF00BF03681B
:1027F00043F020030360036843F480730360C0F870
:10280000FC23026942F02002026100BF00BF00BF4A
:10281000026842F020020260026842F480720260A4
:10282000026942F400720261026942F4807202613C
:10283000026842F0200202601022C0F8FC23026904
:1028400042F02002026100BF00BF00BF026842F0F8
:1028500020020260026842F48072026041F29072CB
:10286000C0F8FC23026942F02002026100BF00BFF1
:1028700000BF026842F020020260026842F48072E7
:102880000260026942F400720261026942F48072DD
:102890000261026842F0200202606022C0F8FC235C
:1028A000026942F02002026100BF00BF00BF02685F
:1028B00042F020020260026842F4807202604FF42B
:1028C0001C52C0F8FC23026942F02002026100BFE2
:1028D00000BF00BF026842F020020260026842F4BA
:1028E00080720260026942F400720261026942F47D
:1028F00080720261026842F0200202606122C0F828
:10290000FC23026942F02002026100BF00BF00BF49
:10291000026842F020020260026842F480720260A3
:10292000C0F8FC13016941F02001016100BF00BF44
:1029300000BF016841F020010160016841F480712D
:102940000160016941F400710161016941F4807124
:102950000161016841F0200101604621C0F8FC13CB
:10296000016941F02001016100BF00BF00BF0168A3
:1029700041F020010160016841F480710160022191
:10298000C0F8FC13026942F02002026100BF00BFE0
:1029900000BF026842F020020260026842F48072C6
:1029A0000260026942F400720261026942F48072BC
:1029B0000261026842F0200202601322C0F8FC2388
:1029C000026942F02002026100BF00BF00BF02683E
:1029D00042F020020260026842F48072026048F213
:1029E0001002C0F8FC23026942F02002026100BF1D
:1029F00000BF00BF026842F020020260026842F499
:102A000080720260026942F400720261026942F45B
:102A100080720261026842F0200202601222C0F855
:102A2000FC23026942F02002026100BF00BF00BF28
:102A3000026842F020020260026842F48072026082
:102A400048F2FE02C0F8FC23026942F02002026153
:102A500000BF00BF00BF026842F0200202600268AF
:102A600042F480720260026942F4007202610269FB
:102A700042F480720261026842F020020260C0F8F3
:102A8000FC13016941F02001016100BF00BF00BFDC
:102A9000016841F020010160016841F4807101602A
:102AA0004FF4A061C0F8FC13016941F020010161FD
:102AB00000BF00BF00BF016841F020010160016854
:102AC00041F480710160016941F4007101610169A3
:102AD00041F480710161016841F020010160C0F89A
:102AE000FCC3026942F02002026100BF00BF00BFC8
:102AF000026842F020020260026842F480720260C2
:102B000041F23002C0F8FC23026942F02002026167
:102B100000BF00BF00BF026842F0200202600268EE
:102B200042F480720260026942F40072026102693A
:102B300042F480720261026842F020020260302298
:102B4000C0F8FC23026942F02002026100BF00BF0E
:102B500000BF026842F020020260026842F4807204
:102B6000026040F20332C0F8FC23036943F0200303
:102B7000036100BF00BF00BF036843F02003036090
:102B8000036843F480730360036943F400730361D3
:102B9000036943F480730361036843F02003036017
:102BA0003123C0F8FC33036943F02003036100BF05
:102BB00000BF00BF036843F020030360036843F4D1
:102BC00080730360C0F8FC23036943F020030361B2
:102BD00000BF00BF00BF036843F020030360036829
:102BE00043F480730360036943F400730361036972
:102BF00043F480730361036843F0200303603223CE
:102C0000C0F8FC33036943F02003036100BF00BF39
:102C100000BF036843F020030360036843F480733C
:102C20000360C0F8FC23036943F02003036100BF85
:102C300000BF00BF036843F020030360036843F450
:102C400080730360036943F400730361036943F411
:102C500080730361036843F0200303603323C0F8EB
:102C6000FC33036943F02003036100BF00BF00BFD2
:102C7000036843F020030360036843F48073036038
:102C80004FF44073C0F8FC33016941F02001016149
:102C900000BF00BF00BF016841F020010160016872
:102CA00041F480710160016941F4007101610169C1
:102CB00041F480710161016841F02001016034211B
:102CC000C0F8FC13016941F02001016100BF00BFA1
:102CD00000BF016841F020010160016841F480718A
:102CE0000160C0F8FCC3016941F02001016100BF2F
:102CF00000BF00BF016841F020010160016841F49C
:102D000080710160016941F400710161016941F460
:102D100080710161016841F0200101603521C0F836
:102D2000FC13016941F02001016100BF00BF00BF39
:102D3000016841F020010160016841F48071016087
:102D4000C0F8FC23016941F02001016100BF00BF10
:102D500000BF016841F020010160016841F4807109
:102D60000160016941F400710161016941F4807100
:102D70000161016841F0200101603621C0F8FC13B7
:102D8000016941F02001016100BF00BF00BF01687F
:102D900041F020010160016841F48071016014215B
:102DA000C0F8FC13016941F02001016100BF00BFC0
:102DB00000BF016841F020010160016841F48071A9
:102DC0000160016941F400710161016941F48071A0
:102DD0000161016841F0200101603721C0F8FC1356
:102DE000016941F02001016100BF00BF00BF01681F
:102DF00041F020010160016841F480710160C0F878
:102E0000FC23016941F02001016100BF00BF00BF48
:102E1000016841F020010160016841F480710160A6
:102E2000016941F400710161016941F4807101613E
:102E3000016841F0200101603821C0F8FC130169EC
:102E400041F02001016100BF00BF00BF016841F0F7
:102E500020010160016841F480710160C0F8FC2329
:102E6000016941F02001016100BF00BF00BF01689E
:102E700041F020010160016841F480710160016945
:102E800041F400710161016941F4807101610168DF
:102E900041F0200101603921C0F8FC13016941F0C3
:102EA0002001016100BF00BF00BF016841F02001A7
:102EB0000160016841F480710160C0F8FC23016980
:102EC00041F02001016100BF00BF00BF016841F077
:102ED00020010160016841F480710160016941F4E1
:102EE00000710161016941F480710161016841F083
:102EF000200101603A21C0F8FC13016941F0200172
:102F0000016100BF00BF00BF016841F02001016006
:102F1000016841F480710160C0F8FC33016941F03F
:102F20002001016100BF00BF00BF016841F0200126
:102F30000160016841F480710160016941F4007130
:102F40000161016941F480710161016841F0200172
:102F500001603B21C0F8FC13016941F020010161CF
:102F600000BF00BF00BF016841F02001016001689F
:102F700041F480710160C0F8FCC3016941F0200197
:102F8000016100BF00BF00BF016841F02001016086
:102F9000016841F480710160016941F400710161CF
:102FA000016941F480710161016841F02001016013
:102FB0003C21C0F8FC13016941F02001016100BF10
:102FC00000BF00BF016841F020010160016841F4C9
:102FD00080710160C0F8FC23016941F020010161AA
:102FE00000BF00BF00BF016841F02001016001681F
:102FF00041F480710160016941F40071016101696E
:1030000041F480710161016841F0200101603D21BE
:10301000C0F8FC13016941F02001016100BF00BF4D
:1030200000BF016841F020010160016841F4807136
:1030300001604FF4A051C0F8FC13016941F0200178
:10304000016100BF00BF00BF016841F020010160C5
:10305000016841F480710160016941F4007101610E
:10306000016941F480710161016841F02001016052
:103070009221C0F8FC13016941F02001016100BFF9
:1030800000BF00BF016841F020010160016841F408
:10309000807101604FF40071C0F8FC13016941F0C8
:1030A0002001016100BF00BF00BF016841F02001A5
:1030B0000160016841F480710160016941F40071AF
:1030C0000161016941F480710161016841F02001F1
:1030D00001609321C0F8FC13016941F020010161F6
:1030E00000BF00BF00BF016841F02001016001681E
:1030F00041F480710160C0F8FC23016941F02001B6
:10310000016100BF00BF00BF016841F02001016004
:10311000016841F480710160016941F4007101614D
:10312000016941F480710161016841F02001016091
:103130009021C0F8FC13016941F02001016100BF3A
:1031400000BF00BF016841F020010160016841F447
:103150008071016040F60D01C0F8FC13016941F077
:103160002001016100BF00BF00BF016841F02001E4
:103170000160016841F480710160016941F40071EE
:103180000161016941F480710161016841F0200130
:103190000160C0F8FCC3016941F02001016100BF7A
:1031A00000BF00BF016841F020010160016841F4E7
:1031B0008071016041F21801C0F8FC13016941F00F
:1031C0002001016100BF00BF00BF016841F0200184
:1031D0000160016841F480710160016941F400718E
:1031E0000161016941F480710161016841F02001D0
:1031F00001600721C0F8FC13016941F02001016161
:1032000000BF00BF00BF016841F0200101600168FC
:1032100041F48071016040F27311C0F8FC13016940
:1032200041F02001016100BF00BF00BF016841F013
:1032300020010160016841F4807101607047000065
:103240002DE9F04F81B040F21844C4F60004206923
:103250004FF0120940F4007020612069002540F40D
:10326000807020612068112640F020002060E3205B
:10327000C4F8FC0320694FF0130B40F020002061DC
:1032800000BF00BF00BF2068102740F02000206072
:1032900020684FF0070840F48070206043F2080077
:1032A000C4F8FC03206940F02000206100BF00BF8B
:1032B00000BF206840F020002060206840F480704B
:1032C0002060206940F400702061206940F4807023
:1032D0002061206840F020002060E720C4F8FC0353
:1032E000206940F02000206100BF00BF00BF2068BF
:1032F00040F020002060206840F480702060C4F816
:10330000FC93206940F02000206100BF00BF00BF97
:10331000206840F020002060206840F48070206029
:10332000206940F400702061206940F480702061C1
:10333000206840F020002060EF20C4F8FC032069E2
:1033400040F02000206100BF00BF00BF206840F0B7
:1033500020002060206840F48070206041F231201D
:10336000C4F8FC03206940F02000206100BF00BFCA
:1033700000BF206840F020002060206840F480708A
:103380002060206940F400702061206940F4807062
:103390002061206840F0200020600120C4F8FC0378
:1033A000206940F02000206100BF00BF00BF2068FE
:1033B00040F020002060206840F480702060C4F855
:1033C000FC53206940F02000206100BF00BF00BF17
:1033D000206840F020002060206840F48070206069
:1033E000206940F400702061206940F48070206101
:1033F000206840F0200020600220C4F8FC0320690F
:1034000040F02000206100BF00BF00BF206840F0F6
:1034100020002060206840F4807020604FF4E0605D
:10342000C4F8FC03206940F02000206100BF00BF09
:1034300000BF206840F020002060206840F48070C9
:103440002060206940F400702061206940F48070A1
:103450002061206840F0200020600320C4F8FC03B5
:10346000206940F02000206100BF00BF00BF20683D
:1034700040F020002060206840F48070206041F21D
:103480003000C4F8FC03206940F02000206100BF38
:1034900000BF00BF206840F020002060206840F49A
:1034A00080702060206940F400702061206940F441
:1034B00080702061206840F0200020600420C4F863
:1034C000FC03206940F02000206100BF00BF00BF66
:1034D000206840F020002060206840F48070206068
:1034E000C4F8FC53206940F02000206100BF00BFF9
:1034F00000BF206840F020002060206840F4807009
:103500002060206940F400702061206940F48070E0
:103510002061206840F0200020600820C4F8FC03EF
:10352000206940F02000206100BF00BF00BF20687C
:1035300040F020002060206840F48070206040F25D
:103540000720C4F8FC03206940F02000206100BF80
:1035500000BF00BF206840F020002060206840F4D9
:1035600080702060206940F400702061206940F480
:1035700080702061206840F0200020600920C4F89D
:10358000FC03206940F02000206100BF00BF00BFA5
:10359000206840F020002060206840F480702060A7
:1035A000C4F8FC53206940F02000206100BF00BF38
:1035B00000BF206840F020002060206840F4807048
:1035C0002060206940F400702061206940F4807020
:1035D0002061206840F0200020600A20C4F8FC032D
:1035E000206940F02000206100BF00BF00BF2068BC
:1035F00040F020002060206840F480702060C4F813
:10360000FC53206940F02000206100BF00BF00BFD4
:10361000206840F020002060206840F48070206026
:10362000206940F400702061206940F480702061BE
:10363000206840F0200020600C20C4F8FC032069C2
:1036400040F02000206100BF00BF00BF206840F0B4
:1036500020002060206840F480702060C4F8FC5393
:10366000206940F02000206100BF00BF00BF20683B
:1036700040F020002060206840F4807020602069C5
:1036800040F400702061206940F48070206120685F
:1036900040F0200020600D20C4F8FC03206940F0B9
:1036A0002000206100BF00BF00BF206840F0200064
:1036B0002060206840F480702060C4F8FC532069CA
:1036C00040F02000206100BF00BF00BF206840F034
:1036D00020002060206840F480702060206940F461
:1036E00000702061206940F480702061206840F003
:1036F000200020600F20C4F8FC03206940F0200067
:10370000206100BF00BF00BF206840F020002060A3
:10371000206840F480702060C4F8FC53206940F0B9
:103720002000206100BF00BF00BF206840F02000E3
:103730002060206840F480702060206940F40070B0
:103740002061206940F480702061206840F02000F2
:1037500020601020C4F8FC03206940F020002061A4
:1037600000BF00BF00BF206840F02000206020683C
:1037700040F480702060C4F8FC53206940F02000C1
:10378000206100BF00BF00BF206840F02000206023
:10379000206840F480702060206940F4007020614F
:1037A000206940F480702061206840F02000206093
:1037B000C4F8FC63206940F02000206100BF00BF16
:1037C00000BF206840F020002060206840F4807036
:1037D00020600720C4F8FC03206940F0200020612D
:1037E00000BF00BF00BF206840F0200020602068BC
:1037F00040F480702060206940F4007020612069EE
:1038000040F480702061206840F020002060C4F8FF
:10381000FC93206940F02000206100BF00BF00BF82
:10382000206840F020002060206840F48070206014
:10383000C4F8FC53206940F02000206100BF00BFA5
:1038400000BF206840F020002060206840F48070B5
:103850002060206940F400702061206940F480708D
:103860002061206840F020002060C4F8FCB320698B
:1038700040F02000206100BF00BF00BF206840F082
:1038800020002060206840F480702060C4F8FC5361
:10389000206940F02000206100BF00BF00BF206809
:1038A00040F020002060206840F480702060C82034
:1038B000FDF7B6FA20694FF0320A40F4007020613B
:1038C000206940F480702061206840F02000206072
:1038D000C4F8FC732069102740F02000206100BF6D
:1038E00000BF00BF206840F020002060206840F446
:1038F0008070206041F29060C4F8FC03206940F0C1
:103900002000206100BF00BF00BF206840F0200001
:103910002060206840F480702060206940F40070CE
:103920002061206940F480702061206840F0200010
:103930002060C4F8FC63206940F02000206100BFD3
:1039400000BF00BF206840F020002060206840F4E5
:103950008070206040F22720C4F8FC03206940F00A
:103960002000206100BF00BF00BF206840F02000A1
:103970002060206840F4807020603220FDF750FA0B
:10398000206940F400702061206940F4807020615B
:10399000206840F020002060C4F8FC93206940F0CB
:1039A0002000206100BF00BF00BF206840F0200061
:1039B0002060206840F4807020601D20C4F8FC0363
:1039C000206940F02000206100BF00BF00BF2068D8
:1039D00040F020002060206840F480702060322099
:1039E000FDF71EFA206940F400702061206940F460
:1039F00080702061206840F020002060C4F8FCB393
:103A0000206940F02000206100BF00BF00BF206897
:103A100040F020002060206840F4807020604FF467
:103A20000060C4F8FC03206940F02000206100BF62
:103A300000BF00BF206840F020002060206840F4F4
:103A400080702060206940F400702061206940F49B
:103A500080702061206840F0200020602920C4F898
:103A6000FC03206940F02000206100BF00BF00BFC0
:103A7000206840F020002060206840F480702060C2
:103A80001420C4F8FC03206940F02000206100BF2E
:103A900000BF00BF206840F020002060206840F494
:103AA00080702060206940F400702061206940F43B
:103AB00080702061206840F0200020602B20C4F836
:103AC000FC03206940F02000206100BF00BF00BF60
:103AD000206840F020002060206840F48070206062
:103AE0000B20C4F8FC03206940F02000206100BFD7
:103AF00000BF00BF206840F020002060206840F434
:103B0000807020603220FDF78BF92069032140F49A
:103B1000007020612069072240F4807020612068D5
:103B200040F0200020602020C4F8FC03206940F011
:103B30002000206100BF00BF00BF206840F02000CF
:103B40002060206840F480702060C4F8FC53206935
:103B500040F02000206100BF00BF00BF206840F09F
:103B600020002060206840F480702060206940F4CC
:103B700000702061206940F480702061206840F06E
:103B8000200020602120C4F8FC03206940F02000C0
:103B9000206100BF00BF00BF206840F0200020600F
:103BA000206840F480702060C4F8FC53206940F025
:103BB0002000206100BF00BF00BF206840F020004F
:103BC0002060206840F480702060206940F400701C
:103BD0002061206940F480702061206840F020005E
:103BE00020603020C4F8FC03206940F020002061F0
:103BF00000BF00BF00BF206840F0200020602068A8
:103C000040F480702060C4F8FC83206940F02000FC
:103C1000206100BF00BF00BF206840F0200020608E
:103C2000206840F480702060206940F400702061BA
:103C3000206940F480702061206840F020002060FE
:103C40003120C4F8FC03206940F02000206100BF4F
:103C500000BF00BF206840F020002060206840F4D2
:103C60008070206040F20770C4F8FC03206940F0C7
:103C70002000206100BF00BF00BF206840F020008E
:103C80002060206840F480702060206940F400705B
:103C90002061206940F480702061206840F020009D
:103CA0002060C4F8FCA3206940F02000206100BF20
:103CB00000BF00BF206840F020002060206840F472
:103CC000807020600620C4F8FC03206940F02000CA
:103CD000206100BF00BF00BF206840F020002060CE
:103CE000206840F480702060206940F400702061FA
:103CF000206940F480702061206840F0200020603E
:103D00003520C4F8FC03206940F02000206100BF8A
:103D100000BF00BF206840F020002060206840F411
:103D20008070206040F20470C4F8FC03206940F009
:103D30002000206100BF00BF00BF206840F02000CD
:103D40002060206840F480702060206940F400709A
:103D50002061206940F480702061206840F02000DC
:103D600020603620C4F8FC03206940F02000206168
:103D700000BF00BF00BF206840F020002060206826
:103D800040F48070206041F60470C4F8FC032069A0
:103D900040F02000206100BF00BF00BF206840F05D
:103DA00020002060206840F480702060206940F48A
:103DB00000702061206940F480702061206840F02C
:103DC000200020603720C4F8FC03206940F0200068
:103DD000206100BF00BF00BF206840F020002060CD
:103DE000206840F4807020600420C4F8FC0320693F
:103DF00040F02000206100BF00BF00BF206840F0FD
:103E000020002060206840F480702060206940F429
:103E100000702061206940F480702061206840F0CB
:103E2000200020603820C4F8FC03206940F0200006
:103E3000206100BF00BF00BF206840F0200020606C
:103E4000206840F480702060C4F8FC53206940F082
:103E50002000206100BF00BF00BF206840F02000AC
:103E60002060206840F480702060206940F4007079
:103E70002061206940F480702061206840F02000BB
:103E800020603920C4F8FC03206940F02000206144
:103E900000BF00BF00BF206840F020002060206805
:103EA00040F48070206040F20670C4F8FC03206982
:103EB00040F02000206100BF00BF00BF206840F03C
:103EC00020002060206840F480702060206940F469
:103ED00000702061206940F480702061206840F00B
:103EE000200020603C20C4F8FC03206940F0200042
:103EF000206100BF00BF00BF206840F020002060AC
:103F0000206840F48070206040F20170C4F8FC0327
:103F1000206940F02000206100BF00BF00BF206882
:103F200040F020002060206840F48070206020690C
:103F300040F400702061206940F4807020612068A6
:103F400040F0200020603D20C4F8FC03206940F0D0
:103F50002000206100BF00BF00BF206840F02000AB
:103F60002060206840F4807020600F20C4F8FC03BB
:103F7000206940F02000206100BF00BF00BF206822
:103F800040F020002060206840F4807020602069AC
:103F900040F400702061206940F480702061206846
:103FA00040F0200020605020C4F8FC03206940F05D
:103FB0002000206100BF00BF00BF206840F020004B
:103FC0002060206840F480702060C4F8FC532069B1
:103FD00040F02000206100BF00BF00BF206840F01B
:103FE00020002060206840F480702060206940F448
:103FF00000702061206940F480702061206840F0EA
:10400000200020605120C4F8FC03206940F020000B
:10401000206100BF00BF00BF206840F0200020608A
:10402000206840F480702060EF20C4F8FC03206911
:1040300040F02000206100BF00BF00BF206840F0BA
:1040400020002060206840F480702060206940F4E7
:1040500000702061206940F480702061206840F089
:10406000200020605220C4F8FC03206940F02000AA
:10407000206100BF00BF00BF206840F0200020602A
:10408000206840F480702060C4F8FC53206940F040
:104090002000206100BF00BF00BF206840F020006A
:1040A0002060206840F480702060206940F4007037
:1040B0002061206940F480702061206840F0200079
:1040C00020605320C4F8FC03206940F020002061E8
:1040D00000BF00BF00BF206840F0200020602068C3
:1040E00040F48070206040F23F10C4F8FC03206967
:1040F00040F02000206100BF00BF00BF206840F0FA
:1041000020002060206840F480702060206940F426
:1041100000702061206940F480702061206840F0C8
:10412000200020606020C4F8FC03206940F02000DB
:10413000206100BF00BF00BF206840F02000206069
:10414000206840F4807020604FF41C50C4F8FC03D9
:10415000206940F02000206100BF00BF00BF206840
:1041600040F020002060206840F4807020602069CA
:1041700040F400702061206940F480702061206864
:1041800040F0200020606120C4F8FC03206940F06A
:104190002000206100BF00BF00BF206840F0200069
:1041A0002060206840F4807020600120C4F8FC0387
:1041B000206940F02000206100BF00BF00BF2068E0
:1041C00040F020002060206840F48070206020696A
:1041D00040F400702061206940F480702061206804
:1041E00040F0200020606A20C4F8FC03206940F001
:1041F0002000206100BF00BF00BF206840F0200009
:104200002060206840F480702060C4F8FC5320696E
:1042100040F02000206100BF00BF00BF206840F0D8
:1042200020002060206840F480702060206940F405
:1042300000702061206940F480702061206840F0A7
:10424000200020608020C4F8FC03206940F020009A
:10425000206100BF00BF00BF206840F02000206048
:10426000206840F480702060C4F8FC53206940F05E
:104270002000206100BF00BF00BF206840F0200088
:104280002060206840F480702060206940F4007055
:104290002061206940F480702061206840F0200097
:1042A00020608120C4F8FC03206940F020002061D8
:1042B00000BF00BF00BF206840F0200020602068E1
:1042C00040F480702060C4F8FC53206940F0200066
:1042D000206100BF00BF00BF206840F020002060C8
:1042E000206840F480702060206940F400702061F4
:1042F000206940F480702061206840F02000206038
:104300008220C4F8FC03206940F02000206100BF37
:1043100000BF00BF206840F020002060206840F40B
:1043200080702060C4F8FC53206940F020002061B8
:1043300000BF00BF00BF206840F020002060206860
:1043400040F480702060206940F400702061206992
:1043500040F480702061206840F0200020608320BD
:10436000C4F8FC03206940F02000206100BF00BFBA
:1043700000BF206840F020002060206840F480707A
:104380002060C4F8FC53206940F02000206100BF89
:1043900000BF00BF206840F020002060206840F48B
:1043A00080702060206940F400702061206940F432
:1043B00080702061206840F0200020608420C4F8D4
:1043C000FC03206940F02000206100BF00BF00BF57
:1043D000206840F020002060206840F48070206059
:1043E000C4F8FC53206940F02000206100BF00BFEA
:1043F00000BF206840F020002060206840F48070FA
:104400002060206940F400702061206940F48070D1
:104410002061206840F0200020608520C4F8FC0363
:10442000206940F02000206100BF00BF00BF20686D
:1044300040F020002060206840F480702060C4F8C4
:10444000FC53206940F02000206100BF00BF00BF86
:10445000206840F020002060206840F480702060D8
:10446000206940F400702061206940F48070206170
:10447000206840F0200020609020C4F8FC032069F0
:1044800040F02000206100BF00BF00BF206840F066
:1044900020002060206840F480702060C4F8FC7325
:1044A000206940F02000206100BF00BF00BF2068ED
:1044B00040F020002060206840F480702060206977
:1044C00040F400702061206940F480702061206811
:1044D00040F0200020609220C4F8FC03206940F0E6
:1044E0002000206100BF00BF00BF206840F0200016
:1044F0002060206840F480702060C4F8FC5320697C
:1045000040F02000206100BF00BF00BF206840F0E5
:1045100020002060206840F480702060206940F412
:1045200000702061206940F480702061206840F0B4
:10453000200020609320C4F8FC03206940F0200094
:10454000206100BF00BF00BF206840F02000206055
:10455000206840F480702060C4F8FC13206940F0AB
:104560002000206100BF00BF00BF206840F0200095
:104570002060206840F480702060206940F4007062
:104580002061206940F480702061206840F02000A4
:1045900020609520C4F8FC03206940F020002061D1
:1045A00000BF00BF00BF206840F0200020602068EE
:1045B00040F4807020604FF48870C4F8FC032069D8
:1045C00040F02000206100BF00BF00BF206840F025
:1045D00020002060206840F480702060206940F452
:1045E00000702061206940F480702061206840F0F4
:1045F000200020609720C4F8FC03206940F02000D0
:10460000206100BF00BF00BF206840F02000206094
:10461000206840F480702060C4F8FC53206940F0AA
:104620002000206100BF00BF00BF206840F02000D4
:104630002060206840F480702060206940F40070A1
:104640002061206940F480702061206840F02000E3
:1046500020609820C4F8FC03206940F0200020610D
:1046600000BF00BF00BF206840F02000206020682D
:1046700040F480702060C4F8FC53206940F02000B2
:10468000206100BF00BF00BF206840F02000206014
:10469000206840F480702060206940F40070206140
:1046A000206940F480702061206840F02000206084
:1046B000C4F8FC13206940F02000206100BF00BF57
:1046C00000BF206840F020002060206840F4807027
:1046D000206041F21800C4F8FC03206940F020007B
:1046E000206100BF00BF00BF206840F020002060B4
:1046F000206840F480702060206940F400702061E0
:10470000206940F480702061206840F02000206023
:10471000C4F8FC23206940F02000206100BF00BFE6
:1047200000BF206840F020002060206840F48070C6
:10473000206040F27310C4F8FC03206940F02000B0
:10474000206100BF00BF00BF206840F02000206053
:10475000206840F48070206001B0BDE8F08F000058
:1047600070470000FCF744BC4EF68850CEF20000C3
:10477000016841F4700101604FF0006140F8801C55
:1047800070470000FEE70000AAB040F60009C4F63A
:104790000009FCF73BFC06AD0026281D40212296AF
:1047A000CDE92066CDE91E66FBF739FD4FF40070B8
:1047B000FCF7C0FC01201C904FF480301D900220BB
:1047C000142123900327CDE92610CDE928001CA849
:1047D000CDE92477FCF7FEFF0F20CDE9170717A8D6
:1047E0000321CDE919661B96FCF76EFE4FF40040DD
:1047F00006904FF0005015902846FCF72FFDFDF76E
:104800004DFFFDF7F7FEFDF787FD4FF6FF70FDF753
:10481000A7FE0020FDF798FE0020FDF761FAFDF7E6
:10482000ABFE45F63C50C0F6000040F2100590E8A3
:104830008E00C2F20005D0E904402E4646F8081F5B
:1048400005918346706100203146049272600393A3
:10485000B3600297F760A2463461FDF783FB42F232
:104860003A0746F24450C0F22007C6F66D70C6E91A
:10487000000718203146FDF775FB46F65670C7F263
:104880006C40C6E9000730203146FDF76BFB40F273
:104890005008C2F2000809F5806657E048464FF418
:1048A00080710122FCF798FB304604210022FCF7BE
:1048B00093FB4046FCF762FA049805F11401E860A6
:1048C00003982F462861029881E8010C059847F863
:1048D000080F00203946FDF745FB2A7838462EA1FF
:1048E00000F068F818203946FDF73CFB687829226B
:1048F000C1B251430B0B642103FB1100CD21C0B2A7
:104900004843C40A384627A10022009400F052F818
:1049100030203946FDF726FB304604210122FCF702
:104920005BFB48464FF6FF710122FCF755FB4846FA
:104930004FF400710022FCF74FFB304604210022A7
:10494000FCF74AFB4FF49670FCF76AFA4046FCF716
:1049500073F9304604210122FCF73EFB48464FF62E
:10496000FF710122FCF738FB48464FF480710022AA
:10497000FCF732FB40460A21FCF7C4F800288DD131
:104980004046FBF76BFF2870C0B240F6E441484355
:10499000000B687082E700BF44656D6F3A256420A4
:1049A00000000000566F6C743A25642E256425645F
:1049B000560000000FB4084B10B504A902AA0398D2
:1049C00000F01CF8044602A9002000F0C1F82046BF
:1049D00010BC5DF814FB0000514B000802E008C851
:1049E000121F08C1002AFAD170477047002001E069
:1049F00001C1121F002AFBD1704700002DE9FF4FB3
:104A000089B09B460446002506E025280BD05A466F
:104A10000B999047641C6D1C20780028F5D10DB0CF
:104A20002846BDE8F08F0027B8460122474900E03C
:104A3000074314F8013F203B02FA03F00842F7D184
:104A400020782E2819D114F8010F47F004072A28DE
:104A50000ED06FF02F022078A0F1300109290CD878
:104A600008EB880102EB410100EB0108641CF2E74E
:104A70000A98641C50F8048B0A9020780028CED045
:104A8000642808D0692806D075281ED05A460B998C
:104A900090476D1C58E00A994FF00A0901C90A9124
:104AA000002802DA40422D2102E0390504D52B21ED
:104AB0008DF82010012103E0F90704D02021F7E749
:104AC0008A4608AE0DE00021FAE70A994FF00A097C
:104AD00001C90A91F7E74946FBF7ACFB303106F80C
:104AE000011D0028F7D1ADEB060000F12009780781
:104AF00001D44FF00108C84502DDA8EB090000E031
:104B000000208046002706E008A85A46C05D0B99A1
:104B100090476D1C7F1C5745F6DB04E030205A4659
:104B20000B9990476D1CB8F10001A8F10108F5DC64
:104B300005E016F8010B5A460B9990476D1CB9F128
:104B40000001A9F10109F4DC641C65E709280100F2
:104B50000A68531C0B6010707047000000000000D2
:104B6000000001020304060708090000000000001D
:104B70000000000000000000000000000000000035
:104B80000000000000000000000000000000000025
:104B90000000000000000000000000008001800113
:104BA00080018001800180018001800180018001FD
:104BB0008001800180010000000080018001000070
:104BC0000000000000000000000000000000CC0019
:104BD000CC00CC00CC00CC00CC00000000000000D9
:104BE00000000000000000000000000000000000C5
:104BF00000000000000000000000000000000000B5
:104C0000000000000000600C600C600C30063006F4
:104C1000FE1FFE1F300638071803FE1FFE1F180375
:104C200018038C018C018C01000000008000E0035F
:104C3000F80F9C0E8C1C8C188C009800F801E00773
:104C4000800E801C8C188C189C18B80CF00FE00398
:104C50008000800000000000000000000000000054
:104C60000E181B0C110C11061106110311039B01E8
:104C70008E01C038C06C60446044304430441844F5
:104C8000186C0C380000000000000000E001F00388
:104C90003807180618063003F001F000F8009C31C0
:104CA0000E33061E061C061C063FFC73F021000096
:104CB00000000000000000000000000000000C00E8
:104CC0000C000C000C000C000C00000000000000A8
:104CD00000000000000000000000000000000000D4
:104CE00000000000000000000000000000020003BF
:104CF0008001C000C0006000600030003000300063
:104D00003000300030003000300060006000C00033
:104D1000C0008001000300020000000020006000CD
:104D2000C0008001800100030003000600060006A9
:104D300000060006000600060006000300038001CE
:104D40008001C000600020000000000000000000A2
:104D5000000000000000C000C000D806F807E00115
:104D600030033807000000000000000000000000D1
:104D70000000000000000000000000000000000033
:104D8000000000000000800180018001800180019E
:104D9000FC3FFC3F80018001800180018001000018
:104DA0000000000000000000000000000000000003
:104DB00000000000000000000000000000000000F3
:104DC00000000000000000000000000080018001E1
:104DD0000001000180000000000000000000000051
:104DE00000000000000000000000000000000000C3
:104DF0000000E007E00700000000000000000000E5
:104E000000000000000000000000000000000000A2
:104E10000000000000000000000000000000000092
:104E2000000000000000000000000000C000C00002
:104E3000000000000000000000000000000C000C5A
:104E40000006000600060003000300038003800143
:104E500080018001C000C000C00060006000000050
:104E6000000000000000000000000000E003F00768
:104E7000380E180C0C180C180C180C180C180C18F0
:104E80000C180C180C18180C380EF007E003000072
:104E90000000000000000000000000000001800190
:104EA000C001F0019801880180018001800180012A
:104EB000800180018001800180018001800100006B
:104EC000000000000000000000000000E003F80FF8
:104ED000180C0C180C1800180018000C0006000321
:104EE0008001C000600030001800FC1FFC1F0000A3
:104EF000000000000000000000000000E001F807D2
:104F0000180E0C0C0C0C000C0006C003C007000CA3
:104F1000001800180C180C18180CF807E003000013
:104F2000000000000000000000000000000C000E67
:104F3000000F000F800DC00C600C600C300C180CC2
:104F40000C0CFC3FFC3F000C000C000C000C0000A3
:104F5000000000000000000000000000F80FF80F43
:104F6000180018000C00EC03FC071C0E001C0018B5
:104F7000001800180C181C0C180EF807E0030000AD
:104F8000000000000000000000000000C007F00F5B
:104F9000381C181818000C00CC03EC0F3C0E1C1C1D
:104FA0000C180C180C18181C380EF007E003000041
:104FB000000000000000000000000000FC1FFC1FBB
:104FC000000C00060006000380038001C001C00041
:104FD000E000600060007000300030003000000031
:104FE000000000000000000000000000E003F007E7
:104FF000380E180C180C180C3806F007F007180CAF
:105000000C180C180C180C18380CF80FE0030000E2
:10501000000000000000000000000000E003F007B6
:10502000380E1C0C0C180C180C181C1C381EF81B05
:10503000E0190018000C000C1C0EF807F00100002D
:105040000000000000000000000000000000000060
:10505000000000000000800180010000000000004E
:10506000000000000000000000008001800100003E
:105070000000000000000000000000000000000030
:10508000000000000000800180010000000000001E
:10509000000000000000000000008001800100010D
:1050A000000180000000000000000000000000007F
:1050B000000000000000000000000010001C800F35
:1050C000E003F8001800F800E003800F001C001057
:1050D00000000000000000000000000000000000D0
:1050E00000000000000000000000F81F00000000A9
:1050F0000000F81F00000000000000000000000099
:10510000000000000000000000000000000000009F
:105110000000000000000000000008003800F0015E
:10512000C007001F0018001FC007F001380008006A
:10513000000000000000000000000000E003F80F85
:10514000180C0C180C180018000C00060003800145
:10515000C000C000C00000000000C000C00000008F
:105160000000000000000000000000000000E00758
:1051700018180420C229224A114409440944094448
:1051800009221113E20C024004201818E007000065
:105190000000000000000000000000008003800309
:1051A000C006C006C006600C600C301830183018FD
:1051B000F83FF83F1C700C600C6006C006C0000091
:1051C000000000000000000000000000FC03FC0FD5
:1051D0000C0C0C180C180C180C0CFC07FC0F0C1801
:1051E0000C300C300C300C300C18FC1FFC0700008D
:1051F000000000000000000000000000C007F01FD9
:1052000038381C300C7006600600060006000600E8
:105210000600060006600C701C30F01FE00700005E
:10522000000000000000000000000000FE03FE0F70
:10523000060E061806180630063006300630063010
:105240000630063006180618060EFE0FFE03000094
:10525000000000000000000000000000FC3FFC3FD8
:105260000C000C000C000C000C00FC1FFC1F0C00C0
:105270000C000C000C000C000C00FC3FFC3F00007C
:10528000000000000000000000000000F83FF83FB0
:1052900018001800180018001800F81FF81F180050
:1052A0001800180018001800180018001800000056
:1052B000000000000000000000000000E00FF83FC8
:1052C0003C780E6006E007C00300030003FE03FE07
:1052D00003C007C006C00EC03CF0F83FE00F00005E
:1052E0000000000000000000000000000C300C3046
:1052F0000C300C300C300C300C30FC3FFC3F0C30D0
:105300000C300C300C300C300C300C300C300000F9
:10531000000000000000000000000000800180018B
:105320008001800180018001800180018001800175
:1053300080018001800180018001800180010000E6
:105340000000000000000000000000000006000651
:10535000000600060006000600060006000600061D
:1053600000060006180618063807F003E0010000E2
:1053700000000000000000000000000006300618D9
:10538000060C060606038601C60066007600DE00EF
:105390008E0106030606060C06180630066000009D
:1053A00000000000000000000000000018001800CD
:1053B000180018001800180018001800180018002D
:1053C00018001800180018001800F81FF81F000037
:1053D0000000000000000000000000000EE01EF0D1
:1053E0001EF01EF036D836D836D836D866CC66CC05
:1053F00066CCC6C6C6C6C6C6C6C686C386C30000B9
:105400000000000000000000000000000C301C3014
:105410003C303C306C306C30CC30CC308C310C3388
:105420000C330C360C360C3C0C3C0C380C300000A9
:10543000000000000000000000000000E007F81F6E
:105440001C380E70066003C003C003C003C003C055
:1054500003C003C006600E701C38F81FE007000090
:10546000000000000000000000000000FC0FFC1F16
:105470000C380C300C300C300C300C18FC1FFC07B6
:105480000C000C000C000C000C000C000C000000C8
:10549000000000000000000000000000E007F81F0E
:1054A0001C380E70066003E003C003C003C003C0D5
:1054B00003C007E006630E3F1C3CF83FE0F700C066
:1054C000000000000000000000000000FE0FFE1FB2
:1054D00006380630063006300638FE1FFE07060383
:1054E0000606060C06180618063006300660000090
:1054F000000000000000000000000000E003F80FC2
:105500001C0C0C180C180C001C00F803E00F001EFB
:105510000038063006300E301C1CF80FE007000083
:10552000000000000000000000000000FE7FFE7F81
:105530008001800180018001800180018001800163
:1055400080018001800180018001800180010000D4
:105550000000000000000000000000000C300C30D3
:105560000C300C300C300C300C300C300C300C305B
:105570000C300C300C300C301818F81FE00700000D
:105580000000000000000000000000000360063082
:10559000063006300C180C180C18180C180C380EA5
:1055A00030063006700760036003C001C0010000D0
:1055B0000000000000000000000000000360C36164
:1055C000C361C361663366336633663366336633FD
:1055D0006C1B6C1B6C1B2C1A3C1E380E380E00000A
:1055E0000000000000000000000000000FE00C7050
:1055F00018303018700C600EC00780038003C003A1
:10560000E006700C301C18180C300E6007E000002B
:1056100000000000000000000000000003C0066061
:105620000C301C383818300C6006E007C0038001CD
:1056300080018001800180018001800180010000E3
:10564000000000000000000000000000FC7FFC7F64
:10565000006000300018000C000600038001C0004C
:105660006000300018000C000600FE7FFE7F000086
:10567000000000000000000000000000E003E00364
:10568000600060006000600060006000600060001A
:10569000600060006000600060006000600060000A
:1056A00060006000E003E003000000003000300014
:1056B000600060006000C000C000C000C001800148
:1056C00080018001000300030003000600060000C3
:1056D000000000000000000000000000E003E00304
:1056E00000030003000300030003000300030003A2
:1056F0000003000300030003000300030003000392
:1057000000030003E003E003000000000000C0010C
:10571000C00160036003600330063006180C180CEB
:105720000000000000000000000000000000000079
:105730000000000000000000000000000000000069
:105740000000000000000000000000000000000059
:10575000000000000000000000000000FFFFFFFF4D
:105760000000000000000000000000000C000C0021
:105770000C000C000C000C000000000000000000F9
:105780000000000000000000000000000000000019
:105790000000000000000000000000000000000009
:1057A000000000000000F003F8071C0C0C0C000FB8
:1057B000F00FF80C0C0C0C0C1C0FF80FF01800007C
:1057C00000000000000000000000000018001800A9
:1057D000180018001800D803F80F380C18181818FB
:1057E0001818181818181818380CF80FD8030000D3
:1057F00000000000000000000000000000000000A9
:10580000000000000000C003F007300E180C180064
:10581000180018001800180C300EF007C003000024
:105820000000000000000000000000000018001848
:10583000001800180018C01BF01F301C181818188A
:105840001818181818181818301CF01FC01B000062
:105850000000000000000000000000000000000048
:10586000000000000000C003F00F300C1818F81FF3
:10587000F81F180018003818301CF00FC00700007F
:10588000000000000000000000000000800FC00FBA
:10589000C000C000C000F007F007C000C000C0009A
:1058A000C000C000C000C000C000C000C0000000B8
:1058B00000000000000000000000000000000000E8
:1058C000000000000000E00DF80F180E0C0C0C0C8E
:1058D0000C0C0C0C0C0C0C0C180EF80FE00D000C42
:1058E0000C0C1C06F807F00100000000180018005E
:1058F000180018001800D807F80F381C18181818C6
:105900001818181818181818181818181818000047
:10591000000000000000000000000000C000C00007
:10592000000000000000C000C000C000C000C000B7
:10593000C000C000C000C000C000C000C000000027
:10594000000000000000000000000000C000C000D7
:10595000000000000000C000C000C000C000C00087
:10596000C000C000C000C000C000C000C000C00037
:10597000C000C000F8007800000000000C000C001F
:105980000C000C000C000C0C0C060C038C01CC0061
:105990006C00FC009C018C030C030C060C0C00003A
:1059A000000000000000000000000000C000C00077
:1059B000C000C000C000C000C000C000C000C000E7
:1059C000C000C000C000C000C000C000C000000097
:1059D00000000000000000000000000000000000C7
:1059E0000000000000007C3CFF7EC7E383C183C150
:1059F00083C183C183C183C183C183C183C10000CB
:105A00000000000000000000000000000000000096
:105A10000000000000009807F80F381C181818182C
:105A20001818181818181818181818181818000026
:105A30000000000000000000000000000000000066
:105A4000000000000000C003F00F300C18181818F8
:105A50001818181818181818300CF00FC003000088
:105A60000000000000000000000000000000000036
:105A7000000000000000D803F80F380C18181818A0
:105A80001818181818181818380CF80FD803180018
:105A900018001800180018000000000000000000A6
:105AA000000000000000C01BF01F301C1818181860
:105AB0001818181818181818301CF01FC01B0018D8
:105AC0000018001800180018000000000000000076
:105AD000000000000000B007F0037000300030004C
