:020000040800F2
:1000000000050020ED01000871270008991C000878
:100010006D27000891020008554900080000000003
:10002000000000000000000000000000114800086F
:100030004503000800000000752700081548000867
:10004000070200080702000807020008070200086C
:10005000070200080702000807020008070200085C
:10006000070200080702000807020008070200084C
:10007000070200080702000807020008070200083C
:10008000070200080000000007020008070200083D
:10009000070200080702000807020008070200081C
:1000A000070200080702000807020008070200080C
:1000B0000702000835480008070200080702000888
:1000C00007020008070200080702000807020008EC
:1000D00007020008070200080702000807020008DC
:1000E00007020008070200080702000807020008CC
:1000F00007020008070200080702000800000000CD
:1001000000000000070200080000000007020008CD
:1001100007020008000000000702000807020008AC
:10012000070200080702000807020008070200088B
:10013000070200080000000000000000070200089D
:10014000070200080702000800000000000000008D
:10015000000000000000000000000000000000009F
:10016000000000000000000000000000070200087E
:10017000070200080000000000000000000000006E
:10018000000000000702000800000000000000005E
:10019000000000000000000000000000000000005F
:1001A000000000000000000007020008070200082D
:1001B000070200080702000807020008000000000C
:1001C000000000000702000800000000000000001E
:1001D0000702000807020008DFF80CD000F040F822
:1001E000004800475949000800050020064880479C
:1001F00006480047FEE7FEE7FEE7FEE7FEE7FEE70C
:10020000FEE7FEE7FEE7FEE719480008D90100080F
:10021000D2B201E000F8012B491EFBD27047002248
:10022000F6E710B513460A4604461946FFF7F0FFF5
:10023000204610BD30B50B46014600202022012487
:1002400009E021FA02F59D4205D303FA02F5491BA4
:1002500004FA02F52844151EA2F10102F1DC30BDBA
:100260001CB509480090094801900546009C06E02D
:10027000E06840F0010394E8070098471034AC426E
:10028000F6D3FFF7ADFF0000046100082461000809
:10029000FEE7000010B540F60004C4F60004204656
:1002A0004FF48051012200F02DF920464FF4005107
:1002B000012200F027F920464FF48041012200F08E
:1002C00021F920464FF40041012200F01BF904F50A
:1002D000806420460421012200F014F92046042104
:1002E0000022BDE8104000F00DB9000010B540F646
:1002F0000004C4F6000420464FF48071012200F08F
:1003000001F920464FF40071012200F0FBF820466D
:100310004FF48061012200F0F5F820464FF40061AF
:10032000012200F0EFF804F5806420460421012248
:1003300000F0E8F8204604210022BDE8104000F05B
:10034000E1B800007047000070470000B0B50446F7
:1003500000F0DEF8054640F20000C2F200004068FE
:10036000611C18BF044400BF00F0D2F8401BA0423B
:10037000FAD3B0BD0A68002A08BF70472DE9F04FD4
:1003800082B041F2004500F138478605C4F6000509
:10039000062340F2004E46EA9724A84208BF0523F0
:1003A000C4F2010E052C38BF234600244FF0010B88
:1003B00000260027009309E00A68013732FA07F3A4
:1003C00006F1040604F1020400F098800BFA07F924
:1003D00012EA0908F0D04A6842F01005122D13D134
:1003E0006FF0030202EA57020244D2F820A006F09E
:1003F0001C030F25D1F810C09D402AEA05050CFA10
:1004000003F32B4313624A6803680325A5406FEA90
:10041000050AAB4302F00305A5402B43122A0360F3
:1004200012D80BFA02F313F0061F0DD08368CD68C3
:1004300003EA0A03A5402B4383604368150923EAB6
:100440000903BD402B434360C3688D6803EA0A0378
:10045000A5402B43D200C360AED541F26003C4F285
:1004600002031A684FF6084942F001021A601A683E
:10047000CFF6FF7902F001020192019A27F0030200
:10048000724452F809C006F00C050F23AB402CEA69
:10049000030C009B03FA05F545EA0C0342F809300A
:1004A000DEF800C04B684CEA0805DA0358BF2CEAB6
:1004B0000805CEF80050DEF804C09A034CEA08059F
:1004C00058BF2CEA0805CEF80450DEF808C0DA025E
:1004D0004CEA080558BF2CEA080540F20C4CCEF84F
:1004E0000850C4F2010CDCF800209B0242EA080527
:1004F00058BF22EA0805CCF800505DE702B0BDE81D
:10050000F04F70471823002A08BF2823C1507047B6
:1005100040F2F800C2F200000068704740F20000AC
:1005200040F2F801C2F20000C2F2000140680A681D
:10053000104408607047000080B5032000F092F876
:10054000002000F009F800281CBF012080BD00F049
:1005500029F8002080BD000070B540F20006C2F20C
:1005600000067168E1B1044640F20C00C2F20000DE
:100570004FF47A720068B2FBF1F1B0FBF1F001F0D8
:100580009BF80F2C4FF0010508D838B94FF0FF3019
:1005900021460022002500F039F83460284670BD5D
:1005A000012070BD82B041F25800C4F2020081689F
:1005B00041F001018160816801F00101019101991F
:1005C000016841F080510160006800F080500090A7
:1005D000009847F20800C4F20000016821F480414D
:1005E000016002B070470000002848BF704700F06B
:1005F0001F01012202FA01F11C2202EAD0004EF290
:100600000012CEF2000281507047000010B54EF685
:100610000C5CCEF2000CDCF80030C3F3022E8EF03E
:100620000704042C28BF0424BEF103034FF0FF3E4F
:100630000EFA04F438BF0023A14399400EFA03F3E5
:100640009A43114300F00F0200F160430901043A9C
:1006500003F564436244002848BF02F10C0319709B
:1006600010BD00004EF60C51CEF200010A684FF6A4
:10067000FF031A4060F30A2242F0806040F0FD70F0
:1006800008607047B0F5007F42D0002840F08080BD
:1006900047F21400C4F2000050F8141CC26E01F4BA
:1006A000C06122F48072B1F5806FC2662ED150F81D
:1006B000141C012262F34A2140F8141C40F20C0180
:1006C000C2F200010968322251434DF68362C4F23E
:1006D0001B32A1FB0212910C0268520511D54A1C73
:1006E0000FD0026852050CD559B10268520508D5E1
:1006F000012906D00268520503D50229A1F104019F
:10070000EAD10068400544BF0320704700207047CD
:1007100047F21400C4F2000050F8141CC26E01F439
:10072000C06142F48072B1F5806FC266EED150F8BC
:10073000141C012262F34A2140F8141C40F20C01FF
:10074000C2F200010968322251434DF68362C4F2BD
:100750001B32A1FB0212910C0268520511D54A1CF2
:100760000FD0026852050CD559B10268520508D560
:10077000012906D00268520503D50229A1F104011E
:10078000EAD10068400544BF03207047BEE700BFC0
:1007900047F21400C4F2000050F8141C022262F365
:1007A0004A2140F8141C0020704700002DE9F04158
:1007B00082B00446807841F288060007C4F202063F
:1007C00002D400202FE000BF56F8300C5FEAC008CA
:1007D0000BD456F8300C40F0805046F8300C56F8E8
:1007E000300C00F080500190019847F20007C4F2ED
:1007F0000007386840F480703860FFF789FE0546CE
:100800003868C00500F1D680FFF782FE401B022841
:10081000F6D90320B8F1000F05D456F8301C21F0AA
:10082000805146F8301C2168CA0713D18A0719D4B1
:100830004A071FD40A0725D48A062BD44A0631D486
:100840000A0637D4CA053DD48A0543D44A0549D49B
:1008500057E000BF3268636822F003021A43326037
:100860008A07E5D53268A36822F00C021A43326089
:100870004A07DFD53268E36822F030021A4332605B
:100880000A07D9D53268236922F0C0021A433260C0
:100890008A06D3D53268636922F440621A43326013
:1008A0004A06CDD53268A36922F440521A43326019
:1008B0000A06C7D53268E36922F440421A4332601F
:1008C000CA05C1D53268236A22F440321A43326025
:1008D0008A05BBD53268636A22F440221A4332602B
:1008E0004A050ED53268A36A22F440121A43B3F5C2
:1008F000801F326005D156F87C2C42F4801246F8F5
:100900007C2C0A050ED53268E36A22F440021A43B1
:10091000B3F5800F326005D156F87C2C42F480127A
:1009200046F87C2CCA040ED53268236B22F0407244
:100930001A43B3F1807F326005D156F87C2C42F423
:10094000801246F87C2C8A040ED53268636B22F044
:1009500040621A43B3F1006F326005D156F87C2C27
:1009600042F4801246F87C2C4A040ED53268A36B00
:1009700022F040621A43B3F1006F326005D156F89D
:100980007C2C42F4801246F87C2C09040ED5316888
:10099000E26B21F040511143B2F1805F316005D12B
:1009A00056F87C1C41F4803146F87C1C02B0BDE84E
:1009B000F08100BFB06810F4407010D0216C884204
:1009C0000BD0B068B16820F4407041F48031B16060
:1009D000B16821F48031B160B060C0070CD1B0685B
:1009E000216C20F440700843B0600020B8F1000F83
:1009F0003FF519AF11E700BFFFF78AFD054641F249
:100A0000883700BFB0688007E9D4FFF781FD401B3D
:100A1000B842F7D9FDE600002DE9F047002865D07F
:100A200042F2000AC4F2020A0446DAF800000D4657
:100A300000F00F0088420CD2DAF8000020F00F001E
:100A40002843CAF80000DAF8000000F00F00A842BE
:100A50004CD1216841F20808C807C4F2020803D14A
:100A6000880740F1D480B9E0606802283AD00328B2
:100A700040D158F8082C920138D5D8F80420D8F87D
:100A8000043042F20046C3F3031302F00302D8F825
:100A900004700133C0F2F406032A04BF43F2006677
:100AA000C0F26E16B6FBF3F2D8F80430C7F306278F
:100AB0007A43C3F34163022707EB4303B2FBF3F22C
:100AC0004BF20043C0F2C4439A425DD9D8F80020EB
:100AD00012F0F00F4DD0890756D5A168002953D1E7
:100AE00047E000BF58F8081C890307D40120BDE87F
:100AF000F08700BF58F8081C4905F7D5D8F8001052
:100B000001F00C0104293FD0D8F8001001F00C01CD
:100B1000082939D0D8F8001001F00C010C2933D184
:100B2000D8F80410D8F8042042F20047C2F30312A8
:100B300001F00301D8F804300132C0F2F4070329B0
:100B400004BF43F20067C0F26E17B7FBF2F1D8F8AA
:100B50000420C3F306235943C2F34162022303EB8B
:100B60004202B1FBF2F14BF20042C0F2C4429142A8
:100B70000AD9D8F80010082262F307114FF00109D2
:100B8000C8F8001002E000BF4FF00009D8F80010CC
:100B900021F003010843C8F80000FFF7B9FC06463E
:100BA00041F28837D8F80000616800F00C00B0EB23
:100BB000810F07D0FFF7ACFC801BB842F2D90320AD
:100BC000BDE8F0872168880708D4B9F1000F1ED06E
:100BD000D8F8000020F0F00017E000BF480705D566
:100BE000D8F8000040F4E060C8F80000080706D517
:100BF000D8F80000072262F30D20C8F80000D8F8EA
:100C00000000A26820F0F0001043C8F80000DAF8F5
:100C1000000000F00F00A8421BD9DAF8000020F015
:100C20000F002843CAF80000FFF772FC064641F2A5
:100C3000883700BFDAF8000000F00F00A84207D0A4
:100C4000FFF766FC801BB842F4D90320BDE8F087AB
:100C50002168480707D5D8F80000E26820F4E06072
:100C60001043C8F80000080708D5D8F8000021692B
:100C700020F4605040EAC100C8F80000D8F8000035
:100C800042F20041C0F2F40100F00C0004280846D2
:100C90002DD0D8F8000000F00C00082843F20060C6
:100CA000C0F26E1023D0D8F8002002F00C020C2AFB
:100CB0001CD1D8F80420D8F8043002F00302C3F3A2
:100CC0000313D8F804700133032A08BF0146B1FBAF
:100CD000F3F0D8F80410C7F30627C1F341610222EC
:100CE000784302EB4101B0FBF1F000E00020D8F8BE
:100CF000001044F6C062C1F30311C0F60002515C5B
:100D000040F20C0201F01F0120FA01F140F2000054
:100D1000C2F200000068C2F200021160BDE8F047B4
:100D2000FFF71ABC002804BF012070472DE9F041ED
:100D300082B00446007841F20006C007C4F2020601
:100D40001ED1207880073DD42078000764D4207815
:100D5000400700F187802078800600F1D980E069A3
:100D6000002800F0C581B16801F00C010C2940F0A9
:100D70003181012840F08481012002B0BDE8F0817A
:100D8000B06800F00C01F068082961D0032281F0FE
:100D90000C0122EA00000844B0FA80F0400957D163
:100DA0006068B0F5803F07D0B0F5A02F40F0E48038
:100DB000306840F480203060306840F4803030602B
:100DC000E5E000BFB068F16800F00C00042871D0C5
:100DD00001F0030180F00C0081F002010844B0FA38
:100DE00080F0400966D1E1683068002900F0E080B9
:100DF00040F480703060FFF78BFB0546306840059B
:100E000000F1FE80FFF784FB401B0228F6D9032087
:100E100002B0BDE8F08100BF6169D6F894000029F6
:100E200000F0948040F00100C6F89400FFF770FBDA
:100E3000054600BFD6F8940080073FF588AFFFF75E
:100E400067FB401B0228F5D9032002B0BDE8F08102
:100E5000306880037FF575AF606800287FF471AF5C
:100E60003EE000BFB06D5FEAC00808D4B06D40F04E
:100E70008050B065B06D00F080500190019847F24D
:100E80000007C4F200073868C0052DD4386840F464
:100E900080703860FFF73CFB054600BF3868C0052E
:100EA00022D4FFF735FB401B0228F7D9032002B0FC
:100EB000BDE8F0813068400501D5E06880B1706818
:100EC000216920F0FE4040EA0160706040F20000BD
:100ED000C2F200000068FFF73FFB00283FF434AF88
:100EE000012002B0BDE8F081A068012808D00528E3
:100EF00040F0A480D6F8900040F00400C6F89000BE
:100F0000D6F8900040F00100C6F89000A4E000BFC1
:100F1000A169D6F89800002900F07A8040F001001D
:100F2000C6F89800FFF7F4FA054600BFD6F8980017
:100F300080073FF514AFFFF7EBFA401B02284FF094
:100F40000300F3D902B0BDE8F08100BF20F001003A
:100F5000C6F89400FFF7DCFA054600BFD6F8940007
:100F600080077FF5F4AEFFF7D3FA401B0228F5D9CE
:100F7000032002B0BDE8F0813168002821F48031FF
:100F80003160316821F48021316000F0CF80FFF7BB
:100F9000BFFA0546306880033FF5D3AEFFF7B8FAD5
:100FA000401B6428F6D9032002B0BDE8F08100BFE1
:100FB00020F480703060FFF7ABFA054630684005DA
:100FC0007FF5C2AEFFF7A4FA401B02284FF00300E2
:100FD000F4D9B7E73168022821F08071316040F020
:100FE0008B80FFF795FA05463068800140F1CA8092
:100FF000FFF78EFA401B02284FF00300F4D9A1E757
:101000007068216920F0FE4040EA016070609BE654
:1010100020F00100C6F89800FFF77AFA054600BFF5
:10102000D6F8980080077FF59AAEFFF771FA401B5B
:1010300002284FF00300F3D984E700BFD6F89010E0
:10104000002821F00101C6F89010D6F8901021F088
:101050000401C6F8901079D0FFF75AFA054641F21C
:10106000883700BFD6F89000800700F18180FFF735
:101070004FFA401BB842F5D9032002B0BDE8F08119
:10108000F068216A00F003028A427FF429AF626AA5
:101090006FF00F0300F0F00103EB021291427FF4B6
:1010A0001FAFA16A00F4FE42B2EB012F7FF418AF2C
:1010B000E16A00F07842B2EBC16F7FF411AF226BAE
:1010C0000023CFF6E07303EA025200F4C001A2F558
:1010D000001291427FF404AF616B4FF07E4202EA4E
:1010E000016100F0C06001F17E4188427FF4F8AEFA
:1010F000002002B0BDE8F081F0684FF6FF7120F0EB
:101100000300F060F068CFF6EE610840F060FFF792
:10111000FFF9044630688001EAD5FFF7F9F9001BB2
:1011200002284FF00300F5D90CE700BFFFF7F0F9F4
:10113000054600BF306880037FF503AEFFF7E8F98E
:10114000401B64284FF00300F4D9FBE6FFF7E0F9F9
:10115000054641F2883700BFD6F89000800707D5D2
:10116000FFF7D6F9401BB8424FF00300F4D9E9E687
:10117000B8F1000F3FF5EFADB06D20F08050B065D5
:10118000E9E500BFF06848F20C01C0F29F1104F1DC
:10119000200700EA010C8ECF6FF00F00D4E90C5449
:1011A00000EB02100022CFF6E07241EA0C0102EAE5
:1011B00005520843A2F500124FF07E4540EA032095
:1011C00005EA0465104305F17E4540EAC7602843FF
:1011D000F060306840F080703060F06840F08070FF
:1011E000F060FFF795F90446306880013FF580AF65
:1011F000FFF78EF9001B02284FF00300F4D9A1E697
:1012000010B542F60400C4F2000000684FEA104333
:10121000C0F3042E00F03F0CC0F34234CB7081F8D1
:1012200001E081F802C00C7012B1002010BD00BFB7
:10123000DCB2240904EB840403F00F0303EB440342
:10124000020ACB704FEA1E1343EA830302F00F0237
:1012500002EB43024A704FEA1C1242EA820200F09B
:101260000F0000EB42008870002010BD10B542F660
:101270000000C4F2000083684B6003696FF3DF3342
:101280008B600068C0F30543C0F3062E00F07F0CAE
:10129000C0F380540B7081F801E081F802C0CC707B
:1012A00012B1002010BD00BF020C1B0943EA8303EA
:1012B00002F00F0202EB4302040A0A704FEA1E1208
:1012C00002EB820204F00F0303EB42024A704FEA82
:1012D0001C1202EB820200F00F0000EB420088704B
:1012E000002010BD002804BF0120704770B50446DF
:1012F00090F8250028B9002084F82400204600F04A
:1013000057F842F60C060220C4F2000684F82500C5
:10131000CA20B0615320B0613068400613D43068F1
:1013200040F080003060FFF7F3F8316849060AD4D6
:10133000054600BFFFF7ECF8401BB0F57A7F2FD8C9
:1013400030684006F6D5F0684FF6BF71CFF68F31A2
:101350000840F060231D22690BCB1043A269F56899
:1013600010432843F06043EA01407060204603F0D8
:1013700007FA18B1FF21B16170BD00BFF068D4E970
:10138000071220F060406369104308431843F0607F
:10139000FF20B061012084F82500002070BD00BF4F
:1013A000032084F825003168FF21B16170BD000081
:1013B000006842F60001C4F20001884218BF70477D
:1013C00041F29000C4F20200016841F40041016062
:1013D000704700002DE9F04381B0044690F82400E6
:1013E00001284FF0020000F09280012384F824309D
:1013F00084F8250042B14878CA7891F8029000023A
:1014000040EA024845E000BF48784FF0CD0CC206E4
:1014100042BF00F0EF000A304870CA7891F802909D
:10142000A2F10A07FEB206FB0CF6F50AD3B205EBF1
:101430008505A7EB45070125092BA0F10A0305EB5C
:10144000D62688BF47EA0612DFB207FB0CF7FE0A72
:1014500006EB8606A3EB460305EBD727092888BFD2
:1014600043EA0710C0B2D2B2000240EA0248A9F132
:101470000A02D3B203FB0CF3DF0A5FFA89F007EB31
:101480008707A2EB470205EBD323092888BF42EA6E
:10149000031942F60C07C4F20007CA200E78B8619F
:1014A0005320B8613868400613D4386840F0800093
:1014B0003860FFF72DF8396849060AD4054600BFA1
:1014C000FFF726F8401BB0F57A7F17D8386840063A
:1014D000F6D55FFA89F040EA0800710320F0C000F9
:1014E000084347F8080C204603F04AF9FF21B96188
:1014F00050B9012084F82500002005E0032084F87D
:1015000025003968FF21B961002184F8241001B059
:10151000BDE8F0832DE9F047044690F82400012847
:101520004FF0020008BFBDE8F087884642F60C0580
:101530000121C4F2000584F8241084F82500CA2093
:10154000A8615320A86128681646400614D428686C
:1015500040F080002860FEF7DBFF296849060BD4C5
:10156000074600BFFEF7D4FFC01BB0F57A7F00F23C
:10157000978028684006F5D5E8683EB140060DD44E
:101580004FF0000988F803900CE000BF400613D428
:101590004FF0000988F8039012E000BF98F80300AC
:1015A0004FEA805998F8012098F8000098F8021046
:1015B000120242EA004348E098F803004FEA8059DB
:1015C00098F800304FF0CD0CA3F10A02D6B206FB1A
:1015D0000CF698F80170F00A4FF0010A5FFA83FEEA
:1015E00000EB80000AEBD62698F80210A2EB400030
:1015F000BEF1090F88BF40EA0613A7F10A06F2B24E
:1016000002FB0CF2D00A5FFA83FEFBB200EB800013
:101610000AEBD222A6EB4000092B88BF40EA021752
:10162000A1F10A02F8B2D7B207FB0CF70002FE0ADA
:1016300040EA0E43C8B206EB8606A2EB46020AEB6E
:10164000D727092888BF42EA0711C8B2184347F6CE
:101650007F7140EA0900C0F27F01084045F80C0C98
:10166000E86820F48020E860D8E90301EA680843CC
:101670001043E860204603F083F8FF21A96128B1F8
:10168000002184F82410BDE8F08700BF012084F811
:1016900025000020002184F82410BDE8F08700BF59
:1016A000032084F825002968FF21A961002184F81E
:1016B0002410BDE8F0870000411E0020B0EB116F40
:1016C0001CBF012070474EF21002CEF200025160A2
:1016D0004EF62351CEF20001F0230B7007219060EB
:1016E00011607047704700007047000070470000AD
:1016F00070470000704700007047000090F83C20E1
:10170000012A4FF002022ED010B580F83D20026869
:1017100043F20043D2F804E0D2F808C0C4F2010357
:101720009A4205D042F60043C4F201039A4204D122
:101730004C682EF4700344EA030E4FF68F73CFF615
:10174000FF530C6803EA0E03896823432CF08004DE
:101750002143536091600121002280F83D1080F800
:101760003C20BDE810401046704700007047000064
:10177000002804BF0120704710B5044690F83D00D2
:1017800028B9002084F83C00204600F00DF8022023
:1017900084F83D002068211D03F052F8012084F8F0
:1017A0003D00002010BD000080B582B0006840F60A
:1017B0000001C4F2000188421ED040F20041C4F290
:1017C0000001884225D141F25800C4F202000168AC
:1017D000002241F0020101600068002100F00200D7
:1017E000019001981D20FEF711FF1D2002B0BDE8F9
:1017F0008040FEF7F9BE00BF41F25800C4F202007B
:10180000016841F004010160006800F004000090EC
:10181000009802B080BD00000146022081F83D0022
:10182000086807238268C0F201031A40062A02D022
:10183000B2F5803F04D10122002081F83D2070479D
:10184000026842F0010202600122002081F83D207E
:101850007047000090F83C20012A4FF0020200F08F
:10186000B78080B580F83D20D0F800C08822DCF831
:101870000830CFF6CE721A40CCF808200B686F2BD8
:1018800022DD2F22C0F21002934247DCB3F1101F79
:1018900056DA702B00F0C080B3F5005F40F0908006
:1018A000D1E901E3C968DCF8082043EA0E0322F419
:1018B0007F4243EA01211143CCF80810DCF80810FC
:1018C00041F480417AE000BF2F2B33DD4F2B3BDC0E
:1018D000302B69D0402B73D1D1F804E0C968DCF813
:1018E0002030DCF8202022F00102CCF82020DCF8A7
:1018F000182022F0F00242EA011123F00A0242EA23
:101900000E02CCF81810CCF82020DCF808104FF6A6
:101910008872CFF6CF72114047314FE05F21C0F29D
:1019200010018B4236DC3021C0F210018B423BD0DB
:10193000402135E0C3B3102B36D0202B34D03FE00C
:1019400032D020212CE000BF502B43D0602B37D168
:10195000D1F804E0C968DCF8203023F01003CCF89B
:101960002030DCF81830DCF8202023F4704322F01B
:10197000A00243EA013142EA0E12CCF81810CCF86A
:101980002020DCF808104FF68872CFF6CF72114095
:10199000673113E06021C0F210018B4204D0702146
:1019A000C0F210018B420BD1DCF808104FF68872A0
:1019B000CFF6CF721140194341F00701CCF808105F
:1019C0000121002280F83D1080F83C20BDE88040D5
:1019D00010467047D1F804E0C968DCF82030DCF824
:1019E000202022F00102CCF82020DCF8182022F080
:1019F000F00242EA011123F00A0242EA0E02CCF898
:101A00001810CCF82020DCF808104FF68872CFF6BA
:101A1000CF7211405731D1E7D1E901E3C968DCF851
:101A2000082043EA0E0322F47F4243EA01211143D6
:101A3000CCF80810DCF8081041F07701BEE7000090
:101A40007047000010B5016804460869800744BF6C
:101A5000C8685FEA807061D40869400744BFC868FD
:101A60005FEA407066D40869000744BFC8685FEA4F
:101A700000706DD40869C00644BFC8685FEAC060E2
:101A800072D40869C0071CBFC8685FEAC07079D10A
:101A90000869000644BFC8685FEA00607AD4086934
:101AA000C00544BFC8685FEA006000F17B80086938
:101AB000400644BFC8685FEA406000F17B80086967
:101AC000800644BFC8685FEA806000F17B800869D7
:101AD000C00244BFC8685FEAC02000F17B8008698B
:101AE000800244BFC8685FEA802000F17B800869FB
:101AF000400244BFC8685FEA402000F17B8008696B
:101B0000000246BFC8685FEA002010BD6FF4000203
:101B100020460A61BDE81040FFF728BE6FF00200C2
:101B2000086101202077886980076BD02046FFF785
:101B300087FF6DE06FF0040008610220207788695C
:101B400010F4407F68D02046FFF77AFF6AE000BFBC
:101B50006FF00800086104202077C869800765D00D
:101B60002046FFF76DFF67E06FF010000861082066
:101B70002077C86910F4407F62D02046FFF760FFED
:101B800064E000BF6FF001000861204600F066F8D5
:101B900021687DE76FF0800008612046FFF7A4FD13
:101BA00021687CE76FF4807008612046FFF79AFD9A
:101BB00021687CE76FF040000861204600F06AF879
:101BC00021687CE76FF0200008612046FFF78EFD5A
:101BD00021687CE76FF4801008612046FFF78AFDDA
:101BE00021687CE76FF4001008612046FFF780FD54
:101BF00021687CE76FF4800008612046FFF77CFDD8
:101C000021687CE7204600F025F8204600F024F803
:101C10002168002020771FE7204600F01BF82046AF
:101C200000F01AF82168002020771CE7204600F019
:101C300011F8204600F010F821680020207719E7FD
:101C4000204600F007F8204600F006F82168002042
:101C5000207716E77047000070470000006840F2E8
:101C60000041C4F20001884206D040F27800C2F27E
:101C70000000FFF7D1BD00BF40F21000C2F200002B
:101C800001680131016040F27800C2F20000FFF704
:101C9000C3BD000070470000FEE7000040F218419D
:101CA000C4F600010A6942F400720A610A6942F44A
:101CB00080720A610A6842F020020A602022C1F89C
:101CC000FC230A6942F020020A6100BF00BF00BF86
:101CD0000A6842F020020A600A6842F480720A60D0
:101CE0000022C1F8FC230B6943F020030B6100BF05
:101CF00000BF00BF0B6843F020030B600B6843F488
:101D000080730B600B6943F400730B610B6943F440
:101D100080730B610B6843F020030B602123C1F833
:101D2000FC330B6943F020030B6100BF00BF00BF11
:101D30000B6843F020030B600B6843F480730B6067
:101D4000C1F8FC230A6942F020020A6100BF00BF0B
:101D500000BF0A6842F020020A600A6842F48072FA
:101D60000A600A6942F400720A610A6942F48072E8
:101D70000A610A6842F020020A602222C1F8FC23AC
:101D80000A6942F020020A6100BF00BF00BF0A6872
:101D900042F020020A600A6842F480720A6000BFC2
:101DA00000BF00BF0A6842F400720A604FF4963226
:101DB0000B69053A43F400730B610B6843F48073BD
:101DC0000B600B6843F020030B60C1F8FC030B6948
:101DD00043F020030B6100BF00BF00BF0B6843F05E
:101DE00020030B600B6843F480730B6000BF00BFDF
:101DF00000BF0B6843F400730B600B6943F400737E
:101E00000B610B6843F480730B600B6843F0200395
:101E10000B60C1F8FC030B6943F020030B6100BFAA
:101E200000BF00BF0B6843F020030B600B6843F456
:101E300080730B6000BF00BF00BF0B6843F40073EA
:101E40000B600B6943F400730B610B6843F4807300
:101E50000B600B6843F020030B60C1F8FC030B69B7
:101E600043F020030B6100BF00BF00BF0B6843F0CD
:101E700020030B600B6843F480730B6000BF00BF4E
:101E800000BF0B6843F400730B600B6943F40073ED
:101E90000B610B6843F480730B600B6843F0200305
:101EA0000B60C1F8FC030B6943F020030B6100BF1A
:101EB00000BF00BF0B6843F020030B600B6843F4C6
:101EC00080730B6000BF00BF00BF0B6843F400735A
:101ED0000B600B6943F400730B610B6843F4807370
:101EE0000B600B6843F020030B60C1F8FC030B6927
:101EF00043F020030B6100BF00BF00BF0B6843F03D
:101F000020030B600B6843F480730B6000BF00BFBD
:101F100000BF0B6843F400730B607FF449AF704758
:101F20000A78002A08BF70472DE9F04144F6D068CE
:101F300004464D1C002740F23F16C0F6000800BFC3
:101F4000A2F12000C1B2490051FA80F008EB001262
:101F5000B1B2204600F00AF8EA5D22B1103E132F1C
:101F600007F10107ECD3BDE8F04170472DE9F047D8
:101F700040F21843C4F600031F694FF0200C47F4E9
:101F800000771F611F694FF0210E47F480771F61B2
:101F90001F6840F2080947F020071F60C3F8FCC320
:101FA0001F6940F24A0A47F020071F6100BF00BFC7
:101FB00000BF1F684FF0220847F020071F601F680E
:101FC000C2F2000947F480771F60C3F8FC031F6961
:101FD000C2F2000A47F020071F6100BF00BF00BF28
:101FE0001F6847F020071F601F6847F480771F6055
:101FF0001F6947F400771F611F6947F480771F61ED
:102000001F6847F020071F60C3F8FCE31C6944F019
:1020100020041C6100BF00BF00BF1C6844F0200406
:102020001C601C6844F480741C60C3F8FC131C69B9
:1020300044F020041C6100BF00BF00BF1C6844F0D6
:1020400020041C601C6844F480741C60002400BFE1
:102050001D6945F400751D611D6945F480751D619C
:102060001D6845F020051D60C3F8FC831D6945F01F
:1020700020051D6100BF00BF00BF1D6845F02005A1
:102080001D601D6845F480751D6000BF00BF00BF66
:102090001D6845F400751D60002500BF32F814600E
:1020A000EE40F607564608BF4E4636881F6947F48D
:1020B00000771F611F6847F480771F601F6847F033
:1020C00020071F60C3F8FC631E696F1C46F02006E2
:1020D0001E6100BF00BF00BF1E6846F020061E60E4
:1020E0001E6846F480761E6000BF00BF00BF1E68F9
:1020F00046F400761E6032F81460FE40F60756463D
:1021000008BF4E4636881F6947F400771F611F6875
:1021100047F480771F601F6847F020071F60C3F8EF
:10212000FC631E69AF1C46F020061E6100BF00BFA5
:1021300000BF1E6846F020061E601E6846F48076CA
:102140001E6000BF00BF00BF1E6846F400761E6020
:1021500032F81460FE40F607564608BF4E463688F1
:102160001F6947F400771F611F6847F480771F607D
:102170001F6847F020071F60C3F8FC631E69EF1C4F
:1021800046F020061E6100BF00BF00BF1E68043578
:1021900046F020061E601E6846F480761E6000BF72
:1021A00000BF00BF1E6846F400761E6032F814605F
:1021B000FE40F607564608BF4E4636881F69102D6A
:1021C00047F400771F611F6847F480771F601F681E
:1021D00047F020071F60C3F8FC631E6946F0200625
:1021E0001E6100BF00BF00BF1E6846F020061E60D3
:1021F0001E6846F480761E6000BF00BF00BF1E68E8
:1022000046F400761E607FF449AF1D69013045F445
:1022100000751D611D69013445F480751D611D68DF
:10222000182C45F020051D60C3F8FCC31D6945F05E
:1022300020051D6100BF00BF00BF1D6845F02005DF
:102240001D601D6845F480751D60C5B2C3F8FC5360
:102250001D6945F020051D6100BF00BF00BF1D685E
:1022600045F020051D601D6845F480751D601D69E1
:1022700045F400751D611D6945F480751D611D687B
:1022800045F020051D60C3F8FCE31D6945F02005FD
:102290001D6100BF00BF00BF1D6845F020051D6027
:1022A0001D6845F480751D60C3F8FC131D6945F079
:1022B00020051D6100BF00BF00BF1D6845F020055F
:1022C0001D601D6845F480751D6008BFBDE8F0877E
:1022D000BEE600002DE9F04F8BB0002641F24C0025
:1022E0000596C4F20200016840F2184541F004016D
:1022F00001600168C4F6000501F004010691069929
:10230000016801AC41F001010160016840F6140967
:1023100001F00101069106990168C4F6000941F037
:10232000020101600068214600F002000690069854
:102330004FF44870019001200290A5F11800012788
:10234000CDE90366FEF716F84FF48070CDE901077A
:102350004FF090402146CDE90366FEF70BF84FF6AB
:10236000FF7005F57A7406904FF0030806A9204621
:102370000A964FF6FF7B0797CDE90868FDF7FAFF4D
:102380004FF6004ACFF6FF7A55F80A0006A940F446
:10239000807045F80A0028684FF6FF7740F408700F
:1023A0002860286940F400702861286940F4807032
:1023B0002861286840F020002860C9F8006028697A
:1023C00040F02000286100BF00BF00BF286840F037
:1023D00020002860286840F48070286020460A9613
:1023E000CDF818B0CDF82480CDE90766FDF7C2FF1F
:1023F0004FF6104BCFF6FF7B55F80B0007A940F4C2
:10240000807045F80B0000BF00BF00BFD5F8F893FF
:1024100055F80A0040F4807045F80A00012081E870
:10242000410106A920460A960697FDF7A3FF2868F2
:1024300048F2302140F40070286040F24C00C2F2B3
:102440000000A0F800900088884203D100F094F9C1
:1024500002E000BF00F004FF2869002640F400708D
:10246000286128694FF6FF7840F480702861286859
:102470004FF0030940F02000286040F61400C4F635
:1024800000000660286906A940F02000286100BF0E
:1024900000BF00BF286840F020002860286840F492
:1024A0008070286020460A96CDE90686CDE9086945
:1024B000FDF760FF55F80B0007A940F4807045F860
:1024C0000B0000BF00BF00BFD5F8F87355F80A0035
:1024D00040F4807045F80A00012081E8410206A915
:1024E00020460A96CDF81880FDF744FF286840F48E
:1024F0000070286040F24C00C2F2000007800BB070
:10250000BDE8F08F81B0ADF80200BDF8020040F2E6
:102510000801C2F20001088001B0704781B0ADF837
:102520000200BDF8020040F24A01C2F20001088038
:1025300001B070472DE9F04387B0002741F24C000D
:102540000697C4F20200016840F6000441F004015D
:1025500001600168C4F6000401F0040101910199D1
:102560000168012241F02001016001684FF47F46BB
:1025700001F020010191019901684FF0010841F03B
:1025800001010160016801F00101019101990168F7
:1025900041F00801016000684FF47F4100F008003D
:1025A000019001982046FDF7ADFF04F580652846AF
:1025B000042100224FF00409FDF7A4FFCDE90268D1
:1025C00002AE20463146CDE90477FDF7D3FE28461A
:1025D0003146CDE90298CDE90477FDF7CBFE07B08F
:1025E000BDE8F08310B586B040F2500042F600011D
:1025F0000024C2F20000C4F200017D224FF0804CA2
:10260000C0E9001400F10801CDE90244CDE900441D
:1026100041F270731CC1C0E90544C0E907C4FEF76C
:1026200061FE002818BFFDF78FFE1220ADF80400F0
:1026300040F25000C2F2000001A901228DF80640CC
:102640000294CDE90444FEF765FF002818BFFDF7AA
:102650007BFE40F20520C0F22600009040F25000C0
:10266000C2F2000069460122FEF7B4FE002818BF3E
:10267000FDF76AFE06B010BD80B588B040F2780064
:1026800040F200420021C2F20000C4F2000241F612
:102690003F7349F63F4C0791CDE905110291C0E91E
:1026A0000023C0E9021C01618161FFF761F8002885
:1026B00018BFFDF749FE4FF48050049040F27800B7
:1026C000C2F2000004A9FFF7C5F8002818BFFDF703
:1026D0003BFE00200190039040F27800C2F200001F
:1026E00001A9FFF70BF8002818BFFDF72DFE08B071
:1026F00080BD000080B588B040F2B80040F600020E
:102700000021C2F20000C4F200024F2342F20F7C0B
:102710000791CDE905110291C0E90023C0E9021C2F
:1027200001618161FFF724F8002818BFFDF70CFE56
:102730004FF48050049040F2B800C2F2000004A9A7
:10274000FFF788F8002818BFFDF7FEFD0020019074
:10275000039040F2B800C2F2000001A9FEF7CEFFDC
:10276000002818BFFDF7F0FD08B080BDFEE70000AF
:10277000704700007047000040F21840C4F60000A7
:102780000169002241F40071016101694FF0030CFD
:1027900041F480710161016841F020010160C0F8DD
:1027A000FC23016941F02001016100BF00BF00BFAF
:1027B000016841F020010160016841F4807101600D
:1027C0000121C0F8FC13036943F02003036100BF3B
:1027D00000BF00BF036843F020030360036843F4B5
:1027E00080730360036943F400730361036943F476
:1027F00080730361036843F020030360C0F8FC1397
:10280000036943F02003036100BF00BF00BF0368FA
:1028100043F020030360036843F480730360C0F84F
:10282000FC23026942F02002026100BF00BF00BF2A
:10283000026842F020020260026842F48072026084
:10284000026942F400720261026942F4807202611C
:10285000026842F0200202601022C0F8FC230269E4
:1028600042F02002026100BF00BF00BF026842F0D8
:1028700020020260026842F48072026041F29072AB
:10288000C0F8FC23026942F02002026100BF00BFD1
:1028900000BF026842F020020260026842F48072C7
:1028A0000260026942F400720261026942F48072BD
:1028B0000261026842F0200202606022C0F8FC233C
:1028C000026942F02002026100BF00BF00BF02683F
:1028D00042F020020260026842F4807202604FF40B
:1028E0001C52C0F8FC23026942F02002026100BFC2
:1028F00000BF00BF026842F020020260026842F49A
:1029000080720260026942F400720261026942F45C
:1029100080720261026842F0200202606122C0F807
:10292000FC23026942F02002026100BF00BF00BF29
:10293000026842F020020260026842F48072026083
:10294000C0F8FC13016941F02001016100BF00BF24
:1029500000BF016841F020010160016841F480710D
:102960000160016941F400710161016941F4807104
:102970000161016841F0200101604621C0F8FC13AB
:10298000016941F02001016100BF00BF00BF016883
:1029900041F020010160016841F480710160022171
:1029A000C0F8FC13026942F02002026100BF00BFC0
:1029B00000BF026842F020020260026842F48072A6
:1029C0000260026942F400720261026942F480729C
:1029D0000261026842F0200202601322C0F8FC2368
:1029E000026942F02002026100BF00BF00BF02681E
:1029F00042F020020260026842F48072026048F2F3
:102A00001002C0F8FC23026942F02002026100BFFC
:102A100000BF00BF026842F020020260026842F478
:102A200080720260026942F400720261026942F43B
:102A300080720261026842F0200202601222C0F835
:102A4000FC23026942F02002026100BF00BF00BF08
:102A5000026842F020020260026842F48072026062
:102A600048F2FE02C0F8FC23026942F02002026133
:102A700000BF00BF00BF026842F02002026002688F
:102A800042F480720260026942F4007202610269DB
:102A900042F480720261026842F020020260C0F8D3
:102AA000FC13016941F02001016100BF00BF00BFBC
:102AB000016841F020010160016841F4807101600A
:102AC0004FF4A061C0F8FC13016941F020010161DD
:102AD00000BF00BF00BF016841F020010160016834
:102AE00041F480710160016941F400710161016983
:102AF00041F480710161016841F020010160C0F87A
:102B0000FCC3026942F02002026100BF00BF00BFA7
:102B1000026842F020020260026842F480720260A1
:102B200041F23002C0F8FC23026942F02002026147
:102B300000BF00BF00BF026842F0200202600268CE
:102B400042F480720260026942F40072026102691A
:102B500042F480720261026842F020020260302278
:102B6000C0F8FC23026942F02002026100BF00BFEE
:102B700000BF026842F020020260026842F48072E4
:102B8000026040F20332C0F8FC23036943F02003E3
:102B9000036100BF00BF00BF036843F02003036070
:102BA000036843F480730360036943F400730361B3
:102BB000036943F480730361036843F020030360F7
:102BC0003123C0F8FC33036943F02003036100BFE5
:102BD00000BF00BF036843F020030360036843F4B1
:102BE00080730360C0F8FC23036943F02003036192
:102BF00000BF00BF00BF036843F020030360036809
:102C000043F480730360036943F400730361036951
:102C100043F480730361036843F0200303603223AD
:102C2000C0F8FC33036943F02003036100BF00BF19
:102C300000BF036843F020030360036843F480731C
:102C40000360C0F8FC23036943F02003036100BF65
:102C500000BF00BF036843F020030360036843F430
:102C600080730360036943F400730361036943F4F1
:102C700080730361036843F0200303603323C0F8CB
:102C8000FC33036943F02003036100BF00BF00BFB2
:102C9000036843F020030360036843F48073036018
:102CA0004FF44073C0F8FC33016941F02001016129
:102CB00000BF00BF00BF016841F020010160016852
:102CC00041F480710160016941F4007101610169A1
:102CD00041F480710161016841F0200101603421FB
:102CE000C0F8FC13016941F02001016100BF00BF81
:102CF00000BF016841F020010160016841F480716A
:102D00000160C0F8FCC3016941F02001016100BF0E
:102D100000BF00BF016841F020010160016841F47B
:102D200080710160016941F400710161016941F440
:102D300080710161016841F0200101603521C0F816
:102D4000FC13016941F02001016100BF00BF00BF19
:102D5000016841F020010160016841F48071016067
:102D6000C0F8FC23016941F02001016100BF00BFF0
:102D700000BF016841F020010160016841F48071E9
:102D80000160016941F400710161016941F48071E0
:102D90000161016841F0200101603621C0F8FC1397
:102DA000016941F02001016100BF00BF00BF01685F
:102DB00041F020010160016841F48071016014213B
:102DC000C0F8FC13016941F02001016100BF00BFA0
:102DD00000BF016841F020010160016841F4807189
:102DE0000160016941F400710161016941F4807180
:102DF0000161016841F0200101603721C0F8FC1336
:102E0000016941F02001016100BF00BF00BF0168FE
:102E100041F020010160016841F480710160C0F857
:102E2000FC23016941F02001016100BF00BF00BF28
:102E3000016841F020010160016841F48071016086
:102E4000016941F400710161016941F4807101611E
:102E5000016841F0200101603821C0F8FC130169CC
:102E600041F02001016100BF00BF00BF016841F0D7
:102E700020010160016841F480710160C0F8FC2309
:102E8000016941F02001016100BF00BF00BF01687E
:102E900041F020010160016841F480710160016925
:102EA00041F400710161016941F4807101610168BF
:102EB00041F0200101603921C0F8FC13016941F0A3
:102EC0002001016100BF00BF00BF016841F0200187
:102ED0000160016841F480710160C0F8FC23016960
:102EE00041F02001016100BF00BF00BF016841F057
:102EF00020010160016841F480710160016941F4C1
:102F000000710161016941F480710161016841F062
:102F1000200101603A21C0F8FC13016941F0200151
:102F2000016100BF00BF00BF016841F020010160E6
:102F3000016841F480710160C0F8FC33016941F01F
:102F40002001016100BF00BF00BF016841F0200106
:102F50000160016841F480710160016941F4007110
:102F60000161016941F480710161016841F0200152
:102F700001603B21C0F8FC13016941F020010161AF
:102F800000BF00BF00BF016841F02001016001687F
:102F900041F480710160C0F8FCC3016941F0200177
:102FA000016100BF00BF00BF016841F02001016066
:102FB000016841F480710160016941F400710161AF
:102FC000016941F480710161016841F020010160F3
:102FD0003C21C0F8FC13016941F02001016100BFF0
:102FE00000BF00BF016841F020010160016841F4A9
:102FF00080710160C0F8FC23016941F0200101618A
:1030000000BF00BF00BF016841F0200101600168FE
:1030100041F480710160016941F40071016101694D
:1030200041F480710161016841F0200101603D219E
:10303000C0F8FC13016941F02001016100BF00BF2D
:1030400000BF016841F020010160016841F4807116
:1030500001604FF4A051C0F8FC13016941F0200158
:10306000016100BF00BF00BF016841F020010160A5
:10307000016841F480710160016941F400710161EE
:10308000016941F480710161016841F02001016032
:103090009221C0F8FC13016941F02001016100BFD9
:1030A00000BF00BF016841F020010160016841F4E8
:1030B000807101604FF40071C0F8FC13016941F0A8
:1030C0002001016100BF00BF00BF016841F0200185
:1030D0000160016841F480710160016941F400718F
:1030E0000161016941F480710161016841F02001D1
:1030F00001609321C0F8FC13016941F020010161D6
:1031000000BF00BF00BF016841F0200101600168FD
:1031100041F480710160C0F8FC23016941F0200195
:10312000016100BF00BF00BF016841F020010160E4
:10313000016841F480710160016941F4007101612D
:10314000016941F480710161016841F02001016071
:103150009021C0F8FC13016941F02001016100BF1A
:1031600000BF00BF016841F020010160016841F427
:103170008071016040F60D01C0F8FC13016941F057
:103180002001016100BF00BF00BF016841F02001C4
:103190000160016841F480710160016941F40071CE
:1031A0000161016941F480710161016841F0200110
:1031B0000160C0F8FCC3016941F02001016100BF5A
:1031C00000BF00BF016841F020010160016841F4C7
:1031D0008071016041F21801C0F8FC13016941F0EF
:1031E0002001016100BF00BF00BF016841F0200164
:1031F0000160016841F480710160016941F400716E
:103200000161016941F480710161016841F02001AF
:1032100001600721C0F8FC13016941F02001016140
:1032200000BF00BF00BF016841F0200101600168DC
:1032300041F48071016040F27311C0F8FC13016920
:1032400041F02001016100BF00BF00BF016841F0F3
:1032500020010160016841F4807101607047000045
:103260002DE9F04F81B040F21844C4F60004206903
:103270004FF0120940F4007020612069002540F4ED
:10328000807020612068112640F020002060E3203B
:10329000C4F8FC0320694FF0130B40F020002061BC
:1032A00000BF00BF00BF2068102740F02000206052
:1032B00020684FF0070840F48070206043F2080057
:1032C000C4F8FC03206940F02000206100BF00BF6B
:1032D00000BF206840F020002060206840F480702B
:1032E0002060206940F400702061206940F4807003
:1032F0002061206840F020002060E720C4F8FC0333
:10330000206940F02000206100BF00BF00BF20689E
:1033100040F020002060206840F480702060C4F8F5
:10332000FC93206940F02000206100BF00BF00BF77
:10333000206840F020002060206840F48070206009
:10334000206940F400702061206940F480702061A1
:10335000206840F020002060EF20C4F8FC032069C2
:1033600040F02000206100BF00BF00BF206840F097
:1033700020002060206840F48070206041F23120FD
:10338000C4F8FC03206940F02000206100BF00BFAA
:1033900000BF206840F020002060206840F480706A
:1033A0002060206940F400702061206940F4807042
:1033B0002061206840F0200020600120C4F8FC0358
:1033C000206940F02000206100BF00BF00BF2068DE
:1033D00040F020002060206840F480702060C4F835
:1033E000FC53206940F02000206100BF00BF00BFF7
:1033F000206840F020002060206840F48070206049
:10340000206940F400702061206940F480702061E0
:10341000206840F0200020600220C4F8FC032069EE
:1034200040F02000206100BF00BF00BF206840F0D6
:1034300020002060206840F4807020604FF4E0603D
:10344000C4F8FC03206940F02000206100BF00BFE9
:1034500000BF206840F020002060206840F48070A9
:103460002060206940F400702061206940F4807081
:103470002061206840F0200020600320C4F8FC0395
:10348000206940F02000206100BF00BF00BF20681D
:1034900040F020002060206840F48070206041F2FD
:1034A0003000C4F8FC03206940F02000206100BF18
:1034B00000BF00BF206840F020002060206840F47A
:1034C00080702060206940F400702061206940F421
:1034D00080702061206840F0200020600420C4F843
:1034E000FC03206940F02000206100BF00BF00BF46
:1034F000206840F020002060206840F48070206048
:10350000C4F8FC53206940F02000206100BF00BFD8
:1035100000BF206840F020002060206840F48070E8
:103520002060206940F400702061206940F48070C0
:103530002061206840F0200020600820C4F8FC03CF
:10354000206940F02000206100BF00BF00BF20685C
:1035500040F020002060206840F48070206040F23D
:103560000720C4F8FC03206940F02000206100BF60
:1035700000BF00BF206840F020002060206840F4B9
:1035800080702060206940F400702061206940F460
:1035900080702061206840F0200020600920C4F87D
:1035A000FC03206940F02000206100BF00BF00BF85
:1035B000206840F020002060206840F48070206087
:1035C000C4F8FC53206940F02000206100BF00BF18
:1035D00000BF206840F020002060206840F4807028
:1035E0002060206940F400702061206940F4807000
:1035F0002061206840F0200020600A20C4F8FC030D
:10360000206940F02000206100BF00BF00BF20689B
:1036100040F020002060206840F480702060C4F8F2
:10362000FC53206940F02000206100BF00BF00BFB4
:10363000206840F020002060206840F48070206006
:10364000206940F400702061206940F4807020619E
:10365000206840F0200020600C20C4F8FC032069A2
:1036600040F02000206100BF00BF00BF206840F094
:1036700020002060206840F480702060C4F8FC5373
:10368000206940F02000206100BF00BF00BF20681B
:1036900040F020002060206840F4807020602069A5
:1036A00040F400702061206940F48070206120683F
:1036B00040F0200020600D20C4F8FC03206940F099
:1036C0002000206100BF00BF00BF206840F0200044
:1036D0002060206840F480702060C4F8FC532069AA
:1036E00040F02000206100BF00BF00BF206840F014
:1036F00020002060206840F480702060206940F441
:1037000000702061206940F480702061206840F0E2
:10371000200020600F20C4F8FC03206940F0200046
:10372000206100BF00BF00BF206840F02000206083
:10373000206840F480702060C4F8FC53206940F099
:103740002000206100BF00BF00BF206840F02000C3
:103750002060206840F480702060206940F4007090
:103760002061206940F480702061206840F02000D2
:1037700020601020C4F8FC03206940F02000206184
:1037800000BF00BF00BF206840F02000206020681C
:1037900040F480702060C4F8FC53206940F02000A1
:1037A000206100BF00BF00BF206840F02000206003
:1037B000206840F480702060206940F4007020612F
:1037C000206940F480702061206840F02000206073
:1037D000C4F8FC63206940F02000206100BF00BFF6
:1037E00000BF206840F020002060206840F4807016
:1037F00020600720C4F8FC03206940F0200020610D
:1038000000BF00BF00BF206840F02000206020689B
:1038100040F480702060206940F4007020612069CD
:1038200040F480702061206840F020002060C4F8DF
:10383000FC93206940F02000206100BF00BF00BF62
:10384000206840F020002060206840F480702060F4
:10385000C4F8FC53206940F02000206100BF00BF85
:1038600000BF206840F020002060206840F4807095
:103870002060206940F400702061206940F480706D
:103880002061206840F020002060C4F8FCB320696B
:1038900040F02000206100BF00BF00BF206840F062
:1038A00020002060206840F480702060C4F8FC5341
:1038B000206940F02000206100BF00BF00BF2068E9
:1038C00040F020002060206840F480702060C82014
:1038D000FCF73CFD20694FF0320A40F40070206193
:1038E000206940F480702061206840F02000206052
:1038F000C4F8FC732069102740F02000206100BF4D
:1039000000BF00BF206840F020002060206840F425
:103910008070206041F29060C4F8FC03206940F0A0
:103920002000206100BF00BF00BF206840F02000E1
:103930002060206840F480702060206940F40070AE
:103940002061206940F480702061206840F02000F0
:103950002060C4F8FC63206940F02000206100BFB3
:1039600000BF00BF206840F020002060206840F4C5
:103970008070206040F22720C4F8FC03206940F0EA
:103980002000206100BF00BF00BF206840F0200081
:103990002060206840F4807020603220FCF7D6FC64
:1039A000206940F400702061206940F4807020613B
:1039B000206840F020002060C4F8FC93206940F0AB
:1039C0002000206100BF00BF00BF206840F0200041
:1039D0002060206840F4807020601D20C4F8FC0343
:1039E000206940F02000206100BF00BF00BF2068B8
:1039F00040F020002060206840F480702060322079
:103A0000FCF7A4FC206940F400702061206940F4B8
:103A100080702061206840F020002060C4F8FCB372
:103A2000206940F02000206100BF00BF00BF206877
:103A300040F020002060206840F4807020604FF447
:103A40000060C4F8FC03206940F02000206100BF42
:103A500000BF00BF206840F020002060206840F4D4
:103A600080702060206940F400702061206940F47B
:103A700080702061206840F0200020602920C4F878
:103A8000FC03206940F02000206100BF00BF00BFA0
:103A9000206840F020002060206840F480702060A2
:103AA0001420C4F8FC03206940F02000206100BF0E
:103AB00000BF00BF206840F020002060206840F474
:103AC00080702060206940F400702061206940F41B
:103AD00080702061206840F0200020602B20C4F816
:103AE000FC03206940F02000206100BF00BF00BF40
:103AF000206840F020002060206840F48070206042
:103B00000B20C4F8FC03206940F02000206100BFB6
:103B100000BF00BF206840F020002060206840F413
:103B2000807020603220FCF711FC2069032140F4F2
:103B3000007020612069072240F4807020612068B5
:103B400040F0200020602020C4F8FC03206940F0F1
:103B50002000206100BF00BF00BF206840F02000AF
:103B60002060206840F480702060C4F8FC53206915
:103B700040F02000206100BF00BF00BF206840F07F
:103B800020002060206840F480702060206940F4AC
:103B900000702061206940F480702061206840F04E
:103BA000200020602120C4F8FC03206940F02000A0
:103BB000206100BF00BF00BF206840F020002060EF
:103BC000206840F480702060C4F8FC53206940F005
:103BD0002000206100BF00BF00BF206840F020002F
:103BE0002060206840F480702060206940F40070FC
:103BF0002061206940F480702061206840F020003E
:103C000020603020C4F8FC03206940F020002061CF
:103C100000BF00BF00BF206840F020002060206887
:103C200040F480702060C4F8FC83206940F02000DC
:103C3000206100BF00BF00BF206840F0200020606E
:103C4000206840F480702060206940F4007020619A
:103C5000206940F480702061206840F020002060DE
:103C60003120C4F8FC03206940F02000206100BF2F
:103C700000BF00BF206840F020002060206840F4B2
:103C80008070206040F20770C4F8FC03206940F0A7
:103C90002000206100BF00BF00BF206840F020006E
:103CA0002060206840F480702060206940F400703B
:103CB0002061206940F480702061206840F020007D
:103CC0002060C4F8FCA3206940F02000206100BF00
:103CD00000BF00BF206840F020002060206840F452
:103CE000807020600620C4F8FC03206940F02000AA
:103CF000206100BF00BF00BF206840F020002060AE
:103D0000206840F480702060206940F400702061D9
:103D1000206940F480702061206840F0200020601D
:103D20003520C4F8FC03206940F02000206100BF6A
:103D300000BF00BF206840F020002060206840F4F1
:103D40008070206040F20470C4F8FC03206940F0E9
:103D50002000206100BF00BF00BF206840F02000AD
:103D60002060206840F480702060206940F400707A
:103D70002061206940F480702061206840F02000BC
:103D800020603620C4F8FC03206940F02000206148
:103D900000BF00BF00BF206840F020002060206806
:103DA00040F48070206041F60470C4F8FC03206980
:103DB00040F02000206100BF00BF00BF206840F03D
:103DC00020002060206840F480702060206940F46A
:103DD00000702061206940F480702061206840F00C
:103DE000200020603720C4F8FC03206940F0200048
:103DF000206100BF00BF00BF206840F020002060AD
:103E0000206840F4807020600420C4F8FC0320691E
:103E100040F02000206100BF00BF00BF206840F0DC
:103E200020002060206840F480702060206940F409
:103E300000702061206940F480702061206840F0AB
:103E4000200020603820C4F8FC03206940F02000E6
:103E5000206100BF00BF00BF206840F0200020604C
:103E6000206840F480702060C4F8FC53206940F062
:103E70002000206100BF00BF00BF206840F020008C
:103E80002060206840F480702060206940F4007059
:103E90002061206940F480702061206840F020009B
:103EA00020603920C4F8FC03206940F02000206124
:103EB00000BF00BF00BF206840F0200020602068E5
:103EC00040F48070206040F20670C4F8FC03206962
:103ED00040F02000206100BF00BF00BF206840F01C
:103EE00020002060206840F480702060206940F449
:103EF00000702061206940F480702061206840F0EB
:103F0000200020603C20C4F8FC03206940F0200021
:103F1000206100BF00BF00BF206840F0200020608B
:103F2000206840F48070206040F20170C4F8FC0307
:103F3000206940F02000206100BF00BF00BF206862
:103F400040F020002060206840F4807020602069EC
:103F500040F400702061206940F480702061206886
:103F600040F0200020603D20C4F8FC03206940F0B0
:103F70002000206100BF00BF00BF206840F020008B
:103F80002060206840F4807020600F20C4F8FC039B
:103F9000206940F02000206100BF00BF00BF206802
:103FA00040F020002060206840F48070206020698C
:103FB00040F400702061206940F480702061206826
:103FC00040F0200020605020C4F8FC03206940F03D
:103FD0002000206100BF00BF00BF206840F020002B
:103FE0002060206840F480702060C4F8FC53206991
:103FF00040F02000206100BF00BF00BF206840F0FB
:1040000020002060206840F480702060206940F427
:1040100000702061206940F480702061206840F0C9
:10402000200020605120C4F8FC03206940F02000EB
:10403000206100BF00BF00BF206840F0200020606A
:10404000206840F480702060EF20C4F8FC032069F1
:1040500040F02000206100BF00BF00BF206840F09A
:1040600020002060206840F480702060206940F4C7
:1040700000702061206940F480702061206840F069
:10408000200020605220C4F8FC03206940F020008A
:10409000206100BF00BF00BF206840F0200020600A
:1040A000206840F480702060C4F8FC53206940F020
:1040B0002000206100BF00BF00BF206840F020004A
:1040C0002060206840F480702060206940F4007017
:1040D0002061206940F480702061206840F0200059
:1040E00020605320C4F8FC03206940F020002061C8
:1040F00000BF00BF00BF206840F0200020602068A3
:1041000040F48070206040F23F10C4F8FC03206946
:1041100040F02000206100BF00BF00BF206840F0D9
:1041200020002060206840F480702060206940F406
:1041300000702061206940F480702061206840F0A8
:10414000200020606020C4F8FC03206940F02000BB
:10415000206100BF00BF00BF206840F02000206049
:10416000206840F4807020604FF41C50C4F8FC03B9
:10417000206940F02000206100BF00BF00BF206820
:1041800040F020002060206840F4807020602069AA
:1041900040F400702061206940F480702061206844
:1041A00040F0200020606120C4F8FC03206940F04A
:1041B0002000206100BF00BF00BF206840F0200049
:1041C0002060206840F4807020600120C4F8FC0367
:1041D000206940F02000206100BF00BF00BF2068C0
:1041E00040F020002060206840F48070206020694A
:1041F00040F400702061206940F4807020612068E4
:1042000040F0200020606A20C4F8FC03206940F0E0
:104210002000206100BF00BF00BF206840F02000E8
:104220002060206840F480702060C4F8FC5320694E
:1042300040F02000206100BF00BF00BF206840F0B8
:1042400020002060206840F480702060206940F4E5
:1042500000702061206940F480702061206840F087
:10426000200020608020C4F8FC03206940F020007A
:10427000206100BF00BF00BF206840F02000206028
:10428000206840F480702060C4F8FC53206940F03E
:104290002000206100BF00BF00BF206840F0200068
:1042A0002060206840F480702060206940F4007035
:1042B0002061206940F480702061206840F0200077
:1042C00020608120C4F8FC03206940F020002061B8
:1042D00000BF00BF00BF206840F0200020602068C1
:1042E00040F480702060C4F8FC53206940F0200046
:1042F000206100BF00BF00BF206840F020002060A8
:10430000206840F480702060206940F400702061D3
:10431000206940F480702061206840F02000206017
:104320008220C4F8FC03206940F02000206100BF17
:1043300000BF00BF206840F020002060206840F4EB
:1043400080702060C4F8FC53206940F02000206198
:1043500000BF00BF00BF206840F020002060206840
:1043600040F480702060206940F400702061206972
:1043700040F480702061206840F02000206083209D
:10438000C4F8FC03206940F02000206100BF00BF9A
:1043900000BF206840F020002060206840F480705A
:1043A0002060C4F8FC53206940F02000206100BF69
:1043B00000BF00BF206840F020002060206840F46B
:1043C00080702060206940F400702061206940F412
:1043D00080702061206840F0200020608420C4F8B4
:1043E000FC03206940F02000206100BF00BF00BF37
:1043F000206840F020002060206840F48070206039
:10440000C4F8FC53206940F02000206100BF00BFC9
:1044100000BF206840F020002060206840F48070D9
:104420002060206940F400702061206940F48070B1
:104430002061206840F0200020608520C4F8FC0343
:10444000206940F02000206100BF00BF00BF20684D
:1044500040F020002060206840F480702060C4F8A4
:10446000FC53206940F02000206100BF00BF00BF66
:10447000206840F020002060206840F480702060B8
:10448000206940F400702061206940F48070206150
:10449000206840F0200020609020C4F8FC032069D0
:1044A00040F02000206100BF00BF00BF206840F046
:1044B00020002060206840F480702060C4F8FC7305
:1044C000206940F02000206100BF00BF00BF2068CD
:1044D00040F020002060206840F480702060206957
:1044E00040F400702061206940F4807020612068F1
:1044F00040F0200020609220C4F8FC03206940F0C6
:104500002000206100BF00BF00BF206840F02000F5
:104510002060206840F480702060C4F8FC5320695B
:1045200040F02000206100BF00BF00BF206840F0C5
:1045300020002060206840F480702060206940F4F2
:1045400000702061206940F480702061206840F094
:10455000200020609320C4F8FC03206940F0200074
:10456000206100BF00BF00BF206840F02000206035
:10457000206840F480702060C4F8FC13206940F08B
:104580002000206100BF00BF00BF206840F0200075
:104590002060206840F480702060206940F4007042
:1045A0002061206940F480702061206840F0200084
:1045B00020609520C4F8FC03206940F020002061B1
:1045C00000BF00BF00BF206840F0200020602068CE
:1045D00040F4807020604FF48870C4F8FC032069B8
:1045E00040F02000206100BF00BF00BF206840F005
:1045F00020002060206840F480702060206940F432
:1046000000702061206940F480702061206840F0D3
:10461000200020609720C4F8FC03206940F02000AF
:10462000206100BF00BF00BF206840F02000206074
:10463000206840F480702060C4F8FC53206940F08A
:104640002000206100BF00BF00BF206840F02000B4
:104650002060206840F480702060206940F4007081
:104660002061206940F480702061206840F02000C3
:1046700020609820C4F8FC03206940F020002061ED
:1046800000BF00BF00BF206840F02000206020680D
:1046900040F480702060C4F8FC53206940F0200092
:1046A000206100BF00BF00BF206840F020002060F4
:1046B000206840F480702060206940F40070206120
:1046C000206940F480702061206840F02000206064
:1046D000C4F8FC13206940F02000206100BF00BF37
:1046E00000BF206840F020002060206840F4807007
:1046F000206041F21800C4F8FC03206940F020005B
:10470000206100BF00BF00BF206840F02000206093
:10471000206840F480702060206940F400702061BF
:10472000206940F480702061206840F02000206003
:10473000C4F8FC23206940F02000206100BF00BFC6
:1047400000BF206840F020002060206840F48070A6
:10475000206040F27310C4F8FC03206940F0200090
:10476000206100BF00BF00BF206840F02000206033
:10477000206840F48070206001B0BDE8F08F000038
:1047800070B542F60C06C4F200063168044621F00A
:1047900080013160F168890614D4306860F0A000AF
:1047A0003060FBF7B5FE05463068800628D4FBF77D
:1047B000AFFE401BB0F57A7FF6D9032084F82500C0
:1047C00070BD00BFF06820F02000F060306860F03D
:1047D000A0003060FBF79CFE054600BF30688006F5
:1047E00010D4FBF795FE401BB0F57A7FF6D9032075
:1047F00084F82500F16841F02001F16070BD00BF30
:10480000002070BD0020F16841F02001F16070BD12
:1048100070470000FBF782BE4EF68850CEF20000D3
:10482000016841F4700101604FF0006140F8801CA4
:104830007047000040F27800C2F20000FDF702B9B4
:1048400040F2FF7C0268C4F2000C604522DD40F6B5
:104850000003C4F20003984225D043F20043C4F29F
:10486000010398421FD042F60043C4F2010398426C
:1048700019D043F2FF33C4F2010398421DDC6045B6
:104880002ADCB0F1804F3DD040F20043C4F2000377
:1048900036E000BFB0F1804F05D040F20043C4F2D3
:1048A00000039842E5D14B6822F070021A4343F2AC
:1048B000FF33C4F201039842E1DD44F2FF33C4F256
:1048C0000103984212DC43F20043C4F20103984210
:1048D00018D044F2000311E040F60003C4F20003D4
:1048E00098420FD042F6004308E000BF44F60003B0
:1048F000C4F20103984205D044F20043C4F201031C
:10490000984203D1CB6822F440721A4380B54B69B8
:1049100022F0800E8A6843EA0E03D1F800C00360DB
:10492000C262A0F18042A2F59632830543EA922248
:10493000072AC0F828C0BDE8804007D8012303FA41
:1049400002F212F0E50F1CBF096901630121416108
:1049500070470000FEE70000A8B0FBF7EDFD04AED5
:104960000025301D3C212095CDE91E55CDE91C5573
:10497000FBF755FC4FF40070FBF784FE01201A9002
:104980004FF480301B900220142121900324CDE9A4
:104990002410CDE926001AA8CDE92244FCF7C2F97B
:1049A0000F2015A931C115A80321CDE91855FCF731
:1049B00033F84FF4002004904FF4407014903046C8
:1049C000FBF7F4FEFDF7B6FDFDF70CFEFDF792FEDA
:1049D000FDF752FEFDF77EFC0020FDF75FF94FF674
:1049E000FF70FDF79BFD0020FDF78CFDFBF77EFCC3
:1049F000FBF750FC40F27800C2F20000FCF70CFF1D
:104A000046F2EC00C0F60000D0E90054D0E902A85C
:104A1000D0F81090808A40F2180BC2F2000B03907D
:104A2000CDE9019840F21000C2F200000768039837
:104A30003146ADF824003020CDE90454CDE906A874
:104A4000CDF82090FDF76CFA46F2A0013046C0F692
:104A500000013A4600F06AF848203146FDF760FA56
:104A600040F2F80040F21801C2F20000C2F2000168
:104A700000680968401A6428D4D340F2F800C2F2F2
:104A80000000006840F25007C2F20007CBF80000B7
:104A90000BF1080138460022FCF7E8FB0BF104019A
:104AA00038460022FCF7ACFB5F464FF0000847F8A1
:104AB0001C8F17F8173CD146A246344617F8166CDF
:104AC00017F8152C46F2D0013846C0F60001C7E9A8
:104AD0000188C7E9038887F81480009600F026F85B
:104AE000A8203946FDF71CFA17F8126C9BF808202D
:104AF00017F8133C46F2B50187F81480C7E900881F
:104B0000C7E90288C7F81080DDF808803846C0F68B
:104B10000001009626465446CA46DDF8049000F08F
:104B200005F8C0203946FDF7FBF97BE70FB4084BC9
:104B300010B504A902AA039800F01CF8044602A9C3
:104B4000002000F0B8F9204610BC5DF814FB00000E
:104B5000B74E000802E008C8121F08C1002AFAD1A7
:104B600070477047002001E001C1121F002AFBD1ED
:104B7000704700002DE9FF4F8BB0884605460026A0
:104B800006E025280BD0DDE90D1290476D1C761C40
:104B900028780028F5D10FB03046BDE8F08F00240A
:104BA000A146A2460122AE4900E0044315F8013FA8
:104BB000203B02FA03F00842F7D128782A2810D0C7
:104BC0006FF02F022878A0F13001092915D809EBE0
:104BD000890102EB410144F0020400EB01096D1C64
:104BE000F0E758F8041B5FEA010903D544F40054C8
:104BF000C9F1000944F002046D1C28782E2817D151
:104C000015F8010F44F004042A280ED06FF02F028B
:104C10002878A0F1300109290AD80AEB8A0102EBB1
:104C2000410100EB010A6D1CF2E758F804AB6D1C62
:104C300028786C280FD006DC4C2817D068280DD0B7
:104C40006A2814D104E0742810D07A280FD10DE01E
:104C500044F400140AE044F4801401E044F44014E5
:104C60006978814202D104F580146D1C6D1C28788E
:104C7000692865D006DC00288DD0632827D06428F9
:104C800006D15DE06E2808D073282AD0752877D029
:104C9000DDE90D129047761CE0E0C4F302500228D3
:104CA00009D003280DD0D8F8001004280DD00E60CC
:104CB00008F10408D2E0D8F80010F217C1E9006248
:104CC000F6E7D8F800100E80F2E70E70F0E718F85B
:104CD000041B8DF8001000208DF80100EB46012028
:104CE00003E058F804BB4FF0FF3061074FF00007B6
:104CF00001D40AE07F1C57450DDA8742FADB1BF826
:104D000007100029F6D106E07F1C8742FCDB1BF868
:104D100007100029F8D1DDE90D23A9EB0700814632
:104D2000214600F0B1F83044C61904E0DDE90D1267
:104D30001BF8010B90477F1EF8D22146484688E0B9
:104D400058F8040BC4F302514FF00A0B032900D1A9
:104D500000B2042900D140B2002802DA40422D21DD
:104D600002E0210505D52B218DF82410012104E056
:104D700006E0E10710D02021F6E708AF089113E024
:104D800058F8040BC4F302514FF00A0B032900D169
:104D900080B2042900D1C0B20021EEE75946FBF7EA
:104DA00049FA303107F8011D0028F7D1ADEB0700B3
:104DB00000F1200B600702D524F4803401E04FF0AD
:104DC000010ADA4502DDAAEB0B0000E00020824672
:104DD00000EB0B0108980144A9EB01000A90E003E5
:104DE00006D4DDE90D2321460A9800F04DF806446B
:104DF0004FF0000908E009A911F80900DDE90D12DA
:104E0000904709F10109761C08998945F3DBE00315
:104E10000CD5DDE90D2321460A9800F035F806444B
:104E200004E0DDE90D1230209047761CBAF1000154
:104E3000AAF1010AF5DC05E0DDE90D1217F8010B16
:104E40009047761CBBF10001ABF1010BF4DC0A9832
:104E50002146DDE90D2300F005F806446D1C97E6B8
:104E6000092801002DE9F041044600251E46174699
:104E7000880404D405E039462020B0476D1C641E28
:104E8000F9D52846BDE8F0812DE9F041044600251A
:104E90001E469046C80301D5302700E0202788042D
:104EA00004D505E041463846B0476D1C641EF9D56F
:104EB0002846BDE8F0810A68531C0B6010707047EB
:104EC00000000000000000000102030406070809BA
:104ED00000000000000000000000000000000000D2
:104EE00000000000000000000000000000000000C2
:104EF00000000000000000000000000000000000B2
:104F0000000080018001800180018001800180011A
:104F1000800180018001800180018001000000008B
:104F2000800180010000000000000000000000007F
:104F300000000000CC00CC00CC00CC00CC00CC00A9
:104F40000000000000000000000000000000000061
:104F50000000000000000000000000000000000051
:104F6000000000000000000000000000600C600C69
:104F7000600C30063006FE1FFE1F3006380718038F
:104F8000FE1FFE1F180318038C018C018C0100000A
:104F900000008000E003F80F9C0E8C1C8C188C0025
:104FA0009800F801E007800E801C8C188C189C1863
:104FB000B80CF00FE003800080000000000000004B
:104FC0000000000000000E181B0C110C1106110649
:104FD000110311039B018E01C038C06C6044604412
:104FE000304430441844186C0C38000000000000B5
:104FF0000000E001F0033807180618063003F0013E
:10500000F000F8009C310E33061E061C061C063FFD
:10501000FC73F02100000000000000000000000010
:10502000000000000C000C000C000C000C000C0038
:105030000000000000000000000000000000000070
:105040000000000000000000000000000000000060
:105050000000000200038001C000C000600060008A
:1050600030003000300030003000300030003000C0
:1050700060006000C000C00080010003000200006A
:10508000000020006000C0008001800100030003D8
:1050900000060006000600060006000600060006E0
:1050A0000003000380018001C000600020000000B8
:1050B000000000000000000000000000C000C00070
:1050C000D806F807E00130033807000000000000B0
:1050D00000000000000000000000000000000000D0
:1050E00000000000000000000000000080018001BE
:1050F000800180018001FC3FFC3F80018001800134
:10510000800180010000000000000000000000009D
:10511000000000000000000000000000000000008F
:10512000000000000000000000000000000000007F
:1051300000008001800100010001800000000000EB
:10514000000000000000000000000000000000005F
:105150000000000000000000E007E0070000000081
:10516000000000000000000000000000000000003F
:10517000000000000000000000000000000000002F
:10518000000000000000000000000000000000001F
:105190000000C000C000000000000000000000008F
:1051A0000000000C000C00060006000600030003CF
:1051B00000038003800180018001C000C000C000A6
:1051C000600060000000000000000000000000001F
:1051D0000000E003F007380E180C0C180C180C181F
:1051E0000C180C180C180C180C180C18180C380E7D
:1051F000F007E003000000000000000000000000D5
:10520000000000018001C001F001980188018001C7
:105210008001800180018001800180018001800186
:10522000800180010000000000000000000000007C
:105230000000E003F80F180C0C180C1800180018E8
:10524000000C000600038001C00060003000180060
:10525000FC1FFC1F00000000000000000000000018
:105260000000E001F807180E0C0C0C0C000C0006F6
:10527000C003C007000C001800180C180C18180CFC
:10528000F807E0030000000000000000000000003C
:105290000000000C000E000F000F800DC00C600C11
:1052A000600C300C180C0C0CFC3FFC3F000C000C8C
:1052B000000C000C000000000000000000000000D6
:1052C0000000F80FF80F180018000C00EC03FC07A2
:1052D0001C0E001C0018001800180C181C0C180ECE
:1052E000F807E003000000000000000000000000DC
:1052F0000000C007F00F381C181818000C00CC0371
:10530000EC0F3C0E1C1C0C180C180C18181C380E3A
:10531000F007E003000000000000000000000000B3
:105320000000FC1FFC1F000C0006000600038003A9
:105330008001C001C000E00060006000700030002B
:1053400030003000000000000000000000000000FD
:105350000000E003F007380E180C180C180C380683
:10536000F007F007180C0C180C180C180C18380C57
:10537000F80FE00300000000000000000000000043
:105380000000E003F007380E1C0C0C180C180C1869
:105390001C1C381EF81BE0190018000C000C1C0E19
:1053A000F807F0010000000000000000000000000D
:1053B00000000000000000000000000080018001EB
:1053C00000000000000000000000000000000000DD
:1053D00080018001000000000000000000000000CB
:1053E00000000000000000000000000080018001BB
:1053F00000000000000000000000000000000000AD
:105400008001800100010001800000000000000018
:10541000000000000000000000000000000000008C
:105420000010001C800FE003F8001800F800E003F3
:10543000800F001C001000000000000000000000B1
:10544000000000000000000000000000000000005C
:10545000F81F000000000000F81F0000000000001E
:10546000000000000000000000000000000000003C
:10547000000000000000000000000000000000002C
:1054800008003800F001C007001F0018001FC00707
:10549000F0013800080000000000000000000000DB
:1054A0000000E003F80F180C0C180C180018000C82
:1054B000000600038001C000C000C0000000000022
:1054C000C000C0000000000000000000000000005C
:1054D00000000000E00718180420C229224A1144E5
:1054E00009440944094409221113E20C0240042032
:1054F0001818E00700000000000000000000000095
:10550000000080038003C006C006C006600C600C6B
:10551000301830183018F83FF83F1C700C600C60E1
:1055200006C006C0000000000000000000000000EF
:105530000000FC03FC0F0C0C0C180C180C180C0CC5
:10554000FC07FC0F0C180C300C300C300C300C1815
:10555000FC1FFC070000000000000000000000002D
:105560000000C007F01F38381C300C7006600600C1
:105570000600060006000600060006600C701C30DF
:10558000F01FE00700000000000000000000000025
:105590000000FE03FE0F060E061806180630063041
:1055A0000630063006300630063006180618060E9D
:1055B000FE0FFE03000000000000000000000000DD
:1055C0000000FC3FFC3F0C000C000C000C000C0029
:1055D000FC1FFC1F0C000C000C000C000C000C004D
:1055E000FC3FFC3F00000000000000000000000045
:1055F0000000F83FF83F18001800180018001800C5
:10560000F81FF81F180018001800180018001800DC
:10561000180018000000000000000000000000005A
:105620000000E00FF83F3C780E6006E007C0030082
:10563000030003FE03FE03C007C006C00EC03CF01B
:10564000F83FE00F00000000000000000000000034
:1056500000000C300C300C300C300C300C300C30A6
:10566000FC3FFC3F0C300C300C300C300C300C305C
:105670000C300C30000000000000000000000000B2
:105680000000800180018001800180018001800193
:105690008001800180018001800180018001800102
:1056A00080018001000000000000000000000000F8
:1056B00000000006000600060006000600060006C0
:1056C0000006000600060006000618061806380741
:1056D000F003E001000000000000000000000000F6
:1056E000000006300618060C060606038601C600F2
:1056F00066007600DE008E0106030606060C06181C
:1057000006300660000000000000000000000000FD
:1057100000001800180018001800180018001800E1
:1057200018001800180018001800180018001800B9
:10573000F81FF81F0000000000000000000000003B
:1057400000000EE01EF01EF01EF036D836D836D817
:1057500036D866CC66CC66CCC6C6C6C6C6C6C6C675
:1057600086C386C3000000000000000000000000A7
:1057700000000C301C303C303C306C306C30CC3095
:10578000CC308C310C330C330C360C360C3C0C3CCE
:105790000C380C3000000000000000000000000089
:1057A0000000E007F81F1C380E70066003C003C03D
:1057B00003C003C003C003C003C006600E701C38E2
:1057C000F81FE007000000000000000000000000DB
:1057D0000000FC0FFC1F0C380C300C300C300C306F
:1057E0000C18FC1FFC070C000C000C000C000C003B
:1057F0000C000C0000000000000000000000000091
:105800000000E007F81F1C380E70066003E003C0BC
:1058100003C003C003C003C007E006630E3F1C3C87
:10582000F83FE0F700C000000000000000000000AA
:105830000000FE0FFE1F0638063006300630063820
:10584000FE1FFE0706030606060C0618061806309D
:1058500006300660000000000000000000000000AC
:105860000000E003F80F1C0C0C180C180C001C00B6
:10587000F803E00F001E0038063006300E301C1C06
:10588000F80FE0070000000000000000000000002A
:105890000000FE7FFE7F8001800180018001800189
:1058A00080018001800180018001800180018001F0
:1058B00080018001000000000000000000000000E6
:1058C00000000C300C300C300C300C300C300C3034
:1058D0000C300C300C300C300C300C300C301818F4
:1058E000F81FE007000000000000000000000000BA
:1058F000000003600630063006300C180C180C1837
:10590000180C180C380E3006300670076003600360
:10591000C001C00100000000000000000000000005
:1059200000000360C361C361C361663366336633DD
:105930006633663366336C1B6C1B6C1B2C1A3C1E67
:10594000380E380E000000000000000000000000CB
:1059500000000FE00C7018303018700C600EC0079B
:1059600080038003C003E006700C301C18180C3054
:105970000E6007E0000000000000000000000000D2
:10598000000003C006600C301C383818300C60066C
:10599000E007C00380018001800180018001800157
:1059A00080018001000000000000000000000000F5
:1059B0000000FC7FFC7F006000300018000C000637
:1059C00000038001C0006000300018000C000600D9
:1059D000FE7FFE7F000000000000000000000000CD
:1059E0000000E003E0036000600060006000600011
:1059F00060006000600060006000600060006000A7
:105A000060006000600060006000E003E0030000F0
:105A1000000030003000600060006000C000C00086
:105A2000C000C00180018001800100030003000369
:105A3000000600060000000000000000000000005A
:105A40000000E003E0030003000300030003000381
:105A5000000300030003000300030003000300032E
:105A600000030003000300030003E003E003000061
:105A700000000000C001C001600360036003300645
:105A80003006180C180C0000000000000000000098
:105A90000000000000000000000000000000000006
:105AA00000000000000000000000000000000000F6
:105AB00000000000000000000000000000000000E6
:105AC0000000FFFFFFFF00000000000000000000DA
:105AD00000000C000C000C000C000C000C0000007E
