:020000040800F2
:10000000A8050020ED010008492E00086D1F00081A
:10001000452E000831030008B55500080000000017
:10002000000000000000000000000000594E000821
:1000300095030008000000004D2E00085D4E0008EA
:10004000070200080702000807020008070200086C
:10005000070200080702000807020008070200085C
:10006000070200080702000807020008070200084C
:10007000070200080702000807020008070200083C
:10008000070200080000000007020008070200083D
:10009000070200080702000807020008070200081C
:1000A000070200080702000807020008070200080C
:1000B0007D4E0008894E0008954E00080702000892
:1000C00007020008070200080702000807020008EC
:1000D00007020008A95500080702000807020008E7
:1000E00007020008070200080702000807020008CC
:1000F00007020008070200080702000800000000CD
:1001000000000000070200080000000007020008CD
:1001100007020008000000000702000807020008AC
:10012000070200080702000807020008070200088B
:10013000070200080000000000000000070200089D
:10014000070200080702000800000000000000008D
:10015000000000000000000000000000000000009F
:10016000000000000000000000000000070200087E
:10017000070200080000000000000000000000006E
:10018000000000000702000800000000000000005E
:10019000000000000000000000000000000000005F
:1001A000000000000000000007020008070200082D
:1001B000070200080702000807020008000000000C
:1001C000000000000702000800000000000000001E
:1001D0000702000807020008DFF80CD000F090F8D2
:1001E00000480047B9550008A80500200648804788
:1001F00006480047FEE7FEE7FEE7FEE7FEE7FEE70C
:10020000FEE7FEE7FEE7FEE7614E0008D9010008C1
:100210002DE9F05F0546002092469B46884606463B
:10022000814640241BE0284641464746224600F0CE
:1002300057F853465A46C01A914110D311461846F2
:10024000224600F03EF82D1A67EB01084F46224681
:100250000120002100F035F817EB00094E41201E67
:10026000A4F10104DFDC484631462A464346BDE896
:10027000F09FD2B201E000F8012B491EFBD270477B
:100280000022F6E710B513460A4604461946FFF762
:10029000F0FF204610BD30B50B460146002020225D
:1002A000012409E021FA02F59D4205D303FA02F583
:1002B000491B04FA02F52844151EA2F10102F1DCE3
:1002C00030BD202A04DB203A00FA02F100207047FA
:1002D0009140C2F1200320FA03F319439040704784
:1002E000202A04DB203A21FA02F00021704721FA8B
:1002F00002F3D040C2F120029140084319467047F2
:100300001CB509480090094801900546009C06E08C
:10031000E06840F0010394E8070098471034AC42CD
:10032000F6D3FFF75DFF0000806B0008A06B0008AC
:10033000FEE7000010B540F60044C4F60004A4F542
:1003400080630A460102184600F04AF9204604215B
:10035000012200F045F9204604210022BDE81040AA
:1003600000F03EB910B540F60044C4F60004A4F510
:1003700080604FF47F41012200F032F920460421D1
:10038000012200F02DF9204604210022BDE8104092
:1003900000F026B9704700007047000090F8251063
:1003A000022931D180B50168D0E910CE826C0B688A
:1003B00023F00E030B600B6823F001030B60116840
:1003C00021F4807111600EF01F02012101FA02F286
:1003D000CCF80420D0E913325A60426D32B1136870
:1003E00023F480731360D0E91623536080F825103E
:1003F000826B002180F824100AB190470021BDE8EB
:1004000080400846704700BF0421C16301210022DB
:1004100080F8251080F8242008467047B0B50446BF
:1004200000F0E4F8054640F20000C2F20000406827
:10043000611C18BF044400BF00F0D8F8401BA04264
:10044000FAD3B0BD0A68002A08BF70472DE9F04F03
:1004500082B041F2004500F138478605C4F6000538
:10046000062340F2004E46EA9724A84208BF05231F
:10047000C4F2010E052C38BF234600244FF0010BB7
:1004800000260027009309E00A68013732FA07F3D3
:1004900006F1040604F1020400F098800BFA07F953
:1004A00012EA0908F0D04A6842F01005122D13D163
:1004B0006FF0030202EA57020244D2F820A006F0CD
:1004C0001C030F25D1F810C09D402AEA05050CFA3F
:1004D00003F32B4313624A6803680325A5406FEAC0
:1004E000050AAB4302F00305A5402B43122A036023
:1004F00012D80BFA02F313F0061F0DD08368CD68F3
:1005000003EA0A03A5402B4383604368150923EAE5
:100510000903BD402B434360C3688D6803EA0A03A7
:10052000A5402B43D200C360AED541F26003C4F2B4
:1005300002031A684FF6084942F001021A601A686D
:10054000CFF6FF7902F001020192019A27F003022F
:10055000724452F809C006F00C050F23AB402CEA98
:10056000030C009B03FA05F545EA0C0342F8093039
:10057000DEF800C04B684CEA0805DA0358BF2CEAE5
:100580000805CEF80050DEF804C09A034CEA0805CE
:1005900058BF2CEA0805CEF80450DEF808C0DA028D
:1005A0004CEA080558BF2CEA080540F20C4CCEF87E
:1005B0000850C4F2010CDCF800209B0242EA080556
:1005C00058BF22EA0805CCF800505DE702B0BDE84C
:1005D000F04F70470069084018BF012070470000C5
:1005E0001823002A08BF2823C150704740F2A410E6
:1005F000C2F200000068704740F2000040F2A4110F
:10060000C2F20000C2F2000140680A6810440860AB
:100610007047000080B5032000F092F8002000F041
:1006200009F800281CBF012080BD00F029F8002037
:1006300080BD000070B540F20006C2F2000671688D
:10064000E1B1044640F20C00C2F200004FF47A72AD
:100650000068B2FBF1F1B0FBF1F000F0ADFE0F2C41
:100660004FF0010508D838B94FF0FF30214600227D
:10067000002500F039F83460284670BD012070BDB7
:1006800082B041F25800C4F20200816841F00101D9
:100690008160816801F0010101910199016841F0D7
:1006A00080510160006800F080500090009847F28F
:1006B0000800C4F20000016821F48041016002B02A
:1006C00070470000002848BF704700F01F0101225A
:1006D00002FA01F11C2202EAD0004EF20012CEF220
:1006E000000281507047000010B54EF60C5CCEF24F
:1006F000000CDCF80030C3F3022E8EF00704042C4B
:1007000028BF0424BEF103034FF0FF3E0EFA04F4A9
:1007100038BF0023A14399400EFA03F39A431143D3
:1007200000F00F0200F160430901043A03F564434D
:100730006244002848BF02F10C03197010BD00008C
:100740004EF60C51CEF200010A684FF6FF031A4034
:1007500060F30A2242F0806040F0FD70086070474C
:10076000B0F5007F42D0002840F0808047F21400AE
:10077000C4F2000050F8141CC26E01F4C06122F4EF
:100780008072B1F5806FC2662ED150F8141C012220
:1007900062F34A2140F8141C40F20C01C2F200013D
:1007A0000968322251434DF68362C4F21B32A1FB29
:1007B0000212910C0268520511D54A1C0FD0026832
:1007C00052050CD559B10268520508D5012906D049
:1007D0000268520503D50229A1F10401EAD100689B
:1007E000400544BF032070470020704747F21400C3
:1007F000C4F2000050F8141CC26E01F4C06142F44F
:100800008072B1F5806FC266EED150F8141C0122DF
:1008100062F34A2140F8141C40F20C01C2F20001BC
:100820000968322251434DF68362C4F21B32A1FBA8
:100830000212910C0268520511D54A1C0FD00268B1
:1008400052050CD559B10268520508D5012906D0C8
:100850000268520503D50229A1F10401EAD100681A
:10086000400544BF03207047BEE700BF47F21400B5
:10087000C4F2000050F8141C022262F34A2140F82E
:10088000141C0020704700002DE9F04182B004469E
:10089000807841F288060007C4F2020602D40020E4
:1008A0002FE000BF56F8300C5FEAC0080BD456F8B2
:1008B000300C40F0805046F8300C56F8300C00F008
:1008C00080500190019847F20007C4F20007386891
:1008D00040F480703860FFF789FE05463868C0052F
:1008E00000F1D680FFF782FE401B0228F6D90320D4
:1008F000B8F1000F05D456F8301C21F0805146F8AD
:10090000301C2168CA0713D18A0719D44A071FD49B
:100910000A0725D48A062BD44A0631D40A0637D4CE
:10092000CA053DD48A0543D44A0549D457E000BFDF
:100930003268636822F003021A4332608A07E5D501
:100940003268A36822F00C021A4332604A07DFD5EE
:100950003268E36822F030021A4332600A07D9D5C0
:100960003268236922F0C0021A4332608A06D3D566
:100970003268636922F440621A4332604A06CDD578
:100980003268A36922F440521A4332600A06C7D57E
:100990003268E36922F440421A433260CA05C1D585
:1009A0003268236A22F440321A4332608A05BBD58A
:1009B0003268636A22F440221A4332604A050ED537
:1009C0003268A36A22F440121A43B3F5801F3260E2
:1009D00005D156F87C2C42F4801246F87C2C0A058E
:1009E0000ED53268E36A22F440021A43B3F5800F51
:1009F000326005D156F87C2C42F4801246F87C2CEB
:100A0000CA040ED53268236B22F040721A43B3F148
:100A1000807F326005D156F87C2C42F4801246F873
:100A20007C2C8A040ED53268636B22F040621A4334
:100A3000B3F1006F326005D156F87C2C42F480127D
:100A400046F87C2C4A040ED53268A36B22F0406233
:100A50001A43B3F1006F326005D156F87C2C42F492
:100A6000801246F87C2C09040ED53168E26B21F027
:100A700040511143B2F1805F316005D156F87C1CC2
:100A800041F4803146F87C1C02B0BDE8F08100BF23
:100A9000B06810F4407010D0216C88420BD0B06860
:100AA000B16820F4407041F48031B160B16821F444
:100AB0008031B160B060C0070CD1B068216C20F407
:100AC00040700843B0600020B8F1000F3FF519AF47
:100AD00011E700BFFFF78AFD054641F2883700BFE6
:100AE000B0688007E9D4FFF781FD401BB842F7D911
:100AF000FDE600002DE9F047002865D042F2000A2B
:100B0000C4F2020A0446DAF800000D4600F00F00B5
:100B100088420CD2DAF8000020F00F002843CAF80F
:100B20000000DAF8000000F00F00A8424CD1216864
:100B300041F20808C807C4F2020803D1880740F14F
:100B4000D480B9E0606802283AD0032840D158F830
:100B5000082C920138D5D8F80420D8F8043042F295
:100B60000046C3F3031302F00302D8F80470013304
:100B7000C0F2F406032A04BF43F20066C0F26E1608
:100B8000B6FBF3F2D8F80430C7F306277A43C3F371
:100B90004163022707EB4303B2FBF3F24BF200433E
:100BA000C0F2C4439A425DD9D8F8002012F0F00F89
:100BB0004DD0890756D5A168002953D147E000BF21
:100BC00058F8081C890307D40120BDE8F08700BF4E
:100BD00058F8081C4905F7D5D8F8001001F00C01A9
:100BE00004293FD0D8F8001001F00C01082939D0B1
:100BF000D8F8001001F00C010C2933D1D8F80410FA
:100C0000D8F8042042F20047C2F3031201F00301B6
:100C1000D8F804300132C0F2F407032904BF43F2CC
:100C20000067C0F26E17B7FBF2F1D8F80420C3F3E7
:100C300006235943C2F34162022303EB4202B1FB94
:100C4000F2F14BF20042C0F2C44291420AD9D8F804
:100C50000010082262F307114FF00109C8F80010D4
:100C600002E000BF4FF00009D8F8001021F00301A6
:100C70000843C8F80000FFF7B9FC064641F2883780
:100C8000D8F80000616800F00C00B0EB810F07D0CD
:100C9000FFF7ACFC801BB842F2D90320BDE8F08717
:100CA0002168880708D4B9F1000F1ED0D8F80000D9
:100CB00020F0F00017E000BF480705D5D8F8000085
:100CC00040F4E060C8F80000080706D5D8F8000036
:100CD000072262F30D20C8F80000D8F80000A268CF
:100CE00020F0F0001043C8F80000DAF8000000F02F
:100CF0000F00A8421BD9DAF8000020F00F002843AB
:100D0000CAF80000FFF772FC064641F2883700BFC0
:100D1000DAF8000000F00F00A84207D0FFF766FCE9
:100D2000801BB842F4D90320BDE8F087216848074A
:100D300007D5D8F80000E26820F4E0601043C8F856
:100D40000000080708D5D8F80000216920F4605099
:100D500040EAC100C8F80000D8F8000042F20041A3
:100D6000C0F2F40100F00C00042808462DD0D8F899
:100D7000000000F00C00082843F20060C0F26E1082
:100D800023D0D8F8002002F00C020C2A1CD1D8F88D
:100D90000420D8F8043002F00302C3F30313D8F898
:100DA00004700133032A08BF0146B1FBF3F0D8F801
:100DB0000410C7F30627C1F341610222784302EB16
:100DC0004101B0FBF1F000E00020D8F8001045F63A
:100DD0000A12C1F30311C0F60002515C40F20C028A
:100DE00001F01F0120FA01F140F20000C2F2000000
:100DF0000068C2F200021160BDE8F047FFF71ABCBC
:100E000040F20C0041F20801C2F20000C4F20201FB
:100E10000068096845F61A12C1F30221C0F6000203
:100E2000515C01F01F01C8407047000040F20C0007
:100E300041F20801C2F20000C4F202010068096830
:100E400045F61A12C1F3C221C0F60002515C01F04E
:100E50001F01C8407047000041F20C01C4F20201BA
:100E600051F8040C42F20042C0F2F40200F00C000F
:100E70000428104608BF704751F8040C00F00C001D
:100E8000082843F20060C0F26E1025D051F8043CEF
:100E900003F00C030C2B1CBF0020704780B5D1F869
:100EA00000C00B680CF0030CC3F3031E0B680EF1BB
:100EB000010EBCF1030F08BF02460968B2FBFEF049
:100EC000C3F30623C1F341610222584302EB4101FF
:100ED000B0FBF1F0BDE8804070470000002804BF7F
:100EE000012070472DE9F04182B00446007841F2BC
:100EF0000006C007C4F202061ED1207880073DD448
:100F00002078000764D42078400700F1878020789B
:100F1000800600F1D980E069002800F0C581B16841
:100F200001F00C010C2940F03181012840F084814E
:100F3000012002B0BDE8F081B06800F00C01F0685B
:100F4000082961D0032281F00C0122EA0000084444
:100F5000B0FA80F0400957D16068B0F5803F07D003
:100F6000B0F5A02F40F0E480306840F4802030607D
:100F7000306840F480303060E5E000BFB068F16870
:100F800000F00C00042871D001F0030180F00C0087
:100F900081F002010844B0FA80F0400966D1E168AE
:100FA0003068002900F0E08040F480703060FFF786
:100FB0001DFB05463068400500F1FE80FFF716FB7B
:100FC000401B0228F6D9032002B0BDE8F08100BF23
:100FD0006169D6F89400002900F0948040F0010087
:100FE000C6F89400FFF702FB054600BFD6F8940050
:100FF00080073FF588AFFFF7F9FA401B0228F5D9C3
:10100000032002B0BDE8F081306880037FF575AF42
:10101000606800287FF471AF3EE000BFB06D5FEA0A
:10102000C00808D4B06D40F08050B065B06D00F0DD
:1010300080500190019847F20007C4F20007386819
:10104000C0052DD4386840F480703860FFF7CEFAC0
:10105000054600BF3868C00522D4FFF7C7FA401B19
:101060000228F7D9032002B0BDE8F08130684005BE
:1010700001D5E06880B17068216920F0FE4040EA47
:101080000160706040F20000C2F200000068FFF7EB
:10109000D1FA00283FF434AF012002B0BDE8F0815E
:1010A000A068012808D0052840F0A480D6F8900058
:1010B00040F00400C6F89000D6F8900040F001001F
:1010C000C6F89000A4E000BFA169D6F898000029F6
:1010D00000F07A8040F00100C6F89800FFF786FA29
:1010E000054600BFD6F8980080073FF514AFFFF71C
:1010F0007DFA401B02284FF00300F3D902B0BDE88F
:10110000F08100BF20F00100C6F89400FFF76EFAEE
:10111000054600BFD6F8940080077FF5F4AEFFF7D0
:1011200065FA401B0228F5D9032002B0BDE8F08122
:101130003168002821F480313160316821F4802148
:10114000316000F0CF80FFF751FA05463068800328
:101150003FF5D3AEFFF74AFA401B6428F6D90320C7
:1011600002B0BDE8F08100BF20F480703060FFF76E
:101170003DFA0546306840057FF5C2AEFFF736FA06
:10118000401B02284FF00300F4D9B7E7316802286A
:1011900021F08071316040F08B80FFF727FA05461F
:1011A0003068800140F1CA80FFF720FA401B022816
:1011B0004FF00300F4D9A1E77068216920F0FE40E8
:1011C00040EA016070609BE620F00100C6F89800DC
:1011D000FFF70CFA054600BFD6F8980080077FF5A8
:1011E0009AAEFFF703FA401B02284FF00300F3D931
:1011F00084E700BFD6F89010002821F00101C6F85E
:101200009010D6F8901021F00401C6F8901079D013
:10121000FFF7ECF9054641F2883700BFD6F8900099
:10122000800700F18180FFF7E1F9401BB842F5D952
:10123000032002B0BDE8F081F068216A00F00302EB
:101240008A427FF429AF626A6FF00F0300F0F00169
:1012500003EB021291427FF41FAFA16A00F4FE4239
:10126000B2EB012F7FF418AFE16A00F07842B2EBE5
:10127000C16F7FF411AF226B0023CFF6E07303EA56
:10128000025200F4C001A2F5001291427FF404AFB3
:10129000616B4FF07E4202EA016100F0C06001F133
:1012A0007E4188427FF4F8AE002002B0BDE8F081B4
:1012B000F0684FF6FF7120F00300F060F068CFF6A1
:1012C000EE610840F060FFF791F904463068800154
:1012D000EAD5FFF78BF9001B02284FF00300F5D980
:1012E0000CE700BFFFF782F9054600BF30688003B6
:1012F0007FF503AEFFF77AF9401B64284FF0030037
:10130000F4D9FBE6FFF772F9054641F2883700BFD2
:10131000D6F89000800707D5FFF768F9401BB84260
:101320004FF00300F4D9E9E6B8F1000F3FF5EFAD57
:10133000B06D20F08050B065E9E500BFF06848F27C
:101340000C01C0F29F1104F1200700EA010C8ECFBE
:101350006FF00F00D4E90C5400EB02100022CFF61E
:10136000E07241EA0C0102EA05520843A2F50012BC
:101370004FF07E4540EA032005EA0465104305F17D
:101380007E4540EAC7602843F060306840F08070D6
:101390003060F06840F08070F060FFF727F9044695
:1013A000306880013FF580AFFFF720F9001B02286D
:1013B0004FF00300F4D9A1E6411E0020B0EB116FFD
:1013C0001CBF012070474EF21002CEF200025160A5
:1013D0004EF62351CEF20001F0230B7007219060EE
:1013E00011607047704700007047000070470000B0
:1013F00070470000704700007047000090F83C20E4
:10140000012A4FF002022ED010B580F83D2002686C
:1014100043F20043D2F804E0D2F808C0C4F201035A
:101420009A4205D042F60043C4F201039A4204D125
:101430004C682EF4700344EA030E4FF68F73CFF618
:10144000FF530C6803EA0E03896823432CF08004E1
:101450002143536091600121002280F83D1080F803
:101460003C20BDE810401046704700007047000067
:10147000002804BF0120704710B5044690F83D00D5
:1014800028B9002084F83C00204600F00DF8022026
:1014900084F83D002068211D03F002FD012084F83E
:1014A0003D00002010BD000010B584B0006840F67B
:1014B0000001C4F2000188421AD040F20041C4F297
:1014C0000001884224D0B0F1804F1CBF04B010BD91
:1014D00041F25800C4F2020001681C2441F00101ED
:1014E0000160006800F00100039003981EE000BF57
:1014F00041F25800C4F2020001681E2441F00401C8
:101500000160006800F00400019001980EE000BF47
:1015100041F25800C4F2020001681D2441F00201AA
:101520000160006800F0020002900298204600214D
:101530000022FFF7D9F8204604B0BDE81040FFF7BD
:10154000C1B8000000680722C168C0F2010241F082
:101550000101C16081681140062902D0B1F5803FC8
:1015600002D10020704700BF016841F00101016015
:10157000002070470146022081F83D00086841F2D2
:101580001113026A1A4205D00122002081F83D2081
:10159000704700BF026A44F244431A42F4D1026821
:1015A00022F0010202600122002081F83D207047F4
:1015B00090F83C20012A4FF0020200F0B78080B57D
:1015C00080F83D20D0F800C08822DCF80830CFF643
:1015D000CE721A40CCF808200B686F2B22DD2F2228
:1015E000C0F21002934247DCB3F1101F56DA702BA1
:1015F00000F0C080B3F5005F40F09080D1E901E3D6
:10160000C968DCF8082043EA0E0322F47F4243EA6B
:1016100001211143CCF80810DCF8081041F4804196
:101620007AE000BF2F2B33DD4F2B3BDC302B69D012
:10163000402B73D1D1F804E0C968DCF82030DCF825
:10164000202022F00102CCF82020DCF8182022F023
:10165000F00242EA011123F00A0242EA0E02CCF83B
:101660001810CCF82020DCF808104FF68872CFF65E
:10167000CF72114047314FE05F21C0F210018B4221
:1016800036DC3021C0F210018B423BD0402135E0E6
:10169000C3B3102B36D0202B34D03FE032D02021E2
:1016A0002CE000BF502B43D0602B37D1D1F804E0A1
:1016B000C968DCF8203023F01003CCF82030DCF8C7
:1016C0001830DCF8202023F4704322F0A00243EA13
:1016D000013142EA0E12CCF81810CCF82020DCF8C8
:1016E00008104FF68872CFF6CF721140673113E0C1
:1016F0006021C0F210018B4204D07021C0F21001B1
:101700008B420BD1DCF808104FF68872CFF6CF72FF
:101710001140194341F00701CCF8081001210022C3
:1017200080F83D1080F83C20BDE8804010467047AE
:10173000D1F804E0C968DCF82030DCF8202022F081
:101740000102CCF82020DCF8182022F0F00242EA56
:10175000011123F00A0242EA0E02CCF81810CCF86C
:101760002020DCF808104FF68872CFF6CF721140B7
:101770005731D1E7D1E901E3C968DCF8082043EA31
:101780000E0322F47F4243EA01211143CCF80810F2
:10179000DCF8081041F07701BEE700007047000058
:1017A00010B5016804460869800744BFC8685FEA4D
:1017B000807061D40869400744BFC8685FEA407020
:1017C00066D40869000744BFC8685FEA00706DD43A
:1017D0000869C00644BFC8685FEAC06072D408697F
:1017E000C0071CBFC8685FEAC07079D108690006ED
:1017F00044BFC8685FEA00607AD40869C00544BF86
:10180000C8685FEA006000F17B800869400644BF59
:10181000C8685FEA406000F17B800869800644BFC9
:10182000C8685FEA806000F17B800869C00244BF3D
:10183000C8685FEAC02000F17B800869800244BF6D
:10184000C8685FEA802000F17B800869400244BFDD
:10185000C8685FEA402000F17B800869000246BF4B
:10186000C8685FEA002010BD6FF4000220460A61DC
:10187000BDE81040FFF7FABD6FF0020008610120DB
:101880002077886980076BD02046FFF787FF6DE0DF
:101890006FF00400086102202077886910F4407F0F
:1018A00068D02046FFF77AFF6AE000BF6FF00800BB
:1018B000086104202077C869800765D02046FFF7BB
:1018C0006DFF67E06FF01000086108202077C8699D
:1018D00010F4407F62D02046FFF760FF64E000BF55
:1018E0006FF001000861204600F066F821687DE78E
:1018F0006FF0800008612046FFF776FD21687CE7E5
:101900006FF4807008612046FFF76CFD21687CE76A
:101910006FF040000861204600F010F921687CE774
:101920006FF0200008612046FFF760FD21687CE72A
:101930006FF4801008612046FFF75CFD21687CE7AA
:101940006FF4001008612046FFF752FD21687CE724
:101950006FF4800008612046FFF74EFD21687CE7A8
:10196000204600F025F8204600F024F821680020E9
:1019700020771FE7204600F01BF8204600F01AF8F9
:101980002168002020771CE7204600F011F820464F
:1019900000F010F821680020207719E7204600F0B9
:1019A00007F8204600F006F821680020207716E7A7
:1019B000704700007047000070B540F20045C4F663
:1019C00000050446006805F1784101F58061884210
:1019D00076D128460121FEF7FDFD40F27016C2F2D5
:1019E0000006306028460221FEF7F4FDF06028462C
:1019F0000421FEF7EFFDB0614FF090400121FEF7AA
:101A0000E9FDB1687062022906D001290CD089B9BC
:101A1000316879B901210CE0316801290AD101212D
:101A20007160002105E000BF3168B1FA81F1490918
:101A30004900B160716959B101290DD0022911D154
:101A4000F16801290ED101213161002109E000BFB7
:101A5000F16839B9012104E0F168B1FA81F149096D
:101A600049007161316A59B101290DD0022911D1A2
:101A7000B16901290ED10121F161002109E000BF06
:101A8000B16939B9012104E0B169B1FA81F14909BB
:101A900049003162F16A49B101290BD0022908BF1E
:101AA00001280CD10120B062002007E038B90120E4
:101AB00004E000BFB0FA80F040094000F062206806
:101AC00005F1784188420BD140F21A05C2F20005B7
:101AD0002978012904D1FEF745FC002028702068F0
:101AE000B0F1804F28D140F21F00C2F2000090F9FF
:101AF00000000328B8BF70BD40F21B04C2F200040E
:101B000040F214022078C2F20002117801302070F5
:101B100081F0010102201170FEF70CFC20781928D9
:101B20000AD1FEF71FFC40F22400C2F20000BDE81B
:101B30007040FFF71FBD00BF70BD00007047000080
:101B400090F87C10012904BF022070472421C0F8BE
:101B5000801002681168136823F00103136021F0FC
:101B600000530021416613602022C0F8802080F8D5
:101B70007C100846704700007047000090F87C20F9
:101B8000012A04BF02207047B0B52422C0F880208B
:101B90000268D0F864E0D2F800C01368BEF1000F0C
:101BA00023F001031360936823F0606341EA0301AB
:101BB000916019D09368916846F6043E490FC0F6CB
:101BC000000E46F60C351EF80140C0F60005695CB3
:101BD000C3F34263E400B4FBF1F11EF80340EB5C95
:101BE000E500B5FBF3F301E001210123A0F86A1041
:101BF0002021A0F86830C2F800C0C0F88010002191
:101C000080F87C10BDE8B0400846704790F87C2012
:101C1000012A04BF02207047B0B52422C0F88020FA
:101C20000268D0F864E0D2F800C01368BEF1000F7B
:101C300023F001031360936823F0604341EA03013A
:101C4000916019D09368916846F6043E490FC0F63A
:101C5000000E46F60C351EF80140C0F60005695C22
:101C6000C3F34263E400B4FBF1F11EF80340EB5C04
:101C7000E500B5FBF3F301E001210123A0F86A10B0
:101C80002021A0F86830C2F800C0C0F88010002100
:101C900080F87C10BDE8B0400846704770470000EF
:101CA000704700007047000070B501680446CA69BB
:101CB0000E688B6802F02F05202D09D106F0200553
:101CC00003F08050401910D0E16E00294DD170BD55
:101CD0005FEA027C09D00120C1F2000003EA000E95
:101CE00006F4907010EB0E0028D1D0020AD513F440
:101CF000800007D04FF4801220460A62BDE8704091
:101D0000FFF7CEBF100605D506F0800003F40003F0
:101D1000C01827D150061BD516F0400018D008680F
:101D200020F04000086020200021C4F880002046F8
:101D30002167BDE8704000F017B900BFD00718BF99
:101D400016F4807022D1900703F001052AD432E006
:101D500010020FD516F080400CD02046BDE8704030
:101D6000FFF79CBF216F0029B1D02046BDE870402D
:101D7000084700BFD001AAD5B6F1FF3FC8BF70BD6C
:101D80002046BDE87040FFF7F7BE00BF01200862A3
:101D9000D4F8880040F00100C4F88800900703F0F0
:101DA000010508D53DB102200862D4F8880040F052
:101DB0000400C4F88800500708D53DB1042008622B
:101DC000D4F8880040F00200C4F88800BCF1000F8D
:101DD0000CD506F0200050EA0E0007D0082008625B
:101DE000D4F8880040F00800C4F88800D4F88800CF
:101DF00000283FF46CAF90060AD506F0200003F0EF
:101E00008052801804D0E26E12B1204690472168BB
:101E1000D4F888008A6800F0080002F040028018B8
:101E200006D12046FFF73EFF0020C4F8880070BDB1
:101E300008684FF6FE7220F4907008608868CEF64D
:101E4000FF72104088602020C4F884000020E06603
:101E50008868400614D5886820F040008860A06F2C
:101E600070B145F22911C0F600018163FEF796FAC0
:101E700000283FF42CAFA06F816BBDE8704008478D
:101E80002046BDE87040FFF70DBF000010B5A8B1B7
:101E90000446D0F8800028B9002084F87C00204651
:101EA00000F026F82420C4F880002068016821F0A2
:101EB00001010160204603F03FF908B1012010BD87
:101EC000A06A10B1204603F075F82168486820F434
:101ED00090404860886820F02A008860086840F0D8
:101EE000010220460A60BDE8104003F0D9B80000A6
:101EF000006843F60001C4F20101884218BF704730
:101F000080B586B041F24C00C4F20200416941F450
:101F100080414161416901F4804101910199016869
:101F200041F001010160006801A900F00100019089
:101F300001984FF4C0600190022002900020CDE98A
:101F40000300072005904FF09040FEF77BFA252014
:101F500000210022FEF7C8FB2520FEF7B3FB06B0E8
:101F6000BDE880407047000070470000FEE70000B9
:101F7000B0B540F27011C2F20001486840F2A015FD
:101F8000C2F2000518B12A7800234B60A2B10A6999
:101F900012B32A7800230B61F2B940F2110CC2F29D
:101FA000000C9CF800300133DAB20A3A18BF1A4626
:101FB0008CF8002010E000BF40F2100CC2F2000CC0
:101FC0009CF800300133DAB20A3A18BF1A468CF88E
:101FD00000200A69002ADCD1CA6982B12A7800236C
:101FE000CB6162B940F2120CC2F2000C9CF80030D6
:101FF0000133DAB20A3A18BF1A468CF800208A6A0E
:10200000002A08BFB0BD40F2100E0022C2F2000E3E
:1020100040F211038A629EF90010C2F200036422AA
:1020200093F90000514340F2120200EB8000C2F22B
:10203000000240F2130401EB400092F90010C2F2DA
:10204000000494F90040084440F21F0CA042C2F280
:10205000000C03D101212970002007E09CF800004A
:10206000FF210130117019708EF8001040F21A0231
:10207000C2F2000211708CF80000BDE8B04000F020
:1020800009BD000040F21841C4F600010A6942F49B
:1020900000720A610A6942F480720A610A6842F0B9
:1020A00020020A602022C1F8FC230A6942F02002C3
:1020B0000A6100BF00BF00BF0A6842F020020A6048
:1020C0000A6842F480720A600022C1F8FC230B699E
:1020D00043F020030B6100BF00BF00BF0B6843F05B
:1020E00020030B600B6843F480730B600B6943F4AF
:1020F00000730B610B6943F480730B610B6843F051
:1021000020030B602123C1F8FC330B6943F020034B
:102110000B6100BF00BF00BF0B6843F020030B60E2
:102120000B6843F480730B60C1F8FC230A6942F02A
:1021300020020A6100BF00BF00BF0A6842F020020F
:102140000A600A6842F480720A600A6942F4007206
:102150000A610A6942F480720A610A6842F0200248
:102160000A602222C1F8FC230A6942F020020A61B7
:1021700000BF00BF00BF0A6842F020020A600A6880
:1021800042F480720A6000BF00BF00BF0A6842F4D8
:1021900000720A604FF496320B69053A43F40073FB
:1021A0000B610B6843F480730B600B6843F02003F2
:1021B0000B60C1F8FC030B6943F020030B6100BF07
:1021C00000BF00BF0B6843F020030B600B6843F4B3
:1021D00080730B6000BF00BF00BF0B6843F4007347
:1021E0000B600B6943F400730B610B6843F480735D
:1021F0000B600B6843F020030B60C1F8FC030B6914
:1022000043F020030B6100BF00BF00BF0B6843F029
:1022100020030B600B6843F480730B6000BF00BFAA
:1022200000BF0B6843F400730B600B6943F4007349
:102230000B610B6843F480730B600B6843F0200361
:102240000B60C1F8FC030B6943F020030B6100BF76
:1022500000BF00BF0B6843F020030B600B6843F422
:1022600080730B6000BF00BF00BF0B6843F40073B6
:102270000B600B6943F400730B610B6843F48073CC
:102280000B600B6843F020030B60C1F8FC030B6983
:1022900043F020030B6100BF00BF00BF0B6843F099
:1022A00020030B600B6843F480730B6000BF00BF1A
:1022B00000BF0B6843F400730B600B6943F40073B9
:1022C0000B610B6843F480730B600B6843F02003D1
:1022D0000B60C1F8FC030B6943F020030B6100BFE6
:1022E00000BF00BF0B6843F020030B600B6843F492
:1022F00080730B6000BF00BF00BF0B6843F4007326
:102300000B607FF449AF70470A78002A08BF704716
:102310002DE9F04145F6221804464D1C002740F2F5
:102320003F16C0F6000800BFA2F12000C1B249006C
:1023300051FA80F008EB0012B1B2204600F00AF822
:10234000EA5D22B1103E132F07F10107ECD3BDE87F
:10235000F04170472DE9F04740F21843C4F60003FE
:102360001F694FF0200C47F400771F611F694FF081
:10237000210E47F480771F611F6840F2080947F07B
:1023800020071F60C3F8FCC31F6940F2180A47F01A
:1023900020071F6100BF00BF00BF1F684FF0220869
:1023A00047F020071F601F68C2F2000947F48077DA
:1023B0001F60C3F8FC031F69C2F2000A47F0200740
:1023C0001F6100BF00BF00BF1F6847F020071F60EC
:1023D0001F6847F480771F601F6947F400771F610B
:1023E0001F6947F480771F611F6847F020071F604F
:1023F000C3F8FCE31C6944F020041C6100BF00BF6B
:1024000000BF1C6844F020041C601C6844F4807405
:102410001C60C3F8FC131C6944F020041C6100BF5D
:1024200000BF00BF1C6844F020041C601C6844F41A
:1024300080741C60002400BF1D6945F400751D6197
:102440001D6945F480751D611D6845F020051D60FE
:10245000C3F8FC831D6945F020051D6100BF00BF66
:1024600000BF1D6845F020051D601D6845F480759E
:102470001D6000BF00BF00BF1D6845F400751D60F2
:10248000002500BF32F81460EE40F607564608BF3C
:102490004E4636881F6947F400771F611F6847F46E
:1024A00080771F601F6847F020071F60C3F8FC6338
:1024B0001E696F1C46F020061E6100BF00BF00BFF2
:1024C0001E6846F020061E601E6846F480761E6078
:1024D00000BF00BF00BF1E6846F400761E6032F8E1
:1024E0001460FE40F607564608BF4E4636881F6900
:1024F00047F400771F611F6847F480771F601F68EB
:1025000047F020071F60C3F8FC631E69AF1C46F04C
:1025100020061E6100BF00BF00BF1E6846F02006F7
:102520001E601E6846F480761E6000BF00BF00BFBC
:102530001E6846F400761E6032F81460FE40F6070E
:10254000564608BF4E4636881F6947F400771F611C
:102550001F6847F480771F601F6847F020071F60DF
:10256000C3F8FC631E69EF1C46F020061E6100BF25
:1025700000BF00BF1E68043546F020061E601E68BE
:1025800046F480761E6000BF00BF00BF1E6846F4A0
:1025900000761E6032F81460FE40F607564608BF0B
:1025A0004E4636881F69102D47F400771F611F685B
:1025B00047F480771F601F6847F020071F60C3F84B
:1025C000FC631E6946F020061E6100BF00BF00BF0D
:1025D0001E6846F020061E601E6846F480761E6067
:1025E00000BF00BF00BF1E6846F400761E607FF487
:1025F00049AF1D69013045F400751D611D69013445
:1026000045F480751D611D68182C45F020051D607E
:10261000C3F8FCC31D6945F020051D6100BF00BF64
:1026200000BF1D6845F020051D601D6845F48075DC
:102630001D60C5B2C3F8FC531D6945F020051D613E
:1026400000BF00BF00BF1D6845F020051D601D686C
:1026500045F480751D601D6945F400751D611D6997
:1026600045F480751D611D6845F020051D60C3F8A7
:10267000FCE31D6945F020051D6100BF00BF00BFE0
:102680001D6845F020051D601D6845F480751D60BE
:10269000C3F8FC131D6945F020051D6100BF00BF94
:1026A00000BF1D6845F020051D601D6845F480755C
:1026B0001D6008BFBDE8F087BEE600002DE9F04FC1
:1026C0008BB0002641F24C000596C4F2020001686E
:1026D00040F2184541F0040101600168C4F60005AC
:1026E00001F0040106910699016801AC41F0010175
:1026F0000160016840F6140901F001010691069994
:102700000168C4F6000941F0020101600068214639
:1027100000F00200069006984FF4487001900120E6
:102720000290A5F118000127CDE90366FDF78AFEA6
:102730004FF48070CDE901074FF090402146CDE97C
:102740000366FDF77FFE4FF6FF7005F57A7406907D
:102750004FF0030806A920460A964FF6FF7B07971D
:10276000CDE90868FDF76EFE4FF6004ACFF6FF7A16
:1027700055F80A0006A940F4807045F80A00286858
:102780004FF6FF7740F408702860286940F4007025
:102790002861286940F480702861286840F0200092
:1027A0002860C9F80060286940F02000286100BF57
:1027B00000BF00BF286840F020002860286840F46F
:1027C0008070286020460A96CDF818B0CDF8248095
:1027D000CDE90766FDF736FE4FF6104BCFF6FF7BCF
:1027E00055F80B0007A940F4807045F80B0000BFB6
:1027F00000BF00BFD5F8F89355F80A0040F4807088
:1028000045F80A00012081E8410106A920460A9600
:102810000697FDF717FE286848F2302140F4007053
:10282000286040F21C00C2F20000A0F8009000886E
:10283000884203D100F00CFB02E000BF01F07CF8FD
:102840002869002640F40070286128694FF6FF7857
:1028500040F48070286128684FF0030940F02000A0
:10286000286040F61400C4F600000660286906A936
:1028700040F02000286100BF00BF00BF286840F082
:1028800020002860286840F48070286020460A965E
:10289000CDE90686CDE90869FDF7D4FD55F80B00B2
:1028A00007A940F4807045F80B0000BF00BF00BFCF
:1028B000D5F8F87355F80A0040F4807045F80A001E
:1028C000012081E8410206A920460A96CDF8188029
:1028D000FDF7B8FD286840F40070286040F21C0045
:1028E000C2F2000007800BB0BDE8F08F81B0ADF8F8
:1028F0000200BDF8020040F20801C2F200010880A7
:1029000001B0704781B0ADF80200BDF8020040F29E
:102910001801C2F20001088001B0704780B598B07C
:102920003948109038A0031D0ECB008ACDE9111252
:10293000ADF8500010A918201393FFF7E5FC40F202
:102940001000C2F2000090F90020501C04D033A106
:1029500010A802F0E5FE0FE036480DF1440E10908D
:1029600034A000F1040C9CE80E10007D8EE80E00EF
:10297000CDF850C08DF8540040F21100C2F20000B2
:1029800090F90020501C05D030A108A802F0C8FE24
:1029900010E000BF33480DF1240E089031A000F183
:1029A000040C9CE80E10007D8EE80E00CDF830C0BF
:1029B0008DF8340040F21200C2F2000090F90020BD
:1029C000501C05D02DA1684602F0AAFE0DE000BF04
:1029D00046F65030C0F6000090E80E50007D8DE8BD
:1029E0000E10CDF810E08DF8140010A94820FFF764
:1029F0008BFC08A96020FFF787FC69467820FFF769
:102A000083FC18B080BD00BF202020202020205053
:102A100053442020202020202000000020202020BF
:102A200042313A2564202020202020202020202010
:102A3000200000002020202042313A402020202089
:102A40002020202020202020000000002020202006
:102A500042323A25642020202020202020202020DF
:102A6000200000002020202042323A402020202058
:102A700020202020202020200000000020202020D6
:102A800042333A25642020202020202020202020AE
:102A900020000000B0B540F21A00C2F20000007839
:102AA00040F600440128C4F600041DD1A4F5806559
:102AB00028464FF47F410122FDF792FD2046042174
:102AC0000122FDF78DFD204604210022FDF788FD3F
:102AD00040F26400C2F20000FEF734FD28464FF4D5
:102AE0008071002232E000BF40F21F00C2F20000FD
:102AF00090F900000328B8BFB0BD40F21B00C2F23D
:102B000000000021A4F58065017028464FF47F4144
:102B10000122FDF765FD204604210122FDF760FD3D
:102B2000204604210022FDF75BFD40F22400C2F2A2
:102B30000000FEF707FD40F21400C2F20000017829
:102B400081F00102027028464FF40071FDF748FD44
:102B5000204604210122FDF743FD204604210022E6
:102B6000BDE8B040FDF73CBD2DE9F04387B04FF024
:102B7000000841F24C00CDF81880C4F20200016850
:102B800040F6000541F0040101600168C4F600054B
:102B900001F00401019101990168012241F0200135
:102BA000016001684FF47F4601F020010191019915
:102BB0000168012741F001010160016801F0010194
:102BC00001910199016841F002010160016801F081
:102BD000020101910199016841F00801016000685A
:102BE0004FF47F4100F00800019001982846FDF75E
:102BF000F7FC05F580642046042100224FF004090B
:102C0000FDF7EEFC02A880E8C00102AE284631467E
:102C1000CDF81480FDF716FC4FF090403146CDE919
:102C200002780497FDF70EFC0720CDE90208A5F510
:102C3000806031460497FDF705FC20463146CDE91A
:102C40000297CDE90488FDF7FDFB07B0BDE8F083EE
:102C500080B588B040F224000021C2F200004FF09D
:102C6000804240F21F3342F20F7C0791CDE90511FB
:102C70000291C0E90023C0E9021C01618161FEF7F5
:102C8000F7FB002818BFFDF787FB4FF48050049036
:102C900040F22400C2F2000004A9FEF789FC0028DB
:102CA00018BFFDF779FB00200190039040F224004B
:102CB000C2F2000001A9FEF7A1FB002818BFFDF732
:102CC0006BFB08B080BD000080B588B040F26400A6
:102CD00040F200420021C2F20000C4F2000241F6BC
:102CE0003F734CF24F3C0791CDE905110291C0E9C9
:102CF0000023C0E9021C01618161FEF7B9FB0028D5
:102D000018BFFDF749FB4FF48050049040F2640077
:102D1000C2F2000004A9FEF74BFC002818BFFDF723
:102D20003BFB00200190039040F26400C2F20000DF
:102D300001A9FEF763FB002818BFFDF72DFB08B0C3
:102D400080BD000080B588B040F2A40040F60002CB
:102D50000021C2F20000C4F2000240F21F3342F22E
:102D60000F7C0791CDE905110291C0E90023C0E96C
:102D7000021C01618161FEF77BFB002818BFFDF793
:102D80000BFB4FF48050049040F2A400C2F200000C
:102D900004A9FEF70DFC002818BFFDF7FDFA00207E
:102DA0000190039040F2A400C2F2000001A9FEF7D6
:102DB00025FB002818BFFDF7EFFA08B080BD000022
:102DC00080B540F2E40043F60001C2F20000C4F214
:102DD000010100234FF00C0C4FF4165280E80E0056
:102DE000C0E90333C0E905C3C0E90733C0E90933CB
:102DF000FFF74CF8002818BFFDF7CEFA40F2E400C8
:102E0000C2F200000021FEF701FF002818BFFDF705
:102E1000C3FA40F2E400C2F200000021FEF7AEFE69
:102E2000002818BFFDF7B8FA40F2E400C2F2000033
:102E3000FEF786FE002808BF80BDBDE88040FDF794
:102E4000ABBA0000FEE700007047000070470000CA
:102E500040F21840C4F600000169002241F40071FC
:102E6000016101694FF0030C41F480710161016857
:102E700041F020010160C0F8FC23016941F020010C
:102E8000016100BF00BF00BF016841F02001016087
:102E9000016841F4807101600121C0F8FC130369ED
:102EA00043F02003036100BF00BF00BF036843F08D
:102EB00020030360036843F480730360036943F4F1
:102EC00000730361036943F480730361036843F093
:102ED00020030360C0F8FC13036943F0200303617F
:102EE00000BF00BF00BF036843F020030360036816
:102EF00043F480730360C0F8FC23026942F02002AF
:102F0000026100BF00BF00BF026842F02002026001
:102F1000026842F480720260026942F40072026147
:102F2000026942F480720261026842F0200202608B
:102F30001022C0F8FC23026942F02002026100BFA7
:102F400000BF00BF026842F020020260026842F443
:102F50008072026041F29072C0F8FC23026942F074
:102F60002002026100BF00BF00BF026842F02002E1
:102F70000260026842F480720260026942F40072E8
:102F80000261026942F480720261026842F020022A
:102F900002606022C0F8FC23026942F02002026154
:102FA00000BF00BF00BF026842F02002026002685A
:102FB00042F4807202604FF41C52C0F8FC23026994
:102FC00042F02002026100BF00BF00BF026842F071
:102FD00020020260026842F480720260026942F4D8
:102FE00000720261026942F480720261026842F07A
:102FF000200202606122C0F8FC23026942F0200234
:10300000026100BF00BF00BF026842F02002026000
:10301000026842F480720260C0F8FC13016941F05A
:103020002001016100BF00BF00BF016841F0200125
:103030000160016841F480710160016941F400712F
:103040000161016941F480710161016841F0200171
:1030500001604621C0F8FC13016941F020010161C3
:1030600000BF00BF00BF016841F02001016001689E
:1030700041F4807101600221C0F8FC13026942F042
:103080002002026100BF00BF00BF026842F02002C0
:103090000260026842F480720260026942F40072C7
:1030A0000261026942F480720261026842F0200209
:1030B00002601322C0F8FC23026942F02002026180
:1030C00000BF00BF00BF026842F020020260026839
:1030D00042F48072026048F21002C0F8FC230269D8
:1030E00042F02002026100BF00BF00BF026842F050
:1030F00020020260026842F480720260026942F4B7
:1031000000720261026942F480720261026842F058
:10311000200202601222C0F8FC23026942F0200261
:10312000026100BF00BF00BF026842F020020260DF
:10313000026842F48072026048F2FE02C0F8FC238A
:10314000026942F02002026100BF00BF00BF0268B6
:1031500042F020020260026842F48072026002695A
:1031600042F400720261026942F4807202610268F4
:1031700042F020020260C0F8FC13016941F0200116
:10318000016100BF00BF00BF016841F02001016084
:10319000016841F4807101604FF4A061C0F8FC1334
:1031A000016941F02001016100BF00BF00BF01685B
:1031B00041F020010160016841F480710160016902
:1031C00041F400710161016941F48071016101689C
:1031D00041F020010160C0F8FCC3026942F0200206
:1031E000026100BF00BF00BF026842F0200202601F
:1031F000026842F48072026041F23002C0F8FC239F
:10320000026942F02002026100BF00BF00BF0268F5
:1032100042F020020260026842F480720260026999
:1032200042F400720261026942F480720261026833
:1032300042F0200202603022C0F8FC23026942F012
:103240002002026100BF00BF00BF026842F02002FE
:103250000260026842F48072026040F20332C0F8F9
:10326000FC23036943F02003036100BF00BF00BFDC
:10327000036843F020030360036843F48073036032
:10328000036943F400730361036943F480730361CA
:10329000036843F0200303603123C0F8FC33036963
:1032A00043F02003036100BF00BF00BF036843F089
:1032B00020030360036843F480730360C0F8FC23B9
:1032C000036943F02003036100BF00BF00BF036830
:1032D00043F020030360036843F4807303600369D1
:1032E00043F400730361036943F48073036103686B
:1032F00043F0200303603223C0F8FC33036943F03A
:103300002003036100BF00BF00BF036843F0200338
:103310000360036843F480730360C0F8FC2303690F
:1033200043F02003036100BF00BF00BF036843F008
:1033300020030360036843F480730360036943F46C
:1033400000730361036943F480730361036843F00E
:10335000200303603323C0F8FC33036943F02003E8
:10336000036100BF00BF00BF036843F02003036098
:10337000036843F4807303604FF44073C0F8FC3378
:10338000016941F02001016100BF00BF00BF016879
:1033900041F020010160016841F480710160016920
:1033A00041F400710161016941F4807101610168BA
:1033B00041F0200101603421C0F8FC13016941F0A3
:1033C0002001016100BF00BF00BF016841F0200182
:1033D0000160016841F480710160C0F8FCC30169BB
:1033E00041F02001016100BF00BF00BF016841F052
:1033F00020010160016841F480710160016941F4BC
:1034000000710161016941F480710161016841F05D
:10341000200101603521C0F8FC13016941F0200151
:10342000016100BF00BF00BF016841F020010160E1
:10343000016841F480710160C0F8FC23016941F02A
:103440002001016100BF00BF00BF016841F0200101
:103450000160016841F480710160016941F400710B
:103460000161016941F480710161016841F020014D
:1034700001603621C0F8FC13016941F020010161AF
:1034800000BF00BF00BF016841F02001016001687A
:1034900041F4807101601421C0F8FC13016941F00E
:1034A0002001016100BF00BF00BF016841F02001A1
:1034B0000160016841F480710160016941F40071AB
:1034C0000161016941F480710161016841F02001ED
:1034D00001603721C0F8FC13016941F0200101614E
:1034E00000BF00BF00BF016841F02001016001681A
:1034F00041F480710160C0F8FC23016941F02001B2
:10350000016100BF00BF00BF016841F02001016000
:10351000016841F480710160016941F40071016149
:10352000016941F480710161016841F0200101608D
:103530003821C0F8FC13016941F02001016100BF8E
:1035400000BF00BF016841F020010160016841F443
:1035500080710160C0F8FC23016941F02001016124
:1035600000BF00BF00BF016841F020010160016899
:1035700041F480710160016941F4007101610169E8
:1035800041F480710161016841F02001016039213D
:10359000C0F8FC13016941F02001016100BF00BFC8
:1035A00000BF016841F020010160016841F48071B1
:1035B0000160C0F8FC23016941F02001016100BFF6
:1035C00000BF00BF016841F020010160016841F4C3
:1035D00080710160016941F400710161016941F488
:1035E00080710161016841F0200101603A21C0F859
:1035F000FC13016941F02001016100BF00BF00BF61
:10360000016841F020010160016841F480710160AE
:10361000C0F8FC33016941F02001016100BF00BF27
:1036200000BF016841F020010160016841F4807130
:103630000160016941F400710161016941F4807127
:103640000161016841F0200101603B21C0F8FC13D9
:10365000016941F02001016100BF00BF00BF0168A6
:1036600041F020010160016841F480710160C0F8FF
:10367000FCC3016941F02001016100BF00BF00BF30
:10368000016841F020010160016841F4807101602E
:10369000016941F400710161016941F480710161C6
:1036A000016841F0200101603C21C0F8FC13016970
:1036B00041F02001016100BF00BF00BF016841F07F
:1036C00020010160016841F480710160C0F8FC23B1
:1036D000016941F02001016100BF00BF00BF016826
:1036E00041F020010160016841F4807101600169CD
:1036F00041F400710161016941F480710161016867
:1037000041F0200101603D21C0F8FC13016941F046
:103710002001016100BF00BF00BF016841F020012E
:103720000160016841F4807101604FF4A051C0F85C
:10373000FC13016941F02001016100BF00BF00BF1F
:10374000016841F020010160016841F4807101606D
:10375000016941F400710161016941F48071016105
:10376000016841F0200101609221C0F8FC13016959
:1037700041F02001016100BF00BF00BF016841F0BE
:1037800020010160016841F4807101604FF4007113
:10379000C0F8FC13016941F02001016100BF00BFC6
:1037A00000BF016841F020010160016841F48071AF
:1037B0000160016941F400710161016941F48071A6
:1037C0000161016841F0200101609321C0F8FC1300
:1037D000016941F02001016100BF00BF00BF016825
:1037E00041F020010160016841F480710160C0F87E
:1037F000FC23016941F02001016100BF00BF00BF4F
:10380000016841F020010160016841F480710160AC
:10381000016941F400710161016941F48071016144
:10382000016841F0200101609021C0F8FC1301699A
:1038300041F02001016100BF00BF00BF016841F0FD
:1038400020010160016841F48071016040F60D01C2
:10385000C0F8FC13016941F02001016100BF00BF05
:1038600000BF016841F020010160016841F48071EE
:103870000160016941F400710161016941F48071E5
:103880000161016841F020010160C0F8FCC30169D9
:1038900041F02001016100BF00BF00BF016841F09D
:1038A00020010160016841F48071016041F218015A
:1038B000C0F8FC13016941F02001016100BF00BFA5
:1038C00000BF016841F020010160016841F480718E
:1038D0000160016941F400710161016941F4807185
:1038E0000161016841F0200101600721C0F8FC136B
:1038F000016941F02001016100BF00BF00BF016804
:1039000041F020010160016841F48071016040F2E2
:103910007311C0F8FC13016941F02001016100BF7F
:1039200000BF00BF016841F020010160016841F45F
:1039300080710160704700002DE9F04F81B040F2C6
:103940001844C4F6000420694FF0120940F40070D6
:1039500020612069002540F48070206120681126D4
:1039600040F020002060E320C4F8FC0320694FF001
:10397000130B40F02000206100BF00BF00BF206893
:10398000102740F02000206020684FF0070840F426
:103990008070206043F20800C4F8FC03206940F006
:1039A0002000206100BF00BF00BF206840F0200061
:1039B0002060206840F480702060206940F400702E
:1039C0002061206940F480702061206840F0200070
:1039D0002060E720C4F8FC03206940F0200020614B
:1039E00000BF00BF00BF206840F0200020602068BA
:1039F00040F480702060C4F8FC93206940F02000FF
:103A0000206100BF00BF00BF206840F020002060A0
:103A1000206840F480702060206940F400702061CC
:103A2000206940F480702061206840F02000206010
:103A3000EF20C4F8FC03206940F02000206100BFA3
:103A400000BF00BF206840F020002060206840F4E4
:103A50008070206041F23120C4F8FC03206940F0FE
:103A60002000206100BF00BF00BF206840F02000A0
:103A70002060206840F480702060206940F400706D
:103A80002061206940F480702061206840F02000AF
:103A900020600120C4F8FC03206940F02000206170
:103AA00000BF00BF00BF206840F0200020602068F9
:103AB00040F480702060C4F8FC53206940F020007E
:103AC000206100BF00BF00BF206840F020002060E0
:103AD000206840F480702060206940F4007020610C
:103AE000206940F480702061206840F02000206050
:103AF0000220C4F8FC03206940F02000206100BFD0
:103B000000BF00BF206840F020002060206840F423
:103B1000807020604FF4E060C4F8FC03206940F03E
:103B20002000206100BF00BF00BF206840F02000DF
:103B30002060206840F480702060206940F40070AC
:103B40002061206940F480702061206840F02000EE
:103B500020600320C4F8FC03206940F020002061AD
:103B600000BF00BF00BF206840F020002060206838
:103B700040F48070206041F23000C4F8FC032069FA
:103B800040F02000206100BF00BF00BF206840F06F
:103B900020002060206840F480702060206940F49C
:103BA00000702061206940F480702061206840F03E
:103BB000200020600420C4F8FC03206940F02000AD
:103BC000206100BF00BF00BF206840F020002060DF
:103BD000206840F480702060C4F8FC53206940F0F5
:103BE0002000206100BF00BF00BF206840F020001F
:103BF0002060206840F480702060206940F40070EC
:103C00002061206940F480702061206840F020002D
:103C100020600820C4F8FC03206940F020002061E7
:103C200000BF00BF00BF206840F020002060206877
:103C300040F48070206040F20720C4F8FC03206943
:103C400040F02000206100BF00BF00BF206840F0AE
:103C500020002060206840F480702060206940F4DB
:103C600000702061206940F480702061206840F07D
:103C7000200020600920C4F8FC03206940F02000E7
:103C8000206100BF00BF00BF206840F0200020601E
:103C9000206840F480702060C4F8FC53206940F034
:103CA0002000206100BF00BF00BF206840F020005E
:103CB0002060206840F480702060206940F400702B
:103CC0002061206940F480702061206840F020006D
:103CD00020600A20C4F8FC03206940F02000206125
:103CE00000BF00BF00BF206840F0200020602068B7
:103CF00040F480702060C4F8FC53206940F020003C
:103D0000206100BF00BF00BF206840F0200020609D
:103D1000206840F480702060206940F400702061C9
:103D2000206940F480702061206840F0200020600D
:103D30000C20C4F8FC03206940F02000206100BF83
:103D400000BF00BF206840F020002060206840F4E1
:103D500080702060C4F8FC53206940F0200020618E
:103D600000BF00BF00BF206840F020002060206836
:103D700040F480702060206940F400702061206968
:103D800040F480702061206840F0200020600D2009
:103D9000C4F8FC03206940F02000206100BF00BF90
:103DA00000BF206840F020002060206840F4807050
:103DB0002060C4F8FC53206940F02000206100BF5F
:103DC00000BF00BF206840F020002060206840F461
:103DD00080702060206940F400702061206940F408
:103DE00080702061206840F0200020600F20C4F81F
:103DF000FC03206940F02000206100BF00BF00BF2D
:103E0000206840F020002060206840F4807020602E
:103E1000C4F8FC53206940F02000206100BF00BFBF
:103E200000BF206840F020002060206840F48070CF
:103E30002060206940F400702061206940F48070A7
:103E40002061206840F0200020601020C4F8FC03AE
:103E5000206940F02000206100BF00BF00BF206843
:103E600040F020002060206840F480702060C4F89A
:103E7000FC53206940F02000206100BF00BF00BF5C
:103E8000206840F020002060206840F480702060AE
:103E9000206940F400702061206940F48070206146
:103EA000206840F020002060C4F8FC63206940F0E6
:103EB0002000206100BF00BF00BF206840F020004C
:103EC0002060206840F4807020600720C4F8FC0364
:103ED000206940F02000206100BF00BF00BF2068C3
:103EE00040F020002060206840F48070206020694D
:103EF00040F400702061206940F4807020612068E7
:103F000040F020002060C4F8FC93206940F02000BD
:103F1000206100BF00BF00BF206840F0200020608B
:103F2000206840F480702060C4F8FC53206940F0A1
:103F30002000206100BF00BF00BF206840F02000CB
:103F40002060206840F480702060206940F4007098
:103F50002061206940F480702061206840F02000DA
:103F60002060C4F8FCB3206940F02000206100BF4D
:103F700000BF00BF206840F020002060206840F4AF
:103F800080702060C4F8FC53206940F0200020615C
:103F900000BF00BF00BF206840F020002060206804
:103FA00040F480702060C820FCF738FA20694FF098
:103FB000320A40F400702061206940F48070206172
:103FC000206840F020002060C4F8FC7320691027AE
:103FD00040F02000206100BF00BF00BF206840F01B
:103FE00020002060206840F48070206041F29060E2
:103FF000C4F8FC03206940F02000206100BF00BF2E
:1040000000BF206840F020002060206840F48070ED
:104010002060206940F400702061206940F48070C5
:104020002061206840F020002060C4F8FC63206913
:1040300040F02000206100BF00BF00BF206840F0BA
:1040400020002060206840F48070206040F227202B
:10405000C4F8FC03206940F02000206100BF00BFCD
:1040600000BF206840F020002060206840F480708D
:1040700020603220FCF7D2F9206940F40070206102
:10408000206940F480702061206840F020002060AA
:10409000C4F8FC93206940F02000206100BF00BFFD
:1040A00000BF206840F020002060206840F480704D
:1040B00020601D20C4F8FC03206940F0200020612E
:1040C00000BF00BF00BF206840F0200020602068D3
:1040D00040F4807020603220FCF7A0F9206940F4A1
:1040E00000702061206940F480702061206840F0F9
:1040F00020002060C4F8FCB3206940F0200020615B
:1041000000BF00BF00BF206840F020002060206892
:1041100040F4807020604FF40060C4F8FC03206914
:1041200040F02000206100BF00BF00BF206840F0C9
:1041300020002060206840F480702060206940F4F6
:1041400000702061206940F480702061206840F098
:10415000200020602920C4F8FC03206940F02000E2
:10416000206100BF00BF00BF206840F02000206039
:10417000206840F4807020601420C4F8FC0320699B
:1041800040F02000206100BF00BF00BF206840F069
:1041900020002060206840F480702060206940F496
:1041A00000702061206940F480702061206840F038
:1041B000200020602B20C4F8FC03206940F0200080
:1041C000206100BF00BF00BF206840F020002060D9
:1041D000206840F4807020600B20C4F8FC03206944
:1041E00040F02000206100BF00BF00BF206840F009
:1041F00020002060206840F4807020603220FCF7AE
:104200000DF92069032140F4007020612069072224
:1042100040F480702061206840F020002060202061
:10422000C4F8FC03206940F02000206100BF00BFFB
:1042300000BF206840F020002060206840F48070BB
:104240002060C4F8FC53206940F02000206100BFCA
:1042500000BF00BF206840F020002060206840F4CC
:1042600080702060206940F400702061206940F473
:1042700080702061206840F0200020602120C4F878
:10428000FC03206940F02000206100BF00BF00BF98
:10429000206840F020002060206840F4807020609A
:1042A000C4F8FC53206940F02000206100BF00BF2B
:1042B00000BF206840F020002060206840F480703B
:1042C0002060206940F400702061206940F4807013
:1042D0002061206840F0200020603020C4F8FC03FA
:1042E000206940F02000206100BF00BF00BF2068AF
:1042F00040F020002060206840F480702060C4F806
:10430000FC83206940F02000206100BF00BF00BF97
:10431000206840F020002060206840F48070206019
:10432000206940F400702061206940F480702061B1
:10433000206840F0200020603120C4F8FC03206990
:1043400040F02000206100BF00BF00BF206840F0A7
:1043500020002060206840F48070206040F20770E8
:10436000C4F8FC03206940F02000206100BF00BFBA
:1043700000BF206840F020002060206840F480707A
:104380002060206940F400702061206940F4807052
:104390002061206840F020002060C4F8FCA3206960
:1043A00040F02000206100BF00BF00BF206840F047
:1043B00020002060206840F4807020600620C4F84F
:1043C000FC03206940F02000206100BF00BF00BF57
:1043D000206840F020002060206840F48070206059
:1043E000206940F400702061206940F480702061F1
:1043F000206840F0200020603520C4F8FC032069CC
:1044000040F02000206100BF00BF00BF206840F0E6
:1044100020002060206840F48070206040F204702A
:10442000C4F8FC03206940F02000206100BF00BFF9
:1044300000BF206840F020002060206840F48070B9
:104440002060206940F400702061206940F4807091
:104450002061206840F0200020603620C4F8FC0372
:10446000206940F02000206100BF00BF00BF20682D
:1044700040F020002060206840F48070206041F609
:104480000470C4F8FC03206940F02000206100BFE4
:1044900000BF00BF206840F020002060206840F48A
:1044A00080702060206940F400702061206940F431
:1044B00080702061206840F0200020603720C4F820
:1044C000FC03206940F02000206100BF00BF00BF56
:1044D000206840F020002060206840F48070206058
:1044E0000420C4F8FC03206940F02000206100BFD4
:1044F00000BF00BF206840F020002060206840F42A
:1045000080702060206940F400702061206940F4D0
:1045100080702061206840F0200020603820C4F8BE
:10452000FC03206940F02000206100BF00BF00BFF5
:10453000206840F020002060206840F480702060F7
:10454000C4F8FC53206940F02000206100BF00BF88
:1045500000BF206840F020002060206840F4807098
:104560002060206940F400702061206940F4807070
:104570002061206840F0200020603920C4F8FC034E
:10458000206940F02000206100BF00BF00BF20680C
:1045900040F020002060206840F48070206040F2ED
:1045A0000670C4F8FC03206940F02000206100BFC1
:1045B00000BF00BF206840F020002060206840F469
:1045C00080702060206940F400702061206940F410
:1045D00080702061206840F0200020603C20C4F8FA
:1045E000FC03206940F02000206100BF00BF00BF35
:1045F000206840F020002060206840F48070206037
:1046000040F20170C4F8FC03206940F020002061F2
:1046100000BF00BF00BF206840F02000206020687D
:1046200040F480702060206940F4007020612069AF
:1046300040F480702061206840F0200020603D2020
:10464000C4F8FC03206940F02000206100BF00BFD7
:1046500000BF206840F020002060206840F4807097
:1046600020600F20C4F8FC03206940F02000206186
:1046700000BF00BF00BF206840F02000206020681D
:1046800040F480702060206940F40070206120694F
:1046900040F480702061206840F0200020605020AD
:1046A000C4F8FC03206940F02000206100BF00BF77
:1046B00000BF206840F020002060206840F4807037
:1046C0002060C4F8FC53206940F02000206100BF46
:1046D00000BF00BF206840F020002060206840F448
:1046E00080702060206940F400702061206940F4EF
:1046F00080702061206840F0200020605120C4F8C4
:10470000FC03206940F02000206100BF00BF00BF13
:10471000206840F020002060206840F48070206015
:10472000EF20C4F8FC03206940F02000206100BFA6
:1047300000BF00BF206840F020002060206840F4E7
:1047400080702060206940F400702061206940F48E
:1047500080702061206840F0200020605220C4F862
:10476000FC03206940F02000206100BF00BF00BFB3
:10477000206840F020002060206840F480702060B5
:10478000C4F8FC53206940F02000206100BF00BF46
:1047900000BF206840F020002060206840F4807056
:1047A0002060206940F400702061206940F480702E
:1047B0002061206840F0200020605320C4F8FC03F2
:1047C000206940F02000206100BF00BF00BF2068CA
:1047D00040F020002060206840F48070206040F2AB
:1047E0003F10C4F8FC03206940F02000206100BFA6
:1047F00000BF00BF206840F020002060206840F427
:1048000080702060206940F400702061206940F4CD
:1048100080702061206840F0200020606020C4F893
:10482000FC03206940F02000206100BF00BF00BFF2
:10483000206840F020002060206840F480702060F4
:104840004FF41C50C4F8FC03206940F020002061A4
:1048500000BF00BF00BF206840F02000206020683B
:1048600040F480702060206940F40070206120696D
:1048700040F480702061206840F0200020606120BA
:10488000C4F8FC03206940F02000206100BF00BF95
:1048900000BF206840F020002060206840F4807055
:1048A00020600120C4F8FC03206940F02000206152
:1048B00000BF00BF00BF206840F0200020602068DB
:1048C00040F480702060206940F40070206120690D
:1048D00040F480702061206840F0200020606A2051
:1048E000C4F8FC03206940F02000206100BF00BF35
:1048F00000BF206840F020002060206840F48070F5
:104900002060C4F8FC53206940F02000206100BF03
:1049100000BF00BF206840F020002060206840F405
:1049200080702060206940F400702061206940F4AC
:1049300080702061206840F0200020608020C4F852
:10494000FC03206940F02000206100BF00BF00BFD1
:10495000206840F020002060206840F480702060D3
:10496000C4F8FC53206940F02000206100BF00BF64
:1049700000BF206840F020002060206840F4807074
:104980002060206940F400702061206940F480704C
:104990002061206840F0200020608120C4F8FC03E2
:1049A000206940F02000206100BF00BF00BF2068E8
:1049B00040F020002060206840F480702060C4F83F
:1049C000FC53206940F02000206100BF00BF00BF01
:1049D000206840F020002060206840F48070206053
:1049E000206940F400702061206940F480702061EB
:1049F000206840F0200020608220C4F8FC03206979
:104A000040F02000206100BF00BF00BF206840F0E0
:104A100020002060206840F480702060C4F8FC53BF
:104A2000206940F02000206100BF00BF00BF206867
:104A300040F020002060206840F4807020602069F1
:104A400040F400702061206940F48070206120688B
:104A500040F0200020608320C4F8FC03206940F06F
:104A60002000206100BF00BF00BF206840F0200090
:104A70002060206840F480702060C4F8FC532069F6
:104A800040F02000206100BF00BF00BF206840F060
:104A900020002060206840F480702060206940F48D
:104AA00000702061206940F480702061206840F02F
:104AB000200020608420C4F8FC03206940F020001E
:104AC000206100BF00BF00BF206840F020002060D0
:104AD000206840F480702060C4F8FC53206940F0E6
:104AE0002000206100BF00BF00BF206840F0200010
:104AF0002060206840F480702060206940F40070DD
:104B00002061206940F480702061206840F020001E
:104B100020608520C4F8FC03206940F0200020615B
:104B200000BF00BF00BF206840F020002060206868
:104B300040F480702060C4F8FC53206940F02000ED
:104B4000206100BF00BF00BF206840F0200020604F
:104B5000206840F480702060206940F4007020617B
:104B6000206940F480702061206840F020002060BF
:104B70009020C4F8FC03206940F02000206100BFB1
:104B800000BF00BF206840F020002060206840F493
:104B900080702060C4F8FC73206940F02000206120
:104BA00000BF00BF00BF206840F0200020602068E8
:104BB00040F480702060206940F40070206120691A
:104BC00040F480702061206840F020002060922036
:104BD000C4F8FC03206940F02000206100BF00BF42
:104BE00000BF206840F020002060206840F4807002
:104BF0002060C4F8FC53206940F02000206100BF11
:104C000000BF00BF206840F020002060206840F412
:104C100080702060206940F400702061206940F4B9
:104C200080702061206840F0200020609320C4F84C
:104C3000FC03206940F02000206100BF00BF00BFDE
:104C4000206840F020002060206840F480702060E0
:104C5000C4F8FC13206940F02000206100BF00BFB1
:104C600000BF206840F020002060206840F4807081
:104C70002060206940F400702061206940F4807059
:104C80002061206840F0200020609520C4F8FC03DB
:104C9000206940F02000206100BF00BF00BF2068F5
:104CA00040F020002060206840F4807020604FF4C5
:104CB0008870C4F8FC03206940F02000206100BF28
:104CC00000BF00BF206840F020002060206840F452
:104CD00080702060206940F400702061206940F4F9
:104CE00080702061206840F0200020609720C4F888
:104CF000FC03206940F02000206100BF00BF00BF1E
:104D0000206840F020002060206840F4807020601F
:104D1000C4F8FC53206940F02000206100BF00BFB0
:104D200000BF206840F020002060206840F48070C0
:104D30002060206940F400702061206940F4807098
:104D40002061206840F0200020609820C4F8FC0317
:104D5000206940F02000206100BF00BF00BF206834
:104D600040F020002060206840F480702060C4F88B
:104D7000FC53206940F02000206100BF00BF00BF4D
:104D8000206840F020002060206840F4807020609F
:104D9000206940F400702061206940F48070206137
:104DA000206840F020002060C4F8FC13206940F027
:104DB0002000206100BF00BF00BF206840F020003D
:104DC0002060206840F48070206041F21800C4F830
:104DD000FC03206940F02000206100BF00BF00BF3D
:104DE000206840F020002060206840F4807020603F
:104DF000206940F400702061206940F480702061D7
:104E0000206840F020002060C4F8FC23206940F0B6
:104E10002000206100BF00BF00BF206840F02000DC
:104E20002060206840F48070206040F27310C4F865
:104E3000FC03206940F02000206100BF00BF00BFDC
:104E4000206840F020002060206840F480702060DE
:104E500001B0BDE8F08F000070470000FBF7CCBB4D
:104E60004EF68850CEF20000016841F470010160F6
:104E70004FF0006140F8801C7047000040F22400B1
:104E8000C2F20000FCF78CBC40F26400C2F20000E9
:104E9000FCF786BC40F2A400C2F20000FCF780BC24
:104EA00040F2FF7C0268C4F2000C604522DD40F64F
:104EB0000003C4F20003984225D043F20043C4F239
:104EC000010398421FD042F60043C4F20103984206
:104ED00019D043F2FF33C4F2010398421DDC604550
:104EE0002ADCB0F1804F3DD040F20043C4F2000311
:104EF00036E000BFB0F1804F05D040F20043C4F26D
:104F000000039842E5D14B6822F070021A4343F245
:104F1000FF33C4F201039842E1DD44F2FF33C4F2EF
:104F20000103984212DC43F20043C4F201039842A9
:104F300018D044F2000311E040F60003C4F200036D
:104F400098420FD042F6004308E000BF44F6000349
:104F5000C4F20103984205D044F20043C4F20103B5
:104F6000984203D1CB6822F440721A4380B54B6952
:104F700022F0800E8A6843EA0E03D1F800C0036075
:104F8000C262A0F18042A2F59632830543EA9222E2
:104F9000072AC0F828C0BDE8804007D8012303FADB
:104FA00002F212F0E50F1CBF0969016301214161A2
:104FB00070470000816ACA070ED18A0717D44A07D2
:104FC00020D40A0729D4CA0632D48A063BD480B535
:104FD0004A0644D458E000BF0268D0F82CC0536899
:104FE00023F4003343EA0C0353608A07E7D50268D1
:104FF000D0F830C0536823F4803343EA0C03536085
:105000004A07DED50268D0F834C0536823F4802301
:1050100043EA0C0353600A07D5D50268D0F838C0BC
:10502000536823F4004343EA0C035360CA06CCD50B
:105030000268D0F83CC0936823F4805343EA0C0321
:1050400093608A06C3D50268D0F840C0936823F401
:10505000005343EA0C03936080B54A0614D50268F6
:10506000D0F844C05368BCF5801F23F4801343EA92
:105070000C03536008D1D2F804C0D0F848E02CF4F7
:10508000C00343EA0E035360090658BF80BD0168A0
:10509000C06C4A6822F400221043486080BD0000C2
:1050A00070B504460020C4F88800FBF79FFA216819
:1050B00005460A6812070DD5C86980020AD4002681
:1050C000FBF794FA401B2168B6EB506F18D1C86902
:1050D0008002F5D50868400702D4002619E000BF19
:1050E000C8690026400214D4FBF780FA401B2168EF
:1050F000B6EB506F04D1C8694002F5D5EDE700BFAB
:105100000868032620F4D0700860886820F0010049
:1051100088602020C4F88000C4F884000021304654
:1051200084F87C1070BD0000806A0021A0F85E1039
:10513000A0F85610FCF7B6BD70B50646D6E90213C6
:10514000D6E90425006811432943D6F81CE0756EA2
:10515000026846F6F314CCF6FF742240294311434B
:1051600041EA0E01016041684FF2FF4521F44051D0
:105170001943416048F20003B169C4F20003984248
:105180001CBF326A11438268C1F2FF152A401143E5
:105190008160C16AD6F824C021F00F0141EA0C01F8
:1051A000C16244F6FF31C4F2000188424FF010059D
:1051B00016DD44F60041C4F20001884224D0984232
:1051C0002AD043F60001C4F2010188423AD141F2EB
:1051D0008801C4F202010D680FF2BC312EE000BF5D
:1051E00044F20041C4F2000188421DD044F600019F
:1051F000C4F20001884225D141F28801C4F20201C3
:1052000009680D0916E000BF41F28801C4F20201ED
:1052100009688D090EE000BF41F28801C4F2020165
:1052200009688D0A06E000BF41F28801C4F202015C
:1052300009688D0846F6F421C0F6000105F0030266
:1052400051F82250984221D0BEF5004F40D1082D90
:105250004FF0010000F29981DFE815F00A008000AC
:10526000880097019400970197019701A20000BF61
:10527000FBF7C6FD716A0B2980F08A8045F6C802EB
:10528000C0F6000252F8211087E000BF082D4FF051
:10529000010000F27A81DFE815F009007801390099
:1052A000780145007801780178015700FBF7A8FDE7
:1052B000D6F824C0BCF10B0F3BD34FF0010108BF5F
:1052C0004FF48071B0FBF1F3002B40F0AE800CE1A5
:1052D000082D4FF0010000F25881DFE815F00900B9
:1052E0006D00730056017F005601560156018D0076
:1052F000FBF786FD716A0B2976D245F6C802C0F627
:10530000000252F82110B0FBF1F0E4E0BCF10B0F09
:1053100080F07C8045F6C800C0F6000050F82C00F4
:1053200077E000BFFBF798FDD6F824C0BCF10B0F67
:10533000C3D245F6C801C0F6000151F82C10B0FBED
:10534000F1F3002B71D1D0E0BCF10B0F66D245F622
:10535000F400C0F6000030F81C0062E0FBF766FDC8
:10536000716A0B29FFF48AAF12E000BFBCF10B0F8A
:1053700080F07E8045F6C800C0F6000050F82C0092
:1053800079E000BFFBF768FD716A0B29FFF476AF87
:105390004FF0010108BF4FF48071B0FBF1F170E0F4
:1053A000BCF10B0F80F0728045F6F400C0F60000EF
:1053B00030F81C006DE000BFFBF738FD716A0B2967
:1053C0009BD311E0BCF10B0F80F0768045F6C8004E
:1053D000C0F6000050F82C0071E000BFFBF73CFD68
:1053E000716A0B29FFF489AF4FF0010108BF4FF438
:1053F0008071B0FBF1F06EE0BCF10B0F64D245F6AA
:10540000F400C0F6000030F81C0060E008BF4FF464
:10541000807042F20041C0F2F40104E008BF4FF492
:1054200080704FF40041B1FBF0F3726802EB420070
:1054300083424FF00100C0F0A88011038B4200F2BC
:10544000A480082D00F2A180DFE805F0069F529F9E
:105450005C9F9F9F6C0000BFFBF7D2FC716A0B2919
:1054600055D34FF0010108BF4FF4807155E000BFE4
:1054700008BF4FF4807042F20041C0F2F401B1FB6A
:10548000F0F17068490042080AE000BF08BF4FF41D
:1054900080704FF40041B1FBF0F170684A004108A0
:1054A0001144B1FBF0F04FF6F07101406CD0C0F345
:1054B0004200084317E000BF08BF4FF4807042F27B
:1054C0000041C0F2F40104E008BF4FF480704FF4D3
:1054D0000041B1FBF0F0716800EB5100B0FBF1F05E
:1054E00080B2102850D33168C86000204DE000BF62
:1054F000BCF10B0F20D245F6C800C0F6000050F8F2
:105500002C001CE0FBF7A8FC716A0B29A9D245F618
:10551000C802C0F6000252F82110B0FBF1F0726828
:10552000010E13E0BCF10B0F1AD245F6F400C0F6E1
:10553000000030F81C0016E008BF4FF4807042F203
:105540000041C0F2F401B1FBF0F00021000210EBC9
:10555000520041F100010023FAF75AFE0CE000BFAF
:1055600008BF4FF480704FF40041B1FBF0F000022F
:1055700000EB5200B0FBF2F04FF60052A0F5407184
:10558000C0F20F029142AED301204FF00111002270
:10559000C6E91A12326770BD010000000400000065
:1055A000020000000800000040F2E400C2F2000027
:1055B000FCF77ABBFEE70000A4B0FBF72BF86C46C3
:1055C000002504F108003C211C95CDE91A55CDE9D0
:1055D0001855FAF755FE4FF40070FBF7C1F84FF479
:1055E000803017900220142101261D900327CDE959
:1055F0002010CDE9220016A81696CDE91E77FBF7FC
:105600006DFC0F20CDE9110711A80321CDE9135539
:105610001595FBF76FFA2046CDE90065FBF734F9E5
:10562000FDF7A2FAFDF78EFBFDF7CAFBFDF74CFB79
:10563000FDF70EFB00F004F800F022F8FCE7000094
:1056400080B5FDF73BF80020FCF71CFD4FF6FF701E
:10565000FDF758F90020FDF749F940F2A400C2F225
:105660000000FBF76FFF40F22400C2F20000FBF7DE
:1056700069FFFAF777FEBDE88040FDF74FB90000FB
:1056800010B588B040F2A010C2F2000000780128E6
:105690003ED146F66830C0F6000090E81E10007D4E
:1056A0008DE81E006C468DF8140018202146CDF8B8
:1056B00010C0FCF729FE40F22000C2F20000027880
:1056C00046F64031C0F60001204600F029F8482097
:1056D0002146FCF719FE40F21E00C2F200000278DB
:1056E00046F62831C0F60001204600F019F8602087
:1056F0002146FCF709FE46F61431C0F60001782079
:10570000FCF702FEFAF72EFEFCF732FC08B010BDE3
:10571000FDF704F9FAF726FEFCF72AFC08B010BDE5
:105720000FB4084B10B504A902AA039800F01CF8A6
:10573000044602A9002000F0C1F8204610BC5DF824
:1057400014FB0000BD58000802E008C8121F08C181
:10575000002AFAD170477047002001E001C1121FF2
:10576000002AFBD1704700002DE9FF4F89B09B460E
:105770000446002506E025280BD05A460B99904791
:10578000641C6D1C20780028F5D10DB02846BDE8BA
:10579000F08F0027B8460122474900E0074314F87C
:1057A000013F203B02FA03F00842F7D120782E286F
:1057B00019D114F8010F47F004072A280ED06FF012
:1057C0002F022078A0F1300109290CD808EB8801BC
:1057D00002EB410100EB0108641CF2E70A98641C2B
:1057E00050F8048B0A9020780028CED0642808D086
:1057F000692806D075281ED05A460B9990476D1C13
:1058000058E00A994FF00A0901C90A91002802DA02
:1058100040422D2102E0390504D52B218DF82010BE
:10582000012103E0F90704D02021F7E78A4608AEFA
:105830000DE00021FAE70A994FF00A0901C90A911F
:10584000F7E74946FAF727FD303106F8011D002831
:10585000F7D1ADEB060000F12009780701D44FF035
:105860000108C84502DDA8EB090000E000208046E1
:10587000002706E008A85A46C05D0B9990476D1CAA
:105880007F1C5745F6DB04E030205A460B999047C1
:105890006D1CB8F10001A8F10108F5DC05E016F86F
:1058A000010B5A460B9990476D1CB9F10001A9F103
:1058B0000109F4DC641C65E7092801000A68531C2F
:1058C0000B60107070470000010000000200000033
:1058D0000400000006000000080000000A000000AC
:1058E0000C0000001000000020000000400000003C
:1058F00080000000010002000400060008000A0009
:105900000C0010002000400080000000000000009B
:10591000000001020304060708090000000001025C
:105920000304000000000000000000000000000070
:105930000000000000000000000000000000000067
:105940000000000000000000000000000000000057
:105950000000000080018001800180018001800141
:1059600080018001800180018001800180010000B0
:105970000000800180010000000000000000000025
:10598000000000000000CC00CC00CC00CC00CC001B
:10599000CC0000000000000000000000000000003B
:1059A00000000000000000000000000000000000F7
:1059B0000000000000000000000000000000600C7B
:1059C000600C600C30063006FE1FFE1F30063807E4
:1059D0001803FE1FFE1F180318038C018C018C0195
:1059E000000000008000E003F80F9C0E8C1C8C1857
:1059F0008C009800F801E007800E801C8C188C1831
:105A00009C18B80CF00FE00380008000000000003C
:105A100000000000000000000E181B0C110C110605
:105A20001106110311039B018E01C038C06C604444
:105A30006044304430441844186C0C3800000000B6
:105A400000000000E001F0033807180618063003D4
:105A5000F001F000F8009C310E33061E061C061CF7
:105A6000063FFC73F0210000000000000000000071
:105A70000000000000000C000C000C000C000C00EA
:105A80000C0000000000000000000000000000000A
:105A90000000000000000000000000000000000006
:105AA00000000000000200038001C000C000600090
:105AB0006000300030003000300030003000300036
:105AC000300060006000C000C000800100030002E0
:105AD0000000000020006000C00080018001000381
