:020000040800F2
:1000000028060020ED010008913200083524000880
:100010008D320008910200087D55000800000000A4
:100020000000000000000000000000003153000844
:1000300095020008000000009532000835530008C2
:10004000070200080702000807020008070200086C
:10005000070200080702000807020008070200085C
:10006000070200080702000807020008070200084C
:10007000070200080702000807020008070200083C
:10008000070200080000000007020008070200083D
:10009000070200080702000807020008070200081C
:1000A000070200080702000807020008070200080C
:1000B00055530008615300086D53000807020008FB
:1000C00007020008070200080702000807020008EC
:1000D00007020008070200080702000807020008DC
:1000E00007020008070200080702000807020008CC
:1000F00007020008070200080702000800000000CD
:1001000000000000070200080000000007020008CD
:1001100007020008000000007953000807020008E9
:10012000070200080702000807020008070200088B
:10013000070200080000000000000000070200089D
:10014000070200080702000800000000000000008D
:10015000000000000000000000000000000000009F
:10016000000000000000000000000000070200087E
:10017000070200080000000000000000000000006E
:10018000000000000702000800000000000000005E
:10019000000000000000000000000000000000005F
:1001A000000000000000000007020008070200082D
:1001B000070200080702000807020008000000000C
:1001C000000000000702000800000000000000001E
:1001D0000702000807020008DFF80CD000F040F822
:1001E000004800478155000828060020064880473F
:1001F00006480047FEE7FEE7FEE7FEE7FEE7FEE70C
:10020000FEE7FEE7FEE7FEE739530008D9010008E4
:10021000D2B201E000F8012B491EFBD27047002248
:10022000F6E710B513460A4604461946FFF7F0FFF5
:10023000204610BD30B50B46014600202022012487
:1002400009E021FA02F59D4205D303FA02F5491BA4
:1002500004FA02F52844151EA2F10102F1DC30BDBA
:100260001CB509480090094801900546009C06E02D
:10027000E06840F0010394E8070098471034AC426E
:10028000F6D3FFF7ADFF0000506A0008706A00085F
:10029000FEE700007047000070470000B0B504465C
:1002A00000F0E4F8054640F21800C2F20000406891
:1002B000611C18BF044400BF00F0D8F8401BA042E6
:1002C000FAD3B0BD0A68002A08BF70472DE9F04F85
:1002D00082B041F2004500F138478605C4F60005BA
:1002E000062340F2004E46EA9724A84208BF0523A1
:1002F000C4F2010E052C38BF234600244FF0010B39
:1003000000260027009309E00A68013732FA07F354
:1003100006F1040604F1020400F098800BFA07F9D4
:1003200012EA0908F0D04A6842F01005122D13D1E4
:100330006FF0030202EA57020244D2F820A006F04E
:100340001C030F25D1F810C09D402AEA05050CFAC0
:1003500003F32B4313624A6803680325A5406FEA41
:10036000050AAB4302F00305A5402B43122A0360A4
:1003700012D80BFA02F313F0061F0DD08368CD6874
:1003800003EA0A03A5402B4383604368150923EA67
:100390000903BD402B434360C3688D6803EA0A0329
:1003A000A5402B43D200C360AED541F26003C4F236
:1003B00002031A684FF6084942F001021A601A68EF
:1003C000CFF6FF7902F001020192019A27F00302B1
:1003D000724452F809C006F00C050F23AB402CEA1A
:1003E000030C009B03FA05F545EA0C0342F80930BB
:1003F000DEF800C04B684CEA0805DA0358BF2CEA67
:100400000805CEF80050DEF804C09A034CEA08054F
:1004100058BF2CEA0805CEF80450DEF808C0DA020E
:100420004CEA080558BF2CEA080540F20C4CCEF8FF
:100430000850C4F2010CDCF800209B0242EA0805D7
:1004400058BF22EA0805CCF800505DE702B0BDE8CD
:10045000F04F70470069084018BF01207047000046
:100460001823002A08BF2823C150704740F22420D7
:10047000C2F200000068704740F2180040F22421E8
:10048000C2F20000C2F2000140680A68104408602D
:100490007047000080B5032000F092F8002000F0C3
:1004A00009F800281CBF012080BD00F029F80020B9
:1004B00080BD000070B540F21806C2F200067168F7
:1004C000E1B1044640F22400C2F200004FF47A7217
:1004D0000068B2FBF1F1B0FBF1F001F029F80F2C4C
:1004E0004FF0010508D838B94FF0FF3021460022FF
:1004F000002500F039F83460284670BD012070BD39
:1005000082B041F25800C4F20200816841F001015A
:100510008160816801F0010101910199016841F058
:1005200080510160006800F080500090009847F210
:100530000800C4F20000016821F48041016002B0AB
:1005400070470000002848BF704700F01F010122DB
:1005500002FA01F11C2202EAD0004EF20012CEF2A1
:10056000000281507047000010B54EF60C5CCEF2D0
:10057000000CDCF80030C3F3022E8EF00704042CCC
:1005800028BF0424BEF103034FF0FF3E0EFA04F42B
:1005900038BF0023A14399400EFA03F39A43114355
:1005A00000F00F0200F160430901043A03F56443CF
:1005B0006244002848BF02F10C03197010BD00000E
:1005C0004EF60C51CEF200010A684FF6FF031A40B6
:1005D00060F30A2242F0806040F0FD7008607047CE
:1005E000B0F5007F42D0002840F0808047F2140030
:1005F000C4F2000050F8141CC26E01F4C06122F471
:100600008072B1F5806FC2662ED150F8141C0122A1
:1006100062F34A2140F8141C40F22401C2F20001A6
:100620000968322251434DF68362C4F21B32A1FBAA
:100630000212910C0268520511D54A1C0FD00268B3
:1006400052050CD559B10268520508D5012906D0CA
:100650000268520503D50229A1F10401EAD100681C
:10066000400544BF032070470020704747F2140044
:10067000C4F2000050F8141CC26E01F4C06142F4D0
:100680008072B1F5806FC266EED150F8141C012261
:1006900062F34A2140F8141C40F22401C2F2000126
:1006A0000968322251434DF68362C4F21B32A1FB2A
:1006B0000212910C0268520511D54A1C0FD0026833
:1006C00052050CD559B10268520508D5012906D04A
:1006D0000268520503D50229A1F10401EAD100689C
:1006E000400544BF03207047BEE700BF47F2140037
:1006F000C4F2000050F8141C022262F34A2140F8B0
:10070000141C0020704700002DE9F04182B004461F
:10071000807841F288060007C4F2020602D4002065
:100720002FE000BF56F8300C5FEAC0080BD456F833
:10073000300C40F0805046F8300C56F8300C00F089
:1007400080500190019847F20007C4F20007386812
:1007500040F480703860FFF789FE05463868C005B0
:1007600000F1D680FFF782FE401B0228F6D9032055
:10077000B8F1000F05D456F8301C21F0805146F82E
:10078000301C2168CA0713D18A0719D44A071FD41D
:100790000A0725D48A062BD44A0631D40A0637D450
:1007A000CA053DD48A0543D44A0549D457E000BF61
:1007B0003268636822F003021A4332608A07E5D583
:1007C0003268A36822F00C021A4332604A07DFD570
:1007D0003268E36822F030021A4332600A07D9D542
:1007E0003268236922F0C0021A4332608A06D3D5E8
:1007F0003268636922F440621A4332604A06CDD5FA
:100800003268A36922F440521A4332600A06C7D5FF
:100810003268E36922F440421A433260CA05C1D506
:100820003268236A22F440321A4332608A05BBD50B
:100830003268636A22F440221A4332604A050ED5B8
:100840003268A36A22F440121A43B3F5801F326063
:1008500005D156F87C2C42F4801246F87C2C0A050F
:100860000ED53268E36A22F440021A43B3F5800FD2
:10087000326005D156F87C2C42F4801246F87C2C6C
:10088000CA040ED53268236B22F040721A43B3F1CA
:10089000807F326005D156F87C2C42F4801246F8F5
:1008A0007C2C8A040ED53268636B22F040621A43B6
:1008B000B3F1006F326005D156F87C2C42F48012FF
:1008C00046F87C2C4A040ED53268A36B22F04062B5
:1008D0001A43B3F1006F326005D156F87C2C42F414
:1008E000801246F87C2C09040ED53168E26B21F0A9
:1008F00040511143B2F1805F316005D156F87C1C44
:1009000041F4803146F87C1C02B0BDE8F08100BFA4
:10091000B06810F4407010D0216C88420BD0B068E1
:10092000B16820F4407041F48031B160B16821F4C5
:100930008031B160B060C0070CD1B068216C20F488
:1009400040700843B0600020B8F1000F3FF519AFC8
:1009500011E700BFFFF78AFD054641F2883700BF67
:10096000B0688007E9D4FFF781FD401BB842F7D992
:10097000FDE600002DE9F047002865D042F2000AAC
:10098000C4F2020A0446DAF800000D4600F00F0037
:1009900088420CD2DAF8000020F00F002843CAF891
:1009A0000000DAF8000000F00F00A8424CD12168E6
:1009B00041F20808C807C4F2020803D1880740F1D1
:1009C000D480B9E0606802283AD0032840D158F8B2
:1009D000082C920138D5D8F80420D8F8043042F217
:1009E0000046C3F3031302F00302D8F80470013386
:1009F000C0F2F406032A04BF43F20066C0F26E168A
:100A0000B6FBF3F2D8F80430C7F306277A43C3F3F2
:100A10004163022707EB4303B2FBF3F24BF20043BF
:100A2000C0F2C4439A425DD9D8F8002012F0F00F0A
:100A30004DD0890756D5A168002953D147E000BFA2
:100A400058F8081C890307D40120BDE8F08700BFCF
:100A500058F8081C4905F7D5D8F8001001F00C012A
:100A600004293FD0D8F8001001F00C01082939D032
:100A7000D8F8001001F00C010C2933D1D8F804107B
:100A8000D8F8042042F20047C2F3031201F0030138
:100A9000D8F804300132C0F2F407032904BF43F24E
:100AA0000067C0F26E17B7FBF2F1D8F80420C3F369
:100AB00006235943C2F34162022303EB4202B1FB16
:100AC000F2F14BF20042C0F2C44291420AD9D8F886
:100AD0000010082262F307114FF00109C8F8001056
:100AE00002E000BF4FF00009D8F8001021F0030128
:100AF0000843C8F80000FFF7B9FC064641F2883702
:100B0000D8F80000616800F00C00B0EB810F07D04E
:100B1000FFF7ACFC801BB842F2D90320BDE8F08798
:100B20002168880708D4B9F1000F1ED0D8F800005A
:100B300020F0F00017E000BF480705D5D8F8000006
:100B400040F4E060C8F80000080706D5D8F80000B7
:100B5000072262F30D20C8F80000D8F80000A26850
:100B600020F0F0001043C8F80000DAF8000000F0B0
:100B70000F00A8421BD9DAF8000020F00F0028432C
:100B8000CAF80000FFF772FC064641F2883700BF42
:100B9000DAF8000000F00F00A84207D0FFF766FC6B
:100BA000801BB842F4D90320BDE8F08721684807CC
:100BB00007D5D8F80000E26820F4E0601043C8F8D8
:100BC0000000080708D5D8F80000216920F460501B
:100BD00040EAC100C8F80000D8F8000042F2004125
:100BE000C0F2F40100F00C00042808462DD0D8F81B
:100BF000000000F00C00082843F20060C0F26E1004
:100C000023D0D8F8002002F00C020C2A1CD1D8F80E
:100C10000420D8F8043002F00302C3F30313D8F819
:100C200004700133032A08BF0146B1FBF3F0D8F882
:100C30000410C7F30627C1F341610222784302EB97
:100C40004101B0FBF1F000E00020D8F8001045F6BB
:100C50006E02C1F30311C0F60002515C40F224029F
:100C600001F01F0120FA01F140F21800C2F2000069
:100C70000068C2F200021160BDE8F047FFF71ABC3D
:100C8000002804BF012070472DE9F04182B00446DE
:100C9000007841F20006C007C4F202061ED1207897
:100CA00080073DD42078000764D42078400700F105
:100CB00087802078800600F1D980E069002800F064
:100CC000C581B16801F00C010C2940F03181012887
:100CD00040F08481012002B0BDE8F081B06800F0EE
:100CE0000C01F068082961D0032281F00C0122EA8E
:100CF00000000844B0FA80F0400957D16068B0F5B0
:100D0000803F07D0B0F5A02F40F0E480306840F479
:100D100080203060306840F480303060E5E000BF13
:100D2000B068F16800F00C00042871D001F00301F4
:100D300080F00C0081F002010844B0FA80F0400914
:100D400066D1E1683068002900F0E08040F48070EE
:100D50003060FFF78BFB05463068400500F1FE80F0
:100D6000FFF784FB401B0228F6D9032002B0BDE840
:100D7000F08100BF6169D6F89400002900F09480EA
:100D800040F00100C6F89400FFF770FB054600BF75
:100D9000D6F8940080073FF588AFFFF767FB401B4C
:100DA0000228F5D9032002B0BDE8F0813068800345
:100DB0007FF575AF606800287FF471AF3EE000BF3B
:100DC000B06D5FEAC00808D4B06D40F08050B065E7
:100DD000B06D00F080500190019847F20007C4F216
:100DE00000073868C0052DD4386840F4807038603A
:100DF000FFF73CFB054600BF3868C00522D4FFF76B
:100E000035FB401B0228F7D9032002B0BDE8F08172
:100E10003068400501D5E06880B17068216920F034
:100E2000FE4040EA0160706040F21800C2F200002B
:100E30000068FFF73FFB00283FF434AF012002B009
:100E4000BDE8F081A068012808D0052840F0A48002
:100E5000D6F8900040F00400C6F89000D6F8900054
:100E600040F00100C6F89000A4E000BFA169D6F8E8
:100E70009800002900F07A8040F00100C6F8980040
:100E8000FFF7F4FA054600BFD6F8980080073FF553
:100E900014AFFFF7EBFA401B02284FF00300F3D921
:100EA00002B0BDE8F08100BF20F00100C6F8940058
:100EB000FFF7DCFA054600BFD6F8940080077FF5FF
:100EC000F4AEFFF7D3FA401B0228F5D9032002B095
:100ED000BDE8F0813168002821F48031316031684B
:100EE00021F48021316000F0CF80FFF7BFFA054682
:100EF000306880033FF5D3AEFFF7B8FA401B642893
:100F0000F6D9032002B0BDE8F08100BF20F4807064
:100F10003060FFF7ABFA0546306840057FF5C2AE9A
:100F2000FFF7A4FA401B02284FF00300F4D9B7E7FB
:100F30003168022821F08071316040F08B80FFF72A
:100F400095FA05463068800140F1CA80FFF78EFAB5
:100F5000401B02284FF00300F4D9A1E77068216913
:100F600020F0FE4040EA016070609BE620F0010046
:100F7000C6F89800FFF77AFA054600BFD6F8980041
:100F800080077FF59AAEFFF771FA401B02284FF0F9
:100F90000300F3D984E700BFD6F89010002821F0B1
:100FA0000101C6F89010D6F8901021F00401C6F89F
:100FB000901079D0FFF75AFA054641F2883700BF02
:100FC000D6F89000800700F18180FFF74FFA401BB0
:100FD000B842F5D9032002B0BDE8F081F068216A7B
:100FE00000F003028A427FF429AF626A6FF00F03B8
:100FF00000F0F00103EB021291427FF41FAFA16AEF
:1010000000F4FE42B2EB012F7FF418AFE16A00F06A
:101010007842B2EBC16F7FF411AF226B0023CFF6A1
:10102000E07303EA025200F4C001A2F500129142FB
:101030007FF404AF616B4FF07E4202EA016100F081
:10104000C06001F17E4188427FF4F8AE002002B01A
:10105000BDE8F081F0684FF6FF7120F00300F0600A
:10106000F068CFF6EE610840F060FFF7FFF9044644
:1010700030688001EAD5FFF7F9F9001B02284FF02C
:101080000300F5D90CE700BFFFF7F0F9054600BFF4
:10109000306880037FF503AEFFF7E8F9401B642852
:1010A0004FF00300F4D9FBE6FFF7E0F9054641F203
:1010B000883700BFD6F89000800707D5FFF7D6F92C
:1010C000401BB8424FF00300F4D9E9E6B8F1000F35
:1010D0003FF5EFADB06D20F08050B065E9E500BFA1
:1010E000F06848F20C01C0F29F1104F1200700EAF9
:1010F000010C8ECF6FF00F00D4E90C5400EB0210FE
:101100000022CFF6E07241EA0C0102EA05520843E0
:10111000A2F500124FF07E4540EA032005EA04657F
:10112000104305F17E4540EAC7602843F06030680F
:1011300040F080703060F06840F08070F060FFF741
:1011400095F90446306880013FF580AFFFF78EF9CE
:10115000001B02284FF00300F4D9A1E6002804BFC9
:101160000120704770B5044690F8250028B900208A
:1011700084F82400204600F057F842F60C060220BE
:10118000C4F2000684F82500CA20B0615320B06183
:101190003068400613D4306840F080003060FFF7BC
:1011A00065F9316849060AD4054600BFFFF75EF9C4
:1011B000401BB0F57A7F2FD830684006F6D5F0682E
:1011C0004FF6BF71CFF68F310840F060231D2269C2
:1011D0000BCB1043A269F56810432843F06043EA43
:1011E00001407060204604F05BF818B1FF21B16146
:1011F00070BD00BFF068D4E9071220F06040636959
:10120000104308431843F060FF20B061012084F8C8
:101210002500002070BD00BF032084F82500316840
:10122000FF21B16170BD0000006842F60001C4F208
:101230000001884218BF704741F29000C4F20200DA
:10124000016841F400410160704700002DE9F0435E
:1012500081B0044690F8240001284FF0020000F00D
:101260009280012384F8243084F8250042B1487824
:10127000CA7891F80290000240EA024845E000BFB7
:1012800048784FF0CD0CC20642BF00F0EF000A30A4
:101290004870CA7891F80290A2F10A07FEB206FBE4
:1012A0000CF6F50AD3B205EB8505A7EB450701253A
:1012B000092BA0F10A0305EBD62688BF47EA0612E0
:1012C000DFB207FB0CF7FE0A06EB8606A3EB46032C
:1012D00005EBD727092888BF43EA0710C0B2D2B26E
:1012E000000240EA0248A9F10A02D3B203FB0CF360
:1012F000DF0A5FFA89F007EB8707A2EB470205EBED
:10130000D323092888BF42EA031942F60C07C4F226
:101310000007CA200E78B8615320B86138684006CB
:1013200013D4386840F080003860FFF79FF83968C0
:1013300049060AD4054600BFFFF798F8401BB0F5F0
:101340007A7F17D838684006F6D55FFA89F040EA08
:101350000800710320F0C000084347F8080C20463D
:1013600003F09EFFFF21B96150B9012084F82500E8
:10137000002005E0032084F825003968FF21B961C9
:10138000002184F8241001B0BDE8F0832DE9F04776
:10139000044690F8240001284FF0020008BFBDE881
:1013A000F087884642F60C050121C4F2000584F856
:1013B000241084F82500CA20A8615320A861286859
:1013C0001646400614D4286840F080002860FFF7D5
:1013D0004DF8296849060BD4074600BFFFF746F8C9
:1013E000C01BB0F57A7F00F2978028684006F5D5DB
:1013F000E8683EB140060DD44FF0000988F803902C
:101400000CE000BF400613D44FF0000988F80390A9
:1014100012E000BF98F803004FEA805998F80120C5
:1014200098F8000098F80210120242EA004348E0DF
:1014300098F803004FEA805998F800304FF0CD0C2F
:10144000A3F10A02D6B206FB0CF698F80170F00A76
:101450004FF0010A5FFA83FE00EB80000AEBD6260C
:1014600098F80210A2EB4000BEF1090F88BF40EAD5
:101470000613A7F10A06F2B202FB0CF2D00A5FFAD9
:1014800083FEFBB200EB80000AEBD222A6EB400009
:10149000092B88BF40EA0217A1F10A02F8B2D7B2BD
:1014A00007FB0CF70002FE0A40EA0E43C8B206EB47
:1014B0008606A2EB46020AEBD727092888BF42EA34
:1014C0000711C8B2184347F67F7140EA0900C0F21D
:1014D0007F01084045F80C0CE86820F48020E860A3
:1014E000D8E90301EA6808431043E860204603F0A6
:1014F000D7FEFF21A96128B1002184F82410BDE89E
:10150000F08700BF012084F825000020002184F826
:101510002410BDE8F08700BF032084F82500296867
:10152000FF21A961002184F82410BDE8F0870000A4
:10153000411E0020B0EB116F1CBF012070474EF21E
:101540001002CEF2000251604EF62351CEF200019D
:10155000F0230B7007219060116070477047000006
:10156000704700007047000090F83C20012A04BF3B
:1015700002207047F0B5D1E90232D1E900CE22F461
:101580007C5223F470531A4348F2FF73CFF6F07382
:1015900003EA0E0342EA030E0A692CF477234EEAAB
:1015A000030C22F476224B6942EA0C021A430B6BBD
:1015B00022F4742C23F470238A6943EA0C0343EA6F
:1015C0000243026843F2004EC4F2010E42F6004CA0
:1015D0007245C4F2010C01D0624503D1CC6923F0FD
:1015E00080532343724501D0624517D101F1200693
:1015F000002770CECFF6F04723F07C7307EA06563B
:10160000334324F000742343724543EA050301D0B9
:10161000624503D1C96A23F000530B430021536490
:1016200080F83C10BDE8F040084670477047000065
:10163000704700007047000090F83C20012A4FF0EE
:1016400002022ED010B580F83D20026843F200431C
:10165000D2F804E0D2F808C0C4F201039A4205D0DF
:1016600042F60043C4F201039A4204D14C682EF4BE
:10167000700344EA030E4FF68F73CFF6FF530C68E6
:1016800003EA0E03896823432CF08004214353604E
:1016900091600121002280F83D1080F83C20BDE8D7
:1016A000104010467047000070470000002804BF3B
:1016B0000120704710B5044690F83D0028B900207D
:1016C00084F83C00204600F00DF8022084F83D002C
:1016D0002068211D03F056FE012084F83D00002003
:1016E00010BD000080B582B0006840F6FF71C4F202
:1016F000000188422ADD44F2FF31C4F20101884230
:101700004CDC41F20001C4F2000188425ED041F29B
:101710000041C4F20001884240F0958041F2580037
:10172000C4F202000168002241F02001016000685B
:10173000002100F02000019001983720FEF714FFEF
:10174000372002B0BDE88040FEF7FCBEB0F1804F0C
:1017500054D040F20041C4F20001884276D040F6F5
:101760000001C4F2000188426DD141F25800C4F278
:1017700002000168002241F00401016000680021BC
:1017800000F00400019001981E20FEF7EDFE1E20DF
:1017900002B0BDE88040FEF7D5BE00BF44F2004174
:1017A000C4F20101884241D044F60001C4F20101B3
:1017B000884248D141F25800C4F20200816841F4E5
:1017C00080218160806800F480203AE041F2580076
:1017D000C4F202000168002241F0100101600068BB
:1017E000002100F01000019001983620FEF7BCFEA9
:1017F000362002B0BDE88040FEF7A4BE41F258009A
:10180000C4F202000168002241F001010160006899
:10181000002100F00100019001981C20FEF7A4FEB9
:101820001C2002B0BDE88040FEF78CBE41F258009B
:10183000C4F20200816841F400318160806800F4E4
:1018400000300190019802B080BD00BF41F2580005
:10185000C4F202000168002241F002010160006848
:10186000002100F00200019001981D20FEF77CFE8F
:101870001D2002B0BDE88040FEF764BE006807226C
:10188000C168C0F2010241F00101C16081681140EC
:10189000062902D0B1F5803F02D10020704700BF79
:1018A000016841F0010101600020704701460220FB
:1018B00081F83D00086841F21113026A1A4205D00E
:1018C0000122002081F83D20704700BF026A44F2E7
:1018D00044431A42F4D1026822F00102026001225C
:1018E000002081F83D20704790F83C20012A4FF0FD
:1018F000020200F0B78080B580F83D20D0F800C02B
:101900008822DCF80830CFF6CE721A40CCF80820D6
:101910000B686F2B22DD2F22C0F21002934247DCAE
:10192000B3F1101F56DA702B00F0C080B3F5005FE2
:1019300040F09080D1E901E3C968DCF8082043EA6F
:101940000E0322F47F4243EA01211143CCF8081030
:10195000DCF8081041F480417AE000BF2F2B33DD22
:101960004F2B3BDC302B69D0402B73D1D1F804E0F6
:10197000C968DCF82030DCF8202022F00102CCF825
:101980002020DCF8182022F0F00242EA011123F0B6
:101990000A0242EA0E02CCF81810CCF82020DCF83B
:1019A00008104FF68872CFF6CF72114047314FE0E2
:1019B0005F21C0F210018B4236DC3021C0F21001F1
:1019C0008B423BD0402135E0C3B3102B36D0202BC7
:1019D00034D03FE032D020212CE000BF502B43D048
:1019E000602B37D1D1F804E0C968DCF8203023F04F
:1019F0001003CCF82030DCF81830DCF8202023F479
:101A0000704322F0A00243EA013142EA0E12CCF800
:101A10001810CCF82020DCF808104FF68872CFF6AA
:101A2000CF721140673113E06021C0F210018B4288
:101A300004D07021C0F210018B420BD1DCF80810E9
:101A40004FF68872CFF6CF721140194341F007016B
:101A5000CCF808100121002280F83D1080F83C20CD
:101A6000BDE8804010467047D1F804E0C968DCF852
:101A70002030DCF8202022F00102CCF82020DCF815
:101A8000182022F0F00242EA011123F00A0242EA91
:101A90000E02CCF81810CCF82020DCF808104FF615
:101AA0008872CFF6CF7211405731D1E7D1E901E307
:101AB000C968DCF8082043EA0E0322F47F4243EAB7
:101AC00001211143CCF80810DCF8081041F077012F
:101AD000BEE700007047000010B5016804460869C1
:101AE000800744BFC8685FEA807061D40869400716
:101AF00044BFC8685FEA407066D40869000744BF05
:101B0000C8685FEA00706DD40869C00644BFC86841
:101B10005FEAC06072D40869C0071CBFC8685FEA8A
:101B2000C07079D10869000644BFC8685FEA0060E8
:101B30007AD40869C00544BFC8685FEA006000F154
:101B40007B800869400644BFC8685FEA406000F1D6
:101B50007B800869800644BFC8685FEA806000F146
:101B60007B800869C00244BFC8685FEAC02000F1FA
:101B70007B800869800244BFC8685FEA802000F16A
:101B80007B800869400244BFC8685FEA402000F1DA
:101B90007B800869000246BFC8685FEA002010BD6C
:101BA0006FF4000220460A61BDE81040FFF77CBDDB
:101BB0006FF00200086101202077886980076BD0F0
:101BC0002046FFF787FF6DE06FF0040008610220F8
:101BD0002077886910F4407F68D02046FFF77AFFAD
:101BE0006AE000BF6FF00800086104202077C86930
:101BF000800765D02046FFF76DFF67E06FF01000AB
:101C0000086108202077C86910F4407F62D0204620
:101C1000FFF760FF64E000BF6FF00100086120463D
:101C200000F0AAFA21687DE76FF080000861204685
:101C3000FFF796FC21687CE76FF48070086120460E
:101C4000FFF78CFC21687CE76FF0400008612046BC
:101C500000F0EEFB21687CE76FF020000861204671
:101C6000FFF780FC21687CE76FF480100861204654
:101C7000FFF7DEFC21687CE76FF400100861204666
:101C8000FFF7D4FC21687CE76FF4800008612046F0
:101C9000FFF7D0FC21687CE7204600F025F82046BD
:101CA00000F02EFA2168002020771FE7204600F080
:101CB0001BF8204600F024FA2168002020771CE75A
:101CC000204600F011F8204600F01AFA21680020A2
:101CD000207719E7204600F007F8204600F010FAB8
:101CE00021680020207716E77047000090F83C300C
:101CF000012B4FF0020300F0E2814FEAB202052A05
:101D000080F83D3000F2D5812DE9F041DFE812F096
:101D100006005400A800FC0050018E0103681A6AF6
:101D2000A3F1804622F001021A621D6A1A46A6F546
:101D300096369F05D3F804C052F818EF47EA962666
:101D40008F68D1F8008025F00205072E45EA0705C7
:101D50000AD80127B74017F0E50F1FBFCF6825F05D
:101D60000C0527F004073D43072E0CD8012707FA7E
:101D700006F616F0E50F1FBFD1E905672CF4407495
:101D8000264346EA070C4FF68C74CFF6FE740EEA33
:101D9000040747EA0807C3F804C09F614F68096950
:101DA0005F631D629F6947F008079F619F6927F085
:101DB00004079F6178E100BF036843F200461A6A96
:101DC000C4F2010622F010021A621D6A1A46D3F804
:101DD00004C052F8188FB3428E68D1F800E025F0A5
:101DE000200545EA061505D042F60046C4F2010674
:101DF000B34207D1CE686FF0400725F0C00507EA6F
:101E000006163543A3F18046A6F596369F0547EAA8
:101E10009626072E0CD8012707FA06F616F0E50FCE
:101E20001FBFD1E905672CF44064374344EA870CAF
:101E300048F6FF44CFF6FF6404EA080444EA0E279C
:101E4000C3F804C09F614F6809699F631D629F6961
:101E500047F400679F619F6927F480679F6122E1D3
:101E6000036843F200461A6AC4F2010622F4807243
:101E70001A621D6A1A46D3F804C052F81C8FB34286
:101E80008E68D1F800E025F4007545EA062505D0F6
:101E900042F60046C4F20106B34207D1CE6840F2D2
:101EA000FF47360225F44065BE433543A3F1804623
:101EB000A6F596369F0547EA9626072E0CD80127E9
:101EC00007FA06F616F0E50F1FBFD1E905672CF4F7
:101ED0004054374344EA071C4FF68C74CFF6FE7427
:101EE00004EA080444EA0E07C3F804C0DF614F683F
:101EF0000969DF631D62DF6947F00807DF61DF6999
:101F000027F00407DF61CFE0036843F200461A6A56
:101F1000C4F2010622F480521A621D6A1A46D3F8EE
:101F200004C052F81C8FB3428E68D1F800E025F44B
:101F3000005545EA063505D042F60046C4F20106D2
:101F4000B34207D1CE6844F6FF77360325F4404507
:101F5000BE433543A3F18046A6F596369F0547EA72
:101F60009626072E0CD8012707FA06F616F0E50F7D
:101F70001FBFD1E905672CF44044374344EA871C6E
:101F800048F6FF44CFF6FF6404EA080444EA0E274B
:101F9000C3F804C0DF614F6809691F641D62DF690F
:101FA00047F40067DF61DF6927F48067DF617AE06B
:101FB00003681A6AA3F1804722F480321A621A4633
:101FC000A7F596379C05D3F820805D6852F850EF4E
:101FD000D1F800C08E6844EA9727072F09D801245A
:101FE000BC4014F0E50F1EBF4C6925F4803545EA6E
:101FF000042528F4003444EA06444FF68C76CFF6E4
:10200000FE7603360EEA060747EA0C075D601F6599
:102010004F6809699F641C621F6D47F008071F65C0
:102020001F6D27F004071F653EE000BF03681A6AB2
:10203000A3F1804722F480121A621A46A7F5963758
:102040009C05D3F820805D6852F850EFD1F800C0AD
:102050008E6844EA9727072F09D80124BC4014F062
:10206000E50F1EBF4C6925F4802545EA842528F438
:10207000001444EA065448F6FF46CFF6FF6606F51C
:1020800040760EEA060747EA0C275D601F654F6839
:102090000969DF641C621F6D47F400671F651F6DCF
:1020A00027F480671F650902136819431160BDE8B2
:1020B000F0410121002380F83D1080F83C301846A3
:1020C00070470000002804BF0120704710B5044687
:1020D00090F83D0028B9002084F83C00204600F02C
:1020E0000DF8022084F83D002068211D03F04AF914
:1020F000012084F83D00002010BD00007047000062
:1021000070470000006801F01F024FF0010C036AE5
:102110000CFA02F293430362036A81051343A0F1B0
:102120008042A2F5963241EA9222062A03621BD827
:102130000CFA02F111F0650F16D0416C41F4004128
:10214000416481680722C0F201021140062902D0D1
:10215000B1F5803F02D10020704700BF016841F017
:10216000010101600020704744F60001C4F2010142
:102170008842E6D1E1E700002DE9F041044600681D
:1021800040F20045B0F1804FC4F6000506D005F1DD
:102190007841884240F0BE8082E000BF284601219D
:1021A000FEF758F940F22806C2F200067070284681
:1021B0000221FEF74FF9307128460421FEF74AF953
:1021C000F0714FF090400121FEF744F9B178B07200
:1021D000022909D001291BD061B9717851B90121B7
:1021E000B170717941B91CE07178012904BF4FF4D5
:1021F000807171807179A1B1012917D002291BD199
:102200003179012904BF4FF48071A6F8051013E05D
:102210007178002914BF00210221B1707179002961
:10222000EAD1317941B9012105E000BF31790029B6
:102230000CBF022100217171317A59B101290DD0F1
:10224000022911D1F179012904BF4FF48071318144
:102250000AE000BFF17939B9012104E0F1790029E0
:102260000CBF022100213172F17A59B101290DD040
:10227000022910D1012804BF4FF48070A6F80B008A
:1022800009E000BF38B9012004E000BF00280CBFFE
:1022900002200020F072206805F17841884239D18F
:1022A00040F20200C2F2000001788A0732D140F207
:1022B000280640F20003C2F20006C2F2000337789B
:1022C0001B78F27896F8068096F809E096F80CC02C
:1022D0000137377093B1FBB20A2B0FD3012A0DD00F
:1022E000B8F1010F0AD0BEF1010F07D0BCF1010F08
:1022F00004D0002201313270017005E0012A18BFBC
:10230000B8F1010F40F08A8040F22410C2F20000C0
:10231000FFF7CCFA206805F1784101F58061884229
:1023200006D005F1784101F5406188425ED12BE08D
:1023300040F26400C2F2000000684FF47A71416319
:1023400040F2360040F20202C2F20000C2F2000285
:10235000007840F201011378C2F200010870581CA5
:10236000107040F23500C2F200000021017040F20E
:102370006410C2F20000FFF799FA206805F1784175
:1023800001F54061884231D140F20200C2F2000002
:10239000017801F00302032A12D0012A26D140F26B
:1023A000A402C2F2000212684FF47A73013153633F
:1023B000017040F2A410C2F20000FFF777FA15E0B6
:1023C00040F2A402C2F2000212684FF47A730131A3
:1023D0005363017040F2A410C2F20000FFF766FAE6
:1023E00040F2E410C2F20000FFF748FA206805F15D
:1023F000784101F58051884218BFBDE8F08140F274
:102400000201C2F200010878421C40F2E410C2F25C
:1024100000000A70BDE8F041FFF748BABEF1010FB5
:102420003FF472AFBCF1010F7FF474AF6CE70000B2
:1024300070470000FEE7000040F21841C4F60001BA
:102440000A6942F400720A610A6942F480720A6100
:102450000A6842F020020A602022C1F8FC230A69BF
:1024600042F020020A6100BF00BF00BF0A6842F0CC
:1024700020020A600A6842F480720A600022C1F8F1
:10248000FC230B6943F020030B6100BF00BF00BFBA
:102490000B6843F020030B600B6843F480730B6000
:1024A0000B6943F400730B610B6943F480730B6198
:1024B0000B6843F020030B602123C1F8FC330B6948
:1024C00043F020030B6100BF00BF00BF0B6843F067
:1024D00020030B600B6843F480730B60C1F8FC238E
:1024E0000A6942F020020A6100BF00BF00BF0A680B
:1024F00042F020020A600A6842F480720A600A69A7
:1025000042F400720A610A6942F480720A610A6840
:1025100042F020020A602222C1F8FC230A6942F03C
:1025200020020A6100BF00BF00BF0A6842F020021B
:102530000A600A6842F480720A6000BF00BF00BFF0
:102540000A6842F400720A604FF496320B69053A49
:1025500043F400730B610B6843F480730B600B68EA
:1025600043F020030B60C1F8FC030B6943F0200328
:102570000B6100BF00BF00BF0B6843F020030B607E
:102580000B6843F480730B6000BF00BF00BF0B6893
:1025900043F400730B600B6943F400730B610B6829
:1025A00043F480730B600B6843F020030B60C1F8A9
:1025B000FC030B6943F020030B6100BF00BF00BFA9
:1025C0000B6843F020030B600B6843F480730B60CF
:1025D00000BF00BF00BF0B6843F400730B600B69C2
:1025E00043F400730B610B6843F480730B600B685A
:1025F00043F020030B60C1F8FC030B6943F0200398
:102600000B6100BF00BF00BF0B6843F020030B60ED
:102610000B6843F480730B6000BF00BF00BF0B6802
:1026200043F400730B600B6943F400730B610B6898
:1026300043F480730B600B6843F020030B60C1F818
:10264000FC030B6943F020030B6100BF00BF00BF18
:102650000B6843F020030B600B6843F480730B603E
:1026600000BF00BF00BF0B6843F400730B600B6931
:1026700043F400730B610B6843F480730B600B68C9
:1026800043F020030B60C1F8FC030B6943F0200307
:102690000B6100BF00BF00BF0B6843F020030B605D
:1026A0000B6843F480730B6000BF00BF00BF0B6872
:1026B00043F400730B607FF449AF70470A78002A37
:1026C00008BF70472DE9F04145F67E0804464D1CD1
:1026D000002740F23F16C0F6000800BFA2F120001C
:1026E000C1B2490051FA80F008EB0012B1B22046A5
:1026F00000F00AF8EA5D22B1103E132F07F101073E
:10270000ECD3BDE8F04170472DE9F04740F21843A3
:10271000C4F600031F694FF0200C47F400771F61D7
:102720001F694FF0210E47F480771F611F6840F248
:10273000200947F020071F60C3F8FCC31F6940F25F
:10274000380A47F020071F6100BF00BF00BF1F68A5
:102750004FF0220847F020071F601F68C2F20009EF
:1027600047F480771F60C3F8FC031F69C2F2000AB8
:1027700047F020071F6100BF00BF00BF1F6847F080
:1027800020071F601F6847F480771F601F6947F4A8
:1027900000771F611F6947F480771F611F6847F04A
:1027A00020071F60C3F8FCE31C6944F020041C618F
:1027B00000BF00BF00BF1C6844F020041C601C6800
:1027C00044F480741C60C3F8FC131C6944F02004BA
:1027D0001C6100BF00BF00BF1C6844F020041C60E7
:1027E0001C6844F480741C60002400BF1D6945F41B
:1027F00000751D611D6945F480751D611D6845F0FA
:1028000020051D60C3F8FC831D6945F020051D618E
:1028100000BF00BF00BF1D6845F020051D601D689A
:1028200045F480751D6000BF00BF00BF1D6845F402
:1028300000751D60002500BF32F81460EE40F607F9
:10284000564608BF4E4636881F6947F400771F6119
:102850001F6847F480771F601F6847F020071F60DC
:10286000C3F8FC631E696F1C46F020061E6100BFA2
:1028700000BF00BF1E6846F020061E601E6846F4BA
:1028800080761E6000BF00BF00BF1E6846F4007661
:102890001E6032F81460FE40F607564608BF4E46EA
:1028A00036881F6947F400771F611F6847F48077F7
:1028B0001F601F6847F020071F60C3F8FC631E6994
:1028C000AF1C46F020061E6100BF00BF00BF1E689F
:1028D00046F020061E601E6846F480761E6000BF2B
:1028E00000BF00BF1E6846F400761E6032F8146018
:1028F000FE40F607564608BF4E4636881F6947F425
:1029000000771F611F6847F480771F601F6847F0DA
:1029100020071F60C3F8FC631E69EF1C46F0200609
:102920001E6100BF00BF00BF1E68043546F02006D0
:102930001E601E6846F480761E6000BF00BF00BFA8
:102940001E6846F400761E6032F81460FE40F607FA
:10295000564608BF4E4636881F69102D47F400774B
:102960001F611F6847F480771F601F6847F02007CA
:102970001F60C3F8FC631E6946F020061E6100BF9D
:1029800000BF00BF1E6846F020061E601E6846F4A9
:1029900080761E6000BF00BF00BF1E6846F4007650
:1029A0001E607FF449AF1D69013045F400751D615B
:1029B0001D69013445F480751D611D68182C45F0B2
:1029C00020051D60C3F8FCC31D6945F020051D618D
:1029D00000BF00BF00BF1D6845F020051D601D68D9
:1029E00045F480751D60C5B2C3F8FC531D6945F000
:1029F00020051D6100BF00BF00BF1D6845F0200518
:102A00001D601D6845F480751D601D6945F40075E5
:102A10001D611D6945F480751D611D6845F0200527
:102A20001D60C3F8FCE31D6945F020051D6100BF72
:102A300000BF00BF1D6845F020051D601D6845F4FE
:102A400080751D60C3F8FC131D6945F020051D61EC
:102A500000BF00BF00BF1D6845F020051D601D6858
:102A600045F480751D6008BFBDE8F087BEE6000034
:102A70002DE9F04F8BB0002641F24C000596C4F2D0
:102A80000200016840F2184541F00401016001684C
:102A9000C4F6000501F0040106910699016801AC35
:102AA00041F001010160016840F6140901F00101E3
:102AB000069106990168C4F6000941F0020101601F
:102AC0000068214600F00200069006984FF4487016
:102AD000019001200290A5F118000127CDE90366BD
:102AE000FDF7F0FB4FF48070CDE901074FF0904007
:102AF0002146CDE90366FDF7E5FB4FF6FF7005F5CE
:102B00007A7406904FF0030806A920460A964FF6FD
:102B1000FF7B0797CDE90868FDF7D4FB4FF6004A25
:102B2000CFF6FF7A55F80A0006A940F4807045F800
:102B30000A0028684FF6FF7740F40870286028697B
:102B400040F400702861286940F48070286128688A
:102B500040F020002860C9F80060286940F020009B
:102B6000286100BF00BF00BF286840F02000286037
:102B7000286840F48070286020460A96CDF818B086
:102B8000CDF82480CDE90766FDF79CFB4FF6104B8E
:102B9000CFF6FF7B55F80B0007A940F4807045F88D
:102BA0000B0000BF00BF00BFD5F8F89355F80A002E
:102BB00040F4807045F80A00012081E8410106A92F
:102BC00020460A960697FDF77DFB286848F23021DB
:102BD00040F40070286040F23A00C2F20000A0F811
:102BE00000900088884203D100F056FB02E000BF4D
:102BF00001F0C6F82869002640F4007028612869B1
:102C00004FF6FF7840F48070286128684FF0030980
:102C100040F02000286040F61400C4F60000066072
:102C2000286906A940F02000286100BF00BF00BF4E
:102C3000286840F020002860286840F480702860F0
:102C400020460A96CDE90686CDE90869FDF73AFBEC
:102C500055F80B0007A940F4807045F80B0000BF41
:102C600000BF00BFD5F8F87355F80A0040F4807033
:102C700045F80A00012081E8410206A920460A968B
:102C8000CDF81880FDF71EFB286840F4007028601E
:102C900040F23A00C2F2000007800BB0BDE8F08FAE
:102CA00081B0ADF80200BDF8020040F22001C2F28E
:102CB0000001088001B0704781B0ADF80200BDF896
:102CC000020040F23801C2F20001088001B07047F2
:102CD0002DE9F04387B04FF0000841F24C00CDF8E9
:102CE0001880C4F20200016840F6000541F00401BA
:102CF00001600168C4F6000501F004010191019929
:102D00000168012241F02001016001684FF47F4613
:102D100001F02001019101990168012741F00101B1
:102D20000160016801F0010101910199016841F020
:102D300002010160016801F002010191019901683D
:102D400041F00801016000684FF47F4100F0080085
:102D5000019001982846FDF783FB05F58064204625
:102D6000042100224FF00409FDF77AFB02A880E855
:102D7000C00102AE28463146CDF81480FDF7A2FA14
:102D80004FF090403146CDE902780497FDF79AFA6A
:102D90000720CDE90208A5F5806031460497FDF7CC
:102DA00091FA20463146CDE90297CDE90488FDF736
:102DB00089FA07B0BDE8F08310B586B040F23C0058
:102DC00042F600010024C2F20000C4F200017F229A
:102DD0004FF0804CC0E9001400F10801CDE9024435
:102DE000CDE90044FF231CC1C0E90544C0E907C484
:102DF000FEF7B4F9002818BFFDF74EFA40F23C0088
:102E0000C2F2000001A90122ADF804408DF806408D
:102E10000294CDE90444FEF7B9FA002818BFFDF783
:102E20003BFA40F20110C0F20100009040F23C0079
:102E3000C2F2000069460122FEF708FA002818BF16
:102E4000FDF72AFA06B010BDB0B59AB001A834213A
:102E5000FDF7E5F940F2640044F20045C2F20000DB
:102E6000C4F201054F21002240F2E733C0E90051CE
:102E7000C0E90223C0E904228261FEF717FC0028A2
:102E800018BFFDF709FA40F26400C2F20000FFF734
:102E900019F9002818BFFDF7FFF960200E904FF4D4
:102EA00048700F9040F264000024C2F200000EA9A6
:102EB0000022CDE91044CDE912441494FEF716FF28
:102EC000002818BFFDF7E8F94FF400500594CDE94C
:102ED0000344CDE90144CDE906040D9440F26404B5
:102EE000C2F2000401A92046FEF73EFB002818BFED
:102EF000FDF7D2F9206844F60001C4F201018842CE
:102F000010D0A84229D141F24C00C4F2020001685D
:102F100041F001010160006800F001001590159872
:102F200040200DE041F24C00C4F20200016841F083
:102F300001010160006800F00100159015988020E3
:102F40001590022016900020CDE91700012019905D
:102F500015A94FF09040FDF7B5F91AB0B0BD0000CB
:102F6000B0B59AB001A83421FDF759F940F2A40098
:102F700044F60005C2F20000C4F201052721002238
:102F800040F2E733C0E90051C0E90223C0E904225E
:102F90008261FEF78BFB002818BFFDF77DF940F238
:102FA000A400C2F20000FFF78DF8002818BFFDF75B
:102FB00073F960200E904FF416700F9040F2A40049
:102FC0000024C2F200000EA90022CDE91044CDE990
:102FD00012441494FEF78AFE002818BFFDF75CF92E
:102FE0004FF400500594CDE90344CDE90144CDE907
:102FF00006040D9440F2A404C2F2000401A9204684
:10300000FEF7B2FA002818BFFDF746F92068A8427B
:1030100014D044F20041C4F20101884229D141F2A6
:103020004C00C4F20200016841F001010160006837
:1030300000F001001590159840200DE041F24C0081
:10304000C4F20200016841F001010160006800F073
:1030500001001590159880201590022016900020F0
:10306000CDE917000120199015A94FF09040FDF708
:1030700029F91AB0B0BD000080B588B040F2E40074
:103080000021C2F200004FF080424F2340F2E73CA3
:103090000791CDE905110291C0E90023C0E9021CA6
:1030A00001618161FEF702FB002818BFFDF7F4F80B
:1030B0004FF48050049040F2E400C2F2000004A9F2
:1030C000FEF712FC002818BFFDF7E6F8002001907B
:1030D000039040F2E400C2F2000001A9FEF7ACFA4E
:1030E000002818BFFDF7D8F808B080BD80B588B0BB
:1030F00040F2241040F200420021C2F20000C4F26B
:10310000000241F63F7342F20F7C0791CDE90511B1
:103110000291C0E90023C0E9021C01618161FEF750
:10312000C5FA002818BFFDF7B7F84FF48050049097
:1031300040F22410C2F2000004A9FEF7D5FB0028DB
:1031400018BFFDF7A9F800200190039040F2241069
:10315000C2F2000001A9FEF76FFA002818BFFDF7C0
:103160009BF808B080BD000080B588B040F26410C4
:1031700040F600020021C2F20000C4F2000240F258
:10318000345342F20F7C0791CDE905110291C0E959
:103190000023C0E9021C01618161FEF787FA002863
:1031A00018BFFDF779F84FF48050049040F2641096
:1031B000C2F2000004A9FEF797FB002818BFFDF734
:1031C0006BF800200190039040F26410C2F20000FE
:1031D00001A9FEF731FA002818BFFDF75DF808B025
:1031E00080BD000010B584B040F2A41041F200018F
:1031F0000024C2F20000C4F2000142F20F730294F4
:1032000040F2CF7280E81600C3608461FEF74EFA88
:10321000002818BFFDF740F840F2A410C2F20000E9
:1032200001A901940394FEF707FA002818BFFDF7DF
:1032300033F804B010BD000010B584B040F2E410C3
:1032400041F200410024C2F20000C4F2000142F247
:103250000F73029440F69F7280E81600C360846189
:10326000FEF724FA002818BFFDF716F840F2E41024
:10327000C2F2000001A901940394FEF7DDF90028D1
:1032800018BFFDF709F804B010BD0000FEE700000C
:10329000704700007047000040F21840C4F600007C
:1032A0000169002241F40071016101694FF0030CD2
:1032B00041F480710161016841F020010160C0F8B2
:1032C000FC23016941F02001016100BF00BF00BF84
:1032D000016841F020010160016841F480710160E2
:1032E0000121C0F8FC13036943F02003036100BF10
:1032F00000BF00BF036843F020030360036843F48A
:1033000080730360036943F400730361036943F44A
:1033100080730361036843F020030360C0F8FC136B
:10332000036943F02003036100BF00BF00BF0368CF
:1033300043F020030360036843F480730360C0F824
:10334000FC23026942F02002026100BF00BF00BFFF
:10335000026842F020020260026842F48072026059
:10336000026942F400720261026942F480720261F1
:10337000026842F0200202601022C0F8FC230269B9
:1033800042F02002026100BF00BF00BF026842F0AD
:1033900020020260026842F48072026041F2907280
:1033A000C0F8FC23026942F02002026100BF00BFA6
:1033B00000BF026842F020020260026842F480729C
:1033C0000260026942F400720261026942F4807292
:1033D0000261026842F0200202606022C0F8FC2311
:1033E000026942F02002026100BF00BF00BF026814
:1033F00042F020020260026842F4807202604FF4E0
:103400001C52C0F8FC23026942F02002026100BF96
:1034100000BF00BF026842F020020260026842F46E
:1034200080720260026942F400720261026942F431
:1034300080720261026842F0200202606122C0F8DC
:10344000FC23026942F02002026100BF00BF00BFFE
:10345000026842F020020260026842F48072026058
:10346000C0F8FC13016941F02001016100BF00BFF9
:1034700000BF016841F020010160016841F48071E2
:103480000160016941F400710161016941F48071D9
:103490000161016841F0200101604621C0F8FC1380
:1034A000016941F02001016100BF00BF00BF016858
:1034B00041F020010160016841F480710160022146
:1034C000C0F8FC13026942F02002026100BF00BF95
:1034D00000BF026842F020020260026842F480727B
:1034E0000260026942F400720261026942F4807271
:1034F0000261026842F0200202601322C0F8FC233D
:10350000026942F02002026100BF00BF00BF0268F2
:1035100042F020020260026842F48072026048F2C7
:103520001002C0F8FC23026942F02002026100BFD1
:1035300000BF00BF026842F020020260026842F44D
:1035400080720260026942F400720261026942F410
:1035500080720261026842F0200202601222C0F80A
:10356000FC23026942F02002026100BF00BF00BFDD
:10357000026842F020020260026842F48072026037
:1035800048F2FE02C0F8FC23026942F02002026108
:1035900000BF00BF00BF026842F020020260026864
:1035A00042F480720260026942F4007202610269B0
:1035B00042F480720261026842F020020260C0F8A8
:1035C000FC13016941F02001016100BF00BF00BF91
:1035D000016841F020010160016841F480710160DF
:1035E0004FF4A061C0F8FC13016941F020010161B2
:1035F00000BF00BF00BF016841F020010160016809
:1036000041F480710160016941F400710161016957
:1036100041F480710161016841F020010160C0F84E
:10362000FCC3026942F02002026100BF00BF00BF7C
:10363000026842F020020260026842F48072026076
:1036400041F23002C0F8FC23026942F0200202611C
:1036500000BF00BF00BF026842F0200202600268A3
:1036600042F480720260026942F4007202610269EF
:1036700042F480720261026842F02002026030224D
:10368000C0F8FC23026942F02002026100BF00BFC3
:1036900000BF026842F020020260026842F48072B9
:1036A000026040F20332C0F8FC23036943F02003B8
:1036B000036100BF00BF00BF036843F02003036045
:1036C000036843F480730360036943F40073036188
:1036D000036943F480730361036843F020030360CC
:1036E0003123C0F8FC33036943F02003036100BFBA
:1036F00000BF00BF036843F020030360036843F486
:1037000080730360C0F8FC23036943F02003036166
:1037100000BF00BF00BF036843F0200303600368DD
:1037200043F480730360036943F400730361036926
:1037300043F480730361036843F020030360322382
:10374000C0F8FC33036943F02003036100BF00BFEE
:1037500000BF036843F020030360036843F48073F1
:103760000360C0F8FC23036943F02003036100BF3A
:1037700000BF00BF036843F020030360036843F405
:1037800080730360036943F400730361036943F4C6
:1037900080730361036843F0200303603323C0F8A0
:1037A000FC33036943F02003036100BF00BF00BF87
:1037B000036843F020030360036843F480730360ED
:1037C0004FF44073C0F8FC33016941F020010161FE
:1037D00000BF00BF00BF016841F020010160016827
:1037E00041F480710160016941F400710161016976
:1037F00041F480710161016841F0200101603421D0
:10380000C0F8FC13016941F02001016100BF00BF55
:1038100000BF016841F020010160016841F480713E
:103820000160C0F8FCC3016941F02001016100BFE3
:1038300000BF00BF016841F020010160016841F450
:1038400080710160016941F400710161016941F415
:1038500080710161016841F0200101603521C0F8EB
:10386000FC13016941F02001016100BF00BF00BFEE
:10387000016841F020010160016841F4807101603C
:10388000C0F8FC23016941F02001016100BF00BFC5
:1038900000BF016841F020010160016841F48071BE
:1038A0000160016941F400710161016941F48071B5
:1038B0000161016841F0200101603621C0F8FC136C
:1038C000016941F02001016100BF00BF00BF016834
:1038D00041F020010160016841F480710160142110
:1038E000C0F8FC13016941F02001016100BF00BF75
:1038F00000BF016841F020010160016841F480715E
:103900000160016941F400710161016941F4807154
:103910000161016841F0200101603721C0F8FC130A
:10392000016941F02001016100BF00BF00BF0168D3
:1039300041F020010160016841F480710160C0F82C
:10394000FC23016941F02001016100BF00BF00BFFD
:10395000016841F020010160016841F4807101605B
:10396000016941F400710161016941F480710161F3
:10397000016841F0200101603821C0F8FC130169A1
:1039800041F02001016100BF00BF00BF016841F0AC
:1039900020010160016841F480710160C0F8FC23DE
:1039A000016941F02001016100BF00BF00BF016853
:1039B00041F020010160016841F4807101600169FA
:1039C00041F400710161016941F480710161016894
:1039D00041F0200101603921C0F8FC13016941F078
:1039E0002001016100BF00BF00BF016841F020015C
:1039F0000160016841F480710160C0F8FC23016935
:103A000041F02001016100BF00BF00BF016841F02B
:103A100020010160016841F480710160016941F495
:103A200000710161016941F480710161016841F037
:103A3000200101603A21C0F8FC13016941F0200126
:103A4000016100BF00BF00BF016841F020010160BB
:103A5000016841F480710160C0F8FC33016941F0F4
:103A60002001016100BF00BF00BF016841F02001DB
:103A70000160016841F480710160016941F40071E5
:103A80000161016941F480710161016841F0200127
:103A900001603B21C0F8FC13016941F02001016184
:103AA00000BF00BF00BF016841F020010160016854
:103AB00041F480710160C0F8FCC3016941F020014C
:103AC000016100BF00BF00BF016841F0200101603B
:103AD000016841F480710160016941F40071016184
:103AE000016941F480710161016841F020010160C8
:103AF0003C21C0F8FC13016941F02001016100BFC5
:103B000000BF00BF016841F020010160016841F47D
:103B100080710160C0F8FC23016941F0200101615E
:103B200000BF00BF00BF016841F0200101600168D3
:103B300041F480710160016941F400710161016922
:103B400041F480710161016841F0200101603D2173
:103B5000C0F8FC13016941F02001016100BF00BF02
:103B600000BF016841F020010160016841F48071EB
:103B700001604FF4A051C0F8FC13016941F020012D
:103B8000016100BF00BF00BF016841F0200101607A
:103B9000016841F480710160016941F400710161C3
:103BA000016941F480710161016841F02001016007
:103BB0009221C0F8FC13016941F02001016100BFAE
:103BC00000BF00BF016841F020010160016841F4BD
:103BD000807101604FF40071C0F8FC13016941F07D
:103BE0002001016100BF00BF00BF016841F020015A
:103BF0000160016841F480710160016941F4007164
:103C00000161016941F480710161016841F02001A5
:103C100001609321C0F8FC13016941F020010161AA
:103C200000BF00BF00BF016841F0200101600168D2
:103C300041F480710160C0F8FC23016941F020016A
:103C4000016100BF00BF00BF016841F020010160B9
:103C5000016841F480710160016941F40071016102
:103C6000016941F480710161016841F02001016046
:103C70009021C0F8FC13016941F02001016100BFEF
:103C800000BF00BF016841F020010160016841F4FC
:103C90008071016040F60D01C0F8FC13016941F02C
:103CA0002001016100BF00BF00BF016841F0200199
:103CB0000160016841F480710160016941F40071A3
:103CC0000161016941F480710161016841F02001E5
:103CD0000160C0F8FCC3016941F02001016100BF2F
:103CE00000BF00BF016841F020010160016841F49C
:103CF0008071016041F21801C0F8FC13016941F0C4
:103D00002001016100BF00BF00BF016841F0200138
:103D10000160016841F480710160016941F4007142
:103D20000161016941F480710161016841F0200184
:103D300001600721C0F8FC13016941F02001016115
:103D400000BF00BF00BF016841F0200101600168B1
:103D500041F48071016040F27311C0F8FC130169F5
:103D600041F02001016100BF00BF00BF016841F0C8
:103D700020010160016841F480710160704700001A
:103D80002DE9F04F81B040F21844C4F600042069D8
:103D90004FF0120940F4007020612069002540F4C2
:103DA000807020612068112640F020002060E32010
:103DB000C4F8FC0320694FF0130B40F02000206191
:103DC00000BF00BF00BF2068102740F02000206027
:103DD00020684FF0070840F48070206043F208002C
:103DE000C4F8FC03206940F02000206100BF00BF40
:103DF00000BF206840F020002060206840F4807000
:103E00002060206940F400702061206940F48070D7
:103E10002061206840F020002060E720C4F8FC0307
:103E2000206940F02000206100BF00BF00BF206873
:103E300040F020002060206840F480702060C4F8CA
:103E4000FC93206940F02000206100BF00BF00BF4C
:103E5000206840F020002060206840F480702060DE
:103E6000206940F400702061206940F48070206176
:103E7000206840F020002060EF20C4F8FC03206997
:103E800040F02000206100BF00BF00BF206840F06C
:103E900020002060206840F48070206041F23120D2
:103EA000C4F8FC03206940F02000206100BF00BF7F
:103EB00000BF206840F020002060206840F480703F
:103EC0002060206940F400702061206940F4807017
:103ED0002061206840F0200020600120C4F8FC032D
:103EE000206940F02000206100BF00BF00BF2068B3
:103EF00040F020002060206840F480702060C4F80A
:103F0000FC53206940F02000206100BF00BF00BFCB
:103F1000206840F020002060206840F4807020601D
:103F2000206940F400702061206940F480702061B5
:103F3000206840F0200020600220C4F8FC032069C3
:103F400040F02000206100BF00BF00BF206840F0AB
:103F500020002060206840F4807020604FF4E06012
:103F6000C4F8FC03206940F02000206100BF00BFBE
:103F700000BF206840F020002060206840F480707E
:103F80002060206940F400702061206940F4807056
:103F90002061206840F0200020600320C4F8FC036A
:103FA000206940F02000206100BF00BF00BF2068F2
:103FB00040F020002060206840F48070206041F2D2
:103FC0003000C4F8FC03206940F02000206100BFED
:103FD00000BF00BF206840F020002060206840F44F
:103FE00080702060206940F400702061206940F4F6
:103FF00080702061206840F0200020600420C4F818
:10400000FC03206940F02000206100BF00BF00BF1A
:10401000206840F020002060206840F4807020601C
:10402000C4F8FC53206940F02000206100BF00BFAD
:1040300000BF206840F020002060206840F48070BD
:104040002060206940F400702061206940F4807095
:104050002061206840F0200020600820C4F8FC03A4
:10406000206940F02000206100BF00BF00BF206831
:1040700040F020002060206840F48070206040F212
:104080000720C4F8FC03206940F02000206100BF35
:1040900000BF00BF206840F020002060206840F48E
:1040A00080702060206940F400702061206940F435
:1040B00080702061206840F0200020600920C4F852
:1040C000FC03206940F02000206100BF00BF00BF5A
:1040D000206840F020002060206840F4807020605C
:1040E000C4F8FC53206940F02000206100BF00BFED
:1040F00000BF206840F020002060206840F48070FD
:104100002060206940F400702061206940F48070D4
:104110002061206840F0200020600A20C4F8FC03E1
:10412000206940F02000206100BF00BF00BF206870
:1041300040F020002060206840F480702060C4F8C7
:10414000FC53206940F02000206100BF00BF00BF89
:10415000206840F020002060206840F480702060DB
:10416000206940F400702061206940F48070206173
:10417000206840F0200020600C20C4F8FC03206977
:1041800040F02000206100BF00BF00BF206840F069
:1041900020002060206840F480702060C4F8FC5348
:1041A000206940F02000206100BF00BF00BF2068F0
:1041B00040F020002060206840F48070206020697A
:1041C00040F400702061206940F480702061206814
:1041D00040F0200020600D20C4F8FC03206940F06E
:1041E0002000206100BF00BF00BF206840F0200019
:1041F0002060206840F480702060C4F8FC5320697F
:1042000040F02000206100BF00BF00BF206840F0E8
:1042100020002060206840F480702060206940F415
:1042200000702061206940F480702061206840F0B7
:10423000200020600F20C4F8FC03206940F020001B
:10424000206100BF00BF00BF206840F02000206058
:10425000206840F480702060C4F8FC53206940F06E
:104260002000206100BF00BF00BF206840F0200098
:104270002060206840F480702060206940F4007065
:104280002061206940F480702061206840F02000A7
:1042900020601020C4F8FC03206940F02000206159
:1042A00000BF00BF00BF206840F0200020602068F1
:1042B00040F480702060C4F8FC53206940F0200076
:1042C000206100BF00BF00BF206840F020002060D8
:1042D000206840F480702060206940F40070206104
:1042E000206940F480702061206840F02000206048
:1042F000C4F8FC63206940F02000206100BF00BFCB
:1043000000BF206840F020002060206840F48070EA
:1043100020600720C4F8FC03206940F020002061E1
:1043200000BF00BF00BF206840F020002060206870
:1043300040F480702060206940F4007020612069A2
:1043400040F480702061206840F020002060C4F8B4
:10435000FC93206940F02000206100BF00BF00BF37
:10436000206840F020002060206840F480702060C9
:10437000C4F8FC53206940F02000206100BF00BF5A
:1043800000BF206840F020002060206840F480706A
:104390002060206940F400702061206940F4807042
:1043A0002061206840F020002060C4F8FCB3206940
:1043B00040F02000206100BF00BF00BF206840F037
:1043C00020002060206840F480702060C4F8FC5316
:1043D000206940F02000206100BF00BF00BF2068BE
:1043E00040F020002060206840F480702060C820E9
:1043F000FBF754FF20694FF0320A40F4007020614F
:10440000206940F480702061206840F02000206026
:10441000C4F8FC732069102740F02000206100BF21
:1044200000BF00BF206840F020002060206840F4FA
:104430008070206041F29060C4F8FC03206940F075
:104440002000206100BF00BF00BF206840F02000B6
:104450002060206840F480702060206940F4007083
:104460002061206940F480702061206840F02000C5
:104470002060C4F8FC63206940F02000206100BF88
:1044800000BF00BF206840F020002060206840F49A
:104490008070206040F22720C4F8FC03206940F0BF
:1044A0002000206100BF00BF00BF206840F0200056
:1044B0002060206840F4807020603220FBF7EEFE20
:1044C000206940F400702061206940F48070206110
:1044D000206840F020002060C4F8FC93206940F080
:1044E0002000206100BF00BF00BF206840F0200016
:1044F0002060206840F4807020601D20C4F8FC0318
:10450000206940F02000206100BF00BF00BF20688C
:1045100040F020002060206840F48070206032204D
:10452000FBF7BCFE206940F400702061206940F474
:1045300080702061206840F020002060C4F8FCB347
:10454000206940F02000206100BF00BF00BF20684C
:1045500040F020002060206840F4807020604FF41C
:104560000060C4F8FC03206940F02000206100BF17
:1045700000BF00BF206840F020002060206840F4A9
:1045800080702060206940F400702061206940F450
:1045900080702061206840F0200020602920C4F84D
:1045A000FC03206940F02000206100BF00BF00BF75
:1045B000206840F020002060206840F48070206077
:1045C0001420C4F8FC03206940F02000206100BFE3
:1045D00000BF00BF206840F020002060206840F449
:1045E00080702060206940F400702061206940F4F0
:1045F00080702061206840F0200020602B20C4F8EB
:10460000FC03206940F02000206100BF00BF00BF14
:10461000206840F020002060206840F48070206016
:104620000B20C4F8FC03206940F02000206100BF8B
:1046300000BF00BF206840F020002060206840F4E8
:10464000807020603220FBF729FE2069032140F4AE
:10465000007020612069072240F48070206120688A
:1046600040F0200020602020C4F8FC03206940F0C6
:104670002000206100BF00BF00BF206840F0200084
:104680002060206840F480702060C4F8FC532069EA
:1046900040F02000206100BF00BF00BF206840F054
:1046A00020002060206840F480702060206940F481
:1046B00000702061206940F480702061206840F023
:1046C000200020602120C4F8FC03206940F0200075
:1046D000206100BF00BF00BF206840F020002060C4
:1046E000206840F480702060C4F8FC53206940F0DA
:1046F0002000206100BF00BF00BF206840F0200004
:104700002060206840F480702060206940F40070D0
:104710002061206940F480702061206840F0200012
:1047200020603020C4F8FC03206940F020002061A4
:1047300000BF00BF00BF206840F02000206020685C
:1047400040F480702060C4F8FC83206940F02000B1
:10475000206100BF00BF00BF206840F02000206043
:10476000206840F480702060206940F4007020616F
:10477000206940F480702061206840F020002060B3
:104780003120C4F8FC03206940F02000206100BF04
:1047900000BF00BF206840F020002060206840F487
:1047A0008070206040F20770C4F8FC03206940F07C
:1047B0002000206100BF00BF00BF206840F0200043
:1047C0002060206840F480702060206940F4007010
:1047D0002061206940F480702061206840F0200052
:1047E0002060C4F8FCA3206940F02000206100BFD5
:1047F00000BF00BF206840F020002060206840F427
:10480000807020600620C4F8FC03206940F020007E
:10481000206100BF00BF00BF206840F02000206082
:10482000206840F480702060206940F400702061AE
:10483000206940F480702061206840F020002060F2
:104840003520C4F8FC03206940F02000206100BF3F
:1048500000BF00BF206840F020002060206840F4C6
:104860008070206040F20470C4F8FC03206940F0BE
:104870002000206100BF00BF00BF206840F0200082
:104880002060206840F480702060206940F400704F
:104890002061206940F480702061206840F0200091
:1048A00020603620C4F8FC03206940F0200020611D
:1048B00000BF00BF00BF206840F0200020602068DB
:1048C00040F48070206041F60470C4F8FC03206955
:1048D00040F02000206100BF00BF00BF206840F012
:1048E00020002060206840F480702060206940F43F
:1048F00000702061206940F480702061206840F0E1
:10490000200020603720C4F8FC03206940F020001C
:10491000206100BF00BF00BF206840F02000206081
:10492000206840F4807020600420C4F8FC032069F3
:1049300040F02000206100BF00BF00BF206840F0B1
:1049400020002060206840F480702060206940F4DE
:1049500000702061206940F480702061206840F080
:10496000200020603820C4F8FC03206940F02000BB
:10497000206100BF00BF00BF206840F02000206021
:10498000206840F480702060C4F8FC53206940F037
:104990002000206100BF00BF00BF206840F0200061
:1049A0002060206840F480702060206940F400702E
:1049B0002061206940F480702061206840F0200070
:1049C00020603920C4F8FC03206940F020002061F9
:1049D00000BF00BF00BF206840F0200020602068BA
:1049E00040F48070206040F20670C4F8FC03206937
:1049F00040F02000206100BF00BF00BF206840F0F1
:104A000020002060206840F480702060206940F41D
:104A100000702061206940F480702061206840F0BF
:104A2000200020603C20C4F8FC03206940F02000F6
:104A3000206100BF00BF00BF206840F02000206060
:104A4000206840F48070206040F20170C4F8FC03DC
:104A5000206940F02000206100BF00BF00BF206837
:104A600040F020002060206840F4807020602069C1
:104A700040F400702061206940F48070206120685B
:104A800040F0200020603D20C4F8FC03206940F085
:104A90002000206100BF00BF00BF206840F0200060
:104AA0002060206840F4807020600F20C4F8FC0370
:104AB000206940F02000206100BF00BF00BF2068D7
:104AC00040F020002060206840F480702060206961
:104AD00040F400702061206940F4807020612068FB
:104AE00040F0200020605020C4F8FC03206940F012
:104AF0002000206100BF00BF00BF206840F0200000
:104B00002060206840F480702060C4F8FC53206965
:104B100040F02000206100BF00BF00BF206840F0CF
:104B200020002060206840F480702060206940F4FC
:104B300000702061206940F480702061206840F09E
:104B4000200020605120C4F8FC03206940F02000C0
:104B5000206100BF00BF00BF206840F0200020603F
:104B6000206840F480702060EF20C4F8FC032069C6
:104B700040F02000206100BF00BF00BF206840F06F
:104B800020002060206840F480702060206940F49C
:104B900000702061206940F480702061206840F03E
:104BA000200020605220C4F8FC03206940F020005F
:104BB000206100BF00BF00BF206840F020002060DF
:104BC000206840F480702060C4F8FC53206940F0F5
:104BD0002000206100BF00BF00BF206840F020001F
:104BE0002060206840F480702060206940F40070EC
:104BF0002061206940F480702061206840F020002E
:104C000020605320C4F8FC03206940F0200020619C
:104C100000BF00BF00BF206840F020002060206877
:104C200040F48070206040F23F10C4F8FC0320691B
:104C300040F02000206100BF00BF00BF206840F0AE
:104C400020002060206840F480702060206940F4DB
:104C500000702061206940F480702061206840F07D
:104C6000200020606020C4F8FC03206940F0200090
:104C7000206100BF00BF00BF206840F0200020601E
:104C8000206840F4807020604FF41C50C4F8FC038E
:104C9000206940F02000206100BF00BF00BF2068F5
:104CA00040F020002060206840F48070206020697F
:104CB00040F400702061206940F480702061206819
:104CC00040F0200020606120C4F8FC03206940F01F
:104CD0002000206100BF00BF00BF206840F020001E
:104CE0002060206840F4807020600120C4F8FC033C
:104CF000206940F02000206100BF00BF00BF206895
:104D000040F020002060206840F48070206020691E
:104D100040F400702061206940F4807020612068B8
:104D200040F0200020606A20C4F8FC03206940F0B5
:104D30002000206100BF00BF00BF206840F02000BD
:104D40002060206840F480702060C4F8FC53206923
:104D500040F02000206100BF00BF00BF206840F08D
:104D600020002060206840F480702060206940F4BA
:104D700000702061206940F480702061206840F05C
:104D8000200020608020C4F8FC03206940F020004F
:104D9000206100BF00BF00BF206840F020002060FD
:104DA000206840F480702060C4F8FC53206940F013
:104DB0002000206100BF00BF00BF206840F020003D
:104DC0002060206840F480702060206940F400700A
:104DD0002061206940F480702061206840F020004C
:104DE00020608120C4F8FC03206940F0200020618D
:104DF00000BF00BF00BF206840F020002060206896
:104E000040F480702060C4F8FC53206940F020001A
:104E1000206100BF00BF00BF206840F0200020607C
:104E2000206840F480702060206940F400702061A8
:104E3000206940F480702061206840F020002060EC
:104E40008220C4F8FC03206940F02000206100BFEC
:104E500000BF00BF206840F020002060206840F4C0
:104E600080702060C4F8FC53206940F0200020616D
:104E700000BF00BF00BF206840F020002060206815
:104E800040F480702060206940F400702061206947
:104E900040F480702061206840F020002060832072
:104EA000C4F8FC03206940F02000206100BF00BF6F
:104EB00000BF206840F020002060206840F480702F
:104EC0002060C4F8FC53206940F02000206100BF3E
:104ED00000BF00BF206840F020002060206840F440
:104EE00080702060206940F400702061206940F4E7
:104EF00080702061206840F0200020608420C4F889
:104F0000FC03206940F02000206100BF00BF00BF0B
:104F1000206840F020002060206840F4807020600D
:104F2000C4F8FC53206940F02000206100BF00BF9E
:104F300000BF206840F020002060206840F48070AE
:104F40002060206940F400702061206940F4807086
:104F50002061206840F0200020608520C4F8FC0318
:104F6000206940F02000206100BF00BF00BF206822
:104F700040F020002060206840F480702060C4F879
:104F8000FC53206940F02000206100BF00BF00BF3B
:104F9000206840F020002060206840F4807020608D
:104FA000206940F400702061206940F48070206125
:104FB000206840F0200020609020C4F8FC032069A5
:104FC00040F02000206100BF00BF00BF206840F01B
:104FD00020002060206840F480702060C4F8FC73DA
:104FE000206940F02000206100BF00BF00BF2068A2
:104FF00040F020002060206840F48070206020692C
:1050000040F400702061206940F4807020612068C5
:1050100040F0200020609220C4F8FC03206940F09A
:105020002000206100BF00BF00BF206840F02000CA
:105030002060206840F480702060C4F8FC53206930
:1050400040F02000206100BF00BF00BF206840F09A
:1050500020002060206840F480702060206940F4C7
:1050600000702061206940F480702061206840F069
:10507000200020609320C4F8FC03206940F0200049
:10508000206100BF00BF00BF206840F0200020600A
:10509000206840F480702060C4F8FC13206940F060
:1050A0002000206100BF00BF00BF206840F020004A
:1050B0002060206840F480702060206940F4007017
:1050C0002061206940F480702061206840F0200059
:1050D00020609520C4F8FC03206940F02000206186
:1050E00000BF00BF00BF206840F0200020602068A3
:1050F00040F4807020604FF48870C4F8FC0320698D
:1051000040F02000206100BF00BF00BF206840F0D9
:1051100020002060206840F480702060206940F406
:1051200000702061206940F480702061206840F0A8
:10513000200020609720C4F8FC03206940F0200084
:10514000206100BF00BF00BF206840F02000206049
:10515000206840F480702060C4F8FC53206940F05F
:105160002000206100BF00BF00BF206840F0200089
:105170002060206840F480702060206940F4007056
:105180002061206940F480702061206840F0200098
:1051900020609820C4F8FC03206940F020002061C2
:1051A00000BF00BF00BF206840F0200020602068E2
:1051B00040F480702060C4F8FC53206940F0200067
:1051C000206100BF00BF00BF206840F020002060C9
:1051D000206840F480702060206940F400702061F5
:1051E000206940F480702061206840F02000206039
:1051F000C4F8FC13206940F02000206100BF00BF0C
:1052000000BF206840F020002060206840F48070DB
:10521000206041F21800C4F8FC03206940F020002F
:10522000206100BF00BF00BF206840F02000206068
:10523000206840F480702060206940F40070206194
:10524000206940F480702061206840F020002060D8
:10525000C4F8FC23206940F02000206100BF00BF9B
:1052600000BF206840F020002060206840F480707B
:10527000206040F27310C4F8FC03206940F0200065
:10528000206100BF00BF00BF206840F02000206008
:10529000206840F48070206001B0BDE8F08F00000D
:1052A00070B542F60C06C4F200063168044621F0DF
:1052B00080013160F168890614D4306860F0A00084
:1052C0003060FBF7D3F805463068800628D4FBF73A
:1052D000CDF8401BB0F57A7FF6D9032084F825007D
:1052E00070BD00BFF06820F02000F060306860F012
:1052F000A0003060FBF7BAF8054600BF30688006B2
:1053000010D4FBF7B3F8401BB0F57A7FF6D9032031
:1053100084F82500F16841F02001F16070BD00BF04
:10532000002070BD0020F16841F02001F16070BDE7
:1053300070470000FBF7A0B84EF68850CEF2000090
:10534000016841F4700101604FF0006140F8801C79
:105350007047000040F2E400C2F20000FCF7BCBB62
:1053600040F22410C2F20000FCF7B6BB40F2641019
:10537000C2F20000FCF7B0BB40F2A410C2F2000081
:10538000FCF7AABB40F2FF7C0268C4F2000C604547
:1053900022DD40F60003C4F20003984225D043F218
:1053A0000043C4F2010398421FD042F60043C4F206
:1053B0000103984219D043F2FF33C4F2010398422B
:1053C0001DDC60452ADCB0F1804F3DD040F2004347
:1053D000C4F2000336E000BFB0F1804F05D040F2C8
:1053E0000043C4F200039842E5D14B6822F07002FA
:1053F0001A4343F2FF33C4F201039842E1DD44F261
:10540000FF33C4F20103984212DC43F20043C4F2BA
:105410000103984218D044F2000311E040F6000363
:10542000C4F2000398420FD042F6004308E000BFE8
:1054300044F60003C4F20103984205D044F200434D
:10544000C4F20103984203D1CB6822F440721A439C
:1054500080B54B6922F0800E8A6843EA0E03D1F8CA
:1054600000C00360C262A0F18042A2F596328305BB
:1054700043EA9222072AC0F828C0BDE8804007D836
:10548000012303FA02F212F0E50F1CBF0969016360
:10549000012141617047000070B540F20005C2F281
:1054A0000005A87840F2A40600F003010129C2F229
:1054B00000060AD130684FF4FA71416340F2A4103B
:1054C000C2F20000FCF7DAF9A87800F00301022923
:1054D00042D12878B0B16A78E91C03E0013801F1C3
:1054E00001010FD091F900409442E3B216DCFF2B8A
:1054F000F4D09442F2DA40F23500C2F20000437078
:10550000FF2013E040F23500C2F2000000780128CD
:1055100013D0FF2819D14FF4167010E040F2350077
:10552000C2F200004370FF200870012040F23501F4
:10553000C2F2000108700128EBD14FF4487040F22C
:105540006401C2F200010968486340F26410C2F2CB
:105550000000FCF793F9A87800F00300032818BFB7
:1055600070BD31684FF4167240F2A410C2F2000010
:105570004A63BDE87040FCF781B90000FEE7000017
:10558000A4B0FAF787FF6C460025201D3C211C952E
:10559000CDE91A55CDE91855FAF741FE4FF40070E0
:1055A000FBF71EF8012016904FF480301790022070
:1055B00014211D900326CDE92010CDE9220016A864
:1055C000CDE91E66FBF75CFB0F20CDE9110611A8A3
:1055D0000321CDE913551595FBF7CCF94FF40020C5
:1055E00000904FF4407010902046FBF78DF8FDF7C7
:1055F0006FFBFDF7E1FBFDF73FFDFDF777FDFDF7E5
:10560000B3FDFDF7EFFDFDF717FEFDF71DFCFDF700
:10561000A7FC00F005F800BF00F026F8FCE700004A
:1056200080B540F2E400C2F20000FCF727F9FDF774
:105630001FFA0020FCF700FF4FF6FF70FDF73CFB60
:105640000020FDF72DFB40F2A400C2F20000002173
:10565000FCF758FD40F26400C2F200000021BDE8F2
:105660008040FCF74FBD0000B0B588B040F20005A7
:10567000C2F200052B78AA780DF102040CA1204695
:1056800000F022F830202146FDF718F840F23500EE
:10569000C2F200006A78437807A1204600F014F8AF
:1056A00060202146FDF70AF8FFF7F6FE08B0B0BD0E
:1056B000256420202025640020202020202564202F
:1056C00020202564000000000FB4084B10B504A989
:1056D00002AA039800F01CF8044602A9002000F07A
:1056E000C1F8204610BC5DF814FB000065580008A6
:1056F00002E008C8121F08C1002AFAD1704770479B
:10570000002001E001C1121F002AFBD170470000F8
:105710002DE9FF4F89B09B460446002506E0252869
:105720000BD05A460B999047641C6D1C20780028BA
:10573000F5D10DB02846BDE8F08F0027B84601220C
:10574000474900E0074314F8013F203B02FA03F009
:105750000842F7D120782E2819D114F8010F47F00C
:1057600004072A280ED06FF02F022078A0F1300114
:1057700009290CD808EB880102EB410100EB010874
:10578000641CF2E70A98641C50F8048B0A90207895
:105790000028CED0642808D0692806D075281ED0ED
:1057A0005A460B9990476D1C58E00A994FF00A0928
:1057B00001C90A91002802DA40422D2102E0390590
:1057C00004D52B218DF82010012103E0F90704D026
:1057D0002021F7E78A4608AE0DE00021FAE70A9992
:1057E0004FF00A0901C90A91F7E74946FAF722FD85
:1057F000303106F8011D0028F7D1ADEB060000F1AD
:105800002009780701D44FF00108C84502DDA8EB54
:10581000090000E000208046002706E008A85A465C
:10582000C05D0B9990476D1C7F1C5745F6DB04E06B
:1058300030205A460B9990476D1CB8F10001A8F131
:105840000108F5DC05E016F8010B5A460B99904764
:105850006D1CB9F10001A9F10109F4DC641C65E7D4
:10586000092801000A68531C0B6010707047000083
:105870000000000000000102030406070809000000
:105880000000000000000000000000000000000018
:105890000000000000000000000000000000000008
:1058A00000000000000000000000000000000000F8
:1058B00080018001800180018001800180018001E0
:1058C00080018001800180018001000000008001D2
:1058D0008001000000000000000000000000000047
:1058E0000000CC00CC00CC00CC00CC00CC000000F0
:1058F00000000000000000000000000000000000A8
:105900000000000000000000000000000000000097
:1059100000000000000000000000600C600C600C43
:1059200030063006FE1FFE1F300638071803FE1F24
:10593000FE1F180318038C018C018C01000000006D
:105940008000E003F80F9C0E8C1C8C188C009800D3
:10595000F801E007800E801C8C188C189C18B80C7D
:10596000F00FE00380008000000000000000000055
:10597000000000000E181B0C110C1106110611037B
:1059800011039B018E01C038C06C604460443044F8
:1059900030441844186C0C3800000000000000006F
:1059A000E001F0033807180618063003F001F00094
:1059B000F8009C310E33061E061C061C063FFC73C5
:1059C000F0210000000000000000000000000000C6
:1059D00000000C000C000C000C000C000C0000007F
:1059E00000000000000000000000000000000000B7
:1059F00000000000000000000000000000000000A7
:105A0000000200038001C000C000600060003000A0
:105A100030003000300030003000300030006000D6
:105A20006000C000C0008001000300020000000010
:105A300020006000C0008001800100030003000618
:105A40000006000600060006000600060006000329
:105A5000000380018001C000600020000000000001
:105A600000000000000000000000C000C000D806D8
:105A7000F807E001300338070000000000000000D4
:105A80000000000000000000000000000000000016
:105A90000000000000000000000080018001800183
:105AA00080018001FC3FFC3F80018001800180017A
:105AB0008001000000000000000000000000000065
:105AC00000000000000000000000000000000000D6
:105AD00000000000000000000000000000000000C6
