:020000040800F2
:1000000050050020ED010008A9290008C5270008B7
:10001000A5290008BD040008D52F00080000000035
:10002000000000000000000000000000B1290008EE
:10003000C104000800000000AD290008B52900082F
:10004000070200080702000807020008070200086C
:10005000070200080702000807020008070200085C
:10006000070200080702000807020008070200084C
:10007000070200080702000807020008070200083C
:100080000702000800000000310300080702000812
:10009000070200080702000807020008070200081C
:1000A000070200080702000807020008070200080C
:1000B00007020008070200080702000807020008FC
:1000C00007020008070200080702000807020008EC
:1000D00007020008C92F00080702000807020008ED
:1000E00007020008070200080702000807020008CC
:1000F00007020008070200080702000800000000CD
:1001000000000000070200080000000007020008CD
:1001100007020008000000000702000807020008AC
:10012000070200080702000807020008070200088B
:10013000070200080000000000000000070200089D
:10014000070200080702000800000000000000008D
:10015000000000000000000000000000000000009F
:10016000000000000000000000000000070200087E
:10017000070200080000000000000000000000006E
:10018000000000000702000800000000000000005E
:10019000000000000000000000000000000000005F
:1001A000000000000000000007020008070200082D
:1001B000070200080702000807020008000000000C
:1001C000000000000702000800000000000000001E
:1001D0000702000807020008DFF80CD000F090F8D2
:1001E00000480047D92F00085005002006488047E6
:1001F00006480047FEE7FEE7FEE7FEE7FEE7FEE70C
:10020000FEE7FEE7FEE7FEE7B9290008D90100088E
:100210002DE9F05F0546002092469B46884606463B
:10022000814640241BE0284641464746224600F0CE
:1002300057F853465A46C01A914110D311461846F2
:10024000224600F03EF82D1A67EB01084F46224681
:100250000120002100F035F817EB00094E41201E67
:10026000A4F10104DFDC484631462A464346BDE896
:10027000F09FD2B201E000F8012B491EFBD270477B
:100280000022F6E710B513460A4604461946FFF762
:10029000F0FF204610BD30B50B460146002020225D
:1002A000012409E021FA02F59D4205D303FA02F583
:1002B000491B04FA02F52844151EA2F10102F1DCE3
:1002C00030BD202A04DB203A00FA02F100207047FA
:1002D0009140C2F1200320FA03F319439040704784
:1002E000202A04DB203A21FA02F00021704721FA8B
:1002F00002F3D040C2F120029140084319467047F2
:100300001CB509480090094801900546009C06E08C
:10031000E06840F0010394E8070098471034AC42CD
:10032000F6D3FFF75DFF0000C0320008E03200089E
:1003300040F25400C2F2000000F068BB70B5044601
:1003400000688268836802F0040203F00803D21890
:1003500000F0B280C26892016ED5627F012A6BD133
:10036000227F012A68D10168490661D40121CAF2BD
:100370004031026852065BD40268520658D40268C3
:1003800052065CBF02685FEA426251D402685206BC
:100390005CBF02685FEA42624AD4026852065CBFF0
:1003A00002685FEA426243D4026852065CBF026898
:1003B0005FEA42623CD4026852065CBF02685FEAB0
:1003C000426235D4026852065CBF02685FEA42624C
:1003D0002ED4026852065CBF02685FEA426227D4EC
:1003E000026852065CBF02685FEA426220D402687B
:1003F00052065CBF02685FEA426219D40268520684
:100400005CBF02685FEA426212D4026852065CBFB7
:1004100002685FEA42620BD4026852065CBF02685F
:100420005FEA426204D41B393BD002685206A0D571
:1004300040210160012105E0022903D102210826A3
:1004400012E000BF826852070AD58268920707D47B
:1004500082684FF6C073C7F6FF731A40103282608D
:1004600001294FF0040610D0826812070AD582686D
:10047000920707D482684FF6C073C7F6FF731A401D
:1004800020328260032908BF0C2600F0A5FF054634
:100490002068806830420FD000F09EFF401B062885
:1004A000F6D3E06D40F01000E065206E40F00100F2
:1004B0002066012070BD00BF002070BDFEE7000077
:1004C0007047000070470000704700007047000050
:1004D00070470000704700007047000090F85820F7
:1004E000012A04BF022070470268B2F1A04F09D070
:1004F000C16D41F02001C1650121002280F8582022
:100500000846704770B540F208324FF6006C4FF65F
:100510000055C5F20002CFF6FF7CCFF6FF7552F80A
:100520000C40535923435B071ED4D1F800E01368F5
:10053000BEF1000F23F460441CD04B6890F8386083
:1005400043EA463323431360535952F80C60334354
:10055000DB071BD1136840F61F768968B343194344
:1005600041EA0E0111E000BFC16D41F02001C165FB
:1005700001210CE01460515952F80C301943C9079D
:1005800004D1116840F61F73994311600021BDE842
:100590007040002280F8582008467047F0B581B0BE
:1005A0000022009290F85820012A03D10221084627
:1005B00001B0F0BD0123076880F85830BB685B07C5
:1005C00034D4D1E900351F26C5F3012407EB840498
:1005D000226B05F01F05AE40C3F38463B243AB400A
:1005E0001A432263BA68BB6802F0040203F00803EE
:1005F000D21840F0BC800A6807F114030426C2F345
:100600004064D1F808E006EAD25C53F82440C2F313
:1006100004550722AA40BEF1004F24EA02040BD180
:1006200043F80C401A6842F000430DE0C16D41F000
:100630002001C16501216AE10EFA05F2224343F867
:100640000C201A6822F000437B61D1E90435FC6874
:10065000042B5FD13A6E3A6E0B68C2F3846293FA50
:10066000A3F6C3F3846C6FF3DF43B6FA86F5002B71
:100670002C464FF6FF7E08BF6446A242C0F2070E2A
:100680000CD13A6E22F000423A660A6802EA0E0382
:10069000C2F3846C92FAA2F2B2FA82F57A6E7A6EA2
:1006A000002BC2F384622C4608BF6446A2420CD1E0
:1006B0007A6E22F000427A660A6802EA0E03C2F3FA
:1006C000846C92FAA2F2B2FA82F5BA6EBA6E002B7C
:1006D000C2F384622C4608BF6446A2420CD1BA6EB3
:1006E00022F00042BA660A6802EA0E03C2F3846C82
:1006F00092FAA2F2B2FA82F5FA6EFA6E002BC2F307
:10070000846208BF6546AA4231D1FA6E22F00042E7
:10071000FA662CE0062202EA940205FA02FC0E6850
:1007200007F1600555F823404FF20002C0F2FF3296
:1007300006F0F846224046EA0C06324342F00042F8
:1007400045F823200A698B6955F8226026F08076E7
:10075000334345F822300A690B7F55F82260012B9C
:1007600026F0007608BF06F1007645F82260BA68E8
:100770000D68D20744D1CA68D7F8B0602B466FF332
:10078000DF4326EA030C4FF6FF7602F01804C0F2AE
:100790000706E64000242E40C4F27F0446EA0C0619
:1007A000A242C7F8B0602BD195FAA5F2B2FA82F254
:1007B000002B08BFC5F38462013202F01E0302F071
:1007C0001F0201260025964002EB4202CFF620656B
:1007D00005EB0255354345F000750A2B38BF46EA54
:1007E0000255C5F3406307EB83038A685E69C5F36E
:1007F00004550724AC40A643AA4032435A610D6811
:100800000021C8F208010D4200F0808040F2083C4F
:10081000C5F2000CDCF800400021CCF221318D4201
:1008200004F0E07E04D01021C9F2C0018D423FD116
:10083000B7F1A04F4FF0000108BF14F4000266D1D9
:10084000DCF8001042F6635221F0E07141EA0E013B
:1008500041F40001CCF8001040F20801C2F200019E
:100860000968C0F23E528909A1FB0212910901EB0D
:100870004101890000910099002947D00099013970
:1008800000910099002941D0009901390091009907
:10089000E1B30099013900910099B9B30099013988
:1008A0000091009900294FF00001E7D12FE000BF2F
:1008B0000021CCF252718D4210D10021B1EB1E6F9C
:1008C0000CD1ACF502718F4220D0DCF8001021F081
:1008D000E07141EA0E0141F0807115E0ACF5027162
:1008E0008F424FF0000112D00022CCF684329542A4
:1008F00008BF14F480020AD1DCF8001021F0E07186
:1009000041EA0E0141F48001CCF8001000210022E0
:1009100080F85820084601B0F0BD00000068B0F132
:10092000A04F18BF7047F0B583B040F25407C2F231
:100930000007384600F066F882B240F6E44145F61A
:1009400029435143C0F28F23A1FB0334230B8C0BAB
:1009500041F27B46664340F21005760C6424C2F2F5
:100960000005664325F8040B080BC6EB113189B26C
:10097000672671438E0A4CF6CD414143C90C01EB09
:10098000810125F8020CA0EB410084B215A1284694
:10099000CDE9006402F082FB40F2C000C2F2000028
:1009A000294640224FF47A7301F026FE40F60045B6
:1009B000C4F60005A5F580604FF48071012200F0B7
:1009C00005FD28460421012200F000FD28460421EF
:1009D000002200F0FBFC384603B0BDE8F04000F018
:1009E00087BB00BF56616C75653A25642C566F6CE9
:1009F000743A25642E25642564560D0A0000000013
:100A0000704700000068006C704700002DE9F04757
:100A1000056840F20018C5F200082E68D5F804A059
:100A2000D8F808720446B0070FD51AF002000CD0AF
:100A3000E06DC00603D4E06D40F40060E065204640
:100A4000FFF742FD256802202860700707F01F09A4
:100A500002D51AF0040004D1300749D51AF0080075
:100A600046D0204650F85C2FD20603D4026842F4E8
:100A700000720260EA6812F4406F33D12A4645459D
:100A800008BF4FF0A0421346B9F1090F08BF2B462B
:100A9000B9F1050F08BF2B46B9F1000F08BF2B466F
:100AA000AA4208BF1346DA6892041BD42A681207C8
:100AB00018D5AA6852070BD46A6822F00C026A6043
:100AC000016821F4807101600168C90406D509E05C
:100AD000E06D40F01000E06504F16000016841F055
:100AE000010101602046FFF719FF25680C202860EE
:100AF000B00602D51AF0200004D1700654D51AF0C1
:100B0000400051D0204650F85C2FD20603D4026832
:100B100042F4005202602946EF6CEA68454508BF7E
:100B20004FF0A0410B46B9F1070F08BF2B46B9F1B2
:100B3000060F08BF2B46B9F1000F08BF2B46A9428C
:100B400008BF0B46DB6817F4C07F07D0990125D496
:100B500012F4406108BF13F400511FD129684906FF
:100B60001CD513F4001119D1A96809070CD46968C0
:100B700021F060016960016821F480510160016821
:100B8000C90507D50AE000BFE06D40F01000E06540
:100B900004F16000016841F0010101602046FFF7A7
:100BA00095FC25686020286030060CD51AF080007E
:100BB00009D0E06D40F48030E065204600F080F917
:100BC000256880202860F0050DD51AF480700AD0C1
:100BD000E06D40F40030E0652046FFF77BFC2568BF
:100BE0004FF480702860B0050DD51AF400700AD05B
:100BF000E06D40F48020E0652046FFF76DFC25683D
:100C00004FF400702860F0061AD51AF0100017D0C3
:100C1000E06B38B1B9F1000F2CD0D8F8080210F40D
:100C2000604F0BD0E06D40F48060E065206E40F0D6
:100C3000020020662046FFF7E3FE256810202860AA
:100C4000700558BFBDE8F0871AF4806010D0E06DE1
:100C50004FF4806140F48040E065206E40F0080071
:100C6000206620462960BDE8F047FFF731BC00BF91
:100C7000BDE8F087E868C007D4D1DFE7B0B582B03F
:100C80000446002001904CB1E06D58B1216888689D
:100C9000800012D48868C00019D548E0012002B055
:100CA000B0BD00BF204600F00DF90020206684F89A
:100CB0005800216888688000ECD588684FF6C072BB
:100CC000C5F6FF72104088608868C0002FD44FF6C8
:100CD000C0728868C5F6FF7202F18052104000F1C0
:100CE0008050886040F20800C2F20000006842F6BE
:100CF00063528009C0F23E52A0FB020290090190AB
:100D00000198A0B1019801380190019878B101983B
:100D100001380190019850B1019801380190019873
:100D200028B101980138019001980028EAD188681B
:100D3000C00009D4E06D40F01000E065206E40F086
:100D400001002066012000E000208A68E36D02F0C7
:100D5000040203F01003D218E26D77D122F48172FD
:100D60000232E2658A68D2071AD140F2083C4FF697
:100D700000534FF60062C5F2000CCFF6FF73CFF6BA
:100D8000FF725CF803305CF802201A43D20707D1E7
:100D90006268DCF8003023F47C131A43CCF800209E
:100DA00094F81DE0E36BD4E902C243EA4E331A43E0
:100DB00094F8243042EA0C02012B42EA034207D1A4
:100DC000D4F828C00023CFF6FE7303EB4C431A433C
:100DD000E36A33B1D4F830C003F4787343EA0C0308
:100DE0001A43D1F80CC044F20703CFF6F07303EABC
:100DF0000C031A43CA600A69636B22F040621A430B
:100E00000A618A688B6802F0040203F00803D218B2
:100E100045D194F83820237F520042EA833CCB68C6
:100E200044F2020223EA020242EA0C02CA60226988
:100E30000B698AB143F480330B61D1F8C0C043F62B
:100E4000FF732CEA03031A430EE000BF42F01001C7
:100E50000120E16502B0B0BD23F480320A61D1F80F
:100E6000C02043F6FF739A43C1F8C02094F8403085
:100E70000A69012B10D140F2FD7322EA030CD4E978
:100E80001132D4E913E543EA0C031A4342EA0E0295
:100E90002A4342F0010201E022F001020A61626984
:100EA0000B6B012A23F00F0202D1236A013B1A4384
:100EB0000A63E16D012262F30101E16502B0B0BD98
:100EC0007047000080B586B000680021B0F1A04FE7
:100ED0000591049102D006B080BD00BF41F24C00E4
:100EE000C4F20200026842F400520260026802F496
:100EF00000520092009A026842F00102026000680B
:100F000000F0010000900098012001900320CDE93D
:100F1000020101A94FF0904000F090F91220002149
:100F2000002200F0D7FA122000F0C2FA06B080BD0D
:100F30002DE9F04140F20017C5F200070446D7F84A
:100F4000086200688168490703D494F858100129A1
:100F500002D10220BDE8F081012184F85810816897
:100F60004FF6C078C907C7F6FF7831D1816808F11C
:100F70007F0211420ED0E06D40F01000E065206E5F
:100F800040F001002066002084F858000120BDE8F0
:100F9000F08100BF816801EA080141F00101816030
:100FA00000F01AFA054604E000F016FA401B022889
:100FB000E1D820680168C9070AD18168C907F3D15F
:100FC000816801EA080141F001018160ECE700BF9E
:100FD000E16D40F60173994301F580730146B84213
:100FE00008BF4FF0A0410F1AB7FA87F706F01F02AB
:100FF0005FEA571CE36500D11AB9E36D23F480134F
:10100000E365E66D0023F6044FF0000644BF266E4C
:1010100026F0060626661C26066084F858304368CB
:1010200023F01C034360A569E66B2B464768082D37
:1010300018BF04233B43436026B1BCF1000F08D026
:1010400010E000BF436843F010034360BCF1000FA1
:1010500008D1092A28D8012303FA02F240F22123F9
:101060001A4221D0C168890115D5E16D012262F3D0
:101070000D31E16541686FF04002082D08BF6FF047
:10108000200201EA0201416041684FF0200308BFDD
:10109000402319434160816801EA080141F00401DD
:1010A00081600020BDE8F081E26D42F48012E265CB
:1010B000C9688901F5D5E16D012262F30D31E16561
:1010C0004168082D0AD121F020014160416841F0BA
:1010D000400141600020BDE8F08100BF21F04001E7
:1010E0004160416841F0200141600020BDE8F0818D
:1010F000B0B5044690F85800012804BF0220B0BDE6
:1011000001252046032184F85850FFF717F928B12C
:10111000002084F858002846B0BD00BF20688168D0
:101120008268D20726D011F0020123D1816801F034
:101130000D01012915D181684FF6C072C7F6FF7203
:101140001140023181600321016000F045F905463C
:1011500020688068C0070DD000F03EF9401B0328CE
:10116000F6D3E06D012540F01000E065204650F810
:10117000601F06E0204650F85C1F41F201129143C7
:10118000002541F001010160002084F85800284644
:10119000B0BD000090F82510022931D180B501685A
:1011A000D0E910CE826C0B6823F00E030B600B6845
:1011B00023F001030B60116821F4807111600EF0BF
:1011C0001F02012101FA02F2CCF80420D0E9133207
:1011D0005A60426D32B1136823F480731360D0E912
:1011E0001623536080F82510826B002180F82410AC
:1011F0000AB190470021BDE880400846704700BF13
:101200000421C1630121002280F8251080F82420E8
:1012100008467047B0B5044600F0DEF8054640F2D7
:101220000000C2F200004068611C18BF044400BF07
:1012300000F0D2F8401BA042FAD3B0BD0A68002AE1
:1012400008BF70472DE9F04F82B041F2004500F130
:1012500038478605C4F60005062340F2004E46EAEC
:101260009724A84208BF0523C4F2010E052C38BFFD
:10127000234600244FF0010B00260027009309E0CD
:101280000A68013732FA07F306F1040604F1020492
:1012900000F098800BFA07F912EA0908F0D04A68C2
:1012A00042F01005122D13D16FF0030202EA57022B
:1012B0000244D2F820A006F01C030F25D1F810C07C
:1012C0009D402AEA05050CFA03F32B4313624A6892
:1012D00003680325A5406FEA050AAB4302F0030546
:1012E000A5402B43122A036012D80BFA02F313F025
:1012F000061F0DD08368CD6803EA0A03A5402B437F
:1013000083604368150923EA0903BD402B4343600A
:10131000C3688D6803EA0A03A5402B43D200C3606B
:10132000AED541F26003C4F202031A684FF60849D1
:1013300042F001021A601A68CFF6FF7902F001024A
:101340000192019A27F00302724452F809C006F094
:101350000C050F23AB402CEA030C009B03FA05F5A8
:1013600045EA0C0342F80930DEF800C04B684CEA4D
:101370000805DA0358BF2CEA0805CEF80050DEF85D
:1013800004C09A034CEA080558BF2CEA0805CEF8B9
:101390000450DEF808C0DA024CEA080558BF2CEA0F
:1013A000080540F20C4CCEF80850C4F2010CDCF8F1
:1013B00000209B0242EA080558BF22EA0805CCF843
:1013C00000505DE702B0BDE8F04F70471823002AD7
:1013D00008BF2823C150704740F24C10C2F20000F1
:1013E0000068704740F2000040F24C11C2F2000069
:1013F000C2F2000140680A681044086070470000AB
:1014000080B5032000F092F8002000F009F80028D1
:101410001CBF012080BD00F029F8002080BD000025
:1014200070B540F20006C2F200067168E1B10446F0
:1014300040F20800C2F200004FF47A720068B2FB7A
:10144000F1F1B0FBF1F000F0ADFE0F2C4FF0010513
:1014500008D838B94FF0FF3021460022002500F0AF
:1014600039F83460284670BD012070BD82B041F269
:101470005800C4F20200816841F001018160816876
:1014800001F0010101910199016841F08051016071
:10149000006800F080500090009847F20800C4F205
:1014A0000000016821F48041016002B07047000033
:1014B000002848BF704700F01F01012202FA01F125
:1014C0001C2202EAD0004EF20012CEF2000281503D
:1014D0007047000010B54EF60C5CCEF2000CDCF844
:1014E0000030C3F3022E8EF00704042C28BF04241E
:1014F000BEF103034FF0FF3E0EFA04F438BF0023A1
:10150000A14399400EFA03F39A43114300F00F02EE
:1015100000F160430901043A03F564436244002882
:1015200048BF02F10C03197010BD00004EF60C51BB
:10153000CEF200010A684FF6FF031A4060F30A2258
:1015400042F0806040F0FD7008607047B0F5007FA9
:1015500042D0002840F0808047F21400C4F200001E
:1015600050F8141CC26E01F4C06122F48072B1F50F
:10157000806FC2662ED150F8141C012262F34A21FA
:1015800040F8141C40F20801C2F20001096832223E
:1015900051434DF68362C4F21B32A1FB0212910C3F
:1015A0000268520511D54A1C0FD0026852050CD5AD
:1015B00059B10268520508D5012906D002685205C2
:1015C00003D50229A1F10401EAD10068400544BF16
:1015D000032070470020704747F21400C4F2000057
:1015E00050F8141CC26E01F4C06142F48072B1F56F
:1015F000806FC266EED150F8141C012262F34A21BA
:1016000040F8141C40F20801C2F2000109683222BD
:1016100051434DF68362C4F21B32A1FB0212910CBE
:101620000268520511D54A1C0FD0026852050CD52C
:1016300059B10268520508D5012906D00268520541
:1016400003D50229A1F10401EAD10068400544BF95
:1016500003207047BEE700BF47F21400C4F2000049
:1016600050F8141C022262F34A2140F8141C002096
:10167000704700002DE9F04182B00446807841F2C5
:1016800088060007C4F2020602D400202FE000BF43
:1016900056F8300C5FEAC0080BD456F8300C40F016
:1016A000805046F8300C56F8300C00F08050019015
:1016B000019847F20007C4F20007386840F48070D0
:1016C0003860FFF789FE05463868C00500F1D6800E
:1016D000FFF782FE401B0228F6D90320B8F1000F65
:1016E00005D456F8301C21F0805146F8301C216892
:1016F000CA0713D18A0719D44A071FD40A0725D469
:101700008A062BD44A0631D40A0637D4CA053DD4FA
:101710008A0543D44A0549D457E000BF326863685C
:1017200022F003021A4332608A07E5D53268A368C3
:1017300022F00C021A4332604A07DFD53268E368B0
:1017400022F030021A4332600A07D9D53268236981
:1017500022F0C0021A4332608A06D3D53268636928
:1017600022F440621A4332604A06CDD53268A3693A
:1017700022F440521A4332600A06C7D53268E36940
:1017800022F440421A433260CA05C1D53268236A46
:1017900022F440321A4332608A05BBD53268636A4C
:1017A00022F440221A4332604A050ED53268A36AF9
:1017B00022F440121A43B3F5801F326005D156F867
:1017C0007C2C42F4801246F87C2C0A050ED5326837
:1017D000E36A22F440021A43B3F5800F326005D168
:1017E00056F87C2C42F4801246F87C2CCA040ED5A4
:1017F0003268236B22F040721A43B3F1807F32606B
:1018000005D156F87C2C42F4801246F87C2C8A04D0
:101810000ED53268636B22F040621A43B3F1006F59
:10182000326005D156F87C2C42F4801246F87C2CAC
:101830004A040ED53268A36B22F040621A43B3F11A
:10184000006F326005D156F87C2C42F4801246F8C5
:101850007C2C09040ED53168E26B21F04051114314
:10186000B2F1805F316005D156F87C1C41F48031C3
:1018700046F87C1C02B0BDE8F08100BFB06810F4EF
:10188000407010D0216C88420BD0B068B16820F451
:10189000407041F48031B160B16821F48031B160B1
:1018A000B060C0070CD1B068216C20F440700843D0
:1018B000B0600020B8F1000F3FF519AF11E700BF8D
:1018C000FFF78AFD054641F2883700BFB068800700
:1018D000E9D4FFF781FD401BB842F7D9FDE60000CF
:1018E0002DE9F047002865D042F2000AC4F2020A4E
:1018F0000446DAF800000D4600F00F0088420CD2D2
:10190000DAF8000020F00F002843CAF80000DAF8E7
:10191000000000F00F00A8424CD1216841F20808F5
:10192000C807C4F2020803D1880740F1D480B9E0A7
:10193000606802283AD0032840D158F8082C920158
:1019400038D5D8F80420D8F8043042F20046C3F362
:10195000031302F00302D8F804700133C0F2F40656
:10196000032A04BF43F20066C0F26E16B6FBF3F220
:10197000D8F80430C7F306277A43C3F3416302273C
:1019800007EB4303B2FBF3F24BF20043C0F2C44354
:101990009A425DD9D8F8002012F0F00F4DD0890797
:1019A00056D5A168002953D147E000BF58F8081C5C
:1019B000890307D40120BDE8F08700BF58F8081C50
:1019C0004905F7D5D8F8001001F00C0104293FD0E3
:1019D000D8F8001001F00C01082939D0D8F800100F
:1019E00001F00C010C2933D1D8F80410D8F80420E8
:1019F00042F20047C2F3031201F00301D8F80430A9
:101A00000132C0F2F407032904BF43F20067C0F2B9
:101A10006E17B7FBF2F1D8F80420C3F3062359433D
:101A2000C2F34162022303EB4202B1FBF2F14BF23B
:101A30000042C0F2C44291420AD9D8F800100822EC
:101A400062F307114FF00109C8F8001002E000BF6F
:101A50004FF00009D8F8001021F003010843C8F83E
:101A60000000FFF7B9FC064641F28837D8F80000BD
:101A7000616800F00C00B0EB810F07D0FFF7ACFC01
:101A8000801BB842F2D90320BDE8F087216888079F
:101A900008D4B9F1000F1ED0D8F8000020F0F000F3
:101AA00017E000BF480705D5D8F8000040F4E06013
:101AB000C8F80000080706D5D8F80000072262F32E
:101AC0000D20C8F80000D8F80000A26820F0F0004F
:101AD0001043C8F80000DAF8000000F00F00A84238
:101AE0001BD9DAF8000020F00F002843CAF80000E4
:101AF000FFF772FC064641F2883700BFDAF80000B3
:101B000000F00F00A84207D0FFF766FC801BB84228
:101B1000F4D90320BDE8F0872168480707D5D8F835
:101B20000000E26820F4E0601043C8F800000807F5
:101B300008D5D8F80000216920F4605040EAC100BF
:101B4000C8F80000D8F8000042F20041C0F2F401E9
:101B500000F00C00042808462DD0D8F8000000F052
:101B60000C00082843F20060C0F26E1023D0D8F8B1
:101B7000002002F00C020C2A1CD1D8F80420D8F85E
:101B8000043002F00302C3F30313D8F804700133E6
:101B9000032A08BF0146B1FBF3F0D8F80410C7F3DD
:101BA0000627C1F341610222784302EB4101B0FBF9
:101BB000F1F000E00020D8F8001043F28622C1F3D3
:101BC0000311C0F60002515C40F2080201F01F014F
:101BD00020FA01F140F20000C2F200000068C2F2F7
:101BE00000021160BDE8F047FFF71ABC40F20800A0
:101BF00041F20801C2F20000C4F202010068096863
:101C000043F29622C1F30221C0F60002515C01F0BA
:101C10001F01C8407047000040F2080041F208016F
:101C2000C2F20000C4F202010068096843F2962281
:101C3000C1F3C221C0F60002515C01F01F01C8408F
:101C40007047000041F20C01C4F2020151F8040C8B
:101C500042F20042C0F2F40200F00C0004281046E8
:101C600008BF704751F8040C00F00C00082843F23C
:101C70000060C0F26E1025D051F8043C03F00C0354
:101C80000C2B1CBF0020704780B5D1F800C00B683A
:101C90000CF0030CC3F3031E0B680EF1010EBCF134
:101CA000030F08BF02460968B2FBFEF0C3F3062328
:101CB000C1F341610222584302EB4101B0FBF1F054
:101CC000BDE8804070470000002804BF0120704735
:101CD0002DE9F04182B00446007841F20006C007C9
:101CE000C4F202061ED1207880073DD42078000778
:101CF00064D42078400700F187802078800600F1C6
:101D0000D980E069002800F0C581B16801F00C01BC
:101D10000C2940F03181012840F08481012002B07B
:101D2000BDE8F081B06800F00C01F068082961D0CE
:101D3000032281F00C0122EA00000844B0FA80F08E
:101D4000400957D16068B0F5803F07D0B0F5A02FAB
:101D500040F0E480306840F480203060306840F427
:101D600080303060E5E000BFB068F16800F00C0042
:101D7000042871D001F0030180F00C0081F0020111
:101D80000844B0FA80F0400966D1E1683068002963
:101D900000F0E08040F480703060FFF71DFB0546E6
:101DA0003068400500F1FE80FFF716FB401B02285B
:101DB000F6D9032002B0BDE8F08100BF6169D6F812
:101DC0009400002900F0948040F00100C6F89400CF
:101DD000FFF702FB054600BFD6F8940080073FF5E9
:101DE00088AFFFF7F9FA401B0228F5D9032002B0AB
:101DF000BDE8F081306880037FF575AF606800282A
:101E00007FF471AF3EE000BFB06D5FEAC00808D458
:101E1000B06D40F08050B065B06D00F08050019022
:101E2000019847F20007C4F200073868C0052DD4B6
:101E3000386840F480703860FFF7CEFA054600BF7E
:101E40003868C00522D4FFF7C7FA401B0228F7D92B
:101E5000032002B0BDE8F0813068400501D5E0689C
:101E600080B17068216920F0FE4040EA0160706036
:101E700040F20000C2F200000068FFF7D1FA00282B
:101E80003FF434AF012002B0BDE8F081A068012822
:101E900008D0052840F0A480D6F8900040F0040057
:101EA000C6F89000D6F8900040F00100C6F8900007
:101EB000A4E000BFA169D6F89800002900F07A805C
:101EC00040F00100C6F89800FFF786FA054600BF0B
:101ED000D6F8980080073FF514AFFFF77DFA401B56
:101EE00002284FF00300F3D902B0BDE8F08100BF33
:101EF00020F00100C6F89400FFF76EFA054600BF17
:101F0000D6F8940080077FF5F4AEFFF765FA401B22
:101F10000228F5D9032002B0BDE8F081316800281D
:101F200021F480313160316821F48021316000F08A
:101F3000CF80FFF751FA0546306880033FF5D3AEF6
:101F4000FFF74AFA401B6428F6D9032002B0BDE827
:101F5000F08100BF20F480703060FFF73DFA054645
:101F6000306840057FF5C2AEFFF736FA401B022805
:101F70004FF00300F4D9B7E73168022821F08071EF
:101F8000316040F08B80FFF727FA0546306880010A
:101F900040F1CA80FFF720FA401B02284FF00300EF
:101FA000F4D9A1E77068216920F0FE4040EA0160A1
:101FB00070609BE620F00100C6F89800FFF70CFA6D
:101FC000054600BFD6F8980080077FF59AAEFFF768
:101FD00003FA401B02284FF00300F3D984E700BF47
:101FE000D6F89010002821F00101C6F89010D6F81C
:101FF000901021F00401C6F8901079D0FFF7ECF9A9
:10200000054641F2883700BFD6F89000800700F1FE
:102010008180FFF7E1F9401BB842F5D9032002B0F7
:10202000BDE8F081F068216A00F003028A427FF483
:1020300029AF626A6FF00F0300F0F00103EB0212A8
:1020400091427FF41FAFA16A00F4FE42B2EB012F70
:102050007FF418AFE16A00F07842B2EBC16F7FF411
:1020600011AF226B0023CFF6E07303EA025200F4B3
:10207000C001A2F5001291427FF404AF616B4FF0F2
:102080007E4202EA016100F0C06001F17E418842B7
:102090007FF4F8AE002002B0BDE8F081F0684FF6A2
:1020A000FF7120F00300F060F068CFF6EE610840A9
:1020B000F060FFF791F9044630688001EAD5FFF738
:1020C0008BF9001B02284FF00300F5D90CE700BF85
:1020D000FFF782F9054600BF306880037FF503AE45
:1020E000FFF77AF9401B64284FF00300F4D9FBE6B0
:1020F000FFF772F9054641F2883700BFD6F8900025
:10210000800707D5FFF768F9401BB8424FF003007E
:10211000F4D9E9E6B8F1000F3FF5EFADB06D20F06E
:102120008050B065E9E500BFF06848F20C01C0F2EC
:102130009F1104F1200700EA010C8ECF6FF00F0011
:10214000D4E90C5400EB02100022CFF6E07241EA11
:102150000C0102EA05520843A2F500124FF07E4539
:1021600040EA032005EA0465104305F17E4540EA94
:10217000C7602843F060306840F080703060F068DD
:1021800040F08070F060FFF727F904463068800166
:102190003FF580AFFFF720F9001B02284FF0030046
:1021A000F4D9A1E6411E0020B0EB116F1CBF012045
:1021B00070474EF21002CEF2000251604EF62351EB
:1021C000CEF20001F0230B70072190601160704780
:1021D00090F87C10012904BF022070472421C0F828
:1021E000801002681168136823F00103136021F066
:1021F00000530021416613602022C0F8802080F83F
:102200007C100846704700007047000090F87C2062
:10221000012A04BF02207047B0B52422C0F88020F4
:102220000268D0F864E0D2F800C01368BEF1000F75
:1022300023F001031360936823F0606341EA030114
:10224000916019D09368916843F2B02E490FC0F69F
:10225000000E43F2B8251EF80140C0F60005695C87
:10226000C3F34263E400B4FBF1F11EF80340EB5CFE
:10227000E500B5FBF3F301E001210123A0F86A10AA
:102280002021A0F86830C2F800C0C0F880100021FA
:1022900080F87C10BDE8B0400846704790F87C207C
:1022A000012A04BF02207047B0B52422C0F8802064
:1022B0000268D0F864E0D2F800C01368BEF1000FE5
:1022C00023F001031360936823F0604341EA0301A4
:1022D000916019D09368916843F2B02E490FC0F60F
:1022E000000E43F2B8251EF80140C0F60005695CF7
:1022F000C3F34263E400B4FBF1F11EF80340EB5C6E
:10230000E500B5FBF3F301E001210123A0F86A1019
:102310002021A0F86830C2F800C0C0F88010002169
:1023200080F87C10BDE8B040084670477047000058
:10233000704700007047000070B501680446CA6924
:102340000E688B6802F02F05202D09D106F02005BC
:1023500003F08050401910D0E16E00294DD170BDBE
:102360005FEA027C09D00120C1F2000003EA000EFE
:1023700006F4907010EB0E0028D1D0020AD513F4A9
:10238000800007D04FF4801220460A62BDE87040FA
:10239000FFF7CEBF100605D506F0800003F400035A
:1023A000C01827D150061BD516F0400018D0086879
:1023B00020F04000086020200021C4F88000204662
:1023C0002167BDE8704000F0FBB900BFD00718BF1F
:1023D00016F4807022D1900703F001052AD432E070
:1023E00010020FD516F080400CD02046BDE870409A
:1023F000FFF79CBF216F0029B1D02046BDE8704097
:10240000084700BFD001AAD5B6F1FF3FC8BF70BDD5
:102410002046BDE87040FFF7F7BE00BF012008620C
:10242000D4F8880040F00100C4F88800900703F059
:10243000010508D53DB102200862D4F8880040F0BB
:102440000400C4F88800500708D53DB10420086294
:10245000D4F8880040F00200C4F88800BCF1000FF6
:102460000CD506F0200050EA0E0007D008200862C4
:10247000D4F8880040F00800C4F88800D4F8880038
:1024800000283FF46CAF90060AD506F0200003F058
:102490008052801804D0E26E12B120469047216825
:1024A000D4F888008A6800F0080002F04002801822
:1024B00006D12046FFF73EFF0020C4F8880070BD1B
:1024C00008684FF6FE7220F4907008608868CEF6B7
:1024D000FF72104088602020C4F884000020E0666D
:1024E0008868400614D5886820F040008860A06F96
:1024F00070B142F64931C0F600018163FEF74AFE31
:1025000000283FF42CAFA06F816BBDE870400847F6
:102510002046BDE87040FFF70DBF000010B5A8B120
:102520000446D0F8800028B9002084F87C002046BA
:1025300000F026F82420C4F880002068016821F00B
:1025400001010160204600F007FB08B1012010BD29
:10255000A06A10B1204600F03DFA2168486820F4D6
:1025600090404860886820F02A008860086840F041
:10257000010220460A60BDE8104000F0A1BA000048
:10258000006843F60001C4F20101884218BF704799
:1025900080B586B041F24C00C4F20200416941F4BA
:1025A00080414161416901F48041019101990168D3
:1025B00041F001010160006801A900F001000190F3
:1025C00001984FF4C0600190022002900020CDE9F4
:1025D0000300072005904FF09040FEF72FFE2520C6
:1025E00000210022FEF776FF2520FEF761FF06B0EE
:1025F000BDE88040704700002DE9F04381B081467E
:10260000044659F8800F20280DD10D4600294FF0BF
:10261000010000F0D2801646002A00F0CE8094F827
:102620007C00012804D1022001B0BDE8F08300BF86
:10263000012084F87C000020C4F8880021209846FE
:10264000C4F88000FEF7C8FEA4F85460A4F85660F1
:10265000A1680646B1F5805F02D12069002869D0E3
:102660002F460025B4F85600002869D018F1010063
:1026700038D0B8F1000F07D1216828E0FEF7ACFE92
:10268000801B404500F284802168C8690006F5D5AA
:1026900017B117F8010B04E035F8020B00276FF3B0
:1026A0005F208862B4F856000138A4F85600B4F8E8
:1026B00056000028E9D138E017F8010B8862B4F819
:1026C00056000138A4F85600B4F8560068B3C8693B
:1026D00000065BD5002FEFD135F8020B00276FF312
:1026E0005F20EBE7216802E0C869000609D4C869E9
:1026F000000606D4C86900065CBFC8695FEA0060CE
:10270000F2D51FB117F8010B05E000BF35F8020B39
:1027100000276FF35F208862B4F856000138A4F8F0
:102720005600B4F856000028E1D1C86940062BD401
:102730000AE000BF0027B4F8560000287FF496AFE7
:102740002168C86940061FD4B8F1000F1ED018F1E7
:10275000010013D1C869400616D4C869400613D4D5
:10276000C869400610D4C86940064FF00000F1D592
:102770001DE000BF2068C069400605D4FEF72CFEAE
:10278000801B4045F6D903E0002010E0FEF724FE50
:10279000206804F18409016821F4D0710160816826
:1027A00021F0010181602020C4F880000320202155
:1027B000C9F80010002184F87C1001B0BDE8F08356
:1027C00070470000FEE7000010B58CB040F25400E6
:1027D0000024C2F200004FF0A0410422C0E900141E
:1027E0000121CDE90A44CDE90744CDE90544CDE90D
:1027F0000344CDE90144C0E90244C0E904448261D4
:102800008483016280F82440C0E90B4480F838409A
:10281000C46380F84040FEF731FA002818BFFDF786
:1028200051FE40F25400C2F2000009A90994FDF7DC
:1028300055FE002818BFFDF745FE0220C0F23040CB
:10284000019006207F210290002004910421039032
:10285000CDE9051040F25400C2F2000001A9FDF7D5
:102860009DFE002818BFFDF72DFE0CB010BD000026
:102870002DE9F04387B0002741F24C000697C4F2DF
:102880000200016840F6000441F020010160016887
:10289000C4F6000401F020010191019901680122B0
:1028A00041F00101016001684FF4807601F00101FF
:1028B0000191019901684FF0010841F004010160A4
:1028C000016801F0040101910199016841F00801DA
:1028D000016000684FF4807100F0080001900198D9
:1028E0002046FEF773FD04F580652846042100228A
:1028F0004FF00409FEF76AFDCDE9026802AE2046FA
:102900003146CDE90477FEF799FC28463146CDE9FA
:102910000298CDE90477FEF791FC07B0BDE8F0839B
:1029200080B540F2C00043F60001C2F20000C4F2DC
:10293000010100234FF00C0C4FF4165280E80E00FA
:10294000C0E90333C0E905C3C0E90733C0E909336F
:10295000FFF7E4FD002818BFFDF7B4FD40F2C0000A
:10296000C2F200000021FFF799FC002818BFFDF714
:10297000A9FD40F2C000C2F200000021FFF746FCB2
:10298000002818BFFDF79EFD40F2C000C2F2000013
:10299000FFF71EFC002808BF80BDBDE88040FDF7A2
:1029A00091BD0000FEE70000704700007047000086
:1029B00070470000FEF716BD4EF68850CEF20000BC
:1029C000016841F4700101604FF0006140F8801C23
:1029D00070470000816ACA070ED18A0717D44A07D8
:1029E00020D40A0729D4CA0632D48A063BD480B53B
:1029F0004A0644D458E000BF0268D0F82CC053689F
:102A000023F4003343EA0C0353608A07E7D50268D6
:102A1000D0F830C0536823F4803343EA0C0353608A
:102A20004A07DED50268D0F834C0536823F4802307
:102A300043EA0C0353600A07D5D50268D0F838C0C2
:102A4000536823F4004343EA0C035360CA06CCD511
:102A50000268D0F83CC0936823F4805343EA0C0327
:102A600093608A06C3D50268D0F840C0936823F407
:102A7000005343EA0C03936080B54A0614D50268FC
:102A8000D0F844C05368BCF5801F23F4801343EA98
:102A90000C03536008D1D2F804C0D0F848E02CF4FD
:102AA000C00343EA0E035360090658BF80BD0168A6
:102AB000C06C4A6822F400221043486080BD0000C8
:102AC00070B504460020C4F88800FEF785FC216834
:102AD00005460A6812070DD5C86980020AD4002687
:102AE000FEF77AFC401B2168B6EB506F18D1C8691D
:102AF0008002F5D50868400702D4002619E000BF1F
:102B0000C8690026400214D4FEF766FC401B216809
:102B1000B6EB506F04D1C8694002F5D5EDE700BFB0
:102B20000868032620F4D0700860886820F001004F
:102B300088602020C4F88000C4F88400002130465A
:102B400084F87C1070BD0000806A0021A0F85E103F
:102B5000A0F85610FFF7EEBB70B50646D6E9021393
:102B6000D6E90425006811432943D6F81CE0756EA8
:102B7000026846F6F314CCF6FF7422402943114351
:102B800041EA0E01016041684FF2FF4521F44051D6
:102B90001943416048F20003B169C4F2000398424E
:102BA0001CBF326A11438268C1F2FF152A401143EB
:102BB0008160C16AD6F824C021F00F0141EA0C01FE
:102BC000C16244F6FF31C4F2000188424FF01005A3
:102BD00016DD44F60041C4F20001884224D0984238
:102BE0002AD043F60001C4F2010188423AD141F2F1
:102BF0008801C4F202010D680FF2BC312EE000BF63
:102C000044F20041C4F2000188421DD044F60001A4
:102C1000C4F20001884225D141F28801C4F20201C8
:102C200009680D0916E000BF41F28801C4F20201F3
:102C300009688D090EE000BF41F28801C4F202016B
:102C400009688D0A06E000BF41F28801C4F2020162
:102C500009688D0843F2A021C0F6000105F00302C7
:102C600051F82250984221D0BEF5004F40D1082D96
:102C70004FF0010000F29981DFE815F00A008000B2
:102C8000880097019400970197019701A20000BF67
:102C9000FEF7ACFF716A0B2980F08A8043F2442270
:102CA000C0F6000252F8211087E000BF082D4FF057
:102CB000010000F27A81DFE815F00900780139009F
:102CC000780145007801780178015700FEF78EFF02
:102CD000D6F824C0BCF10B0F3BD34FF0010108BF65
:102CE0004FF48071B0FBF1F3002B40F0AE800CE1AB
:102CF000082D4FF0010000F25881DFE815F00900BF
:102D00006D00730056017F005601560156018D007B
:102D1000FEF76CFF716A0B2976D243F24422C0F6AB
:102D2000000252F82110B0FBF1F0E4E0BCF10B0F0F
:102D300080F07C8043F24420C0F6000050F82C0064
:102D400077E000BFFEF77EFFD6F824C0BCF10B0F82
:102D5000C3D243F24421C0F6000151F82C10B0FB5D
:102D6000F1F3002B71D1D0E0BCF10B0F66D243F22E
:102D70007020C0F6000030F81C0062E0FEF74CFF47
:102D8000716A0B29FFF48AAF12E000BFBCF10B0F90
:102D900080F07E8043F24420C0F6000050F82C0002
:102DA00079E000BFFEF74EFF716A0B29FFF476AFA2
:102DB0004FF0010108BF4FF48071B0FBF1F170E0FA
:102DC000BCF10B0F80F0728043F27020C0F600005F
:102DD00030F81C006DE000BFFEF71EFF716A0B2982
:102DE0009BD311E0BCF10B0F80F0768043F24420BE
:102DF000C0F6000050F82C0071E000BFFEF722FF83
:102E0000716A0B29FFF489AF4FF0010108BF4FF43D
:102E10008071B0FBF1F06EE0BCF10B0F64D243F2B5
:102E20007020C0F6000030F81C0060E008BF4FF4CE
:102E3000807042F20041C0F2F40104E008BF4FF498
:102E400080704FF40041B1FBF0F3726802EB420076
:102E500083424FF00100C0F0A88011038B4200F2C2
:102E6000A480082D00F2A180DFE805F0069F529FA4
:102E70005C9F9F9F6C0000BFFEF7B8FE716A0B2934
:102E800055D34FF0010108BF4FF4807155E000BFEA
:102E900008BF4FF4807042F20041C0F2F401B1FB70
:102EA000F0F17068490042080AE000BF08BF4FF423
:102EB00080704FF40041B1FBF0F170684A004108A6
:102EC0001144B1FBF0F04FF6F07101406CD0C0F34B
:102ED0004200084317E000BF08BF4FF4807042F281
:102EE0000041C0F2F40104E008BF4FF480704FF4D9
:102EF0000041B1FBF0F0716800EB5100B0FBF1F064
:102F000080B2102850D33168C86000204DE000BF67
:102F1000BCF10B0F20D243F24420C0F6000050F861
:102F20002C001CE0FEF78EFE716A0B29A9D243F239
:102F30004422C0F6000252F82110B0FBF1F0726892
:102F4000010E13E0BCF10B0F1AD243F27020C0F651
:102F5000000030F81C0016E008BF4FF4807042F209
:102F60000041C0F2F401B1FBF0F00021000210EBCF
:102F7000520041F100010023FDF74AF90CE000BFC7
:102F800008BF4FF480704FF40041B1FBF0F0000235
:102F900000EB5200B0FBF2F04FF60052A0F540718A
:102FA000C0F20F029142AED301204FF00111002276
:102FB000C6E91A12326770BD01000000040000006B
:102FC000020000000800000040F2C000C2F2000051
:102FD000FFF7B2B9FEE70000A4B040F60044C4F623
:102FE0000004FEF70DFA6D46002605F108003C21AD
:102FF0001C96CDE91A66CDE91866FDF741F94FF444
:103000000070FEF7A3FA012016904FF4803017905D
:10301000022014211D900327CDE92010CDE92200C4
:1030200016A8CDE91E77FEF74FFE0F20CDE9110758
:1030300011A80321CDE913661596FEF751FC48F25D
:103040000100CDE900064FF000500F902846FEF732
:1030500011FBFFF70DFCFFF7B7FBFFF761FC40F238
:103060005406A4F58065C2F2000600BF28464FF45E
:1030700080710022FEF7AAF9204604210122FEF702
:10308000A5F9204604210022FEF7A0F93046FDF7FD
:103090004FFF4FF4FA70FEF7BDF8E7E70FB4084BA7
:1030A00010B504A902AA039800F01CF8044602A96E
:1030B000002000F0C1F8204610BC5DF814FB0000B1
:1030C0003932000802E008C8121F08C1002AFAD1EC
:1030D00070477047002001E001C1121F002AFBD198
:1030E000704700002DE9FF4F89B09B46044600253C
:1030F00006E025280BD05A460B999047641C6D1C9E
:1031000020780028F5D10DB02846BDE8F08F0027C3
:10311000B8460122474900E0074314F8013F203B2D
:1031200002FA03F00842F7D120782E2819D114F8BA
:10313000010F47F004072A280ED06FF02F022078E5
:10314000A0F1300109290CD808EB880102EB4101FC
:1031500000EB0108641CF2E70A98641C50F8048B29
:103160000A9020780028CED0642808D0692806D09C
:1031700075281ED05A460B9990476D1C58E00A9945
:103180004FF00A0901C90A91002802DA40422D21B4
:1031900002E0390504D52B218DF82010012103E030
:1031A000F90704D02021F7E78A4608AE0DE0002198
:1031B000FAE70A994FF00A0901C90A91F7E7494667
:1031C000FDF769F8303106F8011D0028F7D1ADEBA5
:1031D000060000F12009780701D44FF00108C84526
:1031E00002DDA8EB090000E000208046002706E091
:1031F00008A85A46C05D0B9990476D1C7F1C574527
:10320000F6DB04E030205A460B9990476D1CB8F16C
:103210000001A8F10108F5DC05E016F8010B5A469B
:103220000B9990476D1CB9F10001A9F10109F4DC7B
:10323000641C65E7092801000A68531C0B601070C4
:1032400070470000010000000200000004000000C0
:1032500006000000080000000A0000000C0000004A
:10326000100000002000000040000000800000006E
:10327000010002000400060008000A000C00100013
:10328000200040008000000000000000000001025B
:1032900003040607080900000000010203040000FF
:1032A0000000000004000000020000000800000010
:1032B00001010103070100000804020408010101E3
:1032C000E03200080000002010000000C4300008B8
:1032D000F03200081000002040050000D430000843
:1032E00010000000010000000024F40000000000B5
:04000005080001D915
:00000001FF
